{
  "_format": "hh-sol-artifact-1",
  "contractName": "GovernmentRegulator",
  "sourceName": "contracts/GovernmentRegulator.sol",
  "abi": [
    {
      "inputs": [
        {
          "internalType": "address",
          "name": "_fruitSupplyChainAddress",
          "type": "address"
        }
      ],
      "stateMutability": "nonpayable",
      "type": "constructor"
    },
    {
      "anonymous": false,
      "inputs": [
        {
          "indexed": false,
          "internalType": "uint256",
          "name": "contractId",
          "type": "uint256"
        }
      ],
      "name": "ContractCompleted",
      "type": "event"
    },
    {
      "anonymous": false,
      "inputs": [
        {
          "indexed": false,
          "internalType": "uint256",
          "name": "contractId",
          "type": "uint256"
        },
        {
          "indexed": false,
          "internalType": "string",
          "name": "farmId",
          "type": "string"
        },
        {
          "indexed": false,
          "internalType": "address",
          "name": "agent",
          "type": "address"
        },
        {
          "indexed": false,
          "internalType": "uint256",
          "name": "quantity",
          "type": "uint256"
        },
        {
          "indexed": false,
          "internalType": "uint256",
          "name": "price",
          "type": "uint256"
        }
      ],
      "name": "ContractCreated",
      "type": "event"
    },
    {
      "anonymous": false,
      "inputs": [
        {
          "indexed": false,
          "internalType": "uint256",
          "name": "contractId",
          "type": "uint256"
        },
        {
          "indexed": false,
          "internalType": "address",
          "name": "signer",
          "type": "address"
        }
      ],
      "name": "ContractSigned",
      "type": "event"
    },
    {
      "anonymous": false,
      "inputs": [
        {
          "indexed": false,
          "internalType": "uint256",
          "name": "contractId",
          "type": "uint256"
        },
        {
          "indexed": false,
          "internalType": "uint256",
          "name": "quantity",
          "type": "uint256"
        },
        {
          "indexed": false,
          "internalType": "uint256",
          "name": "timestamp",
          "type": "uint256"
        }
      ],
      "name": "FruitDelivered",
      "type": "event"
    },
    {
      "anonymous": false,
      "inputs": [
        {
          "indexed": false,
          "internalType": "string",
          "name": "province",
          "type": "string"
        },
        {
          "indexed": false,
          "internalType": "uint256",
          "name": "totalFruitHarvested",
          "type": "uint256"
        },
        {
          "indexed": false,
          "internalType": "uint256",
          "name": "totalContractsCreated",
          "type": "uint256"
        },
        {
          "indexed": false,
          "internalType": "uint256",
          "name": "totalContractsCompleted",
          "type": "uint256"
        },
        {
          "indexed": false,
          "internalType": "uint256",
          "name": "farmCount",
          "type": "uint256"
        },
        {
          "indexed": false,
          "internalType": "uint256",
          "name": "timestamp",
          "type": "uint256"
        }
      ],
      "name": "ProvinceStatisticsUpdated",
      "type": "event"
    },
    {
      "anonymous": false,
      "inputs": [
        {
          "indexed": false,
          "internalType": "string",
          "name": "entityType",
          "type": "string"
        },
        {
          "indexed": false,
          "internalType": "string",
          "name": "identifier",
          "type": "string"
        }
      ],
      "name": "StatisticsUpdated",
      "type": "event"
    },
    {
      "inputs": [
        {
          "internalType": "uint256",
          "name": "",
          "type": "uint256"
        }
      ],
      "name": "activeContractIds",
      "outputs": [
        {
          "internalType": "uint256",
          "name": "",
          "type": "uint256"
        }
      ],
      "stateMutability": "view",
      "type": "function"
    },
    {
      "inputs": [
        {
          "internalType": "address",
          "name": "",
          "type": "address"
        }
      ],
      "name": "agentStats",
      "outputs": [
        {
          "internalType": "uint256",
          "name": "totalQuantityPurchased",
          "type": "uint256"
        },
        {
          "internalType": "uint256",
          "name": "totalContractsCreated",
          "type": "uint256"
        },
        {
          "internalType": "uint256",
          "name": "totalContractsCompleted",
          "type": "uint256"
        },
        {
          "internalType": "uint256",
          "name": "lastStatisticsUpdate",
          "type": "uint256"
        }
      ],
      "stateMutability": "view",
      "type": "function"
    },
    {
      "inputs": [
        {
          "internalType": "uint256",
          "name": "_contractId",
          "type": "uint256"
        }
      ],
      "name": "cancelContract",
      "outputs": [],
      "stateMutability": "nonpayable",
      "type": "function"
    },
    {
      "inputs": [
        {
          "internalType": "address",
          "name": "_newAuthority",
          "type": "address"
        }
      ],
      "name": "changeGovernmentAuthority",
      "outputs": [],
      "stateMutability": "nonpayable",
      "type": "function"
    },
    {
      "inputs": [
        {
          "internalType": "uint256",
          "name": "_contractId",
          "type": "uint256"
        },
        {
          "internalType": "address",
          "name": "_signer",
          "type": "address"
        }
      ],
      "name": "checkContractSignature",
      "outputs": [
        {
          "internalType": "bool",
          "name": "",
          "type": "bool"
        }
      ],
      "stateMutability": "view",
      "type": "function"
    },
    {
      "inputs": [
        {
          "internalType": "uint256",
          "name": "_contractId",
          "type": "uint256"
        }
      ],
      "name": "checkContractStatus",
      "outputs": [
        {
          "internalType": "string",
          "name": "farmId",
          "type": "string"
        },
        {
          "internalType": "address",
          "name": "agentAddress",
          "type": "address"
        },
        {
          "internalType": "uint256",
          "name": "creationDate",
          "type": "uint256"
        },
        {
          "internalType": "uint256",
          "name": "expiryDate",
          "type": "uint256"
        },
        {
          "internalType": "uint256",
          "name": "totalQuantity",
          "type": "uint256"
        },
        {
          "internalType": "uint256",
          "name": "pricePerUnit",
          "type": "uint256"
        },
        {
          "internalType": "string",
          "name": "terms",
          "type": "string"
        },
        {
          "internalType": "bool",
          "name": "isActive",
          "type": "bool"
        },
        {
          "internalType": "bool",
          "name": "isCompleted",
          "type": "bool"
        }
      ],
      "stateMutability": "view",
      "type": "function"
    },
    {
      "inputs": [],
      "name": "contractCount",
      "outputs": [
        {
          "internalType": "uint256",
          "name": "",
          "type": "uint256"
        }
      ],
      "stateMutability": "view",
      "type": "function"
    },
    {
      "inputs": [
        {
          "internalType": "string",
          "name": "_farmId",
          "type": "string"
        },
        {
          "internalType": "address",
          "name": "_agentAddress",
          "type": "address"
        },
        {
          "internalType": "uint256",
          "name": "_validityPeriod",
          "type": "uint256"
        },
        {
          "internalType": "uint256",
          "name": "_totalQuantity",
          "type": "uint256"
        },
        {
          "internalType": "uint256",
          "name": "_pricePerUnit",
          "type": "uint256"
        },
        {
          "internalType": "string",
          "name": "_terms",
          "type": "string"
        }
      ],
      "name": "createTripartyContract",
      "outputs": [],
      "stateMutability": "nonpayable",
      "type": "function"
    },
    {
      "inputs": [
        {
          "internalType": "string",
          "name": "",
          "type": "string"
        }
      ],
      "name": "farmStats",
      "outputs": [
        {
          "internalType": "uint256",
          "name": "totalFruitHarvested",
          "type": "uint256"
        },
        {
          "internalType": "uint256",
          "name": "totalContractsCreated",
          "type": "uint256"
        },
        {
          "internalType": "uint256",
          "name": "totalContractsCompleted",
          "type": "uint256"
        },
        {
          "internalType": "uint256",
          "name": "lastStatisticsUpdate",
          "type": "uint256"
        }
      ],
      "stateMutability": "view",
      "type": "function"
    },
    {
      "inputs": [],
      "name": "fruitSupplyChain",
      "outputs": [
        {
          "internalType": "contract FruitSupplyChain",
          "name": "",
          "type": "address"
        }
      ],
      "stateMutability": "view",
      "type": "function"
    },
    {
      "inputs": [
        {
          "internalType": "address",
          "name": "_agentAddress",
          "type": "address"
        }
      ],
      "name": "getAgentStatistics",
      "outputs": [
        {
          "internalType": "uint256",
          "name": "totalQuantityPurchased",
          "type": "uint256"
        },
        {
          "internalType": "uint256",
          "name": "totalContractsCreated",
          "type": "uint256"
        },
        {
          "internalType": "uint256",
          "name": "totalContractsCompleted",
          "type": "uint256"
        },
        {
          "internalType": "uint256",
          "name": "lastUpdate",
          "type": "uint256"
        }
      ],
      "stateMutability": "view",
      "type": "function"
    },
    {
      "inputs": [],
      "name": "getAllActiveContracts",
      "outputs": [
        {
          "internalType": "uint256[]",
          "name": "",
          "type": "uint256[]"
        }
      ],
      "stateMutability": "view",
      "type": "function"
    },
    {
      "inputs": [
        {
          "internalType": "uint256",
          "name": "_contractId",
          "type": "uint256"
        }
      ],
      "name": "getContractTerms",
      "outputs": [
        {
          "internalType": "string",
          "name": "",
          "type": "string"
        }
      ],
      "stateMutability": "view",
      "type": "function"
    },
    {
      "inputs": [
        {
          "internalType": "string",
          "name": "_farmId",
          "type": "string"
        }
      ],
      "name": "getFarmStatistics",
      "outputs": [
        {
          "internalType": "uint256",
          "name": "totalFruitHarvested",
          "type": "uint256"
        },
        {
          "internalType": "uint256",
          "name": "totalContractsCreated",
          "type": "uint256"
        },
        {
          "internalType": "uint256",
          "name": "totalContractsCompleted",
          "type": "uint256"
        },
        {
          "internalType": "uint256",
          "name": "lastUpdate",
          "type": "uint256"
        }
      ],
      "stateMutability": "view",
      "type": "function"
    },
    {
      "inputs": [
        {
          "internalType": "string",
          "name": "_province",
          "type": "string"
        }
      ],
      "name": "getProvinceStatistics",
      "outputs": [
        {
          "internalType": "uint256",
          "name": "totalFruitHarvested",
          "type": "uint256"
        },
        {
          "internalType": "uint256",
          "name": "totalContractsCreated",
          "type": "uint256"
        },
        {
          "internalType": "uint256",
          "name": "totalContractsCompleted",
          "type": "uint256"
        },
        {
          "internalType": "uint256",
          "name": "farmCount",
          "type": "uint256"
        },
        {
          "internalType": "uint256",
          "name": "lastUpdate",
          "type": "uint256"
        }
      ],
      "stateMutability": "view",
      "type": "function"
    },
    {
      "inputs": [],
      "name": "getTotalActiveContracts",
      "outputs": [
        {
          "internalType": "uint256",
          "name": "",
          "type": "uint256"
        }
      ],
      "stateMutability": "view",
      "type": "function"
    },
    {
      "inputs": [],
      "name": "getTotalContractsCreated",
      "outputs": [
        {
          "internalType": "uint256",
          "name": "",
          "type": "uint256"
        }
      ],
      "stateMutability": "view",
      "type": "function"
    },
    {
      "inputs": [],
      "name": "governmentAuthority",
      "outputs": [
        {
          "internalType": "address",
          "name": "",
          "type": "address"
        }
      ],
      "stateMutability": "view",
      "type": "function"
    },
    {
      "inputs": [
        {
          "internalType": "string",
          "name": "",
          "type": "string"
        }
      ],
      "name": "provinceStats",
      "outputs": [
        {
          "internalType": "uint256",
          "name": "totalFruitHarvested",
          "type": "uint256"
        },
        {
          "internalType": "uint256",
          "name": "totalContractsCreated",
          "type": "uint256"
        },
        {
          "internalType": "uint256",
          "name": "totalContractsCompleted",
          "type": "uint256"
        },
        {
          "internalType": "uint256",
          "name": "lastStatisticsUpdate",
          "type": "uint256"
        },
        {
          "internalType": "uint256",
          "name": "farmCount",
          "type": "uint256"
        }
      ],
      "stateMutability": "view",
      "type": "function"
    },
    {
      "inputs": [
        {
          "internalType": "uint256",
          "name": "_contractId",
          "type": "uint256"
        },
        {
          "internalType": "uint256",
          "name": "_quantity",
          "type": "uint256"
        }
      ],
      "name": "recordDelivery",
      "outputs": [],
      "stateMutability": "nonpayable",
      "type": "function"
    },
    {
      "inputs": [
        {
          "internalType": "uint256",
          "name": "_contractId",
          "type": "uint256"
        }
      ],
      "name": "signContract",
      "outputs": [],
      "stateMutability": "nonpayable",
      "type": "function"
    },
    {
      "inputs": [
        {
          "internalType": "uint256",
          "name": "",
          "type": "uint256"
        }
      ],
      "name": "tripartyContracts",
      "outputs": [
        {
          "internalType": "uint256",
          "name": "contractId",
          "type": "uint256"
        },
        {
          "internalType": "string",
          "name": "farmId",
          "type": "string"
        },
        {
          "internalType": "address",
          "name": "agentAddress",
          "type": "address"
        },
        {
          "internalType": "address",
          "name": "governmentWitness",
          "type": "address"
        },
        {
          "internalType": "uint256",
          "name": "creationDate",
          "type": "uint256"
        },
        {
          "internalType": "uint256",
          "name": "expiryDate",
          "type": "uint256"
        },
        {
          "internalType": "uint256",
          "name": "totalQuantity",
          "type": "uint256"
        },
        {
          "internalType": "uint256",
          "name": "pricePerUnit",
          "type": "uint256"
        },
        {
          "internalType": "string",
          "name": "terms",
          "type": "string"
        },
        {
          "internalType": "bool",
          "name": "isActive",
          "type": "bool"
        },
        {
          "internalType": "bool",
          "name": "isCompleted",
          "type": "bool"
        }
      ],
      "stateMutability": "view",
      "type": "function"
    },
    {
      "inputs": [
        {
          "internalType": "string",
          "name": "_province",
          "type": "string"
        }
      ],
      "name": "updateProvinceFarmCount",
      "outputs": [],
      "stateMutability": "nonpayable",
      "type": "function"
    },
    {
      "inputs": [
        {
          "internalType": "string",
          "name": "_farmId",
          "type": "string"
        },
        {
          "internalType": "address",
          "name": "_agentAddress",
          "type": "address"
        }
      ],
      "name": "updateStatistics",
      "outputs": [],
      "stateMutability": "nonpayable",
      "type": "function"
    }
  ],
  "bytecode": "0x6080604052348015600f57600080fd5b50604051612e8b380380612e8b833981016040819052602c91605e565b60008054336001600160a01b031991821617909155600180549091166001600160a01b0392909216919091179055608c565b600060208284031215606f57600080fd5b81516001600160a01b0381168114608557600080fd5b9392505050565b612df08061009b6000396000f3fe608060405234801561001057600080fd5b50600436106101585760003560e01c8063929d9f1a116100c3578063b50154d91161007c578063b50154d9146103e5578063bcfccf73146103f8578063cca92eb91461040b578063ce05611c1461041e578063d4e6997a14610431578063e717ee771461044457600080fd5b8063929d9f1a146103675780639537e8d11461037a57806396c1ac841461038d578063a22460b3146103a0578063a338e5da146103b3578063a5f83b07146103bb57600080fd5b80637667733a116101155780637667733a1461029d5780637d8beb17146102e05780638247a190146102f35780638736381a146103135780638a82efe71461032a5780638bfdb8781461033f57600080fd5b8063228f2d031461015d5780632804745014610172578063293530f7146101855780636a41774a146101b55780636a43552b146101d85780636dbacf4914610248575b600080fd5b61017061016b366004612370565b61044c565b005b6101706101803660046123c1565b6106d8565b600054610198906001600160a01b031681565b6040516001600160a01b0390911681526020015b60405180910390f35b6101c86101c33660046123da565b610744565b60405190151581526020016101ac565b6102206101e63660046123ff565b8051602081830181018051600582529282019190930120915280546001820154600283015460038401546004909401549293919290919085565b604080519586526020860194909452928401919091526060830152608082015260a0016101ac565b61027d61025636600461243b565b60046020526000908152604090208054600182015460028301546003909301549192909184565b6040805194855260208501939093529183015260608201526080016101ac565b61027d6102ab3660046123ff565b805160208183018101805160038083529383019290940191909120929052815460018301546002840154939092015490929084565b6101706102ee36600461245f565b610793565b6103066103013660046123c1565b610c41565b6040516101ac9190612544565b61031c60065481565b6040519081526020016101ac565b610332610d02565b6040516101ac9190612557565b61035261034d3660046123c1565b610d5a565b6040516101ac9998979695949392919061259a565b61027d6103753660046123ff565b610f14565b6101706103883660046123c1565b610ff8565b61027d61039b36600461243b565b611562565b61031c6103ae3660046123c1565b6115d1565b60075461031c565b6103ce6103c93660046123c1565b6115f2565b6040516101ac9b9a99989796959493929190612606565b6101706103f33660046123ff565b611770565b600154610198906001600160a01b031681565b6102206104193660046123ff565b6119e9565b61017061042c36600461243b565b611a5f565b61017061043f366004612689565b611aab565b60065461031c565b6000546001600160a01b0316331461046357600080fd5b600154604051633c2119a760e01b81526001600160a01b0390911690633c2119a790610493908590600401612544565b602060405180830381865afa1580156104b0573d6000803e3d6000fd5b505050506040513d601f19601f820116820180604052508101906104d491906126ab565b6104dd57600080fd5b6001600160a01b0381166104f057600080fd5b4260038360405161050191906126cd565b90815260408051602092819003830181206003908101949094556001600160a01b03858116600090815260049485905292832042950194909455600154630d7ec59f60e31b825291939190911691636bf62cf89161056191879101612544565b600060405180830381865afa15801561057e573d6000803e3d6000fd5b505050506040513d6000823e601f3d908101601f191682016040526105a691908101906127c9565b5050505050509050426005826040516105bf91906126cd565b908152602001604051809103902060030181905550600080516020612d7b833981519152836040516105f191906128cc565b60405180910390a1600080516020612d7b83398151915261061183611eb7565b60405161061e9190612902565b60405180910390a1600080516020612d9b8339815191528160058360405161064691906126cd565b90815260405190819003602001812054906005906106659086906126cd565b90815260200160405180910390206001015460058560405161068791906126cd565b9081526020016040518091039020600201546005866040516106a991906126cd565b908152604051908190036020018120600401546106cb95949392914290612931565b60405180910390a1505050565b6000546001600160a01b031633146106ef57600080fd5b8060008111801561070257506006548111155b61070b57600080fd5b6000828152600260205260409020600981015460ff1661072a57600080fd5b60098101805460ff1916905561073f83612098565b505050565b60008260008111801561075957506006548111155b61076257600080fd5b505060009182526002602090815260408084206001600160a01b03939093168452600a909201905290205460ff1690565b6000546001600160a01b031633146107aa57600080fd5b600154604051633c2119a760e01b81526001600160a01b0390911690633c2119a7906107da908990600401612544565b602060405180830381865afa1580156107f7573d6000803e3d6000fd5b505050506040513d601f19601f8201168201806040525081019061081b91906126ab565b61082457600080fd5b6001600160a01b03851661083757600080fd5b6000831161084457600080fd5b6000821161085157600080fd5b6006805490600061086183612983565b90915550506006546000818152600260205260409020818155600181016108888982612a1e565b506002810180546001600160a01b03808a166001600160a01b031992831617909255600054600384018054909216921691909117905542600482018190556108d1908790612adc565b60058201556006810185905560078101849055600881016108f28482612a1e565b50600981018054600160ff199182168117909255600b8301805482169055600080546001600160a01b03168152600a84016020526040908190208054909216831790915551600390610945908b906126cd565b908152602001604051809103902060010160008282546109659190612adc565b925050819055504260038960405161097d91906126cd565b908152602001604051809103902060030181905550600160046000896001600160a01b03166001600160a01b0316815260200190815260200160002060010160008282546109cb9190612adc565b90915550506001600160a01b038088166000908152600460208190526040808320426003909101556001549051630d7ec59f60e31b815292931691636bf62cf891610a18918d9101612544565b600060405180830381865afa158015610a35573d6000803e3d6000fd5b505050506040513d6000823e601f3d908101601f19168201604052610a5d91908101906127c9565b50505050505090506001600582604051610a7791906126cd565b90815260200160405180910390206001016000828254610a979190612adc565b9250508190555042600582604051610aaf91906126cd565b90815260405190819003602001812060030191909155600780546001810182556000919091527fa66cc928b5edb82af9bd49922954155ab7b0942694bea4ce44661d9a8736c688018490557f63d80ad52924158d83e91ca030745d222e821668d5b3d6a1223a3b9a2a71e3da90610b2f9085908c908c908b908b90612aef565b60405180910390a1600080516020612d7b83398151915289604051610b5491906128cc565b60405180910390a1600080516020612d7b833981519152610b7489611eb7565b604051610b819190612902565b60405180910390a1600080516020612d9b83398151915281600583604051610ba991906126cd565b9081526040519081900360200181205490600590610bc89086906126cd565b908152602001604051809103902060010154600585604051610bea91906126cd565b908152602001604051809103902060020154600586604051610c0c91906126cd565b90815260405190819003602001812060040154610c2e95949392914290612931565b60405180910390a1505050505050505050565b606081600081118015610c5657506006548111155b610c5f57600080fd5b60008381526002602052604090206008018054610c7b9061299c565b80601f0160208091040260200160405190810160405280929190818152602001828054610ca79061299c565b8015610cf45780601f10610cc957610100808354040283529160200191610cf4565b820191906000526020600020905b815481529060010190602001808311610cd757829003601f168201915b505050505091505b50919050565b60606007805480602002602001604051908101604052809291908181526020018280548015610d5057602002820191906000526020600020905b815481526020019060010190808311610d3c575b5050505050905090565b60606000806000806000606060008089600081118015610d7c57506006548111155b610d8557600080fd5b60008b81526002602081905260409091209081015460048201546005830154600684015460078501546009860154600b87015460018801805490976001600160a01b0316969594939260088a019260ff918216929116908990610de79061299c565b80601f0160208091040260200160405190810160405280929190818152602001828054610e139061299c565b8015610e605780601f10610e3557610100808354040283529160200191610e60565b820191906000526020600020905b815481529060010190602001808311610e4357829003601f168201915b50505050509850828054610e739061299c565b80601f0160208091040260200160405190810160405280929190818152602001828054610e9f9061299c565b8015610eec5780601f10610ec157610100808354040283529160200191610eec565b820191906000526020600020905b815481529060010190602001808311610ecf57829003601f168201915b505050505092509a509a509a509a509a509a509a509a509a5050509193959799909294969850565b600154604051633c2119a760e01b81526000918291829182916001600160a01b0390911690633c2119a790610f4d908890600401612544565b602060405180830381865afa158015610f6a573d6000803e3d6000fd5b505050506040513d601f19601f82011682018060405250810190610f8e91906126ab565b610f9757600080fd5b6000600386604051610fa991906126cd565b9081526040805160209281900383018120608082018352805480835260018201549483018590526002820154938301849052600390910154606090920182905299929850909650945092505050565b8060008111801561100b57506006548111155b61101457600080fd5b6000828152600260205260409020600981015460ff1661103357600080fd5b600b81015460ff161561104557600080fd5b60028101546001600160a01b03163314806110f157506110f181600101805461106d9061299c565b80601f01602080910402602001604051908101604052809291908181526020018280546110999061299c565b80156110e65780601f106110bb576101008083540402835291602001916110e6565b820191906000526020600020905b8154815290600101906020018083116110c957829003601f168201915b50505050503361214a565b80611108575060038101546001600160a01b031633145b61111157600080fd5b336000818152600a8301602052604090819020805460ff19166001179055517fcd3b1fcca80f9caae633c3e13546995d3810e561957af92839f070c46571942c91611170918691909182526001600160a01b0316602082015260400190565b60405180910390a160028101546001600160a01b03166000908152600a8201602052604090205460ff1680156112375750611237838260010180546111b49061299c565b80601f01602080910402602001604051908101604052809291908181526020018280546111e09061299c565b801561122d5780601f106112025761010080835404028352916020019161122d565b820191906000526020600020905b81548152906001019060200180831161121057829003601f168201915b50505050506121e2565b8015611261575060038101546001600160a01b03166000908152600a8201602052604090205460ff165b1561073f57600b8101805460ff1916600190811790915560405160039061128b9084840190612b2e565b908152602001604051809103902060020160008282546112ab9190612adc565b92505081905550426003826001016040516112c69190612b2e565b9081526040805160209281900383019020600301929092556002838101546001600160a01b03166000908152600490925291812090910180546001929061130e908490612adc565b909155505060028101546001600160a01b03908116600090815260046020819052604080832042600390910155600180549151630d7ec59f60e31b815293949190911692636bf62cf8926113659287019101612c26565b600060405180830381865afa158015611382573d6000803e3d6000fd5b505050506040513d6000823e601f3d908101601f191682016040526113aa91908101906127c9565b505050505050905060016005826040516113c491906126cd565b908152602001604051809103902060020160008282546113e49190612adc565b92505081905550426005826040516113fc91906126cd565b9081526040519081900360200190206003015561141884612098565b6040518481527f6aafa2babf7b7b7142ff5c7ff71f2b5f78e2243167a26d6b8a7f70936e76923e9060200160405180910390a1600080516020612d7b8339815191528260010160405161146b9190612c39565b60405180910390a16002820154600080516020612d7b8339815191529061149a906001600160a01b0316611eb7565b6040516114a79190612902565b60405180910390a1600080516020612d9b833981519152816005836040516114cf91906126cd565b90815260405190819003602001812054906005906114ee9086906126cd565b90815260200160405180910390206001015460058560405161151091906126cd565b90815260200160405180910390206002015460058660405161153291906126cd565b9081526040519081900360200181206004015461155495949392914290612931565b60405180910390a150505050565b60008080806001600160a01b03851661157a57600080fd5b505050506001600160a01b0316600090815260046020908152604091829020825160808101845281548082526001830154938201849052600283015494820185905260039092015460609091018190529093919291565b600781815481106115e157600080fd5b600091825260209091200154905081565b600260205260009081526040902080546001820180549192916116149061299c565b80601f01602080910402602001604051908101604052809291908181526020018280546116409061299c565b801561168d5780601f106116625761010080835404028352916020019161168d565b820191906000526020600020905b81548152906001019060200180831161167057829003601f168201915b5050505060028301546003840154600485015460058601546006870154600788015460088901805498996001600160a01b039788169997909616975093959294919390926116da9061299c565b80601f01602080910402602001604051908101604052809291908181526020018280546117069061299c565b80156117535780601f1061172857610100808354040283529160200191611753565b820191906000526020600020905b81548152906001019060200180831161173657829003601f168201915b505050506009830154600b90930154919260ff908116921690508b565b6000546001600160a01b0316331461178757600080fd5b600080600160009054906101000a90046001600160a01b03166001600160a01b031663f95597746040518163ffffffff1660e01b8152600401600060405180830381865afa1580156117dd573d6000803e3d6000fd5b505050506040513d6000823e601f3d908101601f191682016040526118059190810190612c6f565b905060005b81518110156119185760015482516000916001600160a01b031690636bf62cf89085908590811061183d5761183d612d24565b60200260200101516040518263ffffffff1660e01b81526004016118619190612544565b600060405180830381865afa15801561187e573d6000803e3d6000fd5b505050506040513d6000823e601f3d908101601f191682016040526118a691908101906127c9565b5050505050509050846040516020016118bf91906126cd565b60405160208183030381529060405280519060200120816040516020016118e691906126cd565b604051602081830303815290604052805190602001200361190f578361190b81612983565b9450505b5060010161180a565b508160058460405161192a91906126cd565b9081526020016040518091039020600401819055504260058460405161195091906126cd565b908152602001604051809103902060030181905550600080516020612d9b8339815191528360058560405161198591906126cd565b90815260405190819003602001812054906005906119a49088906126cd565b9081526020016040518091039020600101546005876040516119c691906126cd565b908152604051908190036020018120600201546106cb9493929188904290612931565b600080600080600080600587604051611a0291906126cd565b908152604080516020928190038301812060a08201835280548083526001820154948301859052600282015493830184905260038201546060840181905260049092015460809093018390529b939a509198509650945092505050565b6000546001600160a01b03163314611a7657600080fd5b6001600160a01b038116611a8957600080fd5b600080546001600160a01b0319166001600160a01b0392909216919091179055565b81600081118015611abe57506006548111155b611ac757600080fd5b6000838152600260205260409020600981015460ff16611ae657600080fd5b600b81015460ff16611af757600080fd5b60008311611b0457600080fd5b60028101546001600160a01b0316331480611b2c5750611b2c81600101805461106d9061299c565b611b3557600080fd5b60018054604051630d7ec59f60e31b81526000926001600160a01b0390921691636bf62cf891611b6a91860190600401612c26565b600060405180830381865afa158015611b87573d6000803e3d6000fd5b505050506040513d6000823e601f3d908101601f19168201604052611baf91908101906127c9565b509550506001600160a01b0385169350611bcc9250505057600080fd5b83600383600101604051611be09190612b2e565b90815260200160405180910390206000016000828254611c009190612adc565b9250508190555042600383600101604051611c1b9190612b2e565b90815260408051602092819003830190206003019290925560028401546001600160a01b0316600090815260049091529081208054869290611c5e908490612adc565b909155505060028201546001600160a01b03908116600090815260046020819052604080832042600390910155600180549151630d7ec59f60e31b815293949190911692636bf62cf892611cb59288019101612c26565b600060405180830381865afa158015611cd2573d6000803e3d6000fd5b505050506040513d6000823e601f3d908101601f19168201604052611cfa91908101906127c9565b505050505050905084600582604051611d1391906126cd565b90815260200160405180910390206000016000828254611d339190612adc565b9250508190555042600582604051611d4b91906126cd565b90815260408051602092819003830181206003019390935588835290820187905242908201527fe23925c82dc049d5fc929f3198e18b0493bf6ee639c8f9c7ddefd366673224c29060600160405180910390a1600080516020612d7b83398151915283600101604051611dbe9190612c39565b60405180910390a16002830154600080516020612d7b83398151915290611ded906001600160a01b0316611eb7565b604051611dfa9190612902565b60405180910390a1600080516020612d9b83398151915281600583604051611e2291906126cd565b9081526040519081900360200181205490600590611e419086906126cd565b908152602001604051809103902060010154600585604051611e6391906126cd565b908152602001604051809103902060020154600586604051611e8591906126cd565b90815260405190819003602001812060040154611ea795949392914290612931565b60405180910390a1505050505050565b604080518082018252601081526f181899199a1a9b1b9c1cb0b131b232b360811b60208201528151602a80825260608281019094526001600160a01b0385169291600091602082018180368337019050509050600360fc1b81600081518110611f2257611f22612d24565b60200101906001600160f81b031916908160001a905350600f60fb1b81600181518110611f5157611f51612d24565b60200101906001600160f81b031916908160001a90535060005b601481101561208f5782600485611f8384600c612adc565b60208110611f9357611f93612d24565b1a60f81b6001600160f81b031916901c60f81c60ff1681518110611fb957611fb9612d24565b01602001516001600160f81b03191682611fd4836002612d3a565b611fdf906002612adc565b81518110611fef57611fef612d24565b60200101906001600160f81b031916908160001a905350828461201383600c612adc565b6020811061202357612023612d24565b825191901a600f1690811061203a5761203a612d24565b01602001516001600160f81b03191682612055836002612d3a565b612060906003612adc565b8151811061207057612070612d24565b60200101906001600160f81b031916908160001a905350600101611f6b565b50949350505050565b60005b6007548110156121465781600782815481106120b9576120b9612d24565b90600052602060002001540361213e57600780546120d990600190612d51565b815481106120e9576120e9612d24565b90600052602060002001546007828154811061210757612107612d24565b600091825260209091200155600780548061212457612124612d64565b600190038181906000526020600020016000905590555050565b60010161209b565b5050565b600154604051630d7ec59f60e31b815260009182916001600160a01b0390911690636bf62cf89061217f908790600401612544565b600060405180830381865afa15801561219c573d6000803e3d6000fd5b505050506040513d6000823e601f3d908101601f191682016040526121c491908101906127c9565b506001600160a01b0389811691161496505050505050505b92915050565b600154604051630d7ec59f60e31b815260009182916001600160a01b0390911690636bf62cf890612217908690600401612544565b600060405180830381865afa158015612234573d6000803e3d6000fd5b505050506040513d6000823e601f3d908101601f1916820160405261225c91908101906127c9565b5060008a81526002602090815260408083206001600160a01b039094168352600a9093019052205460ff16965050505050505092915050565b634e487b7160e01b600052604160045260246000fd5b604051601f8201601f191681016001600160401b03811182821017156122d3576122d3612295565b604052919050565b60006001600160401b038211156122f4576122f4612295565b50601f01601f191660200190565b600082601f83011261231357600080fd5b8135612326612321826122db565b6122ab565b81815284602083860101111561233b57600080fd5b816020850160208301376000918101602001919091529392505050565b6001600160a01b038116811461236d57600080fd5b50565b6000806040838503121561238357600080fd5b82356001600160401b0381111561239957600080fd5b6123a585828601612302565b92505060208301356123b681612358565b809150509250929050565b6000602082840312156123d357600080fd5b5035919050565b600080604083850312156123ed57600080fd5b8235915060208301356123b681612358565b60006020828403121561241157600080fd5b81356001600160401b0381111561242757600080fd5b61243384828501612302565b949350505050565b60006020828403121561244d57600080fd5b813561245881612358565b9392505050565b60008060008060008060c0878903121561247857600080fd5b86356001600160401b0381111561248e57600080fd5b61249a89828a01612302565b96505060208701356124ab81612358565b945060408701359350606087013592506080870135915060a08701356001600160401b038111156124db57600080fd5b6124e789828a01612302565b9150509295509295509295565b60005b8381101561250f5781810151838201526020016124f7565b50506000910152565b600081518084526125308160208601602086016124f4565b601f01601f19169290920160200192915050565b6020815260006124586020830184612518565b602080825282518282018190526000918401906040840190835b8181101561258f578351835260209384019390920191600101612571565b509095945050505050565b610120815260006125af61012083018c612518565b60018060a01b038b1660208401528960408401528860608401528760808401528660a084015282810360c08401526125e78187612518565b94151560e0840152505090151561010090910152979650505050505050565b8b81526101606020820152600061262161016083018d612518565b6001600160a01b038c811660408501528b166060840152608083018a905260a0830189905260c0830188905260e083018790528281036101008401526126678187612518565b9415156101208401525050901515610140909101529998505050505050505050565b6000806040838503121561269c57600080fd5b50508035926020909101359150565b6000602082840312156126bd57600080fd5b8151801515811461245857600080fd5b600082516126df8184602087016124f4565b9190910192915050565b600082601f8301126126fa57600080fd5b8151612708612321826122db565b81815284602083860101111561271d57600080fd5b6124338260208301602087016124f4565b805161273981612358565b919050565b60006001600160401b0382111561275757612757612295565b5060051b60200190565b600082601f83011261277257600080fd5b81516127806123218261273e565b8082825260208201915060208360051b8601019250858311156127a257600080fd5b602085015b838110156127bf5780518352602092830192016127a7565b5095945050505050565b600080600080600080600060e0888a0312156127e457600080fd5b87516001600160401b038111156127fa57600080fd5b6128068a828b016126e9565b97505060208801516001600160401b0381111561282257600080fd5b61282e8a828b016126e9565b96505060408801516001600160401b0381111561284a57600080fd5b6128568a828b016126e9565b60608a015160808b0151919750955090506001600160401b0381111561287b57600080fd5b6128878a828b016126e9565b93505061289660a0890161272e565b915060c08801516001600160401b038111156128b157600080fd5b6128bd8a828b01612761565b91505092959891949750929550565b6040815260006128f06040830160048152634661726d60e01b602082015260400190565b82810360208401526124338185612518565b6040815260056040820152641059d95b9d60da1b60608201526080602082015260006124586080830184612518565b60c08152600061294460c0830189612518565b60208301979097525060408101949094526060840192909252608083015260a090910152919050565b634e487b7160e01b600052601160045260246000fd5b6000600182016129955761299561296d565b5060010190565b600181811c908216806129b057607f821691505b602082108103610cfc57634e487b7160e01b600052602260045260246000fd5b601f82111561073f57806000526020600020601f840160051c810160208510156129f75750805b601f840160051c820191505b81811015612a175760008155600101612a03565b5050505050565b81516001600160401b03811115612a3757612a37612295565b612a4b81612a45845461299c565b846129d0565b6020601f821160018114612a7f5760008315612a675750848201515b600019600385901b1c1916600184901b178455612a17565b600084815260208120601f198516915b82811015612aaf5787850151825560209485019460019092019101612a8f565b5084821015612acd5786840151600019600387901b60f8161c191681555b50505050600190811b01905550565b808201808211156121dc576121dc61296d565b85815260a060208201526000612b0860a0830187612518565b6001600160a01b0395909516604083015250606081019290925260809091015292915050565b6000808354612b3c8161299c565b600182168015612b535760018114612b6857612b98565b60ff1983168652811515820286019350612b98565b86600052602060002060005b83811015612b9057815488820152600190910190602001612b74565b505081860193505b509195945050505050565b60008154612bb08161299c565b808552600182168015612bca5760018114612be657612c1d565b60ff1983166020870152602082151560051b8701019350612c1d565b84600052602060002060005b83811015612c145781546020828a010152600182019150602081019050612bf2565b87016020019450505b50505092915050565b6020815260006124586020830184612ba3565b604081526000612c5d6040830160048152634661726d60e01b602082015260400190565b82810360208401526124338185612ba3565b600060208284031215612c8157600080fd5b81516001600160401b03811115612c9757600080fd5b8201601f81018413612ca857600080fd5b8051612cb66123218261273e565b8082825260208201915060208360051b850101925086831115612cd857600080fd5b602084015b83811015612d195780516001600160401b03811115612cfb57600080fd5b612d0a896020838901016126e9565b84525060209283019201612cdd565b509695505050505050565b634e487b7160e01b600052603260045260246000fd5b80820281158282048414176121dc576121dc61296d565b818103818111156121dc576121dc61296d565b634e487b7160e01b600052603160045260246000fdfe914b6df087f14ffed67794dfad9d77ee643c6e0ba016d9c51d73479e83efb412542d5c6e83ce3e9747411d38d92b354726ab521b1def4289843a438fba4c5d40a26469706673582212207f4c6755148cc2715ad25b43c61131f66897deb97ab8fbc901dea52c4976c7f964736f6c634300081c0033",
  "linkReferences": {},
  "deployedLinkReferences": {}
}