{
  "_format": "hh-sol-artifact-1",
  "contractName": "GovernmentRegulator",
  "sourceName": "contracts/GovernmentRegulator.sol",
  "abi": [
    {
      "inputs": [
        {
          "internalType": "address",
          "name": "_fruitSupplyChainAddress",
          "type": "address"
        }
      ],
      "stateMutability": "nonpayable",
      "type": "constructor"
    },
    {
      "anonymous": false,
      "inputs": [
        {
          "indexed": false,
          "internalType": "uint256",
          "name": "contractId",
          "type": "uint256"
        }
      ],
      "name": "ContractCompleted",
      "type": "event"
    },
    {
      "anonymous": false,
      "inputs": [
        {
          "indexed": false,
          "internalType": "uint256",
          "name": "contractId",
          "type": "uint256"
        },
        {
          "indexed": false,
          "internalType": "string",
          "name": "farmId",
          "type": "string"
        },
        {
          "indexed": false,
          "internalType": "address",
          "name": "agent",
          "type": "address"
        },
        {
          "indexed": false,
          "internalType": "uint256",
          "name": "quantity",
          "type": "uint256"
        },
        {
          "indexed": false,
          "internalType": "uint256",
          "name": "price",
          "type": "uint256"
        }
      ],
      "name": "ContractCreated",
      "type": "event"
    },
    {
      "anonymous": false,
      "inputs": [
        {
          "indexed": false,
          "internalType": "uint256",
          "name": "contractId",
          "type": "uint256"
        },
        {
          "indexed": false,
          "internalType": "address",
          "name": "signer",
          "type": "address"
        }
      ],
      "name": "ContractSigned",
      "type": "event"
    },
    {
      "anonymous": false,
      "inputs": [
        {
          "indexed": false,
          "internalType": "uint256",
          "name": "contractId",
          "type": "uint256"
        },
        {
          "indexed": false,
          "internalType": "uint256",
          "name": "quantity",
          "type": "uint256"
        },
        {
          "indexed": false,
          "internalType": "uint256",
          "name": "timestamp",
          "type": "uint256"
        }
      ],
      "name": "FruitDelivered",
      "type": "event"
    },
    {
      "anonymous": false,
      "inputs": [
        {
          "indexed": false,
          "internalType": "string",
          "name": "province",
          "type": "string"
        },
        {
          "indexed": false,
          "internalType": "uint256",
          "name": "totalFruitHarvested",
          "type": "uint256"
        },
        {
          "indexed": false,
          "internalType": "uint256",
          "name": "totalContractsCreated",
          "type": "uint256"
        },
        {
          "indexed": false,
          "internalType": "uint256",
          "name": "totalContractsCompleted",
          "type": "uint256"
        },
        {
          "indexed": false,
          "internalType": "uint256",
          "name": "farmCount",
          "type": "uint256"
        },
        {
          "indexed": false,
          "internalType": "uint256",
          "name": "timestamp",
          "type": "uint256"
        }
      ],
      "name": "ProvinceStatisticsUpdated",
      "type": "event"
    },
    {
      "anonymous": false,
      "inputs": [
        {
          "indexed": false,
          "internalType": "string",
          "name": "entityType",
          "type": "string"
        },
        {
          "indexed": false,
          "internalType": "string",
          "name": "identifier",
          "type": "string"
        }
      ],
      "name": "StatisticsUpdated",
      "type": "event"
    },
    {
      "inputs": [
        {
          "internalType": "uint256",
          "name": "",
          "type": "uint256"
        }
      ],
      "name": "activeContractIds",
      "outputs": [
        {
          "internalType": "uint256",
          "name": "",
          "type": "uint256"
        }
      ],
      "stateMutability": "view",
      "type": "function"
    },
    {
      "inputs": [
        {
          "internalType": "address",
          "name": "",
          "type": "address"
        }
      ],
      "name": "agentStats",
      "outputs": [
        {
          "internalType": "uint256",
          "name": "totalQuantityPurchased",
          "type": "uint256"
        },
        {
          "internalType": "uint256",
          "name": "totalContractsCreated",
          "type": "uint256"
        },
        {
          "internalType": "uint256",
          "name": "totalContractsCompleted",
          "type": "uint256"
        },
        {
          "internalType": "uint256",
          "name": "lastStatisticsUpdate",
          "type": "uint256"
        }
      ],
      "stateMutability": "view",
      "type": "function"
    },
    {
      "inputs": [
        {
          "internalType": "uint256",
          "name": "_contractId",
          "type": "uint256"
        }
      ],
      "name": "cancelContract",
      "outputs": [],
      "stateMutability": "nonpayable",
      "type": "function"
    },
    {
      "inputs": [
        {
          "internalType": "address",
          "name": "_newAuthority",
          "type": "address"
        }
      ],
      "name": "changeGovernmentAuthority",
      "outputs": [],
      "stateMutability": "nonpayable",
      "type": "function"
    },
    {
      "inputs": [
        {
          "internalType": "uint256",
          "name": "_contractId",
          "type": "uint256"
        },
        {
          "internalType": "address",
          "name": "_signer",
          "type": "address"
        }
      ],
      "name": "checkContractSignature",
      "outputs": [
        {
          "internalType": "bool",
          "name": "",
          "type": "bool"
        }
      ],
      "stateMutability": "view",
      "type": "function"
    },
    {
      "inputs": [
        {
          "internalType": "uint256",
          "name": "_contractId",
          "type": "uint256"
        }
      ],
      "name": "checkContractStatus",
      "outputs": [
        {
          "internalType": "string",
          "name": "farmId",
          "type": "string"
        },
        {
          "internalType": "address",
          "name": "agentAddress",
          "type": "address"
        },
        {
          "internalType": "uint256",
          "name": "creationDate",
          "type": "uint256"
        },
        {
          "internalType": "uint256",
          "name": "expiryDate",
          "type": "uint256"
        },
        {
          "internalType": "uint256",
          "name": "totalQuantity",
          "type": "uint256"
        },
        {
          "internalType": "uint256",
          "name": "pricePerUnit",
          "type": "uint256"
        },
        {
          "internalType": "string",
          "name": "terms",
          "type": "string"
        },
        {
          "internalType": "bool",
          "name": "isActive",
          "type": "bool"
        },
        {
          "internalType": "bool",
          "name": "isCompleted",
          "type": "bool"
        }
      ],
      "stateMutability": "view",
      "type": "function"
    },
    {
      "inputs": [],
      "name": "contractCount",
      "outputs": [
        {
          "internalType": "uint256",
          "name": "",
          "type": "uint256"
        }
      ],
      "stateMutability": "view",
      "type": "function"
    },
    {
      "inputs": [
        {
          "internalType": "string",
          "name": "_farmId",
          "type": "string"
        },
        {
          "internalType": "address",
          "name": "_agentAddress",
          "type": "address"
        },
        {
          "internalType": "uint256",
          "name": "_validityPeriod",
          "type": "uint256"
        },
        {
          "internalType": "uint256",
          "name": "_totalQuantity",
          "type": "uint256"
        },
        {
          "internalType": "uint256",
          "name": "_pricePerUnit",
          "type": "uint256"
        },
        {
          "internalType": "string",
          "name": "_terms",
          "type": "string"
        }
      ],
      "name": "createTripartyContract",
      "outputs": [],
      "stateMutability": "nonpayable",
      "type": "function"
    },
    {
      "inputs": [
        {
          "internalType": "string",
          "name": "",
          "type": "string"
        }
      ],
      "name": "farmStats",
      "outputs": [
        {
          "internalType": "uint256",
          "name": "totalFruitHarvested",
          "type": "uint256"
        },
        {
          "internalType": "uint256",
          "name": "totalContractsCreated",
          "type": "uint256"
        },
        {
          "internalType": "uint256",
          "name": "totalContractsCompleted",
          "type": "uint256"
        },
        {
          "internalType": "uint256",
          "name": "lastStatisticsUpdate",
          "type": "uint256"
        }
      ],
      "stateMutability": "view",
      "type": "function"
    },
    {
      "inputs": [],
      "name": "fruitSupplyChain",
      "outputs": [
        {
          "internalType": "contract FruitSupplyChain",
          "name": "",
          "type": "address"
        }
      ],
      "stateMutability": "view",
      "type": "function"
    },
    {
      "inputs": [
        {
          "internalType": "address",
          "name": "_agentAddress",
          "type": "address"
        }
      ],
      "name": "getAgentStatistics",
      "outputs": [
        {
          "internalType": "uint256",
          "name": "totalQuantityPurchased",
          "type": "uint256"
        },
        {
          "internalType": "uint256",
          "name": "totalContractsCreated",
          "type": "uint256"
        },
        {
          "internalType": "uint256",
          "name": "totalContractsCompleted",
          "type": "uint256"
        },
        {
          "internalType": "uint256",
          "name": "lastUpdate",
          "type": "uint256"
        }
      ],
      "stateMutability": "view",
      "type": "function"
    },
    {
      "inputs": [],
      "name": "getAllActiveContracts",
      "outputs": [
        {
          "internalType": "uint256[]",
          "name": "",
          "type": "uint256[]"
        }
      ],
      "stateMutability": "view",
      "type": "function"
    },
    {
      "inputs": [
        {
          "internalType": "uint256",
          "name": "_contractId",
          "type": "uint256"
        }
      ],
      "name": "getContractTerms",
      "outputs": [
        {
          "internalType": "string",
          "name": "",
          "type": "string"
        }
      ],
      "stateMutability": "view",
      "type": "function"
    },
    {
      "inputs": [
        {
          "internalType": "string",
          "name": "_farmId",
          "type": "string"
        }
      ],
      "name": "getFarmStatistics",
      "outputs": [
        {
          "internalType": "uint256",
          "name": "totalFruitHarvested",
          "type": "uint256"
        },
        {
          "internalType": "uint256",
          "name": "totalContractsCreated",
          "type": "uint256"
        },
        {
          "internalType": "uint256",
          "name": "totalContractsCompleted",
          "type": "uint256"
        },
        {
          "internalType": "uint256",
          "name": "lastUpdate",
          "type": "uint256"
        }
      ],
      "stateMutability": "view",
      "type": "function"
    },
    {
      "inputs": [
        {
          "internalType": "string",
          "name": "_province",
          "type": "string"
        }
      ],
      "name": "getProvinceStatistics",
      "outputs": [
        {
          "internalType": "uint256",
          "name": "totalFruitHarvested",
          "type": "uint256"
        },
        {
          "internalType": "uint256",
          "name": "totalContractsCreated",
          "type": "uint256"
        },
        {
          "internalType": "uint256",
          "name": "totalContractsCompleted",
          "type": "uint256"
        },
        {
          "internalType": "uint256",
          "name": "farmCount",
          "type": "uint256"
        },
        {
          "internalType": "uint256",
          "name": "lastUpdate",
          "type": "uint256"
        }
      ],
      "stateMutability": "view",
      "type": "function"
    },
    {
      "inputs": [],
      "name": "getTotalActiveContracts",
      "outputs": [
        {
          "internalType": "uint256",
          "name": "",
          "type": "uint256"
        }
      ],
      "stateMutability": "view",
      "type": "function"
    },
    {
      "inputs": [],
      "name": "getTotalContractsCreated",
      "outputs": [
        {
          "internalType": "uint256",
          "name": "",
          "type": "uint256"
        }
      ],
      "stateMutability": "view",
      "type": "function"
    },
    {
      "inputs": [],
      "name": "governmentAuthority",
      "outputs": [
        {
          "internalType": "address",
          "name": "",
          "type": "address"
        }
      ],
      "stateMutability": "view",
      "type": "function"
    },
    {
      "inputs": [
        {
          "internalType": "string",
          "name": "",
          "type": "string"
        }
      ],
      "name": "provinceStats",
      "outputs": [
        {
          "internalType": "uint256",
          "name": "totalFruitHarvested",
          "type": "uint256"
        },
        {
          "internalType": "uint256",
          "name": "totalContractsCreated",
          "type": "uint256"
        },
        {
          "internalType": "uint256",
          "name": "totalContractsCompleted",
          "type": "uint256"
        },
        {
          "internalType": "uint256",
          "name": "lastStatisticsUpdate",
          "type": "uint256"
        },
        {
          "internalType": "uint256",
          "name": "farmCount",
          "type": "uint256"
        }
      ],
      "stateMutability": "view",
      "type": "function"
    },
    {
      "inputs": [
        {
          "internalType": "uint256",
          "name": "_contractId",
          "type": "uint256"
        },
        {
          "internalType": "uint256",
          "name": "_quantity",
          "type": "uint256"
        }
      ],
      "name": "recordDelivery",
      "outputs": [],
      "stateMutability": "nonpayable",
      "type": "function"
    },
    {
      "inputs": [
        {
          "internalType": "uint256",
          "name": "_contractId",
          "type": "uint256"
        }
      ],
      "name": "signContract",
      "outputs": [],
      "stateMutability": "nonpayable",
      "type": "function"
    },
    {
      "inputs": [
        {
          "internalType": "uint256",
          "name": "",
          "type": "uint256"
        }
      ],
      "name": "tripartyContracts",
      "outputs": [
        {
          "internalType": "uint256",
          "name": "contractId",
          "type": "uint256"
        },
        {
          "internalType": "string",
          "name": "farmId",
          "type": "string"
        },
        {
          "internalType": "address",
          "name": "agentAddress",
          "type": "address"
        },
        {
          "internalType": "address",
          "name": "governmentWitness",
          "type": "address"
        },
        {
          "internalType": "uint256",
          "name": "creationDate",
          "type": "uint256"
        },
        {
          "internalType": "uint256",
          "name": "expiryDate",
          "type": "uint256"
        },
        {
          "internalType": "uint256",
          "name": "totalQuantity",
          "type": "uint256"
        },
        {
          "internalType": "uint256",
          "name": "pricePerUnit",
          "type": "uint256"
        },
        {
          "internalType": "string",
          "name": "terms",
          "type": "string"
        },
        {
          "internalType": "bool",
          "name": "isActive",
          "type": "bool"
        },
        {
          "internalType": "bool",
          "name": "isCompleted",
          "type": "bool"
        }
      ],
      "stateMutability": "view",
      "type": "function"
    },
    {
      "inputs": [
        {
          "internalType": "string",
          "name": "_province",
          "type": "string"
        }
      ],
      "name": "updateProvinceFarmCount",
      "outputs": [],
      "stateMutability": "nonpayable",
      "type": "function"
    },
    {
      "inputs": [
        {
          "internalType": "string",
          "name": "_farmId",
          "type": "string"
        },
        {
          "internalType": "address",
          "name": "_agentAddress",
          "type": "address"
        }
      ],
      "name": "updateStatistics",
      "outputs": [],
      "stateMutability": "nonpayable",
      "type": "function"
    }
  ],
  "bytecode": "0x6080604052348015600f57600080fd5b50604051612de6380380612de6833981016040819052602c91605e565b60008054336001600160a01b031991821617909155600180549091166001600160a01b0392909216919091179055608c565b600060208284031215606f57600080fd5b81516001600160a01b0381168114608557600080fd5b9392505050565b612d4b8061009b6000396000f3fe608060405234801561001057600080fd5b50600436106101585760003560e01c8063929d9f1a116100c3578063b50154d91161007c578063b50154d9146103e5578063bcfccf73146103f8578063cca92eb91461040b578063ce05611c1461041e578063d4e6997a14610431578063e717ee771461044457600080fd5b8063929d9f1a146103675780639537e8d11461037a57806396c1ac841461038d578063a22460b3146103a0578063a338e5da146103b3578063a5f83b07146103bb57600080fd5b80637667733a116101155780637667733a1461029d5780637d8beb17146102e05780638247a190146102f35780638736381a146103135780638a82efe71461032a5780638bfdb8781461033f57600080fd5b8063228f2d031461015d5780632804745014610172578063293530f7146101855780636a41774a146101b55780636a43552b146101d85780636dbacf4914610248575b600080fd5b61017061016b3660046122cb565b61044c565b005b61017061018036600461231c565b6106d8565b600054610198906001600160a01b031681565b6040516001600160a01b0390911681526020015b60405180910390f35b6101c86101c3366004612335565b610744565b60405190151581526020016101ac565b6102206101e636600461235a565b8051602081830181018051600582529282019190930120915280546001820154600283015460038401546004909401549293919290919085565b604080519586526020860194909452928401919091526060830152608082015260a0016101ac565b61027d610256366004612396565b60046020526000908152604090208054600182015460028301546003909301549192909184565b6040805194855260208501939093529183015260608201526080016101ac565b61027d6102ab36600461235a565b805160208183018101805160038083529383019290940191909120929052815460018301546002840154939092015490929084565b6101706102ee3660046123ba565b610793565b61030661030136600461231c565b610c41565b6040516101ac919061249f565b61031c60065481565b6040519081526020016101ac565b610332610d02565b6040516101ac91906124b2565b61035261034d36600461231c565b610d5a565b6040516101ac999897969594939291906124f5565b61027d61037536600461235a565b610f14565b61017061038836600461231c565b610ff8565b61027d61039b366004612396565b611562565b61031c6103ae36600461231c565b6115d1565b60075461031c565b6103ce6103c936600461231c565b6115f2565b6040516101ac9b9a99989796959493929190612561565b6101706103f336600461235a565b611770565b600154610198906001600160a01b031681565b61022061041936600461235a565b6119e9565b61017061042c366004612396565b611a5f565b61017061043f3660046125e4565b611aab565b60065461031c565b6000546001600160a01b0316331461046357600080fd5b600154604051633c2119a760e01b81526001600160a01b0390911690633c2119a79061049390859060040161249f565b602060405180830381865afa1580156104b0573d6000803e3d6000fd5b505050506040513d601f19601f820116820180604052508101906104d49190612606565b6104dd57600080fd5b6001600160a01b0381166104f057600080fd5b426003836040516105019190612628565b90815260408051602092819003830181206003908101949094556001600160a01b03858116600090815260049485905292832042950194909455600154630d7ec59f60e31b825291939190911691636bf62cf8916105619187910161249f565b600060405180830381865afa15801561057e573d6000803e3d6000fd5b505050506040513d6000823e601f3d908101601f191682016040526105a69190810190612724565b5050505050509050426005826040516105bf9190612628565b908152602001604051809103902060030181905550600080516020612cd6833981519152836040516105f19190612827565b60405180910390a1600080516020612cd683398151915261061183611e12565b60405161061e919061285d565b60405180910390a1600080516020612cf6833981519152816005836040516106469190612628565b9081526040519081900360200181205490600590610665908690612628565b9081526020016040518091039020600101546005856040516106879190612628565b9081526020016040518091039020600201546005866040516106a99190612628565b908152604051908190036020018120600401546106cb9594939291429061288c565b60405180910390a1505050565b6000546001600160a01b031633146106ef57600080fd5b8060008111801561070257506006548111155b61070b57600080fd5b6000828152600260205260409020600981015460ff1661072a57600080fd5b60098101805460ff1916905561073f83611ff3565b505050565b60008260008111801561075957506006548111155b61076257600080fd5b505060009182526002602090815260408084206001600160a01b03939093168452600a909201905290205460ff1690565b6000546001600160a01b031633146107aa57600080fd5b600154604051633c2119a760e01b81526001600160a01b0390911690633c2119a7906107da90899060040161249f565b602060405180830381865afa1580156107f7573d6000803e3d6000fd5b505050506040513d601f19601f8201168201806040525081019061081b9190612606565b61082457600080fd5b6001600160a01b03851661083757600080fd5b6000831161084457600080fd5b6000821161085157600080fd5b60068054906000610861836128de565b90915550506006546000818152600260205260409020818155600181016108888982612979565b506002810180546001600160a01b03808a166001600160a01b031992831617909255600054600384018054909216921691909117905542600482018190556108d1908790612a37565b60058201556006810185905560078101849055600881016108f28482612979565b50600981018054600160ff199182168117909255600b8301805482169055600080546001600160a01b03168152600a84016020526040908190208054909216831790915551600390610945908b90612628565b908152602001604051809103902060010160008282546109659190612a37565b925050819055504260038960405161097d9190612628565b908152602001604051809103902060030181905550600160046000896001600160a01b03166001600160a01b0316815260200190815260200160002060010160008282546109cb9190612a37565b90915550506001600160a01b038088166000908152600460208190526040808320426003909101556001549051630d7ec59f60e31b815292931691636bf62cf891610a18918d910161249f565b600060405180830381865afa158015610a35573d6000803e3d6000fd5b505050506040513d6000823e601f3d908101601f19168201604052610a5d9190810190612724565b50505050505090506001600582604051610a779190612628565b90815260200160405180910390206001016000828254610a979190612a37565b9250508190555042600582604051610aaf9190612628565b90815260405190819003602001812060030191909155600780546001810182556000919091527fa66cc928b5edb82af9bd49922954155ab7b0942694bea4ce44661d9a8736c688018490557f63d80ad52924158d83e91ca030745d222e821668d5b3d6a1223a3b9a2a71e3da90610b2f9085908c908c908b908b90612a4a565b60405180910390a1600080516020612cd683398151915289604051610b549190612827565b60405180910390a1600080516020612cd6833981519152610b7489611e12565b604051610b81919061285d565b60405180910390a1600080516020612cf683398151915281600583604051610ba99190612628565b9081526040519081900360200181205490600590610bc8908690612628565b908152602001604051809103902060010154600585604051610bea9190612628565b908152602001604051809103902060020154600586604051610c0c9190612628565b90815260405190819003602001812060040154610c2e9594939291429061288c565b60405180910390a1505050505050505050565b606081600081118015610c5657506006548111155b610c5f57600080fd5b60008381526002602052604090206008018054610c7b906128f7565b80601f0160208091040260200160405190810160405280929190818152602001828054610ca7906128f7565b8015610cf45780601f10610cc957610100808354040283529160200191610cf4565b820191906000526020600020905b815481529060010190602001808311610cd757829003601f168201915b505050505091505b50919050565b60606007805480602002602001604051908101604052809291908181526020018280548015610d5057602002820191906000526020600020905b815481526020019060010190808311610d3c575b5050505050905090565b60606000806000806000606060008089600081118015610d7c57506006548111155b610d8557600080fd5b60008b81526002602081905260409091209081015460048201546005830154600684015460078501546009860154600b87015460018801805490976001600160a01b0316969594939260088a019260ff918216929116908990610de7906128f7565b80601f0160208091040260200160405190810160405280929190818152602001828054610e13906128f7565b8015610e605780601f10610e3557610100808354040283529160200191610e60565b820191906000526020600020905b815481529060010190602001808311610e4357829003601f168201915b50505050509850828054610e73906128f7565b80601f0160208091040260200160405190810160405280929190818152602001828054610e9f906128f7565b8015610eec5780601f10610ec157610100808354040283529160200191610eec565b820191906000526020600020905b815481529060010190602001808311610ecf57829003601f168201915b505050505092509a509a509a509a509a509a509a509a509a5050509193959799909294969850565b600154604051633c2119a760e01b81526000918291829182916001600160a01b0390911690633c2119a790610f4d90889060040161249f565b602060405180830381865afa158015610f6a573d6000803e3d6000fd5b505050506040513d601f19601f82011682018060405250810190610f8e9190612606565b610f9757600080fd5b6000600386604051610fa99190612628565b9081526040805160209281900383018120608082018352805480835260018201549483018590526002820154938301849052600390910154606090920182905299929850909650945092505050565b8060008111801561100b57506006548111155b61101457600080fd5b6000828152600260205260409020600981015460ff1661103357600080fd5b600b81015460ff161561104557600080fd5b60028101546001600160a01b03163314806110f157506110f181600101805461106d906128f7565b80601f0160208091040260200160405190810160405280929190818152602001828054611099906128f7565b80156110e65780601f106110bb576101008083540402835291602001916110e6565b820191906000526020600020905b8154815290600101906020018083116110c957829003601f168201915b5050505050336120a5565b80611108575060038101546001600160a01b031633145b61111157600080fd5b336000818152600a8301602052604090819020805460ff19166001179055517fcd3b1fcca80f9caae633c3e13546995d3810e561957af92839f070c46571942c91611170918691909182526001600160a01b0316602082015260400190565b60405180910390a160028101546001600160a01b03166000908152600a8201602052604090205460ff1680156112375750611237838260010180546111b4906128f7565b80601f01602080910402602001604051908101604052809291908181526020018280546111e0906128f7565b801561122d5780601f106112025761010080835404028352916020019161122d565b820191906000526020600020905b81548152906001019060200180831161121057829003601f168201915b505050505061213d565b8015611261575060038101546001600160a01b03166000908152600a8201602052604090205460ff165b1561073f57600b8101805460ff1916600190811790915560405160039061128b9084840190612a89565b908152602001604051809103902060020160008282546112ab9190612a37565b92505081905550426003826001016040516112c69190612a89565b9081526040805160209281900383019020600301929092556002838101546001600160a01b03166000908152600490925291812090910180546001929061130e908490612a37565b909155505060028101546001600160a01b03908116600090815260046020819052604080832042600390910155600180549151630d7ec59f60e31b815293949190911692636bf62cf8926113659287019101612b81565b600060405180830381865afa158015611382573d6000803e3d6000fd5b505050506040513d6000823e601f3d908101601f191682016040526113aa9190810190612724565b505050505050905060016005826040516113c49190612628565b908152602001604051809103902060020160008282546113e49190612a37565b92505081905550426005826040516113fc9190612628565b9081526040519081900360200190206003015561141884611ff3565b6040518481527f6aafa2babf7b7b7142ff5c7ff71f2b5f78e2243167a26d6b8a7f70936e76923e9060200160405180910390a1600080516020612cd68339815191528260010160405161146b9190612b94565b60405180910390a16002820154600080516020612cd68339815191529061149a906001600160a01b0316611e12565b6040516114a7919061285d565b60405180910390a1600080516020612cf6833981519152816005836040516114cf9190612628565b90815260405190819003602001812054906005906114ee908690612628565b9081526020016040518091039020600101546005856040516115109190612628565b9081526020016040518091039020600201546005866040516115329190612628565b908152604051908190036020018120600401546115549594939291429061288c565b60405180910390a150505050565b60008080806001600160a01b03851661157a57600080fd5b505050506001600160a01b0316600090815260046020908152604091829020825160808101845281548082526001830154938201849052600283015494820185905260039092015460609091018190529093919291565b600781815481106115e157600080fd5b600091825260209091200154905081565b60026020526000908152604090208054600182018054919291611614906128f7565b80601f0160208091040260200160405190810160405280929190818152602001828054611640906128f7565b801561168d5780601f106116625761010080835404028352916020019161168d565b820191906000526020600020905b81548152906001019060200180831161167057829003601f168201915b5050505060028301546003840154600485015460058601546006870154600788015460088901805498996001600160a01b039788169997909616975093959294919390926116da906128f7565b80601f0160208091040260200160405190810160405280929190818152602001828054611706906128f7565b80156117535780601f1061172857610100808354040283529160200191611753565b820191906000526020600020905b81548152906001019060200180831161173657829003601f168201915b505050506009830154600b90930154919260ff908116921690508b565b6000546001600160a01b0316331461178757600080fd5b600080600160009054906101000a90046001600160a01b03166001600160a01b031663f95597746040518163ffffffff1660e01b8152600401600060405180830381865afa1580156117dd573d6000803e3d6000fd5b505050506040513d6000823e601f3d908101601f191682016040526118059190810190612bca565b905060005b81518110156119185760015482516000916001600160a01b031690636bf62cf89085908590811061183d5761183d612c7f565b60200260200101516040518263ffffffff1660e01b8152600401611861919061249f565b600060405180830381865afa15801561187e573d6000803e3d6000fd5b505050506040513d6000823e601f3d908101601f191682016040526118a69190810190612724565b5050505050509050846040516020016118bf9190612628565b60405160208183030381529060405280519060200120816040516020016118e69190612628565b604051602081830303815290604052805190602001200361190f578361190b816128de565b9450505b5060010161180a565b508160058460405161192a9190612628565b908152602001604051809103902060040181905550426005846040516119509190612628565b908152602001604051809103902060030181905550600080516020612cf6833981519152836005856040516119859190612628565b90815260405190819003602001812054906005906119a4908890612628565b9081526020016040518091039020600101546005876040516119c69190612628565b908152604051908190036020018120600201546106cb949392918890429061288c565b600080600080600080600587604051611a029190612628565b908152604080516020928190038301812060a08201835280548083526001820154948301859052600282015493830184905260038201546060840181905260049092015460809093018390529b939a509198509650945092505050565b6000546001600160a01b03163314611a7657600080fd5b6001600160a01b038116611a8957600080fd5b600080546001600160a01b0319166001600160a01b0392909216919091179055565b81600081118015611abe57506006548111155b611ac757600080fd5b6000838152600260205260409020600981015460ff16611ae657600080fd5b600b81015460ff16611af757600080fd5b60028101546001600160a01b0316331480611b1f5750611b1f81600101805461106d906128f7565b611b2857600080fd5b82600382600101604051611b3c9190612a89565b90815260200160405180910390206000016000828254611b5c9190612a37565b9250508190555042600382600101604051611b779190612a89565b90815260408051602092819003830190206003019290925560028301546001600160a01b0316600090815260049091529081208054859290611bba908490612a37565b909155505060028101546001600160a01b03908116600090815260046020819052604080832042600390910155600180549151630d7ec59f60e31b815293949190911692636bf62cf892611c119287019101612b81565b600060405180830381865afa158015611c2e573d6000803e3d6000fd5b505050506040513d6000823e601f3d908101601f19168201604052611c569190810190612724565b505050505050905083600582604051611c6f9190612628565b90815260200160405180910390206000016000828254611c8f9190612a37565b9250508190555042600582604051611ca79190612628565b90815260408051602092819003830181206003019390935587835290820186905242908201527fe23925c82dc049d5fc929f3198e18b0493bf6ee639c8f9c7ddefd366673224c29060600160405180910390a1600080516020612cd683398151915282600101604051611d1a9190612b94565b60405180910390a16002820154600080516020612cd683398151915290611d49906001600160a01b0316611e12565b604051611d56919061285d565b60405180910390a1600080516020612cf683398151915281600583604051611d7e9190612628565b9081526040519081900360200181205490600590611d9d908690612628565b908152602001604051809103902060010154600585604051611dbf9190612628565b908152602001604051809103902060020154600586604051611de19190612628565b90815260405190819003602001812060040154611e039594939291429061288c565b60405180910390a15050505050565b604080518082018252601081526f181899199a1a9b1b9c1cb0b131b232b360811b60208201528151602a80825260608281019094526001600160a01b0385169291600091602082018180368337019050509050600360fc1b81600081518110611e7d57611e7d612c7f565b60200101906001600160f81b031916908160001a905350600f60fb1b81600181518110611eac57611eac612c7f565b60200101906001600160f81b031916908160001a90535060005b6014811015611fea5782600485611ede84600c612a37565b60208110611eee57611eee612c7f565b1a60f81b6001600160f81b031916901c60f81c60ff1681518110611f1457611f14612c7f565b01602001516001600160f81b03191682611f2f836002612c95565b611f3a906002612a37565b81518110611f4a57611f4a612c7f565b60200101906001600160f81b031916908160001a9053508284611f6e83600c612a37565b60208110611f7e57611f7e612c7f565b825191901a600f16908110611f9557611f95612c7f565b01602001516001600160f81b03191682611fb0836002612c95565b611fbb906003612a37565b81518110611fcb57611fcb612c7f565b60200101906001600160f81b031916908160001a905350600101611ec6565b50949350505050565b60005b6007548110156120a157816007828154811061201457612014612c7f565b906000526020600020015403612099576007805461203490600190612cac565b8154811061204457612044612c7f565b90600052602060002001546007828154811061206257612062612c7f565b600091825260209091200155600780548061207f5761207f612cbf565b600190038181906000526020600020016000905590555050565b600101611ff6565b5050565b600154604051630d7ec59f60e31b815260009182916001600160a01b0390911690636bf62cf8906120da90879060040161249f565b600060405180830381865afa1580156120f7573d6000803e3d6000fd5b505050506040513d6000823e601f3d908101601f1916820160405261211f9190810190612724565b506001600160a01b0389811691161496505050505050505b92915050565b600154604051630d7ec59f60e31b815260009182916001600160a01b0390911690636bf62cf89061217290869060040161249f565b600060405180830381865afa15801561218f573d6000803e3d6000fd5b505050506040513d6000823e601f3d908101601f191682016040526121b79190810190612724565b5060008a81526002602090815260408083206001600160a01b039094168352600a9093019052205460ff16965050505050505092915050565b634e487b7160e01b600052604160045260246000fd5b604051601f8201601f191681016001600160401b038111828210171561222e5761222e6121f0565b604052919050565b60006001600160401b0382111561224f5761224f6121f0565b50601f01601f191660200190565b600082601f83011261226e57600080fd5b813561228161227c82612236565b612206565b81815284602083860101111561229657600080fd5b816020850160208301376000918101602001919091529392505050565b6001600160a01b03811681146122c857600080fd5b50565b600080604083850312156122de57600080fd5b82356001600160401b038111156122f457600080fd5b6123008582860161225d565b9250506020830135612311816122b3565b809150509250929050565b60006020828403121561232e57600080fd5b5035919050565b6000806040838503121561234857600080fd5b823591506020830135612311816122b3565b60006020828403121561236c57600080fd5b81356001600160401b0381111561238257600080fd5b61238e8482850161225d565b949350505050565b6000602082840312156123a857600080fd5b81356123b3816122b3565b9392505050565b60008060008060008060c087890312156123d357600080fd5b86356001600160401b038111156123e957600080fd5b6123f589828a0161225d565b9650506020870135612406816122b3565b945060408701359350606087013592506080870135915060a08701356001600160401b0381111561243657600080fd5b61244289828a0161225d565b9150509295509295509295565b60005b8381101561246a578181015183820152602001612452565b50506000910152565b6000815180845261248b81602086016020860161244f565b601f01601f19169290920160200192915050565b6020815260006123b36020830184612473565b602080825282518282018190526000918401906040840190835b818110156124ea5783518352602093840193909201916001016124cc565b509095945050505050565b6101208152600061250a61012083018c612473565b60018060a01b038b1660208401528960408401528860608401528760808401528660a084015282810360c08401526125428187612473565b94151560e0840152505090151561010090910152979650505050505050565b8b81526101606020820152600061257c61016083018d612473565b6001600160a01b038c811660408501528b166060840152608083018a905260a0830189905260c0830188905260e083018790528281036101008401526125c28187612473565b9415156101208401525050901515610140909101529998505050505050505050565b600080604083850312156125f757600080fd5b50508035926020909101359150565b60006020828403121561261857600080fd5b815180151581146123b357600080fd5b6000825161263a81846020870161244f565b9190910192915050565b600082601f83011261265557600080fd5b815161266361227c82612236565b81815284602083860101111561267857600080fd5b61238e82602083016020870161244f565b8051612694816122b3565b919050565b60006001600160401b038211156126b2576126b26121f0565b5060051b60200190565b600082601f8301126126cd57600080fd5b81516126db61227c82612699565b8082825260208201915060208360051b8601019250858311156126fd57600080fd5b602085015b8381101561271a578051835260209283019201612702565b5095945050505050565b600080600080600080600060e0888a03121561273f57600080fd5b87516001600160401b0381111561275557600080fd5b6127618a828b01612644565b97505060208801516001600160401b0381111561277d57600080fd5b6127898a828b01612644565b96505060408801516001600160401b038111156127a557600080fd5b6127b18a828b01612644565b60608a015160808b0151919750955090506001600160401b038111156127d657600080fd5b6127e28a828b01612644565b9350506127f160a08901612689565b915060c08801516001600160401b0381111561280c57600080fd5b6128188a828b016126bc565b91505092959891949750929550565b60408152600061284b6040830160048152634661726d60e01b602082015260400190565b828103602084015261238e8185612473565b6040815260056040820152641059d95b9d60da1b60608201526080602082015260006123b36080830184612473565b60c08152600061289f60c0830189612473565b60208301979097525060408101949094526060840192909252608083015260a090910152919050565b634e487b7160e01b600052601160045260246000fd5b6000600182016128f0576128f06128c8565b5060010190565b600181811c9082168061290b57607f821691505b602082108103610cfc57634e487b7160e01b600052602260045260246000fd5b601f82111561073f57806000526020600020601f840160051c810160208510156129525750805b601f840160051c820191505b81811015612972576000815560010161295e565b5050505050565b81516001600160401b03811115612992576129926121f0565b6129a6816129a084546128f7565b8461292b565b6020601f8211600181146129da57600083156129c25750848201515b600019600385901b1c1916600184901b178455612972565b600084815260208120601f198516915b82811015612a0a57878501518255602094850194600190920191016129ea565b5084821015612a285786840151600019600387901b60f8161c191681555b50505050600190811b01905550565b80820180821115612137576121376128c8565b85815260a060208201526000612a6360a0830187612473565b6001600160a01b0395909516604083015250606081019290925260809091015292915050565b6000808354612a97816128f7565b600182168015612aae5760018114612ac357612af3565b60ff1983168652811515820286019350612af3565b86600052602060002060005b83811015612aeb57815488820152600190910190602001612acf565b505081860193505b509195945050505050565b60008154612b0b816128f7565b808552600182168015612b255760018114612b4157612b78565b60ff1983166020870152602082151560051b8701019350612b78565b84600052602060002060005b83811015612b6f5781546020828a010152600182019150602081019050612b4d565b87016020019450505b50505092915050565b6020815260006123b36020830184612afe565b604081526000612bb86040830160048152634661726d60e01b602082015260400190565b828103602084015261238e8185612afe565b600060208284031215612bdc57600080fd5b81516001600160401b03811115612bf257600080fd5b8201601f81018413612c0357600080fd5b8051612c1161227c82612699565b8082825260208201915060208360051b850101925086831115612c3357600080fd5b602084015b83811015612c745780516001600160401b03811115612c5657600080fd5b612c6589602083890101612644565b84525060209283019201612c38565b509695505050505050565b634e487b7160e01b600052603260045260246000fd5b8082028115828204841417612137576121376128c8565b81810381811115612137576121376128c8565b634e487b7160e01b600052603160045260246000fdfe914b6df087f14ffed67794dfad9d77ee643c6e0ba016d9c51d73479e83efb412542d5c6e83ce3e9747411d38d92b354726ab521b1def4289843a438fba4c5d40a264697066735822122093be79c367dd20fd878c2c53c4e4520c88ba1c981733a07e41c4d5c68317a90264736f6c634300081c0033",
  "linkReferences": {},
  "deployedLinkReferences": {}
}