{"contracts/FruitSupplyChain.sol":{"FruitSupplyChain":{"abi":[{"inputs":[],"stateMutability":"nonpayable","type":"constructor"},{"anonymous":false,"inputs":[{"indexed":false,"internalType":"string","name":"fruitType","type":"string"},{"indexed":false,"internalType":"address","name":"by","type":"address"},{"indexed":false,"internalType":"uint256","name":"timestamp","type":"uint256"}],"name":"CatalogAdded","type":"event"},{"anonymous":false,"inputs":[{"indexed":false,"internalType":"string","name":"farmId","type":"string"},{"indexed":false,"internalType":"string","name":"conditions","type":"string"},{"indexed":false,"internalType":"uint256","name":"timestamp","type":"uint256"}],"name":"FarmUpdated","type":"event"},{"anonymous":false,"inputs":[{"indexed":false,"internalType":"string","name":"fruitType","type":"string"},{"indexed":false,"internalType":"string","name":"ipfsHash","type":"string"},{"indexed":false,"internalType":"uint256","name":"timestamp","type":"uint256"}],"name":"FruitHashUpdated","type":"event"},{"anonymous":false,"inputs":[{"indexed":false,"internalType":"uint256","name":"listingId","type":"uint256"},{"indexed":false,"internalType":"uint256","name":"fruitId","type":"uint256"},{"indexed":false,"internalType":"uint256","name":"price","type":"uint256"},{"indexed":false,"internalType":"uint256","name":"quantity","type":"uint256"},{"indexed":false,"internalType":"address","name":"seller","type":"address"},{"indexed":false,"internalType":"uint256","name":"timestamp","type":"uint256"}],"name":"ProductListed","type":"event"},{"anonymous":false,"inputs":[{"indexed":false,"internalType":"uint256","name":"listingId","type":"uint256"},{"indexed":false,"internalType":"address","name":"buyer","type":"address"},{"indexed":false,"internalType":"uint256","name":"quantity","type":"uint256"},{"indexed":false,"internalType":"uint256","name":"timestamp","type":"uint256"}],"name":"ProductPurchased","type":"event"},{"anonymous":false,"inputs":[{"indexed":false,"internalType":"uint256","name":"fruitId","type":"uint256"},{"indexed":false,"internalType":"string","name":"recommendation","type":"string"},{"indexed":false,"internalType":"uint256","name":"timestamp","type":"uint256"}],"name":"RecommendationAdded","type":"event"},{"anonymous":false,"inputs":[{"indexed":false,"internalType":"uint256","name":"fruitId","type":"uint256"},{"indexed":false,"internalType":"string","name":"step","type":"string"},{"indexed":false,"internalType":"address","name":"by","type":"address"},{"indexed":false,"internalType":"uint256","name":"timestamp","type":"uint256"}],"name":"StepRecorded","type":"event"},{"inputs":[{"internalType":"string","name":"_fruitType","type":"string"},{"internalType":"string","name":"_description","type":"string"},{"internalType":"string","name":"_growingSeason","type":"string"},{"internalType":"string","name":"_nutritionalValue","type":"string"},{"internalType":"string","name":"_storageConditions","type":"string"},{"internalType":"string[]","name":"_commonVarieties","type":"string[]"}],"name":"addFruitCatalog","outputs":[],"stateMutability":"nonpayable","type":"function"},{"inputs":[{"internalType":"address","name":"_manager","type":"address"}],"name":"addManager","outputs":[],"stateMutability":"nonpayable","type":"function"},{"inputs":[{"internalType":"uint256","name":"_fruitId","type":"uint256"},{"internalType":"string","name":"_recommendation","type":"string"}],"name":"addRecommendation","outputs":[],"stateMutability":"nonpayable","type":"function"},{"inputs":[{"internalType":"address","name":"","type":"address"}],"name":"authorizedManagers","outputs":[{"internalType":"bool","name":"","type":"bool"}],"stateMutability":"view","type":"function"},{"inputs":[{"internalType":"string","name":"","type":"string"}],"name":"farms","outputs":[{"internalType":"string","name":"location","type":"string"},{"internalType":"string","name":"climate","type":"string"},{"internalType":"string","name":"soil","type":"string"},{"internalType":"uint256","name":"lastUpdated","type":"uint256"},{"internalType":"string","name":"currentConditions","type":"string"},{"internalType":"address","name":"owner","type":"address"}],"stateMutability":"view","type":"function"},{"inputs":[{"internalType":"string","name":"","type":"string"}],"name":"fruitCatalogs","outputs":[{"internalType":"string","name":"name","type":"string"},{"internalType":"string","name":"description","type":"string"},{"internalType":"string","name":"growingSeason","type":"string"},{"internalType":"string","name":"nutritionalValue","type":"string"},{"internalType":"string","name":"storageConditions","type":"string"}],"stateMutability":"view","type":"function"},{"inputs":[],"name":"fruitCount","outputs":[{"internalType":"uint256","name":"","type":"uint256"}],"stateMutability":"view","type":"function"},{"inputs":[{"internalType":"string","name":"","type":"string"}],"name":"fruitHashes","outputs":[{"internalType":"string","name":"","type":"string"}],"stateMutability":"view","type":"function"},{"inputs":[{"internalType":"uint256","name":"","type":"uint256"}],"name":"fruits","outputs":[{"internalType":"string","name":"fruitType","type":"string"},{"internalType":"string","name":"origin","type":"string"},{"internalType":"address","name":"producer","type":"address"},{"internalType":"uint256","name":"harvestDate","type":"uint256"},{"internalType":"string","name":"quality","type":"string"},{"internalType":"uint256","name":"quantity","type":"uint256"}],"stateMutability":"view","type":"function"},{"inputs":[],"name":"getAllActiveListings","outputs":[{"internalType":"uint256[]","name":"","type":"uint256[]"}],"stateMutability":"view","type":"function"},{"inputs":[],"name":"getAllFarms","outputs":[{"internalType":"string[]","name":"","type":"string[]"}],"stateMutability":"view","type":"function"},{"inputs":[],"name":"getAllFruitTypes","outputs":[{"internalType":"string[]","name":"","type":"string[]"}],"stateMutability":"view","type":"function"},{"inputs":[{"internalType":"string","name":"_farmId","type":"string"}],"name":"getFarmData","outputs":[{"internalType":"string","name":"","type":"string"},{"internalType":"string","name":"","type":"string"},{"internalType":"string","name":"","type":"string"},{"internalType":"uint256","name":"","type":"uint256"},{"internalType":"string","name":"","type":"string"},{"internalType":"address","name":"","type":"address"},{"internalType":"uint256[]","name":"","type":"uint256[]"}],"stateMutability":"view","type":"function"},{"inputs":[{"internalType":"uint256","name":"_fruitId","type":"uint256"}],"name":"getFruit","outputs":[{"internalType":"string","name":"","type":"string"},{"internalType":"string","name":"","type":"string"},{"internalType":"address","name":"","type":"address"},{"internalType":"string[]","name":"","type":"string[]"},{"internalType":"uint256","name":"","type":"uint256"},{"internalType":"string","name":"","type":"string"},{"internalType":"string[]","name":"","type":"string[]"},{"internalType":"uint256","name":"","type":"uint256"}],"stateMutability":"view","type":"function"},{"inputs":[{"internalType":"string","name":"_fruitType","type":"string"}],"name":"getFruitCatalog","outputs":[{"internalType":"string","name":"","type":"string"},{"internalType":"string","name":"","type":"string"},{"internalType":"string","name":"","type":"string"},{"internalType":"string","name":"","type":"string"},{"internalType":"string","name":"","type":"string"},{"internalType":"string[]","name":"","type":"string[]"}],"stateMutability":"view","type":"function"},{"inputs":[{"internalType":"string","name":"fruitType","type":"string"}],"name":"getFruitHash","outputs":[{"internalType":"string","name":"","type":"string"}],"stateMutability":"view","type":"function"},{"inputs":[{"internalType":"uint256","name":"_listingId","type":"uint256"}],"name":"getListedProduct","outputs":[{"internalType":"uint256","name":"fruitId","type":"uint256"},{"internalType":"uint256","name":"price","type":"uint256"},{"internalType":"uint256","name":"quantity","type":"uint256"},{"internalType":"address","name":"seller","type":"address"},{"internalType":"bool","name":"isActive","type":"bool"},{"internalType":"uint256","name":"listedTimestamp","type":"uint256"},{"internalType":"bool","name":"allowPartialPurchase","type":"bool"}],"stateMutability":"view","type":"function"},{"inputs":[{"internalType":"address","name":"_seller","type":"address"}],"name":"getSellerListings","outputs":[{"internalType":"uint256[]","name":"","type":"uint256[]"}],"stateMutability":"view","type":"function"},{"inputs":[{"internalType":"string","name":"_fruitType","type":"string"},{"internalType":"string","name":"_origin","type":"string"},{"internalType":"string","name":"_farmId","type":"string"},{"internalType":"string","name":"_quality","type":"string"},{"internalType":"uint256","name":"_quantity","type":"uint256"}],"name":"harvestFruit","outputs":[],"stateMutability":"nonpayable","type":"function"},{"inputs":[{"internalType":"string","name":"","type":"string"}],"name":"isFarmRegistered","outputs":[{"internalType":"bool","name":"","type":"bool"}],"stateMutability":"view","type":"function"},{"inputs":[{"internalType":"uint256","name":"_fruitId","type":"uint256"},{"internalType":"uint256","name":"_price","type":"uint256"},{"internalType":"uint256","name":"_quantity","type":"uint256"},{"internalType":"bool","name":"_allowPartialPurchase","type":"bool"}],"name":"listProductForSale","outputs":[],"stateMutability":"nonpayable","type":"function"},{"inputs":[{"internalType":"uint256","name":"","type":"uint256"}],"name":"listedProducts","outputs":[{"internalType":"uint256","name":"fruitId","type":"uint256"},{"internalType":"uint256","name":"price","type":"uint256"},{"internalType":"uint256","name":"quantity","type":"uint256"},{"internalType":"address","name":"seller","type":"address"},{"internalType":"bool","name":"isActive","type":"bool"},{"internalType":"uint256","name":"listedTimestamp","type":"uint256"},{"internalType":"bool","name":"allowPartialPurchase","type":"bool"}],"stateMutability":"view","type":"function"},{"inputs":[],"name":"listingCount","outputs":[{"internalType":"uint256","name":"","type":"uint256"}],"stateMutability":"view","type":"function"},{"inputs":[{"internalType":"uint256","name":"","type":"uint256"}],"name":"listingIds","outputs":[{"internalType":"uint256","name":"","type":"uint256"}],"stateMutability":"view","type":"function"},{"inputs":[],"name":"owner","outputs":[{"internalType":"address","name":"","type":"address"}],"stateMutability":"view","type":"function"},{"inputs":[{"internalType":"uint256","name":"_listingId","type":"uint256"},{"internalType":"uint256","name":"_quantity","type":"uint256"}],"name":"purchaseProduct","outputs":[],"stateMutability":"payable","type":"function"},{"inputs":[{"internalType":"uint256","name":"_fruitId","type":"uint256"},{"internalType":"string","name":"_step","type":"string"}],"name":"recordStep","outputs":[],"stateMutability":"nonpayable","type":"function"},{"inputs":[{"internalType":"string","name":"_farmId","type":"string"},{"internalType":"string","name":"_location","type":"string"},{"internalType":"string","name":"_climate","type":"string"},{"internalType":"string","name":"_soil","type":"string"},{"internalType":"string","name":"_currentConditions","type":"string"}],"name":"registerFarm","outputs":[],"stateMutability":"nonpayable","type":"function"},{"inputs":[{"internalType":"uint256","name":"","type":"uint256"}],"name":"registeredFarms","outputs":[{"internalType":"string","name":"","type":"string"}],"stateMutability":"view","type":"function"},{"inputs":[{"internalType":"uint256","name":"","type":"uint256"}],"name":"registeredFruitTypes","outputs":[{"internalType":"string","name":"","type":"string"}],"stateMutability":"view","type":"function"},{"inputs":[{"internalType":"address","name":"_manager","type":"address"}],"name":"removeManager","outputs":[],"stateMutability":"nonpayable","type":"function"},{"inputs":[{"internalType":"address","name":"","type":"address"},{"internalType":"uint256","name":"","type":"uint256"}],"name":"sellerListings","outputs":[{"internalType":"uint256","name":"","type":"uint256"}],"stateMutability":"view","type":"function"},{"inputs":[{"internalType":"string","name":"fruitType","type":"string"},{"internalType":"string","name":"ipfsHash","type":"string"}],"name":"setFruitHash","outputs":[],"stateMutability":"nonpayable","type":"function"},{"inputs":[{"internalType":"string","name":"_farmId","type":"string"},{"internalType":"string","name":"_conditions","type":"string"}],"name":"updateFarmConditions","outputs":[],"stateMutability":"nonpayable","type":"function"}],"evm":{"bytecode":{"linkReferences":{},"object":"6080604052348015605c5760405162461bcd60e51b815260206004820152602260248201527f45746865722073656e7420746f206e6f6e2d70617961626c652066756e637469604482019081526137b760f11b6064830152608482fd5b50600080546001600160a01b0319163390811782558152600160208190526040909120805460ff1916909117905561517a806100996000396000f3fe6080604052600436106101f95760003560e01c80636a03089d1161010d578063ac18de43116100a0578063c71b89b51161006f578063c71b89b514610d76578063ceadca1314610de2578063d8ab96bc14610e87578063f493008d14610ee2578063f955977414610f33576101f9565b8063ac18de4314610be6578063ac9f127614610c41578063bc5e8cd714610cae578063c417216214610d09576101f9565b80638da5cb5b116100dc5780638da5cb5b14610ab4578063a044042614610b27578063a673e06414610b3a578063a9b07c2614610b95576101f9565b80636a03089d1461092c5780636bf62cf814610987578063701e5084146109f557806376ce7fe914610a45576101f9565b806342c7f63f1161019057806352bea3601161015f57806352bea36014610746578063569de6fd146107a157806358cf8f51146107fc57806358eed174146108695780635f42da09146108c4576101f9565b806342c7f63f146105da57806343622b81146106355780635154da5a1461069057806351edfd7d146106eb576101f9565b80631fc15e93116101cc5780631fc15e93146104445780632d06177a146104ac5780633c2119a7146105095780633f50e5af1461057f576101f9565b8063046c67121461025e578063054564f0146102c45780630a3cb21b1461032d5780631b4dba9b146103a8575b60405162461bcd60e51b815260206004820152603560248201527f436f6e747261637420646f6573206e6f7420686176652066616c6c6261636b2060448201908152746e6f7220726563656976652066756e6374696f6e7360581b6064830152608482fd5b3480156102a55760405162461bcd60e51b81526020600482015260226024820152600080516020615125833981519152604482019081526137b760f11b6064830152608482fd5b506102ae610f83565b6040516102bb91906141c6565b60405180910390f35b34801561030b5760405162461bcd60e51b81526020600482015260226024820152600080516020615125833981519152604482019081526137b760f11b6064830152608482fd5b5061031f61031a36600461429c565b61105c565b6040519081526020016102bb565b3480156103745760405162461bcd60e51b81526020600482015260226024820152600080516020615125833981519152604482019081526137b760f11b6064830152608482fd5b506103986103833660046142c9565b60016020526000908152604090205460ff1681565b60405190151581526020016102bb565b3480156103ef5760405162461bcd60e51b81526020600482015260226024820152600080516020615125833981519152604482019081526137b760f11b6064830152608482fd5b506104036103fe3660046142e7565b61108d565b604080519788526020880196909652948601939093526001600160a01b0390911660608501521515608084015260a0830152151560c082015260e0016102bb565b34801561048b5760405162461bcd60e51b81526020600482015260226024820152600080516020615125833981519152604482019081526137b760f11b6064830152608482fd5b5061049f61049a3660046142e7565b61117d565b6040516102bb9190614303565b3480156104f35760405162461bcd60e51b81526020600482015260226024820152600080516020615125833981519152604482019081526137b760f11b6064830152608482fd5b506105076105023660046142c9565b611229565b005b3480156105505760405162461bcd60e51b81526020600482015260226024820152600080516020615125833981519152604482019081526137b760f11b6064830152608482fd5b5061039861055f366004614477565b8051602081830181018051600c8252928201919093012091525460ff1681565b3480156105c65760405162461bcd60e51b81526020600482015260226024820152600080516020615125833981519152604482019081526137b760f11b6064830152608482fd5b506105076105d53660046144b9565b61127a565b3480156106215760405162461bcd60e51b81526020600482015260226024820152600080516020615125833981519152604482019081526137b760f11b6064830152608482fd5b506105076106303660046145b2565b61156c565b34801561067c5760405162461bcd60e51b81526020600482015260226024820152600080516020615125833981519152604482019081526137b760f11b6064830152608482fd5b5061050761068b3660046145b2565b6115d7565b3480156106d75760405162461bcd60e51b81526020600482015260226024820152600080516020615125833981519152604482019081526137b760f11b6064830152608482fd5b506105076106e6366004614622565b611697565b3480156107325760405162461bcd60e51b81526020600482015260226024820152600080516020615125833981519152604482019081526137b760f11b6064830152608482fd5b50610507610741366004614658565b611768565b34801561078d5760405162461bcd60e51b81526020600482015260226024820152600080516020615125833981519152604482019081526137b760f11b6064830152608482fd5b5061031f61079c3660046142e7565b611a71565b3480156107e85760405162461bcd60e51b81526020600482015260226024820152600080516020615125833981519152604482019081526137b760f11b6064830152608482fd5b506105076107f73660046147a3565b611a92565b3480156108435760405162461bcd60e51b81526020600482015260226024820152600080516020615125833981519152604482019081526137b760f11b6064830152608482fd5b50610857610852366004614477565b611cba565b6040516102bb969594939291906148c8565b3480156108b05760405162461bcd60e51b81526020600482015260226024820152600080516020615125833981519152604482019081526137b760f11b6064830152608482fd5b5061049f6108bf3660046142e7565b6120d1565b34801561090b5760405162461bcd60e51b81526020600482015260226024820152600080516020615125833981519152604482019081526137b760f11b6064830152608482fd5b5061091f61091a3660046142c9565b6120e1565b6040516102bb9190614986565b3480156109735760405162461bcd60e51b81526020600482015260226024820152600080516020615125833981519152604482019081526137b760f11b6064830152608482fd5b5061049f610982366004614477565b61214d565b3480156109ce5760405162461bcd60e51b81526020600482015260226024820152600080516020615125833981519152604482019081526137b760f11b6064830152608482fd5b506109e26109dd366004614477565b6121f3565b6040516102bb9796959493929190614999565b348015610a3c5760405162461bcd60e51b81526020600482015260226024820152600080516020615125833981519152604482019081526137b760f11b6064830152608482fd5b5061091f612524565b348015610a8c5760405162461bcd60e51b81526020600482015260226024820152600080516020615125833981519152604482019081526137b760f11b6064830152608482fd5b50610aa0610a9b3660046142e7565b6126ac565b6040516102bb989796959493929190614a1d565b348015610afb5760405162461bcd60e51b81526020600482015260226024820152600080516020615125833981519152604482019081526137b760f11b6064830152608482fd5b50600054610b0f906001600160a01b031681565b6040516001600160a01b0390911681526020016102bb565b610507610b35366004614aab565b612ad8565b348015610b815760405162461bcd60e51b81526020600482015260226024820152600080516020615125833981519152604482019081526137b760f11b6064830152608482fd5b50610507610b90366004614ad0565b612e3f565b348015610bdc5760405162461bcd60e51b81526020600482015260226024820152600080516020615125833981519152604482019081526137b760f11b6064830152608482fd5b5061031f60085481565b348015610c2d5760405162461bcd60e51b81526020600482015260226024820152600080516020615125833981519152604482019081526137b760f11b6064830152608482fd5b50610507610c3c3660046142c9565b61360d565b348015610c885760405162461bcd60e51b81526020600482015260226024820152600080516020615125833981519152604482019081526137b760f11b6064830152608482fd5b50610c9c610c97366004614477565b613658565b6040516102bb96959493929190614ba3565b348015610cf55760405162461bcd60e51b81526020600482015260226024820152600080516020615125833981519152604482019081526137b760f11b6064830152608482fd5b50610507610d04366004614622565b6138c0565b348015610d505760405162461bcd60e51b81526020600482015260226024820152600080516020615125833981519152604482019081526137b760f11b6064830152608482fd5b50610d64610d5f3660046142e7565b61394f565b6040516102bb96959493929190614c12565b348015610dbd5760405162461bcd60e51b81526020600482015260226024820152600080516020615125833981519152604482019081526137b760f11b6064830152608482fd5b50610dd1610dcc366004614477565b613b29565b6040516102bb959493929190614c75565b348015610e295760405162461bcd60e51b81526020600482015260226024820152600080516020615125833981519152604482019081526137b760f11b6064830152608482fd5b50610403610e383660046142e7565b60056020819052600091825260409091208054600182015460028301546003840154600485015494909501549294919390926001600160a01b0383169260ff600160a01b909104811692911687565b348015610ece5760405162461bcd60e51b81526020600482015260226024820152600080516020615125833981519152604482019081526137b760f11b6064830152608482fd5b5061049f610edd366004614477565b613e0a565b348015610f295760405162461bcd60e51b81526020600482015260226024820152600080516020615125833981519152604482019081526137b760f11b6064830152608482fd5b5061031f60075481565b348015610f7a5760405162461bcd60e51b81526020600482015260226024820152600080516020615125833981519152604482019081526137b760f11b6064830152608482fd5b506102ae613e2e565b60606009805480602002602001604051908101604052809291908181526020016000905b82821015611053578382906000526020600020018054610fc690614ce2565b80601f0160208091040260200160405190810160405280929190818152602001828054610ff290614ce2565b801561103f5780601f106110145761010080835404028352916020019161103f565b820191906000526020600020905b81548152906001019060200180831161102257829003601f168201915b505050505081526020019060010190610fa7565b50505050905090565b6006602052816000526040600020818154811061107857600080fd5b90600052602060002001600091509150505481565b600080600080600080600080881180156110a957506008548811155b6110ef5760405162461bcd60e51b8152602060048201526012602482015271125b9d985b1a5908131a5cdd1a5b99c8125160721b60448201526064015b60405180910390fd5b5050506000948552505060056020818152604094859020855160e08101875281548082526001830154938201849052600283015497820188905260038301546001600160a01b03811660608401819052600160a01b90910460ff908116151560808501819052600486015460a08601819052959097015416151560c090930183905290989397965094509091565b600a818154811061118d57600080fd5b9060005260206000200160009150905080546111a890614ce2565b80601f01602080910402602001604051908101604052809291908181526020018280546111d490614ce2565b80156112215780601f106111f657610100808354040283529160200191611221565b820191906000526020600020905b81548152906001019060200180831161120457829003601f168201915b505050505081565b6000546001600160a01b031633146112535760405162461bcd60e51b81526004016110e690614d1c565b6001600160a01b03166000908152600160208190526040909120805460ff19169091179055565b600c8560405161128a9190614d5e565b9081526040519081900360200190205460ff16156112ea5760405162461bcd60e51b815260206004820152601760248201527f4661726d20616c7265616479207265676973746572656400000000000000000060448201526064016110e6565b6040518060e0016040528085815260200184815260200183815260200160008152602001828152602001336001600160a01b0316815260200160006001600160401b0381111561133c5761133c61436f565b604051908082528060200260200182016040528015611365578160200160208202803683370190505b508152506003866040516113799190614d5e565b908152604051908190036020019020815181906113969082614dc9565b50602082015160018201906113ab9082614dc9565b50604082015160028201906113c09082614dc9565b5060608201516003820155608082015160048201906113df9082614dc9565b5060a08201516005820180546001600160a01b0319166001600160a01b0390921691909117905560c0820151805161142191600684019160209091019061400e565b509050506001600c866040516114379190614d5e565b908152604051908190036020019020805491151560ff199092169190911790556000805b600a548110156114e557866040516020016114769190614d5e565b60405160208183030381529060405280519060200120600a828154811061149f5761149f614e87565b906000526020600020016040516020016114b99190614e9d565b60405160208183030381529060405280519060200120036114dd57600191506114e5565b60010161145b565b508061152957600a80546001810182556000919091527fc65a7bb8d6351c1cf70c95a316cc6a92839c986682d98bc35f958f4883f9d2a8016115278782614dc9565b505b7fef9e0a850bb9971e155f20e4b0e490cdeafc72eab8d0da56fe2f1585ad9567de86834260405161155c93929190614f12565b60405180910390a1505050505050565b80600d8360405161157d9190614d5e565b908152602001604051809103902090816115979190614dc9565b507f888bf677ec642f934df90bbc78f33cc2d32f3d50b0d2bc286d26ef35d69c89b48282426040516115cb93929190614f12565b60405180910390a15050565b60006003836040516115e99190614d5e565b90815260405190819003602001902060058101549091506001600160a01b031633148061162557503360009081526001602052604090205460ff165b6116415760405162461bcd60e51b81526004016110e690614f48565b6004810161164f8382614dc9565b5042600382018190556040517fef9e0a850bb9971e155f20e4b0e490cdeafc72eab8d0da56fe2f1585ad9567de9161168a9186918691614f12565b60405180910390a1505050565b3360009081526001602052604090205460ff16806116bf57506000546001600160a01b031633145b6116db5760405162461bcd60e51b81526004016110e690614f48565b6000821180156116ed57506007548211155b6117095760405162461bcd60e51b81526004016110e690614f70565b6000828152600460209081526040822060070180546001810182559083529120016117348282614dc9565b507f40e632d4a93e307bc4fd8ee554a117dbc7f782e20d62bdd43d8dcf040dfb521d8282426040516115cb93929190614f9a565b60008411801561177a57506007548411155b6117965760405162461bcd60e51b81526004016110e690614f70565b600083116117e65760405162461bcd60e51b815260206004820152601c60248201527f5072696365206d7573742062652067726561746572207468616e20300000000060448201526064016110e6565b600082116118365760405162461bcd60e51b815260206004820152601f60248201527f5175616e74697479206d7573742062652067726561746572207468616e20300060448201526064016110e6565b600084815260046020526040902060058101548311156118985760405162461bcd60e51b815260206004820181905260248201527f5175616e74697479206578636565647320617661696c61626c652073746f636b60448201526064016110e6565b600880549060006118a883614fd9565b90915550506040805160e081018252868152602080820187815282840187815233606085018181526001608087018181524260a089019081528b151560c08a019081526008805460009081526005808c528d82209c518d5599518c870155975160028c0155945160038b01805494516001600160a01b039092166001600160a81b031990951694909417600160a01b9115159190910217909255516004808a0191909155905197909501805460ff1916971515979097179096559082526006808552868320825481548089018355918552868520909101559054600b80548088019091557f0175b7a638427703f0dbe7bb9bbf987a2551717b34e79f33b5b1008d1fa01db901558a82529183528481209091018054938401815581528190208351808501909452600f84526e4c697374656420666f722053616c6560881b9184019190915201906119f99082614dc9565b5082816005016000828254611a0e9190614ff2565b909155505060085460408051918252602082018790528101859052606081018490523360808201524260a08201527f74db1cf85b7690d991329cd32074d6249e834ec06591f8652f737065d42b040e9060c0015b60405180910390a15050505050565b600b8181548110611a8157600080fd5b600091825260209091200154905081565b3360009081526001602052604090205460ff1680611aba57506000546001600160a01b031633145b611ad65760405162461bcd60e51b81526004016110e690614f48565b6040518060c0016040528087815260200186815260200185815260200184815260200183815260200182815250600287604051611b139190614d5e565b90815260405190819003602001902081518190611b309082614dc9565b5060208201516001820190611b459082614dc9565b5060408201516002820190611b5a9082614dc9565b5060608201516003820190611b6f9082614dc9565b5060808201516004820190611b849082614dc9565b5060a08201518051611ba0916005840191602090910190614059565b509050506000805b600954811015611c325787604051602001611bc39190614d5e565b6040516020818303038152906040528051906020012060098281548110611bec57611bec614e87565b90600052602060002001604051602001611c069190614e9d565b6040516020818303038152906040528051906020012003611c2a5760019150611c32565b600101611ba8565b5080611c7657600980546001810182556000919091527f6e1540171b6c0c960b71a7020d9f60077f6af931a8bbf590da0223dacf75c7af01611c748882614dc9565b505b7f78384878ee8ef9f8c429173968af06c8e361a98cd306b33d813326106f36681f873342604051611ca99392919061500b565b60405180910390a150505050505050565b6060806060806060806000600288604051611cd59190614d5e565b90815260200160405180910390206040518060c0016040529081600082018054611cfe90614ce2565b80601f0160208091040260200160405190810160405280929190818152602001828054611d2a90614ce2565b8015611d775780601f10611d4c57610100808354040283529160200191611d77565b820191906000526020600020905b815481529060010190602001808311611d5a57829003601f168201915b50505050508152602001600182018054611d9090614ce2565b80601f0160208091040260200160405190810160405280929190818152602001828054611dbc90614ce2565b8015611e095780601f10611dde57610100808354040283529160200191611e09565b820191906000526020600020905b815481529060010190602001808311611dec57829003601f168201915b50505050508152602001600282018054611e2290614ce2565b80601f0160208091040260200160405190810160405280929190818152602001828054611e4e90614ce2565b8015611e9b5780601f10611e7057610100808354040283529160200191611e9b565b820191906000526020600020905b815481529060010190602001808311611e7e57829003601f168201915b50505050508152602001600382018054611eb490614ce2565b80601f0160208091040260200160405190810160405280929190818152602001828054611ee090614ce2565b8015611f2d5780601f10611f0257610100808354040283529160200191611f2d565b820191906000526020600020905b815481529060010190602001808311611f1057829003601f168201915b50505050508152602001600482018054611f4690614ce2565b80601f0160208091040260200160405190810160405280929190818152602001828054611f7290614ce2565b8015611fbf5780601f10611f9457610100808354040283529160200191611fbf565b820191906000526020600020905b815481529060010190602001808311611fa257829003601f168201915b5050505050815260200160058201805480602002602001604051908101604052809291908181526020016000905b8282101561209957838290600052602060002001805461200c90614ce2565b80601f016020809104026020016040519081016040528092919081815260200182805461203890614ce2565b80156120855780601f1061205a57610100808354040283529160200191612085565b820191906000526020600020905b81548152906001019060200180831161206857829003601f168201915b505050505081526020019060010190611fed565b505050915250508051602082015160408301516060840151608085015160a090950151939d929c50909a509850919650945092505050565b6009818154811061118d57600080fd5b6001600160a01b03811660009081526006602090815260409182902080548351818402810184019094528084526060939283018282801561214157602002820191906000526020600020905b81548152602001906001019080831161212d575b50505050509050919050565b6060600d8260405161215f9190614d5e565b9081526020016040518091039020805461217890614ce2565b80601f01602080910402602001604051908101604052809291908181526020018280546121a490614ce2565b80156121415780601f106121c657610100808354040283529160200191612141565b820191906000526020600020905b8154815290600101906020018083116121d45750939695505050505050565b6060806060600060606000606060006003896040516122129190614d5e565b90815260200160405180910390206040518060e001604052908160008201805461223b90614ce2565b80601f016020809104026020016040519081016040528092919081815260200182805461226790614ce2565b80156122b45780601f10612289576101008083540402835291602001916122b4565b820191906000526020600020905b81548152906001019060200180831161229757829003601f168201915b505050505081526020016001820180546122cd90614ce2565b80601f01602080910402602001604051908101604052809291908181526020018280546122f990614ce2565b80156123465780601f1061231b57610100808354040283529160200191612346565b820191906000526020600020905b81548152906001019060200180831161232957829003601f168201915b5050505050815260200160028201805461235f90614ce2565b80601f016020809104026020016040519081016040528092919081815260200182805461238b90614ce2565b80156123d85780601f106123ad576101008083540402835291602001916123d8565b820191906000526020600020905b8154815290600101906020018083116123bb57829003601f168201915b50505050508152602001600382015481526020016004820180546123fb90614ce2565b80601f016020809104026020016040519081016040528092919081815260200182805461242790614ce2565b80156124745780601f1061244957610100808354040283529160200191612474565b820191906000526020600020905b81548152906001019060200180831161245757829003601f168201915b505050918352505060058201546001600160a01b031660208083019190915260068301805460408051828502810185018252828152940193928301828280156124dc57602002820191906000526020600020905b8154815260200190600101908083116124c8575b5050505050815250509050806000015181602001518260400151836060015184608001518560a001518660c00151975097509750975097509750975050919395979092949650565b606060006008546001600160401b038111156125425761254261436f565b60405190808252806020026020018201604052801561256b578160200160208202803683370190505b5090506000805b600b548110156126135760056000600b838154811061259357612593614e87565b9060005260206000200154815260200190815260200160002060030160149054906101000a900460ff161561260b57600b81815481106125d5576125d5614e87565b90600052602060002001548383815181106125f2576125f2614e87565b60209081029190910101528161260781614fd9565b9250505b600101612572565b506000816001600160401b0381111561262e5761262e61436f565b604051908082528060200260200182016040528015612657578160200160208202803683370190505b50905060005b828110156126a45783818151811061267757612677614e87565b602002602001015182828151811061269157612691614e87565b602090810291909101015260010161265d565b509392505050565b606080600060606000606080600080891180156126cb57506007548911155b6126e75760405162461bcd60e51b81526004016110e690614f70565b6000898152600460205260408082208151610100810190925280548290829061270f90614ce2565b80601f016020809104026020016040519081016040528092919081815260200182805461273b90614ce2565b80156127885780601f1061275d57610100808354040283529160200191612788565b820191906000526020600020905b81548152906001019060200180831161276b57829003601f168201915b505050505081526020016001820180546127a190614ce2565b80601f01602080910402602001604051908101604052809291908181526020018280546127cd90614ce2565b801561281a5780601f106127ef5761010080835404028352916020019161281a565b820191906000526020600020905b8154815290600101906020018083116127fd57829003601f168201915b505050918352505060028201546001600160a01b031660208201526003820154604082015260048201805460609092019161285490614ce2565b80601f016020809104026020016040519081016040528092919081815260200182805461288090614ce2565b80156128cd5780601f106128a2576101008083540402835291602001916128cd565b820191906000526020600020905b8154815290600101906020018083116128b057829003601f168201915b505050505081526020016005820154815260200160068201805480602002602001604051908101604052809291908181526020016000905b828210156129b157838290600052602060002001805461292490614ce2565b80601f016020809104026020016040519081016040528092919081815260200182805461295090614ce2565b801561299d5780601f106129725761010080835404028352916020019161299d565b820191906000526020600020905b81548152906001019060200180831161298057829003601f168201915b505050505081526020019060010190612905565b50505050815260200160078201805480602002602001604051908101604052809291908181526020016000905b82821015612a8a5783829060005260206000200180546129fd90614ce2565b80601f0160208091040260200160405190810160405280929190818152602001828054612a2990614ce2565b8015612a765780601f10612a4b57610100808354040283529160200191612a76565b820191906000526020600020905b815481529060010190602001808311612a5957829003601f168201915b5050505050815260200190600101906129de565b505050508152505090508060000151816020015182604001518360c00151846060015185608001518660e001518760a001519850985098509850985098509850985050919395975091939597565b600082118015612aea57506008548211155b612b2b5760405162461bcd60e51b8152602060048201526012602482015271125b9d985b1a5908131a5cdd1a5b99c8125160721b60448201526064016110e6565b60008281526005602052604090206003810154600160a01b900460ff16612ba25760405162461bcd60e51b815260206004820152602560248201527f50726f64756374206973206e6f7420617661696c61626c6520666f7220707572604482015264636861736560d81b60648201526084016110e6565b600082118015612bb6575080600201548211155b612bf55760405162461bcd60e51b815260206004820152601060248201526f496e76616c6964207175616e7469747960801b60448201526064016110e6565b600581015460ff16612c5e5780600201548214612c5e5760405162461bcd60e51b815260206004820152602160248201527f4d7573742070757263686173652074686520656e74697265207175616e7469746044820152607960f81b60648201526084016110e6565b600081600201548260010154612c74919061504f565b90506000612c828483615063565b905080341015612ccb5760405162461bcd60e51b8152602060048201526014602482015273125b9cdd59999a58da595b9d081c185e5b595b9d60621b60448201526064016110e6565b60038301546040516001600160a01b039091169082156108fc029083906000818181858888f19350505050158015612d07573d6000803e3d6000fd5b5083836002016000828254612d1c9190614ff2565b90915550506002830154600003612d3d5760038301805460ff60a01b191690555b82546000908152600460205260409020600601612d5985613efe565b604051602001612d69919061507a565b60408051601f1981840301815291905281546001810183556000928352602090922090910190612d999082614dc9565b50604080518681523360208201529081018590524260608201527f7d3c39a6cce20f6949eff0833a4d54fca734dc7c6027773d8885e7faeac98a959060800160405180910390a182546040805191825260806020830181905260099083015268141d5c98da185cd95960ba1b60a083015233908201524260608201527f28222dbd9906bc73e71cbd7bd296a46d23de9224d425c30be175af99b4ab77419060c001611a62565b6000600286604051612e519190614d5e565b90815260200160405180910390206040518060c0016040529081600082018054612e7a90614ce2565b80601f0160208091040260200160405190810160405280929190818152602001828054612ea690614ce2565b8015612ef35780601f10612ec857610100808354040283529160200191612ef3565b820191906000526020600020905b815481529060010190602001808311612ed657829003601f168201915b50505050508152602001600182018054612f0c90614ce2565b80601f0160208091040260200160405190810160405280929190818152602001828054612f3890614ce2565b8015612f855780601f10612f5a57610100808354040283529160200191612f85565b820191906000526020600020905b815481529060010190602001808311612f6857829003601f168201915b50505050508152602001600282018054612f9e90614ce2565b80601f0160208091040260200160405190810160405280929190818152602001828054612fca90614ce2565b80156130175780601f10612fec57610100808354040283529160200191613017565b820191906000526020600020905b815481529060010190602001808311612ffa57829003601f168201915b5050505050815260200160038201805461303090614ce2565b80601f016020809104026020016040519081016040528092919081815260200182805461305c90614ce2565b80156130a95780601f1061307e576101008083540402835291602001916130a9565b820191906000526020600020905b81548152906001019060200180831161308c57829003601f168201915b505050505081526020016004820180546130c290614ce2565b80601f01602080910402602001604051908101604052809291908181526020018280546130ee90614ce2565b801561313b5780601f106131105761010080835404028352916020019161313b565b820191906000526020600020905b81548152906001019060200180831161311e57829003601f168201915b5050505050815260200160058201805480602002602001604051908101604052809291908181526020016000905b8282101561321557838290600052602060002001805461318890614ce2565b80601f01602080910402602001604051908101604052809291908181526020018280546131b490614ce2565b80156132015780601f106131d657610100808354040283529160200191613201565b820191906000526020600020905b8154815290600101906020018083116131e457829003601f168201915b505050505081526020019060010190613169565b5050509152505080515190915061326e5760405162461bcd60e51b815260206004820152601960248201527f46727569742074797065206e6f7420696e20636174616c6f670000000000000060448201526064016110e6565b600c8460405161327e9190614d5e565b9081526040519081900360200190205460ff166132d35760405162461bcd60e51b815260206004820152601360248201527211985c9b481b9bdd081c9959da5cdd195c9959606a1b60448201526064016110e6565b600082116133235760405162461bcd60e51b815260206004820152601f60248201527f5175616e74697479206d7573742062652067726561746572207468616e20300060448201526064016110e6565b6007805490600061333383614fd9565b9190505550604051806101000160405280878152602001868152602001336001600160a01b0316815260200142815260200184815260200183815260200160006001600160401b0381111561338a5761338a61436f565b6040519080825280602002602001820160405280156133bd57816020015b60608152602001906001900390816133a85790505b50815260200160006040519080825280602002602001820160405280156133f857816020015b60608152602001906001900390816133e35790505b50905260075460009081526004602052604090208151819061341a9082614dc9565b506020820151600182019061342f9082614dc9565b5060408201516002820180546001600160a01b0319166001600160a01b0390921691909117905560608201516003820155608082015160048201906134749082614dc9565b5060a0820151600582015560c0820151805161349a916006840191602090910190614059565b5060e082015180516134b6916007840191602090910190614059565b5090505060006003856040516134cc9190614d5e565b90815260405190819003602001902060058101549091506001600160a01b03166135105760075460068201805460018101825560009182526020909120015561354d565b6003856040516135209190614d5e565b90815260405160209181900382019020600754600690910180546001810182556000918252929020909101555b6007546000908152600460209081526040808320600601805460018101825590845292829020815180830190925260158252742430b93b32b9ba32b210313c90283937b23ab1b2b960591b928201929092529101906135ac9082614dc9565b50600754604080519182526080602083018190526009908301526812185c9d995cdd195960ba1b60a083015233908201524260608201527f28222dbd9906bc73e71cbd7bd296a46d23de9224d425c30be175af99b4ab77419060c001611ca9565b6000546001600160a01b031633146136375760405162461bcd60e51b81526004016110e690614d1c565b6001600160a01b03166000908152600160205260409020805460ff19169055565b805160208183018101805160038252928201919093012091528054819061367e90614ce2565b80601f01602080910402602001604051908101604052809291908181526020018280546136aa90614ce2565b80156136f75780601f106136cc576101008083540402835291602001916136f7565b820191906000526020600020905b8154815290600101906020018083116136da57829003601f168201915b50505050509080600101805461370c90614ce2565b80601f016020809104026020016040519081016040528092919081815260200182805461373890614ce2565b80156137855780601f1061375a57610100808354040283529160200191613785565b820191906000526020600020905b81548152906001019060200180831161376857829003601f168201915b50505050509080600201805461379a90614ce2565b80601f01602080910402602001604051908101604052809291908181526020018280546137c690614ce2565b80156138135780601f106137e857610100808354040283529160200191613813565b820191906000526020600020905b8154815290600101906020018083116137f657829003601f168201915b50505050509080600301549080600401805461382e90614ce2565b80601f016020809104026020016040519081016040528092919081815260200182805461385a90614ce2565b80156138a75780601f1061387c576101008083540402835291602001916138a7565b820191906000526020600020905b81548152906001019060200180831161388a57829003601f168201915b505050600590930154919250506001600160a01b031686565b6000821180156138d257506007548211155b6138ee5760405162461bcd60e51b81526004016110e690614f70565b6000828152600460209081526040822060060180546001810182559083529120016139198282614dc9565b507f28222dbd9906bc73e71cbd7bd296a46d23de9224d425c30be175af99b4ab7741828233426040516115cb94939291906150c8565b60046020526000908152604090208054819061396a90614ce2565b80601f016020809104026020016040519081016040528092919081815260200182805461399690614ce2565b80156139e35780601f106139b8576101008083540402835291602001916139e3565b820191906000526020600020905b8154815290600101906020018083116139c657829003601f168201915b5050505050908060010180546139f890614ce2565b80601f0160208091040260200160405190810160405280929190818152602001828054613a2490614ce2565b8015613a715780601f10613a4657610100808354040283529160200191613a71565b820191906000526020600020905b815481529060010190602001808311613a5457829003601f168201915b505050506002830154600384015460048501805494956001600160a01b039093169491935090613aa090614ce2565b80601f0160208091040260200160405190810160405280929190818152602001828054613acc90614ce2565b8015613b195780601f10613aee57610100808354040283529160200191613b19565b820191906000526020600020905b815481529060010190602001808311613afc57829003601f168201915b5050505050908060050154905086565b8051602081830181018051600282529282019190930120915280548190613b4f90614ce2565b80601f0160208091040260200160405190810160405280929190818152602001828054613b7b90614ce2565b8015613bc85780601f10613b9d57610100808354040283529160200191613bc8565b820191906000526020600020905b815481529060010190602001808311613bab57829003601f168201915b505050505090806001018054613bdd90614ce2565b80601f0160208091040260200160405190810160405280929190818152602001828054613c0990614ce2565b8015613c565780601f10613c2b57610100808354040283529160200191613c56565b820191906000526020600020905b815481529060010190602001808311613c3957829003601f168201915b505050505090806002018054613c6b90614ce2565b80601f0160208091040260200160405190810160405280929190818152602001828054613c9790614ce2565b8015613ce45780601f10613cb957610100808354040283529160200191613ce4565b820191906000526020600020905b815481529060010190602001808311613cc757829003601f168201915b505050505090806003018054613cf990614ce2565b80601f0160208091040260200160405190810160405280929190818152602001828054613d2590614ce2565b8015613d725780601f10613d4757610100808354040283529160200191613d72565b820191906000526020600020905b815481529060010190602001808311613d5557829003601f168201915b505050505090806004018054613d8790614ce2565b80601f0160208091040260200160405190810160405280929190818152602001828054613db390614ce2565b8015613e005780601f10613dd557610100808354040283529160200191613e00565b820191906000526020600020905b815481529060010190602001808311613de357829003601f168201915b5050505050905085565b8051602081830181018051600d82529282019190930120915280546111a890614ce2565b6060600a805480602002602001604051908101604052809291908181526020016000905b82821015611053578382906000526020600020018054613e7190614ce2565b80601f0160208091040260200160405190810160405280929190818152602001828054613e9d90614ce2565b8015613eea5780601f10613ebf57610100808354040283529160200191613eea565b820191906000526020600020905b815481529060010190602001808311613ecd57829003601f168201915b505050505081526020019060010190613e52565b606081600003613f255750506040805180820190915260018152600360fc1b602082015290565b8160005b8115613f4f5780613f3981614fd9565b9150613f489050600a8361504f565b9150613f29565b6000816001600160401b03811115613f6957613f6961436f565b6040519080825280601f01601f191660200182016040528015613f93576020820181803683370190505b509050815b851561400557613fa9600182614ff2565b90506000613fb8600a886150fd565b613fc3906030615111565b90508060f81b838381518110613fdb57613fdb614e87565b60200101906001600160f81b031916908160001a905350613ffd600a8861504f565b965050613f98565b50949350505050565b828054828255906000526020600020908101928215614049579160200282015b8281111561404957825182559160200191906001019061402e565b506140559291506140ab565b5090565b82805482825590600052602060002090810192821561409f579160200282015b8281111561409f578251829061408f9082614dc9565b5091602001919060010190614079565b506140559291506140c0565b5b8082111561405557600081556001016140ac565b808211156140555760006140d482826140dd565b506001016140c0565b5080546140e990614ce2565b6000825580601f106140f9575050565b601f01602090049060005260206000209081019061411791906140ab565b50565b60005b8381101561413557818101518382015260200161411d565b50506000910152565b6000815180845261415681602086016020860161411a565b601f01601f19169290920160200192915050565b600082825180855260208501945060208160051b8301016020850160005b838110156141ba57601f198584030188526141a483835161413e565b6020988901989093509190910190600101614188565b50909695505050505050565b6020815260006141d9602083018461416a565b9392505050565b60405162461bcd60e51b815260206004820152602260248201527f414249206465636f64696e673a207475706c65206461746120746f6f2073686f6044820152611c9d60f21b6064820152608481fd5b60405162461bcd60e51b815260206004820152602260248201527f414249206465636f64696e673a20696e76616c6964207475706c65206f666673604482015261195d60f21b6064820152608481fd5b80356001600160a01b038116811461429757600080fd5b919050565b600080604083850312156142b2576142b26141e0565b6142bb83614280565b946020939093013593505050565b6000602082840312156142de576142de6141e0565b6141d982614280565b6000602082840312156142fc576142fc6141e0565b5035919050565b6020815260006141d9602083018461413e565b60405162461bcd60e51b815260206004820152602b60248201527f414249206465636f64696e673a20696e76616c69642063616c6c64617461206160448201526a1c9c985e481bd9999cd95d60aa1b6064820152608481fd5b634e487b7160e01b600052604160045260246000fd5b604051601f8201601f191681016001600160401b03811182821017156143ad576143ad61436f565b604052919050565b600082601f8301126143c9576143c9614316565b81356001600160401b038111156143e2576143e261436f565b6143f5601f8201601f1916602001614385565b81815284602083860101111561445a5760405162461bcd60e51b815260206004820152602760248201527f414249206465636f64696e673a20696e76616c69642062797465206172726179604482015266040d8cadccee8d60cb1b6064820152608481fd5b816020850160208301376000918101602001919091529392505050565b60006020828403121561448c5761448c6141e0565b81356001600160401b038111156144a5576144a5614230565b6144b1848285016143b5565b949350505050565b600080600080600060a086880312156144d4576144d46141e0565b85356001600160401b038111156144ed576144ed614230565b6144f9888289016143b5565b95505060208601356001600160401b0381111561451857614518614230565b614524888289016143b5565b94505060408601356001600160401b0381111561454357614543614230565b61454f888289016143b5565b93505060608601356001600160401b0381111561456e5761456e614230565b61457a888289016143b5565b92505060808601356001600160401b0381111561459957614599614230565b6145a5888289016143b5565b9150509295509295909350565b600080604083850312156145c8576145c86141e0565b82356001600160401b038111156145e1576145e1614230565b6145ed858286016143b5565b92505060208301356001600160401b0381111561460c5761460c614230565b614618858286016143b5565b9150509250929050565b60008060408385031215614638576146386141e0565b8235915060208301356001600160401b0381111561460c5761460c614230565b60008060008060808587031215614671576146716141e0565b8435935060208501359250604085013591506060850135801515811461469657600080fd5b939692955090935050565b600082601f8301126146b5576146b5614316565b81356001600160401b038111156146ce576146ce61436f565b8060051b6146de60208201614385565b918252602081850181019290810190868411156147505760405162461bcd60e51b815260206004820152602b60248201527f414249206465636f64696e673a20696e76616c69642063616c6c64617461206160448201526a727261792073747269646560a81b60648201529250608483fd5b6020860192505b838310156147995782356001600160401b0381111561477857614778614316565b614787886020838a01016143b5565b83525060209283019290910190614757565b9695505050505050565b60008060008060008060c087890312156147bf576147bf6141e0565b86356001600160401b038111156147d8576147d8614230565b6147e489828a016143b5565b96505060208701356001600160401b0381111561480357614803614230565b61480f89828a016143b5565b95505060408701356001600160401b0381111561482e5761482e614230565b61483a89828a016143b5565b94505060608701356001600160401b0381111561485957614859614230565b61486589828a016143b5565b93505060808701356001600160401b0381111561488457614884614230565b61489089828a016143b5565b92505060a08701356001600160401b038111156148af576148af614230565b6148bb89828a016146a1565b9150509295509295509295565b60c0815260006148db60c083018961413e565b82810360208401526148ed818961413e565b90508281036040840152614901818861413e565b90508281036060840152614915818761413e565b90508281036080840152614929818661413e565b905082810360a084015261493d818561416a565b9998505050505050505050565b600081518084526020840193506020830160005b8281101561497c57815186526020958601959091019060010161495e565b5093949350505050565b6020815260006141d9602083018461494a565b60e0815260006149ac60e083018a61413e565b82810360208401526149be818a61413e565b905082810360408401526149d2818961413e565b905086606084015282810360808401526149ec818761413e565b6001600160a01b03861660a085015283810360c08501529050614a0f818561494a565b9a9950505050505050505050565b61010081526000614a3261010083018b61413e565b8281036020840152614a44818b61413e565b6001600160a01b038a16604085015283810360608501529050614a67818961416a565b905086608084015282810360a0840152614a81818761413e565b905082810360c0840152614a95818661416a565b9150508260e08301529998505050505050505050565b60008060408385031215614ac157614ac16141e0565b50508035926020909101359150565b600080600080600060a08688031215614aeb57614aeb6141e0565b85356001600160401b03811115614b0457614b04614230565b614b10888289016143b5565b95505060208601356001600160401b03811115614b2f57614b2f614230565b614b3b888289016143b5565b94505060408601356001600160401b03811115614b5a57614b5a614230565b614b66888289016143b5565b93505060608601356001600160401b03811115614b8557614b85614230565b614b91888289016143b5565b95989497509295608001359392505050565b60c081526000614bb660c083018961413e565b8281036020840152614bc8818961413e565b90508281036040840152614bdc818861413e565b90508560608401528281036080840152614bf6818661413e565b91505060018060a01b03831660a0830152979650505050505050565b60c081526000614c2560c083018961413e565b8281036020840152614c37818961413e565b6001600160a01b03881660408501526060840187905283810360808501529050614c61818661413e565b9150508260a0830152979650505050505050565b60a081526000614c8860a083018861413e565b8281036020840152614c9a818861413e565b90508281036040840152614cae818761413e565b90508281036060840152614cc2818661413e565b90508281036080840152614cd6818561413e565b98975050505050505050565b600181811c90821680614cf657607f821691505b602082108103614d1657634e487b7160e01b600052602260045260246000fd5b50919050565b60208082526022908201527f4f6e6c79206f776e65722063616e20706572666f726d2074686973206163746960408201526137b760f11b606082015260800190565b60008251614d7081846020870161411a565b9190910192915050565b601f821115614dc457806000526020600020601f840160051c81016020851015614da15750805b601f840160051c820191505b81811015614dc15760008155600101614dad565b50505b505050565b81516001600160401b03811115614de257614de261436f565b614df681614df08454614ce2565b84614d7a565b6020601f821160018114614e2a5760008315614e125750848201515b600019600385901b1c1916600184901b178455614dc1565b600084815260208120601f198516915b82811015614e5a5787850151825560209485019460019092019101614e3a565b5084821015614e785786840151600019600387901b60f8161c191681555b50505050600190811b01905550565b634e487b7160e01b600052603260045260246000fd5b6000808354614eab81614ce2565b600182168015614ec25760018114614ed757614f07565b60ff1983168652811515820286019350614f07565b86600052602060002060005b83811015614eff57815488820152600190910190602001614ee3565b505081860193505b509195945050505050565b606081526000614f25606083018661413e565b8281036020840152614f37818661413e565b915050826040830152949350505050565b6020808252600e908201526d139bdd08185d5d1a1bdc9a5e995960921b604082015260600190565b60208082526010908201526f125b9d985b1a5908119c9d5a5d08125160821b604082015260600190565b838152606060208201526000614fb3606083018561413e565b9050826040830152949350505050565b634e487b7160e01b600052601160045260246000fd5b600060018201614feb57614feb614fc3565b5060010190565b8181038181111561500557615005614fc3565b92915050565b60608152600061501e606083018661413e565b6001600160a01b039490941660208301525060400152919050565b634e487b7160e01b600052601260045260246000fd5b60008261505e5761505e615039565b500490565b808202811582820484141761500557615005614fc3565b690283ab931b430b9b2b2160b51b81526000825161509f81600a85016020870161411a565b71103ab734ba3990313c9021bab9ba37b6b2b960711b600a939091019283015250601c01919050565b8481526080602082015260006150e1608083018661413e565b6001600160a01b03949094166040830152506060015292915050565b60008261510c5761510c615039565b500690565b8082018082111561500557615005614fc356fe45746865722073656e7420746f206e6f6e2d70617961626c652066756e637469a26469706673582212209ff730dacb129f816ccf0b87be31720a5319b55309731257bc151575639887d164736f6c634300081c0033","opcodes":"PUSH1 0x80 PUSH1 0x40 MSTORE CALLVALUE DUP1 ISZERO PUSH1 0x5C JUMPI PUSH1 0x40 MLOAD PUSH3 0x461BCD PUSH1 0xE5 SHL DUP2 MSTORE PUSH1 0x20 PUSH1 0x4 DUP3 ADD MSTORE PUSH1 0x22 PUSH1 0x24 DUP3 ADD MSTORE PUSH32 0x45746865722073656E7420746F206E6F6E2D70617961626C652066756E637469 PUSH1 0x44 DUP3 ADD SWAP1 DUP2 MSTORE PUSH2 0x37B7 PUSH1 0xF1 SHL PUSH1 0x64 DUP4 ADD MSTORE PUSH1 0x84 DUP3 REVERT JUMPDEST POP PUSH1 0x0 DUP1 SLOAD PUSH1 0x1 PUSH1 0x1 PUSH1 0xA0 SHL SUB NOT AND CALLER SWAP1 DUP2 OR DUP3 SSTORE DUP2 MSTORE PUSH1 0x1 PUSH1 0x20 DUP2 SWAP1 MSTORE PUSH1 0x40 SWAP1 SWAP2 KECCAK256 DUP1 SLOAD PUSH1 0xFF NOT AND SWAP1 SWAP2 OR SWAP1 SSTORE PUSH2 0x517A DUP1 PUSH2 0x99 PUSH1 0x0 CODECOPY PUSH1 0x0 RETURN INVALID PUSH1 0x80 PUSH1 0x40 MSTORE PUSH1 0x4 CALLDATASIZE LT PUSH2 0x1F9 JUMPI PUSH1 0x0 CALLDATALOAD PUSH1 0xE0 SHR DUP1 PUSH4 0x6A03089D GT PUSH2 0x10D JUMPI DUP1 PUSH4 0xAC18DE43 GT PUSH2 0xA0 JUMPI DUP1 PUSH4 0xC71B89B5 GT PUSH2 0x6F JUMPI DUP1 PUSH4 0xC71B89B5 EQ PUSH2 0xD76 JUMPI DUP1 PUSH4 0xCEADCA13 EQ PUSH2 0xDE2 JUMPI DUP1 PUSH4 0xD8AB96BC EQ PUSH2 0xE87 JUMPI DUP1 PUSH4 0xF493008D EQ PUSH2 0xEE2 JUMPI DUP1 PUSH4 0xF9559774 EQ PUSH2 0xF33 JUMPI PUSH2 0x1F9 JUMP JUMPDEST DUP1 PUSH4 0xAC18DE43 EQ PUSH2 0xBE6 JUMPI DUP1 PUSH4 0xAC9F1276 EQ PUSH2 0xC41 JUMPI DUP1 PUSH4 0xBC5E8CD7 EQ PUSH2 0xCAE JUMPI DUP1 PUSH4 0xC4172162 EQ PUSH2 0xD09 JUMPI PUSH2 0x1F9 JUMP JUMPDEST DUP1 PUSH4 0x8DA5CB5B GT PUSH2 0xDC JUMPI DUP1 PUSH4 0x8DA5CB5B EQ PUSH2 0xAB4 JUMPI DUP1 PUSH4 0xA0440426 EQ PUSH2 0xB27 JUMPI DUP1 PUSH4 0xA673E064 EQ PUSH2 0xB3A JUMPI DUP1 PUSH4 0xA9B07C26 EQ PUSH2 0xB95 JUMPI PUSH2 0x1F9 JUMP JUMPDEST DUP1 PUSH4 0x6A03089D EQ PUSH2 0x92C JUMPI DUP1 PUSH4 0x6BF62CF8 EQ PUSH2 0x987 JUMPI DUP1 PUSH4 0x701E5084 EQ PUSH2 0x9F5 JUMPI DUP1 PUSH4 0x76CE7FE9 EQ PUSH2 0xA45 JUMPI PUSH2 0x1F9 JUMP JUMPDEST DUP1 PUSH4 0x42C7F63F GT PUSH2 0x190 JUMPI DUP1 PUSH4 0x52BEA360 GT PUSH2 0x15F JUMPI DUP1 PUSH4 0x52BEA360 EQ PUSH2 0x746 JUMPI DUP1 PUSH4 0x569DE6FD EQ PUSH2 0x7A1 JUMPI DUP1 PUSH4 0x58CF8F51 EQ PUSH2 0x7FC JUMPI DUP1 PUSH4 0x58EED174 EQ PUSH2 0x869 JUMPI DUP1 PUSH4 0x5F42DA09 EQ PUSH2 0x8C4 JUMPI PUSH2 0x1F9 JUMP JUMPDEST DUP1 PUSH4 0x42C7F63F EQ PUSH2 0x5DA JUMPI DUP1 PUSH4 0x43622B81 EQ PUSH2 0x635 JUMPI DUP1 PUSH4 0x5154DA5A EQ PUSH2 0x690 JUMPI DUP1 PUSH4 0x51EDFD7D EQ PUSH2 0x6EB JUMPI PUSH2 0x1F9 JUMP JUMPDEST DUP1 PUSH4 0x1FC15E93 GT PUSH2 0x1CC JUMPI DUP1 PUSH4 0x1FC15E93 EQ PUSH2 0x444 JUMPI DUP1 PUSH4 0x2D06177A EQ PUSH2 0x4AC JUMPI DUP1 PUSH4 0x3C2119A7 EQ PUSH2 0x509 JUMPI DUP1 PUSH4 0x3F50E5AF EQ PUSH2 0x57F JUMPI PUSH2 0x1F9 JUMP JUMPDEST DUP1 PUSH4 0x46C6712 EQ PUSH2 0x25E JUMPI DUP1 PUSH4 0x54564F0 EQ PUSH2 0x2C4 JUMPI DUP1 PUSH4 0xA3CB21B EQ PUSH2 0x32D JUMPI DUP1 PUSH4 0x1B4DBA9B EQ PUSH2 0x3A8 JUMPI JUMPDEST PUSH1 0x40 MLOAD PUSH3 0x461BCD PUSH1 0xE5 SHL DUP2 MSTORE PUSH1 0x20 PUSH1 0x4 DUP3 ADD MSTORE PUSH1 0x35 PUSH1 0x24 DUP3 ADD MSTORE PUSH32 0x436F6E747261637420646F6573206E6F7420686176652066616C6C6261636B20 PUSH1 0x44 DUP3 ADD SWAP1 DUP2 MSTORE PUSH21 0x6E6F7220726563656976652066756E6374696F6E73 PUSH1 0x58 SHL PUSH1 0x64 DUP4 ADD MSTORE PUSH1 0x84 DUP3 REVERT JUMPDEST CALLVALUE DUP1 ISZERO PUSH2 0x2A5 JUMPI PUSH1 0x40 MLOAD PUSH3 0x461BCD PUSH1 0xE5 SHL DUP2 MSTORE PUSH1 0x20 PUSH1 0x4 DUP3 ADD MSTORE PUSH1 0x22 PUSH1 0x24 DUP3 ADD MSTORE PUSH1 0x0 DUP1 MLOAD PUSH1 0x20 PUSH2 0x5125 DUP4 CODECOPY DUP2 MLOAD SWAP2 MSTORE PUSH1 0x44 DUP3 ADD SWAP1 DUP2 MSTORE PUSH2 0x37B7 PUSH1 0xF1 SHL PUSH1 0x64 DUP4 ADD MSTORE PUSH1 0x84 DUP3 REVERT JUMPDEST POP PUSH2 0x2AE PUSH2 0xF83 JUMP JUMPDEST PUSH1 0x40 MLOAD PUSH2 0x2BB SWAP2 SWAP1 PUSH2 0x41C6 JUMP JUMPDEST PUSH1 0x40 MLOAD DUP1 SWAP2 SUB SWAP1 RETURN JUMPDEST CALLVALUE DUP1 ISZERO PUSH2 0x30B JUMPI PUSH1 0x40 MLOAD PUSH3 0x461BCD PUSH1 0xE5 SHL DUP2 MSTORE PUSH1 0x20 PUSH1 0x4 DUP3 ADD MSTORE PUSH1 0x22 PUSH1 0x24 DUP3 ADD MSTORE PUSH1 0x0 DUP1 MLOAD PUSH1 0x20 PUSH2 0x5125 DUP4 CODECOPY DUP2 MLOAD SWAP2 MSTORE PUSH1 0x44 DUP3 ADD SWAP1 DUP2 MSTORE PUSH2 0x37B7 PUSH1 0xF1 SHL PUSH1 0x64 DUP4 ADD MSTORE PUSH1 0x84 DUP3 REVERT JUMPDEST POP PUSH2 0x31F PUSH2 0x31A CALLDATASIZE PUSH1 0x4 PUSH2 0x429C JUMP JUMPDEST PUSH2 0x105C JUMP JUMPDEST PUSH1 0x40 MLOAD SWAP1 DUP2 MSTORE PUSH1 0x20 ADD PUSH2 0x2BB JUMP JUMPDEST CALLVALUE DUP1 ISZERO PUSH2 0x374 JUMPI PUSH1 0x40 MLOAD PUSH3 0x461BCD PUSH1 0xE5 SHL DUP2 MSTORE PUSH1 0x20 PUSH1 0x4 DUP3 ADD MSTORE PUSH1 0x22 PUSH1 0x24 DUP3 ADD MSTORE PUSH1 0x0 DUP1 MLOAD PUSH1 0x20 PUSH2 0x5125 DUP4 CODECOPY DUP2 MLOAD SWAP2 MSTORE PUSH1 0x44 DUP3 ADD SWAP1 DUP2 MSTORE PUSH2 0x37B7 PUSH1 0xF1 SHL PUSH1 0x64 DUP4 ADD MSTORE PUSH1 0x84 DUP3 REVERT JUMPDEST POP PUSH2 0x398 PUSH2 0x383 CALLDATASIZE PUSH1 0x4 PUSH2 0x42C9 JUMP JUMPDEST PUSH1 0x1 PUSH1 0x20 MSTORE PUSH1 0x0 SWAP1 DUP2 MSTORE PUSH1 0x40 SWAP1 KECCAK256 SLOAD PUSH1 0xFF AND DUP2 JUMP JUMPDEST PUSH1 0x40 MLOAD SWAP1 ISZERO ISZERO DUP2 MSTORE PUSH1 0x20 ADD PUSH2 0x2BB JUMP JUMPDEST CALLVALUE DUP1 ISZERO PUSH2 0x3EF JUMPI PUSH1 0x40 MLOAD PUSH3 0x461BCD PUSH1 0xE5 SHL DUP2 MSTORE PUSH1 0x20 PUSH1 0x4 DUP3 ADD MSTORE PUSH1 0x22 PUSH1 0x24 DUP3 ADD MSTORE PUSH1 0x0 DUP1 MLOAD PUSH1 0x20 PUSH2 0x5125 DUP4 CODECOPY DUP2 MLOAD SWAP2 MSTORE PUSH1 0x44 DUP3 ADD SWAP1 DUP2 MSTORE PUSH2 0x37B7 PUSH1 0xF1 SHL PUSH1 0x64 DUP4 ADD MSTORE PUSH1 0x84 DUP3 REVERT JUMPDEST POP PUSH2 0x403 PUSH2 0x3FE CALLDATASIZE PUSH1 0x4 PUSH2 0x42E7 JUMP JUMPDEST PUSH2 0x108D JUMP JUMPDEST PUSH1 0x40 DUP1 MLOAD SWAP8 DUP9 MSTORE PUSH1 0x20 DUP9 ADD SWAP7 SWAP1 SWAP7 MSTORE SWAP5 DUP7 ADD SWAP4 SWAP1 SWAP4 MSTORE PUSH1 0x1 PUSH1 0x1 PUSH1 0xA0 SHL SUB SWAP1 SWAP2 AND PUSH1 0x60 DUP6 ADD MSTORE ISZERO ISZERO PUSH1 0x80 DUP5 ADD MSTORE PUSH1 0xA0 DUP4 ADD MSTORE ISZERO ISZERO PUSH1 0xC0 DUP3 ADD MSTORE PUSH1 0xE0 ADD PUSH2 0x2BB JUMP JUMPDEST CALLVALUE DUP1 ISZERO PUSH2 0x48B JUMPI PUSH1 0x40 MLOAD PUSH3 0x461BCD PUSH1 0xE5 SHL DUP2 MSTORE PUSH1 0x20 PUSH1 0x4 DUP3 ADD MSTORE PUSH1 0x22 PUSH1 0x24 DUP3 ADD MSTORE PUSH1 0x0 DUP1 MLOAD PUSH1 0x20 PUSH2 0x5125 DUP4 CODECOPY DUP2 MLOAD SWAP2 MSTORE PUSH1 0x44 DUP3 ADD SWAP1 DUP2 MSTORE PUSH2 0x37B7 PUSH1 0xF1 SHL PUSH1 0x64 DUP4 ADD MSTORE PUSH1 0x84 DUP3 REVERT JUMPDEST POP PUSH2 0x49F PUSH2 0x49A CALLDATASIZE PUSH1 0x4 PUSH2 0x42E7 JUMP JUMPDEST PUSH2 0x117D JUMP JUMPDEST PUSH1 0x40 MLOAD PUSH2 0x2BB SWAP2 SWAP1 PUSH2 0x4303 JUMP JUMPDEST CALLVALUE DUP1 ISZERO PUSH2 0x4F3 JUMPI PUSH1 0x40 MLOAD PUSH3 0x461BCD PUSH1 0xE5 SHL DUP2 MSTORE PUSH1 0x20 PUSH1 0x4 DUP3 ADD MSTORE PUSH1 0x22 PUSH1 0x24 DUP3 ADD MSTORE PUSH1 0x0 DUP1 MLOAD PUSH1 0x20 PUSH2 0x5125 DUP4 CODECOPY DUP2 MLOAD SWAP2 MSTORE PUSH1 0x44 DUP3 ADD SWAP1 DUP2 MSTORE PUSH2 0x37B7 PUSH1 0xF1 SHL PUSH1 0x64 DUP4 ADD MSTORE PUSH1 0x84 DUP3 REVERT JUMPDEST POP PUSH2 0x507 PUSH2 0x502 CALLDATASIZE PUSH1 0x4 PUSH2 0x42C9 JUMP JUMPDEST PUSH2 0x1229 JUMP JUMPDEST STOP JUMPDEST CALLVALUE DUP1 ISZERO PUSH2 0x550 JUMPI PUSH1 0x40 MLOAD PUSH3 0x461BCD PUSH1 0xE5 SHL DUP2 MSTORE PUSH1 0x20 PUSH1 0x4 DUP3 ADD MSTORE PUSH1 0x22 PUSH1 0x24 DUP3 ADD MSTORE PUSH1 0x0 DUP1 MLOAD PUSH1 0x20 PUSH2 0x5125 DUP4 CODECOPY DUP2 MLOAD SWAP2 MSTORE PUSH1 0x44 DUP3 ADD SWAP1 DUP2 MSTORE PUSH2 0x37B7 PUSH1 0xF1 SHL PUSH1 0x64 DUP4 ADD MSTORE PUSH1 0x84 DUP3 REVERT JUMPDEST POP PUSH2 0x398 PUSH2 0x55F CALLDATASIZE PUSH1 0x4 PUSH2 0x4477 JUMP JUMPDEST DUP1 MLOAD PUSH1 0x20 DUP2 DUP4 ADD DUP2 ADD DUP1 MLOAD PUSH1 0xC DUP3 MSTORE SWAP3 DUP3 ADD SWAP2 SWAP1 SWAP4 ADD KECCAK256 SWAP2 MSTORE SLOAD PUSH1 0xFF AND DUP2 JUMP JUMPDEST CALLVALUE DUP1 ISZERO PUSH2 0x5C6 JUMPI PUSH1 0x40 MLOAD PUSH3 0x461BCD PUSH1 0xE5 SHL DUP2 MSTORE PUSH1 0x20 PUSH1 0x4 DUP3 ADD MSTORE PUSH1 0x22 PUSH1 0x24 DUP3 ADD MSTORE PUSH1 0x0 DUP1 MLOAD PUSH1 0x20 PUSH2 0x5125 DUP4 CODECOPY DUP2 MLOAD SWAP2 MSTORE PUSH1 0x44 DUP3 ADD SWAP1 DUP2 MSTORE PUSH2 0x37B7 PUSH1 0xF1 SHL PUSH1 0x64 DUP4 ADD MSTORE PUSH1 0x84 DUP3 REVERT JUMPDEST POP PUSH2 0x507 PUSH2 0x5D5 CALLDATASIZE PUSH1 0x4 PUSH2 0x44B9 JUMP JUMPDEST PUSH2 0x127A JUMP JUMPDEST CALLVALUE DUP1 ISZERO PUSH2 0x621 JUMPI PUSH1 0x40 MLOAD PUSH3 0x461BCD PUSH1 0xE5 SHL DUP2 MSTORE PUSH1 0x20 PUSH1 0x4 DUP3 ADD MSTORE PUSH1 0x22 PUSH1 0x24 DUP3 ADD MSTORE PUSH1 0x0 DUP1 MLOAD PUSH1 0x20 PUSH2 0x5125 DUP4 CODECOPY DUP2 MLOAD SWAP2 MSTORE PUSH1 0x44 DUP3 ADD SWAP1 DUP2 MSTORE PUSH2 0x37B7 PUSH1 0xF1 SHL PUSH1 0x64 DUP4 ADD MSTORE PUSH1 0x84 DUP3 REVERT JUMPDEST POP PUSH2 0x507 PUSH2 0x630 CALLDATASIZE PUSH1 0x4 PUSH2 0x45B2 JUMP JUMPDEST PUSH2 0x156C JUMP JUMPDEST CALLVALUE DUP1 ISZERO PUSH2 0x67C JUMPI PUSH1 0x40 MLOAD PUSH3 0x461BCD PUSH1 0xE5 SHL DUP2 MSTORE PUSH1 0x20 PUSH1 0x4 DUP3 ADD MSTORE PUSH1 0x22 PUSH1 0x24 DUP3 ADD MSTORE PUSH1 0x0 DUP1 MLOAD PUSH1 0x20 PUSH2 0x5125 DUP4 CODECOPY DUP2 MLOAD SWAP2 MSTORE PUSH1 0x44 DUP3 ADD SWAP1 DUP2 MSTORE PUSH2 0x37B7 PUSH1 0xF1 SHL PUSH1 0x64 DUP4 ADD MSTORE PUSH1 0x84 DUP3 REVERT JUMPDEST POP PUSH2 0x507 PUSH2 0x68B CALLDATASIZE PUSH1 0x4 PUSH2 0x45B2 JUMP JUMPDEST PUSH2 0x15D7 JUMP JUMPDEST CALLVALUE DUP1 ISZERO PUSH2 0x6D7 JUMPI PUSH1 0x40 MLOAD PUSH3 0x461BCD PUSH1 0xE5 SHL DUP2 MSTORE PUSH1 0x20 PUSH1 0x4 DUP3 ADD MSTORE PUSH1 0x22 PUSH1 0x24 DUP3 ADD MSTORE PUSH1 0x0 DUP1 MLOAD PUSH1 0x20 PUSH2 0x5125 DUP4 CODECOPY DUP2 MLOAD SWAP2 MSTORE PUSH1 0x44 DUP3 ADD SWAP1 DUP2 MSTORE PUSH2 0x37B7 PUSH1 0xF1 SHL PUSH1 0x64 DUP4 ADD MSTORE PUSH1 0x84 DUP3 REVERT JUMPDEST POP PUSH2 0x507 PUSH2 0x6E6 CALLDATASIZE PUSH1 0x4 PUSH2 0x4622 JUMP JUMPDEST PUSH2 0x1697 JUMP JUMPDEST CALLVALUE DUP1 ISZERO PUSH2 0x732 JUMPI PUSH1 0x40 MLOAD PUSH3 0x461BCD PUSH1 0xE5 SHL DUP2 MSTORE PUSH1 0x20 PUSH1 0x4 DUP3 ADD MSTORE PUSH1 0x22 PUSH1 0x24 DUP3 ADD MSTORE PUSH1 0x0 DUP1 MLOAD PUSH1 0x20 PUSH2 0x5125 DUP4 CODECOPY DUP2 MLOAD SWAP2 MSTORE PUSH1 0x44 DUP3 ADD SWAP1 DUP2 MSTORE PUSH2 0x37B7 PUSH1 0xF1 SHL PUSH1 0x64 DUP4 ADD MSTORE PUSH1 0x84 DUP3 REVERT JUMPDEST POP PUSH2 0x507 PUSH2 0x741 CALLDATASIZE PUSH1 0x4 PUSH2 0x4658 JUMP JUMPDEST PUSH2 0x1768 JUMP JUMPDEST CALLVALUE DUP1 ISZERO PUSH2 0x78D JUMPI PUSH1 0x40 MLOAD PUSH3 0x461BCD PUSH1 0xE5 SHL DUP2 MSTORE PUSH1 0x20 PUSH1 0x4 DUP3 ADD MSTORE PUSH1 0x22 PUSH1 0x24 DUP3 ADD MSTORE PUSH1 0x0 DUP1 MLOAD PUSH1 0x20 PUSH2 0x5125 DUP4 CODECOPY DUP2 MLOAD SWAP2 MSTORE PUSH1 0x44 DUP3 ADD SWAP1 DUP2 MSTORE PUSH2 0x37B7 PUSH1 0xF1 SHL PUSH1 0x64 DUP4 ADD MSTORE PUSH1 0x84 DUP3 REVERT JUMPDEST POP PUSH2 0x31F PUSH2 0x79C CALLDATASIZE PUSH1 0x4 PUSH2 0x42E7 JUMP JUMPDEST PUSH2 0x1A71 JUMP JUMPDEST CALLVALUE DUP1 ISZERO PUSH2 0x7E8 JUMPI PUSH1 0x40 MLOAD PUSH3 0x461BCD PUSH1 0xE5 SHL DUP2 MSTORE PUSH1 0x20 PUSH1 0x4 DUP3 ADD MSTORE PUSH1 0x22 PUSH1 0x24 DUP3 ADD MSTORE PUSH1 0x0 DUP1 MLOAD PUSH1 0x20 PUSH2 0x5125 DUP4 CODECOPY DUP2 MLOAD SWAP2 MSTORE PUSH1 0x44 DUP3 ADD SWAP1 DUP2 MSTORE PUSH2 0x37B7 PUSH1 0xF1 SHL PUSH1 0x64 DUP4 ADD MSTORE PUSH1 0x84 DUP3 REVERT JUMPDEST POP PUSH2 0x507 PUSH2 0x7F7 CALLDATASIZE PUSH1 0x4 PUSH2 0x47A3 JUMP JUMPDEST PUSH2 0x1A92 JUMP JUMPDEST CALLVALUE DUP1 ISZERO PUSH2 0x843 JUMPI PUSH1 0x40 MLOAD PUSH3 0x461BCD PUSH1 0xE5 SHL DUP2 MSTORE PUSH1 0x20 PUSH1 0x4 DUP3 ADD MSTORE PUSH1 0x22 PUSH1 0x24 DUP3 ADD MSTORE PUSH1 0x0 DUP1 MLOAD PUSH1 0x20 PUSH2 0x5125 DUP4 CODECOPY DUP2 MLOAD SWAP2 MSTORE PUSH1 0x44 DUP3 ADD SWAP1 DUP2 MSTORE PUSH2 0x37B7 PUSH1 0xF1 SHL PUSH1 0x64 DUP4 ADD MSTORE PUSH1 0x84 DUP3 REVERT JUMPDEST POP PUSH2 0x857 PUSH2 0x852 CALLDATASIZE PUSH1 0x4 PUSH2 0x4477 JUMP JUMPDEST PUSH2 0x1CBA JUMP JUMPDEST PUSH1 0x40 MLOAD PUSH2 0x2BB SWAP7 SWAP6 SWAP5 SWAP4 SWAP3 SWAP2 SWAP1 PUSH2 0x48C8 JUMP JUMPDEST CALLVALUE DUP1 ISZERO PUSH2 0x8B0 JUMPI PUSH1 0x40 MLOAD PUSH3 0x461BCD PUSH1 0xE5 SHL DUP2 MSTORE PUSH1 0x20 PUSH1 0x4 DUP3 ADD MSTORE PUSH1 0x22 PUSH1 0x24 DUP3 ADD MSTORE PUSH1 0x0 DUP1 MLOAD PUSH1 0x20 PUSH2 0x5125 DUP4 CODECOPY DUP2 MLOAD SWAP2 MSTORE PUSH1 0x44 DUP3 ADD SWAP1 DUP2 MSTORE PUSH2 0x37B7 PUSH1 0xF1 SHL PUSH1 0x64 DUP4 ADD MSTORE PUSH1 0x84 DUP3 REVERT JUMPDEST POP PUSH2 0x49F PUSH2 0x8BF CALLDATASIZE PUSH1 0x4 PUSH2 0x42E7 JUMP JUMPDEST PUSH2 0x20D1 JUMP JUMPDEST CALLVALUE DUP1 ISZERO PUSH2 0x90B JUMPI PUSH1 0x40 MLOAD PUSH3 0x461BCD PUSH1 0xE5 SHL DUP2 MSTORE PUSH1 0x20 PUSH1 0x4 DUP3 ADD MSTORE PUSH1 0x22 PUSH1 0x24 DUP3 ADD MSTORE PUSH1 0x0 DUP1 MLOAD PUSH1 0x20 PUSH2 0x5125 DUP4 CODECOPY DUP2 MLOAD SWAP2 MSTORE PUSH1 0x44 DUP3 ADD SWAP1 DUP2 MSTORE PUSH2 0x37B7 PUSH1 0xF1 SHL PUSH1 0x64 DUP4 ADD MSTORE PUSH1 0x84 DUP3 REVERT JUMPDEST POP PUSH2 0x91F PUSH2 0x91A CALLDATASIZE PUSH1 0x4 PUSH2 0x42C9 JUMP JUMPDEST PUSH2 0x20E1 JUMP JUMPDEST PUSH1 0x40 MLOAD PUSH2 0x2BB SWAP2 SWAP1 PUSH2 0x4986 JUMP JUMPDEST CALLVALUE DUP1 ISZERO PUSH2 0x973 JUMPI PUSH1 0x40 MLOAD PUSH3 0x461BCD PUSH1 0xE5 SHL DUP2 MSTORE PUSH1 0x20 PUSH1 0x4 DUP3 ADD MSTORE PUSH1 0x22 PUSH1 0x24 DUP3 ADD MSTORE PUSH1 0x0 DUP1 MLOAD PUSH1 0x20 PUSH2 0x5125 DUP4 CODECOPY DUP2 MLOAD SWAP2 MSTORE PUSH1 0x44 DUP3 ADD SWAP1 DUP2 MSTORE PUSH2 0x37B7 PUSH1 0xF1 SHL PUSH1 0x64 DUP4 ADD MSTORE PUSH1 0x84 DUP3 REVERT JUMPDEST POP PUSH2 0x49F PUSH2 0x982 CALLDATASIZE PUSH1 0x4 PUSH2 0x4477 JUMP JUMPDEST PUSH2 0x214D JUMP JUMPDEST CALLVALUE DUP1 ISZERO PUSH2 0x9CE JUMPI PUSH1 0x40 MLOAD PUSH3 0x461BCD PUSH1 0xE5 SHL DUP2 MSTORE PUSH1 0x20 PUSH1 0x4 DUP3 ADD MSTORE PUSH1 0x22 PUSH1 0x24 DUP3 ADD MSTORE PUSH1 0x0 DUP1 MLOAD PUSH1 0x20 PUSH2 0x5125 DUP4 CODECOPY DUP2 MLOAD SWAP2 MSTORE PUSH1 0x44 DUP3 ADD SWAP1 DUP2 MSTORE PUSH2 0x37B7 PUSH1 0xF1 SHL PUSH1 0x64 DUP4 ADD MSTORE PUSH1 0x84 DUP3 REVERT JUMPDEST POP PUSH2 0x9E2 PUSH2 0x9DD CALLDATASIZE PUSH1 0x4 PUSH2 0x4477 JUMP JUMPDEST PUSH2 0x21F3 JUMP JUMPDEST PUSH1 0x40 MLOAD PUSH2 0x2BB SWAP8 SWAP7 SWAP6 SWAP5 SWAP4 SWAP3 SWAP2 SWAP1 PUSH2 0x4999 JUMP JUMPDEST CALLVALUE DUP1 ISZERO PUSH2 0xA3C JUMPI PUSH1 0x40 MLOAD PUSH3 0x461BCD PUSH1 0xE5 SHL DUP2 MSTORE PUSH1 0x20 PUSH1 0x4 DUP3 ADD MSTORE PUSH1 0x22 PUSH1 0x24 DUP3 ADD MSTORE PUSH1 0x0 DUP1 MLOAD PUSH1 0x20 PUSH2 0x5125 DUP4 CODECOPY DUP2 MLOAD SWAP2 MSTORE PUSH1 0x44 DUP3 ADD SWAP1 DUP2 MSTORE PUSH2 0x37B7 PUSH1 0xF1 SHL PUSH1 0x64 DUP4 ADD MSTORE PUSH1 0x84 DUP3 REVERT JUMPDEST POP PUSH2 0x91F PUSH2 0x2524 JUMP JUMPDEST CALLVALUE DUP1 ISZERO PUSH2 0xA8C JUMPI PUSH1 0x40 MLOAD PUSH3 0x461BCD PUSH1 0xE5 SHL DUP2 MSTORE PUSH1 0x20 PUSH1 0x4 DUP3 ADD MSTORE PUSH1 0x22 PUSH1 0x24 DUP3 ADD MSTORE PUSH1 0x0 DUP1 MLOAD PUSH1 0x20 PUSH2 0x5125 DUP4 CODECOPY DUP2 MLOAD SWAP2 MSTORE PUSH1 0x44 DUP3 ADD SWAP1 DUP2 MSTORE PUSH2 0x37B7 PUSH1 0xF1 SHL PUSH1 0x64 DUP4 ADD MSTORE PUSH1 0x84 DUP3 REVERT JUMPDEST POP PUSH2 0xAA0 PUSH2 0xA9B CALLDATASIZE PUSH1 0x4 PUSH2 0x42E7 JUMP JUMPDEST PUSH2 0x26AC JUMP JUMPDEST PUSH1 0x40 MLOAD PUSH2 0x2BB SWAP9 SWAP8 SWAP7 SWAP6 SWAP5 SWAP4 SWAP3 SWAP2 SWAP1 PUSH2 0x4A1D JUMP JUMPDEST CALLVALUE DUP1 ISZERO PUSH2 0xAFB JUMPI PUSH1 0x40 MLOAD PUSH3 0x461BCD PUSH1 0xE5 SHL DUP2 MSTORE PUSH1 0x20 PUSH1 0x4 DUP3 ADD MSTORE PUSH1 0x22 PUSH1 0x24 DUP3 ADD MSTORE PUSH1 0x0 DUP1 MLOAD PUSH1 0x20 PUSH2 0x5125 DUP4 CODECOPY DUP2 MLOAD SWAP2 MSTORE PUSH1 0x44 DUP3 ADD SWAP1 DUP2 MSTORE PUSH2 0x37B7 PUSH1 0xF1 SHL PUSH1 0x64 DUP4 ADD MSTORE PUSH1 0x84 DUP3 REVERT JUMPDEST POP PUSH1 0x0 SLOAD PUSH2 0xB0F SWAP1 PUSH1 0x1 PUSH1 0x1 PUSH1 0xA0 SHL SUB AND DUP2 JUMP JUMPDEST PUSH1 0x40 MLOAD PUSH1 0x1 PUSH1 0x1 PUSH1 0xA0 SHL SUB SWAP1 SWAP2 AND DUP2 MSTORE PUSH1 0x20 ADD PUSH2 0x2BB JUMP JUMPDEST PUSH2 0x507 PUSH2 0xB35 CALLDATASIZE PUSH1 0x4 PUSH2 0x4AAB JUMP JUMPDEST PUSH2 0x2AD8 JUMP JUMPDEST CALLVALUE DUP1 ISZERO PUSH2 0xB81 JUMPI PUSH1 0x40 MLOAD PUSH3 0x461BCD PUSH1 0xE5 SHL DUP2 MSTORE PUSH1 0x20 PUSH1 0x4 DUP3 ADD MSTORE PUSH1 0x22 PUSH1 0x24 DUP3 ADD MSTORE PUSH1 0x0 DUP1 MLOAD PUSH1 0x20 PUSH2 0x5125 DUP4 CODECOPY DUP2 MLOAD SWAP2 MSTORE PUSH1 0x44 DUP3 ADD SWAP1 DUP2 MSTORE PUSH2 0x37B7 PUSH1 0xF1 SHL PUSH1 0x64 DUP4 ADD MSTORE PUSH1 0x84 DUP3 REVERT JUMPDEST POP PUSH2 0x507 PUSH2 0xB90 CALLDATASIZE PUSH1 0x4 PUSH2 0x4AD0 JUMP JUMPDEST PUSH2 0x2E3F JUMP JUMPDEST CALLVALUE DUP1 ISZERO PUSH2 0xBDC JUMPI PUSH1 0x40 MLOAD PUSH3 0x461BCD PUSH1 0xE5 SHL DUP2 MSTORE PUSH1 0x20 PUSH1 0x4 DUP3 ADD MSTORE PUSH1 0x22 PUSH1 0x24 DUP3 ADD MSTORE PUSH1 0x0 DUP1 MLOAD PUSH1 0x20 PUSH2 0x5125 DUP4 CODECOPY DUP2 MLOAD SWAP2 MSTORE PUSH1 0x44 DUP3 ADD SWAP1 DUP2 MSTORE PUSH2 0x37B7 PUSH1 0xF1 SHL PUSH1 0x64 DUP4 ADD MSTORE PUSH1 0x84 DUP3 REVERT JUMPDEST POP PUSH2 0x31F PUSH1 0x8 SLOAD DUP2 JUMP JUMPDEST CALLVALUE DUP1 ISZERO PUSH2 0xC2D JUMPI PUSH1 0x40 MLOAD PUSH3 0x461BCD PUSH1 0xE5 SHL DUP2 MSTORE PUSH1 0x20 PUSH1 0x4 DUP3 ADD MSTORE PUSH1 0x22 PUSH1 0x24 DUP3 ADD MSTORE PUSH1 0x0 DUP1 MLOAD PUSH1 0x20 PUSH2 0x5125 DUP4 CODECOPY DUP2 MLOAD SWAP2 MSTORE PUSH1 0x44 DUP3 ADD SWAP1 DUP2 MSTORE PUSH2 0x37B7 PUSH1 0xF1 SHL PUSH1 0x64 DUP4 ADD MSTORE PUSH1 0x84 DUP3 REVERT JUMPDEST POP PUSH2 0x507 PUSH2 0xC3C CALLDATASIZE PUSH1 0x4 PUSH2 0x42C9 JUMP JUMPDEST PUSH2 0x360D JUMP JUMPDEST CALLVALUE DUP1 ISZERO PUSH2 0xC88 JUMPI PUSH1 0x40 MLOAD PUSH3 0x461BCD PUSH1 0xE5 SHL DUP2 MSTORE PUSH1 0x20 PUSH1 0x4 DUP3 ADD MSTORE PUSH1 0x22 PUSH1 0x24 DUP3 ADD MSTORE PUSH1 0x0 DUP1 MLOAD PUSH1 0x20 PUSH2 0x5125 DUP4 CODECOPY DUP2 MLOAD SWAP2 MSTORE PUSH1 0x44 DUP3 ADD SWAP1 DUP2 MSTORE PUSH2 0x37B7 PUSH1 0xF1 SHL PUSH1 0x64 DUP4 ADD MSTORE PUSH1 0x84 DUP3 REVERT JUMPDEST POP PUSH2 0xC9C PUSH2 0xC97 CALLDATASIZE PUSH1 0x4 PUSH2 0x4477 JUMP JUMPDEST PUSH2 0x3658 JUMP JUMPDEST PUSH1 0x40 MLOAD PUSH2 0x2BB SWAP7 SWAP6 SWAP5 SWAP4 SWAP3 SWAP2 SWAP1 PUSH2 0x4BA3 JUMP JUMPDEST CALLVALUE DUP1 ISZERO PUSH2 0xCF5 JUMPI PUSH1 0x40 MLOAD PUSH3 0x461BCD PUSH1 0xE5 SHL DUP2 MSTORE PUSH1 0x20 PUSH1 0x4 DUP3 ADD MSTORE PUSH1 0x22 PUSH1 0x24 DUP3 ADD MSTORE PUSH1 0x0 DUP1 MLOAD PUSH1 0x20 PUSH2 0x5125 DUP4 CODECOPY DUP2 MLOAD SWAP2 MSTORE PUSH1 0x44 DUP3 ADD SWAP1 DUP2 MSTORE PUSH2 0x37B7 PUSH1 0xF1 SHL PUSH1 0x64 DUP4 ADD MSTORE PUSH1 0x84 DUP3 REVERT JUMPDEST POP PUSH2 0x507 PUSH2 0xD04 CALLDATASIZE PUSH1 0x4 PUSH2 0x4622 JUMP JUMPDEST PUSH2 0x38C0 JUMP JUMPDEST CALLVALUE DUP1 ISZERO PUSH2 0xD50 JUMPI PUSH1 0x40 MLOAD PUSH3 0x461BCD PUSH1 0xE5 SHL DUP2 MSTORE PUSH1 0x20 PUSH1 0x4 DUP3 ADD MSTORE PUSH1 0x22 PUSH1 0x24 DUP3 ADD MSTORE PUSH1 0x0 DUP1 MLOAD PUSH1 0x20 PUSH2 0x5125 DUP4 CODECOPY DUP2 MLOAD SWAP2 MSTORE PUSH1 0x44 DUP3 ADD SWAP1 DUP2 MSTORE PUSH2 0x37B7 PUSH1 0xF1 SHL PUSH1 0x64 DUP4 ADD MSTORE PUSH1 0x84 DUP3 REVERT JUMPDEST POP PUSH2 0xD64 PUSH2 0xD5F CALLDATASIZE PUSH1 0x4 PUSH2 0x42E7 JUMP JUMPDEST PUSH2 0x394F JUMP JUMPDEST PUSH1 0x40 MLOAD PUSH2 0x2BB SWAP7 SWAP6 SWAP5 SWAP4 SWAP3 SWAP2 SWAP1 PUSH2 0x4C12 JUMP JUMPDEST CALLVALUE DUP1 ISZERO PUSH2 0xDBD JUMPI PUSH1 0x40 MLOAD PUSH3 0x461BCD PUSH1 0xE5 SHL DUP2 MSTORE PUSH1 0x20 PUSH1 0x4 DUP3 ADD MSTORE PUSH1 0x22 PUSH1 0x24 DUP3 ADD MSTORE PUSH1 0x0 DUP1 MLOAD PUSH1 0x20 PUSH2 0x5125 DUP4 CODECOPY DUP2 MLOAD SWAP2 MSTORE PUSH1 0x44 DUP3 ADD SWAP1 DUP2 MSTORE PUSH2 0x37B7 PUSH1 0xF1 SHL PUSH1 0x64 DUP4 ADD MSTORE PUSH1 0x84 DUP3 REVERT JUMPDEST POP PUSH2 0xDD1 PUSH2 0xDCC CALLDATASIZE PUSH1 0x4 PUSH2 0x4477 JUMP JUMPDEST PUSH2 0x3B29 JUMP JUMPDEST PUSH1 0x40 MLOAD PUSH2 0x2BB SWAP6 SWAP5 SWAP4 SWAP3 SWAP2 SWAP1 PUSH2 0x4C75 JUMP JUMPDEST CALLVALUE DUP1 ISZERO PUSH2 0xE29 JUMPI PUSH1 0x40 MLOAD PUSH3 0x461BCD PUSH1 0xE5 SHL DUP2 MSTORE PUSH1 0x20 PUSH1 0x4 DUP3 ADD MSTORE PUSH1 0x22 PUSH1 0x24 DUP3 ADD MSTORE PUSH1 0x0 DUP1 MLOAD PUSH1 0x20 PUSH2 0x5125 DUP4 CODECOPY DUP2 MLOAD SWAP2 MSTORE PUSH1 0x44 DUP3 ADD SWAP1 DUP2 MSTORE PUSH2 0x37B7 PUSH1 0xF1 SHL PUSH1 0x64 DUP4 ADD MSTORE PUSH1 0x84 DUP3 REVERT JUMPDEST POP PUSH2 0x403 PUSH2 0xE38 CALLDATASIZE PUSH1 0x4 PUSH2 0x42E7 JUMP JUMPDEST PUSH1 0x5 PUSH1 0x20 DUP2 SWAP1 MSTORE PUSH1 0x0 SWAP2 DUP3 MSTORE PUSH1 0x40 SWAP1 SWAP2 KECCAK256 DUP1 SLOAD PUSH1 0x1 DUP3 ADD SLOAD PUSH1 0x2 DUP4 ADD SLOAD PUSH1 0x3 DUP5 ADD SLOAD PUSH1 0x4 DUP6 ADD SLOAD SWAP5 SWAP1 SWAP6 ADD SLOAD SWAP3 SWAP5 SWAP2 SWAP4 SWAP1 SWAP3 PUSH1 0x1 PUSH1 0x1 PUSH1 0xA0 SHL SUB DUP4 AND SWAP3 PUSH1 0xFF PUSH1 0x1 PUSH1 0xA0 SHL SWAP1 SWAP2 DIV DUP2 AND SWAP3 SWAP2 AND DUP8 JUMP JUMPDEST CALLVALUE DUP1 ISZERO PUSH2 0xECE JUMPI PUSH1 0x40 MLOAD PUSH3 0x461BCD PUSH1 0xE5 SHL DUP2 MSTORE PUSH1 0x20 PUSH1 0x4 DUP3 ADD MSTORE PUSH1 0x22 PUSH1 0x24 DUP3 ADD MSTORE PUSH1 0x0 DUP1 MLOAD PUSH1 0x20 PUSH2 0x5125 DUP4 CODECOPY DUP2 MLOAD SWAP2 MSTORE PUSH1 0x44 DUP3 ADD SWAP1 DUP2 MSTORE PUSH2 0x37B7 PUSH1 0xF1 SHL PUSH1 0x64 DUP4 ADD MSTORE PUSH1 0x84 DUP3 REVERT JUMPDEST POP PUSH2 0x49F PUSH2 0xEDD CALLDATASIZE PUSH1 0x4 PUSH2 0x4477 JUMP JUMPDEST PUSH2 0x3E0A JUMP JUMPDEST CALLVALUE DUP1 ISZERO PUSH2 0xF29 JUMPI PUSH1 0x40 MLOAD PUSH3 0x461BCD PUSH1 0xE5 SHL DUP2 MSTORE PUSH1 0x20 PUSH1 0x4 DUP3 ADD MSTORE PUSH1 0x22 PUSH1 0x24 DUP3 ADD MSTORE PUSH1 0x0 DUP1 MLOAD PUSH1 0x20 PUSH2 0x5125 DUP4 CODECOPY DUP2 MLOAD SWAP2 MSTORE PUSH1 0x44 DUP3 ADD SWAP1 DUP2 MSTORE PUSH2 0x37B7 PUSH1 0xF1 SHL PUSH1 0x64 DUP4 ADD MSTORE PUSH1 0x84 DUP3 REVERT JUMPDEST POP PUSH2 0x31F PUSH1 0x7 SLOAD DUP2 JUMP JUMPDEST CALLVALUE DUP1 ISZERO PUSH2 0xF7A JUMPI PUSH1 0x40 MLOAD PUSH3 0x461BCD PUSH1 0xE5 SHL DUP2 MSTORE PUSH1 0x20 PUSH1 0x4 DUP3 ADD MSTORE PUSH1 0x22 PUSH1 0x24 DUP3 ADD MSTORE PUSH1 0x0 DUP1 MLOAD PUSH1 0x20 PUSH2 0x5125 DUP4 CODECOPY DUP2 MLOAD SWAP2 MSTORE PUSH1 0x44 DUP3 ADD SWAP1 DUP2 MSTORE PUSH2 0x37B7 PUSH1 0xF1 SHL PUSH1 0x64 DUP4 ADD MSTORE PUSH1 0x84 DUP3 REVERT JUMPDEST POP PUSH2 0x2AE PUSH2 0x3E2E JUMP JUMPDEST PUSH1 0x60 PUSH1 0x9 DUP1 SLOAD DUP1 PUSH1 0x20 MUL PUSH1 0x20 ADD PUSH1 0x40 MLOAD SWAP1 DUP2 ADD PUSH1 0x40 MSTORE DUP1 SWAP3 SWAP2 SWAP1 DUP2 DUP2 MSTORE PUSH1 0x20 ADD PUSH1 0x0 SWAP1 JUMPDEST DUP3 DUP3 LT ISZERO PUSH2 0x1053 JUMPI DUP4 DUP3 SWAP1 PUSH1 0x0 MSTORE PUSH1 0x20 PUSH1 0x0 KECCAK256 ADD DUP1 SLOAD PUSH2 0xFC6 SWAP1 PUSH2 0x4CE2 JUMP JUMPDEST DUP1 PUSH1 0x1F ADD PUSH1 0x20 DUP1 SWAP2 DIV MUL PUSH1 0x20 ADD PUSH1 0x40 MLOAD SWAP1 DUP2 ADD PUSH1 0x40 MSTORE DUP1 SWAP3 SWAP2 SWAP1 DUP2 DUP2 MSTORE PUSH1 0x20 ADD DUP3 DUP1 SLOAD PUSH2 0xFF2 SWAP1 PUSH2 0x4CE2 JUMP JUMPDEST DUP1 ISZERO PUSH2 0x103F JUMPI DUP1 PUSH1 0x1F LT PUSH2 0x1014 JUMPI PUSH2 0x100 DUP1 DUP4 SLOAD DIV MUL DUP4 MSTORE SWAP2 PUSH1 0x20 ADD SWAP2 PUSH2 0x103F JUMP JUMPDEST DUP3 ADD SWAP2 SWAP1 PUSH1 0x0 MSTORE PUSH1 0x20 PUSH1 0x0 KECCAK256 SWAP1 JUMPDEST DUP2 SLOAD DUP2 MSTORE SWAP1 PUSH1 0x1 ADD SWAP1 PUSH1 0x20 ADD DUP1 DUP4 GT PUSH2 0x1022 JUMPI DUP3 SWAP1 SUB PUSH1 0x1F AND DUP3 ADD SWAP2 JUMPDEST POP POP POP POP POP DUP2 MSTORE PUSH1 0x20 ADD SWAP1 PUSH1 0x1 ADD SWAP1 PUSH2 0xFA7 JUMP JUMPDEST POP POP POP POP SWAP1 POP SWAP1 JUMP JUMPDEST PUSH1 0x6 PUSH1 0x20 MSTORE DUP2 PUSH1 0x0 MSTORE PUSH1 0x40 PUSH1 0x0 KECCAK256 DUP2 DUP2 SLOAD DUP2 LT PUSH2 0x1078 JUMPI PUSH1 0x0 DUP1 REVERT JUMPDEST SWAP1 PUSH1 0x0 MSTORE PUSH1 0x20 PUSH1 0x0 KECCAK256 ADD PUSH1 0x0 SWAP2 POP SWAP2 POP POP SLOAD DUP2 JUMP JUMPDEST PUSH1 0x0 DUP1 PUSH1 0x0 DUP1 PUSH1 0x0 DUP1 PUSH1 0x0 DUP1 DUP9 GT DUP1 ISZERO PUSH2 0x10A9 JUMPI POP PUSH1 0x8 SLOAD DUP9 GT ISZERO JUMPDEST PUSH2 0x10EF JUMPI PUSH1 0x40 MLOAD PUSH3 0x461BCD PUSH1 0xE5 SHL DUP2 MSTORE PUSH1 0x20 PUSH1 0x4 DUP3 ADD MSTORE PUSH1 0x12 PUSH1 0x24 DUP3 ADD MSTORE PUSH18 0x125B9D985B1A5908131A5CDD1A5B99C81251 PUSH1 0x72 SHL PUSH1 0x44 DUP3 ADD MSTORE PUSH1 0x64 ADD JUMPDEST PUSH1 0x40 MLOAD DUP1 SWAP2 SUB SWAP1 REVERT JUMPDEST POP POP POP PUSH1 0x0 SWAP5 DUP6 MSTORE POP POP PUSH1 0x5 PUSH1 0x20 DUP2 DUP2 MSTORE PUSH1 0x40 SWAP5 DUP6 SWAP1 KECCAK256 DUP6 MLOAD PUSH1 0xE0 DUP2 ADD DUP8 MSTORE DUP2 SLOAD DUP1 DUP3 MSTORE PUSH1 0x1 DUP4 ADD SLOAD SWAP4 DUP3 ADD DUP5 SWAP1 MSTORE PUSH1 0x2 DUP4 ADD SLOAD SWAP8 DUP3 ADD DUP9 SWAP1 MSTORE PUSH1 0x3 DUP4 ADD SLOAD PUSH1 0x1 PUSH1 0x1 PUSH1 0xA0 SHL SUB DUP2 AND PUSH1 0x60 DUP5 ADD DUP2 SWAP1 MSTORE PUSH1 0x1 PUSH1 0xA0 SHL SWAP1 SWAP2 DIV PUSH1 0xFF SWAP1 DUP2 AND ISZERO ISZERO PUSH1 0x80 DUP6 ADD DUP2 SWAP1 MSTORE PUSH1 0x4 DUP7 ADD SLOAD PUSH1 0xA0 DUP7 ADD DUP2 SWAP1 MSTORE SWAP6 SWAP1 SWAP8 ADD SLOAD AND ISZERO ISZERO PUSH1 0xC0 SWAP1 SWAP4 ADD DUP4 SWAP1 MSTORE SWAP1 SWAP9 SWAP4 SWAP8 SWAP7 POP SWAP5 POP SWAP1 SWAP2 JUMP JUMPDEST PUSH1 0xA DUP2 DUP2 SLOAD DUP2 LT PUSH2 0x118D JUMPI PUSH1 0x0 DUP1 REVERT JUMPDEST SWAP1 PUSH1 0x0 MSTORE PUSH1 0x20 PUSH1 0x0 KECCAK256 ADD PUSH1 0x0 SWAP2 POP SWAP1 POP DUP1 SLOAD PUSH2 0x11A8 SWAP1 PUSH2 0x4CE2 JUMP JUMPDEST DUP1 PUSH1 0x1F ADD PUSH1 0x20 DUP1 SWAP2 DIV MUL PUSH1 0x20 ADD PUSH1 0x40 MLOAD SWAP1 DUP2 ADD PUSH1 0x40 MSTORE DUP1 SWAP3 SWAP2 SWAP1 DUP2 DUP2 MSTORE PUSH1 0x20 ADD DUP3 DUP1 SLOAD PUSH2 0x11D4 SWAP1 PUSH2 0x4CE2 JUMP JUMPDEST DUP1 ISZERO PUSH2 0x1221 JUMPI DUP1 PUSH1 0x1F LT PUSH2 0x11F6 JUMPI PUSH2 0x100 DUP1 DUP4 SLOAD DIV MUL DUP4 MSTORE SWAP2 PUSH1 0x20 ADD SWAP2 PUSH2 0x1221 JUMP JUMPDEST DUP3 ADD SWAP2 SWAP1 PUSH1 0x0 MSTORE PUSH1 0x20 PUSH1 0x0 KECCAK256 SWAP1 JUMPDEST DUP2 SLOAD DUP2 MSTORE SWAP1 PUSH1 0x1 ADD SWAP1 PUSH1 0x20 ADD DUP1 DUP4 GT PUSH2 0x1204 JUMPI DUP3 SWAP1 SUB PUSH1 0x1F AND DUP3 ADD SWAP2 JUMPDEST POP POP POP POP POP DUP2 JUMP JUMPDEST PUSH1 0x0 SLOAD PUSH1 0x1 PUSH1 0x1 PUSH1 0xA0 SHL SUB AND CALLER EQ PUSH2 0x1253 JUMPI PUSH1 0x40 MLOAD PUSH3 0x461BCD PUSH1 0xE5 SHL DUP2 MSTORE PUSH1 0x4 ADD PUSH2 0x10E6 SWAP1 PUSH2 0x4D1C JUMP JUMPDEST PUSH1 0x1 PUSH1 0x1 PUSH1 0xA0 SHL SUB AND PUSH1 0x0 SWAP1 DUP2 MSTORE PUSH1 0x1 PUSH1 0x20 DUP2 SWAP1 MSTORE PUSH1 0x40 SWAP1 SWAP2 KECCAK256 DUP1 SLOAD PUSH1 0xFF NOT AND SWAP1 SWAP2 OR SWAP1 SSTORE JUMP JUMPDEST PUSH1 0xC DUP6 PUSH1 0x40 MLOAD PUSH2 0x128A SWAP2 SWAP1 PUSH2 0x4D5E JUMP JUMPDEST SWAP1 DUP2 MSTORE PUSH1 0x40 MLOAD SWAP1 DUP2 SWAP1 SUB PUSH1 0x20 ADD SWAP1 KECCAK256 SLOAD PUSH1 0xFF AND ISZERO PUSH2 0x12EA JUMPI PUSH1 0x40 MLOAD PUSH3 0x461BCD PUSH1 0xE5 SHL DUP2 MSTORE PUSH1 0x20 PUSH1 0x4 DUP3 ADD MSTORE PUSH1 0x17 PUSH1 0x24 DUP3 ADD MSTORE PUSH32 0x4661726D20616C72656164792072656769737465726564000000000000000000 PUSH1 0x44 DUP3 ADD MSTORE PUSH1 0x64 ADD PUSH2 0x10E6 JUMP JUMPDEST PUSH1 0x40 MLOAD DUP1 PUSH1 0xE0 ADD PUSH1 0x40 MSTORE DUP1 DUP6 DUP2 MSTORE PUSH1 0x20 ADD DUP5 DUP2 MSTORE PUSH1 0x20 ADD DUP4 DUP2 MSTORE PUSH1 0x20 ADD PUSH1 0x0 DUP2 MSTORE PUSH1 0x20 ADD DUP3 DUP2 MSTORE PUSH1 0x20 ADD CALLER PUSH1 0x1 PUSH1 0x1 PUSH1 0xA0 SHL SUB AND DUP2 MSTORE PUSH1 0x20 ADD PUSH1 0x0 PUSH1 0x1 PUSH1 0x1 PUSH1 0x40 SHL SUB DUP2 GT ISZERO PUSH2 0x133C JUMPI PUSH2 0x133C PUSH2 0x436F JUMP JUMPDEST PUSH1 0x40 MLOAD SWAP1 DUP1 DUP3 MSTORE DUP1 PUSH1 0x20 MUL PUSH1 0x20 ADD DUP3 ADD PUSH1 0x40 MSTORE DUP1 ISZERO PUSH2 0x1365 JUMPI DUP2 PUSH1 0x20 ADD PUSH1 0x20 DUP3 MUL DUP1 CALLDATASIZE DUP4 CALLDATACOPY ADD SWAP1 POP JUMPDEST POP DUP2 MSTORE POP PUSH1 0x3 DUP7 PUSH1 0x40 MLOAD PUSH2 0x1379 SWAP2 SWAP1 PUSH2 0x4D5E JUMP JUMPDEST SWAP1 DUP2 MSTORE PUSH1 0x40 MLOAD SWAP1 DUP2 SWAP1 SUB PUSH1 0x20 ADD SWAP1 KECCAK256 DUP2 MLOAD DUP2 SWAP1 PUSH2 0x1396 SWAP1 DUP3 PUSH2 0x4DC9 JUMP JUMPDEST POP PUSH1 0x20 DUP3 ADD MLOAD PUSH1 0x1 DUP3 ADD SWAP1 PUSH2 0x13AB SWAP1 DUP3 PUSH2 0x4DC9 JUMP JUMPDEST POP PUSH1 0x40 DUP3 ADD MLOAD PUSH1 0x2 DUP3 ADD SWAP1 PUSH2 0x13C0 SWAP1 DUP3 PUSH2 0x4DC9 JUMP JUMPDEST POP PUSH1 0x60 DUP3 ADD MLOAD PUSH1 0x3 DUP3 ADD SSTORE PUSH1 0x80 DUP3 ADD MLOAD PUSH1 0x4 DUP3 ADD SWAP1 PUSH2 0x13DF SWAP1 DUP3 PUSH2 0x4DC9 JUMP JUMPDEST POP PUSH1 0xA0 DUP3 ADD MLOAD PUSH1 0x5 DUP3 ADD DUP1 SLOAD PUSH1 0x1 PUSH1 0x1 PUSH1 0xA0 SHL SUB NOT AND PUSH1 0x1 PUSH1 0x1 PUSH1 0xA0 SHL SUB SWAP1 SWAP3 AND SWAP2 SWAP1 SWAP2 OR SWAP1 SSTORE PUSH1 0xC0 DUP3 ADD MLOAD DUP1 MLOAD PUSH2 0x1421 SWAP2 PUSH1 0x6 DUP5 ADD SWAP2 PUSH1 0x20 SWAP1 SWAP2 ADD SWAP1 PUSH2 0x400E JUMP JUMPDEST POP SWAP1 POP POP PUSH1 0x1 PUSH1 0xC DUP7 PUSH1 0x40 MLOAD PUSH2 0x1437 SWAP2 SWAP1 PUSH2 0x4D5E JUMP JUMPDEST SWAP1 DUP2 MSTORE PUSH1 0x40 MLOAD SWAP1 DUP2 SWAP1 SUB PUSH1 0x20 ADD SWAP1 KECCAK256 DUP1 SLOAD SWAP2 ISZERO ISZERO PUSH1 0xFF NOT SWAP1 SWAP3 AND SWAP2 SWAP1 SWAP2 OR SWAP1 SSTORE PUSH1 0x0 DUP1 JUMPDEST PUSH1 0xA SLOAD DUP2 LT ISZERO PUSH2 0x14E5 JUMPI DUP7 PUSH1 0x40 MLOAD PUSH1 0x20 ADD PUSH2 0x1476 SWAP2 SWAP1 PUSH2 0x4D5E JUMP JUMPDEST PUSH1 0x40 MLOAD PUSH1 0x20 DUP2 DUP4 SUB SUB DUP2 MSTORE SWAP1 PUSH1 0x40 MSTORE DUP1 MLOAD SWAP1 PUSH1 0x20 ADD KECCAK256 PUSH1 0xA DUP3 DUP2 SLOAD DUP2 LT PUSH2 0x149F JUMPI PUSH2 0x149F PUSH2 0x4E87 JUMP JUMPDEST SWAP1 PUSH1 0x0 MSTORE PUSH1 0x20 PUSH1 0x0 KECCAK256 ADD PUSH1 0x40 MLOAD PUSH1 0x20 ADD PUSH2 0x14B9 SWAP2 SWAP1 PUSH2 0x4E9D JUMP JUMPDEST PUSH1 0x40 MLOAD PUSH1 0x20 DUP2 DUP4 SUB SUB DUP2 MSTORE SWAP1 PUSH1 0x40 MSTORE DUP1 MLOAD SWAP1 PUSH1 0x20 ADD KECCAK256 SUB PUSH2 0x14DD JUMPI PUSH1 0x1 SWAP2 POP PUSH2 0x14E5 JUMP JUMPDEST PUSH1 0x1 ADD PUSH2 0x145B JUMP JUMPDEST POP DUP1 PUSH2 0x1529 JUMPI PUSH1 0xA DUP1 SLOAD PUSH1 0x1 DUP2 ADD DUP3 SSTORE PUSH1 0x0 SWAP2 SWAP1 SWAP2 MSTORE PUSH32 0xC65A7BB8D6351C1CF70C95A316CC6A92839C986682D98BC35F958F4883F9D2A8 ADD PUSH2 0x1527 DUP8 DUP3 PUSH2 0x4DC9 JUMP JUMPDEST POP JUMPDEST PUSH32 0xEF9E0A850BB9971E155F20E4B0E490CDEAFC72EAB8D0DA56FE2F1585AD9567DE DUP7 DUP4 TIMESTAMP PUSH1 0x40 MLOAD PUSH2 0x155C SWAP4 SWAP3 SWAP2 SWAP1 PUSH2 0x4F12 JUMP JUMPDEST PUSH1 0x40 MLOAD DUP1 SWAP2 SUB SWAP1 LOG1 POP POP POP POP POP POP JUMP JUMPDEST DUP1 PUSH1 0xD DUP4 PUSH1 0x40 MLOAD PUSH2 0x157D SWAP2 SWAP1 PUSH2 0x4D5E JUMP JUMPDEST SWAP1 DUP2 MSTORE PUSH1 0x20 ADD PUSH1 0x40 MLOAD DUP1 SWAP2 SUB SWAP1 KECCAK256 SWAP1 DUP2 PUSH2 0x1597 SWAP2 SWAP1 PUSH2 0x4DC9 JUMP JUMPDEST POP PUSH32 0x888BF677EC642F934DF90BBC78F33CC2D32F3D50B0D2BC286D26EF35D69C89B4 DUP3 DUP3 TIMESTAMP PUSH1 0x40 MLOAD PUSH2 0x15CB SWAP4 SWAP3 SWAP2 SWAP1 PUSH2 0x4F12 JUMP JUMPDEST PUSH1 0x40 MLOAD DUP1 SWAP2 SUB SWAP1 LOG1 POP POP JUMP JUMPDEST PUSH1 0x0 PUSH1 0x3 DUP4 PUSH1 0x40 MLOAD PUSH2 0x15E9 SWAP2 SWAP1 PUSH2 0x4D5E JUMP JUMPDEST SWAP1 DUP2 MSTORE PUSH1 0x40 MLOAD SWAP1 DUP2 SWAP1 SUB PUSH1 0x20 ADD SWAP1 KECCAK256 PUSH1 0x5 DUP2 ADD SLOAD SWAP1 SWAP2 POP PUSH1 0x1 PUSH1 0x1 PUSH1 0xA0 SHL SUB AND CALLER EQ DUP1 PUSH2 0x1625 JUMPI POP CALLER PUSH1 0x0 SWAP1 DUP2 MSTORE PUSH1 0x1 PUSH1 0x20 MSTORE PUSH1 0x40 SWAP1 KECCAK256 SLOAD PUSH1 0xFF AND JUMPDEST PUSH2 0x1641 JUMPI PUSH1 0x40 MLOAD PUSH3 0x461BCD PUSH1 0xE5 SHL DUP2 MSTORE PUSH1 0x4 ADD PUSH2 0x10E6 SWAP1 PUSH2 0x4F48 JUMP JUMPDEST PUSH1 0x4 DUP2 ADD PUSH2 0x164F DUP4 DUP3 PUSH2 0x4DC9 JUMP JUMPDEST POP TIMESTAMP PUSH1 0x3 DUP3 ADD DUP2 SWAP1 SSTORE PUSH1 0x40 MLOAD PUSH32 0xEF9E0A850BB9971E155F20E4B0E490CDEAFC72EAB8D0DA56FE2F1585AD9567DE SWAP2 PUSH2 0x168A SWAP2 DUP7 SWAP2 DUP7 SWAP2 PUSH2 0x4F12 JUMP JUMPDEST PUSH1 0x40 MLOAD DUP1 SWAP2 SUB SWAP1 LOG1 POP POP POP JUMP JUMPDEST CALLER PUSH1 0x0 SWAP1 DUP2 MSTORE PUSH1 0x1 PUSH1 0x20 MSTORE PUSH1 0x40 SWAP1 KECCAK256 SLOAD PUSH1 0xFF AND DUP1 PUSH2 0x16BF JUMPI POP PUSH1 0x0 SLOAD PUSH1 0x1 PUSH1 0x1 PUSH1 0xA0 SHL SUB AND CALLER EQ JUMPDEST PUSH2 0x16DB JUMPI PUSH1 0x40 MLOAD PUSH3 0x461BCD PUSH1 0xE5 SHL DUP2 MSTORE PUSH1 0x4 ADD PUSH2 0x10E6 SWAP1 PUSH2 0x4F48 JUMP JUMPDEST PUSH1 0x0 DUP3 GT DUP1 ISZERO PUSH2 0x16ED JUMPI POP PUSH1 0x7 SLOAD DUP3 GT ISZERO JUMPDEST PUSH2 0x1709 JUMPI PUSH1 0x40 MLOAD PUSH3 0x461BCD PUSH1 0xE5 SHL DUP2 MSTORE PUSH1 0x4 ADD PUSH2 0x10E6 SWAP1 PUSH2 0x4F70 JUMP JUMPDEST PUSH1 0x0 DUP3 DUP2 MSTORE PUSH1 0x4 PUSH1 0x20 SWAP1 DUP2 MSTORE PUSH1 0x40 DUP3 KECCAK256 PUSH1 0x7 ADD DUP1 SLOAD PUSH1 0x1 DUP2 ADD DUP3 SSTORE SWAP1 DUP4 MSTORE SWAP2 KECCAK256 ADD PUSH2 0x1734 DUP3 DUP3 PUSH2 0x4DC9 JUMP JUMPDEST POP PUSH32 0x40E632D4A93E307BC4FD8EE554A117DBC7F782E20D62BDD43D8DCF040DFB521D DUP3 DUP3 TIMESTAMP PUSH1 0x40 MLOAD PUSH2 0x15CB SWAP4 SWAP3 SWAP2 SWAP1 PUSH2 0x4F9A JUMP JUMPDEST PUSH1 0x0 DUP5 GT DUP1 ISZERO PUSH2 0x177A JUMPI POP PUSH1 0x7 SLOAD DUP5 GT ISZERO JUMPDEST PUSH2 0x1796 JUMPI PUSH1 0x40 MLOAD PUSH3 0x461BCD PUSH1 0xE5 SHL DUP2 MSTORE PUSH1 0x4 ADD PUSH2 0x10E6 SWAP1 PUSH2 0x4F70 JUMP JUMPDEST PUSH1 0x0 DUP4 GT PUSH2 0x17E6 JUMPI PUSH1 0x40 MLOAD PUSH3 0x461BCD PUSH1 0xE5 SHL DUP2 MSTORE PUSH1 0x20 PUSH1 0x4 DUP3 ADD MSTORE PUSH1 0x1C PUSH1 0x24 DUP3 ADD MSTORE PUSH32 0x5072696365206D7573742062652067726561746572207468616E203000000000 PUSH1 0x44 DUP3 ADD MSTORE PUSH1 0x64 ADD PUSH2 0x10E6 JUMP JUMPDEST PUSH1 0x0 DUP3 GT PUSH2 0x1836 JUMPI PUSH1 0x40 MLOAD PUSH3 0x461BCD PUSH1 0xE5 SHL DUP2 MSTORE PUSH1 0x20 PUSH1 0x4 DUP3 ADD MSTORE PUSH1 0x1F PUSH1 0x24 DUP3 ADD MSTORE PUSH32 0x5175616E74697479206D7573742062652067726561746572207468616E203000 PUSH1 0x44 DUP3 ADD MSTORE PUSH1 0x64 ADD PUSH2 0x10E6 JUMP JUMPDEST PUSH1 0x0 DUP5 DUP2 MSTORE PUSH1 0x4 PUSH1 0x20 MSTORE PUSH1 0x40 SWAP1 KECCAK256 PUSH1 0x5 DUP2 ADD SLOAD DUP4 GT ISZERO PUSH2 0x1898 JUMPI PUSH1 0x40 MLOAD PUSH3 0x461BCD PUSH1 0xE5 SHL DUP2 MSTORE PUSH1 0x20 PUSH1 0x4 DUP3 ADD DUP2 SWAP1 MSTORE PUSH1 0x24 DUP3 ADD MSTORE PUSH32 0x5175616E74697479206578636565647320617661696C61626C652073746F636B PUSH1 0x44 DUP3 ADD MSTORE PUSH1 0x64 ADD PUSH2 0x10E6 JUMP JUMPDEST PUSH1 0x8 DUP1 SLOAD SWAP1 PUSH1 0x0 PUSH2 0x18A8 DUP4 PUSH2 0x4FD9 JUMP JUMPDEST SWAP1 SWAP2 SSTORE POP POP PUSH1 0x40 DUP1 MLOAD PUSH1 0xE0 DUP2 ADD DUP3 MSTORE DUP7 DUP2 MSTORE PUSH1 0x20 DUP1 DUP3 ADD DUP8 DUP2 MSTORE DUP3 DUP5 ADD DUP8 DUP2 MSTORE CALLER PUSH1 0x60 DUP6 ADD DUP2 DUP2 MSTORE PUSH1 0x1 PUSH1 0x80 DUP8 ADD DUP2 DUP2 MSTORE TIMESTAMP PUSH1 0xA0 DUP10 ADD SWAP1 DUP2 MSTORE DUP12 ISZERO ISZERO PUSH1 0xC0 DUP11 ADD SWAP1 DUP2 MSTORE PUSH1 0x8 DUP1 SLOAD PUSH1 0x0 SWAP1 DUP2 MSTORE PUSH1 0x5 DUP1 DUP13 MSTORE DUP14 DUP3 KECCAK256 SWAP13 MLOAD DUP14 SSTORE SWAP10 MLOAD DUP13 DUP8 ADD SSTORE SWAP8 MLOAD PUSH1 0x2 DUP13 ADD SSTORE SWAP5 MLOAD PUSH1 0x3 DUP12 ADD DUP1 SLOAD SWAP5 MLOAD PUSH1 0x1 PUSH1 0x1 PUSH1 0xA0 SHL SUB SWAP1 SWAP3 AND PUSH1 0x1 PUSH1 0x1 PUSH1 0xA8 SHL SUB NOT SWAP1 SWAP6 AND SWAP5 SWAP1 SWAP5 OR PUSH1 0x1 PUSH1 0xA0 SHL SWAP2 ISZERO ISZERO SWAP2 SWAP1 SWAP2 MUL OR SWAP1 SWAP3 SSTORE MLOAD PUSH1 0x4 DUP1 DUP11 ADD SWAP2 SWAP1 SWAP2 SSTORE SWAP1 MLOAD SWAP8 SWAP1 SWAP6 ADD DUP1 SLOAD PUSH1 0xFF NOT AND SWAP8 ISZERO ISZERO SWAP8 SWAP1 SWAP8 OR SWAP1 SWAP7 SSTORE SWAP1 DUP3 MSTORE PUSH1 0x6 DUP1 DUP6 MSTORE DUP7 DUP4 KECCAK256 DUP3 SLOAD DUP2 SLOAD DUP1 DUP10 ADD DUP4 SSTORE SWAP2 DUP6 MSTORE DUP7 DUP6 KECCAK256 SWAP1 SWAP2 ADD SSTORE SWAP1 SLOAD PUSH1 0xB DUP1 SLOAD DUP1 DUP9 ADD SWAP1 SWAP2 SSTORE PUSH32 0x175B7A638427703F0DBE7BB9BBF987A2551717B34E79F33B5B1008D1FA01DB9 ADD SSTORE DUP11 DUP3 MSTORE SWAP2 DUP4 MSTORE DUP5 DUP2 KECCAK256 SWAP1 SWAP2 ADD DUP1 SLOAD SWAP4 DUP5 ADD DUP2 SSTORE DUP2 MSTORE DUP2 SWAP1 KECCAK256 DUP4 MLOAD DUP1 DUP6 ADD SWAP1 SWAP5 MSTORE PUSH1 0xF DUP5 MSTORE PUSH15 0x4C697374656420666F722053616C65 PUSH1 0x88 SHL SWAP2 DUP5 ADD SWAP2 SWAP1 SWAP2 MSTORE ADD SWAP1 PUSH2 0x19F9 SWAP1 DUP3 PUSH2 0x4DC9 JUMP JUMPDEST POP DUP3 DUP2 PUSH1 0x5 ADD PUSH1 0x0 DUP3 DUP3 SLOAD PUSH2 0x1A0E SWAP2 SWAP1 PUSH2 0x4FF2 JUMP JUMPDEST SWAP1 SWAP2 SSTORE POP POP PUSH1 0x8 SLOAD PUSH1 0x40 DUP1 MLOAD SWAP2 DUP3 MSTORE PUSH1 0x20 DUP3 ADD DUP8 SWAP1 MSTORE DUP2 ADD DUP6 SWAP1 MSTORE PUSH1 0x60 DUP2 ADD DUP5 SWAP1 MSTORE CALLER PUSH1 0x80 DUP3 ADD MSTORE TIMESTAMP PUSH1 0xA0 DUP3 ADD MSTORE PUSH32 0x74DB1CF85B7690D991329CD32074D6249E834EC06591F8652F737065D42B040E SWAP1 PUSH1 0xC0 ADD JUMPDEST PUSH1 0x40 MLOAD DUP1 SWAP2 SUB SWAP1 LOG1 POP POP POP POP POP JUMP JUMPDEST PUSH1 0xB DUP2 DUP2 SLOAD DUP2 LT PUSH2 0x1A81 JUMPI PUSH1 0x0 DUP1 REVERT JUMPDEST PUSH1 0x0 SWAP2 DUP3 MSTORE PUSH1 0x20 SWAP1 SWAP2 KECCAK256 ADD SLOAD SWAP1 POP DUP2 JUMP JUMPDEST CALLER PUSH1 0x0 SWAP1 DUP2 MSTORE PUSH1 0x1 PUSH1 0x20 MSTORE PUSH1 0x40 SWAP1 KECCAK256 SLOAD PUSH1 0xFF AND DUP1 PUSH2 0x1ABA JUMPI POP PUSH1 0x0 SLOAD PUSH1 0x1 PUSH1 0x1 PUSH1 0xA0 SHL SUB AND CALLER EQ JUMPDEST PUSH2 0x1AD6 JUMPI PUSH1 0x40 MLOAD PUSH3 0x461BCD PUSH1 0xE5 SHL DUP2 MSTORE PUSH1 0x4 ADD PUSH2 0x10E6 SWAP1 PUSH2 0x4F48 JUMP JUMPDEST PUSH1 0x40 MLOAD DUP1 PUSH1 0xC0 ADD PUSH1 0x40 MSTORE DUP1 DUP8 DUP2 MSTORE PUSH1 0x20 ADD DUP7 DUP2 MSTORE PUSH1 0x20 ADD DUP6 DUP2 MSTORE PUSH1 0x20 ADD DUP5 DUP2 MSTORE PUSH1 0x20 ADD DUP4 DUP2 MSTORE PUSH1 0x20 ADD DUP3 DUP2 MSTORE POP PUSH1 0x2 DUP8 PUSH1 0x40 MLOAD PUSH2 0x1B13 SWAP2 SWAP1 PUSH2 0x4D5E JUMP JUMPDEST SWAP1 DUP2 MSTORE PUSH1 0x40 MLOAD SWAP1 DUP2 SWAP1 SUB PUSH1 0x20 ADD SWAP1 KECCAK256 DUP2 MLOAD DUP2 SWAP1 PUSH2 0x1B30 SWAP1 DUP3 PUSH2 0x4DC9 JUMP JUMPDEST POP PUSH1 0x20 DUP3 ADD MLOAD PUSH1 0x1 DUP3 ADD SWAP1 PUSH2 0x1B45 SWAP1 DUP3 PUSH2 0x4DC9 JUMP JUMPDEST POP PUSH1 0x40 DUP3 ADD MLOAD PUSH1 0x2 DUP3 ADD SWAP1 PUSH2 0x1B5A SWAP1 DUP3 PUSH2 0x4DC9 JUMP JUMPDEST POP PUSH1 0x60 DUP3 ADD MLOAD PUSH1 0x3 DUP3 ADD SWAP1 PUSH2 0x1B6F SWAP1 DUP3 PUSH2 0x4DC9 JUMP JUMPDEST POP PUSH1 0x80 DUP3 ADD MLOAD PUSH1 0x4 DUP3 ADD SWAP1 PUSH2 0x1B84 SWAP1 DUP3 PUSH2 0x4DC9 JUMP JUMPDEST POP PUSH1 0xA0 DUP3 ADD MLOAD DUP1 MLOAD PUSH2 0x1BA0 SWAP2 PUSH1 0x5 DUP5 ADD SWAP2 PUSH1 0x20 SWAP1 SWAP2 ADD SWAP1 PUSH2 0x4059 JUMP JUMPDEST POP SWAP1 POP POP PUSH1 0x0 DUP1 JUMPDEST PUSH1 0x9 SLOAD DUP2 LT ISZERO PUSH2 0x1C32 JUMPI DUP8 PUSH1 0x40 MLOAD PUSH1 0x20 ADD PUSH2 0x1BC3 SWAP2 SWAP1 PUSH2 0x4D5E JUMP JUMPDEST PUSH1 0x40 MLOAD PUSH1 0x20 DUP2 DUP4 SUB SUB DUP2 MSTORE SWAP1 PUSH1 0x40 MSTORE DUP1 MLOAD SWAP1 PUSH1 0x20 ADD KECCAK256 PUSH1 0x9 DUP3 DUP2 SLOAD DUP2 LT PUSH2 0x1BEC JUMPI PUSH2 0x1BEC PUSH2 0x4E87 JUMP JUMPDEST SWAP1 PUSH1 0x0 MSTORE PUSH1 0x20 PUSH1 0x0 KECCAK256 ADD PUSH1 0x40 MLOAD PUSH1 0x20 ADD PUSH2 0x1C06 SWAP2 SWAP1 PUSH2 0x4E9D JUMP JUMPDEST PUSH1 0x40 MLOAD PUSH1 0x20 DUP2 DUP4 SUB SUB DUP2 MSTORE SWAP1 PUSH1 0x40 MSTORE DUP1 MLOAD SWAP1 PUSH1 0x20 ADD KECCAK256 SUB PUSH2 0x1C2A JUMPI PUSH1 0x1 SWAP2 POP PUSH2 0x1C32 JUMP JUMPDEST PUSH1 0x1 ADD PUSH2 0x1BA8 JUMP JUMPDEST POP DUP1 PUSH2 0x1C76 JUMPI PUSH1 0x9 DUP1 SLOAD PUSH1 0x1 DUP2 ADD DUP3 SSTORE PUSH1 0x0 SWAP2 SWAP1 SWAP2 MSTORE PUSH32 0x6E1540171B6C0C960B71A7020D9F60077F6AF931A8BBF590DA0223DACF75C7AF ADD PUSH2 0x1C74 DUP9 DUP3 PUSH2 0x4DC9 JUMP JUMPDEST POP JUMPDEST PUSH32 0x78384878EE8EF9F8C429173968AF06C8E361A98CD306B33D813326106F36681F DUP8 CALLER TIMESTAMP PUSH1 0x40 MLOAD PUSH2 0x1CA9 SWAP4 SWAP3 SWAP2 SWAP1 PUSH2 0x500B JUMP JUMPDEST PUSH1 0x40 MLOAD DUP1 SWAP2 SUB SWAP1 LOG1 POP POP POP POP POP POP POP JUMP JUMPDEST PUSH1 0x60 DUP1 PUSH1 0x60 DUP1 PUSH1 0x60 DUP1 PUSH1 0x0 PUSH1 0x2 DUP9 PUSH1 0x40 MLOAD PUSH2 0x1CD5 SWAP2 SWAP1 PUSH2 0x4D5E JUMP JUMPDEST SWAP1 DUP2 MSTORE PUSH1 0x20 ADD PUSH1 0x40 MLOAD DUP1 SWAP2 SUB SWAP1 KECCAK256 PUSH1 0x40 MLOAD DUP1 PUSH1 0xC0 ADD PUSH1 0x40 MSTORE SWAP1 DUP2 PUSH1 0x0 DUP3 ADD DUP1 SLOAD PUSH2 0x1CFE SWAP1 PUSH2 0x4CE2 JUMP JUMPDEST DUP1 PUSH1 0x1F ADD PUSH1 0x20 DUP1 SWAP2 DIV MUL PUSH1 0x20 ADD PUSH1 0x40 MLOAD SWAP1 DUP2 ADD PUSH1 0x40 MSTORE DUP1 SWAP3 SWAP2 SWAP1 DUP2 DUP2 MSTORE PUSH1 0x20 ADD DUP3 DUP1 SLOAD PUSH2 0x1D2A SWAP1 PUSH2 0x4CE2 JUMP JUMPDEST DUP1 ISZERO PUSH2 0x1D77 JUMPI DUP1 PUSH1 0x1F LT PUSH2 0x1D4C JUMPI PUSH2 0x100 DUP1 DUP4 SLOAD DIV MUL DUP4 MSTORE SWAP2 PUSH1 0x20 ADD SWAP2 PUSH2 0x1D77 JUMP JUMPDEST DUP3 ADD SWAP2 SWAP1 PUSH1 0x0 MSTORE PUSH1 0x20 PUSH1 0x0 KECCAK256 SWAP1 JUMPDEST DUP2 SLOAD DUP2 MSTORE SWAP1 PUSH1 0x1 ADD SWAP1 PUSH1 0x20 ADD DUP1 DUP4 GT PUSH2 0x1D5A JUMPI DUP3 SWAP1 SUB PUSH1 0x1F AND DUP3 ADD SWAP2 JUMPDEST POP POP POP POP POP DUP2 MSTORE PUSH1 0x20 ADD PUSH1 0x1 DUP3 ADD DUP1 SLOAD PUSH2 0x1D90 SWAP1 PUSH2 0x4CE2 JUMP JUMPDEST DUP1 PUSH1 0x1F ADD PUSH1 0x20 DUP1 SWAP2 DIV MUL PUSH1 0x20 ADD PUSH1 0x40 MLOAD SWAP1 DUP2 ADD PUSH1 0x40 MSTORE DUP1 SWAP3 SWAP2 SWAP1 DUP2 DUP2 MSTORE PUSH1 0x20 ADD DUP3 DUP1 SLOAD PUSH2 0x1DBC SWAP1 PUSH2 0x4CE2 JUMP JUMPDEST DUP1 ISZERO PUSH2 0x1E09 JUMPI DUP1 PUSH1 0x1F LT PUSH2 0x1DDE JUMPI PUSH2 0x100 DUP1 DUP4 SLOAD DIV MUL DUP4 MSTORE SWAP2 PUSH1 0x20 ADD SWAP2 PUSH2 0x1E09 JUMP JUMPDEST DUP3 ADD SWAP2 SWAP1 PUSH1 0x0 MSTORE PUSH1 0x20 PUSH1 0x0 KECCAK256 SWAP1 JUMPDEST DUP2 SLOAD DUP2 MSTORE SWAP1 PUSH1 0x1 ADD SWAP1 PUSH1 0x20 ADD DUP1 DUP4 GT PUSH2 0x1DEC JUMPI DUP3 SWAP1 SUB PUSH1 0x1F AND DUP3 ADD SWAP2 JUMPDEST POP POP POP POP POP DUP2 MSTORE PUSH1 0x20 ADD PUSH1 0x2 DUP3 ADD DUP1 SLOAD PUSH2 0x1E22 SWAP1 PUSH2 0x4CE2 JUMP JUMPDEST DUP1 PUSH1 0x1F ADD PUSH1 0x20 DUP1 SWAP2 DIV MUL PUSH1 0x20 ADD PUSH1 0x40 MLOAD SWAP1 DUP2 ADD PUSH1 0x40 MSTORE DUP1 SWAP3 SWAP2 SWAP1 DUP2 DUP2 MSTORE PUSH1 0x20 ADD DUP3 DUP1 SLOAD PUSH2 0x1E4E SWAP1 PUSH2 0x4CE2 JUMP JUMPDEST DUP1 ISZERO PUSH2 0x1E9B JUMPI DUP1 PUSH1 0x1F LT PUSH2 0x1E70 JUMPI PUSH2 0x100 DUP1 DUP4 SLOAD DIV MUL DUP4 MSTORE SWAP2 PUSH1 0x20 ADD SWAP2 PUSH2 0x1E9B JUMP JUMPDEST DUP3 ADD SWAP2 SWAP1 PUSH1 0x0 MSTORE PUSH1 0x20 PUSH1 0x0 KECCAK256 SWAP1 JUMPDEST DUP2 SLOAD DUP2 MSTORE SWAP1 PUSH1 0x1 ADD SWAP1 PUSH1 0x20 ADD DUP1 DUP4 GT PUSH2 0x1E7E JUMPI DUP3 SWAP1 SUB PUSH1 0x1F AND DUP3 ADD SWAP2 JUMPDEST POP POP POP POP POP DUP2 MSTORE PUSH1 0x20 ADD PUSH1 0x3 DUP3 ADD DUP1 SLOAD PUSH2 0x1EB4 SWAP1 PUSH2 0x4CE2 JUMP JUMPDEST DUP1 PUSH1 0x1F ADD PUSH1 0x20 DUP1 SWAP2 DIV MUL PUSH1 0x20 ADD PUSH1 0x40 MLOAD SWAP1 DUP2 ADD PUSH1 0x40 MSTORE DUP1 SWAP3 SWAP2 SWAP1 DUP2 DUP2 MSTORE PUSH1 0x20 ADD DUP3 DUP1 SLOAD PUSH2 0x1EE0 SWAP1 PUSH2 0x4CE2 JUMP JUMPDEST DUP1 ISZERO PUSH2 0x1F2D JUMPI DUP1 PUSH1 0x1F LT PUSH2 0x1F02 JUMPI PUSH2 0x100 DUP1 DUP4 SLOAD DIV MUL DUP4 MSTORE SWAP2 PUSH1 0x20 ADD SWAP2 PUSH2 0x1F2D JUMP JUMPDEST DUP3 ADD SWAP2 SWAP1 PUSH1 0x0 MSTORE PUSH1 0x20 PUSH1 0x0 KECCAK256 SWAP1 JUMPDEST DUP2 SLOAD DUP2 MSTORE SWAP1 PUSH1 0x1 ADD SWAP1 PUSH1 0x20 ADD DUP1 DUP4 GT PUSH2 0x1F10 JUMPI DUP3 SWAP1 SUB PUSH1 0x1F AND DUP3 ADD SWAP2 JUMPDEST POP POP POP POP POP DUP2 MSTORE PUSH1 0x20 ADD PUSH1 0x4 DUP3 ADD DUP1 SLOAD PUSH2 0x1F46 SWAP1 PUSH2 0x4CE2 JUMP JUMPDEST DUP1 PUSH1 0x1F ADD PUSH1 0x20 DUP1 SWAP2 DIV MUL PUSH1 0x20 ADD PUSH1 0x40 MLOAD SWAP1 DUP2 ADD PUSH1 0x40 MSTORE DUP1 SWAP3 SWAP2 SWAP1 DUP2 DUP2 MSTORE PUSH1 0x20 ADD DUP3 DUP1 SLOAD PUSH2 0x1F72 SWAP1 PUSH2 0x4CE2 JUMP JUMPDEST DUP1 ISZERO PUSH2 0x1FBF JUMPI DUP1 PUSH1 0x1F LT PUSH2 0x1F94 JUMPI PUSH2 0x100 DUP1 DUP4 SLOAD DIV MUL DUP4 MSTORE SWAP2 PUSH1 0x20 ADD SWAP2 PUSH2 0x1FBF JUMP JUMPDEST DUP3 ADD SWAP2 SWAP1 PUSH1 0x0 MSTORE PUSH1 0x20 PUSH1 0x0 KECCAK256 SWAP1 JUMPDEST DUP2 SLOAD DUP2 MSTORE SWAP1 PUSH1 0x1 ADD SWAP1 PUSH1 0x20 ADD DUP1 DUP4 GT PUSH2 0x1FA2 JUMPI DUP3 SWAP1 SUB PUSH1 0x1F AND DUP3 ADD SWAP2 JUMPDEST POP POP POP POP POP DUP2 MSTORE PUSH1 0x20 ADD PUSH1 0x5 DUP3 ADD DUP1 SLOAD DUP1 PUSH1 0x20 MUL PUSH1 0x20 ADD PUSH1 0x40 MLOAD SWAP1 DUP2 ADD PUSH1 0x40 MSTORE DUP1 SWAP3 SWAP2 SWAP1 DUP2 DUP2 MSTORE PUSH1 0x20 ADD PUSH1 0x0 SWAP1 JUMPDEST DUP3 DUP3 LT ISZERO PUSH2 0x2099 JUMPI DUP4 DUP3 SWAP1 PUSH1 0x0 MSTORE PUSH1 0x20 PUSH1 0x0 KECCAK256 ADD DUP1 SLOAD PUSH2 0x200C SWAP1 PUSH2 0x4CE2 JUMP JUMPDEST DUP1 PUSH1 0x1F ADD PUSH1 0x20 DUP1 SWAP2 DIV MUL PUSH1 0x20 ADD PUSH1 0x40 MLOAD SWAP1 DUP2 ADD PUSH1 0x40 MSTORE DUP1 SWAP3 SWAP2 SWAP1 DUP2 DUP2 MSTORE PUSH1 0x20 ADD DUP3 DUP1 SLOAD PUSH2 0x2038 SWAP1 PUSH2 0x4CE2 JUMP JUMPDEST DUP1 ISZERO PUSH2 0x2085 JUMPI DUP1 PUSH1 0x1F LT PUSH2 0x205A JUMPI PUSH2 0x100 DUP1 DUP4 SLOAD DIV MUL DUP4 MSTORE SWAP2 PUSH1 0x20 ADD SWAP2 PUSH2 0x2085 JUMP JUMPDEST DUP3 ADD SWAP2 SWAP1 PUSH1 0x0 MSTORE PUSH1 0x20 PUSH1 0x0 KECCAK256 SWAP1 JUMPDEST DUP2 SLOAD DUP2 MSTORE SWAP1 PUSH1 0x1 ADD SWAP1 PUSH1 0x20 ADD DUP1 DUP4 GT PUSH2 0x2068 JUMPI DUP3 SWAP1 SUB PUSH1 0x1F AND DUP3 ADD SWAP2 JUMPDEST POP POP POP POP POP DUP2 MSTORE PUSH1 0x20 ADD SWAP1 PUSH1 0x1 ADD SWAP1 PUSH2 0x1FED JUMP JUMPDEST POP POP POP SWAP2 MSTORE POP POP DUP1 MLOAD PUSH1 0x20 DUP3 ADD MLOAD PUSH1 0x40 DUP4 ADD MLOAD PUSH1 0x60 DUP5 ADD MLOAD PUSH1 0x80 DUP6 ADD MLOAD PUSH1 0xA0 SWAP1 SWAP6 ADD MLOAD SWAP4 SWAP14 SWAP3 SWAP13 POP SWAP1 SWAP11 POP SWAP9 POP SWAP2 SWAP7 POP SWAP5 POP SWAP3 POP POP POP JUMP JUMPDEST PUSH1 0x9 DUP2 DUP2 SLOAD DUP2 LT PUSH2 0x118D JUMPI PUSH1 0x0 DUP1 REVERT JUMPDEST PUSH1 0x1 PUSH1 0x1 PUSH1 0xA0 SHL SUB DUP2 AND PUSH1 0x0 SWAP1 DUP2 MSTORE PUSH1 0x6 PUSH1 0x20 SWAP1 DUP2 MSTORE PUSH1 0x40 SWAP2 DUP3 SWAP1 KECCAK256 DUP1 SLOAD DUP4 MLOAD DUP2 DUP5 MUL DUP2 ADD DUP5 ADD SWAP1 SWAP5 MSTORE DUP1 DUP5 MSTORE PUSH1 0x60 SWAP4 SWAP3 DUP4 ADD DUP3 DUP3 DUP1 ISZERO PUSH2 0x2141 JUMPI PUSH1 0x20 MUL DUP3 ADD SWAP2 SWAP1 PUSH1 0x0 MSTORE PUSH1 0x20 PUSH1 0x0 KECCAK256 SWAP1 JUMPDEST DUP2 SLOAD DUP2 MSTORE PUSH1 0x20 ADD SWAP1 PUSH1 0x1 ADD SWAP1 DUP1 DUP4 GT PUSH2 0x212D JUMPI JUMPDEST POP POP POP POP POP SWAP1 POP SWAP2 SWAP1 POP JUMP JUMPDEST PUSH1 0x60 PUSH1 0xD DUP3 PUSH1 0x40 MLOAD PUSH2 0x215F SWAP2 SWAP1 PUSH2 0x4D5E JUMP JUMPDEST SWAP1 DUP2 MSTORE PUSH1 0x20 ADD PUSH1 0x40 MLOAD DUP1 SWAP2 SUB SWAP1 KECCAK256 DUP1 SLOAD PUSH2 0x2178 SWAP1 PUSH2 0x4CE2 JUMP JUMPDEST DUP1 PUSH1 0x1F ADD PUSH1 0x20 DUP1 SWAP2 DIV MUL PUSH1 0x20 ADD PUSH1 0x40 MLOAD SWAP1 DUP2 ADD PUSH1 0x40 MSTORE DUP1 SWAP3 SWAP2 SWAP1 DUP2 DUP2 MSTORE PUSH1 0x20 ADD DUP3 DUP1 SLOAD PUSH2 0x21A4 SWAP1 PUSH2 0x4CE2 JUMP JUMPDEST DUP1 ISZERO PUSH2 0x2141 JUMPI DUP1 PUSH1 0x1F LT PUSH2 0x21C6 JUMPI PUSH2 0x100 DUP1 DUP4 SLOAD DIV MUL DUP4 MSTORE SWAP2 PUSH1 0x20 ADD SWAP2 PUSH2 0x2141 JUMP JUMPDEST DUP3 ADD SWAP2 SWAP1 PUSH1 0x0 MSTORE PUSH1 0x20 PUSH1 0x0 KECCAK256 SWAP1 JUMPDEST DUP2 SLOAD DUP2 MSTORE SWAP1 PUSH1 0x1 ADD SWAP1 PUSH1 0x20 ADD DUP1 DUP4 GT PUSH2 0x21D4 JUMPI POP SWAP4 SWAP7 SWAP6 POP POP POP POP POP POP JUMP JUMPDEST PUSH1 0x60 DUP1 PUSH1 0x60 PUSH1 0x0 PUSH1 0x60 PUSH1 0x0 PUSH1 0x60 PUSH1 0x0 PUSH1 0x3 DUP10 PUSH1 0x40 MLOAD PUSH2 0x2212 SWAP2 SWAP1 PUSH2 0x4D5E JUMP JUMPDEST SWAP1 DUP2 MSTORE PUSH1 0x20 ADD PUSH1 0x40 MLOAD DUP1 SWAP2 SUB SWAP1 KECCAK256 PUSH1 0x40 MLOAD DUP1 PUSH1 0xE0 ADD PUSH1 0x40 MSTORE SWAP1 DUP2 PUSH1 0x0 DUP3 ADD DUP1 SLOAD PUSH2 0x223B SWAP1 PUSH2 0x4CE2 JUMP JUMPDEST DUP1 PUSH1 0x1F ADD PUSH1 0x20 DUP1 SWAP2 DIV MUL PUSH1 0x20 ADD PUSH1 0x40 MLOAD SWAP1 DUP2 ADD PUSH1 0x40 MSTORE DUP1 SWAP3 SWAP2 SWAP1 DUP2 DUP2 MSTORE PUSH1 0x20 ADD DUP3 DUP1 SLOAD PUSH2 0x2267 SWAP1 PUSH2 0x4CE2 JUMP JUMPDEST DUP1 ISZERO PUSH2 0x22B4 JUMPI DUP1 PUSH1 0x1F LT PUSH2 0x2289 JUMPI PUSH2 0x100 DUP1 DUP4 SLOAD DIV MUL DUP4 MSTORE SWAP2 PUSH1 0x20 ADD SWAP2 PUSH2 0x22B4 JUMP JUMPDEST DUP3 ADD SWAP2 SWAP1 PUSH1 0x0 MSTORE PUSH1 0x20 PUSH1 0x0 KECCAK256 SWAP1 JUMPDEST DUP2 SLOAD DUP2 MSTORE SWAP1 PUSH1 0x1 ADD SWAP1 PUSH1 0x20 ADD DUP1 DUP4 GT PUSH2 0x2297 JUMPI DUP3 SWAP1 SUB PUSH1 0x1F AND DUP3 ADD SWAP2 JUMPDEST POP POP POP POP POP DUP2 MSTORE PUSH1 0x20 ADD PUSH1 0x1 DUP3 ADD DUP1 SLOAD PUSH2 0x22CD SWAP1 PUSH2 0x4CE2 JUMP JUMPDEST DUP1 PUSH1 0x1F ADD PUSH1 0x20 DUP1 SWAP2 DIV MUL PUSH1 0x20 ADD PUSH1 0x40 MLOAD SWAP1 DUP2 ADD PUSH1 0x40 MSTORE DUP1 SWAP3 SWAP2 SWAP1 DUP2 DUP2 MSTORE PUSH1 0x20 ADD DUP3 DUP1 SLOAD PUSH2 0x22F9 SWAP1 PUSH2 0x4CE2 JUMP JUMPDEST DUP1 ISZERO PUSH2 0x2346 JUMPI DUP1 PUSH1 0x1F LT PUSH2 0x231B JUMPI PUSH2 0x100 DUP1 DUP4 SLOAD DIV MUL DUP4 MSTORE SWAP2 PUSH1 0x20 ADD SWAP2 PUSH2 0x2346 JUMP JUMPDEST DUP3 ADD SWAP2 SWAP1 PUSH1 0x0 MSTORE PUSH1 0x20 PUSH1 0x0 KECCAK256 SWAP1 JUMPDEST DUP2 SLOAD DUP2 MSTORE SWAP1 PUSH1 0x1 ADD SWAP1 PUSH1 0x20 ADD DUP1 DUP4 GT PUSH2 0x2329 JUMPI DUP3 SWAP1 SUB PUSH1 0x1F AND DUP3 ADD SWAP2 JUMPDEST POP POP POP POP POP DUP2 MSTORE PUSH1 0x20 ADD PUSH1 0x2 DUP3 ADD DUP1 SLOAD PUSH2 0x235F SWAP1 PUSH2 0x4CE2 JUMP JUMPDEST DUP1 PUSH1 0x1F ADD PUSH1 0x20 DUP1 SWAP2 DIV MUL PUSH1 0x20 ADD PUSH1 0x40 MLOAD SWAP1 DUP2 ADD PUSH1 0x40 MSTORE DUP1 SWAP3 SWAP2 SWAP1 DUP2 DUP2 MSTORE PUSH1 0x20 ADD DUP3 DUP1 SLOAD PUSH2 0x238B SWAP1 PUSH2 0x4CE2 JUMP JUMPDEST DUP1 ISZERO PUSH2 0x23D8 JUMPI DUP1 PUSH1 0x1F LT PUSH2 0x23AD JUMPI PUSH2 0x100 DUP1 DUP4 SLOAD DIV MUL DUP4 MSTORE SWAP2 PUSH1 0x20 ADD SWAP2 PUSH2 0x23D8 JUMP JUMPDEST DUP3 ADD SWAP2 SWAP1 PUSH1 0x0 MSTORE PUSH1 0x20 PUSH1 0x0 KECCAK256 SWAP1 JUMPDEST DUP2 SLOAD DUP2 MSTORE SWAP1 PUSH1 0x1 ADD SWAP1 PUSH1 0x20 ADD DUP1 DUP4 GT PUSH2 0x23BB JUMPI DUP3 SWAP1 SUB PUSH1 0x1F AND DUP3 ADD SWAP2 JUMPDEST POP POP POP POP POP DUP2 MSTORE PUSH1 0x20 ADD PUSH1 0x3 DUP3 ADD SLOAD DUP2 MSTORE PUSH1 0x20 ADD PUSH1 0x4 DUP3 ADD DUP1 SLOAD PUSH2 0x23FB SWAP1 PUSH2 0x4CE2 JUMP JUMPDEST DUP1 PUSH1 0x1F ADD PUSH1 0x20 DUP1 SWAP2 DIV MUL PUSH1 0x20 ADD PUSH1 0x40 MLOAD SWAP1 DUP2 ADD PUSH1 0x40 MSTORE DUP1 SWAP3 SWAP2 SWAP1 DUP2 DUP2 MSTORE PUSH1 0x20 ADD DUP3 DUP1 SLOAD PUSH2 0x2427 SWAP1 PUSH2 0x4CE2 JUMP JUMPDEST DUP1 ISZERO PUSH2 0x2474 JUMPI DUP1 PUSH1 0x1F LT PUSH2 0x2449 JUMPI PUSH2 0x100 DUP1 DUP4 SLOAD DIV MUL DUP4 MSTORE SWAP2 PUSH1 0x20 ADD SWAP2 PUSH2 0x2474 JUMP JUMPDEST DUP3 ADD SWAP2 SWAP1 PUSH1 0x0 MSTORE PUSH1 0x20 PUSH1 0x0 KECCAK256 SWAP1 JUMPDEST DUP2 SLOAD DUP2 MSTORE SWAP1 PUSH1 0x1 ADD SWAP1 PUSH1 0x20 ADD DUP1 DUP4 GT PUSH2 0x2457 JUMPI DUP3 SWAP1 SUB PUSH1 0x1F AND DUP3 ADD SWAP2 JUMPDEST POP POP POP SWAP2 DUP4 MSTORE POP POP PUSH1 0x5 DUP3 ADD SLOAD PUSH1 0x1 PUSH1 0x1 PUSH1 0xA0 SHL SUB AND PUSH1 0x20 DUP1 DUP4 ADD SWAP2 SWAP1 SWAP2 MSTORE PUSH1 0x6 DUP4 ADD DUP1 SLOAD PUSH1 0x40 DUP1 MLOAD DUP3 DUP6 MUL DUP2 ADD DUP6 ADD DUP3 MSTORE DUP3 DUP2 MSTORE SWAP5 ADD SWAP4 SWAP3 DUP4 ADD DUP3 DUP3 DUP1 ISZERO PUSH2 0x24DC JUMPI PUSH1 0x20 MUL DUP3 ADD SWAP2 SWAP1 PUSH1 0x0 MSTORE PUSH1 0x20 PUSH1 0x0 KECCAK256 SWAP1 JUMPDEST DUP2 SLOAD DUP2 MSTORE PUSH1 0x20 ADD SWAP1 PUSH1 0x1 ADD SWAP1 DUP1 DUP4 GT PUSH2 0x24C8 JUMPI JUMPDEST POP POP POP POP POP DUP2 MSTORE POP POP SWAP1 POP DUP1 PUSH1 0x0 ADD MLOAD DUP2 PUSH1 0x20 ADD MLOAD DUP3 PUSH1 0x40 ADD MLOAD DUP4 PUSH1 0x60 ADD MLOAD DUP5 PUSH1 0x80 ADD MLOAD DUP6 PUSH1 0xA0 ADD MLOAD DUP7 PUSH1 0xC0 ADD MLOAD SWAP8 POP SWAP8 POP SWAP8 POP SWAP8 POP SWAP8 POP SWAP8 POP SWAP8 POP POP SWAP2 SWAP4 SWAP6 SWAP8 SWAP1 SWAP3 SWAP5 SWAP7 POP JUMP JUMPDEST PUSH1 0x60 PUSH1 0x0 PUSH1 0x8 SLOAD PUSH1 0x1 PUSH1 0x1 PUSH1 0x40 SHL SUB DUP2 GT ISZERO PUSH2 0x2542 JUMPI PUSH2 0x2542 PUSH2 0x436F JUMP JUMPDEST PUSH1 0x40 MLOAD SWAP1 DUP1 DUP3 MSTORE DUP1 PUSH1 0x20 MUL PUSH1 0x20 ADD DUP3 ADD PUSH1 0x40 MSTORE DUP1 ISZERO PUSH2 0x256B JUMPI DUP2 PUSH1 0x20 ADD PUSH1 0x20 DUP3 MUL DUP1 CALLDATASIZE DUP4 CALLDATACOPY ADD SWAP1 POP JUMPDEST POP SWAP1 POP PUSH1 0x0 DUP1 JUMPDEST PUSH1 0xB SLOAD DUP2 LT ISZERO PUSH2 0x2613 JUMPI PUSH1 0x5 PUSH1 0x0 PUSH1 0xB DUP4 DUP2 SLOAD DUP2 LT PUSH2 0x2593 JUMPI PUSH2 0x2593 PUSH2 0x4E87 JUMP JUMPDEST SWAP1 PUSH1 0x0 MSTORE PUSH1 0x20 PUSH1 0x0 KECCAK256 ADD SLOAD DUP2 MSTORE PUSH1 0x20 ADD SWAP1 DUP2 MSTORE PUSH1 0x20 ADD PUSH1 0x0 KECCAK256 PUSH1 0x3 ADD PUSH1 0x14 SWAP1 SLOAD SWAP1 PUSH2 0x100 EXP SWAP1 DIV PUSH1 0xFF AND ISZERO PUSH2 0x260B JUMPI PUSH1 0xB DUP2 DUP2 SLOAD DUP2 LT PUSH2 0x25D5 JUMPI PUSH2 0x25D5 PUSH2 0x4E87 JUMP JUMPDEST SWAP1 PUSH1 0x0 MSTORE PUSH1 0x20 PUSH1 0x0 KECCAK256 ADD SLOAD DUP4 DUP4 DUP2 MLOAD DUP2 LT PUSH2 0x25F2 JUMPI PUSH2 0x25F2 PUSH2 0x4E87 JUMP JUMPDEST PUSH1 0x20 SWAP1 DUP2 MUL SWAP2 SWAP1 SWAP2 ADD ADD MSTORE DUP2 PUSH2 0x2607 DUP2 PUSH2 0x4FD9 JUMP JUMPDEST SWAP3 POP POP JUMPDEST PUSH1 0x1 ADD PUSH2 0x2572 JUMP JUMPDEST POP PUSH1 0x0 DUP2 PUSH1 0x1 PUSH1 0x1 PUSH1 0x40 SHL SUB DUP2 GT ISZERO PUSH2 0x262E JUMPI PUSH2 0x262E PUSH2 0x436F JUMP JUMPDEST PUSH1 0x40 MLOAD SWAP1 DUP1 DUP3 MSTORE DUP1 PUSH1 0x20 MUL PUSH1 0x20 ADD DUP3 ADD PUSH1 0x40 MSTORE DUP1 ISZERO PUSH2 0x2657 JUMPI DUP2 PUSH1 0x20 ADD PUSH1 0x20 DUP3 MUL DUP1 CALLDATASIZE DUP4 CALLDATACOPY ADD SWAP1 POP JUMPDEST POP SWAP1 POP PUSH1 0x0 JUMPDEST DUP3 DUP2 LT ISZERO PUSH2 0x26A4 JUMPI DUP4 DUP2 DUP2 MLOAD DUP2 LT PUSH2 0x2677 JUMPI PUSH2 0x2677 PUSH2 0x4E87 JUMP JUMPDEST PUSH1 0x20 MUL PUSH1 0x20 ADD ADD MLOAD DUP3 DUP3 DUP2 MLOAD DUP2 LT PUSH2 0x2691 JUMPI PUSH2 0x2691 PUSH2 0x4E87 JUMP JUMPDEST PUSH1 0x20 SWAP1 DUP2 MUL SWAP2 SWAP1 SWAP2 ADD ADD MSTORE PUSH1 0x1 ADD PUSH2 0x265D JUMP JUMPDEST POP SWAP4 SWAP3 POP POP POP JUMP JUMPDEST PUSH1 0x60 DUP1 PUSH1 0x0 PUSH1 0x60 PUSH1 0x0 PUSH1 0x60 DUP1 PUSH1 0x0 DUP1 DUP10 GT DUP1 ISZERO PUSH2 0x26CB JUMPI POP PUSH1 0x7 SLOAD DUP10 GT ISZERO JUMPDEST PUSH2 0x26E7 JUMPI PUSH1 0x40 MLOAD PUSH3 0x461BCD PUSH1 0xE5 SHL DUP2 MSTORE PUSH1 0x4 ADD PUSH2 0x10E6 SWAP1 PUSH2 0x4F70 JUMP JUMPDEST PUSH1 0x0 DUP10 DUP2 MSTORE PUSH1 0x4 PUSH1 0x20 MSTORE PUSH1 0x40 DUP1 DUP3 KECCAK256 DUP2 MLOAD PUSH2 0x100 DUP2 ADD SWAP1 SWAP3 MSTORE DUP1 SLOAD DUP3 SWAP1 DUP3 SWAP1 PUSH2 0x270F SWAP1 PUSH2 0x4CE2 JUMP JUMPDEST DUP1 PUSH1 0x1F ADD PUSH1 0x20 DUP1 SWAP2 DIV MUL PUSH1 0x20 ADD PUSH1 0x40 MLOAD SWAP1 DUP2 ADD PUSH1 0x40 MSTORE DUP1 SWAP3 SWAP2 SWAP1 DUP2 DUP2 MSTORE PUSH1 0x20 ADD DUP3 DUP1 SLOAD PUSH2 0x273B SWAP1 PUSH2 0x4CE2 JUMP JUMPDEST DUP1 ISZERO PUSH2 0x2788 JUMPI DUP1 PUSH1 0x1F LT PUSH2 0x275D JUMPI PUSH2 0x100 DUP1 DUP4 SLOAD DIV MUL DUP4 MSTORE SWAP2 PUSH1 0x20 ADD SWAP2 PUSH2 0x2788 JUMP JUMPDEST DUP3 ADD SWAP2 SWAP1 PUSH1 0x0 MSTORE PUSH1 0x20 PUSH1 0x0 KECCAK256 SWAP1 JUMPDEST DUP2 SLOAD DUP2 MSTORE SWAP1 PUSH1 0x1 ADD SWAP1 PUSH1 0x20 ADD DUP1 DUP4 GT PUSH2 0x276B JUMPI DUP3 SWAP1 SUB PUSH1 0x1F AND DUP3 ADD SWAP2 JUMPDEST POP POP POP POP POP DUP2 MSTORE PUSH1 0x20 ADD PUSH1 0x1 DUP3 ADD DUP1 SLOAD PUSH2 0x27A1 SWAP1 PUSH2 0x4CE2 JUMP JUMPDEST DUP1 PUSH1 0x1F ADD PUSH1 0x20 DUP1 SWAP2 DIV MUL PUSH1 0x20 ADD PUSH1 0x40 MLOAD SWAP1 DUP2 ADD PUSH1 0x40 MSTORE DUP1 SWAP3 SWAP2 SWAP1 DUP2 DUP2 MSTORE PUSH1 0x20 ADD DUP3 DUP1 SLOAD PUSH2 0x27CD SWAP1 PUSH2 0x4CE2 JUMP JUMPDEST DUP1 ISZERO PUSH2 0x281A JUMPI DUP1 PUSH1 0x1F LT PUSH2 0x27EF JUMPI PUSH2 0x100 DUP1 DUP4 SLOAD DIV MUL DUP4 MSTORE SWAP2 PUSH1 0x20 ADD SWAP2 PUSH2 0x281A JUMP JUMPDEST DUP3 ADD SWAP2 SWAP1 PUSH1 0x0 MSTORE PUSH1 0x20 PUSH1 0x0 KECCAK256 SWAP1 JUMPDEST DUP2 SLOAD DUP2 MSTORE SWAP1 PUSH1 0x1 ADD SWAP1 PUSH1 0x20 ADD DUP1 DUP4 GT PUSH2 0x27FD JUMPI DUP3 SWAP1 SUB PUSH1 0x1F AND DUP3 ADD SWAP2 JUMPDEST POP POP POP SWAP2 DUP4 MSTORE POP POP PUSH1 0x2 DUP3 ADD SLOAD PUSH1 0x1 PUSH1 0x1 PUSH1 0xA0 SHL SUB AND PUSH1 0x20 DUP3 ADD MSTORE PUSH1 0x3 DUP3 ADD SLOAD PUSH1 0x40 DUP3 ADD MSTORE PUSH1 0x4 DUP3 ADD DUP1 SLOAD PUSH1 0x60 SWAP1 SWAP3 ADD SWAP2 PUSH2 0x2854 SWAP1 PUSH2 0x4CE2 JUMP JUMPDEST DUP1 PUSH1 0x1F ADD PUSH1 0x20 DUP1 SWAP2 DIV MUL PUSH1 0x20 ADD PUSH1 0x40 MLOAD SWAP1 DUP2 ADD PUSH1 0x40 MSTORE DUP1 SWAP3 SWAP2 SWAP1 DUP2 DUP2 MSTORE PUSH1 0x20 ADD DUP3 DUP1 SLOAD PUSH2 0x2880 SWAP1 PUSH2 0x4CE2 JUMP JUMPDEST DUP1 ISZERO PUSH2 0x28CD JUMPI DUP1 PUSH1 0x1F LT PUSH2 0x28A2 JUMPI PUSH2 0x100 DUP1 DUP4 SLOAD DIV MUL DUP4 MSTORE SWAP2 PUSH1 0x20 ADD SWAP2 PUSH2 0x28CD JUMP JUMPDEST DUP3 ADD SWAP2 SWAP1 PUSH1 0x0 MSTORE PUSH1 0x20 PUSH1 0x0 KECCAK256 SWAP1 JUMPDEST DUP2 SLOAD DUP2 MSTORE SWAP1 PUSH1 0x1 ADD SWAP1 PUSH1 0x20 ADD DUP1 DUP4 GT PUSH2 0x28B0 JUMPI DUP3 SWAP1 SUB PUSH1 0x1F AND DUP3 ADD SWAP2 JUMPDEST POP POP POP POP POP DUP2 MSTORE PUSH1 0x20 ADD PUSH1 0x5 DUP3 ADD SLOAD DUP2 MSTORE PUSH1 0x20 ADD PUSH1 0x6 DUP3 ADD DUP1 SLOAD DUP1 PUSH1 0x20 MUL PUSH1 0x20 ADD PUSH1 0x40 MLOAD SWAP1 DUP2 ADD PUSH1 0x40 MSTORE DUP1 SWAP3 SWAP2 SWAP1 DUP2 DUP2 MSTORE PUSH1 0x20 ADD PUSH1 0x0 SWAP1 JUMPDEST DUP3 DUP3 LT ISZERO PUSH2 0x29B1 JUMPI DUP4 DUP3 SWAP1 PUSH1 0x0 MSTORE PUSH1 0x20 PUSH1 0x0 KECCAK256 ADD DUP1 SLOAD PUSH2 0x2924 SWAP1 PUSH2 0x4CE2 JUMP JUMPDEST DUP1 PUSH1 0x1F ADD PUSH1 0x20 DUP1 SWAP2 DIV MUL PUSH1 0x20 ADD PUSH1 0x40 MLOAD SWAP1 DUP2 ADD PUSH1 0x40 MSTORE DUP1 SWAP3 SWAP2 SWAP1 DUP2 DUP2 MSTORE PUSH1 0x20 ADD DUP3 DUP1 SLOAD PUSH2 0x2950 SWAP1 PUSH2 0x4CE2 JUMP JUMPDEST DUP1 ISZERO PUSH2 0x299D JUMPI DUP1 PUSH1 0x1F LT PUSH2 0x2972 JUMPI PUSH2 0x100 DUP1 DUP4 SLOAD DIV MUL DUP4 MSTORE SWAP2 PUSH1 0x20 ADD SWAP2 PUSH2 0x299D JUMP JUMPDEST DUP3 ADD SWAP2 SWAP1 PUSH1 0x0 MSTORE PUSH1 0x20 PUSH1 0x0 KECCAK256 SWAP1 JUMPDEST DUP2 SLOAD DUP2 MSTORE SWAP1 PUSH1 0x1 ADD SWAP1 PUSH1 0x20 ADD DUP1 DUP4 GT PUSH2 0x2980 JUMPI DUP3 SWAP1 SUB PUSH1 0x1F AND DUP3 ADD SWAP2 JUMPDEST POP POP POP POP POP DUP2 MSTORE PUSH1 0x20 ADD SWAP1 PUSH1 0x1 ADD SWAP1 PUSH2 0x2905 JUMP JUMPDEST POP POP POP POP DUP2 MSTORE PUSH1 0x20 ADD PUSH1 0x7 DUP3 ADD DUP1 SLOAD DUP1 PUSH1 0x20 MUL PUSH1 0x20 ADD PUSH1 0x40 MLOAD SWAP1 DUP2 ADD PUSH1 0x40 MSTORE DUP1 SWAP3 SWAP2 SWAP1 DUP2 DUP2 MSTORE PUSH1 0x20 ADD PUSH1 0x0 SWAP1 JUMPDEST DUP3 DUP3 LT ISZERO PUSH2 0x2A8A JUMPI DUP4 DUP3 SWAP1 PUSH1 0x0 MSTORE PUSH1 0x20 PUSH1 0x0 KECCAK256 ADD DUP1 SLOAD PUSH2 0x29FD SWAP1 PUSH2 0x4CE2 JUMP JUMPDEST DUP1 PUSH1 0x1F ADD PUSH1 0x20 DUP1 SWAP2 DIV MUL PUSH1 0x20 ADD PUSH1 0x40 MLOAD SWAP1 DUP2 ADD PUSH1 0x40 MSTORE DUP1 SWAP3 SWAP2 SWAP1 DUP2 DUP2 MSTORE PUSH1 0x20 ADD DUP3 DUP1 SLOAD PUSH2 0x2A29 SWAP1 PUSH2 0x4CE2 JUMP JUMPDEST DUP1 ISZERO PUSH2 0x2A76 JUMPI DUP1 PUSH1 0x1F LT PUSH2 0x2A4B JUMPI PUSH2 0x100 DUP1 DUP4 SLOAD DIV MUL DUP4 MSTORE SWAP2 PUSH1 0x20 ADD SWAP2 PUSH2 0x2A76 JUMP JUMPDEST DUP3 ADD SWAP2 SWAP1 PUSH1 0x0 MSTORE PUSH1 0x20 PUSH1 0x0 KECCAK256 SWAP1 JUMPDEST DUP2 SLOAD DUP2 MSTORE SWAP1 PUSH1 0x1 ADD SWAP1 PUSH1 0x20 ADD DUP1 DUP4 GT PUSH2 0x2A59 JUMPI DUP3 SWAP1 SUB PUSH1 0x1F AND DUP3 ADD SWAP2 JUMPDEST POP POP POP POP POP DUP2 MSTORE PUSH1 0x20 ADD SWAP1 PUSH1 0x1 ADD SWAP1 PUSH2 0x29DE JUMP JUMPDEST POP POP POP POP DUP2 MSTORE POP POP SWAP1 POP DUP1 PUSH1 0x0 ADD MLOAD DUP2 PUSH1 0x20 ADD MLOAD DUP3 PUSH1 0x40 ADD MLOAD DUP4 PUSH1 0xC0 ADD MLOAD DUP5 PUSH1 0x60 ADD MLOAD DUP6 PUSH1 0x80 ADD MLOAD DUP7 PUSH1 0xE0 ADD MLOAD DUP8 PUSH1 0xA0 ADD MLOAD SWAP9 POP SWAP9 POP SWAP9 POP SWAP9 POP SWAP9 POP SWAP9 POP SWAP9 POP SWAP9 POP POP SWAP2 SWAP4 SWAP6 SWAP8 POP SWAP2 SWAP4 SWAP6 SWAP8 JUMP JUMPDEST PUSH1 0x0 DUP3 GT DUP1 ISZERO PUSH2 0x2AEA JUMPI POP PUSH1 0x8 SLOAD DUP3 GT ISZERO JUMPDEST PUSH2 0x2B2B JUMPI PUSH1 0x40 MLOAD PUSH3 0x461BCD PUSH1 0xE5 SHL DUP2 MSTORE PUSH1 0x20 PUSH1 0x4 DUP3 ADD MSTORE PUSH1 0x12 PUSH1 0x24 DUP3 ADD MSTORE PUSH18 0x125B9D985B1A5908131A5CDD1A5B99C81251 PUSH1 0x72 SHL PUSH1 0x44 DUP3 ADD MSTORE PUSH1 0x64 ADD PUSH2 0x10E6 JUMP JUMPDEST PUSH1 0x0 DUP3 DUP2 MSTORE PUSH1 0x5 PUSH1 0x20 MSTORE PUSH1 0x40 SWAP1 KECCAK256 PUSH1 0x3 DUP2 ADD SLOAD PUSH1 0x1 PUSH1 0xA0 SHL SWAP1 DIV PUSH1 0xFF AND PUSH2 0x2BA2 JUMPI PUSH1 0x40 MLOAD PUSH3 0x461BCD PUSH1 0xE5 SHL DUP2 MSTORE PUSH1 0x20 PUSH1 0x4 DUP3 ADD MSTORE PUSH1 0x25 PUSH1 0x24 DUP3 ADD MSTORE PUSH32 0x50726F64756374206973206E6F7420617661696C61626C6520666F7220707572 PUSH1 0x44 DUP3 ADD MSTORE PUSH5 0x6368617365 PUSH1 0xD8 SHL PUSH1 0x64 DUP3 ADD MSTORE PUSH1 0x84 ADD PUSH2 0x10E6 JUMP JUMPDEST PUSH1 0x0 DUP3 GT DUP1 ISZERO PUSH2 0x2BB6 JUMPI POP DUP1 PUSH1 0x2 ADD SLOAD DUP3 GT ISZERO JUMPDEST PUSH2 0x2BF5 JUMPI PUSH1 0x40 MLOAD PUSH3 0x461BCD PUSH1 0xE5 SHL DUP2 MSTORE PUSH1 0x20 PUSH1 0x4 DUP3 ADD MSTORE PUSH1 0x10 PUSH1 0x24 DUP3 ADD MSTORE PUSH16 0x496E76616C6964207175616E74697479 PUSH1 0x80 SHL PUSH1 0x44 DUP3 ADD MSTORE PUSH1 0x64 ADD PUSH2 0x10E6 JUMP JUMPDEST PUSH1 0x5 DUP2 ADD SLOAD PUSH1 0xFF AND PUSH2 0x2C5E JUMPI DUP1 PUSH1 0x2 ADD SLOAD DUP3 EQ PUSH2 0x2C5E JUMPI PUSH1 0x40 MLOAD PUSH3 0x461BCD PUSH1 0xE5 SHL DUP2 MSTORE PUSH1 0x20 PUSH1 0x4 DUP3 ADD MSTORE PUSH1 0x21 PUSH1 0x24 DUP3 ADD MSTORE PUSH32 0x4D7573742070757263686173652074686520656E74697265207175616E746974 PUSH1 0x44 DUP3 ADD MSTORE PUSH1 0x79 PUSH1 0xF8 SHL PUSH1 0x64 DUP3 ADD MSTORE PUSH1 0x84 ADD PUSH2 0x10E6 JUMP JUMPDEST PUSH1 0x0 DUP2 PUSH1 0x2 ADD SLOAD DUP3 PUSH1 0x1 ADD SLOAD PUSH2 0x2C74 SWAP2 SWAP1 PUSH2 0x504F JUMP JUMPDEST SWAP1 POP PUSH1 0x0 PUSH2 0x2C82 DUP5 DUP4 PUSH2 0x5063 JUMP JUMPDEST SWAP1 POP DUP1 CALLVALUE LT ISZERO PUSH2 0x2CCB JUMPI PUSH1 0x40 MLOAD PUSH3 0x461BCD PUSH1 0xE5 SHL DUP2 MSTORE PUSH1 0x20 PUSH1 0x4 DUP3 ADD MSTORE PUSH1 0x14 PUSH1 0x24 DUP3 ADD MSTORE PUSH20 0x125B9CDD59999A58DA595B9D081C185E5B595B9D PUSH1 0x62 SHL PUSH1 0x44 DUP3 ADD MSTORE PUSH1 0x64 ADD PUSH2 0x10E6 JUMP JUMPDEST PUSH1 0x3 DUP4 ADD SLOAD PUSH1 0x40 MLOAD PUSH1 0x1 PUSH1 0x1 PUSH1 0xA0 SHL SUB SWAP1 SWAP2 AND SWAP1 DUP3 ISZERO PUSH2 0x8FC MUL SWAP1 DUP4 SWAP1 PUSH1 0x0 DUP2 DUP2 DUP2 DUP6 DUP9 DUP9 CALL SWAP4 POP POP POP POP ISZERO DUP1 ISZERO PUSH2 0x2D07 JUMPI RETURNDATASIZE PUSH1 0x0 DUP1 RETURNDATACOPY RETURNDATASIZE PUSH1 0x0 REVERT JUMPDEST POP DUP4 DUP4 PUSH1 0x2 ADD PUSH1 0x0 DUP3 DUP3 SLOAD PUSH2 0x2D1C SWAP2 SWAP1 PUSH2 0x4FF2 JUMP JUMPDEST SWAP1 SWAP2 SSTORE POP POP PUSH1 0x2 DUP4 ADD SLOAD PUSH1 0x0 SUB PUSH2 0x2D3D JUMPI PUSH1 0x3 DUP4 ADD DUP1 SLOAD PUSH1 0xFF PUSH1 0xA0 SHL NOT AND SWAP1 SSTORE JUMPDEST DUP3 SLOAD PUSH1 0x0 SWAP1 DUP2 MSTORE PUSH1 0x4 PUSH1 0x20 MSTORE PUSH1 0x40 SWAP1 KECCAK256 PUSH1 0x6 ADD PUSH2 0x2D59 DUP6 PUSH2 0x3EFE JUMP JUMPDEST PUSH1 0x40 MLOAD PUSH1 0x20 ADD PUSH2 0x2D69 SWAP2 SWAP1 PUSH2 0x507A JUMP JUMPDEST PUSH1 0x40 DUP1 MLOAD PUSH1 0x1F NOT DUP2 DUP5 SUB ADD DUP2 MSTORE SWAP2 SWAP1 MSTORE DUP2 SLOAD PUSH1 0x1 DUP2 ADD DUP4 SSTORE PUSH1 0x0 SWAP3 DUP4 MSTORE PUSH1 0x20 SWAP1 SWAP3 KECCAK256 SWAP1 SWAP2 ADD SWAP1 PUSH2 0x2D99 SWAP1 DUP3 PUSH2 0x4DC9 JUMP JUMPDEST POP PUSH1 0x40 DUP1 MLOAD DUP7 DUP2 MSTORE CALLER PUSH1 0x20 DUP3 ADD MSTORE SWAP1 DUP2 ADD DUP6 SWAP1 MSTORE TIMESTAMP PUSH1 0x60 DUP3 ADD MSTORE PUSH32 0x7D3C39A6CCE20F6949EFF0833A4D54FCA734DC7C6027773D8885E7FAEAC98A95 SWAP1 PUSH1 0x80 ADD PUSH1 0x40 MLOAD DUP1 SWAP2 SUB SWAP1 LOG1 DUP3 SLOAD PUSH1 0x40 DUP1 MLOAD SWAP2 DUP3 MSTORE PUSH1 0x80 PUSH1 0x20 DUP4 ADD DUP2 SWAP1 MSTORE PUSH1 0x9 SWAP1 DUP4 ADD MSTORE PUSH9 0x141D5C98DA185CD959 PUSH1 0xBA SHL PUSH1 0xA0 DUP4 ADD MSTORE CALLER SWAP1 DUP3 ADD MSTORE TIMESTAMP PUSH1 0x60 DUP3 ADD MSTORE PUSH32 0x28222DBD9906BC73E71CBD7BD296A46D23DE9224D425C30BE175AF99B4AB7741 SWAP1 PUSH1 0xC0 ADD PUSH2 0x1A62 JUMP JUMPDEST PUSH1 0x0 PUSH1 0x2 DUP7 PUSH1 0x40 MLOAD PUSH2 0x2E51 SWAP2 SWAP1 PUSH2 0x4D5E JUMP JUMPDEST SWAP1 DUP2 MSTORE PUSH1 0x20 ADD PUSH1 0x40 MLOAD DUP1 SWAP2 SUB SWAP1 KECCAK256 PUSH1 0x40 MLOAD DUP1 PUSH1 0xC0 ADD PUSH1 0x40 MSTORE SWAP1 DUP2 PUSH1 0x0 DUP3 ADD DUP1 SLOAD PUSH2 0x2E7A SWAP1 PUSH2 0x4CE2 JUMP JUMPDEST DUP1 PUSH1 0x1F ADD PUSH1 0x20 DUP1 SWAP2 DIV MUL PUSH1 0x20 ADD PUSH1 0x40 MLOAD SWAP1 DUP2 ADD PUSH1 0x40 MSTORE DUP1 SWAP3 SWAP2 SWAP1 DUP2 DUP2 MSTORE PUSH1 0x20 ADD DUP3 DUP1 SLOAD PUSH2 0x2EA6 SWAP1 PUSH2 0x4CE2 JUMP JUMPDEST DUP1 ISZERO PUSH2 0x2EF3 JUMPI DUP1 PUSH1 0x1F LT PUSH2 0x2EC8 JUMPI PUSH2 0x100 DUP1 DUP4 SLOAD DIV MUL DUP4 MSTORE SWAP2 PUSH1 0x20 ADD SWAP2 PUSH2 0x2EF3 JUMP JUMPDEST DUP3 ADD SWAP2 SWAP1 PUSH1 0x0 MSTORE PUSH1 0x20 PUSH1 0x0 KECCAK256 SWAP1 JUMPDEST DUP2 SLOAD DUP2 MSTORE SWAP1 PUSH1 0x1 ADD SWAP1 PUSH1 0x20 ADD DUP1 DUP4 GT PUSH2 0x2ED6 JUMPI DUP3 SWAP1 SUB PUSH1 0x1F AND DUP3 ADD SWAP2 JUMPDEST POP POP POP POP POP DUP2 MSTORE PUSH1 0x20 ADD PUSH1 0x1 DUP3 ADD DUP1 SLOAD PUSH2 0x2F0C SWAP1 PUSH2 0x4CE2 JUMP JUMPDEST DUP1 PUSH1 0x1F ADD PUSH1 0x20 DUP1 SWAP2 DIV MUL PUSH1 0x20 ADD PUSH1 0x40 MLOAD SWAP1 DUP2 ADD PUSH1 0x40 MSTORE DUP1 SWAP3 SWAP2 SWAP1 DUP2 DUP2 MSTORE PUSH1 0x20 ADD DUP3 DUP1 SLOAD PUSH2 0x2F38 SWAP1 PUSH2 0x4CE2 JUMP JUMPDEST DUP1 ISZERO PUSH2 0x2F85 JUMPI DUP1 PUSH1 0x1F LT PUSH2 0x2F5A JUMPI PUSH2 0x100 DUP1 DUP4 SLOAD DIV MUL DUP4 MSTORE SWAP2 PUSH1 0x20 ADD SWAP2 PUSH2 0x2F85 JUMP JUMPDEST DUP3 ADD SWAP2 SWAP1 PUSH1 0x0 MSTORE PUSH1 0x20 PUSH1 0x0 KECCAK256 SWAP1 JUMPDEST DUP2 SLOAD DUP2 MSTORE SWAP1 PUSH1 0x1 ADD SWAP1 PUSH1 0x20 ADD DUP1 DUP4 GT PUSH2 0x2F68 JUMPI DUP3 SWAP1 SUB PUSH1 0x1F AND DUP3 ADD SWAP2 JUMPDEST POP POP POP POP POP DUP2 MSTORE PUSH1 0x20 ADD PUSH1 0x2 DUP3 ADD DUP1 SLOAD PUSH2 0x2F9E SWAP1 PUSH2 0x4CE2 JUMP JUMPDEST DUP1 PUSH1 0x1F ADD PUSH1 0x20 DUP1 SWAP2 DIV MUL PUSH1 0x20 ADD PUSH1 0x40 MLOAD SWAP1 DUP2 ADD PUSH1 0x40 MSTORE DUP1 SWAP3 SWAP2 SWAP1 DUP2 DUP2 MSTORE PUSH1 0x20 ADD DUP3 DUP1 SLOAD PUSH2 0x2FCA SWAP1 PUSH2 0x4CE2 JUMP JUMPDEST DUP1 ISZERO PUSH2 0x3017 JUMPI DUP1 PUSH1 0x1F LT PUSH2 0x2FEC JUMPI PUSH2 0x100 DUP1 DUP4 SLOAD DIV MUL DUP4 MSTORE SWAP2 PUSH1 0x20 ADD SWAP2 PUSH2 0x3017 JUMP JUMPDEST DUP3 ADD SWAP2 SWAP1 PUSH1 0x0 MSTORE PUSH1 0x20 PUSH1 0x0 KECCAK256 SWAP1 JUMPDEST DUP2 SLOAD DUP2 MSTORE SWAP1 PUSH1 0x1 ADD SWAP1 PUSH1 0x20 ADD DUP1 DUP4 GT PUSH2 0x2FFA JUMPI DUP3 SWAP1 SUB PUSH1 0x1F AND DUP3 ADD SWAP2 JUMPDEST POP POP POP POP POP DUP2 MSTORE PUSH1 0x20 ADD PUSH1 0x3 DUP3 ADD DUP1 SLOAD PUSH2 0x3030 SWAP1 PUSH2 0x4CE2 JUMP JUMPDEST DUP1 PUSH1 0x1F ADD PUSH1 0x20 DUP1 SWAP2 DIV MUL PUSH1 0x20 ADD PUSH1 0x40 MLOAD SWAP1 DUP2 ADD PUSH1 0x40 MSTORE DUP1 SWAP3 SWAP2 SWAP1 DUP2 DUP2 MSTORE PUSH1 0x20 ADD DUP3 DUP1 SLOAD PUSH2 0x305C SWAP1 PUSH2 0x4CE2 JUMP JUMPDEST DUP1 ISZERO PUSH2 0x30A9 JUMPI DUP1 PUSH1 0x1F LT PUSH2 0x307E JUMPI PUSH2 0x100 DUP1 DUP4 SLOAD DIV MUL DUP4 MSTORE SWAP2 PUSH1 0x20 ADD SWAP2 PUSH2 0x30A9 JUMP JUMPDEST DUP3 ADD SWAP2 SWAP1 PUSH1 0x0 MSTORE PUSH1 0x20 PUSH1 0x0 KECCAK256 SWAP1 JUMPDEST DUP2 SLOAD DUP2 MSTORE SWAP1 PUSH1 0x1 ADD SWAP1 PUSH1 0x20 ADD DUP1 DUP4 GT PUSH2 0x308C JUMPI DUP3 SWAP1 SUB PUSH1 0x1F AND DUP3 ADD SWAP2 JUMPDEST POP POP POP POP POP DUP2 MSTORE PUSH1 0x20 ADD PUSH1 0x4 DUP3 ADD DUP1 SLOAD PUSH2 0x30C2 SWAP1 PUSH2 0x4CE2 JUMP JUMPDEST DUP1 PUSH1 0x1F ADD PUSH1 0x20 DUP1 SWAP2 DIV MUL PUSH1 0x20 ADD PUSH1 0x40 MLOAD SWAP1 DUP2 ADD PUSH1 0x40 MSTORE DUP1 SWAP3 SWAP2 SWAP1 DUP2 DUP2 MSTORE PUSH1 0x20 ADD DUP3 DUP1 SLOAD PUSH2 0x30EE SWAP1 PUSH2 0x4CE2 JUMP JUMPDEST DUP1 ISZERO PUSH2 0x313B JUMPI DUP1 PUSH1 0x1F LT PUSH2 0x3110 JUMPI PUSH2 0x100 DUP1 DUP4 SLOAD DIV MUL DUP4 MSTORE SWAP2 PUSH1 0x20 ADD SWAP2 PUSH2 0x313B JUMP JUMPDEST DUP3 ADD SWAP2 SWAP1 PUSH1 0x0 MSTORE PUSH1 0x20 PUSH1 0x0 KECCAK256 SWAP1 JUMPDEST DUP2 SLOAD DUP2 MSTORE SWAP1 PUSH1 0x1 ADD SWAP1 PUSH1 0x20 ADD DUP1 DUP4 GT PUSH2 0x311E JUMPI DUP3 SWAP1 SUB PUSH1 0x1F AND DUP3 ADD SWAP2 JUMPDEST POP POP POP POP POP DUP2 MSTORE PUSH1 0x20 ADD PUSH1 0x5 DUP3 ADD DUP1 SLOAD DUP1 PUSH1 0x20 MUL PUSH1 0x20 ADD PUSH1 0x40 MLOAD SWAP1 DUP2 ADD PUSH1 0x40 MSTORE DUP1 SWAP3 SWAP2 SWAP1 DUP2 DUP2 MSTORE PUSH1 0x20 ADD PUSH1 0x0 SWAP1 JUMPDEST DUP3 DUP3 LT ISZERO PUSH2 0x3215 JUMPI DUP4 DUP3 SWAP1 PUSH1 0x0 MSTORE PUSH1 0x20 PUSH1 0x0 KECCAK256 ADD DUP1 SLOAD PUSH2 0x3188 SWAP1 PUSH2 0x4CE2 JUMP JUMPDEST DUP1 PUSH1 0x1F ADD PUSH1 0x20 DUP1 SWAP2 DIV MUL PUSH1 0x20 ADD PUSH1 0x40 MLOAD SWAP1 DUP2 ADD PUSH1 0x40 MSTORE DUP1 SWAP3 SWAP2 SWAP1 DUP2 DUP2 MSTORE PUSH1 0x20 ADD DUP3 DUP1 SLOAD PUSH2 0x31B4 SWAP1 PUSH2 0x4CE2 JUMP JUMPDEST DUP1 ISZERO PUSH2 0x3201 JUMPI DUP1 PUSH1 0x1F LT PUSH2 0x31D6 JUMPI PUSH2 0x100 DUP1 DUP4 SLOAD DIV MUL DUP4 MSTORE SWAP2 PUSH1 0x20 ADD SWAP2 PUSH2 0x3201 JUMP JUMPDEST DUP3 ADD SWAP2 SWAP1 PUSH1 0x0 MSTORE PUSH1 0x20 PUSH1 0x0 KECCAK256 SWAP1 JUMPDEST DUP2 SLOAD DUP2 MSTORE SWAP1 PUSH1 0x1 ADD SWAP1 PUSH1 0x20 ADD DUP1 DUP4 GT PUSH2 0x31E4 JUMPI DUP3 SWAP1 SUB PUSH1 0x1F AND DUP3 ADD SWAP2 JUMPDEST POP POP POP POP POP DUP2 MSTORE PUSH1 0x20 ADD SWAP1 PUSH1 0x1 ADD SWAP1 PUSH2 0x3169 JUMP JUMPDEST POP POP POP SWAP2 MSTORE POP POP DUP1 MLOAD MLOAD SWAP1 SWAP2 POP PUSH2 0x326E JUMPI PUSH1 0x40 MLOAD PUSH3 0x461BCD PUSH1 0xE5 SHL DUP2 MSTORE PUSH1 0x20 PUSH1 0x4 DUP3 ADD MSTORE PUSH1 0x19 PUSH1 0x24 DUP3 ADD MSTORE PUSH32 0x46727569742074797065206E6F7420696E20636174616C6F6700000000000000 PUSH1 0x44 DUP3 ADD MSTORE PUSH1 0x64 ADD PUSH2 0x10E6 JUMP JUMPDEST PUSH1 0xC DUP5 PUSH1 0x40 MLOAD PUSH2 0x327E SWAP2 SWAP1 PUSH2 0x4D5E JUMP JUMPDEST SWAP1 DUP2 MSTORE PUSH1 0x40 MLOAD SWAP1 DUP2 SWAP1 SUB PUSH1 0x20 ADD SWAP1 KECCAK256 SLOAD PUSH1 0xFF AND PUSH2 0x32D3 JUMPI PUSH1 0x40 MLOAD PUSH3 0x461BCD PUSH1 0xE5 SHL DUP2 MSTORE PUSH1 0x20 PUSH1 0x4 DUP3 ADD MSTORE PUSH1 0x13 PUSH1 0x24 DUP3 ADD MSTORE PUSH19 0x11985C9B481B9BDD081C9959DA5CDD195C9959 PUSH1 0x6A SHL PUSH1 0x44 DUP3 ADD MSTORE PUSH1 0x64 ADD PUSH2 0x10E6 JUMP JUMPDEST PUSH1 0x0 DUP3 GT PUSH2 0x3323 JUMPI PUSH1 0x40 MLOAD PUSH3 0x461BCD PUSH1 0xE5 SHL DUP2 MSTORE PUSH1 0x20 PUSH1 0x4 DUP3 ADD MSTORE PUSH1 0x1F PUSH1 0x24 DUP3 ADD MSTORE PUSH32 0x5175616E74697479206D7573742062652067726561746572207468616E203000 PUSH1 0x44 DUP3 ADD MSTORE PUSH1 0x64 ADD PUSH2 0x10E6 JUMP JUMPDEST PUSH1 0x7 DUP1 SLOAD SWAP1 PUSH1 0x0 PUSH2 0x3333 DUP4 PUSH2 0x4FD9 JUMP JUMPDEST SWAP2 SWAP1 POP SSTORE POP PUSH1 0x40 MLOAD DUP1 PUSH2 0x100 ADD PUSH1 0x40 MSTORE DUP1 DUP8 DUP2 MSTORE PUSH1 0x20 ADD DUP7 DUP2 MSTORE PUSH1 0x20 ADD CALLER PUSH1 0x1 PUSH1 0x1 PUSH1 0xA0 SHL SUB AND DUP2 MSTORE PUSH1 0x20 ADD TIMESTAMP DUP2 MSTORE PUSH1 0x20 ADD DUP5 DUP2 MSTORE PUSH1 0x20 ADD DUP4 DUP2 MSTORE PUSH1 0x20 ADD PUSH1 0x0 PUSH1 0x1 PUSH1 0x1 PUSH1 0x40 SHL SUB DUP2 GT ISZERO PUSH2 0x338A JUMPI PUSH2 0x338A PUSH2 0x436F JUMP JUMPDEST PUSH1 0x40 MLOAD SWAP1 DUP1 DUP3 MSTORE DUP1 PUSH1 0x20 MUL PUSH1 0x20 ADD DUP3 ADD PUSH1 0x40 MSTORE DUP1 ISZERO PUSH2 0x33BD JUMPI DUP2 PUSH1 0x20 ADD JUMPDEST PUSH1 0x60 DUP2 MSTORE PUSH1 0x20 ADD SWAP1 PUSH1 0x1 SWAP1 SUB SWAP1 DUP2 PUSH2 0x33A8 JUMPI SWAP1 POP JUMPDEST POP DUP2 MSTORE PUSH1 0x20 ADD PUSH1 0x0 PUSH1 0x40 MLOAD SWAP1 DUP1 DUP3 MSTORE DUP1 PUSH1 0x20 MUL PUSH1 0x20 ADD DUP3 ADD PUSH1 0x40 MSTORE DUP1 ISZERO PUSH2 0x33F8 JUMPI DUP2 PUSH1 0x20 ADD JUMPDEST PUSH1 0x60 DUP2 MSTORE PUSH1 0x20 ADD SWAP1 PUSH1 0x1 SWAP1 SUB SWAP1 DUP2 PUSH2 0x33E3 JUMPI SWAP1 POP JUMPDEST POP SWAP1 MSTORE PUSH1 0x7 SLOAD PUSH1 0x0 SWAP1 DUP2 MSTORE PUSH1 0x4 PUSH1 0x20 MSTORE PUSH1 0x40 SWAP1 KECCAK256 DUP2 MLOAD DUP2 SWAP1 PUSH2 0x341A SWAP1 DUP3 PUSH2 0x4DC9 JUMP JUMPDEST POP PUSH1 0x20 DUP3 ADD MLOAD PUSH1 0x1 DUP3 ADD SWAP1 PUSH2 0x342F SWAP1 DUP3 PUSH2 0x4DC9 JUMP JUMPDEST POP PUSH1 0x40 DUP3 ADD MLOAD PUSH1 0x2 DUP3 ADD DUP1 SLOAD PUSH1 0x1 PUSH1 0x1 PUSH1 0xA0 SHL SUB NOT AND PUSH1 0x1 PUSH1 0x1 PUSH1 0xA0 SHL SUB SWAP1 SWAP3 AND SWAP2 SWAP1 SWAP2 OR SWAP1 SSTORE PUSH1 0x60 DUP3 ADD MLOAD PUSH1 0x3 DUP3 ADD SSTORE PUSH1 0x80 DUP3 ADD MLOAD PUSH1 0x4 DUP3 ADD SWAP1 PUSH2 0x3474 SWAP1 DUP3 PUSH2 0x4DC9 JUMP JUMPDEST POP PUSH1 0xA0 DUP3 ADD MLOAD PUSH1 0x5 DUP3 ADD SSTORE PUSH1 0xC0 DUP3 ADD MLOAD DUP1 MLOAD PUSH2 0x349A SWAP2 PUSH1 0x6 DUP5 ADD SWAP2 PUSH1 0x20 SWAP1 SWAP2 ADD SWAP1 PUSH2 0x4059 JUMP JUMPDEST POP PUSH1 0xE0 DUP3 ADD MLOAD DUP1 MLOAD PUSH2 0x34B6 SWAP2 PUSH1 0x7 DUP5 ADD SWAP2 PUSH1 0x20 SWAP1 SWAP2 ADD SWAP1 PUSH2 0x4059 JUMP JUMPDEST POP SWAP1 POP POP PUSH1 0x0 PUSH1 0x3 DUP6 PUSH1 0x40 MLOAD PUSH2 0x34CC SWAP2 SWAP1 PUSH2 0x4D5E JUMP JUMPDEST SWAP1 DUP2 MSTORE PUSH1 0x40 MLOAD SWAP1 DUP2 SWAP1 SUB PUSH1 0x20 ADD SWAP1 KECCAK256 PUSH1 0x5 DUP2 ADD SLOAD SWAP1 SWAP2 POP PUSH1 0x1 PUSH1 0x1 PUSH1 0xA0 SHL SUB AND PUSH2 0x3510 JUMPI PUSH1 0x7 SLOAD PUSH1 0x6 DUP3 ADD DUP1 SLOAD PUSH1 0x1 DUP2 ADD DUP3 SSTORE PUSH1 0x0 SWAP2 DUP3 MSTORE PUSH1 0x20 SWAP1 SWAP2 KECCAK256 ADD SSTORE PUSH2 0x354D JUMP JUMPDEST PUSH1 0x3 DUP6 PUSH1 0x40 MLOAD PUSH2 0x3520 SWAP2 SWAP1 PUSH2 0x4D5E JUMP JUMPDEST SWAP1 DUP2 MSTORE PUSH1 0x40 MLOAD PUSH1 0x20 SWAP2 DUP2 SWAP1 SUB DUP3 ADD SWAP1 KECCAK256 PUSH1 0x7 SLOAD PUSH1 0x6 SWAP1 SWAP2 ADD DUP1 SLOAD PUSH1 0x1 DUP2 ADD DUP3 SSTORE PUSH1 0x0 SWAP2 DUP3 MSTORE SWAP3 SWAP1 KECCAK256 SWAP1 SWAP2 ADD SSTORE JUMPDEST PUSH1 0x7 SLOAD PUSH1 0x0 SWAP1 DUP2 MSTORE PUSH1 0x4 PUSH1 0x20 SWAP1 DUP2 MSTORE PUSH1 0x40 DUP1 DUP4 KECCAK256 PUSH1 0x6 ADD DUP1 SLOAD PUSH1 0x1 DUP2 ADD DUP3 SSTORE SWAP1 DUP5 MSTORE SWAP3 DUP3 SWAP1 KECCAK256 DUP2 MLOAD DUP1 DUP4 ADD SWAP1 SWAP3 MSTORE PUSH1 0x15 DUP3 MSTORE PUSH21 0x2430B93B32B9BA32B210313C90283937B23AB1B2B9 PUSH1 0x59 SHL SWAP3 DUP3 ADD SWAP3 SWAP1 SWAP3 MSTORE SWAP2 ADD SWAP1 PUSH2 0x35AC SWAP1 DUP3 PUSH2 0x4DC9 JUMP JUMPDEST POP PUSH1 0x7 SLOAD PUSH1 0x40 DUP1 MLOAD SWAP2 DUP3 MSTORE PUSH1 0x80 PUSH1 0x20 DUP4 ADD DUP2 SWAP1 MSTORE PUSH1 0x9 SWAP1 DUP4 ADD MSTORE PUSH9 0x12185C9D995CDD1959 PUSH1 0xBA SHL PUSH1 0xA0 DUP4 ADD MSTORE CALLER SWAP1 DUP3 ADD MSTORE TIMESTAMP PUSH1 0x60 DUP3 ADD MSTORE PUSH32 0x28222DBD9906BC73E71CBD7BD296A46D23DE9224D425C30BE175AF99B4AB7741 SWAP1 PUSH1 0xC0 ADD PUSH2 0x1CA9 JUMP JUMPDEST PUSH1 0x0 SLOAD PUSH1 0x1 PUSH1 0x1 PUSH1 0xA0 SHL SUB AND CALLER EQ PUSH2 0x3637 JUMPI PUSH1 0x40 MLOAD PUSH3 0x461BCD PUSH1 0xE5 SHL DUP2 MSTORE PUSH1 0x4 ADD PUSH2 0x10E6 SWAP1 PUSH2 0x4D1C JUMP JUMPDEST PUSH1 0x1 PUSH1 0x1 PUSH1 0xA0 SHL SUB AND PUSH1 0x0 SWAP1 DUP2 MSTORE PUSH1 0x1 PUSH1 0x20 MSTORE PUSH1 0x40 SWAP1 KECCAK256 DUP1 SLOAD PUSH1 0xFF NOT AND SWAP1 SSTORE JUMP JUMPDEST DUP1 MLOAD PUSH1 0x20 DUP2 DUP4 ADD DUP2 ADD DUP1 MLOAD PUSH1 0x3 DUP3 MSTORE SWAP3 DUP3 ADD SWAP2 SWAP1 SWAP4 ADD KECCAK256 SWAP2 MSTORE DUP1 SLOAD DUP2 SWAP1 PUSH2 0x367E SWAP1 PUSH2 0x4CE2 JUMP JUMPDEST DUP1 PUSH1 0x1F ADD PUSH1 0x20 DUP1 SWAP2 DIV MUL PUSH1 0x20 ADD PUSH1 0x40 MLOAD SWAP1 DUP2 ADD PUSH1 0x40 MSTORE DUP1 SWAP3 SWAP2 SWAP1 DUP2 DUP2 MSTORE PUSH1 0x20 ADD DUP3 DUP1 SLOAD PUSH2 0x36AA SWAP1 PUSH2 0x4CE2 JUMP JUMPDEST DUP1 ISZERO PUSH2 0x36F7 JUMPI DUP1 PUSH1 0x1F LT PUSH2 0x36CC JUMPI PUSH2 0x100 DUP1 DUP4 SLOAD DIV MUL DUP4 MSTORE SWAP2 PUSH1 0x20 ADD SWAP2 PUSH2 0x36F7 JUMP JUMPDEST DUP3 ADD SWAP2 SWAP1 PUSH1 0x0 MSTORE PUSH1 0x20 PUSH1 0x0 KECCAK256 SWAP1 JUMPDEST DUP2 SLOAD DUP2 MSTORE SWAP1 PUSH1 0x1 ADD SWAP1 PUSH1 0x20 ADD DUP1 DUP4 GT PUSH2 0x36DA JUMPI DUP3 SWAP1 SUB PUSH1 0x1F AND DUP3 ADD SWAP2 JUMPDEST POP POP POP POP POP SWAP1 DUP1 PUSH1 0x1 ADD DUP1 SLOAD PUSH2 0x370C SWAP1 PUSH2 0x4CE2 JUMP JUMPDEST DUP1 PUSH1 0x1F ADD PUSH1 0x20 DUP1 SWAP2 DIV MUL PUSH1 0x20 ADD PUSH1 0x40 MLOAD SWAP1 DUP2 ADD PUSH1 0x40 MSTORE DUP1 SWAP3 SWAP2 SWAP1 DUP2 DUP2 MSTORE PUSH1 0x20 ADD DUP3 DUP1 SLOAD PUSH2 0x3738 SWAP1 PUSH2 0x4CE2 JUMP JUMPDEST DUP1 ISZERO PUSH2 0x3785 JUMPI DUP1 PUSH1 0x1F LT PUSH2 0x375A JUMPI PUSH2 0x100 DUP1 DUP4 SLOAD DIV MUL DUP4 MSTORE SWAP2 PUSH1 0x20 ADD SWAP2 PUSH2 0x3785 JUMP JUMPDEST DUP3 ADD SWAP2 SWAP1 PUSH1 0x0 MSTORE PUSH1 0x20 PUSH1 0x0 KECCAK256 SWAP1 JUMPDEST DUP2 SLOAD DUP2 MSTORE SWAP1 PUSH1 0x1 ADD SWAP1 PUSH1 0x20 ADD DUP1 DUP4 GT PUSH2 0x3768 JUMPI DUP3 SWAP1 SUB PUSH1 0x1F AND DUP3 ADD SWAP2 JUMPDEST POP POP POP POP POP SWAP1 DUP1 PUSH1 0x2 ADD DUP1 SLOAD PUSH2 0x379A SWAP1 PUSH2 0x4CE2 JUMP JUMPDEST DUP1 PUSH1 0x1F ADD PUSH1 0x20 DUP1 SWAP2 DIV MUL PUSH1 0x20 ADD PUSH1 0x40 MLOAD SWAP1 DUP2 ADD PUSH1 0x40 MSTORE DUP1 SWAP3 SWAP2 SWAP1 DUP2 DUP2 MSTORE PUSH1 0x20 ADD DUP3 DUP1 SLOAD PUSH2 0x37C6 SWAP1 PUSH2 0x4CE2 JUMP JUMPDEST DUP1 ISZERO PUSH2 0x3813 JUMPI DUP1 PUSH1 0x1F LT PUSH2 0x37E8 JUMPI PUSH2 0x100 DUP1 DUP4 SLOAD DIV MUL DUP4 MSTORE SWAP2 PUSH1 0x20 ADD SWAP2 PUSH2 0x3813 JUMP JUMPDEST DUP3 ADD SWAP2 SWAP1 PUSH1 0x0 MSTORE PUSH1 0x20 PUSH1 0x0 KECCAK256 SWAP1 JUMPDEST DUP2 SLOAD DUP2 MSTORE SWAP1 PUSH1 0x1 ADD SWAP1 PUSH1 0x20 ADD DUP1 DUP4 GT PUSH2 0x37F6 JUMPI DUP3 SWAP1 SUB PUSH1 0x1F AND DUP3 ADD SWAP2 JUMPDEST POP POP POP POP POP SWAP1 DUP1 PUSH1 0x3 ADD SLOAD SWAP1 DUP1 PUSH1 0x4 ADD DUP1 SLOAD PUSH2 0x382E SWAP1 PUSH2 0x4CE2 JUMP JUMPDEST DUP1 PUSH1 0x1F ADD PUSH1 0x20 DUP1 SWAP2 DIV MUL PUSH1 0x20 ADD PUSH1 0x40 MLOAD SWAP1 DUP2 ADD PUSH1 0x40 MSTORE DUP1 SWAP3 SWAP2 SWAP1 DUP2 DUP2 MSTORE PUSH1 0x20 ADD DUP3 DUP1 SLOAD PUSH2 0x385A SWAP1 PUSH2 0x4CE2 JUMP JUMPDEST DUP1 ISZERO PUSH2 0x38A7 JUMPI DUP1 PUSH1 0x1F LT PUSH2 0x387C JUMPI PUSH2 0x100 DUP1 DUP4 SLOAD DIV MUL DUP4 MSTORE SWAP2 PUSH1 0x20 ADD SWAP2 PUSH2 0x38A7 JUMP JUMPDEST DUP3 ADD SWAP2 SWAP1 PUSH1 0x0 MSTORE PUSH1 0x20 PUSH1 0x0 KECCAK256 SWAP1 JUMPDEST DUP2 SLOAD DUP2 MSTORE SWAP1 PUSH1 0x1 ADD SWAP1 PUSH1 0x20 ADD DUP1 DUP4 GT PUSH2 0x388A JUMPI DUP3 SWAP1 SUB PUSH1 0x1F AND DUP3 ADD SWAP2 JUMPDEST POP POP POP PUSH1 0x5 SWAP1 SWAP4 ADD SLOAD SWAP2 SWAP3 POP POP PUSH1 0x1 PUSH1 0x1 PUSH1 0xA0 SHL SUB AND DUP7 JUMP JUMPDEST PUSH1 0x0 DUP3 GT DUP1 ISZERO PUSH2 0x38D2 JUMPI POP PUSH1 0x7 SLOAD DUP3 GT ISZERO JUMPDEST PUSH2 0x38EE JUMPI PUSH1 0x40 MLOAD PUSH3 0x461BCD PUSH1 0xE5 SHL DUP2 MSTORE PUSH1 0x4 ADD PUSH2 0x10E6 SWAP1 PUSH2 0x4F70 JUMP JUMPDEST PUSH1 0x0 DUP3 DUP2 MSTORE PUSH1 0x4 PUSH1 0x20 SWAP1 DUP2 MSTORE PUSH1 0x40 DUP3 KECCAK256 PUSH1 0x6 ADD DUP1 SLOAD PUSH1 0x1 DUP2 ADD DUP3 SSTORE SWAP1 DUP4 MSTORE SWAP2 KECCAK256 ADD PUSH2 0x3919 DUP3 DUP3 PUSH2 0x4DC9 JUMP JUMPDEST POP PUSH32 0x28222DBD9906BC73E71CBD7BD296A46D23DE9224D425C30BE175AF99B4AB7741 DUP3 DUP3 CALLER TIMESTAMP PUSH1 0x40 MLOAD PUSH2 0x15CB SWAP5 SWAP4 SWAP3 SWAP2 SWAP1 PUSH2 0x50C8 JUMP JUMPDEST PUSH1 0x4 PUSH1 0x20 MSTORE PUSH1 0x0 SWAP1 DUP2 MSTORE PUSH1 0x40 SWAP1 KECCAK256 DUP1 SLOAD DUP2 SWAP1 PUSH2 0x396A SWAP1 PUSH2 0x4CE2 JUMP JUMPDEST DUP1 PUSH1 0x1F ADD PUSH1 0x20 DUP1 SWAP2 DIV MUL PUSH1 0x20 ADD PUSH1 0x40 MLOAD SWAP1 DUP2 ADD PUSH1 0x40 MSTORE DUP1 SWAP3 SWAP2 SWAP1 DUP2 DUP2 MSTORE PUSH1 0x20 ADD DUP3 DUP1 SLOAD PUSH2 0x3996 SWAP1 PUSH2 0x4CE2 JUMP JUMPDEST DUP1 ISZERO PUSH2 0x39E3 JUMPI DUP1 PUSH1 0x1F LT PUSH2 0x39B8 JUMPI PUSH2 0x100 DUP1 DUP4 SLOAD DIV MUL DUP4 MSTORE SWAP2 PUSH1 0x20 ADD SWAP2 PUSH2 0x39E3 JUMP JUMPDEST DUP3 ADD SWAP2 SWAP1 PUSH1 0x0 MSTORE PUSH1 0x20 PUSH1 0x0 KECCAK256 SWAP1 JUMPDEST DUP2 SLOAD DUP2 MSTORE SWAP1 PUSH1 0x1 ADD SWAP1 PUSH1 0x20 ADD DUP1 DUP4 GT PUSH2 0x39C6 JUMPI DUP3 SWAP1 SUB PUSH1 0x1F AND DUP3 ADD SWAP2 JUMPDEST POP POP POP POP POP SWAP1 DUP1 PUSH1 0x1 ADD DUP1 SLOAD PUSH2 0x39F8 SWAP1 PUSH2 0x4CE2 JUMP JUMPDEST DUP1 PUSH1 0x1F ADD PUSH1 0x20 DUP1 SWAP2 DIV MUL PUSH1 0x20 ADD PUSH1 0x40 MLOAD SWAP1 DUP2 ADD PUSH1 0x40 MSTORE DUP1 SWAP3 SWAP2 SWAP1 DUP2 DUP2 MSTORE PUSH1 0x20 ADD DUP3 DUP1 SLOAD PUSH2 0x3A24 SWAP1 PUSH2 0x4CE2 JUMP JUMPDEST DUP1 ISZERO PUSH2 0x3A71 JUMPI DUP1 PUSH1 0x1F LT PUSH2 0x3A46 JUMPI PUSH2 0x100 DUP1 DUP4 SLOAD DIV MUL DUP4 MSTORE SWAP2 PUSH1 0x20 ADD SWAP2 PUSH2 0x3A71 JUMP JUMPDEST DUP3 ADD SWAP2 SWAP1 PUSH1 0x0 MSTORE PUSH1 0x20 PUSH1 0x0 KECCAK256 SWAP1 JUMPDEST DUP2 SLOAD DUP2 MSTORE SWAP1 PUSH1 0x1 ADD SWAP1 PUSH1 0x20 ADD DUP1 DUP4 GT PUSH2 0x3A54 JUMPI DUP3 SWAP1 SUB PUSH1 0x1F AND DUP3 ADD SWAP2 JUMPDEST POP POP POP POP PUSH1 0x2 DUP4 ADD SLOAD PUSH1 0x3 DUP5 ADD SLOAD PUSH1 0x4 DUP6 ADD DUP1 SLOAD SWAP5 SWAP6 PUSH1 0x1 PUSH1 0x1 PUSH1 0xA0 SHL SUB SWAP1 SWAP4 AND SWAP5 SWAP2 SWAP4 POP SWAP1 PUSH2 0x3AA0 SWAP1 PUSH2 0x4CE2 JUMP JUMPDEST DUP1 PUSH1 0x1F ADD PUSH1 0x20 DUP1 SWAP2 DIV MUL PUSH1 0x20 ADD PUSH1 0x40 MLOAD SWAP1 DUP2 ADD PUSH1 0x40 MSTORE DUP1 SWAP3 SWAP2 SWAP1 DUP2 DUP2 MSTORE PUSH1 0x20 ADD DUP3 DUP1 SLOAD PUSH2 0x3ACC SWAP1 PUSH2 0x4CE2 JUMP JUMPDEST DUP1 ISZERO PUSH2 0x3B19 JUMPI DUP1 PUSH1 0x1F LT PUSH2 0x3AEE JUMPI PUSH2 0x100 DUP1 DUP4 SLOAD DIV MUL DUP4 MSTORE SWAP2 PUSH1 0x20 ADD SWAP2 PUSH2 0x3B19 JUMP JUMPDEST DUP3 ADD SWAP2 SWAP1 PUSH1 0x0 MSTORE PUSH1 0x20 PUSH1 0x0 KECCAK256 SWAP1 JUMPDEST DUP2 SLOAD DUP2 MSTORE SWAP1 PUSH1 0x1 ADD SWAP1 PUSH1 0x20 ADD DUP1 DUP4 GT PUSH2 0x3AFC JUMPI DUP3 SWAP1 SUB PUSH1 0x1F AND DUP3 ADD SWAP2 JUMPDEST POP POP POP POP POP SWAP1 DUP1 PUSH1 0x5 ADD SLOAD SWAP1 POP DUP7 JUMP JUMPDEST DUP1 MLOAD PUSH1 0x20 DUP2 DUP4 ADD DUP2 ADD DUP1 MLOAD PUSH1 0x2 DUP3 MSTORE SWAP3 DUP3 ADD SWAP2 SWAP1 SWAP4 ADD KECCAK256 SWAP2 MSTORE DUP1 SLOAD DUP2 SWAP1 PUSH2 0x3B4F SWAP1 PUSH2 0x4CE2 JUMP JUMPDEST DUP1 PUSH1 0x1F ADD PUSH1 0x20 DUP1 SWAP2 DIV MUL PUSH1 0x20 ADD PUSH1 0x40 MLOAD SWAP1 DUP2 ADD PUSH1 0x40 MSTORE DUP1 SWAP3 SWAP2 SWAP1 DUP2 DUP2 MSTORE PUSH1 0x20 ADD DUP3 DUP1 SLOAD PUSH2 0x3B7B SWAP1 PUSH2 0x4CE2 JUMP JUMPDEST DUP1 ISZERO PUSH2 0x3BC8 JUMPI DUP1 PUSH1 0x1F LT PUSH2 0x3B9D JUMPI PUSH2 0x100 DUP1 DUP4 SLOAD DIV MUL DUP4 MSTORE SWAP2 PUSH1 0x20 ADD SWAP2 PUSH2 0x3BC8 JUMP JUMPDEST DUP3 ADD SWAP2 SWAP1 PUSH1 0x0 MSTORE PUSH1 0x20 PUSH1 0x0 KECCAK256 SWAP1 JUMPDEST DUP2 SLOAD DUP2 MSTORE SWAP1 PUSH1 0x1 ADD SWAP1 PUSH1 0x20 ADD DUP1 DUP4 GT PUSH2 0x3BAB JUMPI DUP3 SWAP1 SUB PUSH1 0x1F AND DUP3 ADD SWAP2 JUMPDEST POP POP POP POP POP SWAP1 DUP1 PUSH1 0x1 ADD DUP1 SLOAD PUSH2 0x3BDD SWAP1 PUSH2 0x4CE2 JUMP JUMPDEST DUP1 PUSH1 0x1F ADD PUSH1 0x20 DUP1 SWAP2 DIV MUL PUSH1 0x20 ADD PUSH1 0x40 MLOAD SWAP1 DUP2 ADD PUSH1 0x40 MSTORE DUP1 SWAP3 SWAP2 SWAP1 DUP2 DUP2 MSTORE PUSH1 0x20 ADD DUP3 DUP1 SLOAD PUSH2 0x3C09 SWAP1 PUSH2 0x4CE2 JUMP JUMPDEST DUP1 ISZERO PUSH2 0x3C56 JUMPI DUP1 PUSH1 0x1F LT PUSH2 0x3C2B JUMPI PUSH2 0x100 DUP1 DUP4 SLOAD DIV MUL DUP4 MSTORE SWAP2 PUSH1 0x20 ADD SWAP2 PUSH2 0x3C56 JUMP JUMPDEST DUP3 ADD SWAP2 SWAP1 PUSH1 0x0 MSTORE PUSH1 0x20 PUSH1 0x0 KECCAK256 SWAP1 JUMPDEST DUP2 SLOAD DUP2 MSTORE SWAP1 PUSH1 0x1 ADD SWAP1 PUSH1 0x20 ADD DUP1 DUP4 GT PUSH2 0x3C39 JUMPI DUP3 SWAP1 SUB PUSH1 0x1F AND DUP3 ADD SWAP2 JUMPDEST POP POP POP POP POP SWAP1 DUP1 PUSH1 0x2 ADD DUP1 SLOAD PUSH2 0x3C6B SWAP1 PUSH2 0x4CE2 JUMP JUMPDEST DUP1 PUSH1 0x1F ADD PUSH1 0x20 DUP1 SWAP2 DIV MUL PUSH1 0x20 ADD PUSH1 0x40 MLOAD SWAP1 DUP2 ADD PUSH1 0x40 MSTORE DUP1 SWAP3 SWAP2 SWAP1 DUP2 DUP2 MSTORE PUSH1 0x20 ADD DUP3 DUP1 SLOAD PUSH2 0x3C97 SWAP1 PUSH2 0x4CE2 JUMP JUMPDEST DUP1 ISZERO PUSH2 0x3CE4 JUMPI DUP1 PUSH1 0x1F LT PUSH2 0x3CB9 JUMPI PUSH2 0x100 DUP1 DUP4 SLOAD DIV MUL DUP4 MSTORE SWAP2 PUSH1 0x20 ADD SWAP2 PUSH2 0x3CE4 JUMP JUMPDEST DUP3 ADD SWAP2 SWAP1 PUSH1 0x0 MSTORE PUSH1 0x20 PUSH1 0x0 KECCAK256 SWAP1 JUMPDEST DUP2 SLOAD DUP2 MSTORE SWAP1 PUSH1 0x1 ADD SWAP1 PUSH1 0x20 ADD DUP1 DUP4 GT PUSH2 0x3CC7 JUMPI DUP3 SWAP1 SUB PUSH1 0x1F AND DUP3 ADD SWAP2 JUMPDEST POP POP POP POP POP SWAP1 DUP1 PUSH1 0x3 ADD DUP1 SLOAD PUSH2 0x3CF9 SWAP1 PUSH2 0x4CE2 JUMP JUMPDEST DUP1 PUSH1 0x1F ADD PUSH1 0x20 DUP1 SWAP2 DIV MUL PUSH1 0x20 ADD PUSH1 0x40 MLOAD SWAP1 DUP2 ADD PUSH1 0x40 MSTORE DUP1 SWAP3 SWAP2 SWAP1 DUP2 DUP2 MSTORE PUSH1 0x20 ADD DUP3 DUP1 SLOAD PUSH2 0x3D25 SWAP1 PUSH2 0x4CE2 JUMP JUMPDEST DUP1 ISZERO PUSH2 0x3D72 JUMPI DUP1 PUSH1 0x1F LT PUSH2 0x3D47 JUMPI PUSH2 0x100 DUP1 DUP4 SLOAD DIV MUL DUP4 MSTORE SWAP2 PUSH1 0x20 ADD SWAP2 PUSH2 0x3D72 JUMP JUMPDEST DUP3 ADD SWAP2 SWAP1 PUSH1 0x0 MSTORE PUSH1 0x20 PUSH1 0x0 KECCAK256 SWAP1 JUMPDEST DUP2 SLOAD DUP2 MSTORE SWAP1 PUSH1 0x1 ADD SWAP1 PUSH1 0x20 ADD DUP1 DUP4 GT PUSH2 0x3D55 JUMPI DUP3 SWAP1 SUB PUSH1 0x1F AND DUP3 ADD SWAP2 JUMPDEST POP POP POP POP POP SWAP1 DUP1 PUSH1 0x4 ADD DUP1 SLOAD PUSH2 0x3D87 SWAP1 PUSH2 0x4CE2 JUMP JUMPDEST DUP1 PUSH1 0x1F ADD PUSH1 0x20 DUP1 SWAP2 DIV MUL PUSH1 0x20 ADD PUSH1 0x40 MLOAD SWAP1 DUP2 ADD PUSH1 0x40 MSTORE DUP1 SWAP3 SWAP2 SWAP1 DUP2 DUP2 MSTORE PUSH1 0x20 ADD DUP3 DUP1 SLOAD PUSH2 0x3DB3 SWAP1 PUSH2 0x4CE2 JUMP JUMPDEST DUP1 ISZERO PUSH2 0x3E00 JUMPI DUP1 PUSH1 0x1F LT PUSH2 0x3DD5 JUMPI PUSH2 0x100 DUP1 DUP4 SLOAD DIV MUL DUP4 MSTORE SWAP2 PUSH1 0x20 ADD SWAP2 PUSH2 0x3E00 JUMP JUMPDEST DUP3 ADD SWAP2 SWAP1 PUSH1 0x0 MSTORE PUSH1 0x20 PUSH1 0x0 KECCAK256 SWAP1 JUMPDEST DUP2 SLOAD DUP2 MSTORE SWAP1 PUSH1 0x1 ADD SWAP1 PUSH1 0x20 ADD DUP1 DUP4 GT PUSH2 0x3DE3 JUMPI DUP3 SWAP1 SUB PUSH1 0x1F AND DUP3 ADD SWAP2 JUMPDEST POP POP POP POP POP SWAP1 POP DUP6 JUMP JUMPDEST DUP1 MLOAD PUSH1 0x20 DUP2 DUP4 ADD DUP2 ADD DUP1 MLOAD PUSH1 0xD DUP3 MSTORE SWAP3 DUP3 ADD SWAP2 SWAP1 SWAP4 ADD KECCAK256 SWAP2 MSTORE DUP1 SLOAD PUSH2 0x11A8 SWAP1 PUSH2 0x4CE2 JUMP JUMPDEST PUSH1 0x60 PUSH1 0xA DUP1 SLOAD DUP1 PUSH1 0x20 MUL PUSH1 0x20 ADD PUSH1 0x40 MLOAD SWAP1 DUP2 ADD PUSH1 0x40 MSTORE DUP1 SWAP3 SWAP2 SWAP1 DUP2 DUP2 MSTORE PUSH1 0x20 ADD PUSH1 0x0 SWAP1 JUMPDEST DUP3 DUP3 LT ISZERO PUSH2 0x1053 JUMPI DUP4 DUP3 SWAP1 PUSH1 0x0 MSTORE PUSH1 0x20 PUSH1 0x0 KECCAK256 ADD DUP1 SLOAD PUSH2 0x3E71 SWAP1 PUSH2 0x4CE2 JUMP JUMPDEST DUP1 PUSH1 0x1F ADD PUSH1 0x20 DUP1 SWAP2 DIV MUL PUSH1 0x20 ADD PUSH1 0x40 MLOAD SWAP1 DUP2 ADD PUSH1 0x40 MSTORE DUP1 SWAP3 SWAP2 SWAP1 DUP2 DUP2 MSTORE PUSH1 0x20 ADD DUP3 DUP1 SLOAD PUSH2 0x3E9D SWAP1 PUSH2 0x4CE2 JUMP JUMPDEST DUP1 ISZERO PUSH2 0x3EEA JUMPI DUP1 PUSH1 0x1F LT PUSH2 0x3EBF JUMPI PUSH2 0x100 DUP1 DUP4 SLOAD DIV MUL DUP4 MSTORE SWAP2 PUSH1 0x20 ADD SWAP2 PUSH2 0x3EEA JUMP JUMPDEST DUP3 ADD SWAP2 SWAP1 PUSH1 0x0 MSTORE PUSH1 0x20 PUSH1 0x0 KECCAK256 SWAP1 JUMPDEST DUP2 SLOAD DUP2 MSTORE SWAP1 PUSH1 0x1 ADD SWAP1 PUSH1 0x20 ADD DUP1 DUP4 GT PUSH2 0x3ECD JUMPI DUP3 SWAP1 SUB PUSH1 0x1F AND DUP3 ADD SWAP2 JUMPDEST POP POP POP POP POP DUP2 MSTORE PUSH1 0x20 ADD SWAP1 PUSH1 0x1 ADD SWAP1 PUSH2 0x3E52 JUMP JUMPDEST PUSH1 0x60 DUP2 PUSH1 0x0 SUB PUSH2 0x3F25 JUMPI POP POP PUSH1 0x40 DUP1 MLOAD DUP1 DUP3 ADD SWAP1 SWAP2 MSTORE PUSH1 0x1 DUP2 MSTORE PUSH1 0x3 PUSH1 0xFC SHL PUSH1 0x20 DUP3 ADD MSTORE SWAP1 JUMP JUMPDEST DUP2 PUSH1 0x0 JUMPDEST DUP2 ISZERO PUSH2 0x3F4F JUMPI DUP1 PUSH2 0x3F39 DUP2 PUSH2 0x4FD9 JUMP JUMPDEST SWAP2 POP PUSH2 0x3F48 SWAP1 POP PUSH1 0xA DUP4 PUSH2 0x504F JUMP JUMPDEST SWAP2 POP PUSH2 0x3F29 JUMP JUMPDEST PUSH1 0x0 DUP2 PUSH1 0x1 PUSH1 0x1 PUSH1 0x40 SHL SUB DUP2 GT ISZERO PUSH2 0x3F69 JUMPI PUSH2 0x3F69 PUSH2 0x436F JUMP JUMPDEST PUSH1 0x40 MLOAD SWAP1 DUP1 DUP3 MSTORE DUP1 PUSH1 0x1F ADD PUSH1 0x1F NOT AND PUSH1 0x20 ADD DUP3 ADD PUSH1 0x40 MSTORE DUP1 ISZERO PUSH2 0x3F93 JUMPI PUSH1 0x20 DUP3 ADD DUP2 DUP1 CALLDATASIZE DUP4 CALLDATACOPY ADD SWAP1 POP JUMPDEST POP SWAP1 POP DUP2 JUMPDEST DUP6 ISZERO PUSH2 0x4005 JUMPI PUSH2 0x3FA9 PUSH1 0x1 DUP3 PUSH2 0x4FF2 JUMP JUMPDEST SWAP1 POP PUSH1 0x0 PUSH2 0x3FB8 PUSH1 0xA DUP9 PUSH2 0x50FD JUMP JUMPDEST PUSH2 0x3FC3 SWAP1 PUSH1 0x30 PUSH2 0x5111 JUMP JUMPDEST SWAP1 POP DUP1 PUSH1 0xF8 SHL DUP4 DUP4 DUP2 MLOAD DUP2 LT PUSH2 0x3FDB JUMPI PUSH2 0x3FDB PUSH2 0x4E87 JUMP JUMPDEST PUSH1 0x20 ADD ADD SWAP1 PUSH1 0x1 PUSH1 0x1 PUSH1 0xF8 SHL SUB NOT AND SWAP1 DUP2 PUSH1 0x0 BYTE SWAP1 MSTORE8 POP PUSH2 0x3FFD PUSH1 0xA DUP9 PUSH2 0x504F JUMP JUMPDEST SWAP7 POP POP PUSH2 0x3F98 JUMP JUMPDEST POP SWAP5 SWAP4 POP POP POP POP JUMP JUMPDEST DUP3 DUP1 SLOAD DUP3 DUP3 SSTORE SWAP1 PUSH1 0x0 MSTORE PUSH1 0x20 PUSH1 0x0 KECCAK256 SWAP1 DUP2 ADD SWAP3 DUP3 ISZERO PUSH2 0x4049 JUMPI SWAP2 PUSH1 0x20 MUL DUP3 ADD JUMPDEST DUP3 DUP2 GT ISZERO PUSH2 0x4049 JUMPI DUP3 MLOAD DUP3 SSTORE SWAP2 PUSH1 0x20 ADD SWAP2 SWAP1 PUSH1 0x1 ADD SWAP1 PUSH2 0x402E JUMP JUMPDEST POP PUSH2 0x4055 SWAP3 SWAP2 POP PUSH2 0x40AB JUMP JUMPDEST POP SWAP1 JUMP JUMPDEST DUP3 DUP1 SLOAD DUP3 DUP3 SSTORE SWAP1 PUSH1 0x0 MSTORE PUSH1 0x20 PUSH1 0x0 KECCAK256 SWAP1 DUP2 ADD SWAP3 DUP3 ISZERO PUSH2 0x409F JUMPI SWAP2 PUSH1 0x20 MUL DUP3 ADD JUMPDEST DUP3 DUP2 GT ISZERO PUSH2 0x409F JUMPI DUP3 MLOAD DUP3 SWAP1 PUSH2 0x408F SWAP1 DUP3 PUSH2 0x4DC9 JUMP JUMPDEST POP SWAP2 PUSH1 0x20 ADD SWAP2 SWAP1 PUSH1 0x1 ADD SWAP1 PUSH2 0x4079 JUMP JUMPDEST POP PUSH2 0x4055 SWAP3 SWAP2 POP PUSH2 0x40C0 JUMP JUMPDEST JUMPDEST DUP1 DUP3 GT ISZERO PUSH2 0x4055 JUMPI PUSH1 0x0 DUP2 SSTORE PUSH1 0x1 ADD PUSH2 0x40AC JUMP JUMPDEST DUP1 DUP3 GT ISZERO PUSH2 0x4055 JUMPI PUSH1 0x0 PUSH2 0x40D4 DUP3 DUP3 PUSH2 0x40DD JUMP JUMPDEST POP PUSH1 0x1 ADD PUSH2 0x40C0 JUMP JUMPDEST POP DUP1 SLOAD PUSH2 0x40E9 SWAP1 PUSH2 0x4CE2 JUMP JUMPDEST PUSH1 0x0 DUP3 SSTORE DUP1 PUSH1 0x1F LT PUSH2 0x40F9 JUMPI POP POP JUMP JUMPDEST PUSH1 0x1F ADD PUSH1 0x20 SWAP1 DIV SWAP1 PUSH1 0x0 MSTORE PUSH1 0x20 PUSH1 0x0 KECCAK256 SWAP1 DUP2 ADD SWAP1 PUSH2 0x4117 SWAP2 SWAP1 PUSH2 0x40AB JUMP JUMPDEST POP JUMP JUMPDEST PUSH1 0x0 JUMPDEST DUP4 DUP2 LT ISZERO PUSH2 0x4135 JUMPI DUP2 DUP2 ADD MLOAD DUP4 DUP3 ADD MSTORE PUSH1 0x20 ADD PUSH2 0x411D JUMP JUMPDEST POP POP PUSH1 0x0 SWAP2 ADD MSTORE JUMP JUMPDEST PUSH1 0x0 DUP2 MLOAD DUP1 DUP5 MSTORE PUSH2 0x4156 DUP2 PUSH1 0x20 DUP7 ADD PUSH1 0x20 DUP7 ADD PUSH2 0x411A JUMP JUMPDEST PUSH1 0x1F ADD PUSH1 0x1F NOT AND SWAP3 SWAP1 SWAP3 ADD PUSH1 0x20 ADD SWAP3 SWAP2 POP POP JUMP JUMPDEST PUSH1 0x0 DUP3 DUP3 MLOAD DUP1 DUP6 MSTORE PUSH1 0x20 DUP6 ADD SWAP5 POP PUSH1 0x20 DUP2 PUSH1 0x5 SHL DUP4 ADD ADD PUSH1 0x20 DUP6 ADD PUSH1 0x0 JUMPDEST DUP4 DUP2 LT ISZERO PUSH2 0x41BA JUMPI PUSH1 0x1F NOT DUP6 DUP5 SUB ADD DUP9 MSTORE PUSH2 0x41A4 DUP4 DUP4 MLOAD PUSH2 0x413E JUMP JUMPDEST PUSH1 0x20 SWAP9 DUP10 ADD SWAP9 SWAP1 SWAP4 POP SWAP2 SWAP1 SWAP2 ADD SWAP1 PUSH1 0x1 ADD PUSH2 0x4188 JUMP JUMPDEST POP SWAP1 SWAP7 SWAP6 POP POP POP POP POP POP JUMP JUMPDEST PUSH1 0x20 DUP2 MSTORE PUSH1 0x0 PUSH2 0x41D9 PUSH1 0x20 DUP4 ADD DUP5 PUSH2 0x416A JUMP JUMPDEST SWAP4 SWAP3 POP POP POP JUMP JUMPDEST PUSH1 0x40 MLOAD PUSH3 0x461BCD PUSH1 0xE5 SHL DUP2 MSTORE PUSH1 0x20 PUSH1 0x4 DUP3 ADD MSTORE PUSH1 0x22 PUSH1 0x24 DUP3 ADD MSTORE PUSH32 0x414249206465636F64696E673A207475706C65206461746120746F6F2073686F PUSH1 0x44 DUP3 ADD MSTORE PUSH2 0x1C9D PUSH1 0xF2 SHL PUSH1 0x64 DUP3 ADD MSTORE PUSH1 0x84 DUP2 REVERT JUMPDEST PUSH1 0x40 MLOAD PUSH3 0x461BCD PUSH1 0xE5 SHL DUP2 MSTORE PUSH1 0x20 PUSH1 0x4 DUP3 ADD MSTORE PUSH1 0x22 PUSH1 0x24 DUP3 ADD MSTORE PUSH32 0x414249206465636F64696E673A20696E76616C6964207475706C65206F666673 PUSH1 0x44 DUP3 ADD MSTORE PUSH2 0x195D PUSH1 0xF2 SHL PUSH1 0x64 DUP3 ADD MSTORE PUSH1 0x84 DUP2 REVERT JUMPDEST DUP1 CALLDATALOAD PUSH1 0x1 PUSH1 0x1 PUSH1 0xA0 SHL SUB DUP2 AND DUP2 EQ PUSH2 0x4297 JUMPI PUSH1 0x0 DUP1 REVERT JUMPDEST SWAP2 SWAP1 POP JUMP JUMPDEST PUSH1 0x0 DUP1 PUSH1 0x40 DUP4 DUP6 SUB SLT ISZERO PUSH2 0x42B2 JUMPI PUSH2 0x42B2 PUSH2 0x41E0 JUMP JUMPDEST PUSH2 0x42BB DUP4 PUSH2 0x4280 JUMP JUMPDEST SWAP5 PUSH1 0x20 SWAP4 SWAP1 SWAP4 ADD CALLDATALOAD SWAP4 POP POP POP JUMP JUMPDEST PUSH1 0x0 PUSH1 0x20 DUP3 DUP5 SUB SLT ISZERO PUSH2 0x42DE JUMPI PUSH2 0x42DE PUSH2 0x41E0 JUMP JUMPDEST PUSH2 0x41D9 DUP3 PUSH2 0x4280 JUMP JUMPDEST PUSH1 0x0 PUSH1 0x20 DUP3 DUP5 SUB SLT ISZERO PUSH2 0x42FC JUMPI PUSH2 0x42FC PUSH2 0x41E0 JUMP JUMPDEST POP CALLDATALOAD SWAP2 SWAP1 POP JUMP JUMPDEST PUSH1 0x20 DUP2 MSTORE PUSH1 0x0 PUSH2 0x41D9 PUSH1 0x20 DUP4 ADD DUP5 PUSH2 0x413E JUMP JUMPDEST PUSH1 0x40 MLOAD PUSH3 0x461BCD PUSH1 0xE5 SHL DUP2 MSTORE PUSH1 0x20 PUSH1 0x4 DUP3 ADD MSTORE PUSH1 0x2B PUSH1 0x24 DUP3 ADD MSTORE PUSH32 0x414249206465636F64696E673A20696E76616C69642063616C6C646174612061 PUSH1 0x44 DUP3 ADD MSTORE PUSH11 0x1C9C985E481BD9999CD95D PUSH1 0xAA SHL PUSH1 0x64 DUP3 ADD MSTORE PUSH1 0x84 DUP2 REVERT JUMPDEST PUSH4 0x4E487B71 PUSH1 0xE0 SHL PUSH1 0x0 MSTORE PUSH1 0x41 PUSH1 0x4 MSTORE PUSH1 0x24 PUSH1 0x0 REVERT JUMPDEST PUSH1 0x40 MLOAD PUSH1 0x1F DUP3 ADD PUSH1 0x1F NOT AND DUP2 ADD PUSH1 0x1 PUSH1 0x1 PUSH1 0x40 SHL SUB DUP2 GT DUP3 DUP3 LT OR ISZERO PUSH2 0x43AD JUMPI PUSH2 0x43AD PUSH2 0x436F JUMP JUMPDEST PUSH1 0x40 MSTORE SWAP2 SWAP1 POP JUMP JUMPDEST PUSH1 0x0 DUP3 PUSH1 0x1F DUP4 ADD SLT PUSH2 0x43C9 JUMPI PUSH2 0x43C9 PUSH2 0x4316 JUMP JUMPDEST DUP2 CALLDATALOAD PUSH1 0x1 PUSH1 0x1 PUSH1 0x40 SHL SUB DUP2 GT ISZERO PUSH2 0x43E2 JUMPI PUSH2 0x43E2 PUSH2 0x436F JUMP JUMPDEST PUSH2 0x43F5 PUSH1 0x1F DUP3 ADD PUSH1 0x1F NOT AND PUSH1 0x20 ADD PUSH2 0x4385 JUMP JUMPDEST DUP2 DUP2 MSTORE DUP5 PUSH1 0x20 DUP4 DUP7 ADD ADD GT ISZERO PUSH2 0x445A JUMPI PUSH1 0x40 MLOAD PUSH3 0x461BCD PUSH1 0xE5 SHL DUP2 MSTORE PUSH1 0x20 PUSH1 0x4 DUP3 ADD MSTORE PUSH1 0x27 PUSH1 0x24 DUP3 ADD MSTORE PUSH32 0x414249206465636F64696E673A20696E76616C69642062797465206172726179 PUSH1 0x44 DUP3 ADD MSTORE PUSH7 0x40D8CADCCEE8D PUSH1 0xCB SHL PUSH1 0x64 DUP3 ADD MSTORE PUSH1 0x84 DUP2 REVERT JUMPDEST DUP2 PUSH1 0x20 DUP6 ADD PUSH1 0x20 DUP4 ADD CALLDATACOPY PUSH1 0x0 SWAP2 DUP2 ADD PUSH1 0x20 ADD SWAP2 SWAP1 SWAP2 MSTORE SWAP4 SWAP3 POP POP POP JUMP JUMPDEST PUSH1 0x0 PUSH1 0x20 DUP3 DUP5 SUB SLT ISZERO PUSH2 0x448C JUMPI PUSH2 0x448C PUSH2 0x41E0 JUMP JUMPDEST DUP2 CALLDATALOAD PUSH1 0x1 PUSH1 0x1 PUSH1 0x40 SHL SUB DUP2 GT ISZERO PUSH2 0x44A5 JUMPI PUSH2 0x44A5 PUSH2 0x4230 JUMP JUMPDEST PUSH2 0x44B1 DUP5 DUP3 DUP6 ADD PUSH2 0x43B5 JUMP JUMPDEST SWAP5 SWAP4 POP POP POP POP JUMP JUMPDEST PUSH1 0x0 DUP1 PUSH1 0x0 DUP1 PUSH1 0x0 PUSH1 0xA0 DUP7 DUP9 SUB SLT ISZERO PUSH2 0x44D4 JUMPI PUSH2 0x44D4 PUSH2 0x41E0 JUMP JUMPDEST DUP6 CALLDATALOAD PUSH1 0x1 PUSH1 0x1 PUSH1 0x40 SHL SUB DUP2 GT ISZERO PUSH2 0x44ED JUMPI PUSH2 0x44ED PUSH2 0x4230 JUMP JUMPDEST PUSH2 0x44F9 DUP9 DUP3 DUP10 ADD PUSH2 0x43B5 JUMP JUMPDEST SWAP6 POP POP PUSH1 0x20 DUP7 ADD CALLDATALOAD PUSH1 0x1 PUSH1 0x1 PUSH1 0x40 SHL SUB DUP2 GT ISZERO PUSH2 0x4518 JUMPI PUSH2 0x4518 PUSH2 0x4230 JUMP JUMPDEST PUSH2 0x4524 DUP9 DUP3 DUP10 ADD PUSH2 0x43B5 JUMP JUMPDEST SWAP5 POP POP PUSH1 0x40 DUP7 ADD CALLDATALOAD PUSH1 0x1 PUSH1 0x1 PUSH1 0x40 SHL SUB DUP2 GT ISZERO PUSH2 0x4543 JUMPI PUSH2 0x4543 PUSH2 0x4230 JUMP JUMPDEST PUSH2 0x454F DUP9 DUP3 DUP10 ADD PUSH2 0x43B5 JUMP JUMPDEST SWAP4 POP POP PUSH1 0x60 DUP7 ADD CALLDATALOAD PUSH1 0x1 PUSH1 0x1 PUSH1 0x40 SHL SUB DUP2 GT ISZERO PUSH2 0x456E JUMPI PUSH2 0x456E PUSH2 0x4230 JUMP JUMPDEST PUSH2 0x457A DUP9 DUP3 DUP10 ADD PUSH2 0x43B5 JUMP JUMPDEST SWAP3 POP POP PUSH1 0x80 DUP7 ADD CALLDATALOAD PUSH1 0x1 PUSH1 0x1 PUSH1 0x40 SHL SUB DUP2 GT ISZERO PUSH2 0x4599 JUMPI PUSH2 0x4599 PUSH2 0x4230 JUMP JUMPDEST PUSH2 0x45A5 DUP9 DUP3 DUP10 ADD PUSH2 0x43B5 JUMP JUMPDEST SWAP2 POP POP SWAP3 SWAP6 POP SWAP3 SWAP6 SWAP1 SWAP4 POP JUMP JUMPDEST PUSH1 0x0 DUP1 PUSH1 0x40 DUP4 DUP6 SUB SLT ISZERO PUSH2 0x45C8 JUMPI PUSH2 0x45C8 PUSH2 0x41E0 JUMP JUMPDEST DUP3 CALLDATALOAD PUSH1 0x1 PUSH1 0x1 PUSH1 0x40 SHL SUB DUP2 GT ISZERO PUSH2 0x45E1 JUMPI PUSH2 0x45E1 PUSH2 0x4230 JUMP JUMPDEST PUSH2 0x45ED DUP6 DUP3 DUP7 ADD PUSH2 0x43B5 JUMP JUMPDEST SWAP3 POP POP PUSH1 0x20 DUP4 ADD CALLDATALOAD PUSH1 0x1 PUSH1 0x1 PUSH1 0x40 SHL SUB DUP2 GT ISZERO PUSH2 0x460C JUMPI PUSH2 0x460C PUSH2 0x4230 JUMP JUMPDEST PUSH2 0x4618 DUP6 DUP3 DUP7 ADD PUSH2 0x43B5 JUMP JUMPDEST SWAP2 POP POP SWAP3 POP SWAP3 SWAP1 POP JUMP JUMPDEST PUSH1 0x0 DUP1 PUSH1 0x40 DUP4 DUP6 SUB SLT ISZERO PUSH2 0x4638 JUMPI PUSH2 0x4638 PUSH2 0x41E0 JUMP JUMPDEST DUP3 CALLDATALOAD SWAP2 POP PUSH1 0x20 DUP4 ADD CALLDATALOAD PUSH1 0x1 PUSH1 0x1 PUSH1 0x40 SHL SUB DUP2 GT ISZERO PUSH2 0x460C JUMPI PUSH2 0x460C PUSH2 0x4230 JUMP JUMPDEST PUSH1 0x0 DUP1 PUSH1 0x0 DUP1 PUSH1 0x80 DUP6 DUP8 SUB SLT ISZERO PUSH2 0x4671 JUMPI PUSH2 0x4671 PUSH2 0x41E0 JUMP JUMPDEST DUP5 CALLDATALOAD SWAP4 POP PUSH1 0x20 DUP6 ADD CALLDATALOAD SWAP3 POP PUSH1 0x40 DUP6 ADD CALLDATALOAD SWAP2 POP PUSH1 0x60 DUP6 ADD CALLDATALOAD DUP1 ISZERO ISZERO DUP2 EQ PUSH2 0x4696 JUMPI PUSH1 0x0 DUP1 REVERT JUMPDEST SWAP4 SWAP7 SWAP3 SWAP6 POP SWAP1 SWAP4 POP POP JUMP JUMPDEST PUSH1 0x0 DUP3 PUSH1 0x1F DUP4 ADD SLT PUSH2 0x46B5 JUMPI PUSH2 0x46B5 PUSH2 0x4316 JUMP JUMPDEST DUP2 CALLDATALOAD PUSH1 0x1 PUSH1 0x1 PUSH1 0x40 SHL SUB DUP2 GT ISZERO PUSH2 0x46CE JUMPI PUSH2 0x46CE PUSH2 0x436F JUMP JUMPDEST DUP1 PUSH1 0x5 SHL PUSH2 0x46DE PUSH1 0x20 DUP3 ADD PUSH2 0x4385 JUMP JUMPDEST SWAP2 DUP3 MSTORE PUSH1 0x20 DUP2 DUP6 ADD DUP2 ADD SWAP3 SWAP1 DUP2 ADD SWAP1 DUP7 DUP5 GT ISZERO PUSH2 0x4750 JUMPI PUSH1 0x40 MLOAD PUSH3 0x461BCD PUSH1 0xE5 SHL DUP2 MSTORE PUSH1 0x20 PUSH1 0x4 DUP3 ADD MSTORE PUSH1 0x2B PUSH1 0x24 DUP3 ADD MSTORE PUSH32 0x414249206465636F64696E673A20696E76616C69642063616C6C646174612061 PUSH1 0x44 DUP3 ADD MSTORE PUSH11 0x7272617920737472696465 PUSH1 0xA8 SHL PUSH1 0x64 DUP3 ADD MSTORE SWAP3 POP PUSH1 0x84 DUP4 REVERT JUMPDEST PUSH1 0x20 DUP7 ADD SWAP3 POP JUMPDEST DUP4 DUP4 LT ISZERO PUSH2 0x4799 JUMPI DUP3 CALLDATALOAD PUSH1 0x1 PUSH1 0x1 PUSH1 0x40 SHL SUB DUP2 GT ISZERO PUSH2 0x4778 JUMPI PUSH2 0x4778 PUSH2 0x4316 JUMP JUMPDEST PUSH2 0x4787 DUP9 PUSH1 0x20 DUP4 DUP11 ADD ADD PUSH2 0x43B5 JUMP JUMPDEST DUP4 MSTORE POP PUSH1 0x20 SWAP3 DUP4 ADD SWAP3 SWAP1 SWAP2 ADD SWAP1 PUSH2 0x4757 JUMP JUMPDEST SWAP7 SWAP6 POP POP POP POP POP POP JUMP JUMPDEST PUSH1 0x0 DUP1 PUSH1 0x0 DUP1 PUSH1 0x0 DUP1 PUSH1 0xC0 DUP8 DUP10 SUB SLT ISZERO PUSH2 0x47BF JUMPI PUSH2 0x47BF PUSH2 0x41E0 JUMP JUMPDEST DUP7 CALLDATALOAD PUSH1 0x1 PUSH1 0x1 PUSH1 0x40 SHL SUB DUP2 GT ISZERO PUSH2 0x47D8 JUMPI PUSH2 0x47D8 PUSH2 0x4230 JUMP JUMPDEST PUSH2 0x47E4 DUP10 DUP3 DUP11 ADD PUSH2 0x43B5 JUMP JUMPDEST SWAP7 POP POP PUSH1 0x20 DUP8 ADD CALLDATALOAD PUSH1 0x1 PUSH1 0x1 PUSH1 0x40 SHL SUB DUP2 GT ISZERO PUSH2 0x4803 JUMPI PUSH2 0x4803 PUSH2 0x4230 JUMP JUMPDEST PUSH2 0x480F DUP10 DUP3 DUP11 ADD PUSH2 0x43B5 JUMP JUMPDEST SWAP6 POP POP PUSH1 0x40 DUP8 ADD CALLDATALOAD PUSH1 0x1 PUSH1 0x1 PUSH1 0x40 SHL SUB DUP2 GT ISZERO PUSH2 0x482E JUMPI PUSH2 0x482E PUSH2 0x4230 JUMP JUMPDEST PUSH2 0x483A DUP10 DUP3 DUP11 ADD PUSH2 0x43B5 JUMP JUMPDEST SWAP5 POP POP PUSH1 0x60 DUP8 ADD CALLDATALOAD PUSH1 0x1 PUSH1 0x1 PUSH1 0x40 SHL SUB DUP2 GT ISZERO PUSH2 0x4859 JUMPI PUSH2 0x4859 PUSH2 0x4230 JUMP JUMPDEST PUSH2 0x4865 DUP10 DUP3 DUP11 ADD PUSH2 0x43B5 JUMP JUMPDEST SWAP4 POP POP PUSH1 0x80 DUP8 ADD CALLDATALOAD PUSH1 0x1 PUSH1 0x1 PUSH1 0x40 SHL SUB DUP2 GT ISZERO PUSH2 0x4884 JUMPI PUSH2 0x4884 PUSH2 0x4230 JUMP JUMPDEST PUSH2 0x4890 DUP10 DUP3 DUP11 ADD PUSH2 0x43B5 JUMP JUMPDEST SWAP3 POP POP PUSH1 0xA0 DUP8 ADD CALLDATALOAD PUSH1 0x1 PUSH1 0x1 PUSH1 0x40 SHL SUB DUP2 GT ISZERO PUSH2 0x48AF JUMPI PUSH2 0x48AF PUSH2 0x4230 JUMP JUMPDEST PUSH2 0x48BB DUP10 DUP3 DUP11 ADD PUSH2 0x46A1 JUMP JUMPDEST SWAP2 POP POP SWAP3 SWAP6 POP SWAP3 SWAP6 POP SWAP3 SWAP6 JUMP JUMPDEST PUSH1 0xC0 DUP2 MSTORE PUSH1 0x0 PUSH2 0x48DB PUSH1 0xC0 DUP4 ADD DUP10 PUSH2 0x413E JUMP JUMPDEST DUP3 DUP2 SUB PUSH1 0x20 DUP5 ADD MSTORE PUSH2 0x48ED DUP2 DUP10 PUSH2 0x413E JUMP JUMPDEST SWAP1 POP DUP3 DUP2 SUB PUSH1 0x40 DUP5 ADD MSTORE PUSH2 0x4901 DUP2 DUP9 PUSH2 0x413E JUMP JUMPDEST SWAP1 POP DUP3 DUP2 SUB PUSH1 0x60 DUP5 ADD MSTORE PUSH2 0x4915 DUP2 DUP8 PUSH2 0x413E JUMP JUMPDEST SWAP1 POP DUP3 DUP2 SUB PUSH1 0x80 DUP5 ADD MSTORE PUSH2 0x4929 DUP2 DUP7 PUSH2 0x413E JUMP JUMPDEST SWAP1 POP DUP3 DUP2 SUB PUSH1 0xA0 DUP5 ADD MSTORE PUSH2 0x493D DUP2 DUP6 PUSH2 0x416A JUMP JUMPDEST SWAP10 SWAP9 POP POP POP POP POP POP POP POP POP JUMP JUMPDEST PUSH1 0x0 DUP2 MLOAD DUP1 DUP5 MSTORE PUSH1 0x20 DUP5 ADD SWAP4 POP PUSH1 0x20 DUP4 ADD PUSH1 0x0 JUMPDEST DUP3 DUP2 LT ISZERO PUSH2 0x497C JUMPI DUP2 MLOAD DUP7 MSTORE PUSH1 0x20 SWAP6 DUP7 ADD SWAP6 SWAP1 SWAP2 ADD SWAP1 PUSH1 0x1 ADD PUSH2 0x495E JUMP JUMPDEST POP SWAP4 SWAP5 SWAP4 POP POP POP POP JUMP JUMPDEST PUSH1 0x20 DUP2 MSTORE PUSH1 0x0 PUSH2 0x41D9 PUSH1 0x20 DUP4 ADD DUP5 PUSH2 0x494A JUMP JUMPDEST PUSH1 0xE0 DUP2 MSTORE PUSH1 0x0 PUSH2 0x49AC PUSH1 0xE0 DUP4 ADD DUP11 PUSH2 0x413E JUMP JUMPDEST DUP3 DUP2 SUB PUSH1 0x20 DUP5 ADD MSTORE PUSH2 0x49BE DUP2 DUP11 PUSH2 0x413E JUMP JUMPDEST SWAP1 POP DUP3 DUP2 SUB PUSH1 0x40 DUP5 ADD MSTORE PUSH2 0x49D2 DUP2 DUP10 PUSH2 0x413E JUMP JUMPDEST SWAP1 POP DUP7 PUSH1 0x60 DUP5 ADD MSTORE DUP3 DUP2 SUB PUSH1 0x80 DUP5 ADD MSTORE PUSH2 0x49EC DUP2 DUP8 PUSH2 0x413E JUMP JUMPDEST PUSH1 0x1 PUSH1 0x1 PUSH1 0xA0 SHL SUB DUP7 AND PUSH1 0xA0 DUP6 ADD MSTORE DUP4 DUP2 SUB PUSH1 0xC0 DUP6 ADD MSTORE SWAP1 POP PUSH2 0x4A0F DUP2 DUP6 PUSH2 0x494A JUMP JUMPDEST SWAP11 SWAP10 POP POP POP POP POP POP POP POP POP POP JUMP JUMPDEST PUSH2 0x100 DUP2 MSTORE PUSH1 0x0 PUSH2 0x4A32 PUSH2 0x100 DUP4 ADD DUP12 PUSH2 0x413E JUMP JUMPDEST DUP3 DUP2 SUB PUSH1 0x20 DUP5 ADD MSTORE PUSH2 0x4A44 DUP2 DUP12 PUSH2 0x413E JUMP JUMPDEST PUSH1 0x1 PUSH1 0x1 PUSH1 0xA0 SHL SUB DUP11 AND PUSH1 0x40 DUP6 ADD MSTORE DUP4 DUP2 SUB PUSH1 0x60 DUP6 ADD MSTORE SWAP1 POP PUSH2 0x4A67 DUP2 DUP10 PUSH2 0x416A JUMP JUMPDEST SWAP1 POP DUP7 PUSH1 0x80 DUP5 ADD MSTORE DUP3 DUP2 SUB PUSH1 0xA0 DUP5 ADD MSTORE PUSH2 0x4A81 DUP2 DUP8 PUSH2 0x413E JUMP JUMPDEST SWAP1 POP DUP3 DUP2 SUB PUSH1 0xC0 DUP5 ADD MSTORE PUSH2 0x4A95 DUP2 DUP7 PUSH2 0x416A JUMP JUMPDEST SWAP2 POP POP DUP3 PUSH1 0xE0 DUP4 ADD MSTORE SWAP10 SWAP9 POP POP POP POP POP POP POP POP POP JUMP JUMPDEST PUSH1 0x0 DUP1 PUSH1 0x40 DUP4 DUP6 SUB SLT ISZERO PUSH2 0x4AC1 JUMPI PUSH2 0x4AC1 PUSH2 0x41E0 JUMP JUMPDEST POP POP DUP1 CALLDATALOAD SWAP3 PUSH1 0x20 SWAP1 SWAP2 ADD CALLDATALOAD SWAP2 POP JUMP JUMPDEST PUSH1 0x0 DUP1 PUSH1 0x0 DUP1 PUSH1 0x0 PUSH1 0xA0 DUP7 DUP9 SUB SLT ISZERO PUSH2 0x4AEB JUMPI PUSH2 0x4AEB PUSH2 0x41E0 JUMP JUMPDEST DUP6 CALLDATALOAD PUSH1 0x1 PUSH1 0x1 PUSH1 0x40 SHL SUB DUP2 GT ISZERO PUSH2 0x4B04 JUMPI PUSH2 0x4B04 PUSH2 0x4230 JUMP JUMPDEST PUSH2 0x4B10 DUP9 DUP3 DUP10 ADD PUSH2 0x43B5 JUMP JUMPDEST SWAP6 POP POP PUSH1 0x20 DUP7 ADD CALLDATALOAD PUSH1 0x1 PUSH1 0x1 PUSH1 0x40 SHL SUB DUP2 GT ISZERO PUSH2 0x4B2F JUMPI PUSH2 0x4B2F PUSH2 0x4230 JUMP JUMPDEST PUSH2 0x4B3B DUP9 DUP3 DUP10 ADD PUSH2 0x43B5 JUMP JUMPDEST SWAP5 POP POP PUSH1 0x40 DUP7 ADD CALLDATALOAD PUSH1 0x1 PUSH1 0x1 PUSH1 0x40 SHL SUB DUP2 GT ISZERO PUSH2 0x4B5A JUMPI PUSH2 0x4B5A PUSH2 0x4230 JUMP JUMPDEST PUSH2 0x4B66 DUP9 DUP3 DUP10 ADD PUSH2 0x43B5 JUMP JUMPDEST SWAP4 POP POP PUSH1 0x60 DUP7 ADD CALLDATALOAD PUSH1 0x1 PUSH1 0x1 PUSH1 0x40 SHL SUB DUP2 GT ISZERO PUSH2 0x4B85 JUMPI PUSH2 0x4B85 PUSH2 0x4230 JUMP JUMPDEST PUSH2 0x4B91 DUP9 DUP3 DUP10 ADD PUSH2 0x43B5 JUMP JUMPDEST SWAP6 SWAP9 SWAP5 SWAP8 POP SWAP3 SWAP6 PUSH1 0x80 ADD CALLDATALOAD SWAP4 SWAP3 POP POP POP JUMP JUMPDEST PUSH1 0xC0 DUP2 MSTORE PUSH1 0x0 PUSH2 0x4BB6 PUSH1 0xC0 DUP4 ADD DUP10 PUSH2 0x413E JUMP JUMPDEST DUP3 DUP2 SUB PUSH1 0x20 DUP5 ADD MSTORE PUSH2 0x4BC8 DUP2 DUP10 PUSH2 0x413E JUMP JUMPDEST SWAP1 POP DUP3 DUP2 SUB PUSH1 0x40 DUP5 ADD MSTORE PUSH2 0x4BDC DUP2 DUP9 PUSH2 0x413E JUMP JUMPDEST SWAP1 POP DUP6 PUSH1 0x60 DUP5 ADD MSTORE DUP3 DUP2 SUB PUSH1 0x80 DUP5 ADD MSTORE PUSH2 0x4BF6 DUP2 DUP7 PUSH2 0x413E JUMP JUMPDEST SWAP2 POP POP PUSH1 0x1 DUP1 PUSH1 0xA0 SHL SUB DUP4 AND PUSH1 0xA0 DUP4 ADD MSTORE SWAP8 SWAP7 POP POP POP POP POP POP POP JUMP JUMPDEST PUSH1 0xC0 DUP2 MSTORE PUSH1 0x0 PUSH2 0x4C25 PUSH1 0xC0 DUP4 ADD DUP10 PUSH2 0x413E JUMP JUMPDEST DUP3 DUP2 SUB PUSH1 0x20 DUP5 ADD MSTORE PUSH2 0x4C37 DUP2 DUP10 PUSH2 0x413E JUMP JUMPDEST PUSH1 0x1 PUSH1 0x1 PUSH1 0xA0 SHL SUB DUP9 AND PUSH1 0x40 DUP6 ADD MSTORE PUSH1 0x60 DUP5 ADD DUP8 SWAP1 MSTORE DUP4 DUP2 SUB PUSH1 0x80 DUP6 ADD MSTORE SWAP1 POP PUSH2 0x4C61 DUP2 DUP7 PUSH2 0x413E JUMP JUMPDEST SWAP2 POP POP DUP3 PUSH1 0xA0 DUP4 ADD MSTORE SWAP8 SWAP7 POP POP POP POP POP POP POP JUMP JUMPDEST PUSH1 0xA0 DUP2 MSTORE PUSH1 0x0 PUSH2 0x4C88 PUSH1 0xA0 DUP4 ADD DUP9 PUSH2 0x413E JUMP JUMPDEST DUP3 DUP2 SUB PUSH1 0x20 DUP5 ADD MSTORE PUSH2 0x4C9A DUP2 DUP9 PUSH2 0x413E JUMP JUMPDEST SWAP1 POP DUP3 DUP2 SUB PUSH1 0x40 DUP5 ADD MSTORE PUSH2 0x4CAE DUP2 DUP8 PUSH2 0x413E JUMP JUMPDEST SWAP1 POP DUP3 DUP2 SUB PUSH1 0x60 DUP5 ADD MSTORE PUSH2 0x4CC2 DUP2 DUP7 PUSH2 0x413E JUMP JUMPDEST SWAP1 POP DUP3 DUP2 SUB PUSH1 0x80 DUP5 ADD MSTORE PUSH2 0x4CD6 DUP2 DUP6 PUSH2 0x413E JUMP JUMPDEST SWAP9 SWAP8 POP POP POP POP POP POP POP POP JUMP JUMPDEST PUSH1 0x1 DUP2 DUP2 SHR SWAP1 DUP3 AND DUP1 PUSH2 0x4CF6 JUMPI PUSH1 0x7F DUP3 AND SWAP2 POP JUMPDEST PUSH1 0x20 DUP3 LT DUP2 SUB PUSH2 0x4D16 JUMPI PUSH4 0x4E487B71 PUSH1 0xE0 SHL PUSH1 0x0 MSTORE PUSH1 0x22 PUSH1 0x4 MSTORE PUSH1 0x24 PUSH1 0x0 REVERT JUMPDEST POP SWAP2 SWAP1 POP JUMP JUMPDEST PUSH1 0x20 DUP1 DUP3 MSTORE PUSH1 0x22 SWAP1 DUP3 ADD MSTORE PUSH32 0x4F6E6C79206F776E65722063616E20706572666F726D20746869732061637469 PUSH1 0x40 DUP3 ADD MSTORE PUSH2 0x37B7 PUSH1 0xF1 SHL PUSH1 0x60 DUP3 ADD MSTORE PUSH1 0x80 ADD SWAP1 JUMP JUMPDEST PUSH1 0x0 DUP3 MLOAD PUSH2 0x4D70 DUP2 DUP5 PUSH1 0x20 DUP8 ADD PUSH2 0x411A JUMP JUMPDEST SWAP2 SWAP1 SWAP2 ADD SWAP3 SWAP2 POP POP JUMP JUMPDEST PUSH1 0x1F DUP3 GT ISZERO PUSH2 0x4DC4 JUMPI DUP1 PUSH1 0x0 MSTORE PUSH1 0x20 PUSH1 0x0 KECCAK256 PUSH1 0x1F DUP5 ADD PUSH1 0x5 SHR DUP2 ADD PUSH1 0x20 DUP6 LT ISZERO PUSH2 0x4DA1 JUMPI POP DUP1 JUMPDEST PUSH1 0x1F DUP5 ADD PUSH1 0x5 SHR DUP3 ADD SWAP2 POP JUMPDEST DUP2 DUP2 LT ISZERO PUSH2 0x4DC1 JUMPI PUSH1 0x0 DUP2 SSTORE PUSH1 0x1 ADD PUSH2 0x4DAD JUMP JUMPDEST POP POP JUMPDEST POP POP POP JUMP JUMPDEST DUP2 MLOAD PUSH1 0x1 PUSH1 0x1 PUSH1 0x40 SHL SUB DUP2 GT ISZERO PUSH2 0x4DE2 JUMPI PUSH2 0x4DE2 PUSH2 0x436F JUMP JUMPDEST PUSH2 0x4DF6 DUP2 PUSH2 0x4DF0 DUP5 SLOAD PUSH2 0x4CE2 JUMP JUMPDEST DUP5 PUSH2 0x4D7A JUMP JUMPDEST PUSH1 0x20 PUSH1 0x1F DUP3 GT PUSH1 0x1 DUP2 EQ PUSH2 0x4E2A JUMPI PUSH1 0x0 DUP4 ISZERO PUSH2 0x4E12 JUMPI POP DUP5 DUP3 ADD MLOAD JUMPDEST PUSH1 0x0 NOT PUSH1 0x3 DUP6 SWAP1 SHL SHR NOT AND PUSH1 0x1 DUP5 SWAP1 SHL OR DUP5 SSTORE PUSH2 0x4DC1 JUMP JUMPDEST PUSH1 0x0 DUP5 DUP2 MSTORE PUSH1 0x20 DUP2 KECCAK256 PUSH1 0x1F NOT DUP6 AND SWAP2 JUMPDEST DUP3 DUP2 LT ISZERO PUSH2 0x4E5A JUMPI DUP8 DUP6 ADD MLOAD DUP3 SSTORE PUSH1 0x20 SWAP5 DUP6 ADD SWAP5 PUSH1 0x1 SWAP1 SWAP3 ADD SWAP2 ADD PUSH2 0x4E3A JUMP JUMPDEST POP DUP5 DUP3 LT ISZERO PUSH2 0x4E78 JUMPI DUP7 DUP5 ADD MLOAD PUSH1 0x0 NOT PUSH1 0x3 DUP8 SWAP1 SHL PUSH1 0xF8 AND SHR NOT AND DUP2 SSTORE JUMPDEST POP POP POP POP PUSH1 0x1 SWAP1 DUP2 SHL ADD SWAP1 SSTORE POP JUMP JUMPDEST PUSH4 0x4E487B71 PUSH1 0xE0 SHL PUSH1 0x0 MSTORE PUSH1 0x32 PUSH1 0x4 MSTORE PUSH1 0x24 PUSH1 0x0 REVERT JUMPDEST PUSH1 0x0 DUP1 DUP4 SLOAD PUSH2 0x4EAB DUP2 PUSH2 0x4CE2 JUMP JUMPDEST PUSH1 0x1 DUP3 AND DUP1 ISZERO PUSH2 0x4EC2 JUMPI PUSH1 0x1 DUP2 EQ PUSH2 0x4ED7 JUMPI PUSH2 0x4F07 JUMP JUMPDEST PUSH1 0xFF NOT DUP4 AND DUP7 MSTORE DUP2 ISZERO ISZERO DUP3 MUL DUP7 ADD SWAP4 POP PUSH2 0x4F07 JUMP JUMPDEST DUP7 PUSH1 0x0 MSTORE PUSH1 0x20 PUSH1 0x0 KECCAK256 PUSH1 0x0 JUMPDEST DUP4 DUP2 LT ISZERO PUSH2 0x4EFF JUMPI DUP2 SLOAD DUP9 DUP3 ADD MSTORE PUSH1 0x1 SWAP1 SWAP2 ADD SWAP1 PUSH1 0x20 ADD PUSH2 0x4EE3 JUMP JUMPDEST POP POP DUP2 DUP7 ADD SWAP4 POP JUMPDEST POP SWAP2 SWAP6 SWAP5 POP POP POP POP POP JUMP JUMPDEST PUSH1 0x60 DUP2 MSTORE PUSH1 0x0 PUSH2 0x4F25 PUSH1 0x60 DUP4 ADD DUP7 PUSH2 0x413E JUMP JUMPDEST DUP3 DUP2 SUB PUSH1 0x20 DUP5 ADD MSTORE PUSH2 0x4F37 DUP2 DUP7 PUSH2 0x413E JUMP JUMPDEST SWAP2 POP POP DUP3 PUSH1 0x40 DUP4 ADD MSTORE SWAP5 SWAP4 POP POP POP POP JUMP JUMPDEST PUSH1 0x20 DUP1 DUP3 MSTORE PUSH1 0xE SWAP1 DUP3 ADD MSTORE PUSH14 0x139BDD08185D5D1A1BDC9A5E9959 PUSH1 0x92 SHL PUSH1 0x40 DUP3 ADD MSTORE PUSH1 0x60 ADD SWAP1 JUMP JUMPDEST PUSH1 0x20 DUP1 DUP3 MSTORE PUSH1 0x10 SWAP1 DUP3 ADD MSTORE PUSH16 0x125B9D985B1A5908119C9D5A5D081251 PUSH1 0x82 SHL PUSH1 0x40 DUP3 ADD MSTORE PUSH1 0x60 ADD SWAP1 JUMP JUMPDEST DUP4 DUP2 MSTORE PUSH1 0x60 PUSH1 0x20 DUP3 ADD MSTORE PUSH1 0x0 PUSH2 0x4FB3 PUSH1 0x60 DUP4 ADD DUP6 PUSH2 0x413E JUMP JUMPDEST SWAP1 POP DUP3 PUSH1 0x40 DUP4 ADD MSTORE SWAP5 SWAP4 POP POP POP POP JUMP JUMPDEST PUSH4 0x4E487B71 PUSH1 0xE0 SHL PUSH1 0x0 MSTORE PUSH1 0x11 PUSH1 0x4 MSTORE PUSH1 0x24 PUSH1 0x0 REVERT JUMPDEST PUSH1 0x0 PUSH1 0x1 DUP3 ADD PUSH2 0x4FEB JUMPI PUSH2 0x4FEB PUSH2 0x4FC3 JUMP JUMPDEST POP PUSH1 0x1 ADD SWAP1 JUMP JUMPDEST DUP2 DUP2 SUB DUP2 DUP2 GT ISZERO PUSH2 0x5005 JUMPI PUSH2 0x5005 PUSH2 0x4FC3 JUMP JUMPDEST SWAP3 SWAP2 POP POP JUMP JUMPDEST PUSH1 0x60 DUP2 MSTORE PUSH1 0x0 PUSH2 0x501E PUSH1 0x60 DUP4 ADD DUP7 PUSH2 0x413E JUMP JUMPDEST PUSH1 0x1 PUSH1 0x1 PUSH1 0xA0 SHL SUB SWAP5 SWAP1 SWAP5 AND PUSH1 0x20 DUP4 ADD MSTORE POP PUSH1 0x40 ADD MSTORE SWAP2 SWAP1 POP JUMP JUMPDEST PUSH4 0x4E487B71 PUSH1 0xE0 SHL PUSH1 0x0 MSTORE PUSH1 0x12 PUSH1 0x4 MSTORE PUSH1 0x24 PUSH1 0x0 REVERT JUMPDEST PUSH1 0x0 DUP3 PUSH2 0x505E JUMPI PUSH2 0x505E PUSH2 0x5039 JUMP JUMPDEST POP DIV SWAP1 JUMP JUMPDEST DUP1 DUP3 MUL DUP2 ISZERO DUP3 DUP3 DIV DUP5 EQ OR PUSH2 0x5005 JUMPI PUSH2 0x5005 PUSH2 0x4FC3 JUMP JUMPDEST PUSH10 0x283AB931B430B9B2B21 PUSH1 0xB5 SHL DUP2 MSTORE PUSH1 0x0 DUP3 MLOAD PUSH2 0x509F DUP2 PUSH1 0xA DUP6 ADD PUSH1 0x20 DUP8 ADD PUSH2 0x411A JUMP JUMPDEST PUSH18 0x103AB734BA3990313C9021BAB9BA37B6B2B9 PUSH1 0x71 SHL PUSH1 0xA SWAP4 SWAP1 SWAP2 ADD SWAP3 DUP4 ADD MSTORE POP PUSH1 0x1C ADD SWAP2 SWAP1 POP JUMP JUMPDEST DUP5 DUP2 MSTORE PUSH1 0x80 PUSH1 0x20 DUP3 ADD MSTORE PUSH1 0x0 PUSH2 0x50E1 PUSH1 0x80 DUP4 ADD DUP7 PUSH2 0x413E JUMP JUMPDEST PUSH1 0x1 PUSH1 0x1 PUSH1 0xA0 SHL SUB SWAP5 SWAP1 SWAP5 AND PUSH1 0x40 DUP4 ADD MSTORE POP PUSH1 0x60 ADD MSTORE SWAP3 SWAP2 POP POP JUMP JUMPDEST PUSH1 0x0 DUP3 PUSH2 0x510C JUMPI PUSH2 0x510C PUSH2 0x5039 JUMP JUMPDEST POP MOD SWAP1 JUMP JUMPDEST DUP1 DUP3 ADD DUP1 DUP3 GT ISZERO PUSH2 0x5005 JUMPI PUSH2 0x5005 PUSH2 0x4FC3 JUMP INVALID GASLIMIT PUSH21 0x6865722073656E7420746F206E6F6E2D7061796162 PUSH13 0x652066756E637469A264697066 PUSH20 0x582212209FF730DACB129F816CCF0B87BE31720A MSTORE8 NOT 0xB5 MSTORE8 MULMOD PUSH20 0x1257BC151575639887D164736F6C634300081C00 CALLER "},"methodIdentifiers":{"addFruitCatalog(string,string,string,string,string,string[])":"569de6fd","addManager(address)":"2d06177a","addRecommendation(uint256,string)":"5154da5a","authorizedManagers(address)":"0a3cb21b","farms(string)":"ac9f1276","fruitCatalogs(string)":"c71b89b5","fruitCount()":"f493008d","fruitHashes(string)":"d8ab96bc","fruits(uint256)":"c4172162","getAllActiveListings()":"701e5084","getAllFarms()":"f9559774","getAllFruitTypes()":"046c6712","getFarmData(string)":"6bf62cf8","getFruit(uint256)":"76ce7fe9","getFruitCatalog(string)":"58cf8f51","getFruitHash(string)":"6a03089d","getListedProduct(uint256)":"1b4dba9b","getSellerListings(address)":"5f42da09","harvestFruit(string,string,string,string,uint256)":"a673e064","isFarmRegistered(string)":"3c2119a7","listProductForSale(uint256,uint256,uint256,bool)":"51edfd7d","listedProducts(uint256)":"ceadca13","listingCount()":"a9b07c26","listingIds(uint256)":"52bea360","owner()":"8da5cb5b","purchaseProduct(uint256,uint256)":"a0440426","recordStep(uint256,string)":"bc5e8cd7","registerFarm(string,string,string,string,string)":"3f50e5af","registeredFarms(uint256)":"1fc15e93","registeredFruitTypes(uint256)":"58eed174","removeManager(address)":"ac18de43","sellerListings(address,uint256)":"054564f0","setFruitHash(string,string)":"42c7f63f","updateFarmConditions(string,string)":"43622b81"}}}}}