{"contracts/FruitSupplyChain.sol":{"FruitSupplyChain":{"abi":[{"inputs":[],"stateMutability":"nonpayable","type":"constructor"},{"anonymous":false,"inputs":[{"indexed":false,"internalType":"string","name":"fruitType","type":"string"},{"indexed":false,"internalType":"address","name":"by","type":"address"},{"indexed":false,"internalType":"uint256","name":"timestamp","type":"uint256"}],"name":"CatalogAdded","type":"event"},{"anonymous":false,"inputs":[{"indexed":false,"internalType":"string","name":"farmId","type":"string"},{"indexed":false,"internalType":"string","name":"conditions","type":"string"},{"indexed":false,"internalType":"uint256","name":"timestamp","type":"uint256"}],"name":"FarmUpdated","type":"event"},{"anonymous":false,"inputs":[{"indexed":false,"internalType":"string","name":"fruitType","type":"string"},{"indexed":false,"internalType":"string","name":"ipfsHash","type":"string"},{"indexed":false,"internalType":"uint256","name":"timestamp","type":"uint256"}],"name":"FruitHashUpdated","type":"event"},{"anonymous":false,"inputs":[{"indexed":false,"internalType":"uint256","name":"listingId","type":"uint256"},{"indexed":false,"internalType":"uint256","name":"fruitId","type":"uint256"},{"indexed":false,"internalType":"uint256","name":"price","type":"uint256"},{"indexed":false,"internalType":"uint256","name":"quantity","type":"uint256"},{"indexed":false,"internalType":"address","name":"seller","type":"address"},{"indexed":false,"internalType":"uint256","name":"timestamp","type":"uint256"}],"name":"ProductListed","type":"event"},{"anonymous":false,"inputs":[{"indexed":false,"internalType":"uint256","name":"listingId","type":"uint256"},{"indexed":false,"internalType":"address","name":"buyer","type":"address"},{"indexed":false,"internalType":"uint256","name":"quantity","type":"uint256"},{"indexed":false,"internalType":"uint256","name":"timestamp","type":"uint256"}],"name":"ProductPurchased","type":"event"},{"anonymous":false,"inputs":[{"indexed":false,"internalType":"uint256","name":"fruitId","type":"uint256"},{"indexed":false,"internalType":"string","name":"recommendation","type":"string"},{"indexed":false,"internalType":"uint256","name":"timestamp","type":"uint256"}],"name":"RecommendationAdded","type":"event"},{"anonymous":false,"inputs":[{"indexed":false,"internalType":"uint256","name":"fruitId","type":"uint256"},{"indexed":false,"internalType":"string","name":"step","type":"string"},{"indexed":false,"internalType":"address","name":"by","type":"address"},{"indexed":false,"internalType":"uint256","name":"timestamp","type":"uint256"}],"name":"StepRecorded","type":"event"},{"inputs":[{"internalType":"string","name":"_fruitType","type":"string"},{"internalType":"string","name":"_description","type":"string"},{"internalType":"string","name":"_growingSeason","type":"string"},{"internalType":"string","name":"_nutritionalValue","type":"string"},{"internalType":"string","name":"_storageConditions","type":"string"},{"internalType":"string[]","name":"_commonVarieties","type":"string[]"}],"name":"addFruitCatalog","outputs":[],"stateMutability":"nonpayable","type":"function"},{"inputs":[{"internalType":"address","name":"_manager","type":"address"}],"name":"addManager","outputs":[],"stateMutability":"nonpayable","type":"function"},{"inputs":[{"internalType":"uint256","name":"_fruitId","type":"uint256"},{"internalType":"string","name":"_recommendation","type":"string"}],"name":"addRecommendation","outputs":[],"stateMutability":"nonpayable","type":"function"},{"inputs":[{"internalType":"address","name":"","type":"address"}],"name":"authorizedManagers","outputs":[{"internalType":"bool","name":"","type":"bool"}],"stateMutability":"view","type":"function"},{"inputs":[{"internalType":"string","name":"","type":"string"}],"name":"farms","outputs":[{"internalType":"string","name":"location","type":"string"},{"internalType":"string","name":"climate","type":"string"},{"internalType":"string","name":"soil","type":"string"},{"internalType":"uint256","name":"lastUpdated","type":"uint256"},{"internalType":"string","name":"currentConditions","type":"string"},{"internalType":"address","name":"owner","type":"address"}],"stateMutability":"view","type":"function"},{"inputs":[{"internalType":"string","name":"","type":"string"}],"name":"fruitCatalogs","outputs":[{"internalType":"string","name":"name","type":"string"},{"internalType":"string","name":"description","type":"string"},{"internalType":"string","name":"growingSeason","type":"string"},{"internalType":"string","name":"nutritionalValue","type":"string"},{"internalType":"string","name":"storageConditions","type":"string"}],"stateMutability":"view","type":"function"},{"inputs":[],"name":"fruitCount","outputs":[{"internalType":"uint256","name":"","type":"uint256"}],"stateMutability":"view","type":"function"},{"inputs":[{"internalType":"string","name":"","type":"string"}],"name":"fruitHashes","outputs":[{"internalType":"string","name":"","type":"string"}],"stateMutability":"view","type":"function"},{"inputs":[{"internalType":"uint256","name":"","type":"uint256"}],"name":"fruits","outputs":[{"internalType":"string","name":"fruitType","type":"string"},{"internalType":"string","name":"origin","type":"string"},{"internalType":"address","name":"producer","type":"address"},{"internalType":"uint256","name":"harvestDate","type":"uint256"},{"internalType":"string","name":"quality","type":"string"},{"internalType":"uint256","name":"quantity","type":"uint256"}],"stateMutability":"view","type":"function"},{"inputs":[],"name":"getAllActiveListings","outputs":[{"internalType":"uint256[]","name":"","type":"uint256[]"}],"stateMutability":"view","type":"function"},{"inputs":[],"name":"getAllFarms","outputs":[{"internalType":"string[]","name":"","type":"string[]"}],"stateMutability":"view","type":"function"},{"inputs":[],"name":"getAllFruitTypes","outputs":[{"internalType":"string[]","name":"","type":"string[]"}],"stateMutability":"view","type":"function"},{"inputs":[{"internalType":"string","name":"_farmId","type":"string"}],"name":"getFarmData","outputs":[{"internalType":"string","name":"","type":"string"},{"internalType":"string","name":"","type":"string"},{"internalType":"string","name":"","type":"string"},{"internalType":"uint256","name":"","type":"uint256"},{"internalType":"string","name":"","type":"string"},{"internalType":"address","name":"","type":"address"},{"internalType":"uint256[]","name":"","type":"uint256[]"}],"stateMutability":"view","type":"function"},{"inputs":[{"internalType":"uint256","name":"_fruitId","type":"uint256"}],"name":"getFruit","outputs":[{"internalType":"string","name":"","type":"string"},{"internalType":"string","name":"","type":"string"},{"internalType":"address","name":"","type":"address"},{"internalType":"string[]","name":"","type":"string[]"},{"internalType":"uint256","name":"","type":"uint256"},{"internalType":"string","name":"","type":"string"},{"internalType":"string[]","name":"","type":"string[]"},{"internalType":"uint256","name":"","type":"uint256"}],"stateMutability":"view","type":"function"},{"inputs":[{"internalType":"string","name":"_fruitType","type":"string"}],"name":"getFruitCatalog","outputs":[{"internalType":"string","name":"","type":"string"},{"internalType":"string","name":"","type":"string"},{"internalType":"string","name":"","type":"string"},{"internalType":"string","name":"","type":"string"},{"internalType":"string","name":"","type":"string"},{"internalType":"string[]","name":"","type":"string[]"}],"stateMutability":"view","type":"function"},{"inputs":[{"internalType":"string","name":"fruitType","type":"string"}],"name":"getFruitHash","outputs":[{"internalType":"string","name":"","type":"string"}],"stateMutability":"view","type":"function"},{"inputs":[{"internalType":"uint256","name":"_listingId","type":"uint256"}],"name":"getListedProduct","outputs":[{"internalType":"uint256","name":"fruitId","type":"uint256"},{"internalType":"uint256","name":"price","type":"uint256"},{"internalType":"uint256","name":"quantity","type":"uint256"},{"internalType":"address","name":"seller","type":"address"},{"internalType":"bool","name":"isActive","type":"bool"},{"internalType":"uint256","name":"listedTimestamp","type":"uint256"},{"internalType":"bool","name":"allowPartialPurchase","type":"bool"}],"stateMutability":"view","type":"function"},{"inputs":[{"internalType":"address","name":"_seller","type":"address"}],"name":"getSellerListings","outputs":[{"internalType":"uint256[]","name":"","type":"uint256[]"}],"stateMutability":"view","type":"function"},{"inputs":[{"internalType":"string","name":"_fruitType","type":"string"},{"internalType":"string","name":"_origin","type":"string"},{"internalType":"string","name":"_farmId","type":"string"},{"internalType":"string","name":"_quality","type":"string"},{"internalType":"uint256","name":"_quantity","type":"uint256"}],"name":"harvestFruit","outputs":[],"stateMutability":"nonpayable","type":"function"},{"inputs":[{"internalType":"string","name":"","type":"string"}],"name":"isFarmRegistered","outputs":[{"internalType":"bool","name":"","type":"bool"}],"stateMutability":"view","type":"function"},{"inputs":[{"internalType":"uint256","name":"_fruitId","type":"uint256"},{"internalType":"uint256","name":"_price","type":"uint256"},{"internalType":"uint256","name":"_quantity","type":"uint256"},{"internalType":"bool","name":"_allowPartialPurchase","type":"bool"}],"name":"listProductForSale","outputs":[],"stateMutability":"nonpayable","type":"function"},{"inputs":[{"internalType":"uint256","name":"","type":"uint256"}],"name":"listedProducts","outputs":[{"internalType":"uint256","name":"fruitId","type":"uint256"},{"internalType":"uint256","name":"price","type":"uint256"},{"internalType":"uint256","name":"quantity","type":"uint256"},{"internalType":"address","name":"seller","type":"address"},{"internalType":"bool","name":"isActive","type":"bool"},{"internalType":"uint256","name":"listedTimestamp","type":"uint256"},{"internalType":"bool","name":"allowPartialPurchase","type":"bool"}],"stateMutability":"view","type":"function"},{"inputs":[],"name":"listingCount","outputs":[{"internalType":"uint256","name":"","type":"uint256"}],"stateMutability":"view","type":"function"},{"inputs":[{"internalType":"uint256","name":"","type":"uint256"}],"name":"listingIds","outputs":[{"internalType":"uint256","name":"","type":"uint256"}],"stateMutability":"view","type":"function"},{"inputs":[],"name":"owner","outputs":[{"internalType":"address","name":"","type":"address"}],"stateMutability":"view","type":"function"},{"inputs":[{"internalType":"uint256","name":"_listingId","type":"uint256"},{"internalType":"uint256","name":"_quantity","type":"uint256"}],"name":"purchaseProduct","outputs":[],"stateMutability":"payable","type":"function"},{"inputs":[{"internalType":"uint256","name":"_fruitId","type":"uint256"},{"internalType":"string","name":"_step","type":"string"}],"name":"recordStep","outputs":[],"stateMutability":"nonpayable","type":"function"},{"inputs":[{"internalType":"string","name":"_farmId","type":"string"},{"internalType":"string","name":"_location","type":"string"},{"internalType":"string","name":"_climate","type":"string"},{"internalType":"string","name":"_soil","type":"string"},{"internalType":"string","name":"_currentConditions","type":"string"}],"name":"registerFarm","outputs":[],"stateMutability":"nonpayable","type":"function"},{"inputs":[{"internalType":"uint256","name":"","type":"uint256"}],"name":"registeredFarms","outputs":[{"internalType":"string","name":"","type":"string"}],"stateMutability":"view","type":"function"},{"inputs":[{"internalType":"uint256","name":"","type":"uint256"}],"name":"registeredFruitTypes","outputs":[{"internalType":"string","name":"","type":"string"}],"stateMutability":"view","type":"function"},{"inputs":[{"internalType":"address","name":"_manager","type":"address"}],"name":"removeManager","outputs":[],"stateMutability":"nonpayable","type":"function"},{"inputs":[{"internalType":"address","name":"","type":"address"},{"internalType":"uint256","name":"","type":"uint256"}],"name":"sellerListings","outputs":[{"internalType":"uint256","name":"","type":"uint256"}],"stateMutability":"view","type":"function"},{"inputs":[{"internalType":"string","name":"fruitType","type":"string"},{"internalType":"string","name":"ipfsHash","type":"string"}],"name":"setFruitHash","outputs":[],"stateMutability":"nonpayable","type":"function"},{"inputs":[{"internalType":"string","name":"_farmId","type":"string"},{"internalType":"string","name":"_conditions","type":"string"}],"name":"updateFarmConditions","outputs":[],"stateMutability":"nonpayable","type":"function"}],"evm":{"bytecode":{"linkReferences":{},"object":"6080604052348015600f57600080fd5b50600080546001600160a01b0319163390811782558152600160208190526040909120805460ff191690911790556142d08061004c6000396000f3fe6080604052600436106101f95760003560e01c80636a03089d1161010d578063ac18de43116100a0578063c71b89b51161006f578063c71b89b5146106a2578063ceadca13146106d3578063d8ab96bc1461073d578063f493008d1461075d578063f95597741461077357600080fd5b8063ac18de43146105fe578063ac9f12761461061e578063bc5e8cd714610650578063c41721621461067057600080fd5b80638da5cb5b116100dc5780638da5cb5b1461057d578063a0440426146105b5578063a673e064146105c8578063a9b07c26146105e857600080fd5b80636a03089d146104e15780636bf62cf814610501578063701e50841461053457806376ce7fe91461054957600080fd5b806342c7f63f1161019057806352bea3601161015f57806352bea36014610422578063569de6fd1461044257806358cf8f511461046257806358eed174146104945780635f42da09146104b457600080fd5b806342c7f63f146103a257806343622b81146103c25780635154da5a146103e257806351edfd7d1461040257600080fd5b80631fc15e93116101cc5780631fc15e93146102f85780632d06177a146103255780633c2119a7146103475780633f50e5af1461038257600080fd5b8063046c6712146101fe578063054564f0146102295780630a3cb21b146102575780631b4dba9b14610297575b600080fd5b34801561020a57600080fd5b50610213610788565b60405161022091906135d2565b60405180910390f35b34801561023557600080fd5b50610249610244366004613608565b610861565b604051908152602001610220565b34801561026357600080fd5b50610287610272366004613632565b60016020526000908152604090205460ff1681565b6040519015158152602001610220565b3480156102a357600080fd5b506102b76102b236600461364d565b610892565b604080519788526020880196909652948601939093526001600160a01b0390911660608501521515608084015260a0830152151560c082015260e001610220565b34801561030457600080fd5b5061031861031336600461364d565b610945565b6040516102209190613666565b34801561033157600080fd5b50610345610340366004613632565b6109f1565b005b34801561035357600080fd5b5061028761036236600461372e565b8051602081830181018051600c8252928201919093012091525460ff1681565b34801561038e57600080fd5b5061034561039d36600461376a565b610a2f565b3480156103ae57600080fd5b506103456103bd366004613851565b610cde565b3480156103ce57600080fd5b506103456103dd366004613851565b610d49565b3480156103ee57600080fd5b506103456103fd3660046138b8565b610df6565b34801561040e57600080fd5b5061034561041d3660046138e8565b610ea1565b34801561042e57600080fd5b5061024961043d36600461364d565b6110ce565b34801561044e57600080fd5b5061034561045d3660046139d4565b6110ef565b34801561046e57600080fd5b5061048261047d36600461372e565b611304565b60405161022096959493929190613ae4565b3480156104a057600080fd5b506103186104af36600461364d565b61171b565b3480156104c057600080fd5b506104d46104cf366004613632565b61172b565b6040516102209190613ba2565b3480156104ed57600080fd5b506103186104fc36600461372e565b611797565b34801561050d57600080fd5b5061052161051c36600461372e565b61183d565b6040516102209796959493929190613bb5565b34801561054057600080fd5b506104d4611b6e565b34801561055557600080fd5b5061056961056436600461364d565b611cf6565b604051610220989796959493929190613c39565b34801561058957600080fd5b5060005461059d906001600160a01b031681565b6040516001600160a01b039091168152602001610220565b6103456105c3366004613cc7565b61210f565b3480156105d457600080fd5b506103456105e3366004613ce9565b612330565b3480156105f457600080fd5b5061024960085481565b34801561060a57600080fd5b50610345610619366004613632565b612a3f565b34801561062a57600080fd5b5061063e61063936600461372e565b612a77565b60405161022096959493929190613dad565b34801561065c57600080fd5b5061034561066b3660046138b8565b612cdf565b34801561067c57600080fd5b5061069061068b36600461364d565b612d5b565b60405161022096959493929190613e1c565b3480156106ae57600080fd5b506106c26106bd36600461372e565b612f35565b604051610220959493929190613e7f565b3480156106df57600080fd5b506102b76106ee36600461364d565b60056020819052600091825260409091208054600182015460028301546003840154600485015494909501549294919390926001600160a01b0383169260ff600160a01b909104811692911687565b34801561074957600080fd5b5061031861075836600461372e565b613216565b34801561076957600080fd5b5061024960075481565b34801561077f57600080fd5b5061021361323a565b60606009805480602002602001604051908101604052809291908181526020016000905b828210156108585783829060005260206000200180546107cb90613eec565b80601f01602080910402602001604051908101604052809291908181526020018280546107f790613eec565b80156108445780601f1061081957610100808354040283529160200191610844565b820191906000526020600020905b81548152906001019060200180831161082757829003601f168201915b5050505050815260200190600101906107ac565b50505050905090565b6006602052816000526040600020818154811061087d57600080fd5b90600052602060002001600091509150505481565b600080600080600080600080881180156108ae57506008548811155b6108b757600080fd5b5050506000948552505060056020818152604094859020855160e08101875281548082526001830154938201849052600283015497820188905260038301546001600160a01b03811660608401819052600160a01b90910460ff908116151560808501819052600486015460a08601819052959097015416151560c090930183905290989397965094509091565b600a818154811061095557600080fd5b90600052602060002001600091509050805461097090613eec565b80601f016020809104026020016040519081016040528092919081815260200182805461099c90613eec565b80156109e95780601f106109be576101008083540402835291602001916109e9565b820191906000526020600020905b8154815290600101906020018083116109cc57829003601f168201915b505050505081565b6000546001600160a01b03163314610a0857600080fd5b6001600160a01b03166000908152600160208190526040909120805460ff19169091179055565b600c85604051610a3f9190613f26565b9081526040519081900360200190205460ff1615610a5c57600080fd5b6040518060e0016040528085815260200184815260200183815260200160008152602001828152602001336001600160a01b0316815260200160006001600160401b03811115610aae57610aae613679565b604051908082528060200260200182016040528015610ad7578160200160208202803683370190505b50815250600386604051610aeb9190613f26565b90815260405190819003602001902081518190610b089082613f91565b5060208201516001820190610b1d9082613f91565b5060408201516002820190610b329082613f91565b506060820151600382015560808201516004820190610b519082613f91565b5060a08201516005820180546001600160a01b0319166001600160a01b0390921691909117905560c08201518051610b9391600684019160209091019061341a565b509050506001600c86604051610ba99190613f26565b908152604051908190036020019020805491151560ff199092169190911790556000805b600a54811015610c575786604051602001610be89190613f26565b60405160208183030381529060405280519060200120600a8281548110610c1157610c1161404f565b90600052602060002001604051602001610c2b9190614065565b6040516020818303038152906040528051906020012003610c4f5760019150610c57565b600101610bcd565b5080610c9b57600a80546001810182556000919091527fc65a7bb8d6351c1cf70c95a316cc6a92839c986682d98bc35f958f4883f9d2a801610c998782613f91565b505b7fef9e0a850bb9971e155f20e4b0e490cdeafc72eab8d0da56fe2f1585ad9567de868342604051610cce939291906140da565b60405180910390a1505050505050565b80600d83604051610cef9190613f26565b90815260200160405180910390209081610d099190613f91565b507f888bf677ec642f934df90bbc78f33cc2d32f3d50b0d2bc286d26ef35d69c89b4828242604051610d3d939291906140da565b60405180910390a15050565b6000600383604051610d5b9190613f26565b90815260405190819003602001902060058101549091506001600160a01b0316331480610d9757503360009081526001602052604090205460ff165b610da057600080fd5b60048101610dae8382613f91565b5042600382018190556040517fef9e0a850bb9971e155f20e4b0e490cdeafc72eab8d0da56fe2f1585ad9567de91610de991869186916140da565b60405180910390a1505050565b3360009081526001602052604090205460ff1680610e1e57506000546001600160a01b031633145b610e2757600080fd5b600082118015610e3957506007548211155b610e4257600080fd5b600082815260046020908152604082206007018054600181018255908352912001610e6d8282613f91565b507f40e632d4a93e307bc4fd8ee554a117dbc7f782e20d62bdd43d8dcf040dfb521d828242604051610d3d93929190614110565b600084118015610eb357506007548411155b610ebc57600080fd5b60008311610ec957600080fd5b60008211610ed657600080fd5b60008481526004602052604090206005810154831115610ef557600080fd5b60088054906000610f058361414f565b90915550506040805160e081018252868152602080820187815282840187815233606085018181526001608087018181524260a089019081528b151560c08a019081526008805460009081526005808c528d82209c518d5599518c870155975160028c0155945160038b01805494516001600160a01b039092166001600160a81b031990951694909417600160a01b9115159190910217909255516004808a0191909155905197909501805460ff1916971515979097179096559082526006808552868320825481548089018355918552868520909101559054600b80548088019091557f0175b7a638427703f0dbe7bb9bbf987a2551717b34e79f33b5b1008d1fa01db901558a82529183528481209091018054938401815581528190208351808501909452600f84526e4c697374656420666f722053616c6560881b9184019190915201906110569082613f91565b508281600501600082825461106b9190614168565b909155505060085460408051918252602082018790528101859052606081018490523360808201524260a08201527f74db1cf85b7690d991329cd32074d6249e834ec06591f8652f737065d42b040e9060c0015b60405180910390a15050505050565b600b81815481106110de57600080fd5b600091825260209091200154905081565b3360009081526001602052604090205460ff168061111757506000546001600160a01b031633145b61112057600080fd5b6040518060c001604052808781526020018681526020018581526020018481526020018381526020018281525060028760405161115d9190613f26565b9081526040519081900360200190208151819061117a9082613f91565b506020820151600182019061118f9082613f91565b50604082015160028201906111a49082613f91565b50606082015160038201906111b99082613f91565b50608082015160048201906111ce9082613f91565b5060a082015180516111ea916005840191602090910190613465565b509050506000805b60095481101561127c578760405160200161120d9190613f26565b60405160208183030381529060405280519060200120600982815481106112365761123661404f565b906000526020600020016040516020016112509190614065565b6040516020818303038152906040528051906020012003611274576001915061127c565b6001016111f2565b50806112c057600980546001810182556000919091527f6e1540171b6c0c960b71a7020d9f60077f6af931a8bbf590da0223dacf75c7af016112be8882613f91565b505b7f78384878ee8ef9f8c429173968af06c8e361a98cd306b33d813326106f36681f8733426040516112f393929190614181565b60405180910390a150505050505050565b606080606080606080600060028860405161131f9190613f26565b90815260200160405180910390206040518060c001604052908160008201805461134890613eec565b80601f016020809104026020016040519081016040528092919081815260200182805461137490613eec565b80156113c15780601f10611396576101008083540402835291602001916113c1565b820191906000526020600020905b8154815290600101906020018083116113a457829003601f168201915b505050505081526020016001820180546113da90613eec565b80601f016020809104026020016040519081016040528092919081815260200182805461140690613eec565b80156114535780601f1061142857610100808354040283529160200191611453565b820191906000526020600020905b81548152906001019060200180831161143657829003601f168201915b5050505050815260200160028201805461146c90613eec565b80601f016020809104026020016040519081016040528092919081815260200182805461149890613eec565b80156114e55780601f106114ba576101008083540402835291602001916114e5565b820191906000526020600020905b8154815290600101906020018083116114c857829003601f168201915b505050505081526020016003820180546114fe90613eec565b80601f016020809104026020016040519081016040528092919081815260200182805461152a90613eec565b80156115775780601f1061154c57610100808354040283529160200191611577565b820191906000526020600020905b81548152906001019060200180831161155a57829003601f168201915b5050505050815260200160048201805461159090613eec565b80601f01602080910402602001604051908101604052809291908181526020018280546115bc90613eec565b80156116095780601f106115de57610100808354040283529160200191611609565b820191906000526020600020905b8154815290600101906020018083116115ec57829003601f168201915b5050505050815260200160058201805480602002602001604051908101604052809291908181526020016000905b828210156116e357838290600052602060002001805461165690613eec565b80601f016020809104026020016040519081016040528092919081815260200182805461168290613eec565b80156116cf5780601f106116a4576101008083540402835291602001916116cf565b820191906000526020600020905b8154815290600101906020018083116116b257829003601f168201915b505050505081526020019060010190611637565b505050915250508051602082015160408301516060840151608085015160a090950151939d929c50909a509850919650945092505050565b6009818154811061095557600080fd5b6001600160a01b03811660009081526006602090815260409182902080548351818402810184019094528084526060939283018282801561178b57602002820191906000526020600020905b815481526020019060010190808311611777575b50505050509050919050565b6060600d826040516117a99190613f26565b908152602001604051809103902080546117c290613eec565b80601f01602080910402602001604051908101604052809291908181526020018280546117ee90613eec565b801561178b5780601f106118105761010080835404028352916020019161178b565b820191906000526020600020905b81548152906001019060200180831161181e5750939695505050505050565b60608060606000606060006060600060038960405161185c9190613f26565b90815260200160405180910390206040518060e001604052908160008201805461188590613eec565b80601f01602080910402602001604051908101604052809291908181526020018280546118b190613eec565b80156118fe5780601f106118d3576101008083540402835291602001916118fe565b820191906000526020600020905b8154815290600101906020018083116118e157829003601f168201915b5050505050815260200160018201805461191790613eec565b80601f016020809104026020016040519081016040528092919081815260200182805461194390613eec565b80156119905780601f1061196557610100808354040283529160200191611990565b820191906000526020600020905b81548152906001019060200180831161197357829003601f168201915b505050505081526020016002820180546119a990613eec565b80601f01602080910402602001604051908101604052809291908181526020018280546119d590613eec565b8015611a225780601f106119f757610100808354040283529160200191611a22565b820191906000526020600020905b815481529060010190602001808311611a0557829003601f168201915b5050505050815260200160038201548152602001600482018054611a4590613eec565b80601f0160208091040260200160405190810160405280929190818152602001828054611a7190613eec565b8015611abe5780601f10611a9357610100808354040283529160200191611abe565b820191906000526020600020905b815481529060010190602001808311611aa157829003601f168201915b505050918352505060058201546001600160a01b03166020808301919091526006830180546040805182850281018501825282815294019392830182828015611b2657602002820191906000526020600020905b815481526020019060010190808311611b12575b5050505050815250509050806000015181602001518260400151836060015184608001518560a001518660c00151975097509750975097509750975050919395979092949650565b606060006008546001600160401b03811115611b8c57611b8c613679565b604051908082528060200260200182016040528015611bb5578160200160208202803683370190505b5090506000805b600b54811015611c5d5760056000600b8381548110611bdd57611bdd61404f565b9060005260206000200154815260200190815260200160002060030160149054906101000a900460ff1615611c5557600b8181548110611c1f57611c1f61404f565b9060005260206000200154838381518110611c3c57611c3c61404f565b602090810291909101015281611c518161414f565b9250505b600101611bbc565b506000816001600160401b03811115611c7857611c78613679565b604051908082528060200260200182016040528015611ca1578160200160208202803683370190505b50905060005b82811015611cee57838181518110611cc157611cc161404f565b6020026020010151828281518110611cdb57611cdb61404f565b6020908102919091010152600101611ca7565b509392505050565b60608060006060600060608060008089118015611d1557506007548911155b611d1e57600080fd5b60008981526004602052604080822081516101008101909252805482908290611d4690613eec565b80601f0160208091040260200160405190810160405280929190818152602001828054611d7290613eec565b8015611dbf5780601f10611d9457610100808354040283529160200191611dbf565b820191906000526020600020905b815481529060010190602001808311611da257829003601f168201915b50505050508152602001600182018054611dd890613eec565b80601f0160208091040260200160405190810160405280929190818152602001828054611e0490613eec565b8015611e515780601f10611e2657610100808354040283529160200191611e51565b820191906000526020600020905b815481529060010190602001808311611e3457829003601f168201915b505050918352505060028201546001600160a01b0316602082015260038201546040820152600482018054606090920191611e8b90613eec565b80601f0160208091040260200160405190810160405280929190818152602001828054611eb790613eec565b8015611f045780601f10611ed957610100808354040283529160200191611f04565b820191906000526020600020905b815481529060010190602001808311611ee757829003601f168201915b505050505081526020016005820154815260200160068201805480602002602001604051908101604052809291908181526020016000905b82821015611fe8578382906000526020600020018054611f5b90613eec565b80601f0160208091040260200160405190810160405280929190818152602001828054611f8790613eec565b8015611fd45780601f10611fa957610100808354040283529160200191611fd4565b820191906000526020600020905b815481529060010190602001808311611fb757829003601f168201915b505050505081526020019060010190611f3c565b50505050815260200160078201805480602002602001604051908101604052809291908181526020016000905b828210156120c157838290600052602060002001805461203490613eec565b80601f016020809104026020016040519081016040528092919081815260200182805461206090613eec565b80156120ad5780601f10612082576101008083540402835291602001916120ad565b820191906000526020600020905b81548152906001019060200180831161209057829003601f168201915b505050505081526020019060010190612015565b505050508152505090508060000151816020015182604001518360c00151846060015185608001518660e001518760a001519850985098509850985098509850985050919395975091939597565b60008211801561212157506008548211155b61212a57600080fd5b60008281526005602052604090206003810154600160a01b900460ff1661215057600080fd5b600082118015612164575080600201548211155b61216d57600080fd5b600581015460ff16612189578060020154821461218957600080fd5b60008160020154826001015461219f91906141c5565b905060006121ad84836141d9565b9050803410156121bc57600080fd5b60038301546040516001600160a01b039091169082156108fc029083906000818181858888f193505050501580156121f8573d6000803e3d6000fd5b508383600201600082825461220d9190614168565b9091555050600283015460000361222e5760038301805460ff60a01b191690555b8254600090815260046020526040902060060161224a8561330a565b60405160200161225a91906141f0565b60408051601f198184030181529190528154600181018355600092835260209092209091019061228a9082613f91565b50604080518681523360208201529081018590524260608201527f7d3c39a6cce20f6949eff0833a4d54fca734dc7c6027773d8885e7faeac98a959060800160405180910390a182546040805191825260806020830181905260099083015268141d5c98da185cd95960ba1b60a083015233908201524260608201527f28222dbd9906bc73e71cbd7bd296a46d23de9224d425c30be175af99b4ab77419060c0016110bf565b60006002866040516123429190613f26565b90815260200160405180910390206040518060c001604052908160008201805461236b90613eec565b80601f016020809104026020016040519081016040528092919081815260200182805461239790613eec565b80156123e45780601f106123b9576101008083540402835291602001916123e4565b820191906000526020600020905b8154815290600101906020018083116123c757829003601f168201915b505050505081526020016001820180546123fd90613eec565b80601f016020809104026020016040519081016040528092919081815260200182805461242990613eec565b80156124765780601f1061244b57610100808354040283529160200191612476565b820191906000526020600020905b81548152906001019060200180831161245957829003601f168201915b5050505050815260200160028201805461248f90613eec565b80601f01602080910402602001604051908101604052809291908181526020018280546124bb90613eec565b80156125085780601f106124dd57610100808354040283529160200191612508565b820191906000526020600020905b8154815290600101906020018083116124eb57829003601f168201915b5050505050815260200160038201805461252190613eec565b80601f016020809104026020016040519081016040528092919081815260200182805461254d90613eec565b801561259a5780601f1061256f5761010080835404028352916020019161259a565b820191906000526020600020905b81548152906001019060200180831161257d57829003601f168201915b505050505081526020016004820180546125b390613eec565b80601f01602080910402602001604051908101604052809291908181526020018280546125df90613eec565b801561262c5780601f106126015761010080835404028352916020019161262c565b820191906000526020600020905b81548152906001019060200180831161260f57829003601f168201915b5050505050815260200160058201805480602002602001604051908101604052809291908181526020016000905b8282101561270657838290600052602060002001805461267990613eec565b80601f01602080910402602001604051908101604052809291908181526020018280546126a590613eec565b80156126f25780601f106126c7576101008083540402835291602001916126f2565b820191906000526020600020905b8154815290600101906020018083116126d557829003601f168201915b50505050508152602001906001019061265a565b5050509152505080515190915061271c57600080fd5b600c8460405161272c9190613f26565b9081526040519081900360200190205460ff1661274857600080fd5b6000821161275557600080fd5b600780549060006127658361414f565b9190505550604051806101000160405280878152602001868152602001336001600160a01b0316815260200142815260200184815260200183815260200160006001600160401b038111156127bc576127bc613679565b6040519080825280602002602001820160405280156127ef57816020015b60608152602001906001900390816127da5790505b508152602001600060405190808252806020026020018201604052801561282a57816020015b60608152602001906001900390816128155790505b50905260075460009081526004602052604090208151819061284c9082613f91565b50602082015160018201906128619082613f91565b5060408201516002820180546001600160a01b0319166001600160a01b0390921691909117905560608201516003820155608082015160048201906128a69082613f91565b5060a0820151600582015560c082015180516128cc916006840191602090910190613465565b5060e082015180516128e8916007840191602090910190613465565b5090505060006003856040516128fe9190613f26565b90815260405190819003602001902060058101549091506001600160a01b03166129425760075460068201805460018101825560009182526020909120015561297f565b6003856040516129529190613f26565b90815260405160209181900382019020600754600690910180546001810182556000918252929020909101555b6007546000908152600460209081526040808320600601805460018101825590845292829020815180830190925260158252742430b93b32b9ba32b210313c90283937b23ab1b2b960591b928201929092529101906129de9082613f91565b50600754604080519182526080602083018190526009908301526812185c9d995cdd195960ba1b60a083015233908201524260608201527f28222dbd9906bc73e71cbd7bd296a46d23de9224d425c30be175af99b4ab77419060c0016112f3565b6000546001600160a01b03163314612a5657600080fd5b6001600160a01b03166000908152600160205260409020805460ff19169055565b8051602081830181018051600382529282019190930120915280548190612a9d90613eec565b80601f0160208091040260200160405190810160405280929190818152602001828054612ac990613eec565b8015612b165780601f10612aeb57610100808354040283529160200191612b16565b820191906000526020600020905b815481529060010190602001808311612af957829003601f168201915b505050505090806001018054612b2b90613eec565b80601f0160208091040260200160405190810160405280929190818152602001828054612b5790613eec565b8015612ba45780601f10612b7957610100808354040283529160200191612ba4565b820191906000526020600020905b815481529060010190602001808311612b8757829003601f168201915b505050505090806002018054612bb990613eec565b80601f0160208091040260200160405190810160405280929190818152602001828054612be590613eec565b8015612c325780601f10612c0757610100808354040283529160200191612c32565b820191906000526020600020905b815481529060010190602001808311612c1557829003601f168201915b505050505090806003015490806004018054612c4d90613eec565b80601f0160208091040260200160405190810160405280929190818152602001828054612c7990613eec565b8015612cc65780601f10612c9b57610100808354040283529160200191612cc6565b820191906000526020600020905b815481529060010190602001808311612ca957829003601f168201915b505050600590930154919250506001600160a01b031686565b600082118015612cf157506007548211155b612cfa57600080fd5b600082815260046020908152604082206006018054600181018255908352912001612d258282613f91565b507f28222dbd9906bc73e71cbd7bd296a46d23de9224d425c30be175af99b4ab774182823342604051610d3d949392919061423e565b600460205260009081526040902080548190612d7690613eec565b80601f0160208091040260200160405190810160405280929190818152602001828054612da290613eec565b8015612def5780601f10612dc457610100808354040283529160200191612def565b820191906000526020600020905b815481529060010190602001808311612dd257829003601f168201915b505050505090806001018054612e0490613eec565b80601f0160208091040260200160405190810160405280929190818152602001828054612e3090613eec565b8015612e7d5780601f10612e5257610100808354040283529160200191612e7d565b820191906000526020600020905b815481529060010190602001808311612e6057829003601f168201915b505050506002830154600384015460048501805494956001600160a01b039093169491935090612eac90613eec565b80601f0160208091040260200160405190810160405280929190818152602001828054612ed890613eec565b8015612f255780601f10612efa57610100808354040283529160200191612f25565b820191906000526020600020905b815481529060010190602001808311612f0857829003601f168201915b5050505050908060050154905086565b8051602081830181018051600282529282019190930120915280548190612f5b90613eec565b80601f0160208091040260200160405190810160405280929190818152602001828054612f8790613eec565b8015612fd45780601f10612fa957610100808354040283529160200191612fd4565b820191906000526020600020905b815481529060010190602001808311612fb757829003601f168201915b505050505090806001018054612fe990613eec565b80601f016020809104026020016040519081016040528092919081815260200182805461301590613eec565b80156130625780601f1061303757610100808354040283529160200191613062565b820191906000526020600020905b81548152906001019060200180831161304557829003601f168201915b50505050509080600201805461307790613eec565b80601f01602080910402602001604051908101604052809291908181526020018280546130a390613eec565b80156130f05780601f106130c5576101008083540402835291602001916130f0565b820191906000526020600020905b8154815290600101906020018083116130d357829003601f168201915b50505050509080600301805461310590613eec565b80601f016020809104026020016040519081016040528092919081815260200182805461313190613eec565b801561317e5780601f106131535761010080835404028352916020019161317e565b820191906000526020600020905b81548152906001019060200180831161316157829003601f168201915b50505050509080600401805461319390613eec565b80601f01602080910402602001604051908101604052809291908181526020018280546131bf90613eec565b801561320c5780601f106131e15761010080835404028352916020019161320c565b820191906000526020600020905b8154815290600101906020018083116131ef57829003601f168201915b5050505050905085565b8051602081830181018051600d825292820191909301209152805461097090613eec565b6060600a805480602002602001604051908101604052809291908181526020016000905b8282101561085857838290600052602060002001805461327d90613eec565b80601f01602080910402602001604051908101604052809291908181526020018280546132a990613eec565b80156132f65780601f106132cb576101008083540402835291602001916132f6565b820191906000526020600020905b8154815290600101906020018083116132d957829003601f168201915b50505050508152602001906001019061325e565b6060816000036133315750506040805180820190915260018152600360fc1b602082015290565b8160005b811561335b57806133458161414f565b91506133549050600a836141c5565b9150613335565b6000816001600160401b0381111561337557613375613679565b6040519080825280601f01601f19166020018201604052801561339f576020820181803683370190505b509050815b8515613411576133b5600182614168565b905060006133c4600a88614273565b6133cf906030614287565b90508060f81b8383815181106133e7576133e761404f565b60200101906001600160f81b031916908160001a905350613409600a886141c5565b9650506133a4565b50949350505050565b828054828255906000526020600020908101928215613455579160200282015b8281111561345557825182559160200191906001019061343a565b506134619291506134b7565b5090565b8280548282559060005260206000209081019282156134ab579160200282015b828111156134ab578251829061349b9082613f91565b5091602001919060010190613485565b506134619291506134cc565b5b8082111561346157600081556001016134b8565b808211156134615760006134e082826134e9565b506001016134cc565b5080546134f590613eec565b6000825580601f10613505575050565b601f01602090049060005260206000209081019061352391906134b7565b50565b60005b83811015613541578181015183820152602001613529565b50506000910152565b60008151808452613562816020860160208601613526565b601f01601f19169290920160200192915050565b600082825180855260208501945060208160051b8301016020850160005b838110156135c657601f198584030188526135b083835161354a565b6020988901989093509190910190600101613594565b50909695505050505050565b6020815260006135e56020830184613576565b9392505050565b80356001600160a01b038116811461360357600080fd5b919050565b6000806040838503121561361b57600080fd5b613624836135ec565b946020939093013593505050565b60006020828403121561364457600080fd5b6135e5826135ec565b60006020828403121561365f57600080fd5b5035919050565b6020815260006135e5602083018461354a565b634e487b7160e01b600052604160045260246000fd5b604051601f8201601f191681016001600160401b03811182821017156136b7576136b7613679565b604052919050565b600082601f8301126136d057600080fd5b81356001600160401b038111156136e9576136e9613679565b6136fc601f8201601f191660200161368f565b81815284602083860101111561371157600080fd5b816020850160208301376000918101602001919091529392505050565b60006020828403121561374057600080fd5b81356001600160401b0381111561375657600080fd5b613762848285016136bf565b949350505050565b600080600080600060a0868803121561378257600080fd5b85356001600160401b0381111561379857600080fd5b6137a4888289016136bf565b95505060208601356001600160401b038111156137c057600080fd5b6137cc888289016136bf565b94505060408601356001600160401b038111156137e857600080fd5b6137f4888289016136bf565b93505060608601356001600160401b0381111561381057600080fd5b61381c888289016136bf565b92505060808601356001600160401b0381111561383857600080fd5b613844888289016136bf565b9150509295509295909350565b6000806040838503121561386457600080fd5b82356001600160401b0381111561387a57600080fd5b613886858286016136bf565b92505060208301356001600160401b038111156138a257600080fd5b6138ae858286016136bf565b9150509250929050565b600080604083850312156138cb57600080fd5b8235915060208301356001600160401b038111156138a257600080fd5b600080600080608085870312156138fe57600080fd5b8435935060208501359250604085013591506060850135801515811461392357600080fd5b939692955090935050565b600082601f83011261393f57600080fd5b81356001600160401b0381111561395857613958613679565b8060051b6139686020820161368f565b9182526020818501810192908101908684111561398457600080fd5b6020860192505b838310156139ca5782356001600160401b038111156139a957600080fd5b6139b8886020838a01016136bf565b8352506020928301929091019061398b565b9695505050505050565b60008060008060008060c087890312156139ed57600080fd5b86356001600160401b03811115613a0357600080fd5b613a0f89828a016136bf565b96505060208701356001600160401b03811115613a2b57600080fd5b613a3789828a016136bf565b95505060408701356001600160401b03811115613a5357600080fd5b613a5f89828a016136bf565b94505060608701356001600160401b03811115613a7b57600080fd5b613a8789828a016136bf565b93505060808701356001600160401b03811115613aa357600080fd5b613aaf89828a016136bf565b92505060a08701356001600160401b03811115613acb57600080fd5b613ad789828a0161392e565b9150509295509295509295565b60c081526000613af760c083018961354a565b8281036020840152613b09818961354a565b90508281036040840152613b1d818861354a565b90508281036060840152613b31818761354a565b90508281036080840152613b45818661354a565b905082810360a0840152613b598185613576565b9998505050505050505050565b600081518084526020840193506020830160005b82811015613b98578151865260209586019590910190600101613b7a565b5093949350505050565b6020815260006135e56020830184613b66565b60e081526000613bc860e083018a61354a565b8281036020840152613bda818a61354a565b90508281036040840152613bee818961354a565b90508660608401528281036080840152613c08818761354a565b6001600160a01b03861660a085015283810360c08501529050613c2b8185613b66565b9a9950505050505050505050565b61010081526000613c4e61010083018b61354a565b8281036020840152613c60818b61354a565b6001600160a01b038a16604085015283810360608501529050613c838189613576565b905086608084015282810360a0840152613c9d818761354a565b905082810360c0840152613cb18186613576565b9150508260e08301529998505050505050505050565b60008060408385031215613cda57600080fd5b50508035926020909101359150565b600080600080600060a08688031215613d0157600080fd5b85356001600160401b03811115613d1757600080fd5b613d23888289016136bf565b95505060208601356001600160401b03811115613d3f57600080fd5b613d4b888289016136bf565b94505060408601356001600160401b03811115613d6757600080fd5b613d73888289016136bf565b93505060608601356001600160401b03811115613d8f57600080fd5b613d9b888289016136bf565b95989497509295608001359392505050565b60c081526000613dc060c083018961354a565b8281036020840152613dd2818961354a565b90508281036040840152613de6818861354a565b90508560608401528281036080840152613e00818661354a565b91505060018060a01b03831660a0830152979650505050505050565b60c081526000613e2f60c083018961354a565b8281036020840152613e41818961354a565b6001600160a01b03881660408501526060840187905283810360808501529050613e6b818661354a565b9150508260a0830152979650505050505050565b60a081526000613e9260a083018861354a565b8281036020840152613ea4818861354a565b90508281036040840152613eb8818761354a565b90508281036060840152613ecc818661354a565b90508281036080840152613ee0818561354a565b98975050505050505050565b600181811c90821680613f0057607f821691505b602082108103613f2057634e487b7160e01b600052602260045260246000fd5b50919050565b60008251613f38818460208701613526565b9190910192915050565b601f821115613f8c57806000526020600020601f840160051c81016020851015613f695750805b601f840160051c820191505b81811015613f895760008155600101613f75565b50505b505050565b81516001600160401b03811115613faa57613faa613679565b613fbe81613fb88454613eec565b84613f42565b6020601f821160018114613ff25760008315613fda5750848201515b600019600385901b1c1916600184901b178455613f89565b600084815260208120601f198516915b828110156140225787850151825560209485019460019092019101614002565b50848210156140405786840151600019600387901b60f8161c191681555b50505050600190811b01905550565b634e487b7160e01b600052603260045260246000fd5b600080835461407381613eec565b60018216801561408a576001811461409f576140cf565b60ff19831686528115158202860193506140cf565b86600052602060002060005b838110156140c7578154888201526001909101906020016140ab565b505081860193505b509195945050505050565b6060815260006140ed606083018661354a565b82810360208401526140ff818661354a565b915050826040830152949350505050565b838152606060208201526000614129606083018561354a565b9050826040830152949350505050565b634e487b7160e01b600052601160045260246000fd5b60006001820161416157614161614139565b5060010190565b8181038181111561417b5761417b614139565b92915050565b606081526000614194606083018661354a565b6001600160a01b039490941660208301525060400152919050565b634e487b7160e01b600052601260045260246000fd5b6000826141d4576141d46141af565b500490565b808202811582820484141761417b5761417b614139565b690283ab931b430b9b2b2160b51b81526000825161421581600a850160208701613526565b71103ab734ba3990313c9021bab9ba37b6b2b960711b600a939091019283015250601c01919050565b848152608060208201526000614257608083018661354a565b6001600160a01b03949094166040830152506060015292915050565b600082614282576142826141af565b500690565b8082018082111561417b5761417b61413956fea26469706673582212208e4414614bf325330a6ca45103c0a62c82e5f4ef301ea31b4f677d257612960c64736f6c634300081c0033","opcodes":"PUSH1 0x80 PUSH1 0x40 MSTORE CALLVALUE DUP1 ISZERO PUSH1 0xF JUMPI PUSH1 0x0 DUP1 REVERT JUMPDEST POP PUSH1 0x0 DUP1 SLOAD PUSH1 0x1 PUSH1 0x1 PUSH1 0xA0 SHL SUB NOT AND CALLER SWAP1 DUP2 OR DUP3 SSTORE DUP2 MSTORE PUSH1 0x1 PUSH1 0x20 DUP2 SWAP1 MSTORE PUSH1 0x40 SWAP1 SWAP2 KECCAK256 DUP1 SLOAD PUSH1 0xFF NOT AND SWAP1 SWAP2 OR SWAP1 SSTORE PUSH2 0x42D0 DUP1 PUSH2 0x4C PUSH1 0x0 CODECOPY PUSH1 0x0 RETURN INVALID PUSH1 0x80 PUSH1 0x40 MSTORE PUSH1 0x4 CALLDATASIZE LT PUSH2 0x1F9 JUMPI PUSH1 0x0 CALLDATALOAD PUSH1 0xE0 SHR DUP1 PUSH4 0x6A03089D GT PUSH2 0x10D JUMPI DUP1 PUSH4 0xAC18DE43 GT PUSH2 0xA0 JUMPI DUP1 PUSH4 0xC71B89B5 GT PUSH2 0x6F JUMPI DUP1 PUSH4 0xC71B89B5 EQ PUSH2 0x6A2 JUMPI DUP1 PUSH4 0xCEADCA13 EQ PUSH2 0x6D3 JUMPI DUP1 PUSH4 0xD8AB96BC EQ PUSH2 0x73D JUMPI DUP1 PUSH4 0xF493008D EQ PUSH2 0x75D JUMPI DUP1 PUSH4 0xF9559774 EQ PUSH2 0x773 JUMPI PUSH1 0x0 DUP1 REVERT JUMPDEST DUP1 PUSH4 0xAC18DE43 EQ PUSH2 0x5FE JUMPI DUP1 PUSH4 0xAC9F1276 EQ PUSH2 0x61E JUMPI DUP1 PUSH4 0xBC5E8CD7 EQ PUSH2 0x650 JUMPI DUP1 PUSH4 0xC4172162 EQ PUSH2 0x670 JUMPI PUSH1 0x0 DUP1 REVERT JUMPDEST DUP1 PUSH4 0x8DA5CB5B GT PUSH2 0xDC JUMPI DUP1 PUSH4 0x8DA5CB5B EQ PUSH2 0x57D JUMPI DUP1 PUSH4 0xA0440426 EQ PUSH2 0x5B5 JUMPI DUP1 PUSH4 0xA673E064 EQ PUSH2 0x5C8 JUMPI DUP1 PUSH4 0xA9B07C26 EQ PUSH2 0x5E8 JUMPI PUSH1 0x0 DUP1 REVERT JUMPDEST DUP1 PUSH4 0x6A03089D EQ PUSH2 0x4E1 JUMPI DUP1 PUSH4 0x6BF62CF8 EQ PUSH2 0x501 JUMPI DUP1 PUSH4 0x701E5084 EQ PUSH2 0x534 JUMPI DUP1 PUSH4 0x76CE7FE9 EQ PUSH2 0x549 JUMPI PUSH1 0x0 DUP1 REVERT JUMPDEST DUP1 PUSH4 0x42C7F63F GT PUSH2 0x190 JUMPI DUP1 PUSH4 0x52BEA360 GT PUSH2 0x15F JUMPI DUP1 PUSH4 0x52BEA360 EQ PUSH2 0x422 JUMPI DUP1 PUSH4 0x569DE6FD EQ PUSH2 0x442 JUMPI DUP1 PUSH4 0x58CF8F51 EQ PUSH2 0x462 JUMPI DUP1 PUSH4 0x58EED174 EQ PUSH2 0x494 JUMPI DUP1 PUSH4 0x5F42DA09 EQ PUSH2 0x4B4 JUMPI PUSH1 0x0 DUP1 REVERT JUMPDEST DUP1 PUSH4 0x42C7F63F EQ PUSH2 0x3A2 JUMPI DUP1 PUSH4 0x43622B81 EQ PUSH2 0x3C2 JUMPI DUP1 PUSH4 0x5154DA5A EQ PUSH2 0x3E2 JUMPI DUP1 PUSH4 0x51EDFD7D EQ PUSH2 0x402 JUMPI PUSH1 0x0 DUP1 REVERT JUMPDEST DUP1 PUSH4 0x1FC15E93 GT PUSH2 0x1CC JUMPI DUP1 PUSH4 0x1FC15E93 EQ PUSH2 0x2F8 JUMPI DUP1 PUSH4 0x2D06177A EQ PUSH2 0x325 JUMPI DUP1 PUSH4 0x3C2119A7 EQ PUSH2 0x347 JUMPI DUP1 PUSH4 0x3F50E5AF EQ PUSH2 0x382 JUMPI PUSH1 0x0 DUP1 REVERT JUMPDEST DUP1 PUSH4 0x46C6712 EQ PUSH2 0x1FE JUMPI DUP1 PUSH4 0x54564F0 EQ PUSH2 0x229 JUMPI DUP1 PUSH4 0xA3CB21B EQ PUSH2 0x257 JUMPI DUP1 PUSH4 0x1B4DBA9B EQ PUSH2 0x297 JUMPI JUMPDEST PUSH1 0x0 DUP1 REVERT JUMPDEST CALLVALUE DUP1 ISZERO PUSH2 0x20A JUMPI PUSH1 0x0 DUP1 REVERT JUMPDEST POP PUSH2 0x213 PUSH2 0x788 JUMP JUMPDEST PUSH1 0x40 MLOAD PUSH2 0x220 SWAP2 SWAP1 PUSH2 0x35D2 JUMP JUMPDEST PUSH1 0x40 MLOAD DUP1 SWAP2 SUB SWAP1 RETURN JUMPDEST CALLVALUE DUP1 ISZERO PUSH2 0x235 JUMPI PUSH1 0x0 DUP1 REVERT JUMPDEST POP PUSH2 0x249 PUSH2 0x244 CALLDATASIZE PUSH1 0x4 PUSH2 0x3608 JUMP JUMPDEST PUSH2 0x861 JUMP JUMPDEST PUSH1 0x40 MLOAD SWAP1 DUP2 MSTORE PUSH1 0x20 ADD PUSH2 0x220 JUMP JUMPDEST CALLVALUE DUP1 ISZERO PUSH2 0x263 JUMPI PUSH1 0x0 DUP1 REVERT JUMPDEST POP PUSH2 0x287 PUSH2 0x272 CALLDATASIZE PUSH1 0x4 PUSH2 0x3632 JUMP JUMPDEST PUSH1 0x1 PUSH1 0x20 MSTORE PUSH1 0x0 SWAP1 DUP2 MSTORE PUSH1 0x40 SWAP1 KECCAK256 SLOAD PUSH1 0xFF AND DUP2 JUMP JUMPDEST PUSH1 0x40 MLOAD SWAP1 ISZERO ISZERO DUP2 MSTORE PUSH1 0x20 ADD PUSH2 0x220 JUMP JUMPDEST CALLVALUE DUP1 ISZERO PUSH2 0x2A3 JUMPI PUSH1 0x0 DUP1 REVERT JUMPDEST POP PUSH2 0x2B7 PUSH2 0x2B2 CALLDATASIZE PUSH1 0x4 PUSH2 0x364D JUMP JUMPDEST PUSH2 0x892 JUMP JUMPDEST PUSH1 0x40 DUP1 MLOAD SWAP8 DUP9 MSTORE PUSH1 0x20 DUP9 ADD SWAP7 SWAP1 SWAP7 MSTORE SWAP5 DUP7 ADD SWAP4 SWAP1 SWAP4 MSTORE PUSH1 0x1 PUSH1 0x1 PUSH1 0xA0 SHL SUB SWAP1 SWAP2 AND PUSH1 0x60 DUP6 ADD MSTORE ISZERO ISZERO PUSH1 0x80 DUP5 ADD MSTORE PUSH1 0xA0 DUP4 ADD MSTORE ISZERO ISZERO PUSH1 0xC0 DUP3 ADD MSTORE PUSH1 0xE0 ADD PUSH2 0x220 JUMP JUMPDEST CALLVALUE DUP1 ISZERO PUSH2 0x304 JUMPI PUSH1 0x0 DUP1 REVERT JUMPDEST POP PUSH2 0x318 PUSH2 0x313 CALLDATASIZE PUSH1 0x4 PUSH2 0x364D JUMP JUMPDEST PUSH2 0x945 JUMP JUMPDEST PUSH1 0x40 MLOAD PUSH2 0x220 SWAP2 SWAP1 PUSH2 0x3666 JUMP JUMPDEST CALLVALUE DUP1 ISZERO PUSH2 0x331 JUMPI PUSH1 0x0 DUP1 REVERT JUMPDEST POP PUSH2 0x345 PUSH2 0x340 CALLDATASIZE PUSH1 0x4 PUSH2 0x3632 JUMP JUMPDEST PUSH2 0x9F1 JUMP JUMPDEST STOP JUMPDEST CALLVALUE DUP1 ISZERO PUSH2 0x353 JUMPI PUSH1 0x0 DUP1 REVERT JUMPDEST POP PUSH2 0x287 PUSH2 0x362 CALLDATASIZE PUSH1 0x4 PUSH2 0x372E JUMP JUMPDEST DUP1 MLOAD PUSH1 0x20 DUP2 DUP4 ADD DUP2 ADD DUP1 MLOAD PUSH1 0xC DUP3 MSTORE SWAP3 DUP3 ADD SWAP2 SWAP1 SWAP4 ADD KECCAK256 SWAP2 MSTORE SLOAD PUSH1 0xFF AND DUP2 JUMP JUMPDEST CALLVALUE DUP1 ISZERO PUSH2 0x38E JUMPI PUSH1 0x0 DUP1 REVERT JUMPDEST POP PUSH2 0x345 PUSH2 0x39D CALLDATASIZE PUSH1 0x4 PUSH2 0x376A JUMP JUMPDEST PUSH2 0xA2F JUMP JUMPDEST CALLVALUE DUP1 ISZERO PUSH2 0x3AE JUMPI PUSH1 0x0 DUP1 REVERT JUMPDEST POP PUSH2 0x345 PUSH2 0x3BD CALLDATASIZE PUSH1 0x4 PUSH2 0x3851 JUMP JUMPDEST PUSH2 0xCDE JUMP JUMPDEST CALLVALUE DUP1 ISZERO PUSH2 0x3CE JUMPI PUSH1 0x0 DUP1 REVERT JUMPDEST POP PUSH2 0x345 PUSH2 0x3DD CALLDATASIZE PUSH1 0x4 PUSH2 0x3851 JUMP JUMPDEST PUSH2 0xD49 JUMP JUMPDEST CALLVALUE DUP1 ISZERO PUSH2 0x3EE JUMPI PUSH1 0x0 DUP1 REVERT JUMPDEST POP PUSH2 0x345 PUSH2 0x3FD CALLDATASIZE PUSH1 0x4 PUSH2 0x38B8 JUMP JUMPDEST PUSH2 0xDF6 JUMP JUMPDEST CALLVALUE DUP1 ISZERO PUSH2 0x40E JUMPI PUSH1 0x0 DUP1 REVERT JUMPDEST POP PUSH2 0x345 PUSH2 0x41D CALLDATASIZE PUSH1 0x4 PUSH2 0x38E8 JUMP JUMPDEST PUSH2 0xEA1 JUMP JUMPDEST CALLVALUE DUP1 ISZERO PUSH2 0x42E JUMPI PUSH1 0x0 DUP1 REVERT JUMPDEST POP PUSH2 0x249 PUSH2 0x43D CALLDATASIZE PUSH1 0x4 PUSH2 0x364D JUMP JUMPDEST PUSH2 0x10CE JUMP JUMPDEST CALLVALUE DUP1 ISZERO PUSH2 0x44E JUMPI PUSH1 0x0 DUP1 REVERT JUMPDEST POP PUSH2 0x345 PUSH2 0x45D CALLDATASIZE PUSH1 0x4 PUSH2 0x39D4 JUMP JUMPDEST PUSH2 0x10EF JUMP JUMPDEST CALLVALUE DUP1 ISZERO PUSH2 0x46E JUMPI PUSH1 0x0 DUP1 REVERT JUMPDEST POP PUSH2 0x482 PUSH2 0x47D CALLDATASIZE PUSH1 0x4 PUSH2 0x372E JUMP JUMPDEST PUSH2 0x1304 JUMP JUMPDEST PUSH1 0x40 MLOAD PUSH2 0x220 SWAP7 SWAP6 SWAP5 SWAP4 SWAP3 SWAP2 SWAP1 PUSH2 0x3AE4 JUMP JUMPDEST CALLVALUE DUP1 ISZERO PUSH2 0x4A0 JUMPI PUSH1 0x0 DUP1 REVERT JUMPDEST POP PUSH2 0x318 PUSH2 0x4AF CALLDATASIZE PUSH1 0x4 PUSH2 0x364D JUMP JUMPDEST PUSH2 0x171B JUMP JUMPDEST CALLVALUE DUP1 ISZERO PUSH2 0x4C0 JUMPI PUSH1 0x0 DUP1 REVERT JUMPDEST POP PUSH2 0x4D4 PUSH2 0x4CF CALLDATASIZE PUSH1 0x4 PUSH2 0x3632 JUMP JUMPDEST PUSH2 0x172B JUMP JUMPDEST PUSH1 0x40 MLOAD PUSH2 0x220 SWAP2 SWAP1 PUSH2 0x3BA2 JUMP JUMPDEST CALLVALUE DUP1 ISZERO PUSH2 0x4ED JUMPI PUSH1 0x0 DUP1 REVERT JUMPDEST POP PUSH2 0x318 PUSH2 0x4FC CALLDATASIZE PUSH1 0x4 PUSH2 0x372E JUMP JUMPDEST PUSH2 0x1797 JUMP JUMPDEST CALLVALUE DUP1 ISZERO PUSH2 0x50D JUMPI PUSH1 0x0 DUP1 REVERT JUMPDEST POP PUSH2 0x521 PUSH2 0x51C CALLDATASIZE PUSH1 0x4 PUSH2 0x372E JUMP JUMPDEST PUSH2 0x183D JUMP JUMPDEST PUSH1 0x40 MLOAD PUSH2 0x220 SWAP8 SWAP7 SWAP6 SWAP5 SWAP4 SWAP3 SWAP2 SWAP1 PUSH2 0x3BB5 JUMP JUMPDEST CALLVALUE DUP1 ISZERO PUSH2 0x540 JUMPI PUSH1 0x0 DUP1 REVERT JUMPDEST POP PUSH2 0x4D4 PUSH2 0x1B6E JUMP JUMPDEST CALLVALUE DUP1 ISZERO PUSH2 0x555 JUMPI PUSH1 0x0 DUP1 REVERT JUMPDEST POP PUSH2 0x569 PUSH2 0x564 CALLDATASIZE PUSH1 0x4 PUSH2 0x364D JUMP JUMPDEST PUSH2 0x1CF6 JUMP JUMPDEST PUSH1 0x40 MLOAD PUSH2 0x220 SWAP9 SWAP8 SWAP7 SWAP6 SWAP5 SWAP4 SWAP3 SWAP2 SWAP1 PUSH2 0x3C39 JUMP JUMPDEST CALLVALUE DUP1 ISZERO PUSH2 0x589 JUMPI PUSH1 0x0 DUP1 REVERT JUMPDEST POP PUSH1 0x0 SLOAD PUSH2 0x59D SWAP1 PUSH1 0x1 PUSH1 0x1 PUSH1 0xA0 SHL SUB AND DUP2 JUMP JUMPDEST PUSH1 0x40 MLOAD PUSH1 0x1 PUSH1 0x1 PUSH1 0xA0 SHL SUB SWAP1 SWAP2 AND DUP2 MSTORE PUSH1 0x20 ADD PUSH2 0x220 JUMP JUMPDEST PUSH2 0x345 PUSH2 0x5C3 CALLDATASIZE PUSH1 0x4 PUSH2 0x3CC7 JUMP JUMPDEST PUSH2 0x210F JUMP JUMPDEST CALLVALUE DUP1 ISZERO PUSH2 0x5D4 JUMPI PUSH1 0x0 DUP1 REVERT JUMPDEST POP PUSH2 0x345 PUSH2 0x5E3 CALLDATASIZE PUSH1 0x4 PUSH2 0x3CE9 JUMP JUMPDEST PUSH2 0x2330 JUMP JUMPDEST CALLVALUE DUP1 ISZERO PUSH2 0x5F4 JUMPI PUSH1 0x0 DUP1 REVERT JUMPDEST POP PUSH2 0x249 PUSH1 0x8 SLOAD DUP2 JUMP JUMPDEST CALLVALUE DUP1 ISZERO PUSH2 0x60A JUMPI PUSH1 0x0 DUP1 REVERT JUMPDEST POP PUSH2 0x345 PUSH2 0x619 CALLDATASIZE PUSH1 0x4 PUSH2 0x3632 JUMP JUMPDEST PUSH2 0x2A3F JUMP JUMPDEST CALLVALUE DUP1 ISZERO PUSH2 0x62A JUMPI PUSH1 0x0 DUP1 REVERT JUMPDEST POP PUSH2 0x63E PUSH2 0x639 CALLDATASIZE PUSH1 0x4 PUSH2 0x372E JUMP JUMPDEST PUSH2 0x2A77 JUMP JUMPDEST PUSH1 0x40 MLOAD PUSH2 0x220 SWAP7 SWAP6 SWAP5 SWAP4 SWAP3 SWAP2 SWAP1 PUSH2 0x3DAD JUMP JUMPDEST CALLVALUE DUP1 ISZERO PUSH2 0x65C JUMPI PUSH1 0x0 DUP1 REVERT JUMPDEST POP PUSH2 0x345 PUSH2 0x66B CALLDATASIZE PUSH1 0x4 PUSH2 0x38B8 JUMP JUMPDEST PUSH2 0x2CDF JUMP JUMPDEST CALLVALUE DUP1 ISZERO PUSH2 0x67C JUMPI PUSH1 0x0 DUP1 REVERT JUMPDEST POP PUSH2 0x690 PUSH2 0x68B CALLDATASIZE PUSH1 0x4 PUSH2 0x364D JUMP JUMPDEST PUSH2 0x2D5B JUMP JUMPDEST PUSH1 0x40 MLOAD PUSH2 0x220 SWAP7 SWAP6 SWAP5 SWAP4 SWAP3 SWAP2 SWAP1 PUSH2 0x3E1C JUMP JUMPDEST CALLVALUE DUP1 ISZERO PUSH2 0x6AE JUMPI PUSH1 0x0 DUP1 REVERT JUMPDEST POP PUSH2 0x6C2 PUSH2 0x6BD CALLDATASIZE PUSH1 0x4 PUSH2 0x372E JUMP JUMPDEST PUSH2 0x2F35 JUMP JUMPDEST PUSH1 0x40 MLOAD PUSH2 0x220 SWAP6 SWAP5 SWAP4 SWAP3 SWAP2 SWAP1 PUSH2 0x3E7F JUMP JUMPDEST CALLVALUE DUP1 ISZERO PUSH2 0x6DF JUMPI PUSH1 0x0 DUP1 REVERT JUMPDEST POP PUSH2 0x2B7 PUSH2 0x6EE CALLDATASIZE PUSH1 0x4 PUSH2 0x364D JUMP JUMPDEST PUSH1 0x5 PUSH1 0x20 DUP2 SWAP1 MSTORE PUSH1 0x0 SWAP2 DUP3 MSTORE PUSH1 0x40 SWAP1 SWAP2 KECCAK256 DUP1 SLOAD PUSH1 0x1 DUP3 ADD SLOAD PUSH1 0x2 DUP4 ADD SLOAD PUSH1 0x3 DUP5 ADD SLOAD PUSH1 0x4 DUP6 ADD SLOAD SWAP5 SWAP1 SWAP6 ADD SLOAD SWAP3 SWAP5 SWAP2 SWAP4 SWAP1 SWAP3 PUSH1 0x1 PUSH1 0x1 PUSH1 0xA0 SHL SUB DUP4 AND SWAP3 PUSH1 0xFF PUSH1 0x1 PUSH1 0xA0 SHL SWAP1 SWAP2 DIV DUP2 AND SWAP3 SWAP2 AND DUP8 JUMP JUMPDEST CALLVALUE DUP1 ISZERO PUSH2 0x749 JUMPI PUSH1 0x0 DUP1 REVERT JUMPDEST POP PUSH2 0x318 PUSH2 0x758 CALLDATASIZE PUSH1 0x4 PUSH2 0x372E JUMP JUMPDEST PUSH2 0x3216 JUMP JUMPDEST CALLVALUE DUP1 ISZERO PUSH2 0x769 JUMPI PUSH1 0x0 DUP1 REVERT JUMPDEST POP PUSH2 0x249 PUSH1 0x7 SLOAD DUP2 JUMP JUMPDEST CALLVALUE DUP1 ISZERO PUSH2 0x77F JUMPI PUSH1 0x0 DUP1 REVERT JUMPDEST POP PUSH2 0x213 PUSH2 0x323A JUMP JUMPDEST PUSH1 0x60 PUSH1 0x9 DUP1 SLOAD DUP1 PUSH1 0x20 MUL PUSH1 0x20 ADD PUSH1 0x40 MLOAD SWAP1 DUP2 ADD PUSH1 0x40 MSTORE DUP1 SWAP3 SWAP2 SWAP1 DUP2 DUP2 MSTORE PUSH1 0x20 ADD PUSH1 0x0 SWAP1 JUMPDEST DUP3 DUP3 LT ISZERO PUSH2 0x858 JUMPI DUP4 DUP3 SWAP1 PUSH1 0x0 MSTORE PUSH1 0x20 PUSH1 0x0 KECCAK256 ADD DUP1 SLOAD PUSH2 0x7CB SWAP1 PUSH2 0x3EEC JUMP JUMPDEST DUP1 PUSH1 0x1F ADD PUSH1 0x20 DUP1 SWAP2 DIV MUL PUSH1 0x20 ADD PUSH1 0x40 MLOAD SWAP1 DUP2 ADD PUSH1 0x40 MSTORE DUP1 SWAP3 SWAP2 SWAP1 DUP2 DUP2 MSTORE PUSH1 0x20 ADD DUP3 DUP1 SLOAD PUSH2 0x7F7 SWAP1 PUSH2 0x3EEC JUMP JUMPDEST DUP1 ISZERO PUSH2 0x844 JUMPI DUP1 PUSH1 0x1F LT PUSH2 0x819 JUMPI PUSH2 0x100 DUP1 DUP4 SLOAD DIV MUL DUP4 MSTORE SWAP2 PUSH1 0x20 ADD SWAP2 PUSH2 0x844 JUMP JUMPDEST DUP3 ADD SWAP2 SWAP1 PUSH1 0x0 MSTORE PUSH1 0x20 PUSH1 0x0 KECCAK256 SWAP1 JUMPDEST DUP2 SLOAD DUP2 MSTORE SWAP1 PUSH1 0x1 ADD SWAP1 PUSH1 0x20 ADD DUP1 DUP4 GT PUSH2 0x827 JUMPI DUP3 SWAP1 SUB PUSH1 0x1F AND DUP3 ADD SWAP2 JUMPDEST POP POP POP POP POP DUP2 MSTORE PUSH1 0x20 ADD SWAP1 PUSH1 0x1 ADD SWAP1 PUSH2 0x7AC JUMP JUMPDEST POP POP POP POP SWAP1 POP SWAP1 JUMP JUMPDEST PUSH1 0x6 PUSH1 0x20 MSTORE DUP2 PUSH1 0x0 MSTORE PUSH1 0x40 PUSH1 0x0 KECCAK256 DUP2 DUP2 SLOAD DUP2 LT PUSH2 0x87D JUMPI PUSH1 0x0 DUP1 REVERT JUMPDEST SWAP1 PUSH1 0x0 MSTORE PUSH1 0x20 PUSH1 0x0 KECCAK256 ADD PUSH1 0x0 SWAP2 POP SWAP2 POP POP SLOAD DUP2 JUMP JUMPDEST PUSH1 0x0 DUP1 PUSH1 0x0 DUP1 PUSH1 0x0 DUP1 PUSH1 0x0 DUP1 DUP9 GT DUP1 ISZERO PUSH2 0x8AE JUMPI POP PUSH1 0x8 SLOAD DUP9 GT ISZERO JUMPDEST PUSH2 0x8B7 JUMPI PUSH1 0x0 DUP1 REVERT JUMPDEST POP POP POP PUSH1 0x0 SWAP5 DUP6 MSTORE POP POP PUSH1 0x5 PUSH1 0x20 DUP2 DUP2 MSTORE PUSH1 0x40 SWAP5 DUP6 SWAP1 KECCAK256 DUP6 MLOAD PUSH1 0xE0 DUP2 ADD DUP8 MSTORE DUP2 SLOAD DUP1 DUP3 MSTORE PUSH1 0x1 DUP4 ADD SLOAD SWAP4 DUP3 ADD DUP5 SWAP1 MSTORE PUSH1 0x2 DUP4 ADD SLOAD SWAP8 DUP3 ADD DUP9 SWAP1 MSTORE PUSH1 0x3 DUP4 ADD SLOAD PUSH1 0x1 PUSH1 0x1 PUSH1 0xA0 SHL SUB DUP2 AND PUSH1 0x60 DUP5 ADD DUP2 SWAP1 MSTORE PUSH1 0x1 PUSH1 0xA0 SHL SWAP1 SWAP2 DIV PUSH1 0xFF SWAP1 DUP2 AND ISZERO ISZERO PUSH1 0x80 DUP6 ADD DUP2 SWAP1 MSTORE PUSH1 0x4 DUP7 ADD SLOAD PUSH1 0xA0 DUP7 ADD DUP2 SWAP1 MSTORE SWAP6 SWAP1 SWAP8 ADD SLOAD AND ISZERO ISZERO PUSH1 0xC0 SWAP1 SWAP4 ADD DUP4 SWAP1 MSTORE SWAP1 SWAP9 SWAP4 SWAP8 SWAP7 POP SWAP5 POP SWAP1 SWAP2 JUMP JUMPDEST PUSH1 0xA DUP2 DUP2 SLOAD DUP2 LT PUSH2 0x955 JUMPI PUSH1 0x0 DUP1 REVERT JUMPDEST SWAP1 PUSH1 0x0 MSTORE PUSH1 0x20 PUSH1 0x0 KECCAK256 ADD PUSH1 0x0 SWAP2 POP SWAP1 POP DUP1 SLOAD PUSH2 0x970 SWAP1 PUSH2 0x3EEC JUMP JUMPDEST DUP1 PUSH1 0x1F ADD PUSH1 0x20 DUP1 SWAP2 DIV MUL PUSH1 0x20 ADD PUSH1 0x40 MLOAD SWAP1 DUP2 ADD PUSH1 0x40 MSTORE DUP1 SWAP3 SWAP2 SWAP1 DUP2 DUP2 MSTORE PUSH1 0x20 ADD DUP3 DUP1 SLOAD PUSH2 0x99C SWAP1 PUSH2 0x3EEC JUMP JUMPDEST DUP1 ISZERO PUSH2 0x9E9 JUMPI DUP1 PUSH1 0x1F LT PUSH2 0x9BE JUMPI PUSH2 0x100 DUP1 DUP4 SLOAD DIV MUL DUP4 MSTORE SWAP2 PUSH1 0x20 ADD SWAP2 PUSH2 0x9E9 JUMP JUMPDEST DUP3 ADD SWAP2 SWAP1 PUSH1 0x0 MSTORE PUSH1 0x20 PUSH1 0x0 KECCAK256 SWAP1 JUMPDEST DUP2 SLOAD DUP2 MSTORE SWAP1 PUSH1 0x1 ADD SWAP1 PUSH1 0x20 ADD DUP1 DUP4 GT PUSH2 0x9CC JUMPI DUP3 SWAP1 SUB PUSH1 0x1F AND DUP3 ADD SWAP2 JUMPDEST POP POP POP POP POP DUP2 JUMP JUMPDEST PUSH1 0x0 SLOAD PUSH1 0x1 PUSH1 0x1 PUSH1 0xA0 SHL SUB AND CALLER EQ PUSH2 0xA08 JUMPI PUSH1 0x0 DUP1 REVERT JUMPDEST PUSH1 0x1 PUSH1 0x1 PUSH1 0xA0 SHL SUB AND PUSH1 0x0 SWAP1 DUP2 MSTORE PUSH1 0x1 PUSH1 0x20 DUP2 SWAP1 MSTORE PUSH1 0x40 SWAP1 SWAP2 KECCAK256 DUP1 SLOAD PUSH1 0xFF NOT AND SWAP1 SWAP2 OR SWAP1 SSTORE JUMP JUMPDEST PUSH1 0xC DUP6 PUSH1 0x40 MLOAD PUSH2 0xA3F SWAP2 SWAP1 PUSH2 0x3F26 JUMP JUMPDEST SWAP1 DUP2 MSTORE PUSH1 0x40 MLOAD SWAP1 DUP2 SWAP1 SUB PUSH1 0x20 ADD SWAP1 KECCAK256 SLOAD PUSH1 0xFF AND ISZERO PUSH2 0xA5C JUMPI PUSH1 0x0 DUP1 REVERT JUMPDEST PUSH1 0x40 MLOAD DUP1 PUSH1 0xE0 ADD PUSH1 0x40 MSTORE DUP1 DUP6 DUP2 MSTORE PUSH1 0x20 ADD DUP5 DUP2 MSTORE PUSH1 0x20 ADD DUP4 DUP2 MSTORE PUSH1 0x20 ADD PUSH1 0x0 DUP2 MSTORE PUSH1 0x20 ADD DUP3 DUP2 MSTORE PUSH1 0x20 ADD CALLER PUSH1 0x1 PUSH1 0x1 PUSH1 0xA0 SHL SUB AND DUP2 MSTORE PUSH1 0x20 ADD PUSH1 0x0 PUSH1 0x1 PUSH1 0x1 PUSH1 0x40 SHL SUB DUP2 GT ISZERO PUSH2 0xAAE JUMPI PUSH2 0xAAE PUSH2 0x3679 JUMP JUMPDEST PUSH1 0x40 MLOAD SWAP1 DUP1 DUP3 MSTORE DUP1 PUSH1 0x20 MUL PUSH1 0x20 ADD DUP3 ADD PUSH1 0x40 MSTORE DUP1 ISZERO PUSH2 0xAD7 JUMPI DUP2 PUSH1 0x20 ADD PUSH1 0x20 DUP3 MUL DUP1 CALLDATASIZE DUP4 CALLDATACOPY ADD SWAP1 POP JUMPDEST POP DUP2 MSTORE POP PUSH1 0x3 DUP7 PUSH1 0x40 MLOAD PUSH2 0xAEB SWAP2 SWAP1 PUSH2 0x3F26 JUMP JUMPDEST SWAP1 DUP2 MSTORE PUSH1 0x40 MLOAD SWAP1 DUP2 SWAP1 SUB PUSH1 0x20 ADD SWAP1 KECCAK256 DUP2 MLOAD DUP2 SWAP1 PUSH2 0xB08 SWAP1 DUP3 PUSH2 0x3F91 JUMP JUMPDEST POP PUSH1 0x20 DUP3 ADD MLOAD PUSH1 0x1 DUP3 ADD SWAP1 PUSH2 0xB1D SWAP1 DUP3 PUSH2 0x3F91 JUMP JUMPDEST POP PUSH1 0x40 DUP3 ADD MLOAD PUSH1 0x2 DUP3 ADD SWAP1 PUSH2 0xB32 SWAP1 DUP3 PUSH2 0x3F91 JUMP JUMPDEST POP PUSH1 0x60 DUP3 ADD MLOAD PUSH1 0x3 DUP3 ADD SSTORE PUSH1 0x80 DUP3 ADD MLOAD PUSH1 0x4 DUP3 ADD SWAP1 PUSH2 0xB51 SWAP1 DUP3 PUSH2 0x3F91 JUMP JUMPDEST POP PUSH1 0xA0 DUP3 ADD MLOAD PUSH1 0x5 DUP3 ADD DUP1 SLOAD PUSH1 0x1 PUSH1 0x1 PUSH1 0xA0 SHL SUB NOT AND PUSH1 0x1 PUSH1 0x1 PUSH1 0xA0 SHL SUB SWAP1 SWAP3 AND SWAP2 SWAP1 SWAP2 OR SWAP1 SSTORE PUSH1 0xC0 DUP3 ADD MLOAD DUP1 MLOAD PUSH2 0xB93 SWAP2 PUSH1 0x6 DUP5 ADD SWAP2 PUSH1 0x20 SWAP1 SWAP2 ADD SWAP1 PUSH2 0x341A JUMP JUMPDEST POP SWAP1 POP POP PUSH1 0x1 PUSH1 0xC DUP7 PUSH1 0x40 MLOAD PUSH2 0xBA9 SWAP2 SWAP1 PUSH2 0x3F26 JUMP JUMPDEST SWAP1 DUP2 MSTORE PUSH1 0x40 MLOAD SWAP1 DUP2 SWAP1 SUB PUSH1 0x20 ADD SWAP1 KECCAK256 DUP1 SLOAD SWAP2 ISZERO ISZERO PUSH1 0xFF NOT SWAP1 SWAP3 AND SWAP2 SWAP1 SWAP2 OR SWAP1 SSTORE PUSH1 0x0 DUP1 JUMPDEST PUSH1 0xA SLOAD DUP2 LT ISZERO PUSH2 0xC57 JUMPI DUP7 PUSH1 0x40 MLOAD PUSH1 0x20 ADD PUSH2 0xBE8 SWAP2 SWAP1 PUSH2 0x3F26 JUMP JUMPDEST PUSH1 0x40 MLOAD PUSH1 0x20 DUP2 DUP4 SUB SUB DUP2 MSTORE SWAP1 PUSH1 0x40 MSTORE DUP1 MLOAD SWAP1 PUSH1 0x20 ADD KECCAK256 PUSH1 0xA DUP3 DUP2 SLOAD DUP2 LT PUSH2 0xC11 JUMPI PUSH2 0xC11 PUSH2 0x404F JUMP JUMPDEST SWAP1 PUSH1 0x0 MSTORE PUSH1 0x20 PUSH1 0x0 KECCAK256 ADD PUSH1 0x40 MLOAD PUSH1 0x20 ADD PUSH2 0xC2B SWAP2 SWAP1 PUSH2 0x4065 JUMP JUMPDEST PUSH1 0x40 MLOAD PUSH1 0x20 DUP2 DUP4 SUB SUB DUP2 MSTORE SWAP1 PUSH1 0x40 MSTORE DUP1 MLOAD SWAP1 PUSH1 0x20 ADD KECCAK256 SUB PUSH2 0xC4F JUMPI PUSH1 0x1 SWAP2 POP PUSH2 0xC57 JUMP JUMPDEST PUSH1 0x1 ADD PUSH2 0xBCD JUMP JUMPDEST POP DUP1 PUSH2 0xC9B JUMPI PUSH1 0xA DUP1 SLOAD PUSH1 0x1 DUP2 ADD DUP3 SSTORE PUSH1 0x0 SWAP2 SWAP1 SWAP2 MSTORE PUSH32 0xC65A7BB8D6351C1CF70C95A316CC6A92839C986682D98BC35F958F4883F9D2A8 ADD PUSH2 0xC99 DUP8 DUP3 PUSH2 0x3F91 JUMP JUMPDEST POP JUMPDEST PUSH32 0xEF9E0A850BB9971E155F20E4B0E490CDEAFC72EAB8D0DA56FE2F1585AD9567DE DUP7 DUP4 TIMESTAMP PUSH1 0x40 MLOAD PUSH2 0xCCE SWAP4 SWAP3 SWAP2 SWAP1 PUSH2 0x40DA JUMP JUMPDEST PUSH1 0x40 MLOAD DUP1 SWAP2 SUB SWAP1 LOG1 POP POP POP POP POP POP JUMP JUMPDEST DUP1 PUSH1 0xD DUP4 PUSH1 0x40 MLOAD PUSH2 0xCEF SWAP2 SWAP1 PUSH2 0x3F26 JUMP JUMPDEST SWAP1 DUP2 MSTORE PUSH1 0x20 ADD PUSH1 0x40 MLOAD DUP1 SWAP2 SUB SWAP1 KECCAK256 SWAP1 DUP2 PUSH2 0xD09 SWAP2 SWAP1 PUSH2 0x3F91 JUMP JUMPDEST POP PUSH32 0x888BF677EC642F934DF90BBC78F33CC2D32F3D50B0D2BC286D26EF35D69C89B4 DUP3 DUP3 TIMESTAMP PUSH1 0x40 MLOAD PUSH2 0xD3D SWAP4 SWAP3 SWAP2 SWAP1 PUSH2 0x40DA JUMP JUMPDEST PUSH1 0x40 MLOAD DUP1 SWAP2 SUB SWAP1 LOG1 POP POP JUMP JUMPDEST PUSH1 0x0 PUSH1 0x3 DUP4 PUSH1 0x40 MLOAD PUSH2 0xD5B SWAP2 SWAP1 PUSH2 0x3F26 JUMP JUMPDEST SWAP1 DUP2 MSTORE PUSH1 0x40 MLOAD SWAP1 DUP2 SWAP1 SUB PUSH1 0x20 ADD SWAP1 KECCAK256 PUSH1 0x5 DUP2 ADD SLOAD SWAP1 SWAP2 POP PUSH1 0x1 PUSH1 0x1 PUSH1 0xA0 SHL SUB AND CALLER EQ DUP1 PUSH2 0xD97 JUMPI POP CALLER PUSH1 0x0 SWAP1 DUP2 MSTORE PUSH1 0x1 PUSH1 0x20 MSTORE PUSH1 0x40 SWAP1 KECCAK256 SLOAD PUSH1 0xFF AND JUMPDEST PUSH2 0xDA0 JUMPI PUSH1 0x0 DUP1 REVERT JUMPDEST PUSH1 0x4 DUP2 ADD PUSH2 0xDAE DUP4 DUP3 PUSH2 0x3F91 JUMP JUMPDEST POP TIMESTAMP PUSH1 0x3 DUP3 ADD DUP2 SWAP1 SSTORE PUSH1 0x40 MLOAD PUSH32 0xEF9E0A850BB9971E155F20E4B0E490CDEAFC72EAB8D0DA56FE2F1585AD9567DE SWAP2 PUSH2 0xDE9 SWAP2 DUP7 SWAP2 DUP7 SWAP2 PUSH2 0x40DA JUMP JUMPDEST PUSH1 0x40 MLOAD DUP1 SWAP2 SUB SWAP1 LOG1 POP POP POP JUMP JUMPDEST CALLER PUSH1 0x0 SWAP1 DUP2 MSTORE PUSH1 0x1 PUSH1 0x20 MSTORE PUSH1 0x40 SWAP1 KECCAK256 SLOAD PUSH1 0xFF AND DUP1 PUSH2 0xE1E JUMPI POP PUSH1 0x0 SLOAD PUSH1 0x1 PUSH1 0x1 PUSH1 0xA0 SHL SUB AND CALLER EQ JUMPDEST PUSH2 0xE27 JUMPI PUSH1 0x0 DUP1 REVERT JUMPDEST PUSH1 0x0 DUP3 GT DUP1 ISZERO PUSH2 0xE39 JUMPI POP PUSH1 0x7 SLOAD DUP3 GT ISZERO JUMPDEST PUSH2 0xE42 JUMPI PUSH1 0x0 DUP1 REVERT JUMPDEST PUSH1 0x0 DUP3 DUP2 MSTORE PUSH1 0x4 PUSH1 0x20 SWAP1 DUP2 MSTORE PUSH1 0x40 DUP3 KECCAK256 PUSH1 0x7 ADD DUP1 SLOAD PUSH1 0x1 DUP2 ADD DUP3 SSTORE SWAP1 DUP4 MSTORE SWAP2 KECCAK256 ADD PUSH2 0xE6D DUP3 DUP3 PUSH2 0x3F91 JUMP JUMPDEST POP PUSH32 0x40E632D4A93E307BC4FD8EE554A117DBC7F782E20D62BDD43D8DCF040DFB521D DUP3 DUP3 TIMESTAMP PUSH1 0x40 MLOAD PUSH2 0xD3D SWAP4 SWAP3 SWAP2 SWAP1 PUSH2 0x4110 JUMP JUMPDEST PUSH1 0x0 DUP5 GT DUP1 ISZERO PUSH2 0xEB3 JUMPI POP PUSH1 0x7 SLOAD DUP5 GT ISZERO JUMPDEST PUSH2 0xEBC JUMPI PUSH1 0x0 DUP1 REVERT JUMPDEST PUSH1 0x0 DUP4 GT PUSH2 0xEC9 JUMPI PUSH1 0x0 DUP1 REVERT JUMPDEST PUSH1 0x0 DUP3 GT PUSH2 0xED6 JUMPI PUSH1 0x0 DUP1 REVERT JUMPDEST PUSH1 0x0 DUP5 DUP2 MSTORE PUSH1 0x4 PUSH1 0x20 MSTORE PUSH1 0x40 SWAP1 KECCAK256 PUSH1 0x5 DUP2 ADD SLOAD DUP4 GT ISZERO PUSH2 0xEF5 JUMPI PUSH1 0x0 DUP1 REVERT JUMPDEST PUSH1 0x8 DUP1 SLOAD SWAP1 PUSH1 0x0 PUSH2 0xF05 DUP4 PUSH2 0x414F JUMP JUMPDEST SWAP1 SWAP2 SSTORE POP POP PUSH1 0x40 DUP1 MLOAD PUSH1 0xE0 DUP2 ADD DUP3 MSTORE DUP7 DUP2 MSTORE PUSH1 0x20 DUP1 DUP3 ADD DUP8 DUP2 MSTORE DUP3 DUP5 ADD DUP8 DUP2 MSTORE CALLER PUSH1 0x60 DUP6 ADD DUP2 DUP2 MSTORE PUSH1 0x1 PUSH1 0x80 DUP8 ADD DUP2 DUP2 MSTORE TIMESTAMP PUSH1 0xA0 DUP10 ADD SWAP1 DUP2 MSTORE DUP12 ISZERO ISZERO PUSH1 0xC0 DUP11 ADD SWAP1 DUP2 MSTORE PUSH1 0x8 DUP1 SLOAD PUSH1 0x0 SWAP1 DUP2 MSTORE PUSH1 0x5 DUP1 DUP13 MSTORE DUP14 DUP3 KECCAK256 SWAP13 MLOAD DUP14 SSTORE SWAP10 MLOAD DUP13 DUP8 ADD SSTORE SWAP8 MLOAD PUSH1 0x2 DUP13 ADD SSTORE SWAP5 MLOAD PUSH1 0x3 DUP12 ADD DUP1 SLOAD SWAP5 MLOAD PUSH1 0x1 PUSH1 0x1 PUSH1 0xA0 SHL SUB SWAP1 SWAP3 AND PUSH1 0x1 PUSH1 0x1 PUSH1 0xA8 SHL SUB NOT SWAP1 SWAP6 AND SWAP5 SWAP1 SWAP5 OR PUSH1 0x1 PUSH1 0xA0 SHL SWAP2 ISZERO ISZERO SWAP2 SWAP1 SWAP2 MUL OR SWAP1 SWAP3 SSTORE MLOAD PUSH1 0x4 DUP1 DUP11 ADD SWAP2 SWAP1 SWAP2 SSTORE SWAP1 MLOAD SWAP8 SWAP1 SWAP6 ADD DUP1 SLOAD PUSH1 0xFF NOT AND SWAP8 ISZERO ISZERO SWAP8 SWAP1 SWAP8 OR SWAP1 SWAP7 SSTORE SWAP1 DUP3 MSTORE PUSH1 0x6 DUP1 DUP6 MSTORE DUP7 DUP4 KECCAK256 DUP3 SLOAD DUP2 SLOAD DUP1 DUP10 ADD DUP4 SSTORE SWAP2 DUP6 MSTORE DUP7 DUP6 KECCAK256 SWAP1 SWAP2 ADD SSTORE SWAP1 SLOAD PUSH1 0xB DUP1 SLOAD DUP1 DUP9 ADD SWAP1 SWAP2 SSTORE PUSH32 0x175B7A638427703F0DBE7BB9BBF987A2551717B34E79F33B5B1008D1FA01DB9 ADD SSTORE DUP11 DUP3 MSTORE SWAP2 DUP4 MSTORE DUP5 DUP2 KECCAK256 SWAP1 SWAP2 ADD DUP1 SLOAD SWAP4 DUP5 ADD DUP2 SSTORE DUP2 MSTORE DUP2 SWAP1 KECCAK256 DUP4 MLOAD DUP1 DUP6 ADD SWAP1 SWAP5 MSTORE PUSH1 0xF DUP5 MSTORE PUSH15 0x4C697374656420666F722053616C65 PUSH1 0x88 SHL SWAP2 DUP5 ADD SWAP2 SWAP1 SWAP2 MSTORE ADD SWAP1 PUSH2 0x1056 SWAP1 DUP3 PUSH2 0x3F91 JUMP JUMPDEST POP DUP3 DUP2 PUSH1 0x5 ADD PUSH1 0x0 DUP3 DUP3 SLOAD PUSH2 0x106B SWAP2 SWAP1 PUSH2 0x4168 JUMP JUMPDEST SWAP1 SWAP2 SSTORE POP POP PUSH1 0x8 SLOAD PUSH1 0x40 DUP1 MLOAD SWAP2 DUP3 MSTORE PUSH1 0x20 DUP3 ADD DUP8 SWAP1 MSTORE DUP2 ADD DUP6 SWAP1 MSTORE PUSH1 0x60 DUP2 ADD DUP5 SWAP1 MSTORE CALLER PUSH1 0x80 DUP3 ADD MSTORE TIMESTAMP PUSH1 0xA0 DUP3 ADD MSTORE PUSH32 0x74DB1CF85B7690D991329CD32074D6249E834EC06591F8652F737065D42B040E SWAP1 PUSH1 0xC0 ADD JUMPDEST PUSH1 0x40 MLOAD DUP1 SWAP2 SUB SWAP1 LOG1 POP POP POP POP POP JUMP JUMPDEST PUSH1 0xB DUP2 DUP2 SLOAD DUP2 LT PUSH2 0x10DE JUMPI PUSH1 0x0 DUP1 REVERT JUMPDEST PUSH1 0x0 SWAP2 DUP3 MSTORE PUSH1 0x20 SWAP1 SWAP2 KECCAK256 ADD SLOAD SWAP1 POP DUP2 JUMP JUMPDEST CALLER PUSH1 0x0 SWAP1 DUP2 MSTORE PUSH1 0x1 PUSH1 0x20 MSTORE PUSH1 0x40 SWAP1 KECCAK256 SLOAD PUSH1 0xFF AND DUP1 PUSH2 0x1117 JUMPI POP PUSH1 0x0 SLOAD PUSH1 0x1 PUSH1 0x1 PUSH1 0xA0 SHL SUB AND CALLER EQ JUMPDEST PUSH2 0x1120 JUMPI PUSH1 0x0 DUP1 REVERT JUMPDEST PUSH1 0x40 MLOAD DUP1 PUSH1 0xC0 ADD PUSH1 0x40 MSTORE DUP1 DUP8 DUP2 MSTORE PUSH1 0x20 ADD DUP7 DUP2 MSTORE PUSH1 0x20 ADD DUP6 DUP2 MSTORE PUSH1 0x20 ADD DUP5 DUP2 MSTORE PUSH1 0x20 ADD DUP4 DUP2 MSTORE PUSH1 0x20 ADD DUP3 DUP2 MSTORE POP PUSH1 0x2 DUP8 PUSH1 0x40 MLOAD PUSH2 0x115D SWAP2 SWAP1 PUSH2 0x3F26 JUMP JUMPDEST SWAP1 DUP2 MSTORE PUSH1 0x40 MLOAD SWAP1 DUP2 SWAP1 SUB PUSH1 0x20 ADD SWAP1 KECCAK256 DUP2 MLOAD DUP2 SWAP1 PUSH2 0x117A SWAP1 DUP3 PUSH2 0x3F91 JUMP JUMPDEST POP PUSH1 0x20 DUP3 ADD MLOAD PUSH1 0x1 DUP3 ADD SWAP1 PUSH2 0x118F SWAP1 DUP3 PUSH2 0x3F91 JUMP JUMPDEST POP PUSH1 0x40 DUP3 ADD MLOAD PUSH1 0x2 DUP3 ADD SWAP1 PUSH2 0x11A4 SWAP1 DUP3 PUSH2 0x3F91 JUMP JUMPDEST POP PUSH1 0x60 DUP3 ADD MLOAD PUSH1 0x3 DUP3 ADD SWAP1 PUSH2 0x11B9 SWAP1 DUP3 PUSH2 0x3F91 JUMP JUMPDEST POP PUSH1 0x80 DUP3 ADD MLOAD PUSH1 0x4 DUP3 ADD SWAP1 PUSH2 0x11CE SWAP1 DUP3 PUSH2 0x3F91 JUMP JUMPDEST POP PUSH1 0xA0 DUP3 ADD MLOAD DUP1 MLOAD PUSH2 0x11EA SWAP2 PUSH1 0x5 DUP5 ADD SWAP2 PUSH1 0x20 SWAP1 SWAP2 ADD SWAP1 PUSH2 0x3465 JUMP JUMPDEST POP SWAP1 POP POP PUSH1 0x0 DUP1 JUMPDEST PUSH1 0x9 SLOAD DUP2 LT ISZERO PUSH2 0x127C JUMPI DUP8 PUSH1 0x40 MLOAD PUSH1 0x20 ADD PUSH2 0x120D SWAP2 SWAP1 PUSH2 0x3F26 JUMP JUMPDEST PUSH1 0x40 MLOAD PUSH1 0x20 DUP2 DUP4 SUB SUB DUP2 MSTORE SWAP1 PUSH1 0x40 MSTORE DUP1 MLOAD SWAP1 PUSH1 0x20 ADD KECCAK256 PUSH1 0x9 DUP3 DUP2 SLOAD DUP2 LT PUSH2 0x1236 JUMPI PUSH2 0x1236 PUSH2 0x404F JUMP JUMPDEST SWAP1 PUSH1 0x0 MSTORE PUSH1 0x20 PUSH1 0x0 KECCAK256 ADD PUSH1 0x40 MLOAD PUSH1 0x20 ADD PUSH2 0x1250 SWAP2 SWAP1 PUSH2 0x4065 JUMP JUMPDEST PUSH1 0x40 MLOAD PUSH1 0x20 DUP2 DUP4 SUB SUB DUP2 MSTORE SWAP1 PUSH1 0x40 MSTORE DUP1 MLOAD SWAP1 PUSH1 0x20 ADD KECCAK256 SUB PUSH2 0x1274 JUMPI PUSH1 0x1 SWAP2 POP PUSH2 0x127C JUMP JUMPDEST PUSH1 0x1 ADD PUSH2 0x11F2 JUMP JUMPDEST POP DUP1 PUSH2 0x12C0 JUMPI PUSH1 0x9 DUP1 SLOAD PUSH1 0x1 DUP2 ADD DUP3 SSTORE PUSH1 0x0 SWAP2 SWAP1 SWAP2 MSTORE PUSH32 0x6E1540171B6C0C960B71A7020D9F60077F6AF931A8BBF590DA0223DACF75C7AF ADD PUSH2 0x12BE DUP9 DUP3 PUSH2 0x3F91 JUMP JUMPDEST POP JUMPDEST PUSH32 0x78384878EE8EF9F8C429173968AF06C8E361A98CD306B33D813326106F36681F DUP8 CALLER TIMESTAMP PUSH1 0x40 MLOAD PUSH2 0x12F3 SWAP4 SWAP3 SWAP2 SWAP1 PUSH2 0x4181 JUMP JUMPDEST PUSH1 0x40 MLOAD DUP1 SWAP2 SUB SWAP1 LOG1 POP POP POP POP POP POP POP JUMP JUMPDEST PUSH1 0x60 DUP1 PUSH1 0x60 DUP1 PUSH1 0x60 DUP1 PUSH1 0x0 PUSH1 0x2 DUP9 PUSH1 0x40 MLOAD PUSH2 0x131F SWAP2 SWAP1 PUSH2 0x3F26 JUMP JUMPDEST SWAP1 DUP2 MSTORE PUSH1 0x20 ADD PUSH1 0x40 MLOAD DUP1 SWAP2 SUB SWAP1 KECCAK256 PUSH1 0x40 MLOAD DUP1 PUSH1 0xC0 ADD PUSH1 0x40 MSTORE SWAP1 DUP2 PUSH1 0x0 DUP3 ADD DUP1 SLOAD PUSH2 0x1348 SWAP1 PUSH2 0x3EEC JUMP JUMPDEST DUP1 PUSH1 0x1F ADD PUSH1 0x20 DUP1 SWAP2 DIV MUL PUSH1 0x20 ADD PUSH1 0x40 MLOAD SWAP1 DUP2 ADD PUSH1 0x40 MSTORE DUP1 SWAP3 SWAP2 SWAP1 DUP2 DUP2 MSTORE PUSH1 0x20 ADD DUP3 DUP1 SLOAD PUSH2 0x1374 SWAP1 PUSH2 0x3EEC JUMP JUMPDEST DUP1 ISZERO PUSH2 0x13C1 JUMPI DUP1 PUSH1 0x1F LT PUSH2 0x1396 JUMPI PUSH2 0x100 DUP1 DUP4 SLOAD DIV MUL DUP4 MSTORE SWAP2 PUSH1 0x20 ADD SWAP2 PUSH2 0x13C1 JUMP JUMPDEST DUP3 ADD SWAP2 SWAP1 PUSH1 0x0 MSTORE PUSH1 0x20 PUSH1 0x0 KECCAK256 SWAP1 JUMPDEST DUP2 SLOAD DUP2 MSTORE SWAP1 PUSH1 0x1 ADD SWAP1 PUSH1 0x20 ADD DUP1 DUP4 GT PUSH2 0x13A4 JUMPI DUP3 SWAP1 SUB PUSH1 0x1F AND DUP3 ADD SWAP2 JUMPDEST POP POP POP POP POP DUP2 MSTORE PUSH1 0x20 ADD PUSH1 0x1 DUP3 ADD DUP1 SLOAD PUSH2 0x13DA SWAP1 PUSH2 0x3EEC JUMP JUMPDEST DUP1 PUSH1 0x1F ADD PUSH1 0x20 DUP1 SWAP2 DIV MUL PUSH1 0x20 ADD PUSH1 0x40 MLOAD SWAP1 DUP2 ADD PUSH1 0x40 MSTORE DUP1 SWAP3 SWAP2 SWAP1 DUP2 DUP2 MSTORE PUSH1 0x20 ADD DUP3 DUP1 SLOAD PUSH2 0x1406 SWAP1 PUSH2 0x3EEC JUMP JUMPDEST DUP1 ISZERO PUSH2 0x1453 JUMPI DUP1 PUSH1 0x1F LT PUSH2 0x1428 JUMPI PUSH2 0x100 DUP1 DUP4 SLOAD DIV MUL DUP4 MSTORE SWAP2 PUSH1 0x20 ADD SWAP2 PUSH2 0x1453 JUMP JUMPDEST DUP3 ADD SWAP2 SWAP1 PUSH1 0x0 MSTORE PUSH1 0x20 PUSH1 0x0 KECCAK256 SWAP1 JUMPDEST DUP2 SLOAD DUP2 MSTORE SWAP1 PUSH1 0x1 ADD SWAP1 PUSH1 0x20 ADD DUP1 DUP4 GT PUSH2 0x1436 JUMPI DUP3 SWAP1 SUB PUSH1 0x1F AND DUP3 ADD SWAP2 JUMPDEST POP POP POP POP POP DUP2 MSTORE PUSH1 0x20 ADD PUSH1 0x2 DUP3 ADD DUP1 SLOAD PUSH2 0x146C SWAP1 PUSH2 0x3EEC JUMP JUMPDEST DUP1 PUSH1 0x1F ADD PUSH1 0x20 DUP1 SWAP2 DIV MUL PUSH1 0x20 ADD PUSH1 0x40 MLOAD SWAP1 DUP2 ADD PUSH1 0x40 MSTORE DUP1 SWAP3 SWAP2 SWAP1 DUP2 DUP2 MSTORE PUSH1 0x20 ADD DUP3 DUP1 SLOAD PUSH2 0x1498 SWAP1 PUSH2 0x3EEC JUMP JUMPDEST DUP1 ISZERO PUSH2 0x14E5 JUMPI DUP1 PUSH1 0x1F LT PUSH2 0x14BA JUMPI PUSH2 0x100 DUP1 DUP4 SLOAD DIV MUL DUP4 MSTORE SWAP2 PUSH1 0x20 ADD SWAP2 PUSH2 0x14E5 JUMP JUMPDEST DUP3 ADD SWAP2 SWAP1 PUSH1 0x0 MSTORE PUSH1 0x20 PUSH1 0x0 KECCAK256 SWAP1 JUMPDEST DUP2 SLOAD DUP2 MSTORE SWAP1 PUSH1 0x1 ADD SWAP1 PUSH1 0x20 ADD DUP1 DUP4 GT PUSH2 0x14C8 JUMPI DUP3 SWAP1 SUB PUSH1 0x1F AND DUP3 ADD SWAP2 JUMPDEST POP POP POP POP POP DUP2 MSTORE PUSH1 0x20 ADD PUSH1 0x3 DUP3 ADD DUP1 SLOAD PUSH2 0x14FE SWAP1 PUSH2 0x3EEC JUMP JUMPDEST DUP1 PUSH1 0x1F ADD PUSH1 0x20 DUP1 SWAP2 DIV MUL PUSH1 0x20 ADD PUSH1 0x40 MLOAD SWAP1 DUP2 ADD PUSH1 0x40 MSTORE DUP1 SWAP3 SWAP2 SWAP1 DUP2 DUP2 MSTORE PUSH1 0x20 ADD DUP3 DUP1 SLOAD PUSH2 0x152A SWAP1 PUSH2 0x3EEC JUMP JUMPDEST DUP1 ISZERO PUSH2 0x1577 JUMPI DUP1 PUSH1 0x1F LT PUSH2 0x154C JUMPI PUSH2 0x100 DUP1 DUP4 SLOAD DIV MUL DUP4 MSTORE SWAP2 PUSH1 0x20 ADD SWAP2 PUSH2 0x1577 JUMP JUMPDEST DUP3 ADD SWAP2 SWAP1 PUSH1 0x0 MSTORE PUSH1 0x20 PUSH1 0x0 KECCAK256 SWAP1 JUMPDEST DUP2 SLOAD DUP2 MSTORE SWAP1 PUSH1 0x1 ADD SWAP1 PUSH1 0x20 ADD DUP1 DUP4 GT PUSH2 0x155A JUMPI DUP3 SWAP1 SUB PUSH1 0x1F AND DUP3 ADD SWAP2 JUMPDEST POP POP POP POP POP DUP2 MSTORE PUSH1 0x20 ADD PUSH1 0x4 DUP3 ADD DUP1 SLOAD PUSH2 0x1590 SWAP1 PUSH2 0x3EEC JUMP JUMPDEST DUP1 PUSH1 0x1F ADD PUSH1 0x20 DUP1 SWAP2 DIV MUL PUSH1 0x20 ADD PUSH1 0x40 MLOAD SWAP1 DUP2 ADD PUSH1 0x40 MSTORE DUP1 SWAP3 SWAP2 SWAP1 DUP2 DUP2 MSTORE PUSH1 0x20 ADD DUP3 DUP1 SLOAD PUSH2 0x15BC SWAP1 PUSH2 0x3EEC JUMP JUMPDEST DUP1 ISZERO PUSH2 0x1609 JUMPI DUP1 PUSH1 0x1F LT PUSH2 0x15DE JUMPI PUSH2 0x100 DUP1 DUP4 SLOAD DIV MUL DUP4 MSTORE SWAP2 PUSH1 0x20 ADD SWAP2 PUSH2 0x1609 JUMP JUMPDEST DUP3 ADD SWAP2 SWAP1 PUSH1 0x0 MSTORE PUSH1 0x20 PUSH1 0x0 KECCAK256 SWAP1 JUMPDEST DUP2 SLOAD DUP2 MSTORE SWAP1 PUSH1 0x1 ADD SWAP1 PUSH1 0x20 ADD DUP1 DUP4 GT PUSH2 0x15EC JUMPI DUP3 SWAP1 SUB PUSH1 0x1F AND DUP3 ADD SWAP2 JUMPDEST POP POP POP POP POP DUP2 MSTORE PUSH1 0x20 ADD PUSH1 0x5 DUP3 ADD DUP1 SLOAD DUP1 PUSH1 0x20 MUL PUSH1 0x20 ADD PUSH1 0x40 MLOAD SWAP1 DUP2 ADD PUSH1 0x40 MSTORE DUP1 SWAP3 SWAP2 SWAP1 DUP2 DUP2 MSTORE PUSH1 0x20 ADD PUSH1 0x0 SWAP1 JUMPDEST DUP3 DUP3 LT ISZERO PUSH2 0x16E3 JUMPI DUP4 DUP3 SWAP1 PUSH1 0x0 MSTORE PUSH1 0x20 PUSH1 0x0 KECCAK256 ADD DUP1 SLOAD PUSH2 0x1656 SWAP1 PUSH2 0x3EEC JUMP JUMPDEST DUP1 PUSH1 0x1F ADD PUSH1 0x20 DUP1 SWAP2 DIV MUL PUSH1 0x20 ADD PUSH1 0x40 MLOAD SWAP1 DUP2 ADD PUSH1 0x40 MSTORE DUP1 SWAP3 SWAP2 SWAP1 DUP2 DUP2 MSTORE PUSH1 0x20 ADD DUP3 DUP1 SLOAD PUSH2 0x1682 SWAP1 PUSH2 0x3EEC JUMP JUMPDEST DUP1 ISZERO PUSH2 0x16CF JUMPI DUP1 PUSH1 0x1F LT PUSH2 0x16A4 JUMPI PUSH2 0x100 DUP1 DUP4 SLOAD DIV MUL DUP4 MSTORE SWAP2 PUSH1 0x20 ADD SWAP2 PUSH2 0x16CF JUMP JUMPDEST DUP3 ADD SWAP2 SWAP1 PUSH1 0x0 MSTORE PUSH1 0x20 PUSH1 0x0 KECCAK256 SWAP1 JUMPDEST DUP2 SLOAD DUP2 MSTORE SWAP1 PUSH1 0x1 ADD SWAP1 PUSH1 0x20 ADD DUP1 DUP4 GT PUSH2 0x16B2 JUMPI DUP3 SWAP1 SUB PUSH1 0x1F AND DUP3 ADD SWAP2 JUMPDEST POP POP POP POP POP DUP2 MSTORE PUSH1 0x20 ADD SWAP1 PUSH1 0x1 ADD SWAP1 PUSH2 0x1637 JUMP JUMPDEST POP POP POP SWAP2 MSTORE POP POP DUP1 MLOAD PUSH1 0x20 DUP3 ADD MLOAD PUSH1 0x40 DUP4 ADD MLOAD PUSH1 0x60 DUP5 ADD MLOAD PUSH1 0x80 DUP6 ADD MLOAD PUSH1 0xA0 SWAP1 SWAP6 ADD MLOAD SWAP4 SWAP14 SWAP3 SWAP13 POP SWAP1 SWAP11 POP SWAP9 POP SWAP2 SWAP7 POP SWAP5 POP SWAP3 POP POP POP JUMP JUMPDEST PUSH1 0x9 DUP2 DUP2 SLOAD DUP2 LT PUSH2 0x955 JUMPI PUSH1 0x0 DUP1 REVERT JUMPDEST PUSH1 0x1 PUSH1 0x1 PUSH1 0xA0 SHL SUB DUP2 AND PUSH1 0x0 SWAP1 DUP2 MSTORE PUSH1 0x6 PUSH1 0x20 SWAP1 DUP2 MSTORE PUSH1 0x40 SWAP2 DUP3 SWAP1 KECCAK256 DUP1 SLOAD DUP4 MLOAD DUP2 DUP5 MUL DUP2 ADD DUP5 ADD SWAP1 SWAP5 MSTORE DUP1 DUP5 MSTORE PUSH1 0x60 SWAP4 SWAP3 DUP4 ADD DUP3 DUP3 DUP1 ISZERO PUSH2 0x178B JUMPI PUSH1 0x20 MUL DUP3 ADD SWAP2 SWAP1 PUSH1 0x0 MSTORE PUSH1 0x20 PUSH1 0x0 KECCAK256 SWAP1 JUMPDEST DUP2 SLOAD DUP2 MSTORE PUSH1 0x20 ADD SWAP1 PUSH1 0x1 ADD SWAP1 DUP1 DUP4 GT PUSH2 0x1777 JUMPI JUMPDEST POP POP POP POP POP SWAP1 POP SWAP2 SWAP1 POP JUMP JUMPDEST PUSH1 0x60 PUSH1 0xD DUP3 PUSH1 0x40 MLOAD PUSH2 0x17A9 SWAP2 SWAP1 PUSH2 0x3F26 JUMP JUMPDEST SWAP1 DUP2 MSTORE PUSH1 0x20 ADD PUSH1 0x40 MLOAD DUP1 SWAP2 SUB SWAP1 KECCAK256 DUP1 SLOAD PUSH2 0x17C2 SWAP1 PUSH2 0x3EEC JUMP JUMPDEST DUP1 PUSH1 0x1F ADD PUSH1 0x20 DUP1 SWAP2 DIV MUL PUSH1 0x20 ADD PUSH1 0x40 MLOAD SWAP1 DUP2 ADD PUSH1 0x40 MSTORE DUP1 SWAP3 SWAP2 SWAP1 DUP2 DUP2 MSTORE PUSH1 0x20 ADD DUP3 DUP1 SLOAD PUSH2 0x17EE SWAP1 PUSH2 0x3EEC JUMP JUMPDEST DUP1 ISZERO PUSH2 0x178B JUMPI DUP1 PUSH1 0x1F LT PUSH2 0x1810 JUMPI PUSH2 0x100 DUP1 DUP4 SLOAD DIV MUL DUP4 MSTORE SWAP2 PUSH1 0x20 ADD SWAP2 PUSH2 0x178B JUMP JUMPDEST DUP3 ADD SWAP2 SWAP1 PUSH1 0x0 MSTORE PUSH1 0x20 PUSH1 0x0 KECCAK256 SWAP1 JUMPDEST DUP2 SLOAD DUP2 MSTORE SWAP1 PUSH1 0x1 ADD SWAP1 PUSH1 0x20 ADD DUP1 DUP4 GT PUSH2 0x181E JUMPI POP SWAP4 SWAP7 SWAP6 POP POP POP POP POP POP JUMP JUMPDEST PUSH1 0x60 DUP1 PUSH1 0x60 PUSH1 0x0 PUSH1 0x60 PUSH1 0x0 PUSH1 0x60 PUSH1 0x0 PUSH1 0x3 DUP10 PUSH1 0x40 MLOAD PUSH2 0x185C SWAP2 SWAP1 PUSH2 0x3F26 JUMP JUMPDEST SWAP1 DUP2 MSTORE PUSH1 0x20 ADD PUSH1 0x40 MLOAD DUP1 SWAP2 SUB SWAP1 KECCAK256 PUSH1 0x40 MLOAD DUP1 PUSH1 0xE0 ADD PUSH1 0x40 MSTORE SWAP1 DUP2 PUSH1 0x0 DUP3 ADD DUP1 SLOAD PUSH2 0x1885 SWAP1 PUSH2 0x3EEC JUMP JUMPDEST DUP1 PUSH1 0x1F ADD PUSH1 0x20 DUP1 SWAP2 DIV MUL PUSH1 0x20 ADD PUSH1 0x40 MLOAD SWAP1 DUP2 ADD PUSH1 0x40 MSTORE DUP1 SWAP3 SWAP2 SWAP1 DUP2 DUP2 MSTORE PUSH1 0x20 ADD DUP3 DUP1 SLOAD PUSH2 0x18B1 SWAP1 PUSH2 0x3EEC JUMP JUMPDEST DUP1 ISZERO PUSH2 0x18FE JUMPI DUP1 PUSH1 0x1F LT PUSH2 0x18D3 JUMPI PUSH2 0x100 DUP1 DUP4 SLOAD DIV MUL DUP4 MSTORE SWAP2 PUSH1 0x20 ADD SWAP2 PUSH2 0x18FE JUMP JUMPDEST DUP3 ADD SWAP2 SWAP1 PUSH1 0x0 MSTORE PUSH1 0x20 PUSH1 0x0 KECCAK256 SWAP1 JUMPDEST DUP2 SLOAD DUP2 MSTORE SWAP1 PUSH1 0x1 ADD SWAP1 PUSH1 0x20 ADD DUP1 DUP4 GT PUSH2 0x18E1 JUMPI DUP3 SWAP1 SUB PUSH1 0x1F AND DUP3 ADD SWAP2 JUMPDEST POP POP POP POP POP DUP2 MSTORE PUSH1 0x20 ADD PUSH1 0x1 DUP3 ADD DUP1 SLOAD PUSH2 0x1917 SWAP1 PUSH2 0x3EEC JUMP JUMPDEST DUP1 PUSH1 0x1F ADD PUSH1 0x20 DUP1 SWAP2 DIV MUL PUSH1 0x20 ADD PUSH1 0x40 MLOAD SWAP1 DUP2 ADD PUSH1 0x40 MSTORE DUP1 SWAP3 SWAP2 SWAP1 DUP2 DUP2 MSTORE PUSH1 0x20 ADD DUP3 DUP1 SLOAD PUSH2 0x1943 SWAP1 PUSH2 0x3EEC JUMP JUMPDEST DUP1 ISZERO PUSH2 0x1990 JUMPI DUP1 PUSH1 0x1F LT PUSH2 0x1965 JUMPI PUSH2 0x100 DUP1 DUP4 SLOAD DIV MUL DUP4 MSTORE SWAP2 PUSH1 0x20 ADD SWAP2 PUSH2 0x1990 JUMP JUMPDEST DUP3 ADD SWAP2 SWAP1 PUSH1 0x0 MSTORE PUSH1 0x20 PUSH1 0x0 KECCAK256 SWAP1 JUMPDEST DUP2 SLOAD DUP2 MSTORE SWAP1 PUSH1 0x1 ADD SWAP1 PUSH1 0x20 ADD DUP1 DUP4 GT PUSH2 0x1973 JUMPI DUP3 SWAP1 SUB PUSH1 0x1F AND DUP3 ADD SWAP2 JUMPDEST POP POP POP POP POP DUP2 MSTORE PUSH1 0x20 ADD PUSH1 0x2 DUP3 ADD DUP1 SLOAD PUSH2 0x19A9 SWAP1 PUSH2 0x3EEC JUMP JUMPDEST DUP1 PUSH1 0x1F ADD PUSH1 0x20 DUP1 SWAP2 DIV MUL PUSH1 0x20 ADD PUSH1 0x40 MLOAD SWAP1 DUP2 ADD PUSH1 0x40 MSTORE DUP1 SWAP3 SWAP2 SWAP1 DUP2 DUP2 MSTORE PUSH1 0x20 ADD DUP3 DUP1 SLOAD PUSH2 0x19D5 SWAP1 PUSH2 0x3EEC JUMP JUMPDEST DUP1 ISZERO PUSH2 0x1A22 JUMPI DUP1 PUSH1 0x1F LT PUSH2 0x19F7 JUMPI PUSH2 0x100 DUP1 DUP4 SLOAD DIV MUL DUP4 MSTORE SWAP2 PUSH1 0x20 ADD SWAP2 PUSH2 0x1A22 JUMP JUMPDEST DUP3 ADD SWAP2 SWAP1 PUSH1 0x0 MSTORE PUSH1 0x20 PUSH1 0x0 KECCAK256 SWAP1 JUMPDEST DUP2 SLOAD DUP2 MSTORE SWAP1 PUSH1 0x1 ADD SWAP1 PUSH1 0x20 ADD DUP1 DUP4 GT PUSH2 0x1A05 JUMPI DUP3 SWAP1 SUB PUSH1 0x1F AND DUP3 ADD SWAP2 JUMPDEST POP POP POP POP POP DUP2 MSTORE PUSH1 0x20 ADD PUSH1 0x3 DUP3 ADD SLOAD DUP2 MSTORE PUSH1 0x20 ADD PUSH1 0x4 DUP3 ADD DUP1 SLOAD PUSH2 0x1A45 SWAP1 PUSH2 0x3EEC JUMP JUMPDEST DUP1 PUSH1 0x1F ADD PUSH1 0x20 DUP1 SWAP2 DIV MUL PUSH1 0x20 ADD PUSH1 0x40 MLOAD SWAP1 DUP2 ADD PUSH1 0x40 MSTORE DUP1 SWAP3 SWAP2 SWAP1 DUP2 DUP2 MSTORE PUSH1 0x20 ADD DUP3 DUP1 SLOAD PUSH2 0x1A71 SWAP1 PUSH2 0x3EEC JUMP JUMPDEST DUP1 ISZERO PUSH2 0x1ABE JUMPI DUP1 PUSH1 0x1F LT PUSH2 0x1A93 JUMPI PUSH2 0x100 DUP1 DUP4 SLOAD DIV MUL DUP4 MSTORE SWAP2 PUSH1 0x20 ADD SWAP2 PUSH2 0x1ABE JUMP JUMPDEST DUP3 ADD SWAP2 SWAP1 PUSH1 0x0 MSTORE PUSH1 0x20 PUSH1 0x0 KECCAK256 SWAP1 JUMPDEST DUP2 SLOAD DUP2 MSTORE SWAP1 PUSH1 0x1 ADD SWAP1 PUSH1 0x20 ADD DUP1 DUP4 GT PUSH2 0x1AA1 JUMPI DUP3 SWAP1 SUB PUSH1 0x1F AND DUP3 ADD SWAP2 JUMPDEST POP POP POP SWAP2 DUP4 MSTORE POP POP PUSH1 0x5 DUP3 ADD SLOAD PUSH1 0x1 PUSH1 0x1 PUSH1 0xA0 SHL SUB AND PUSH1 0x20 DUP1 DUP4 ADD SWAP2 SWAP1 SWAP2 MSTORE PUSH1 0x6 DUP4 ADD DUP1 SLOAD PUSH1 0x40 DUP1 MLOAD DUP3 DUP6 MUL DUP2 ADD DUP6 ADD DUP3 MSTORE DUP3 DUP2 MSTORE SWAP5 ADD SWAP4 SWAP3 DUP4 ADD DUP3 DUP3 DUP1 ISZERO PUSH2 0x1B26 JUMPI PUSH1 0x20 MUL DUP3 ADD SWAP2 SWAP1 PUSH1 0x0 MSTORE PUSH1 0x20 PUSH1 0x0 KECCAK256 SWAP1 JUMPDEST DUP2 SLOAD DUP2 MSTORE PUSH1 0x20 ADD SWAP1 PUSH1 0x1 ADD SWAP1 DUP1 DUP4 GT PUSH2 0x1B12 JUMPI JUMPDEST POP POP POP POP POP DUP2 MSTORE POP POP SWAP1 POP DUP1 PUSH1 0x0 ADD MLOAD DUP2 PUSH1 0x20 ADD MLOAD DUP3 PUSH1 0x40 ADD MLOAD DUP4 PUSH1 0x60 ADD MLOAD DUP5 PUSH1 0x80 ADD MLOAD DUP6 PUSH1 0xA0 ADD MLOAD DUP7 PUSH1 0xC0 ADD MLOAD SWAP8 POP SWAP8 POP SWAP8 POP SWAP8 POP SWAP8 POP SWAP8 POP SWAP8 POP POP SWAP2 SWAP4 SWAP6 SWAP8 SWAP1 SWAP3 SWAP5 SWAP7 POP JUMP JUMPDEST PUSH1 0x60 PUSH1 0x0 PUSH1 0x8 SLOAD PUSH1 0x1 PUSH1 0x1 PUSH1 0x40 SHL SUB DUP2 GT ISZERO PUSH2 0x1B8C JUMPI PUSH2 0x1B8C PUSH2 0x3679 JUMP JUMPDEST PUSH1 0x40 MLOAD SWAP1 DUP1 DUP3 MSTORE DUP1 PUSH1 0x20 MUL PUSH1 0x20 ADD DUP3 ADD PUSH1 0x40 MSTORE DUP1 ISZERO PUSH2 0x1BB5 JUMPI DUP2 PUSH1 0x20 ADD PUSH1 0x20 DUP3 MUL DUP1 CALLDATASIZE DUP4 CALLDATACOPY ADD SWAP1 POP JUMPDEST POP SWAP1 POP PUSH1 0x0 DUP1 JUMPDEST PUSH1 0xB SLOAD DUP2 LT ISZERO PUSH2 0x1C5D JUMPI PUSH1 0x5 PUSH1 0x0 PUSH1 0xB DUP4 DUP2 SLOAD DUP2 LT PUSH2 0x1BDD JUMPI PUSH2 0x1BDD PUSH2 0x404F JUMP JUMPDEST SWAP1 PUSH1 0x0 MSTORE PUSH1 0x20 PUSH1 0x0 KECCAK256 ADD SLOAD DUP2 MSTORE PUSH1 0x20 ADD SWAP1 DUP2 MSTORE PUSH1 0x20 ADD PUSH1 0x0 KECCAK256 PUSH1 0x3 ADD PUSH1 0x14 SWAP1 SLOAD SWAP1 PUSH2 0x100 EXP SWAP1 DIV PUSH1 0xFF AND ISZERO PUSH2 0x1C55 JUMPI PUSH1 0xB DUP2 DUP2 SLOAD DUP2 LT PUSH2 0x1C1F JUMPI PUSH2 0x1C1F PUSH2 0x404F JUMP JUMPDEST SWAP1 PUSH1 0x0 MSTORE PUSH1 0x20 PUSH1 0x0 KECCAK256 ADD SLOAD DUP4 DUP4 DUP2 MLOAD DUP2 LT PUSH2 0x1C3C JUMPI PUSH2 0x1C3C PUSH2 0x404F JUMP JUMPDEST PUSH1 0x20 SWAP1 DUP2 MUL SWAP2 SWAP1 SWAP2 ADD ADD MSTORE DUP2 PUSH2 0x1C51 DUP2 PUSH2 0x414F JUMP JUMPDEST SWAP3 POP POP JUMPDEST PUSH1 0x1 ADD PUSH2 0x1BBC JUMP JUMPDEST POP PUSH1 0x0 DUP2 PUSH1 0x1 PUSH1 0x1 PUSH1 0x40 SHL SUB DUP2 GT ISZERO PUSH2 0x1C78 JUMPI PUSH2 0x1C78 PUSH2 0x3679 JUMP JUMPDEST PUSH1 0x40 MLOAD SWAP1 DUP1 DUP3 MSTORE DUP1 PUSH1 0x20 MUL PUSH1 0x20 ADD DUP3 ADD PUSH1 0x40 MSTORE DUP1 ISZERO PUSH2 0x1CA1 JUMPI DUP2 PUSH1 0x20 ADD PUSH1 0x20 DUP3 MUL DUP1 CALLDATASIZE DUP4 CALLDATACOPY ADD SWAP1 POP JUMPDEST POP SWAP1 POP PUSH1 0x0 JUMPDEST DUP3 DUP2 LT ISZERO PUSH2 0x1CEE JUMPI DUP4 DUP2 DUP2 MLOAD DUP2 LT PUSH2 0x1CC1 JUMPI PUSH2 0x1CC1 PUSH2 0x404F JUMP JUMPDEST PUSH1 0x20 MUL PUSH1 0x20 ADD ADD MLOAD DUP3 DUP3 DUP2 MLOAD DUP2 LT PUSH2 0x1CDB JUMPI PUSH2 0x1CDB PUSH2 0x404F JUMP JUMPDEST PUSH1 0x20 SWAP1 DUP2 MUL SWAP2 SWAP1 SWAP2 ADD ADD MSTORE PUSH1 0x1 ADD PUSH2 0x1CA7 JUMP JUMPDEST POP SWAP4 SWAP3 POP POP POP JUMP JUMPDEST PUSH1 0x60 DUP1 PUSH1 0x0 PUSH1 0x60 PUSH1 0x0 PUSH1 0x60 DUP1 PUSH1 0x0 DUP1 DUP10 GT DUP1 ISZERO PUSH2 0x1D15 JUMPI POP PUSH1 0x7 SLOAD DUP10 GT ISZERO JUMPDEST PUSH2 0x1D1E JUMPI PUSH1 0x0 DUP1 REVERT JUMPDEST PUSH1 0x0 DUP10 DUP2 MSTORE PUSH1 0x4 PUSH1 0x20 MSTORE PUSH1 0x40 DUP1 DUP3 KECCAK256 DUP2 MLOAD PUSH2 0x100 DUP2 ADD SWAP1 SWAP3 MSTORE DUP1 SLOAD DUP3 SWAP1 DUP3 SWAP1 PUSH2 0x1D46 SWAP1 PUSH2 0x3EEC JUMP JUMPDEST DUP1 PUSH1 0x1F ADD PUSH1 0x20 DUP1 SWAP2 DIV MUL PUSH1 0x20 ADD PUSH1 0x40 MLOAD SWAP1 DUP2 ADD PUSH1 0x40 MSTORE DUP1 SWAP3 SWAP2 SWAP1 DUP2 DUP2 MSTORE PUSH1 0x20 ADD DUP3 DUP1 SLOAD PUSH2 0x1D72 SWAP1 PUSH2 0x3EEC JUMP JUMPDEST DUP1 ISZERO PUSH2 0x1DBF JUMPI DUP1 PUSH1 0x1F LT PUSH2 0x1D94 JUMPI PUSH2 0x100 DUP1 DUP4 SLOAD DIV MUL DUP4 MSTORE SWAP2 PUSH1 0x20 ADD SWAP2 PUSH2 0x1DBF JUMP JUMPDEST DUP3 ADD SWAP2 SWAP1 PUSH1 0x0 MSTORE PUSH1 0x20 PUSH1 0x0 KECCAK256 SWAP1 JUMPDEST DUP2 SLOAD DUP2 MSTORE SWAP1 PUSH1 0x1 ADD SWAP1 PUSH1 0x20 ADD DUP1 DUP4 GT PUSH2 0x1DA2 JUMPI DUP3 SWAP1 SUB PUSH1 0x1F AND DUP3 ADD SWAP2 JUMPDEST POP POP POP POP POP DUP2 MSTORE PUSH1 0x20 ADD PUSH1 0x1 DUP3 ADD DUP1 SLOAD PUSH2 0x1DD8 SWAP1 PUSH2 0x3EEC JUMP JUMPDEST DUP1 PUSH1 0x1F ADD PUSH1 0x20 DUP1 SWAP2 DIV MUL PUSH1 0x20 ADD PUSH1 0x40 MLOAD SWAP1 DUP2 ADD PUSH1 0x40 MSTORE DUP1 SWAP3 SWAP2 SWAP1 DUP2 DUP2 MSTORE PUSH1 0x20 ADD DUP3 DUP1 SLOAD PUSH2 0x1E04 SWAP1 PUSH2 0x3EEC JUMP JUMPDEST DUP1 ISZERO PUSH2 0x1E51 JUMPI DUP1 PUSH1 0x1F LT PUSH2 0x1E26 JUMPI PUSH2 0x100 DUP1 DUP4 SLOAD DIV MUL DUP4 MSTORE SWAP2 PUSH1 0x20 ADD SWAP2 PUSH2 0x1E51 JUMP JUMPDEST DUP3 ADD SWAP2 SWAP1 PUSH1 0x0 MSTORE PUSH1 0x20 PUSH1 0x0 KECCAK256 SWAP1 JUMPDEST DUP2 SLOAD DUP2 MSTORE SWAP1 PUSH1 0x1 ADD SWAP1 PUSH1 0x20 ADD DUP1 DUP4 GT PUSH2 0x1E34 JUMPI DUP3 SWAP1 SUB PUSH1 0x1F AND DUP3 ADD SWAP2 JUMPDEST POP POP POP SWAP2 DUP4 MSTORE POP POP PUSH1 0x2 DUP3 ADD SLOAD PUSH1 0x1 PUSH1 0x1 PUSH1 0xA0 SHL SUB AND PUSH1 0x20 DUP3 ADD MSTORE PUSH1 0x3 DUP3 ADD SLOAD PUSH1 0x40 DUP3 ADD MSTORE PUSH1 0x4 DUP3 ADD DUP1 SLOAD PUSH1 0x60 SWAP1 SWAP3 ADD SWAP2 PUSH2 0x1E8B SWAP1 PUSH2 0x3EEC JUMP JUMPDEST DUP1 PUSH1 0x1F ADD PUSH1 0x20 DUP1 SWAP2 DIV MUL PUSH1 0x20 ADD PUSH1 0x40 MLOAD SWAP1 DUP2 ADD PUSH1 0x40 MSTORE DUP1 SWAP3 SWAP2 SWAP1 DUP2 DUP2 MSTORE PUSH1 0x20 ADD DUP3 DUP1 SLOAD PUSH2 0x1EB7 SWAP1 PUSH2 0x3EEC JUMP JUMPDEST DUP1 ISZERO PUSH2 0x1F04 JUMPI DUP1 PUSH1 0x1F LT PUSH2 0x1ED9 JUMPI PUSH2 0x100 DUP1 DUP4 SLOAD DIV MUL DUP4 MSTORE SWAP2 PUSH1 0x20 ADD SWAP2 PUSH2 0x1F04 JUMP JUMPDEST DUP3 ADD SWAP2 SWAP1 PUSH1 0x0 MSTORE PUSH1 0x20 PUSH1 0x0 KECCAK256 SWAP1 JUMPDEST DUP2 SLOAD DUP2 MSTORE SWAP1 PUSH1 0x1 ADD SWAP1 PUSH1 0x20 ADD DUP1 DUP4 GT PUSH2 0x1EE7 JUMPI DUP3 SWAP1 SUB PUSH1 0x1F AND DUP3 ADD SWAP2 JUMPDEST POP POP POP POP POP DUP2 MSTORE PUSH1 0x20 ADD PUSH1 0x5 DUP3 ADD SLOAD DUP2 MSTORE PUSH1 0x20 ADD PUSH1 0x6 DUP3 ADD DUP1 SLOAD DUP1 PUSH1 0x20 MUL PUSH1 0x20 ADD PUSH1 0x40 MLOAD SWAP1 DUP2 ADD PUSH1 0x40 MSTORE DUP1 SWAP3 SWAP2 SWAP1 DUP2 DUP2 MSTORE PUSH1 0x20 ADD PUSH1 0x0 SWAP1 JUMPDEST DUP3 DUP3 LT ISZERO PUSH2 0x1FE8 JUMPI DUP4 DUP3 SWAP1 PUSH1 0x0 MSTORE PUSH1 0x20 PUSH1 0x0 KECCAK256 ADD DUP1 SLOAD PUSH2 0x1F5B SWAP1 PUSH2 0x3EEC JUMP JUMPDEST DUP1 PUSH1 0x1F ADD PUSH1 0x20 DUP1 SWAP2 DIV MUL PUSH1 0x20 ADD PUSH1 0x40 MLOAD SWAP1 DUP2 ADD PUSH1 0x40 MSTORE DUP1 SWAP3 SWAP2 SWAP1 DUP2 DUP2 MSTORE PUSH1 0x20 ADD DUP3 DUP1 SLOAD PUSH2 0x1F87 SWAP1 PUSH2 0x3EEC JUMP JUMPDEST DUP1 ISZERO PUSH2 0x1FD4 JUMPI DUP1 PUSH1 0x1F LT PUSH2 0x1FA9 JUMPI PUSH2 0x100 DUP1 DUP4 SLOAD DIV MUL DUP4 MSTORE SWAP2 PUSH1 0x20 ADD SWAP2 PUSH2 0x1FD4 JUMP JUMPDEST DUP3 ADD SWAP2 SWAP1 PUSH1 0x0 MSTORE PUSH1 0x20 PUSH1 0x0 KECCAK256 SWAP1 JUMPDEST DUP2 SLOAD DUP2 MSTORE SWAP1 PUSH1 0x1 ADD SWAP1 PUSH1 0x20 ADD DUP1 DUP4 GT PUSH2 0x1FB7 JUMPI DUP3 SWAP1 SUB PUSH1 0x1F AND DUP3 ADD SWAP2 JUMPDEST POP POP POP POP POP DUP2 MSTORE PUSH1 0x20 ADD SWAP1 PUSH1 0x1 ADD SWAP1 PUSH2 0x1F3C JUMP JUMPDEST POP POP POP POP DUP2 MSTORE PUSH1 0x20 ADD PUSH1 0x7 DUP3 ADD DUP1 SLOAD DUP1 PUSH1 0x20 MUL PUSH1 0x20 ADD PUSH1 0x40 MLOAD SWAP1 DUP2 ADD PUSH1 0x40 MSTORE DUP1 SWAP3 SWAP2 SWAP1 DUP2 DUP2 MSTORE PUSH1 0x20 ADD PUSH1 0x0 SWAP1 JUMPDEST DUP3 DUP3 LT ISZERO PUSH2 0x20C1 JUMPI DUP4 DUP3 SWAP1 PUSH1 0x0 MSTORE PUSH1 0x20 PUSH1 0x0 KECCAK256 ADD DUP1 SLOAD PUSH2 0x2034 SWAP1 PUSH2 0x3EEC JUMP JUMPDEST DUP1 PUSH1 0x1F ADD PUSH1 0x20 DUP1 SWAP2 DIV MUL PUSH1 0x20 ADD PUSH1 0x40 MLOAD SWAP1 DUP2 ADD PUSH1 0x40 MSTORE DUP1 SWAP3 SWAP2 SWAP1 DUP2 DUP2 MSTORE PUSH1 0x20 ADD DUP3 DUP1 SLOAD PUSH2 0x2060 SWAP1 PUSH2 0x3EEC JUMP JUMPDEST DUP1 ISZERO PUSH2 0x20AD JUMPI DUP1 PUSH1 0x1F LT PUSH2 0x2082 JUMPI PUSH2 0x100 DUP1 DUP4 SLOAD DIV MUL DUP4 MSTORE SWAP2 PUSH1 0x20 ADD SWAP2 PUSH2 0x20AD JUMP JUMPDEST DUP3 ADD SWAP2 SWAP1 PUSH1 0x0 MSTORE PUSH1 0x20 PUSH1 0x0 KECCAK256 SWAP1 JUMPDEST DUP2 SLOAD DUP2 MSTORE SWAP1 PUSH1 0x1 ADD SWAP1 PUSH1 0x20 ADD DUP1 DUP4 GT PUSH2 0x2090 JUMPI DUP3 SWAP1 SUB PUSH1 0x1F AND DUP3 ADD SWAP2 JUMPDEST POP POP POP POP POP DUP2 MSTORE PUSH1 0x20 ADD SWAP1 PUSH1 0x1 ADD SWAP1 PUSH2 0x2015 JUMP JUMPDEST POP POP POP POP DUP2 MSTORE POP POP SWAP1 POP DUP1 PUSH1 0x0 ADD MLOAD DUP2 PUSH1 0x20 ADD MLOAD DUP3 PUSH1 0x40 ADD MLOAD DUP4 PUSH1 0xC0 ADD MLOAD DUP5 PUSH1 0x60 ADD MLOAD DUP6 PUSH1 0x80 ADD MLOAD DUP7 PUSH1 0xE0 ADD MLOAD DUP8 PUSH1 0xA0 ADD MLOAD SWAP9 POP SWAP9 POP SWAP9 POP SWAP9 POP SWAP9 POP SWAP9 POP SWAP9 POP SWAP9 POP POP SWAP2 SWAP4 SWAP6 SWAP8 POP SWAP2 SWAP4 SWAP6 SWAP8 JUMP JUMPDEST PUSH1 0x0 DUP3 GT DUP1 ISZERO PUSH2 0x2121 JUMPI POP PUSH1 0x8 SLOAD DUP3 GT ISZERO JUMPDEST PUSH2 0x212A JUMPI PUSH1 0x0 DUP1 REVERT JUMPDEST PUSH1 0x0 DUP3 DUP2 MSTORE PUSH1 0x5 PUSH1 0x20 MSTORE PUSH1 0x40 SWAP1 KECCAK256 PUSH1 0x3 DUP2 ADD SLOAD PUSH1 0x1 PUSH1 0xA0 SHL SWAP1 DIV PUSH1 0xFF AND PUSH2 0x2150 JUMPI PUSH1 0x0 DUP1 REVERT JUMPDEST PUSH1 0x0 DUP3 GT DUP1 ISZERO PUSH2 0x2164 JUMPI POP DUP1 PUSH1 0x2 ADD SLOAD DUP3 GT ISZERO JUMPDEST PUSH2 0x216D JUMPI PUSH1 0x0 DUP1 REVERT JUMPDEST PUSH1 0x5 DUP2 ADD SLOAD PUSH1 0xFF AND PUSH2 0x2189 JUMPI DUP1 PUSH1 0x2 ADD SLOAD DUP3 EQ PUSH2 0x2189 JUMPI PUSH1 0x0 DUP1 REVERT JUMPDEST PUSH1 0x0 DUP2 PUSH1 0x2 ADD SLOAD DUP3 PUSH1 0x1 ADD SLOAD PUSH2 0x219F SWAP2 SWAP1 PUSH2 0x41C5 JUMP JUMPDEST SWAP1 POP PUSH1 0x0 PUSH2 0x21AD DUP5 DUP4 PUSH2 0x41D9 JUMP JUMPDEST SWAP1 POP DUP1 CALLVALUE LT ISZERO PUSH2 0x21BC JUMPI PUSH1 0x0 DUP1 REVERT JUMPDEST PUSH1 0x3 DUP4 ADD SLOAD PUSH1 0x40 MLOAD PUSH1 0x1 PUSH1 0x1 PUSH1 0xA0 SHL SUB SWAP1 SWAP2 AND SWAP1 DUP3 ISZERO PUSH2 0x8FC MUL SWAP1 DUP4 SWAP1 PUSH1 0x0 DUP2 DUP2 DUP2 DUP6 DUP9 DUP9 CALL SWAP4 POP POP POP POP ISZERO DUP1 ISZERO PUSH2 0x21F8 JUMPI RETURNDATASIZE PUSH1 0x0 DUP1 RETURNDATACOPY RETURNDATASIZE PUSH1 0x0 REVERT JUMPDEST POP DUP4 DUP4 PUSH1 0x2 ADD PUSH1 0x0 DUP3 DUP3 SLOAD PUSH2 0x220D SWAP2 SWAP1 PUSH2 0x4168 JUMP JUMPDEST SWAP1 SWAP2 SSTORE POP POP PUSH1 0x2 DUP4 ADD SLOAD PUSH1 0x0 SUB PUSH2 0x222E JUMPI PUSH1 0x3 DUP4 ADD DUP1 SLOAD PUSH1 0xFF PUSH1 0xA0 SHL NOT AND SWAP1 SSTORE JUMPDEST DUP3 SLOAD PUSH1 0x0 SWAP1 DUP2 MSTORE PUSH1 0x4 PUSH1 0x20 MSTORE PUSH1 0x40 SWAP1 KECCAK256 PUSH1 0x6 ADD PUSH2 0x224A DUP6 PUSH2 0x330A JUMP JUMPDEST PUSH1 0x40 MLOAD PUSH1 0x20 ADD PUSH2 0x225A SWAP2 SWAP1 PUSH2 0x41F0 JUMP JUMPDEST PUSH1 0x40 DUP1 MLOAD PUSH1 0x1F NOT DUP2 DUP5 SUB ADD DUP2 MSTORE SWAP2 SWAP1 MSTORE DUP2 SLOAD PUSH1 0x1 DUP2 ADD DUP4 SSTORE PUSH1 0x0 SWAP3 DUP4 MSTORE PUSH1 0x20 SWAP1 SWAP3 KECCAK256 SWAP1 SWAP2 ADD SWAP1 PUSH2 0x228A SWAP1 DUP3 PUSH2 0x3F91 JUMP JUMPDEST POP PUSH1 0x40 DUP1 MLOAD DUP7 DUP2 MSTORE CALLER PUSH1 0x20 DUP3 ADD MSTORE SWAP1 DUP2 ADD DUP6 SWAP1 MSTORE TIMESTAMP PUSH1 0x60 DUP3 ADD MSTORE PUSH32 0x7D3C39A6CCE20F6949EFF0833A4D54FCA734DC7C6027773D8885E7FAEAC98A95 SWAP1 PUSH1 0x80 ADD PUSH1 0x40 MLOAD DUP1 SWAP2 SUB SWAP1 LOG1 DUP3 SLOAD PUSH1 0x40 DUP1 MLOAD SWAP2 DUP3 MSTORE PUSH1 0x80 PUSH1 0x20 DUP4 ADD DUP2 SWAP1 MSTORE PUSH1 0x9 SWAP1 DUP4 ADD MSTORE PUSH9 0x141D5C98DA185CD959 PUSH1 0xBA SHL PUSH1 0xA0 DUP4 ADD MSTORE CALLER SWAP1 DUP3 ADD MSTORE TIMESTAMP PUSH1 0x60 DUP3 ADD MSTORE PUSH32 0x28222DBD9906BC73E71CBD7BD296A46D23DE9224D425C30BE175AF99B4AB7741 SWAP1 PUSH1 0xC0 ADD PUSH2 0x10BF JUMP JUMPDEST PUSH1 0x0 PUSH1 0x2 DUP7 PUSH1 0x40 MLOAD PUSH2 0x2342 SWAP2 SWAP1 PUSH2 0x3F26 JUMP JUMPDEST SWAP1 DUP2 MSTORE PUSH1 0x20 ADD PUSH1 0x40 MLOAD DUP1 SWAP2 SUB SWAP1 KECCAK256 PUSH1 0x40 MLOAD DUP1 PUSH1 0xC0 ADD PUSH1 0x40 MSTORE SWAP1 DUP2 PUSH1 0x0 DUP3 ADD DUP1 SLOAD PUSH2 0x236B SWAP1 PUSH2 0x3EEC JUMP JUMPDEST DUP1 PUSH1 0x1F ADD PUSH1 0x20 DUP1 SWAP2 DIV MUL PUSH1 0x20 ADD PUSH1 0x40 MLOAD SWAP1 DUP2 ADD PUSH1 0x40 MSTORE DUP1 SWAP3 SWAP2 SWAP1 DUP2 DUP2 MSTORE PUSH1 0x20 ADD DUP3 DUP1 SLOAD PUSH2 0x2397 SWAP1 PUSH2 0x3EEC JUMP JUMPDEST DUP1 ISZERO PUSH2 0x23E4 JUMPI DUP1 PUSH1 0x1F LT PUSH2 0x23B9 JUMPI PUSH2 0x100 DUP1 DUP4 SLOAD DIV MUL DUP4 MSTORE SWAP2 PUSH1 0x20 ADD SWAP2 PUSH2 0x23E4 JUMP JUMPDEST DUP3 ADD SWAP2 SWAP1 PUSH1 0x0 MSTORE PUSH1 0x20 PUSH1 0x0 KECCAK256 SWAP1 JUMPDEST DUP2 SLOAD DUP2 MSTORE SWAP1 PUSH1 0x1 ADD SWAP1 PUSH1 0x20 ADD DUP1 DUP4 GT PUSH2 0x23C7 JUMPI DUP3 SWAP1 SUB PUSH1 0x1F AND DUP3 ADD SWAP2 JUMPDEST POP POP POP POP POP DUP2 MSTORE PUSH1 0x20 ADD PUSH1 0x1 DUP3 ADD DUP1 SLOAD PUSH2 0x23FD SWAP1 PUSH2 0x3EEC JUMP JUMPDEST DUP1 PUSH1 0x1F ADD PUSH1 0x20 DUP1 SWAP2 DIV MUL PUSH1 0x20 ADD PUSH1 0x40 MLOAD SWAP1 DUP2 ADD PUSH1 0x40 MSTORE DUP1 SWAP3 SWAP2 SWAP1 DUP2 DUP2 MSTORE PUSH1 0x20 ADD DUP3 DUP1 SLOAD PUSH2 0x2429 SWAP1 PUSH2 0x3EEC JUMP JUMPDEST DUP1 ISZERO PUSH2 0x2476 JUMPI DUP1 PUSH1 0x1F LT PUSH2 0x244B JUMPI PUSH2 0x100 DUP1 DUP4 SLOAD DIV MUL DUP4 MSTORE SWAP2 PUSH1 0x20 ADD SWAP2 PUSH2 0x2476 JUMP JUMPDEST DUP3 ADD SWAP2 SWAP1 PUSH1 0x0 MSTORE PUSH1 0x20 PUSH1 0x0 KECCAK256 SWAP1 JUMPDEST DUP2 SLOAD DUP2 MSTORE SWAP1 PUSH1 0x1 ADD SWAP1 PUSH1 0x20 ADD DUP1 DUP4 GT PUSH2 0x2459 JUMPI DUP3 SWAP1 SUB PUSH1 0x1F AND DUP3 ADD SWAP2 JUMPDEST POP POP POP POP POP DUP2 MSTORE PUSH1 0x20 ADD PUSH1 0x2 DUP3 ADD DUP1 SLOAD PUSH2 0x248F SWAP1 PUSH2 0x3EEC JUMP JUMPDEST DUP1 PUSH1 0x1F ADD PUSH1 0x20 DUP1 SWAP2 DIV MUL PUSH1 0x20 ADD PUSH1 0x40 MLOAD SWAP1 DUP2 ADD PUSH1 0x40 MSTORE DUP1 SWAP3 SWAP2 SWAP1 DUP2 DUP2 MSTORE PUSH1 0x20 ADD DUP3 DUP1 SLOAD PUSH2 0x24BB SWAP1 PUSH2 0x3EEC JUMP JUMPDEST DUP1 ISZERO PUSH2 0x2508 JUMPI DUP1 PUSH1 0x1F LT PUSH2 0x24DD JUMPI PUSH2 0x100 DUP1 DUP4 SLOAD DIV MUL DUP4 MSTORE SWAP2 PUSH1 0x20 ADD SWAP2 PUSH2 0x2508 JUMP JUMPDEST DUP3 ADD SWAP2 SWAP1 PUSH1 0x0 MSTORE PUSH1 0x20 PUSH1 0x0 KECCAK256 SWAP1 JUMPDEST DUP2 SLOAD DUP2 MSTORE SWAP1 PUSH1 0x1 ADD SWAP1 PUSH1 0x20 ADD DUP1 DUP4 GT PUSH2 0x24EB JUMPI DUP3 SWAP1 SUB PUSH1 0x1F AND DUP3 ADD SWAP2 JUMPDEST POP POP POP POP POP DUP2 MSTORE PUSH1 0x20 ADD PUSH1 0x3 DUP3 ADD DUP1 SLOAD PUSH2 0x2521 SWAP1 PUSH2 0x3EEC JUMP JUMPDEST DUP1 PUSH1 0x1F ADD PUSH1 0x20 DUP1 SWAP2 DIV MUL PUSH1 0x20 ADD PUSH1 0x40 MLOAD SWAP1 DUP2 ADD PUSH1 0x40 MSTORE DUP1 SWAP3 SWAP2 SWAP1 DUP2 DUP2 MSTORE PUSH1 0x20 ADD DUP3 DUP1 SLOAD PUSH2 0x254D SWAP1 PUSH2 0x3EEC JUMP JUMPDEST DUP1 ISZERO PUSH2 0x259A JUMPI DUP1 PUSH1 0x1F LT PUSH2 0x256F JUMPI PUSH2 0x100 DUP1 DUP4 SLOAD DIV MUL DUP4 MSTORE SWAP2 PUSH1 0x20 ADD SWAP2 PUSH2 0x259A JUMP JUMPDEST DUP3 ADD SWAP2 SWAP1 PUSH1 0x0 MSTORE PUSH1 0x20 PUSH1 0x0 KECCAK256 SWAP1 JUMPDEST DUP2 SLOAD DUP2 MSTORE SWAP1 PUSH1 0x1 ADD SWAP1 PUSH1 0x20 ADD DUP1 DUP4 GT PUSH2 0x257D JUMPI DUP3 SWAP1 SUB PUSH1 0x1F AND DUP3 ADD SWAP2 JUMPDEST POP POP POP POP POP DUP2 MSTORE PUSH1 0x20 ADD PUSH1 0x4 DUP3 ADD DUP1 SLOAD PUSH2 0x25B3 SWAP1 PUSH2 0x3EEC JUMP JUMPDEST DUP1 PUSH1 0x1F ADD PUSH1 0x20 DUP1 SWAP2 DIV MUL PUSH1 0x20 ADD PUSH1 0x40 MLOAD SWAP1 DUP2 ADD PUSH1 0x40 MSTORE DUP1 SWAP3 SWAP2 SWAP1 DUP2 DUP2 MSTORE PUSH1 0x20 ADD DUP3 DUP1 SLOAD PUSH2 0x25DF SWAP1 PUSH2 0x3EEC JUMP JUMPDEST DUP1 ISZERO PUSH2 0x262C JUMPI DUP1 PUSH1 0x1F LT PUSH2 0x2601 JUMPI PUSH2 0x100 DUP1 DUP4 SLOAD DIV MUL DUP4 MSTORE SWAP2 PUSH1 0x20 ADD SWAP2 PUSH2 0x262C JUMP JUMPDEST DUP3 ADD SWAP2 SWAP1 PUSH1 0x0 MSTORE PUSH1 0x20 PUSH1 0x0 KECCAK256 SWAP1 JUMPDEST DUP2 SLOAD DUP2 MSTORE SWAP1 PUSH1 0x1 ADD SWAP1 PUSH1 0x20 ADD DUP1 DUP4 GT PUSH2 0x260F JUMPI DUP3 SWAP1 SUB PUSH1 0x1F AND DUP3 ADD SWAP2 JUMPDEST POP POP POP POP POP DUP2 MSTORE PUSH1 0x20 ADD PUSH1 0x5 DUP3 ADD DUP1 SLOAD DUP1 PUSH1 0x20 MUL PUSH1 0x20 ADD PUSH1 0x40 MLOAD SWAP1 DUP2 ADD PUSH1 0x40 MSTORE DUP1 SWAP3 SWAP2 SWAP1 DUP2 DUP2 MSTORE PUSH1 0x20 ADD PUSH1 0x0 SWAP1 JUMPDEST DUP3 DUP3 LT ISZERO PUSH2 0x2706 JUMPI DUP4 DUP3 SWAP1 PUSH1 0x0 MSTORE PUSH1 0x20 PUSH1 0x0 KECCAK256 ADD DUP1 SLOAD PUSH2 0x2679 SWAP1 PUSH2 0x3EEC JUMP JUMPDEST DUP1 PUSH1 0x1F ADD PUSH1 0x20 DUP1 SWAP2 DIV MUL PUSH1 0x20 ADD PUSH1 0x40 MLOAD SWAP1 DUP2 ADD PUSH1 0x40 MSTORE DUP1 SWAP3 SWAP2 SWAP1 DUP2 DUP2 MSTORE PUSH1 0x20 ADD DUP3 DUP1 SLOAD PUSH2 0x26A5 SWAP1 PUSH2 0x3EEC JUMP JUMPDEST DUP1 ISZERO PUSH2 0x26F2 JUMPI DUP1 PUSH1 0x1F LT PUSH2 0x26C7 JUMPI PUSH2 0x100 DUP1 DUP4 SLOAD DIV MUL DUP4 MSTORE SWAP2 PUSH1 0x20 ADD SWAP2 PUSH2 0x26F2 JUMP JUMPDEST DUP3 ADD SWAP2 SWAP1 PUSH1 0x0 MSTORE PUSH1 0x20 PUSH1 0x0 KECCAK256 SWAP1 JUMPDEST DUP2 SLOAD DUP2 MSTORE SWAP1 PUSH1 0x1 ADD SWAP1 PUSH1 0x20 ADD DUP1 DUP4 GT PUSH2 0x26D5 JUMPI DUP3 SWAP1 SUB PUSH1 0x1F AND DUP3 ADD SWAP2 JUMPDEST POP POP POP POP POP DUP2 MSTORE PUSH1 0x20 ADD SWAP1 PUSH1 0x1 ADD SWAP1 PUSH2 0x265A JUMP JUMPDEST POP POP POP SWAP2 MSTORE POP POP DUP1 MLOAD MLOAD SWAP1 SWAP2 POP PUSH2 0x271C JUMPI PUSH1 0x0 DUP1 REVERT JUMPDEST PUSH1 0xC DUP5 PUSH1 0x40 MLOAD PUSH2 0x272C SWAP2 SWAP1 PUSH2 0x3F26 JUMP JUMPDEST SWAP1 DUP2 MSTORE PUSH1 0x40 MLOAD SWAP1 DUP2 SWAP1 SUB PUSH1 0x20 ADD SWAP1 KECCAK256 SLOAD PUSH1 0xFF AND PUSH2 0x2748 JUMPI PUSH1 0x0 DUP1 REVERT JUMPDEST PUSH1 0x0 DUP3 GT PUSH2 0x2755 JUMPI PUSH1 0x0 DUP1 REVERT JUMPDEST PUSH1 0x7 DUP1 SLOAD SWAP1 PUSH1 0x0 PUSH2 0x2765 DUP4 PUSH2 0x414F JUMP JUMPDEST SWAP2 SWAP1 POP SSTORE POP PUSH1 0x40 MLOAD DUP1 PUSH2 0x100 ADD PUSH1 0x40 MSTORE DUP1 DUP8 DUP2 MSTORE PUSH1 0x20 ADD DUP7 DUP2 MSTORE PUSH1 0x20 ADD CALLER PUSH1 0x1 PUSH1 0x1 PUSH1 0xA0 SHL SUB AND DUP2 MSTORE PUSH1 0x20 ADD TIMESTAMP DUP2 MSTORE PUSH1 0x20 ADD DUP5 DUP2 MSTORE PUSH1 0x20 ADD DUP4 DUP2 MSTORE PUSH1 0x20 ADD PUSH1 0x0 PUSH1 0x1 PUSH1 0x1 PUSH1 0x40 SHL SUB DUP2 GT ISZERO PUSH2 0x27BC JUMPI PUSH2 0x27BC PUSH2 0x3679 JUMP JUMPDEST PUSH1 0x40 MLOAD SWAP1 DUP1 DUP3 MSTORE DUP1 PUSH1 0x20 MUL PUSH1 0x20 ADD DUP3 ADD PUSH1 0x40 MSTORE DUP1 ISZERO PUSH2 0x27EF JUMPI DUP2 PUSH1 0x20 ADD JUMPDEST PUSH1 0x60 DUP2 MSTORE PUSH1 0x20 ADD SWAP1 PUSH1 0x1 SWAP1 SUB SWAP1 DUP2 PUSH2 0x27DA JUMPI SWAP1 POP JUMPDEST POP DUP2 MSTORE PUSH1 0x20 ADD PUSH1 0x0 PUSH1 0x40 MLOAD SWAP1 DUP1 DUP3 MSTORE DUP1 PUSH1 0x20 MUL PUSH1 0x20 ADD DUP3 ADD PUSH1 0x40 MSTORE DUP1 ISZERO PUSH2 0x282A JUMPI DUP2 PUSH1 0x20 ADD JUMPDEST PUSH1 0x60 DUP2 MSTORE PUSH1 0x20 ADD SWAP1 PUSH1 0x1 SWAP1 SUB SWAP1 DUP2 PUSH2 0x2815 JUMPI SWAP1 POP JUMPDEST POP SWAP1 MSTORE PUSH1 0x7 SLOAD PUSH1 0x0 SWAP1 DUP2 MSTORE PUSH1 0x4 PUSH1 0x20 MSTORE PUSH1 0x40 SWAP1 KECCAK256 DUP2 MLOAD DUP2 SWAP1 PUSH2 0x284C SWAP1 DUP3 PUSH2 0x3F91 JUMP JUMPDEST POP PUSH1 0x20 DUP3 ADD MLOAD PUSH1 0x1 DUP3 ADD SWAP1 PUSH2 0x2861 SWAP1 DUP3 PUSH2 0x3F91 JUMP JUMPDEST POP PUSH1 0x40 DUP3 ADD MLOAD PUSH1 0x2 DUP3 ADD DUP1 SLOAD PUSH1 0x1 PUSH1 0x1 PUSH1 0xA0 SHL SUB NOT AND PUSH1 0x1 PUSH1 0x1 PUSH1 0xA0 SHL SUB SWAP1 SWAP3 AND SWAP2 SWAP1 SWAP2 OR SWAP1 SSTORE PUSH1 0x60 DUP3 ADD MLOAD PUSH1 0x3 DUP3 ADD SSTORE PUSH1 0x80 DUP3 ADD MLOAD PUSH1 0x4 DUP3 ADD SWAP1 PUSH2 0x28A6 SWAP1 DUP3 PUSH2 0x3F91 JUMP JUMPDEST POP PUSH1 0xA0 DUP3 ADD MLOAD PUSH1 0x5 DUP3 ADD SSTORE PUSH1 0xC0 DUP3 ADD MLOAD DUP1 MLOAD PUSH2 0x28CC SWAP2 PUSH1 0x6 DUP5 ADD SWAP2 PUSH1 0x20 SWAP1 SWAP2 ADD SWAP1 PUSH2 0x3465 JUMP JUMPDEST POP PUSH1 0xE0 DUP3 ADD MLOAD DUP1 MLOAD PUSH2 0x28E8 SWAP2 PUSH1 0x7 DUP5 ADD SWAP2 PUSH1 0x20 SWAP1 SWAP2 ADD SWAP1 PUSH2 0x3465 JUMP JUMPDEST POP SWAP1 POP POP PUSH1 0x0 PUSH1 0x3 DUP6 PUSH1 0x40 MLOAD PUSH2 0x28FE SWAP2 SWAP1 PUSH2 0x3F26 JUMP JUMPDEST SWAP1 DUP2 MSTORE PUSH1 0x40 MLOAD SWAP1 DUP2 SWAP1 SUB PUSH1 0x20 ADD SWAP1 KECCAK256 PUSH1 0x5 DUP2 ADD SLOAD SWAP1 SWAP2 POP PUSH1 0x1 PUSH1 0x1 PUSH1 0xA0 SHL SUB AND PUSH2 0x2942 JUMPI PUSH1 0x7 SLOAD PUSH1 0x6 DUP3 ADD DUP1 SLOAD PUSH1 0x1 DUP2 ADD DUP3 SSTORE PUSH1 0x0 SWAP2 DUP3 MSTORE PUSH1 0x20 SWAP1 SWAP2 KECCAK256 ADD SSTORE PUSH2 0x297F JUMP JUMPDEST PUSH1 0x3 DUP6 PUSH1 0x40 MLOAD PUSH2 0x2952 SWAP2 SWAP1 PUSH2 0x3F26 JUMP JUMPDEST SWAP1 DUP2 MSTORE PUSH1 0x40 MLOAD PUSH1 0x20 SWAP2 DUP2 SWAP1 SUB DUP3 ADD SWAP1 KECCAK256 PUSH1 0x7 SLOAD PUSH1 0x6 SWAP1 SWAP2 ADD DUP1 SLOAD PUSH1 0x1 DUP2 ADD DUP3 SSTORE PUSH1 0x0 SWAP2 DUP3 MSTORE SWAP3 SWAP1 KECCAK256 SWAP1 SWAP2 ADD SSTORE JUMPDEST PUSH1 0x7 SLOAD PUSH1 0x0 SWAP1 DUP2 MSTORE PUSH1 0x4 PUSH1 0x20 SWAP1 DUP2 MSTORE PUSH1 0x40 DUP1 DUP4 KECCAK256 PUSH1 0x6 ADD DUP1 SLOAD PUSH1 0x1 DUP2 ADD DUP3 SSTORE SWAP1 DUP5 MSTORE SWAP3 DUP3 SWAP1 KECCAK256 DUP2 MLOAD DUP1 DUP4 ADD SWAP1 SWAP3 MSTORE PUSH1 0x15 DUP3 MSTORE PUSH21 0x2430B93B32B9BA32B210313C90283937B23AB1B2B9 PUSH1 0x59 SHL SWAP3 DUP3 ADD SWAP3 SWAP1 SWAP3 MSTORE SWAP2 ADD SWAP1 PUSH2 0x29DE SWAP1 DUP3 PUSH2 0x3F91 JUMP JUMPDEST POP PUSH1 0x7 SLOAD PUSH1 0x40 DUP1 MLOAD SWAP2 DUP3 MSTORE PUSH1 0x80 PUSH1 0x20 DUP4 ADD DUP2 SWAP1 MSTORE PUSH1 0x9 SWAP1 DUP4 ADD MSTORE PUSH9 0x12185C9D995CDD1959 PUSH1 0xBA SHL PUSH1 0xA0 DUP4 ADD MSTORE CALLER SWAP1 DUP3 ADD MSTORE TIMESTAMP PUSH1 0x60 DUP3 ADD MSTORE PUSH32 0x28222DBD9906BC73E71CBD7BD296A46D23DE9224D425C30BE175AF99B4AB7741 SWAP1 PUSH1 0xC0 ADD PUSH2 0x12F3 JUMP JUMPDEST PUSH1 0x0 SLOAD PUSH1 0x1 PUSH1 0x1 PUSH1 0xA0 SHL SUB AND CALLER EQ PUSH2 0x2A56 JUMPI PUSH1 0x0 DUP1 REVERT JUMPDEST PUSH1 0x1 PUSH1 0x1 PUSH1 0xA0 SHL SUB AND PUSH1 0x0 SWAP1 DUP2 MSTORE PUSH1 0x1 PUSH1 0x20 MSTORE PUSH1 0x40 SWAP1 KECCAK256 DUP1 SLOAD PUSH1 0xFF NOT AND SWAP1 SSTORE JUMP JUMPDEST DUP1 MLOAD PUSH1 0x20 DUP2 DUP4 ADD DUP2 ADD DUP1 MLOAD PUSH1 0x3 DUP3 MSTORE SWAP3 DUP3 ADD SWAP2 SWAP1 SWAP4 ADD KECCAK256 SWAP2 MSTORE DUP1 SLOAD DUP2 SWAP1 PUSH2 0x2A9D SWAP1 PUSH2 0x3EEC JUMP JUMPDEST DUP1 PUSH1 0x1F ADD PUSH1 0x20 DUP1 SWAP2 DIV MUL PUSH1 0x20 ADD PUSH1 0x40 MLOAD SWAP1 DUP2 ADD PUSH1 0x40 MSTORE DUP1 SWAP3 SWAP2 SWAP1 DUP2 DUP2 MSTORE PUSH1 0x20 ADD DUP3 DUP1 SLOAD PUSH2 0x2AC9 SWAP1 PUSH2 0x3EEC JUMP JUMPDEST DUP1 ISZERO PUSH2 0x2B16 JUMPI DUP1 PUSH1 0x1F LT PUSH2 0x2AEB JUMPI PUSH2 0x100 DUP1 DUP4 SLOAD DIV MUL DUP4 MSTORE SWAP2 PUSH1 0x20 ADD SWAP2 PUSH2 0x2B16 JUMP JUMPDEST DUP3 ADD SWAP2 SWAP1 PUSH1 0x0 MSTORE PUSH1 0x20 PUSH1 0x0 KECCAK256 SWAP1 JUMPDEST DUP2 SLOAD DUP2 MSTORE SWAP1 PUSH1 0x1 ADD SWAP1 PUSH1 0x20 ADD DUP1 DUP4 GT PUSH2 0x2AF9 JUMPI DUP3 SWAP1 SUB PUSH1 0x1F AND DUP3 ADD SWAP2 JUMPDEST POP POP POP POP POP SWAP1 DUP1 PUSH1 0x1 ADD DUP1 SLOAD PUSH2 0x2B2B SWAP1 PUSH2 0x3EEC JUMP JUMPDEST DUP1 PUSH1 0x1F ADD PUSH1 0x20 DUP1 SWAP2 DIV MUL PUSH1 0x20 ADD PUSH1 0x40 MLOAD SWAP1 DUP2 ADD PUSH1 0x40 MSTORE DUP1 SWAP3 SWAP2 SWAP1 DUP2 DUP2 MSTORE PUSH1 0x20 ADD DUP3 DUP1 SLOAD PUSH2 0x2B57 SWAP1 PUSH2 0x3EEC JUMP JUMPDEST DUP1 ISZERO PUSH2 0x2BA4 JUMPI DUP1 PUSH1 0x1F LT PUSH2 0x2B79 JUMPI PUSH2 0x100 DUP1 DUP4 SLOAD DIV MUL DUP4 MSTORE SWAP2 PUSH1 0x20 ADD SWAP2 PUSH2 0x2BA4 JUMP JUMPDEST DUP3 ADD SWAP2 SWAP1 PUSH1 0x0 MSTORE PUSH1 0x20 PUSH1 0x0 KECCAK256 SWAP1 JUMPDEST DUP2 SLOAD DUP2 MSTORE SWAP1 PUSH1 0x1 ADD SWAP1 PUSH1 0x20 ADD DUP1 DUP4 GT PUSH2 0x2B87 JUMPI DUP3 SWAP1 SUB PUSH1 0x1F AND DUP3 ADD SWAP2 JUMPDEST POP POP POP POP POP SWAP1 DUP1 PUSH1 0x2 ADD DUP1 SLOAD PUSH2 0x2BB9 SWAP1 PUSH2 0x3EEC JUMP JUMPDEST DUP1 PUSH1 0x1F ADD PUSH1 0x20 DUP1 SWAP2 DIV MUL PUSH1 0x20 ADD PUSH1 0x40 MLOAD SWAP1 DUP2 ADD PUSH1 0x40 MSTORE DUP1 SWAP3 SWAP2 SWAP1 DUP2 DUP2 MSTORE PUSH1 0x20 ADD DUP3 DUP1 SLOAD PUSH2 0x2BE5 SWAP1 PUSH2 0x3EEC JUMP JUMPDEST DUP1 ISZERO PUSH2 0x2C32 JUMPI DUP1 PUSH1 0x1F LT PUSH2 0x2C07 JUMPI PUSH2 0x100 DUP1 DUP4 SLOAD DIV MUL DUP4 MSTORE SWAP2 PUSH1 0x20 ADD SWAP2 PUSH2 0x2C32 JUMP JUMPDEST DUP3 ADD SWAP2 SWAP1 PUSH1 0x0 MSTORE PUSH1 0x20 PUSH1 0x0 KECCAK256 SWAP1 JUMPDEST DUP2 SLOAD DUP2 MSTORE SWAP1 PUSH1 0x1 ADD SWAP1 PUSH1 0x20 ADD DUP1 DUP4 GT PUSH2 0x2C15 JUMPI DUP3 SWAP1 SUB PUSH1 0x1F AND DUP3 ADD SWAP2 JUMPDEST POP POP POP POP POP SWAP1 DUP1 PUSH1 0x3 ADD SLOAD SWAP1 DUP1 PUSH1 0x4 ADD DUP1 SLOAD PUSH2 0x2C4D SWAP1 PUSH2 0x3EEC JUMP JUMPDEST DUP1 PUSH1 0x1F ADD PUSH1 0x20 DUP1 SWAP2 DIV MUL PUSH1 0x20 ADD PUSH1 0x40 MLOAD SWAP1 DUP2 ADD PUSH1 0x40 MSTORE DUP1 SWAP3 SWAP2 SWAP1 DUP2 DUP2 MSTORE PUSH1 0x20 ADD DUP3 DUP1 SLOAD PUSH2 0x2C79 SWAP1 PUSH2 0x3EEC JUMP JUMPDEST DUP1 ISZERO PUSH2 0x2CC6 JUMPI DUP1 PUSH1 0x1F LT PUSH2 0x2C9B JUMPI PUSH2 0x100 DUP1 DUP4 SLOAD DIV MUL DUP4 MSTORE SWAP2 PUSH1 0x20 ADD SWAP2 PUSH2 0x2CC6 JUMP JUMPDEST DUP3 ADD SWAP2 SWAP1 PUSH1 0x0 MSTORE PUSH1 0x20 PUSH1 0x0 KECCAK256 SWAP1 JUMPDEST DUP2 SLOAD DUP2 MSTORE SWAP1 PUSH1 0x1 ADD SWAP1 PUSH1 0x20 ADD DUP1 DUP4 GT PUSH2 0x2CA9 JUMPI DUP3 SWAP1 SUB PUSH1 0x1F AND DUP3 ADD SWAP2 JUMPDEST POP POP POP PUSH1 0x5 SWAP1 SWAP4 ADD SLOAD SWAP2 SWAP3 POP POP PUSH1 0x1 PUSH1 0x1 PUSH1 0xA0 SHL SUB AND DUP7 JUMP JUMPDEST PUSH1 0x0 DUP3 GT DUP1 ISZERO PUSH2 0x2CF1 JUMPI POP PUSH1 0x7 SLOAD DUP3 GT ISZERO JUMPDEST PUSH2 0x2CFA JUMPI PUSH1 0x0 DUP1 REVERT JUMPDEST PUSH1 0x0 DUP3 DUP2 MSTORE PUSH1 0x4 PUSH1 0x20 SWAP1 DUP2 MSTORE PUSH1 0x40 DUP3 KECCAK256 PUSH1 0x6 ADD DUP1 SLOAD PUSH1 0x1 DUP2 ADD DUP3 SSTORE SWAP1 DUP4 MSTORE SWAP2 KECCAK256 ADD PUSH2 0x2D25 DUP3 DUP3 PUSH2 0x3F91 JUMP JUMPDEST POP PUSH32 0x28222DBD9906BC73E71CBD7BD296A46D23DE9224D425C30BE175AF99B4AB7741 DUP3 DUP3 CALLER TIMESTAMP PUSH1 0x40 MLOAD PUSH2 0xD3D SWAP5 SWAP4 SWAP3 SWAP2 SWAP1 PUSH2 0x423E JUMP JUMPDEST PUSH1 0x4 PUSH1 0x20 MSTORE PUSH1 0x0 SWAP1 DUP2 MSTORE PUSH1 0x40 SWAP1 KECCAK256 DUP1 SLOAD DUP2 SWAP1 PUSH2 0x2D76 SWAP1 PUSH2 0x3EEC JUMP JUMPDEST DUP1 PUSH1 0x1F ADD PUSH1 0x20 DUP1 SWAP2 DIV MUL PUSH1 0x20 ADD PUSH1 0x40 MLOAD SWAP1 DUP2 ADD PUSH1 0x40 MSTORE DUP1 SWAP3 SWAP2 SWAP1 DUP2 DUP2 MSTORE PUSH1 0x20 ADD DUP3 DUP1 SLOAD PUSH2 0x2DA2 SWAP1 PUSH2 0x3EEC JUMP JUMPDEST DUP1 ISZERO PUSH2 0x2DEF JUMPI DUP1 PUSH1 0x1F LT PUSH2 0x2DC4 JUMPI PUSH2 0x100 DUP1 DUP4 SLOAD DIV MUL DUP4 MSTORE SWAP2 PUSH1 0x20 ADD SWAP2 PUSH2 0x2DEF JUMP JUMPDEST DUP3 ADD SWAP2 SWAP1 PUSH1 0x0 MSTORE PUSH1 0x20 PUSH1 0x0 KECCAK256 SWAP1 JUMPDEST DUP2 SLOAD DUP2 MSTORE SWAP1 PUSH1 0x1 ADD SWAP1 PUSH1 0x20 ADD DUP1 DUP4 GT PUSH2 0x2DD2 JUMPI DUP3 SWAP1 SUB PUSH1 0x1F AND DUP3 ADD SWAP2 JUMPDEST POP POP POP POP POP SWAP1 DUP1 PUSH1 0x1 ADD DUP1 SLOAD PUSH2 0x2E04 SWAP1 PUSH2 0x3EEC JUMP JUMPDEST DUP1 PUSH1 0x1F ADD PUSH1 0x20 DUP1 SWAP2 DIV MUL PUSH1 0x20 ADD PUSH1 0x40 MLOAD SWAP1 DUP2 ADD PUSH1 0x40 MSTORE DUP1 SWAP3 SWAP2 SWAP1 DUP2 DUP2 MSTORE PUSH1 0x20 ADD DUP3 DUP1 SLOAD PUSH2 0x2E30 SWAP1 PUSH2 0x3EEC JUMP JUMPDEST DUP1 ISZERO PUSH2 0x2E7D JUMPI DUP1 PUSH1 0x1F LT PUSH2 0x2E52 JUMPI PUSH2 0x100 DUP1 DUP4 SLOAD DIV MUL DUP4 MSTORE SWAP2 PUSH1 0x20 ADD SWAP2 PUSH2 0x2E7D JUMP JUMPDEST DUP3 ADD SWAP2 SWAP1 PUSH1 0x0 MSTORE PUSH1 0x20 PUSH1 0x0 KECCAK256 SWAP1 JUMPDEST DUP2 SLOAD DUP2 MSTORE SWAP1 PUSH1 0x1 ADD SWAP1 PUSH1 0x20 ADD DUP1 DUP4 GT PUSH2 0x2E60 JUMPI DUP3 SWAP1 SUB PUSH1 0x1F AND DUP3 ADD SWAP2 JUMPDEST POP POP POP POP PUSH1 0x2 DUP4 ADD SLOAD PUSH1 0x3 DUP5 ADD SLOAD PUSH1 0x4 DUP6 ADD DUP1 SLOAD SWAP5 SWAP6 PUSH1 0x1 PUSH1 0x1 PUSH1 0xA0 SHL SUB SWAP1 SWAP4 AND SWAP5 SWAP2 SWAP4 POP SWAP1 PUSH2 0x2EAC SWAP1 PUSH2 0x3EEC JUMP JUMPDEST DUP1 PUSH1 0x1F ADD PUSH1 0x20 DUP1 SWAP2 DIV MUL PUSH1 0x20 ADD PUSH1 0x40 MLOAD SWAP1 DUP2 ADD PUSH1 0x40 MSTORE DUP1 SWAP3 SWAP2 SWAP1 DUP2 DUP2 MSTORE PUSH1 0x20 ADD DUP3 DUP1 SLOAD PUSH2 0x2ED8 SWAP1 PUSH2 0x3EEC JUMP JUMPDEST DUP1 ISZERO PUSH2 0x2F25 JUMPI DUP1 PUSH1 0x1F LT PUSH2 0x2EFA JUMPI PUSH2 0x100 DUP1 DUP4 SLOAD DIV MUL DUP4 MSTORE SWAP2 PUSH1 0x20 ADD SWAP2 PUSH2 0x2F25 JUMP JUMPDEST DUP3 ADD SWAP2 SWAP1 PUSH1 0x0 MSTORE PUSH1 0x20 PUSH1 0x0 KECCAK256 SWAP1 JUMPDEST DUP2 SLOAD DUP2 MSTORE SWAP1 PUSH1 0x1 ADD SWAP1 PUSH1 0x20 ADD DUP1 DUP4 GT PUSH2 0x2F08 JUMPI DUP3 SWAP1 SUB PUSH1 0x1F AND DUP3 ADD SWAP2 JUMPDEST POP POP POP POP POP SWAP1 DUP1 PUSH1 0x5 ADD SLOAD SWAP1 POP DUP7 JUMP JUMPDEST DUP1 MLOAD PUSH1 0x20 DUP2 DUP4 ADD DUP2 ADD DUP1 MLOAD PUSH1 0x2 DUP3 MSTORE SWAP3 DUP3 ADD SWAP2 SWAP1 SWAP4 ADD KECCAK256 SWAP2 MSTORE DUP1 SLOAD DUP2 SWAP1 PUSH2 0x2F5B SWAP1 PUSH2 0x3EEC JUMP JUMPDEST DUP1 PUSH1 0x1F ADD PUSH1 0x20 DUP1 SWAP2 DIV MUL PUSH1 0x20 ADD PUSH1 0x40 MLOAD SWAP1 DUP2 ADD PUSH1 0x40 MSTORE DUP1 SWAP3 SWAP2 SWAP1 DUP2 DUP2 MSTORE PUSH1 0x20 ADD DUP3 DUP1 SLOAD PUSH2 0x2F87 SWAP1 PUSH2 0x3EEC JUMP JUMPDEST DUP1 ISZERO PUSH2 0x2FD4 JUMPI DUP1 PUSH1 0x1F LT PUSH2 0x2FA9 JUMPI PUSH2 0x100 DUP1 DUP4 SLOAD DIV MUL DUP4 MSTORE SWAP2 PUSH1 0x20 ADD SWAP2 PUSH2 0x2FD4 JUMP JUMPDEST DUP3 ADD SWAP2 SWAP1 PUSH1 0x0 MSTORE PUSH1 0x20 PUSH1 0x0 KECCAK256 SWAP1 JUMPDEST DUP2 SLOAD DUP2 MSTORE SWAP1 PUSH1 0x1 ADD SWAP1 PUSH1 0x20 ADD DUP1 DUP4 GT PUSH2 0x2FB7 JUMPI DUP3 SWAP1 SUB PUSH1 0x1F AND DUP3 ADD SWAP2 JUMPDEST POP POP POP POP POP SWAP1 DUP1 PUSH1 0x1 ADD DUP1 SLOAD PUSH2 0x2FE9 SWAP1 PUSH2 0x3EEC JUMP JUMPDEST DUP1 PUSH1 0x1F ADD PUSH1 0x20 DUP1 SWAP2 DIV MUL PUSH1 0x20 ADD PUSH1 0x40 MLOAD SWAP1 DUP2 ADD PUSH1 0x40 MSTORE DUP1 SWAP3 SWAP2 SWAP1 DUP2 DUP2 MSTORE PUSH1 0x20 ADD DUP3 DUP1 SLOAD PUSH2 0x3015 SWAP1 PUSH2 0x3EEC JUMP JUMPDEST DUP1 ISZERO PUSH2 0x3062 JUMPI DUP1 PUSH1 0x1F LT PUSH2 0x3037 JUMPI PUSH2 0x100 DUP1 DUP4 SLOAD DIV MUL DUP4 MSTORE SWAP2 PUSH1 0x20 ADD SWAP2 PUSH2 0x3062 JUMP JUMPDEST DUP3 ADD SWAP2 SWAP1 PUSH1 0x0 MSTORE PUSH1 0x20 PUSH1 0x0 KECCAK256 SWAP1 JUMPDEST DUP2 SLOAD DUP2 MSTORE SWAP1 PUSH1 0x1 ADD SWAP1 PUSH1 0x20 ADD DUP1 DUP4 GT PUSH2 0x3045 JUMPI DUP3 SWAP1 SUB PUSH1 0x1F AND DUP3 ADD SWAP2 JUMPDEST POP POP POP POP POP SWAP1 DUP1 PUSH1 0x2 ADD DUP1 SLOAD PUSH2 0x3077 SWAP1 PUSH2 0x3EEC JUMP JUMPDEST DUP1 PUSH1 0x1F ADD PUSH1 0x20 DUP1 SWAP2 DIV MUL PUSH1 0x20 ADD PUSH1 0x40 MLOAD SWAP1 DUP2 ADD PUSH1 0x40 MSTORE DUP1 SWAP3 SWAP2 SWAP1 DUP2 DUP2 MSTORE PUSH1 0x20 ADD DUP3 DUP1 SLOAD PUSH2 0x30A3 SWAP1 PUSH2 0x3EEC JUMP JUMPDEST DUP1 ISZERO PUSH2 0x30F0 JUMPI DUP1 PUSH1 0x1F LT PUSH2 0x30C5 JUMPI PUSH2 0x100 DUP1 DUP4 SLOAD DIV MUL DUP4 MSTORE SWAP2 PUSH1 0x20 ADD SWAP2 PUSH2 0x30F0 JUMP JUMPDEST DUP3 ADD SWAP2 SWAP1 PUSH1 0x0 MSTORE PUSH1 0x20 PUSH1 0x0 KECCAK256 SWAP1 JUMPDEST DUP2 SLOAD DUP2 MSTORE SWAP1 PUSH1 0x1 ADD SWAP1 PUSH1 0x20 ADD DUP1 DUP4 GT PUSH2 0x30D3 JUMPI DUP3 SWAP1 SUB PUSH1 0x1F AND DUP3 ADD SWAP2 JUMPDEST POP POP POP POP POP SWAP1 DUP1 PUSH1 0x3 ADD DUP1 SLOAD PUSH2 0x3105 SWAP1 PUSH2 0x3EEC JUMP JUMPDEST DUP1 PUSH1 0x1F ADD PUSH1 0x20 DUP1 SWAP2 DIV MUL PUSH1 0x20 ADD PUSH1 0x40 MLOAD SWAP1 DUP2 ADD PUSH1 0x40 MSTORE DUP1 SWAP3 SWAP2 SWAP1 DUP2 DUP2 MSTORE PUSH1 0x20 ADD DUP3 DUP1 SLOAD PUSH2 0x3131 SWAP1 PUSH2 0x3EEC JUMP JUMPDEST DUP1 ISZERO PUSH2 0x317E JUMPI DUP1 PUSH1 0x1F LT PUSH2 0x3153 JUMPI PUSH2 0x100 DUP1 DUP4 SLOAD DIV MUL DUP4 MSTORE SWAP2 PUSH1 0x20 ADD SWAP2 PUSH2 0x317E JUMP JUMPDEST DUP3 ADD SWAP2 SWAP1 PUSH1 0x0 MSTORE PUSH1 0x20 PUSH1 0x0 KECCAK256 SWAP1 JUMPDEST DUP2 SLOAD DUP2 MSTORE SWAP1 PUSH1 0x1 ADD SWAP1 PUSH1 0x20 ADD DUP1 DUP4 GT PUSH2 0x3161 JUMPI DUP3 SWAP1 SUB PUSH1 0x1F AND DUP3 ADD SWAP2 JUMPDEST POP POP POP POP POP SWAP1 DUP1 PUSH1 0x4 ADD DUP1 SLOAD PUSH2 0x3193 SWAP1 PUSH2 0x3EEC JUMP JUMPDEST DUP1 PUSH1 0x1F ADD PUSH1 0x20 DUP1 SWAP2 DIV MUL PUSH1 0x20 ADD PUSH1 0x40 MLOAD SWAP1 DUP2 ADD PUSH1 0x40 MSTORE DUP1 SWAP3 SWAP2 SWAP1 DUP2 DUP2 MSTORE PUSH1 0x20 ADD DUP3 DUP1 SLOAD PUSH2 0x31BF SWAP1 PUSH2 0x3EEC JUMP JUMPDEST DUP1 ISZERO PUSH2 0x320C JUMPI DUP1 PUSH1 0x1F LT PUSH2 0x31E1 JUMPI PUSH2 0x100 DUP1 DUP4 SLOAD DIV MUL DUP4 MSTORE SWAP2 PUSH1 0x20 ADD SWAP2 PUSH2 0x320C JUMP JUMPDEST DUP3 ADD SWAP2 SWAP1 PUSH1 0x0 MSTORE PUSH1 0x20 PUSH1 0x0 KECCAK256 SWAP1 JUMPDEST DUP2 SLOAD DUP2 MSTORE SWAP1 PUSH1 0x1 ADD SWAP1 PUSH1 0x20 ADD DUP1 DUP4 GT PUSH2 0x31EF JUMPI DUP3 SWAP1 SUB PUSH1 0x1F AND DUP3 ADD SWAP2 JUMPDEST POP POP POP POP POP SWAP1 POP DUP6 JUMP JUMPDEST DUP1 MLOAD PUSH1 0x20 DUP2 DUP4 ADD DUP2 ADD DUP1 MLOAD PUSH1 0xD DUP3 MSTORE SWAP3 DUP3 ADD SWAP2 SWAP1 SWAP4 ADD KECCAK256 SWAP2 MSTORE DUP1 SLOAD PUSH2 0x970 SWAP1 PUSH2 0x3EEC JUMP JUMPDEST PUSH1 0x60 PUSH1 0xA DUP1 SLOAD DUP1 PUSH1 0x20 MUL PUSH1 0x20 ADD PUSH1 0x40 MLOAD SWAP1 DUP2 ADD PUSH1 0x40 MSTORE DUP1 SWAP3 SWAP2 SWAP1 DUP2 DUP2 MSTORE PUSH1 0x20 ADD PUSH1 0x0 SWAP1 JUMPDEST DUP3 DUP3 LT ISZERO PUSH2 0x858 JUMPI DUP4 DUP3 SWAP1 PUSH1 0x0 MSTORE PUSH1 0x20 PUSH1 0x0 KECCAK256 ADD DUP1 SLOAD PUSH2 0x327D SWAP1 PUSH2 0x3EEC JUMP JUMPDEST DUP1 PUSH1 0x1F ADD PUSH1 0x20 DUP1 SWAP2 DIV MUL PUSH1 0x20 ADD PUSH1 0x40 MLOAD SWAP1 DUP2 ADD PUSH1 0x40 MSTORE DUP1 SWAP3 SWAP2 SWAP1 DUP2 DUP2 MSTORE PUSH1 0x20 ADD DUP3 DUP1 SLOAD PUSH2 0x32A9 SWAP1 PUSH2 0x3EEC JUMP JUMPDEST DUP1 ISZERO PUSH2 0x32F6 JUMPI DUP1 PUSH1 0x1F LT PUSH2 0x32CB JUMPI PUSH2 0x100 DUP1 DUP4 SLOAD DIV MUL DUP4 MSTORE SWAP2 PUSH1 0x20 ADD SWAP2 PUSH2 0x32F6 JUMP JUMPDEST DUP3 ADD SWAP2 SWAP1 PUSH1 0x0 MSTORE PUSH1 0x20 PUSH1 0x0 KECCAK256 SWAP1 JUMPDEST DUP2 SLOAD DUP2 MSTORE SWAP1 PUSH1 0x1 ADD SWAP1 PUSH1 0x20 ADD DUP1 DUP4 GT PUSH2 0x32D9 JUMPI DUP3 SWAP1 SUB PUSH1 0x1F AND DUP3 ADD SWAP2 JUMPDEST POP POP POP POP POP DUP2 MSTORE PUSH1 0x20 ADD SWAP1 PUSH1 0x1 ADD SWAP1 PUSH2 0x325E JUMP JUMPDEST PUSH1 0x60 DUP2 PUSH1 0x0 SUB PUSH2 0x3331 JUMPI POP POP PUSH1 0x40 DUP1 MLOAD DUP1 DUP3 ADD SWAP1 SWAP2 MSTORE PUSH1 0x1 DUP2 MSTORE PUSH1 0x3 PUSH1 0xFC SHL PUSH1 0x20 DUP3 ADD MSTORE SWAP1 JUMP JUMPDEST DUP2 PUSH1 0x0 JUMPDEST DUP2 ISZERO PUSH2 0x335B JUMPI DUP1 PUSH2 0x3345 DUP2 PUSH2 0x414F JUMP JUMPDEST SWAP2 POP PUSH2 0x3354 SWAP1 POP PUSH1 0xA DUP4 PUSH2 0x41C5 JUMP JUMPDEST SWAP2 POP PUSH2 0x3335 JUMP JUMPDEST PUSH1 0x0 DUP2 PUSH1 0x1 PUSH1 0x1 PUSH1 0x40 SHL SUB DUP2 GT ISZERO PUSH2 0x3375 JUMPI PUSH2 0x3375 PUSH2 0x3679 JUMP JUMPDEST PUSH1 0x40 MLOAD SWAP1 DUP1 DUP3 MSTORE DUP1 PUSH1 0x1F ADD PUSH1 0x1F NOT AND PUSH1 0x20 ADD DUP3 ADD PUSH1 0x40 MSTORE DUP1 ISZERO PUSH2 0x339F JUMPI PUSH1 0x20 DUP3 ADD DUP2 DUP1 CALLDATASIZE DUP4 CALLDATACOPY ADD SWAP1 POP JUMPDEST POP SWAP1 POP DUP2 JUMPDEST DUP6 ISZERO PUSH2 0x3411 JUMPI PUSH2 0x33B5 PUSH1 0x1 DUP3 PUSH2 0x4168 JUMP JUMPDEST SWAP1 POP PUSH1 0x0 PUSH2 0x33C4 PUSH1 0xA DUP9 PUSH2 0x4273 JUMP JUMPDEST PUSH2 0x33CF SWAP1 PUSH1 0x30 PUSH2 0x4287 JUMP JUMPDEST SWAP1 POP DUP1 PUSH1 0xF8 SHL DUP4 DUP4 DUP2 MLOAD DUP2 LT PUSH2 0x33E7 JUMPI PUSH2 0x33E7 PUSH2 0x404F JUMP JUMPDEST PUSH1 0x20 ADD ADD SWAP1 PUSH1 0x1 PUSH1 0x1 PUSH1 0xF8 SHL SUB NOT AND SWAP1 DUP2 PUSH1 0x0 BYTE SWAP1 MSTORE8 POP PUSH2 0x3409 PUSH1 0xA DUP9 PUSH2 0x41C5 JUMP JUMPDEST SWAP7 POP POP PUSH2 0x33A4 JUMP JUMPDEST POP SWAP5 SWAP4 POP POP POP POP JUMP JUMPDEST DUP3 DUP1 SLOAD DUP3 DUP3 SSTORE SWAP1 PUSH1 0x0 MSTORE PUSH1 0x20 PUSH1 0x0 KECCAK256 SWAP1 DUP2 ADD SWAP3 DUP3 ISZERO PUSH2 0x3455 JUMPI SWAP2 PUSH1 0x20 MUL DUP3 ADD JUMPDEST DUP3 DUP2 GT ISZERO PUSH2 0x3455 JUMPI DUP3 MLOAD DUP3 SSTORE SWAP2 PUSH1 0x20 ADD SWAP2 SWAP1 PUSH1 0x1 ADD SWAP1 PUSH2 0x343A JUMP JUMPDEST POP PUSH2 0x3461 SWAP3 SWAP2 POP PUSH2 0x34B7 JUMP JUMPDEST POP SWAP1 JUMP JUMPDEST DUP3 DUP1 SLOAD DUP3 DUP3 SSTORE SWAP1 PUSH1 0x0 MSTORE PUSH1 0x20 PUSH1 0x0 KECCAK256 SWAP1 DUP2 ADD SWAP3 DUP3 ISZERO PUSH2 0x34AB JUMPI SWAP2 PUSH1 0x20 MUL DUP3 ADD JUMPDEST DUP3 DUP2 GT ISZERO PUSH2 0x34AB JUMPI DUP3 MLOAD DUP3 SWAP1 PUSH2 0x349B SWAP1 DUP3 PUSH2 0x3F91 JUMP JUMPDEST POP SWAP2 PUSH1 0x20 ADD SWAP2 SWAP1 PUSH1 0x1 ADD SWAP1 PUSH2 0x3485 JUMP JUMPDEST POP PUSH2 0x3461 SWAP3 SWAP2 POP PUSH2 0x34CC JUMP JUMPDEST JUMPDEST DUP1 DUP3 GT ISZERO PUSH2 0x3461 JUMPI PUSH1 0x0 DUP2 SSTORE PUSH1 0x1 ADD PUSH2 0x34B8 JUMP JUMPDEST DUP1 DUP3 GT ISZERO PUSH2 0x3461 JUMPI PUSH1 0x0 PUSH2 0x34E0 DUP3 DUP3 PUSH2 0x34E9 JUMP JUMPDEST POP PUSH1 0x1 ADD PUSH2 0x34CC JUMP JUMPDEST POP DUP1 SLOAD PUSH2 0x34F5 SWAP1 PUSH2 0x3EEC JUMP JUMPDEST PUSH1 0x0 DUP3 SSTORE DUP1 PUSH1 0x1F LT PUSH2 0x3505 JUMPI POP POP JUMP JUMPDEST PUSH1 0x1F ADD PUSH1 0x20 SWAP1 DIV SWAP1 PUSH1 0x0 MSTORE PUSH1 0x20 PUSH1 0x0 KECCAK256 SWAP1 DUP2 ADD SWAP1 PUSH2 0x3523 SWAP2 SWAP1 PUSH2 0x34B7 JUMP JUMPDEST POP JUMP JUMPDEST PUSH1 0x0 JUMPDEST DUP4 DUP2 LT ISZERO PUSH2 0x3541 JUMPI DUP2 DUP2 ADD MLOAD DUP4 DUP3 ADD MSTORE PUSH1 0x20 ADD PUSH2 0x3529 JUMP JUMPDEST POP POP PUSH1 0x0 SWAP2 ADD MSTORE JUMP JUMPDEST PUSH1 0x0 DUP2 MLOAD DUP1 DUP5 MSTORE PUSH2 0x3562 DUP2 PUSH1 0x20 DUP7 ADD PUSH1 0x20 DUP7 ADD PUSH2 0x3526 JUMP JUMPDEST PUSH1 0x1F ADD PUSH1 0x1F NOT AND SWAP3 SWAP1 SWAP3 ADD PUSH1 0x20 ADD SWAP3 SWAP2 POP POP JUMP JUMPDEST PUSH1 0x0 DUP3 DUP3 MLOAD DUP1 DUP6 MSTORE PUSH1 0x20 DUP6 ADD SWAP5 POP PUSH1 0x20 DUP2 PUSH1 0x5 SHL DUP4 ADD ADD PUSH1 0x20 DUP6 ADD PUSH1 0x0 JUMPDEST DUP4 DUP2 LT ISZERO PUSH2 0x35C6 JUMPI PUSH1 0x1F NOT DUP6 DUP5 SUB ADD DUP9 MSTORE PUSH2 0x35B0 DUP4 DUP4 MLOAD PUSH2 0x354A JUMP JUMPDEST PUSH1 0x20 SWAP9 DUP10 ADD SWAP9 SWAP1 SWAP4 POP SWAP2 SWAP1 SWAP2 ADD SWAP1 PUSH1 0x1 ADD PUSH2 0x3594 JUMP JUMPDEST POP SWAP1 SWAP7 SWAP6 POP POP POP POP POP POP JUMP JUMPDEST PUSH1 0x20 DUP2 MSTORE PUSH1 0x0 PUSH2 0x35E5 PUSH1 0x20 DUP4 ADD DUP5 PUSH2 0x3576 JUMP JUMPDEST SWAP4 SWAP3 POP POP POP JUMP JUMPDEST DUP1 CALLDATALOAD PUSH1 0x1 PUSH1 0x1 PUSH1 0xA0 SHL SUB DUP2 AND DUP2 EQ PUSH2 0x3603 JUMPI PUSH1 0x0 DUP1 REVERT JUMPDEST SWAP2 SWAP1 POP JUMP JUMPDEST PUSH1 0x0 DUP1 PUSH1 0x40 DUP4 DUP6 SUB SLT ISZERO PUSH2 0x361B JUMPI PUSH1 0x0 DUP1 REVERT JUMPDEST PUSH2 0x3624 DUP4 PUSH2 0x35EC JUMP JUMPDEST SWAP5 PUSH1 0x20 SWAP4 SWAP1 SWAP4 ADD CALLDATALOAD SWAP4 POP POP POP JUMP JUMPDEST PUSH1 0x0 PUSH1 0x20 DUP3 DUP5 SUB SLT ISZERO PUSH2 0x3644 JUMPI PUSH1 0x0 DUP1 REVERT JUMPDEST PUSH2 0x35E5 DUP3 PUSH2 0x35EC JUMP JUMPDEST PUSH1 0x0 PUSH1 0x20 DUP3 DUP5 SUB SLT ISZERO PUSH2 0x365F JUMPI PUSH1 0x0 DUP1 REVERT JUMPDEST POP CALLDATALOAD SWAP2 SWAP1 POP JUMP JUMPDEST PUSH1 0x20 DUP2 MSTORE PUSH1 0x0 PUSH2 0x35E5 PUSH1 0x20 DUP4 ADD DUP5 PUSH2 0x354A JUMP JUMPDEST PUSH4 0x4E487B71 PUSH1 0xE0 SHL PUSH1 0x0 MSTORE PUSH1 0x41 PUSH1 0x4 MSTORE PUSH1 0x24 PUSH1 0x0 REVERT JUMPDEST PUSH1 0x40 MLOAD PUSH1 0x1F DUP3 ADD PUSH1 0x1F NOT AND DUP2 ADD PUSH1 0x1 PUSH1 0x1 PUSH1 0x40 SHL SUB DUP2 GT DUP3 DUP3 LT OR ISZERO PUSH2 0x36B7 JUMPI PUSH2 0x36B7 PUSH2 0x3679 JUMP JUMPDEST PUSH1 0x40 MSTORE SWAP2 SWAP1 POP JUMP JUMPDEST PUSH1 0x0 DUP3 PUSH1 0x1F DUP4 ADD SLT PUSH2 0x36D0 JUMPI PUSH1 0x0 DUP1 REVERT JUMPDEST DUP2 CALLDATALOAD PUSH1 0x1 PUSH1 0x1 PUSH1 0x40 SHL SUB DUP2 GT ISZERO PUSH2 0x36E9 JUMPI PUSH2 0x36E9 PUSH2 0x3679 JUMP JUMPDEST PUSH2 0x36FC PUSH1 0x1F DUP3 ADD PUSH1 0x1F NOT AND PUSH1 0x20 ADD PUSH2 0x368F JUMP JUMPDEST DUP2 DUP2 MSTORE DUP5 PUSH1 0x20 DUP4 DUP7 ADD ADD GT ISZERO PUSH2 0x3711 JUMPI PUSH1 0x0 DUP1 REVERT JUMPDEST DUP2 PUSH1 0x20 DUP6 ADD PUSH1 0x20 DUP4 ADD CALLDATACOPY PUSH1 0x0 SWAP2 DUP2 ADD PUSH1 0x20 ADD SWAP2 SWAP1 SWAP2 MSTORE SWAP4 SWAP3 POP POP POP JUMP JUMPDEST PUSH1 0x0 PUSH1 0x20 DUP3 DUP5 SUB SLT ISZERO PUSH2 0x3740 JUMPI PUSH1 0x0 DUP1 REVERT JUMPDEST DUP2 CALLDATALOAD PUSH1 0x1 PUSH1 0x1 PUSH1 0x40 SHL SUB DUP2 GT ISZERO PUSH2 0x3756 JUMPI PUSH1 0x0 DUP1 REVERT JUMPDEST PUSH2 0x3762 DUP5 DUP3 DUP6 ADD PUSH2 0x36BF JUMP JUMPDEST SWAP5 SWAP4 POP POP POP POP JUMP JUMPDEST PUSH1 0x0 DUP1 PUSH1 0x0 DUP1 PUSH1 0x0 PUSH1 0xA0 DUP7 DUP9 SUB SLT ISZERO PUSH2 0x3782 JUMPI PUSH1 0x0 DUP1 REVERT JUMPDEST DUP6 CALLDATALOAD PUSH1 0x1 PUSH1 0x1 PUSH1 0x40 SHL SUB DUP2 GT ISZERO PUSH2 0x3798 JUMPI PUSH1 0x0 DUP1 REVERT JUMPDEST PUSH2 0x37A4 DUP9 DUP3 DUP10 ADD PUSH2 0x36BF JUMP JUMPDEST SWAP6 POP POP PUSH1 0x20 DUP7 ADD CALLDATALOAD PUSH1 0x1 PUSH1 0x1 PUSH1 0x40 SHL SUB DUP2 GT ISZERO PUSH2 0x37C0 JUMPI PUSH1 0x0 DUP1 REVERT JUMPDEST PUSH2 0x37CC DUP9 DUP3 DUP10 ADD PUSH2 0x36BF JUMP JUMPDEST SWAP5 POP POP PUSH1 0x40 DUP7 ADD CALLDATALOAD PUSH1 0x1 PUSH1 0x1 PUSH1 0x40 SHL SUB DUP2 GT ISZERO PUSH2 0x37E8 JUMPI PUSH1 0x0 DUP1 REVERT JUMPDEST PUSH2 0x37F4 DUP9 DUP3 DUP10 ADD PUSH2 0x36BF JUMP JUMPDEST SWAP4 POP POP PUSH1 0x60 DUP7 ADD CALLDATALOAD PUSH1 0x1 PUSH1 0x1 PUSH1 0x40 SHL SUB DUP2 GT ISZERO PUSH2 0x3810 JUMPI PUSH1 0x0 DUP1 REVERT JUMPDEST PUSH2 0x381C DUP9 DUP3 DUP10 ADD PUSH2 0x36BF JUMP JUMPDEST SWAP3 POP POP PUSH1 0x80 DUP7 ADD CALLDATALOAD PUSH1 0x1 PUSH1 0x1 PUSH1 0x40 SHL SUB DUP2 GT ISZERO PUSH2 0x3838 JUMPI PUSH1 0x0 DUP1 REVERT JUMPDEST PUSH2 0x3844 DUP9 DUP3 DUP10 ADD PUSH2 0x36BF JUMP JUMPDEST SWAP2 POP POP SWAP3 SWAP6 POP SWAP3 SWAP6 SWAP1 SWAP4 POP JUMP JUMPDEST PUSH1 0x0 DUP1 PUSH1 0x40 DUP4 DUP6 SUB SLT ISZERO PUSH2 0x3864 JUMPI PUSH1 0x0 DUP1 REVERT JUMPDEST DUP3 CALLDATALOAD PUSH1 0x1 PUSH1 0x1 PUSH1 0x40 SHL SUB DUP2 GT ISZERO PUSH2 0x387A JUMPI PUSH1 0x0 DUP1 REVERT JUMPDEST PUSH2 0x3886 DUP6 DUP3 DUP7 ADD PUSH2 0x36BF JUMP JUMPDEST SWAP3 POP POP PUSH1 0x20 DUP4 ADD CALLDATALOAD PUSH1 0x1 PUSH1 0x1 PUSH1 0x40 SHL SUB DUP2 GT ISZERO PUSH2 0x38A2 JUMPI PUSH1 0x0 DUP1 REVERT JUMPDEST PUSH2 0x38AE DUP6 DUP3 DUP7 ADD PUSH2 0x36BF JUMP JUMPDEST SWAP2 POP POP SWAP3 POP SWAP3 SWAP1 POP JUMP JUMPDEST PUSH1 0x0 DUP1 PUSH1 0x40 DUP4 DUP6 SUB SLT ISZERO PUSH2 0x38CB JUMPI PUSH1 0x0 DUP1 REVERT JUMPDEST DUP3 CALLDATALOAD SWAP2 POP PUSH1 0x20 DUP4 ADD CALLDATALOAD PUSH1 0x1 PUSH1 0x1 PUSH1 0x40 SHL SUB DUP2 GT ISZERO PUSH2 0x38A2 JUMPI PUSH1 0x0 DUP1 REVERT JUMPDEST PUSH1 0x0 DUP1 PUSH1 0x0 DUP1 PUSH1 0x80 DUP6 DUP8 SUB SLT ISZERO PUSH2 0x38FE JUMPI PUSH1 0x0 DUP1 REVERT JUMPDEST DUP5 CALLDATALOAD SWAP4 POP PUSH1 0x20 DUP6 ADD CALLDATALOAD SWAP3 POP PUSH1 0x40 DUP6 ADD CALLDATALOAD SWAP2 POP PUSH1 0x60 DUP6 ADD CALLDATALOAD DUP1 ISZERO ISZERO DUP2 EQ PUSH2 0x3923 JUMPI PUSH1 0x0 DUP1 REVERT JUMPDEST SWAP4 SWAP7 SWAP3 SWAP6 POP SWAP1 SWAP4 POP POP JUMP JUMPDEST PUSH1 0x0 DUP3 PUSH1 0x1F DUP4 ADD SLT PUSH2 0x393F JUMPI PUSH1 0x0 DUP1 REVERT JUMPDEST DUP2 CALLDATALOAD PUSH1 0x1 PUSH1 0x1 PUSH1 0x40 SHL SUB DUP2 GT ISZERO PUSH2 0x3958 JUMPI PUSH2 0x3958 PUSH2 0x3679 JUMP JUMPDEST DUP1 PUSH1 0x5 SHL PUSH2 0x3968 PUSH1 0x20 DUP3 ADD PUSH2 0x368F JUMP JUMPDEST SWAP2 DUP3 MSTORE PUSH1 0x20 DUP2 DUP6 ADD DUP2 ADD SWAP3 SWAP1 DUP2 ADD SWAP1 DUP7 DUP5 GT ISZERO PUSH2 0x3984 JUMPI PUSH1 0x0 DUP1 REVERT JUMPDEST PUSH1 0x20 DUP7 ADD SWAP3 POP JUMPDEST DUP4 DUP4 LT ISZERO PUSH2 0x39CA JUMPI DUP3 CALLDATALOAD PUSH1 0x1 PUSH1 0x1 PUSH1 0x40 SHL SUB DUP2 GT ISZERO PUSH2 0x39A9 JUMPI PUSH1 0x0 DUP1 REVERT JUMPDEST PUSH2 0x39B8 DUP9 PUSH1 0x20 DUP4 DUP11 ADD ADD PUSH2 0x36BF JUMP JUMPDEST DUP4 MSTORE POP PUSH1 0x20 SWAP3 DUP4 ADD SWAP3 SWAP1 SWAP2 ADD SWAP1 PUSH2 0x398B JUMP JUMPDEST SWAP7 SWAP6 POP POP POP POP POP POP JUMP JUMPDEST PUSH1 0x0 DUP1 PUSH1 0x0 DUP1 PUSH1 0x0 DUP1 PUSH1 0xC0 DUP8 DUP10 SUB SLT ISZERO PUSH2 0x39ED JUMPI PUSH1 0x0 DUP1 REVERT JUMPDEST DUP7 CALLDATALOAD PUSH1 0x1 PUSH1 0x1 PUSH1 0x40 SHL SUB DUP2 GT ISZERO PUSH2 0x3A03 JUMPI PUSH1 0x0 DUP1 REVERT JUMPDEST PUSH2 0x3A0F DUP10 DUP3 DUP11 ADD PUSH2 0x36BF JUMP JUMPDEST SWAP7 POP POP PUSH1 0x20 DUP8 ADD CALLDATALOAD PUSH1 0x1 PUSH1 0x1 PUSH1 0x40 SHL SUB DUP2 GT ISZERO PUSH2 0x3A2B JUMPI PUSH1 0x0 DUP1 REVERT JUMPDEST PUSH2 0x3A37 DUP10 DUP3 DUP11 ADD PUSH2 0x36BF JUMP JUMPDEST SWAP6 POP POP PUSH1 0x40 DUP8 ADD CALLDATALOAD PUSH1 0x1 PUSH1 0x1 PUSH1 0x40 SHL SUB DUP2 GT ISZERO PUSH2 0x3A53 JUMPI PUSH1 0x0 DUP1 REVERT JUMPDEST PUSH2 0x3A5F DUP10 DUP3 DUP11 ADD PUSH2 0x36BF JUMP JUMPDEST SWAP5 POP POP PUSH1 0x60 DUP8 ADD CALLDATALOAD PUSH1 0x1 PUSH1 0x1 PUSH1 0x40 SHL SUB DUP2 GT ISZERO PUSH2 0x3A7B JUMPI PUSH1 0x0 DUP1 REVERT JUMPDEST PUSH2 0x3A87 DUP10 DUP3 DUP11 ADD PUSH2 0x36BF JUMP JUMPDEST SWAP4 POP POP PUSH1 0x80 DUP8 ADD CALLDATALOAD PUSH1 0x1 PUSH1 0x1 PUSH1 0x40 SHL SUB DUP2 GT ISZERO PUSH2 0x3AA3 JUMPI PUSH1 0x0 DUP1 REVERT JUMPDEST PUSH2 0x3AAF DUP10 DUP3 DUP11 ADD PUSH2 0x36BF JUMP JUMPDEST SWAP3 POP POP PUSH1 0xA0 DUP8 ADD CALLDATALOAD PUSH1 0x1 PUSH1 0x1 PUSH1 0x40 SHL SUB DUP2 GT ISZERO PUSH2 0x3ACB JUMPI PUSH1 0x0 DUP1 REVERT JUMPDEST PUSH2 0x3AD7 DUP10 DUP3 DUP11 ADD PUSH2 0x392E JUMP JUMPDEST SWAP2 POP POP SWAP3 SWAP6 POP SWAP3 SWAP6 POP SWAP3 SWAP6 JUMP JUMPDEST PUSH1 0xC0 DUP2 MSTORE PUSH1 0x0 PUSH2 0x3AF7 PUSH1 0xC0 DUP4 ADD DUP10 PUSH2 0x354A JUMP JUMPDEST DUP3 DUP2 SUB PUSH1 0x20 DUP5 ADD MSTORE PUSH2 0x3B09 DUP2 DUP10 PUSH2 0x354A JUMP JUMPDEST SWAP1 POP DUP3 DUP2 SUB PUSH1 0x40 DUP5 ADD MSTORE PUSH2 0x3B1D DUP2 DUP9 PUSH2 0x354A JUMP JUMPDEST SWAP1 POP DUP3 DUP2 SUB PUSH1 0x60 DUP5 ADD MSTORE PUSH2 0x3B31 DUP2 DUP8 PUSH2 0x354A JUMP JUMPDEST SWAP1 POP DUP3 DUP2 SUB PUSH1 0x80 DUP5 ADD MSTORE PUSH2 0x3B45 DUP2 DUP7 PUSH2 0x354A JUMP JUMPDEST SWAP1 POP DUP3 DUP2 SUB PUSH1 0xA0 DUP5 ADD MSTORE PUSH2 0x3B59 DUP2 DUP6 PUSH2 0x3576 JUMP JUMPDEST SWAP10 SWAP9 POP POP POP POP POP POP POP POP POP JUMP JUMPDEST PUSH1 0x0 DUP2 MLOAD DUP1 DUP5 MSTORE PUSH1 0x20 DUP5 ADD SWAP4 POP PUSH1 0x20 DUP4 ADD PUSH1 0x0 JUMPDEST DUP3 DUP2 LT ISZERO PUSH2 0x3B98 JUMPI DUP2 MLOAD DUP7 MSTORE PUSH1 0x20 SWAP6 DUP7 ADD SWAP6 SWAP1 SWAP2 ADD SWAP1 PUSH1 0x1 ADD PUSH2 0x3B7A JUMP JUMPDEST POP SWAP4 SWAP5 SWAP4 POP POP POP POP JUMP JUMPDEST PUSH1 0x20 DUP2 MSTORE PUSH1 0x0 PUSH2 0x35E5 PUSH1 0x20 DUP4 ADD DUP5 PUSH2 0x3B66 JUMP JUMPDEST PUSH1 0xE0 DUP2 MSTORE PUSH1 0x0 PUSH2 0x3BC8 PUSH1 0xE0 DUP4 ADD DUP11 PUSH2 0x354A JUMP JUMPDEST DUP3 DUP2 SUB PUSH1 0x20 DUP5 ADD MSTORE PUSH2 0x3BDA DUP2 DUP11 PUSH2 0x354A JUMP JUMPDEST SWAP1 POP DUP3 DUP2 SUB PUSH1 0x40 DUP5 ADD MSTORE PUSH2 0x3BEE DUP2 DUP10 PUSH2 0x354A JUMP JUMPDEST SWAP1 POP DUP7 PUSH1 0x60 DUP5 ADD MSTORE DUP3 DUP2 SUB PUSH1 0x80 DUP5 ADD MSTORE PUSH2 0x3C08 DUP2 DUP8 PUSH2 0x354A JUMP JUMPDEST PUSH1 0x1 PUSH1 0x1 PUSH1 0xA0 SHL SUB DUP7 AND PUSH1 0xA0 DUP6 ADD MSTORE DUP4 DUP2 SUB PUSH1 0xC0 DUP6 ADD MSTORE SWAP1 POP PUSH2 0x3C2B DUP2 DUP6 PUSH2 0x3B66 JUMP JUMPDEST SWAP11 SWAP10 POP POP POP POP POP POP POP POP POP POP JUMP JUMPDEST PUSH2 0x100 DUP2 MSTORE PUSH1 0x0 PUSH2 0x3C4E PUSH2 0x100 DUP4 ADD DUP12 PUSH2 0x354A JUMP JUMPDEST DUP3 DUP2 SUB PUSH1 0x20 DUP5 ADD MSTORE PUSH2 0x3C60 DUP2 DUP12 PUSH2 0x354A JUMP JUMPDEST PUSH1 0x1 PUSH1 0x1 PUSH1 0xA0 SHL SUB DUP11 AND PUSH1 0x40 DUP6 ADD MSTORE DUP4 DUP2 SUB PUSH1 0x60 DUP6 ADD MSTORE SWAP1 POP PUSH2 0x3C83 DUP2 DUP10 PUSH2 0x3576 JUMP JUMPDEST SWAP1 POP DUP7 PUSH1 0x80 DUP5 ADD MSTORE DUP3 DUP2 SUB PUSH1 0xA0 DUP5 ADD MSTORE PUSH2 0x3C9D DUP2 DUP8 PUSH2 0x354A JUMP JUMPDEST SWAP1 POP DUP3 DUP2 SUB PUSH1 0xC0 DUP5 ADD MSTORE PUSH2 0x3CB1 DUP2 DUP7 PUSH2 0x3576 JUMP JUMPDEST SWAP2 POP POP DUP3 PUSH1 0xE0 DUP4 ADD MSTORE SWAP10 SWAP9 POP POP POP POP POP POP POP POP POP JUMP JUMPDEST PUSH1 0x0 DUP1 PUSH1 0x40 DUP4 DUP6 SUB SLT ISZERO PUSH2 0x3CDA JUMPI PUSH1 0x0 DUP1 REVERT JUMPDEST POP POP DUP1 CALLDATALOAD SWAP3 PUSH1 0x20 SWAP1 SWAP2 ADD CALLDATALOAD SWAP2 POP JUMP JUMPDEST PUSH1 0x0 DUP1 PUSH1 0x0 DUP1 PUSH1 0x0 PUSH1 0xA0 DUP7 DUP9 SUB SLT ISZERO PUSH2 0x3D01 JUMPI PUSH1 0x0 DUP1 REVERT JUMPDEST DUP6 CALLDATALOAD PUSH1 0x1 PUSH1 0x1 PUSH1 0x40 SHL SUB DUP2 GT ISZERO PUSH2 0x3D17 JUMPI PUSH1 0x0 DUP1 REVERT JUMPDEST PUSH2 0x3D23 DUP9 DUP3 DUP10 ADD PUSH2 0x36BF JUMP JUMPDEST SWAP6 POP POP PUSH1 0x20 DUP7 ADD CALLDATALOAD PUSH1 0x1 PUSH1 0x1 PUSH1 0x40 SHL SUB DUP2 GT ISZERO PUSH2 0x3D3F JUMPI PUSH1 0x0 DUP1 REVERT JUMPDEST PUSH2 0x3D4B DUP9 DUP3 DUP10 ADD PUSH2 0x36BF JUMP JUMPDEST SWAP5 POP POP PUSH1 0x40 DUP7 ADD CALLDATALOAD PUSH1 0x1 PUSH1 0x1 PUSH1 0x40 SHL SUB DUP2 GT ISZERO PUSH2 0x3D67 JUMPI PUSH1 0x0 DUP1 REVERT JUMPDEST PUSH2 0x3D73 DUP9 DUP3 DUP10 ADD PUSH2 0x36BF JUMP JUMPDEST SWAP4 POP POP PUSH1 0x60 DUP7 ADD CALLDATALOAD PUSH1 0x1 PUSH1 0x1 PUSH1 0x40 SHL SUB DUP2 GT ISZERO PUSH2 0x3D8F JUMPI PUSH1 0x0 DUP1 REVERT JUMPDEST PUSH2 0x3D9B DUP9 DUP3 DUP10 ADD PUSH2 0x36BF JUMP JUMPDEST SWAP6 SWAP9 SWAP5 SWAP8 POP SWAP3 SWAP6 PUSH1 0x80 ADD CALLDATALOAD SWAP4 SWAP3 POP POP POP JUMP JUMPDEST PUSH1 0xC0 DUP2 MSTORE PUSH1 0x0 PUSH2 0x3DC0 PUSH1 0xC0 DUP4 ADD DUP10 PUSH2 0x354A JUMP JUMPDEST DUP3 DUP2 SUB PUSH1 0x20 DUP5 ADD MSTORE PUSH2 0x3DD2 DUP2 DUP10 PUSH2 0x354A JUMP JUMPDEST SWAP1 POP DUP3 DUP2 SUB PUSH1 0x40 DUP5 ADD MSTORE PUSH2 0x3DE6 DUP2 DUP9 PUSH2 0x354A JUMP JUMPDEST SWAP1 POP DUP6 PUSH1 0x60 DUP5 ADD MSTORE DUP3 DUP2 SUB PUSH1 0x80 DUP5 ADD MSTORE PUSH2 0x3E00 DUP2 DUP7 PUSH2 0x354A JUMP JUMPDEST SWAP2 POP POP PUSH1 0x1 DUP1 PUSH1 0xA0 SHL SUB DUP4 AND PUSH1 0xA0 DUP4 ADD MSTORE SWAP8 SWAP7 POP POP POP POP POP POP POP JUMP JUMPDEST PUSH1 0xC0 DUP2 MSTORE PUSH1 0x0 PUSH2 0x3E2F PUSH1 0xC0 DUP4 ADD DUP10 PUSH2 0x354A JUMP JUMPDEST DUP3 DUP2 SUB PUSH1 0x20 DUP5 ADD MSTORE PUSH2 0x3E41 DUP2 DUP10 PUSH2 0x354A JUMP JUMPDEST PUSH1 0x1 PUSH1 0x1 PUSH1 0xA0 SHL SUB DUP9 AND PUSH1 0x40 DUP6 ADD MSTORE PUSH1 0x60 DUP5 ADD DUP8 SWAP1 MSTORE DUP4 DUP2 SUB PUSH1 0x80 DUP6 ADD MSTORE SWAP1 POP PUSH2 0x3E6B DUP2 DUP7 PUSH2 0x354A JUMP JUMPDEST SWAP2 POP POP DUP3 PUSH1 0xA0 DUP4 ADD MSTORE SWAP8 SWAP7 POP POP POP POP POP POP POP JUMP JUMPDEST PUSH1 0xA0 DUP2 MSTORE PUSH1 0x0 PUSH2 0x3E92 PUSH1 0xA0 DUP4 ADD DUP9 PUSH2 0x354A JUMP JUMPDEST DUP3 DUP2 SUB PUSH1 0x20 DUP5 ADD MSTORE PUSH2 0x3EA4 DUP2 DUP9 PUSH2 0x354A JUMP JUMPDEST SWAP1 POP DUP3 DUP2 SUB PUSH1 0x40 DUP5 ADD MSTORE PUSH2 0x3EB8 DUP2 DUP8 PUSH2 0x354A JUMP JUMPDEST SWAP1 POP DUP3 DUP2 SUB PUSH1 0x60 DUP5 ADD MSTORE PUSH2 0x3ECC DUP2 DUP7 PUSH2 0x354A JUMP JUMPDEST SWAP1 POP DUP3 DUP2 SUB PUSH1 0x80 DUP5 ADD MSTORE PUSH2 0x3EE0 DUP2 DUP6 PUSH2 0x354A JUMP JUMPDEST SWAP9 SWAP8 POP POP POP POP POP POP POP POP JUMP JUMPDEST PUSH1 0x1 DUP2 DUP2 SHR SWAP1 DUP3 AND DUP1 PUSH2 0x3F00 JUMPI PUSH1 0x7F DUP3 AND SWAP2 POP JUMPDEST PUSH1 0x20 DUP3 LT DUP2 SUB PUSH2 0x3F20 JUMPI PUSH4 0x4E487B71 PUSH1 0xE0 SHL PUSH1 0x0 MSTORE PUSH1 0x22 PUSH1 0x4 MSTORE PUSH1 0x24 PUSH1 0x0 REVERT JUMPDEST POP SWAP2 SWAP1 POP JUMP JUMPDEST PUSH1 0x0 DUP3 MLOAD PUSH2 0x3F38 DUP2 DUP5 PUSH1 0x20 DUP8 ADD PUSH2 0x3526 JUMP JUMPDEST SWAP2 SWAP1 SWAP2 ADD SWAP3 SWAP2 POP POP JUMP JUMPDEST PUSH1 0x1F DUP3 GT ISZERO PUSH2 0x3F8C JUMPI DUP1 PUSH1 0x0 MSTORE PUSH1 0x20 PUSH1 0x0 KECCAK256 PUSH1 0x1F DUP5 ADD PUSH1 0x5 SHR DUP2 ADD PUSH1 0x20 DUP6 LT ISZERO PUSH2 0x3F69 JUMPI POP DUP1 JUMPDEST PUSH1 0x1F DUP5 ADD PUSH1 0x5 SHR DUP3 ADD SWAP2 POP JUMPDEST DUP2 DUP2 LT ISZERO PUSH2 0x3F89 JUMPI PUSH1 0x0 DUP2 SSTORE PUSH1 0x1 ADD PUSH2 0x3F75 JUMP JUMPDEST POP POP JUMPDEST POP POP POP JUMP JUMPDEST DUP2 MLOAD PUSH1 0x1 PUSH1 0x1 PUSH1 0x40 SHL SUB DUP2 GT ISZERO PUSH2 0x3FAA JUMPI PUSH2 0x3FAA PUSH2 0x3679 JUMP JUMPDEST PUSH2 0x3FBE DUP2 PUSH2 0x3FB8 DUP5 SLOAD PUSH2 0x3EEC JUMP JUMPDEST DUP5 PUSH2 0x3F42 JUMP JUMPDEST PUSH1 0x20 PUSH1 0x1F DUP3 GT PUSH1 0x1 DUP2 EQ PUSH2 0x3FF2 JUMPI PUSH1 0x0 DUP4 ISZERO PUSH2 0x3FDA JUMPI POP DUP5 DUP3 ADD MLOAD JUMPDEST PUSH1 0x0 NOT PUSH1 0x3 DUP6 SWAP1 SHL SHR NOT AND PUSH1 0x1 DUP5 SWAP1 SHL OR DUP5 SSTORE PUSH2 0x3F89 JUMP JUMPDEST PUSH1 0x0 DUP5 DUP2 MSTORE PUSH1 0x20 DUP2 KECCAK256 PUSH1 0x1F NOT DUP6 AND SWAP2 JUMPDEST DUP3 DUP2 LT ISZERO PUSH2 0x4022 JUMPI DUP8 DUP6 ADD MLOAD DUP3 SSTORE PUSH1 0x20 SWAP5 DUP6 ADD SWAP5 PUSH1 0x1 SWAP1 SWAP3 ADD SWAP2 ADD PUSH2 0x4002 JUMP JUMPDEST POP DUP5 DUP3 LT ISZERO PUSH2 0x4040 JUMPI DUP7 DUP5 ADD MLOAD PUSH1 0x0 NOT PUSH1 0x3 DUP8 SWAP1 SHL PUSH1 0xF8 AND SHR NOT AND DUP2 SSTORE JUMPDEST POP POP POP POP PUSH1 0x1 SWAP1 DUP2 SHL ADD SWAP1 SSTORE POP JUMP JUMPDEST PUSH4 0x4E487B71 PUSH1 0xE0 SHL PUSH1 0x0 MSTORE PUSH1 0x32 PUSH1 0x4 MSTORE PUSH1 0x24 PUSH1 0x0 REVERT JUMPDEST PUSH1 0x0 DUP1 DUP4 SLOAD PUSH2 0x4073 DUP2 PUSH2 0x3EEC JUMP JUMPDEST PUSH1 0x1 DUP3 AND DUP1 ISZERO PUSH2 0x408A JUMPI PUSH1 0x1 DUP2 EQ PUSH2 0x409F JUMPI PUSH2 0x40CF JUMP JUMPDEST PUSH1 0xFF NOT DUP4 AND DUP7 MSTORE DUP2 ISZERO ISZERO DUP3 MUL DUP7 ADD SWAP4 POP PUSH2 0x40CF JUMP JUMPDEST DUP7 PUSH1 0x0 MSTORE PUSH1 0x20 PUSH1 0x0 KECCAK256 PUSH1 0x0 JUMPDEST DUP4 DUP2 LT ISZERO PUSH2 0x40C7 JUMPI DUP2 SLOAD DUP9 DUP3 ADD MSTORE PUSH1 0x1 SWAP1 SWAP2 ADD SWAP1 PUSH1 0x20 ADD PUSH2 0x40AB JUMP JUMPDEST POP POP DUP2 DUP7 ADD SWAP4 POP JUMPDEST POP SWAP2 SWAP6 SWAP5 POP POP POP POP POP JUMP JUMPDEST PUSH1 0x60 DUP2 MSTORE PUSH1 0x0 PUSH2 0x40ED PUSH1 0x60 DUP4 ADD DUP7 PUSH2 0x354A JUMP JUMPDEST DUP3 DUP2 SUB PUSH1 0x20 DUP5 ADD MSTORE PUSH2 0x40FF DUP2 DUP7 PUSH2 0x354A JUMP JUMPDEST SWAP2 POP POP DUP3 PUSH1 0x40 DUP4 ADD MSTORE SWAP5 SWAP4 POP POP POP POP JUMP JUMPDEST DUP4 DUP2 MSTORE PUSH1 0x60 PUSH1 0x20 DUP3 ADD MSTORE PUSH1 0x0 PUSH2 0x4129 PUSH1 0x60 DUP4 ADD DUP6 PUSH2 0x354A JUMP JUMPDEST SWAP1 POP DUP3 PUSH1 0x40 DUP4 ADD MSTORE SWAP5 SWAP4 POP POP POP POP JUMP JUMPDEST PUSH4 0x4E487B71 PUSH1 0xE0 SHL PUSH1 0x0 MSTORE PUSH1 0x11 PUSH1 0x4 MSTORE PUSH1 0x24 PUSH1 0x0 REVERT JUMPDEST PUSH1 0x0 PUSH1 0x1 DUP3 ADD PUSH2 0x4161 JUMPI PUSH2 0x4161 PUSH2 0x4139 JUMP JUMPDEST POP PUSH1 0x1 ADD SWAP1 JUMP JUMPDEST DUP2 DUP2 SUB DUP2 DUP2 GT ISZERO PUSH2 0x417B JUMPI PUSH2 0x417B PUSH2 0x4139 JUMP JUMPDEST SWAP3 SWAP2 POP POP JUMP JUMPDEST PUSH1 0x60 DUP2 MSTORE PUSH1 0x0 PUSH2 0x4194 PUSH1 0x60 DUP4 ADD DUP7 PUSH2 0x354A JUMP JUMPDEST PUSH1 0x1 PUSH1 0x1 PUSH1 0xA0 SHL SUB SWAP5 SWAP1 SWAP5 AND PUSH1 0x20 DUP4 ADD MSTORE POP PUSH1 0x40 ADD MSTORE SWAP2 SWAP1 POP JUMP JUMPDEST PUSH4 0x4E487B71 PUSH1 0xE0 SHL PUSH1 0x0 MSTORE PUSH1 0x12 PUSH1 0x4 MSTORE PUSH1 0x24 PUSH1 0x0 REVERT JUMPDEST PUSH1 0x0 DUP3 PUSH2 0x41D4 JUMPI PUSH2 0x41D4 PUSH2 0x41AF JUMP JUMPDEST POP DIV SWAP1 JUMP JUMPDEST DUP1 DUP3 MUL DUP2 ISZERO DUP3 DUP3 DIV DUP5 EQ OR PUSH2 0x417B JUMPI PUSH2 0x417B PUSH2 0x4139 JUMP JUMPDEST PUSH10 0x283AB931B430B9B2B21 PUSH1 0xB5 SHL DUP2 MSTORE PUSH1 0x0 DUP3 MLOAD PUSH2 0x4215 DUP2 PUSH1 0xA DUP6 ADD PUSH1 0x20 DUP8 ADD PUSH2 0x3526 JUMP JUMPDEST PUSH18 0x103AB734BA3990313C9021BAB9BA37B6B2B9 PUSH1 0x71 SHL PUSH1 0xA SWAP4 SWAP1 SWAP2 ADD SWAP3 DUP4 ADD MSTORE POP PUSH1 0x1C ADD SWAP2 SWAP1 POP JUMP JUMPDEST DUP5 DUP2 MSTORE PUSH1 0x80 PUSH1 0x20 DUP3 ADD MSTORE PUSH1 0x0 PUSH2 0x4257 PUSH1 0x80 DUP4 ADD DUP7 PUSH2 0x354A JUMP JUMPDEST PUSH1 0x1 PUSH1 0x1 PUSH1 0xA0 SHL SUB SWAP5 SWAP1 SWAP5 AND PUSH1 0x40 DUP4 ADD MSTORE POP PUSH1 0x60 ADD MSTORE SWAP3 SWAP2 POP POP JUMP JUMPDEST PUSH1 0x0 DUP3 PUSH2 0x4282 JUMPI PUSH2 0x4282 PUSH2 0x41AF JUMP JUMPDEST POP MOD SWAP1 JUMP JUMPDEST DUP1 DUP3 ADD DUP1 DUP3 GT ISZERO PUSH2 0x417B JUMPI PUSH2 0x417B PUSH2 0x4139 JUMP INVALID LOG2 PUSH5 0x6970667358 0x22 SLT KECCAK256 DUP15 PREVRANDAO EQ PUSH2 0x4BF3 0x25 CALLER EXP PUSH13 0xA45103C0A62C82E5F4EF301EA3 SHL 0x4F PUSH8 0x7D257612960C6473 PUSH16 0x6C634300081C00330000000000000000 "},"methodIdentifiers":{"addFruitCatalog(string,string,string,string,string,string[])":"569de6fd","addManager(address)":"2d06177a","addRecommendation(uint256,string)":"5154da5a","authorizedManagers(address)":"0a3cb21b","farms(string)":"ac9f1276","fruitCatalogs(string)":"c71b89b5","fruitCount()":"f493008d","fruitHashes(string)":"d8ab96bc","fruits(uint256)":"c4172162","getAllActiveListings()":"701e5084","getAllFarms()":"f9559774","getAllFruitTypes()":"046c6712","getFarmData(string)":"6bf62cf8","getFruit(uint256)":"76ce7fe9","getFruitCatalog(string)":"58cf8f51","getFruitHash(string)":"6a03089d","getListedProduct(uint256)":"1b4dba9b","getSellerListings(address)":"5f42da09","harvestFruit(string,string,string,string,uint256)":"a673e064","isFarmRegistered(string)":"3c2119a7","listProductForSale(uint256,uint256,uint256,bool)":"51edfd7d","listedProducts(uint256)":"ceadca13","listingCount()":"a9b07c26","listingIds(uint256)":"52bea360","owner()":"8da5cb5b","purchaseProduct(uint256,uint256)":"a0440426","recordStep(uint256,string)":"bc5e8cd7","registerFarm(string,string,string,string,string)":"3f50e5af","registeredFarms(uint256)":"1fc15e93","registeredFruitTypes(uint256)":"58eed174","removeManager(address)":"ac18de43","sellerListings(address,uint256)":"054564f0","setFruitHash(string,string)":"42c7f63f","updateFarmConditions(string,string)":"43622b81"}}}}}