{
  "_format": "hh-sol-artifact-1",
  "contractName": "FruitSupplyChain",
  "sourceName": "contracts/FruitSupplyChain.sol",
  "abi": [
    {
      "inputs": [],
      "stateMutability": "nonpayable",
      "type": "constructor"
    },
    {
      "anonymous": false,
      "inputs": [
        {
          "indexed": false,
          "internalType": "string",
          "name": "fruitType",
          "type": "string"
        },
        {
          "indexed": false,
          "internalType": "address",
          "name": "by",
          "type": "address"
        },
        {
          "indexed": false,
          "internalType": "uint256",
          "name": "timestamp",
          "type": "uint256"
        }
      ],
      "name": "CatalogAdded",
      "type": "event"
    },
    {
      "anonymous": false,
      "inputs": [
        {
          "indexed": false,
          "internalType": "string",
          "name": "farmId",
          "type": "string"
        },
        {
          "indexed": false,
          "internalType": "string",
          "name": "conditions",
          "type": "string"
        },
        {
          "indexed": false,
          "internalType": "uint256",
          "name": "timestamp",
          "type": "uint256"
        }
      ],
      "name": "FarmUpdated",
      "type": "event"
    },
    {
      "anonymous": false,
      "inputs": [
        {
          "indexed": false,
          "internalType": "string",
          "name": "fruitType",
          "type": "string"
        },
        {
          "indexed": false,
          "internalType": "string",
          "name": "ipfsHash",
          "type": "string"
        },
        {
          "indexed": false,
          "internalType": "uint256",
          "name": "timestamp",
          "type": "uint256"
        }
      ],
      "name": "FruitHashUpdated",
      "type": "event"
    },
    {
      "anonymous": false,
      "inputs": [
        {
          "indexed": false,
          "internalType": "uint256",
          "name": "listingId",
          "type": "uint256"
        },
        {
          "indexed": false,
          "internalType": "uint256",
          "name": "fruitId",
          "type": "uint256"
        },
        {
          "indexed": false,
          "internalType": "uint256",
          "name": "price",
          "type": "uint256"
        },
        {
          "indexed": false,
          "internalType": "uint256",
          "name": "quantity",
          "type": "uint256"
        },
        {
          "indexed": false,
          "internalType": "address",
          "name": "seller",
          "type": "address"
        },
        {
          "indexed": false,
          "internalType": "uint256",
          "name": "timestamp",
          "type": "uint256"
        }
      ],
      "name": "ProductListed",
      "type": "event"
    },
    {
      "anonymous": false,
      "inputs": [
        {
          "indexed": false,
          "internalType": "uint256",
          "name": "listingId",
          "type": "uint256"
        },
        {
          "indexed": false,
          "internalType": "address",
          "name": "buyer",
          "type": "address"
        },
        {
          "indexed": false,
          "internalType": "uint256",
          "name": "quantity",
          "type": "uint256"
        },
        {
          "indexed": false,
          "internalType": "uint256",
          "name": "timestamp",
          "type": "uint256"
        }
      ],
      "name": "ProductPurchased",
      "type": "event"
    },
    {
      "anonymous": false,
      "inputs": [
        {
          "indexed": false,
          "internalType": "uint256",
          "name": "fruitId",
          "type": "uint256"
        },
        {
          "indexed": false,
          "internalType": "string",
          "name": "recommendation",
          "type": "string"
        },
        {
          "indexed": false,
          "internalType": "uint256",
          "name": "timestamp",
          "type": "uint256"
        }
      ],
      "name": "RecommendationAdded",
      "type": "event"
    },
    {
      "anonymous": false,
      "inputs": [
        {
          "indexed": false,
          "internalType": "uint256",
          "name": "fruitId",
          "type": "uint256"
        },
        {
          "indexed": false,
          "internalType": "string",
          "name": "step",
          "type": "string"
        },
        {
          "indexed": false,
          "internalType": "address",
          "name": "by",
          "type": "address"
        },
        {
          "indexed": false,
          "internalType": "uint256",
          "name": "timestamp",
          "type": "uint256"
        }
      ],
      "name": "StepRecorded",
      "type": "event"
    },
    {
      "inputs": [
        {
          "internalType": "string",
          "name": "_fruitType",
          "type": "string"
        },
        {
          "internalType": "string",
          "name": "_description",
          "type": "string"
        },
        {
          "internalType": "string",
          "name": "_growingSeason",
          "type": "string"
        },
        {
          "internalType": "string",
          "name": "_nutritionalValue",
          "type": "string"
        },
        {
          "internalType": "string",
          "name": "_storageConditions",
          "type": "string"
        },
        {
          "internalType": "string[]",
          "name": "_commonVarieties",
          "type": "string[]"
        }
      ],
      "name": "addFruitCatalog",
      "outputs": [],
      "stateMutability": "nonpayable",
      "type": "function"
    },
    {
      "inputs": [
        {
          "internalType": "address",
          "name": "_manager",
          "type": "address"
        }
      ],
      "name": "addManager",
      "outputs": [],
      "stateMutability": "nonpayable",
      "type": "function"
    },
    {
      "inputs": [
        {
          "internalType": "uint256",
          "name": "_fruitId",
          "type": "uint256"
        },
        {
          "internalType": "string",
          "name": "_recommendation",
          "type": "string"
        }
      ],
      "name": "addRecommendation",
      "outputs": [],
      "stateMutability": "nonpayable",
      "type": "function"
    },
    {
      "inputs": [
        {
          "internalType": "address",
          "name": "",
          "type": "address"
        }
      ],
      "name": "authorizedManagers",
      "outputs": [
        {
          "internalType": "bool",
          "name": "",
          "type": "bool"
        }
      ],
      "stateMutability": "view",
      "type": "function"
    },
    {
      "inputs": [
        {
          "internalType": "string",
          "name": "",
          "type": "string"
        }
      ],
      "name": "farms",
      "outputs": [
        {
          "internalType": "string",
          "name": "location",
          "type": "string"
        },
        {
          "internalType": "string",
          "name": "climate",
          "type": "string"
        },
        {
          "internalType": "string",
          "name": "soil",
          "type": "string"
        },
        {
          "internalType": "uint256",
          "name": "lastUpdated",
          "type": "uint256"
        },
        {
          "internalType": "string",
          "name": "currentConditions",
          "type": "string"
        },
        {
          "internalType": "address",
          "name": "owner",
          "type": "address"
        }
      ],
      "stateMutability": "view",
      "type": "function"
    },
    {
      "inputs": [
        {
          "internalType": "string",
          "name": "",
          "type": "string"
        }
      ],
      "name": "fruitCatalogs",
      "outputs": [
        {
          "internalType": "string",
          "name": "name",
          "type": "string"
        },
        {
          "internalType": "string",
          "name": "description",
          "type": "string"
        },
        {
          "internalType": "string",
          "name": "growingSeason",
          "type": "string"
        },
        {
          "internalType": "string",
          "name": "nutritionalValue",
          "type": "string"
        },
        {
          "internalType": "string",
          "name": "storageConditions",
          "type": "string"
        }
      ],
      "stateMutability": "view",
      "type": "function"
    },
    {
      "inputs": [],
      "name": "fruitCount",
      "outputs": [
        {
          "internalType": "uint256",
          "name": "",
          "type": "uint256"
        }
      ],
      "stateMutability": "view",
      "type": "function"
    },
    {
      "inputs": [
        {
          "internalType": "string",
          "name": "",
          "type": "string"
        }
      ],
      "name": "fruitHashes",
      "outputs": [
        {
          "internalType": "string",
          "name": "",
          "type": "string"
        }
      ],
      "stateMutability": "view",
      "type": "function"
    },
    {
      "inputs": [
        {
          "internalType": "uint256",
          "name": "",
          "type": "uint256"
        }
      ],
      "name": "fruits",
      "outputs": [
        {
          "internalType": "string",
          "name": "fruitType",
          "type": "string"
        },
        {
          "internalType": "string",
          "name": "origin",
          "type": "string"
        },
        {
          "internalType": "address",
          "name": "producer",
          "type": "address"
        },
        {
          "internalType": "uint256",
          "name": "harvestDate",
          "type": "uint256"
        },
        {
          "internalType": "string",
          "name": "quality",
          "type": "string"
        },
        {
          "internalType": "uint256",
          "name": "quantity",
          "type": "uint256"
        }
      ],
      "stateMutability": "view",
      "type": "function"
    },
    {
      "inputs": [],
      "name": "getAllActiveListings",
      "outputs": [
        {
          "internalType": "uint256[]",
          "name": "",
          "type": "uint256[]"
        }
      ],
      "stateMutability": "view",
      "type": "function"
    },
    {
      "inputs": [],
      "name": "getAllFarms",
      "outputs": [
        {
          "internalType": "string[]",
          "name": "",
          "type": "string[]"
        }
      ],
      "stateMutability": "view",
      "type": "function"
    },
    {
      "inputs": [],
      "name": "getAllFruitTypes",
      "outputs": [
        {
          "internalType": "string[]",
          "name": "",
          "type": "string[]"
        }
      ],
      "stateMutability": "view",
      "type": "function"
    },
    {
      "inputs": [
        {
          "internalType": "string",
          "name": "_farmId",
          "type": "string"
        }
      ],
      "name": "getFarmData",
      "outputs": [
        {
          "internalType": "string",
          "name": "",
          "type": "string"
        },
        {
          "internalType": "string",
          "name": "",
          "type": "string"
        },
        {
          "internalType": "string",
          "name": "",
          "type": "string"
        },
        {
          "internalType": "uint256",
          "name": "",
          "type": "uint256"
        },
        {
          "internalType": "string",
          "name": "",
          "type": "string"
        },
        {
          "internalType": "address",
          "name": "",
          "type": "address"
        },
        {
          "internalType": "uint256[]",
          "name": "",
          "type": "uint256[]"
        }
      ],
      "stateMutability": "view",
      "type": "function"
    },
    {
      "inputs": [
        {
          "internalType": "uint256",
          "name": "_fruitId",
          "type": "uint256"
        }
      ],
      "name": "getFruit",
      "outputs": [
        {
          "internalType": "string",
          "name": "",
          "type": "string"
        },
        {
          "internalType": "string",
          "name": "",
          "type": "string"
        },
        {
          "internalType": "address",
          "name": "",
          "type": "address"
        },
        {
          "internalType": "string[]",
          "name": "",
          "type": "string[]"
        },
        {
          "internalType": "uint256",
          "name": "",
          "type": "uint256"
        },
        {
          "internalType": "string",
          "name": "",
          "type": "string"
        },
        {
          "internalType": "string[]",
          "name": "",
          "type": "string[]"
        },
        {
          "internalType": "uint256",
          "name": "",
          "type": "uint256"
        }
      ],
      "stateMutability": "view",
      "type": "function"
    },
    {
      "inputs": [
        {
          "internalType": "string",
          "name": "_fruitType",
          "type": "string"
        }
      ],
      "name": "getFruitCatalog",
      "outputs": [
        {
          "internalType": "string",
          "name": "",
          "type": "string"
        },
        {
          "internalType": "string",
          "name": "",
          "type": "string"
        },
        {
          "internalType": "string",
          "name": "",
          "type": "string"
        },
        {
          "internalType": "string",
          "name": "",
          "type": "string"
        },
        {
          "internalType": "string",
          "name": "",
          "type": "string"
        },
        {
          "internalType": "string[]",
          "name": "",
          "type": "string[]"
        }
      ],
      "stateMutability": "view",
      "type": "function"
    },
    {
      "inputs": [
        {
          "internalType": "string",
          "name": "fruitType",
          "type": "string"
        }
      ],
      "name": "getFruitHash",
      "outputs": [
        {
          "internalType": "string",
          "name": "",
          "type": "string"
        }
      ],
      "stateMutability": "view",
      "type": "function"
    },
    {
      "inputs": [
        {
          "internalType": "uint256",
          "name": "_listingId",
          "type": "uint256"
        }
      ],
      "name": "getListedProduct",
      "outputs": [
        {
          "internalType": "uint256",
          "name": "fruitId",
          "type": "uint256"
        },
        {
          "internalType": "uint256",
          "name": "price",
          "type": "uint256"
        },
        {
          "internalType": "uint256",
          "name": "quantity",
          "type": "uint256"
        },
        {
          "internalType": "address",
          "name": "seller",
          "type": "address"
        },
        {
          "internalType": "bool",
          "name": "isActive",
          "type": "bool"
        },
        {
          "internalType": "uint256",
          "name": "listedTimestamp",
          "type": "uint256"
        },
        {
          "internalType": "bool",
          "name": "allowPartialPurchase",
          "type": "bool"
        }
      ],
      "stateMutability": "view",
      "type": "function"
    },
    {
      "inputs": [
        {
          "internalType": "address",
          "name": "_seller",
          "type": "address"
        }
      ],
      "name": "getSellerListings",
      "outputs": [
        {
          "internalType": "uint256[]",
          "name": "",
          "type": "uint256[]"
        }
      ],
      "stateMutability": "view",
      "type": "function"
    },
    {
      "inputs": [
        {
          "internalType": "string",
          "name": "_fruitType",
          "type": "string"
        },
        {
          "internalType": "string",
          "name": "_origin",
          "type": "string"
        },
        {
          "internalType": "string",
          "name": "_farmId",
          "type": "string"
        },
        {
          "internalType": "string",
          "name": "_quality",
          "type": "string"
        },
        {
          "internalType": "uint256",
          "name": "_quantity",
          "type": "uint256"
        }
      ],
      "name": "harvestFruit",
      "outputs": [],
      "stateMutability": "nonpayable",
      "type": "function"
    },
    {
      "inputs": [
        {
          "internalType": "string",
          "name": "",
          "type": "string"
        }
      ],
      "name": "isFarmRegistered",
      "outputs": [
        {
          "internalType": "bool",
          "name": "",
          "type": "bool"
        }
      ],
      "stateMutability": "view",
      "type": "function"
    },
    {
      "inputs": [
        {
          "internalType": "uint256",
          "name": "_fruitId",
          "type": "uint256"
        },
        {
          "internalType": "uint256",
          "name": "_price",
          "type": "uint256"
        },
        {
          "internalType": "uint256",
          "name": "_quantity",
          "type": "uint256"
        },
        {
          "internalType": "bool",
          "name": "_allowPartialPurchase",
          "type": "bool"
        }
      ],
      "name": "listProductForSale",
      "outputs": [],
      "stateMutability": "nonpayable",
      "type": "function"
    },
    {
      "inputs": [
        {
          "internalType": "uint256",
          "name": "",
          "type": "uint256"
        }
      ],
      "name": "listedProducts",
      "outputs": [
        {
          "internalType": "uint256",
          "name": "fruitId",
          "type": "uint256"
        },
        {
          "internalType": "uint256",
          "name": "price",
          "type": "uint256"
        },
        {
          "internalType": "uint256",
          "name": "quantity",
          "type": "uint256"
        },
        {
          "internalType": "address",
          "name": "seller",
          "type": "address"
        },
        {
          "internalType": "bool",
          "name": "isActive",
          "type": "bool"
        },
        {
          "internalType": "uint256",
          "name": "listedTimestamp",
          "type": "uint256"
        },
        {
          "internalType": "bool",
          "name": "allowPartialPurchase",
          "type": "bool"
        }
      ],
      "stateMutability": "view",
      "type": "function"
    },
    {
      "inputs": [],
      "name": "listingCount",
      "outputs": [
        {
          "internalType": "uint256",
          "name": "",
          "type": "uint256"
        }
      ],
      "stateMutability": "view",
      "type": "function"
    },
    {
      "inputs": [
        {
          "internalType": "uint256",
          "name": "",
          "type": "uint256"
        }
      ],
      "name": "listingIds",
      "outputs": [
        {
          "internalType": "uint256",
          "name": "",
          "type": "uint256"
        }
      ],
      "stateMutability": "view",
      "type": "function"
    },
    {
      "inputs": [],
      "name": "owner",
      "outputs": [
        {
          "internalType": "address",
          "name": "",
          "type": "address"
        }
      ],
      "stateMutability": "view",
      "type": "function"
    },
    {
      "inputs": [
        {
          "internalType": "uint256",
          "name": "_listingId",
          "type": "uint256"
        },
        {
          "internalType": "uint256",
          "name": "_quantity",
          "type": "uint256"
        }
      ],
      "name": "purchaseProduct",
      "outputs": [],
      "stateMutability": "payable",
      "type": "function"
    },
    {
      "inputs": [
        {
          "internalType": "uint256",
          "name": "_fruitId",
          "type": "uint256"
        },
        {
          "internalType": "string",
          "name": "_step",
          "type": "string"
        }
      ],
      "name": "recordStep",
      "outputs": [],
      "stateMutability": "nonpayable",
      "type": "function"
    },
    {
      "inputs": [
        {
          "internalType": "string",
          "name": "_farmId",
          "type": "string"
        },
        {
          "internalType": "string",
          "name": "_location",
          "type": "string"
        },
        {
          "internalType": "string",
          "name": "_climate",
          "type": "string"
        },
        {
          "internalType": "string",
          "name": "_soil",
          "type": "string"
        },
        {
          "internalType": "string",
          "name": "_currentConditions",
          "type": "string"
        }
      ],
      "name": "registerFarm",
      "outputs": [],
      "stateMutability": "nonpayable",
      "type": "function"
    },
    {
      "inputs": [
        {
          "internalType": "uint256",
          "name": "",
          "type": "uint256"
        }
      ],
      "name": "registeredFarms",
      "outputs": [
        {
          "internalType": "string",
          "name": "",
          "type": "string"
        }
      ],
      "stateMutability": "view",
      "type": "function"
    },
    {
      "inputs": [
        {
          "internalType": "uint256",
          "name": "",
          "type": "uint256"
        }
      ],
      "name": "registeredFruitTypes",
      "outputs": [
        {
          "internalType": "string",
          "name": "",
          "type": "string"
        }
      ],
      "stateMutability": "view",
      "type": "function"
    },
    {
      "inputs": [
        {
          "internalType": "address",
          "name": "_manager",
          "type": "address"
        }
      ],
      "name": "removeManager",
      "outputs": [],
      "stateMutability": "nonpayable",
      "type": "function"
    },
    {
      "inputs": [
        {
          "internalType": "address",
          "name": "",
          "type": "address"
        },
        {
          "internalType": "uint256",
          "name": "",
          "type": "uint256"
        }
      ],
      "name": "sellerListings",
      "outputs": [
        {
          "internalType": "uint256",
          "name": "",
          "type": "uint256"
        }
      ],
      "stateMutability": "view",
      "type": "function"
    },
    {
      "inputs": [
        {
          "internalType": "string",
          "name": "fruitType",
          "type": "string"
        },
        {
          "internalType": "string",
          "name": "ipfsHash",
          "type": "string"
        }
      ],
      "name": "setFruitHash",
      "outputs": [],
      "stateMutability": "nonpayable",
      "type": "function"
    },
    {
      "inputs": [
        {
          "internalType": "string",
          "name": "_farmId",
          "type": "string"
        },
        {
          "internalType": "string",
          "name": "_conditions",
          "type": "string"
        }
      ],
      "name": "updateFarmConditions",
      "outputs": [],
      "stateMutability": "nonpayable",
      "type": "function"
    }
  ],
  "bytecode": "0x6080604052348015600f57600080fd5b50600080546001600160a01b0319163390811782558152600160208190526040909120805460ff191690911790556142d08061004c6000396000f3fe6080604052600436106101f95760003560e01c80636a03089d1161010d578063ac18de43116100a0578063c71b89b51161006f578063c71b89b5146106a2578063ceadca13146106d3578063d8ab96bc1461073d578063f493008d1461075d578063f95597741461077357600080fd5b8063ac18de43146105fe578063ac9f12761461061e578063bc5e8cd714610650578063c41721621461067057600080fd5b80638da5cb5b116100dc5780638da5cb5b1461057d578063a0440426146105b5578063a673e064146105c8578063a9b07c26146105e857600080fd5b80636a03089d146104e15780636bf62cf814610501578063701e50841461053457806376ce7fe91461054957600080fd5b806342c7f63f1161019057806352bea3601161015f57806352bea36014610422578063569de6fd1461044257806358cf8f511461046257806358eed174146104945780635f42da09146104b457600080fd5b806342c7f63f146103a257806343622b81146103c25780635154da5a146103e257806351edfd7d1461040257600080fd5b80631fc15e93116101cc5780631fc15e93146102f85780632d06177a146103255780633c2119a7146103475780633f50e5af1461038257600080fd5b8063046c6712146101fe578063054564f0146102295780630a3cb21b146102575780631b4dba9b14610297575b600080fd5b34801561020a57600080fd5b50610213610788565b60405161022091906135d2565b60405180910390f35b34801561023557600080fd5b50610249610244366004613608565b610861565b604051908152602001610220565b34801561026357600080fd5b50610287610272366004613632565b60016020526000908152604090205460ff1681565b6040519015158152602001610220565b3480156102a357600080fd5b506102b76102b236600461364d565b610892565b604080519788526020880196909652948601939093526001600160a01b0390911660608501521515608084015260a0830152151560c082015260e001610220565b34801561030457600080fd5b5061031861031336600461364d565b610945565b6040516102209190613666565b34801561033157600080fd5b50610345610340366004613632565b6109f1565b005b34801561035357600080fd5b5061028761036236600461372e565b8051602081830181018051600c8252928201919093012091525460ff1681565b34801561038e57600080fd5b5061034561039d36600461376a565b610a2f565b3480156103ae57600080fd5b506103456103bd366004613851565b610cde565b3480156103ce57600080fd5b506103456103dd366004613851565b610d49565b3480156103ee57600080fd5b506103456103fd3660046138b8565b610df6565b34801561040e57600080fd5b5061034561041d3660046138e8565b610ea1565b34801561042e57600080fd5b5061024961043d36600461364d565b6110ce565b34801561044e57600080fd5b5061034561045d3660046139d4565b6110ef565b34801561046e57600080fd5b5061048261047d36600461372e565b611304565b60405161022096959493929190613ae4565b3480156104a057600080fd5b506103186104af36600461364d565b61171b565b3480156104c057600080fd5b506104d46104cf366004613632565b61172b565b6040516102209190613ba2565b3480156104ed57600080fd5b506103186104fc36600461372e565b611797565b34801561050d57600080fd5b5061052161051c36600461372e565b61183d565b6040516102209796959493929190613bb5565b34801561054057600080fd5b506104d4611b6e565b34801561055557600080fd5b5061056961056436600461364d565b611cf6565b604051610220989796959493929190613c39565b34801561058957600080fd5b5060005461059d906001600160a01b031681565b6040516001600160a01b039091168152602001610220565b6103456105c3366004613cc7565b61210f565b3480156105d457600080fd5b506103456105e3366004613ce9565b612330565b3480156105f457600080fd5b5061024960085481565b34801561060a57600080fd5b50610345610619366004613632565b612a3f565b34801561062a57600080fd5b5061063e61063936600461372e565b612a77565b60405161022096959493929190613dad565b34801561065c57600080fd5b5061034561066b3660046138b8565b612cdf565b34801561067c57600080fd5b5061069061068b36600461364d565b612d5b565b60405161022096959493929190613e1c565b3480156106ae57600080fd5b506106c26106bd36600461372e565b612f35565b604051610220959493929190613e7f565b3480156106df57600080fd5b506102b76106ee36600461364d565b60056020819052600091825260409091208054600182015460028301546003840154600485015494909501549294919390926001600160a01b0383169260ff600160a01b909104811692911687565b34801561074957600080fd5b5061031861075836600461372e565b613216565b34801561076957600080fd5b5061024960075481565b34801561077f57600080fd5b5061021361323a565b60606009805480602002602001604051908101604052809291908181526020016000905b828210156108585783829060005260206000200180546107cb90613eec565b80601f01602080910402602001604051908101604052809291908181526020018280546107f790613eec565b80156108445780601f1061081957610100808354040283529160200191610844565b820191906000526020600020905b81548152906001019060200180831161082757829003601f168201915b5050505050815260200190600101906107ac565b50505050905090565b6006602052816000526040600020818154811061087d57600080fd5b90600052602060002001600091509150505481565b600080600080600080600080881180156108ae57506008548811155b6108b757600080fd5b5050506000948552505060056020818152604094859020855160e08101875281548082526001830154938201849052600283015497820188905260038301546001600160a01b03811660608401819052600160a01b90910460ff908116151560808501819052600486015460a08601819052959097015416151560c090930183905290989397965094509091565b600a818154811061095557600080fd5b90600052602060002001600091509050805461097090613eec565b80601f016020809104026020016040519081016040528092919081815260200182805461099c90613eec565b80156109e95780601f106109be576101008083540402835291602001916109e9565b820191906000526020600020905b8154815290600101906020018083116109cc57829003601f168201915b505050505081565b6000546001600160a01b03163314610a0857600080fd5b6001600160a01b03166000908152600160208190526040909120805460ff19169091179055565b600c85604051610a3f9190613f26565b9081526040519081900360200190205460ff1615610a5c57600080fd5b6040518060e0016040528085815260200184815260200183815260200160008152602001828152602001336001600160a01b0316815260200160006001600160401b03811115610aae57610aae613679565b604051908082528060200260200182016040528015610ad7578160200160208202803683370190505b50815250600386604051610aeb9190613f26565b90815260405190819003602001902081518190610b089082613f91565b5060208201516001820190610b1d9082613f91565b5060408201516002820190610b329082613f91565b506060820151600382015560808201516004820190610b519082613f91565b5060a08201516005820180546001600160a01b0319166001600160a01b0390921691909117905560c08201518051610b9391600684019160209091019061341a565b509050506001600c86604051610ba99190613f26565b908152604051908190036020019020805491151560ff199092169190911790556000805b600a54811015610c575786604051602001610be89190613f26565b60405160208183030381529060405280519060200120600a8281548110610c1157610c1161404f565b90600052602060002001604051602001610c2b9190614065565b6040516020818303038152906040528051906020012003610c4f5760019150610c57565b600101610bcd565b5080610c9b57600a80546001810182556000919091527fc65a7bb8d6351c1cf70c95a316cc6a92839c986682d98bc35f958f4883f9d2a801610c998782613f91565b505b7fef9e0a850bb9971e155f20e4b0e490cdeafc72eab8d0da56fe2f1585ad9567de868342604051610cce939291906140da565b60405180910390a1505050505050565b80600d83604051610cef9190613f26565b90815260200160405180910390209081610d099190613f91565b507f888bf677ec642f934df90bbc78f33cc2d32f3d50b0d2bc286d26ef35d69c89b4828242604051610d3d939291906140da565b60405180910390a15050565b6000600383604051610d5b9190613f26565b90815260405190819003602001902060058101549091506001600160a01b0316331480610d9757503360009081526001602052604090205460ff165b610da057600080fd5b60048101610dae8382613f91565b5042600382018190556040517fef9e0a850bb9971e155f20e4b0e490cdeafc72eab8d0da56fe2f1585ad9567de91610de991869186916140da565b60405180910390a1505050565b3360009081526001602052604090205460ff1680610e1e57506000546001600160a01b031633145b610e2757600080fd5b600082118015610e3957506007548211155b610e4257600080fd5b600082815260046020908152604082206007018054600181018255908352912001610e6d8282613f91565b507f40e632d4a93e307bc4fd8ee554a117dbc7f782e20d62bdd43d8dcf040dfb521d828242604051610d3d93929190614110565b600084118015610eb357506007548411155b610ebc57600080fd5b60008311610ec957600080fd5b60008211610ed657600080fd5b60008481526004602052604090206005810154831115610ef557600080fd5b60088054906000610f058361414f565b90915550506040805160e081018252868152602080820187815282840187815233606085018181526001608087018181524260a089019081528b151560c08a019081526008805460009081526005808c528d82209c518d5599518c870155975160028c0155945160038b01805494516001600160a01b039092166001600160a81b031990951694909417600160a01b9115159190910217909255516004808a0191909155905197909501805460ff1916971515979097179096559082526006808552868320825481548089018355918552868520909101559054600b80548088019091557f0175b7a638427703f0dbe7bb9bbf987a2551717b34e79f33b5b1008d1fa01db901558a82529183528481209091018054938401815581528190208351808501909452600f84526e4c697374656420666f722053616c6560881b9184019190915201906110569082613f91565b508281600501600082825461106b9190614168565b909155505060085460408051918252602082018790528101859052606081018490523360808201524260a08201527f74db1cf85b7690d991329cd32074d6249e834ec06591f8652f737065d42b040e9060c0015b60405180910390a15050505050565b600b81815481106110de57600080fd5b600091825260209091200154905081565b3360009081526001602052604090205460ff168061111757506000546001600160a01b031633145b61112057600080fd5b6040518060c001604052808781526020018681526020018581526020018481526020018381526020018281525060028760405161115d9190613f26565b9081526040519081900360200190208151819061117a9082613f91565b506020820151600182019061118f9082613f91565b50604082015160028201906111a49082613f91565b50606082015160038201906111b99082613f91565b50608082015160048201906111ce9082613f91565b5060a082015180516111ea916005840191602090910190613465565b509050506000805b60095481101561127c578760405160200161120d9190613f26565b60405160208183030381529060405280519060200120600982815481106112365761123661404f565b906000526020600020016040516020016112509190614065565b6040516020818303038152906040528051906020012003611274576001915061127c565b6001016111f2565b50806112c057600980546001810182556000919091527f6e1540171b6c0c960b71a7020d9f60077f6af931a8bbf590da0223dacf75c7af016112be8882613f91565b505b7f78384878ee8ef9f8c429173968af06c8e361a98cd306b33d813326106f36681f8733426040516112f393929190614181565b60405180910390a150505050505050565b606080606080606080600060028860405161131f9190613f26565b90815260200160405180910390206040518060c001604052908160008201805461134890613eec565b80601f016020809104026020016040519081016040528092919081815260200182805461137490613eec565b80156113c15780601f10611396576101008083540402835291602001916113c1565b820191906000526020600020905b8154815290600101906020018083116113a457829003601f168201915b505050505081526020016001820180546113da90613eec565b80601f016020809104026020016040519081016040528092919081815260200182805461140690613eec565b80156114535780601f1061142857610100808354040283529160200191611453565b820191906000526020600020905b81548152906001019060200180831161143657829003601f168201915b5050505050815260200160028201805461146c90613eec565b80601f016020809104026020016040519081016040528092919081815260200182805461149890613eec565b80156114e55780601f106114ba576101008083540402835291602001916114e5565b820191906000526020600020905b8154815290600101906020018083116114c857829003601f168201915b505050505081526020016003820180546114fe90613eec565b80601f016020809104026020016040519081016040528092919081815260200182805461152a90613eec565b80156115775780601f1061154c57610100808354040283529160200191611577565b820191906000526020600020905b81548152906001019060200180831161155a57829003601f168201915b5050505050815260200160048201805461159090613eec565b80601f01602080910402602001604051908101604052809291908181526020018280546115bc90613eec565b80156116095780601f106115de57610100808354040283529160200191611609565b820191906000526020600020905b8154815290600101906020018083116115ec57829003601f168201915b5050505050815260200160058201805480602002602001604051908101604052809291908181526020016000905b828210156116e357838290600052602060002001805461165690613eec565b80601f016020809104026020016040519081016040528092919081815260200182805461168290613eec565b80156116cf5780601f106116a4576101008083540402835291602001916116cf565b820191906000526020600020905b8154815290600101906020018083116116b257829003601f168201915b505050505081526020019060010190611637565b505050915250508051602082015160408301516060840151608085015160a090950151939d929c50909a509850919650945092505050565b6009818154811061095557600080fd5b6001600160a01b03811660009081526006602090815260409182902080548351818402810184019094528084526060939283018282801561178b57602002820191906000526020600020905b815481526020019060010190808311611777575b50505050509050919050565b6060600d826040516117a99190613f26565b908152602001604051809103902080546117c290613eec565b80601f01602080910402602001604051908101604052809291908181526020018280546117ee90613eec565b801561178b5780601f106118105761010080835404028352916020019161178b565b820191906000526020600020905b81548152906001019060200180831161181e5750939695505050505050565b60608060606000606060006060600060038960405161185c9190613f26565b90815260200160405180910390206040518060e001604052908160008201805461188590613eec565b80601f01602080910402602001604051908101604052809291908181526020018280546118b190613eec565b80156118fe5780601f106118d3576101008083540402835291602001916118fe565b820191906000526020600020905b8154815290600101906020018083116118e157829003601f168201915b5050505050815260200160018201805461191790613eec565b80601f016020809104026020016040519081016040528092919081815260200182805461194390613eec565b80156119905780601f1061196557610100808354040283529160200191611990565b820191906000526020600020905b81548152906001019060200180831161197357829003601f168201915b505050505081526020016002820180546119a990613eec565b80601f01602080910402602001604051908101604052809291908181526020018280546119d590613eec565b8015611a225780601f106119f757610100808354040283529160200191611a22565b820191906000526020600020905b815481529060010190602001808311611a0557829003601f168201915b5050505050815260200160038201548152602001600482018054611a4590613eec565b80601f0160208091040260200160405190810160405280929190818152602001828054611a7190613eec565b8015611abe5780601f10611a9357610100808354040283529160200191611abe565b820191906000526020600020905b815481529060010190602001808311611aa157829003601f168201915b505050918352505060058201546001600160a01b03166020808301919091526006830180546040805182850281018501825282815294019392830182828015611b2657602002820191906000526020600020905b815481526020019060010190808311611b12575b5050505050815250509050806000015181602001518260400151836060015184608001518560a001518660c00151975097509750975097509750975050919395979092949650565b606060006008546001600160401b03811115611b8c57611b8c613679565b604051908082528060200260200182016040528015611bb5578160200160208202803683370190505b5090506000805b600b54811015611c5d5760056000600b8381548110611bdd57611bdd61404f565b9060005260206000200154815260200190815260200160002060030160149054906101000a900460ff1615611c5557600b8181548110611c1f57611c1f61404f565b9060005260206000200154838381518110611c3c57611c3c61404f565b602090810291909101015281611c518161414f565b9250505b600101611bbc565b506000816001600160401b03811115611c7857611c78613679565b604051908082528060200260200182016040528015611ca1578160200160208202803683370190505b50905060005b82811015611cee57838181518110611cc157611cc161404f565b6020026020010151828281518110611cdb57611cdb61404f565b6020908102919091010152600101611ca7565b509392505050565b60608060006060600060608060008089118015611d1557506007548911155b611d1e57600080fd5b60008981526004602052604080822081516101008101909252805482908290611d4690613eec565b80601f0160208091040260200160405190810160405280929190818152602001828054611d7290613eec565b8015611dbf5780601f10611d9457610100808354040283529160200191611dbf565b820191906000526020600020905b815481529060010190602001808311611da257829003601f168201915b50505050508152602001600182018054611dd890613eec565b80601f0160208091040260200160405190810160405280929190818152602001828054611e0490613eec565b8015611e515780601f10611e2657610100808354040283529160200191611e51565b820191906000526020600020905b815481529060010190602001808311611e3457829003601f168201915b505050918352505060028201546001600160a01b0316602082015260038201546040820152600482018054606090920191611e8b90613eec565b80601f0160208091040260200160405190810160405280929190818152602001828054611eb790613eec565b8015611f045780601f10611ed957610100808354040283529160200191611f04565b820191906000526020600020905b815481529060010190602001808311611ee757829003601f168201915b505050505081526020016005820154815260200160068201805480602002602001604051908101604052809291908181526020016000905b82821015611fe8578382906000526020600020018054611f5b90613eec565b80601f0160208091040260200160405190810160405280929190818152602001828054611f8790613eec565b8015611fd45780601f10611fa957610100808354040283529160200191611fd4565b820191906000526020600020905b815481529060010190602001808311611fb757829003601f168201915b505050505081526020019060010190611f3c565b50505050815260200160078201805480602002602001604051908101604052809291908181526020016000905b828210156120c157838290600052602060002001805461203490613eec565b80601f016020809104026020016040519081016040528092919081815260200182805461206090613eec565b80156120ad5780601f10612082576101008083540402835291602001916120ad565b820191906000526020600020905b81548152906001019060200180831161209057829003601f168201915b505050505081526020019060010190612015565b505050508152505090508060000151816020015182604001518360c00151846060015185608001518660e001518760a001519850985098509850985098509850985050919395975091939597565b60008211801561212157506008548211155b61212a57600080fd5b60008281526005602052604090206003810154600160a01b900460ff1661215057600080fd5b600082118015612164575080600201548211155b61216d57600080fd5b600581015460ff16612189578060020154821461218957600080fd5b60008160020154826001015461219f91906141c5565b905060006121ad84836141d9565b9050803410156121bc57600080fd5b60038301546040516001600160a01b039091169082156108fc029083906000818181858888f193505050501580156121f8573d6000803e3d6000fd5b508383600201600082825461220d9190614168565b9091555050600283015460000361222e5760038301805460ff60a01b191690555b8254600090815260046020526040902060060161224a8561330a565b60405160200161225a91906141f0565b60408051601f198184030181529190528154600181018355600092835260209092209091019061228a9082613f91565b50604080518681523360208201529081018590524260608201527f7d3c39a6cce20f6949eff0833a4d54fca734dc7c6027773d8885e7faeac98a959060800160405180910390a182546040805191825260806020830181905260099083015268141d5c98da185cd95960ba1b60a083015233908201524260608201527f28222dbd9906bc73e71cbd7bd296a46d23de9224d425c30be175af99b4ab77419060c0016110bf565b60006002866040516123429190613f26565b90815260200160405180910390206040518060c001604052908160008201805461236b90613eec565b80601f016020809104026020016040519081016040528092919081815260200182805461239790613eec565b80156123e45780601f106123b9576101008083540402835291602001916123e4565b820191906000526020600020905b8154815290600101906020018083116123c757829003601f168201915b505050505081526020016001820180546123fd90613eec565b80601f016020809104026020016040519081016040528092919081815260200182805461242990613eec565b80156124765780601f1061244b57610100808354040283529160200191612476565b820191906000526020600020905b81548152906001019060200180831161245957829003601f168201915b5050505050815260200160028201805461248f90613eec565b80601f01602080910402602001604051908101604052809291908181526020018280546124bb90613eec565b80156125085780601f106124dd57610100808354040283529160200191612508565b820191906000526020600020905b8154815290600101906020018083116124eb57829003601f168201915b5050505050815260200160038201805461252190613eec565b80601f016020809104026020016040519081016040528092919081815260200182805461254d90613eec565b801561259a5780601f1061256f5761010080835404028352916020019161259a565b820191906000526020600020905b81548152906001019060200180831161257d57829003601f168201915b505050505081526020016004820180546125b390613eec565b80601f01602080910402602001604051908101604052809291908181526020018280546125df90613eec565b801561262c5780601f106126015761010080835404028352916020019161262c565b820191906000526020600020905b81548152906001019060200180831161260f57829003601f168201915b5050505050815260200160058201805480602002602001604051908101604052809291908181526020016000905b8282101561270657838290600052602060002001805461267990613eec565b80601f01602080910402602001604051908101604052809291908181526020018280546126a590613eec565b80156126f25780601f106126c7576101008083540402835291602001916126f2565b820191906000526020600020905b8154815290600101906020018083116126d557829003601f168201915b50505050508152602001906001019061265a565b5050509152505080515190915061271c57600080fd5b600c8460405161272c9190613f26565b9081526040519081900360200190205460ff1661274857600080fd5b6000821161275557600080fd5b600780549060006127658361414f565b9190505550604051806101000160405280878152602001868152602001336001600160a01b0316815260200142815260200184815260200183815260200160006001600160401b038111156127bc576127bc613679565b6040519080825280602002602001820160405280156127ef57816020015b60608152602001906001900390816127da5790505b508152602001600060405190808252806020026020018201604052801561282a57816020015b60608152602001906001900390816128155790505b50905260075460009081526004602052604090208151819061284c9082613f91565b50602082015160018201906128619082613f91565b5060408201516002820180546001600160a01b0319166001600160a01b0390921691909117905560608201516003820155608082015160048201906128a69082613f91565b5060a0820151600582015560c082015180516128cc916006840191602090910190613465565b5060e082015180516128e8916007840191602090910190613465565b5090505060006003856040516128fe9190613f26565b90815260405190819003602001902060058101549091506001600160a01b03166129425760075460068201805460018101825560009182526020909120015561297f565b6003856040516129529190613f26565b90815260405160209181900382019020600754600690910180546001810182556000918252929020909101555b6007546000908152600460209081526040808320600601805460018101825590845292829020815180830190925260158252742430b93b32b9ba32b210313c90283937b23ab1b2b960591b928201929092529101906129de9082613f91565b50600754604080519182526080602083018190526009908301526812185c9d995cdd195960ba1b60a083015233908201524260608201527f28222dbd9906bc73e71cbd7bd296a46d23de9224d425c30be175af99b4ab77419060c0016112f3565b6000546001600160a01b03163314612a5657600080fd5b6001600160a01b03166000908152600160205260409020805460ff19169055565b8051602081830181018051600382529282019190930120915280548190612a9d90613eec565b80601f0160208091040260200160405190810160405280929190818152602001828054612ac990613eec565b8015612b165780601f10612aeb57610100808354040283529160200191612b16565b820191906000526020600020905b815481529060010190602001808311612af957829003601f168201915b505050505090806001018054612b2b90613eec565b80601f0160208091040260200160405190810160405280929190818152602001828054612b5790613eec565b8015612ba45780601f10612b7957610100808354040283529160200191612ba4565b820191906000526020600020905b815481529060010190602001808311612b8757829003601f168201915b505050505090806002018054612bb990613eec565b80601f0160208091040260200160405190810160405280929190818152602001828054612be590613eec565b8015612c325780601f10612c0757610100808354040283529160200191612c32565b820191906000526020600020905b815481529060010190602001808311612c1557829003601f168201915b505050505090806003015490806004018054612c4d90613eec565b80601f0160208091040260200160405190810160405280929190818152602001828054612c7990613eec565b8015612cc65780601f10612c9b57610100808354040283529160200191612cc6565b820191906000526020600020905b815481529060010190602001808311612ca957829003601f168201915b505050600590930154919250506001600160a01b031686565b600082118015612cf157506007548211155b612cfa57600080fd5b600082815260046020908152604082206006018054600181018255908352912001612d258282613f91565b507f28222dbd9906bc73e71cbd7bd296a46d23de9224d425c30be175af99b4ab774182823342604051610d3d949392919061423e565b600460205260009081526040902080548190612d7690613eec565b80601f0160208091040260200160405190810160405280929190818152602001828054612da290613eec565b8015612def5780601f10612dc457610100808354040283529160200191612def565b820191906000526020600020905b815481529060010190602001808311612dd257829003601f168201915b505050505090806001018054612e0490613eec565b80601f0160208091040260200160405190810160405280929190818152602001828054612e3090613eec565b8015612e7d5780601f10612e5257610100808354040283529160200191612e7d565b820191906000526020600020905b815481529060010190602001808311612e6057829003601f168201915b505050506002830154600384015460048501805494956001600160a01b039093169491935090612eac90613eec565b80601f0160208091040260200160405190810160405280929190818152602001828054612ed890613eec565b8015612f255780601f10612efa57610100808354040283529160200191612f25565b820191906000526020600020905b815481529060010190602001808311612f0857829003601f168201915b5050505050908060050154905086565b8051602081830181018051600282529282019190930120915280548190612f5b90613eec565b80601f0160208091040260200160405190810160405280929190818152602001828054612f8790613eec565b8015612fd45780601f10612fa957610100808354040283529160200191612fd4565b820191906000526020600020905b815481529060010190602001808311612fb757829003601f168201915b505050505090806001018054612fe990613eec565b80601f016020809104026020016040519081016040528092919081815260200182805461301590613eec565b80156130625780601f1061303757610100808354040283529160200191613062565b820191906000526020600020905b81548152906001019060200180831161304557829003601f168201915b50505050509080600201805461307790613eec565b80601f01602080910402602001604051908101604052809291908181526020018280546130a390613eec565b80156130f05780601f106130c5576101008083540402835291602001916130f0565b820191906000526020600020905b8154815290600101906020018083116130d357829003601f168201915b50505050509080600301805461310590613eec565b80601f016020809104026020016040519081016040528092919081815260200182805461313190613eec565b801561317e5780601f106131535761010080835404028352916020019161317e565b820191906000526020600020905b81548152906001019060200180831161316157829003601f168201915b50505050509080600401805461319390613eec565b80601f01602080910402602001604051908101604052809291908181526020018280546131bf90613eec565b801561320c5780601f106131e15761010080835404028352916020019161320c565b820191906000526020600020905b8154815290600101906020018083116131ef57829003601f168201915b5050505050905085565b8051602081830181018051600d825292820191909301209152805461097090613eec565b6060600a805480602002602001604051908101604052809291908181526020016000905b8282101561085857838290600052602060002001805461327d90613eec565b80601f01602080910402602001604051908101604052809291908181526020018280546132a990613eec565b80156132f65780601f106132cb576101008083540402835291602001916132f6565b820191906000526020600020905b8154815290600101906020018083116132d957829003601f168201915b50505050508152602001906001019061325e565b6060816000036133315750506040805180820190915260018152600360fc1b602082015290565b8160005b811561335b57806133458161414f565b91506133549050600a836141c5565b9150613335565b6000816001600160401b0381111561337557613375613679565b6040519080825280601f01601f19166020018201604052801561339f576020820181803683370190505b509050815b8515613411576133b5600182614168565b905060006133c4600a88614273565b6133cf906030614287565b90508060f81b8383815181106133e7576133e761404f565b60200101906001600160f81b031916908160001a905350613409600a886141c5565b9650506133a4565b50949350505050565b828054828255906000526020600020908101928215613455579160200282015b8281111561345557825182559160200191906001019061343a565b506134619291506134b7565b5090565b8280548282559060005260206000209081019282156134ab579160200282015b828111156134ab578251829061349b9082613f91565b5091602001919060010190613485565b506134619291506134cc565b5b8082111561346157600081556001016134b8565b808211156134615760006134e082826134e9565b506001016134cc565b5080546134f590613eec565b6000825580601f10613505575050565b601f01602090049060005260206000209081019061352391906134b7565b50565b60005b83811015613541578181015183820152602001613529565b50506000910152565b60008151808452613562816020860160208601613526565b601f01601f19169290920160200192915050565b600082825180855260208501945060208160051b8301016020850160005b838110156135c657601f198584030188526135b083835161354a565b6020988901989093509190910190600101613594565b50909695505050505050565b6020815260006135e56020830184613576565b9392505050565b80356001600160a01b038116811461360357600080fd5b919050565b6000806040838503121561361b57600080fd5b613624836135ec565b946020939093013593505050565b60006020828403121561364457600080fd5b6135e5826135ec565b60006020828403121561365f57600080fd5b5035919050565b6020815260006135e5602083018461354a565b634e487b7160e01b600052604160045260246000fd5b604051601f8201601f191681016001600160401b03811182821017156136b7576136b7613679565b604052919050565b600082601f8301126136d057600080fd5b81356001600160401b038111156136e9576136e9613679565b6136fc601f8201601f191660200161368f565b81815284602083860101111561371157600080fd5b816020850160208301376000918101602001919091529392505050565b60006020828403121561374057600080fd5b81356001600160401b0381111561375657600080fd5b613762848285016136bf565b949350505050565b600080600080600060a0868803121561378257600080fd5b85356001600160401b0381111561379857600080fd5b6137a4888289016136bf565b95505060208601356001600160401b038111156137c057600080fd5b6137cc888289016136bf565b94505060408601356001600160401b038111156137e857600080fd5b6137f4888289016136bf565b93505060608601356001600160401b0381111561381057600080fd5b61381c888289016136bf565b92505060808601356001600160401b0381111561383857600080fd5b613844888289016136bf565b9150509295509295909350565b6000806040838503121561386457600080fd5b82356001600160401b0381111561387a57600080fd5b613886858286016136bf565b92505060208301356001600160401b038111156138a257600080fd5b6138ae858286016136bf565b9150509250929050565b600080604083850312156138cb57600080fd5b8235915060208301356001600160401b038111156138a257600080fd5b600080600080608085870312156138fe57600080fd5b8435935060208501359250604085013591506060850135801515811461392357600080fd5b939692955090935050565b600082601f83011261393f57600080fd5b81356001600160401b0381111561395857613958613679565b8060051b6139686020820161368f565b9182526020818501810192908101908684111561398457600080fd5b6020860192505b838310156139ca5782356001600160401b038111156139a957600080fd5b6139b8886020838a01016136bf565b8352506020928301929091019061398b565b9695505050505050565b60008060008060008060c087890312156139ed57600080fd5b86356001600160401b03811115613a0357600080fd5b613a0f89828a016136bf565b96505060208701356001600160401b03811115613a2b57600080fd5b613a3789828a016136bf565b95505060408701356001600160401b03811115613a5357600080fd5b613a5f89828a016136bf565b94505060608701356001600160401b03811115613a7b57600080fd5b613a8789828a016136bf565b93505060808701356001600160401b03811115613aa357600080fd5b613aaf89828a016136bf565b92505060a08701356001600160401b03811115613acb57600080fd5b613ad789828a0161392e565b9150509295509295509295565b60c081526000613af760c083018961354a565b8281036020840152613b09818961354a565b90508281036040840152613b1d818861354a565b90508281036060840152613b31818761354a565b90508281036080840152613b45818661354a565b905082810360a0840152613b598185613576565b9998505050505050505050565b600081518084526020840193506020830160005b82811015613b98578151865260209586019590910190600101613b7a565b5093949350505050565b6020815260006135e56020830184613b66565b60e081526000613bc860e083018a61354a565b8281036020840152613bda818a61354a565b90508281036040840152613bee818961354a565b90508660608401528281036080840152613c08818761354a565b6001600160a01b03861660a085015283810360c08501529050613c2b8185613b66565b9a9950505050505050505050565b61010081526000613c4e61010083018b61354a565b8281036020840152613c60818b61354a565b6001600160a01b038a16604085015283810360608501529050613c838189613576565b905086608084015282810360a0840152613c9d818761354a565b905082810360c0840152613cb18186613576565b9150508260e08301529998505050505050505050565b60008060408385031215613cda57600080fd5b50508035926020909101359150565b600080600080600060a08688031215613d0157600080fd5b85356001600160401b03811115613d1757600080fd5b613d23888289016136bf565b95505060208601356001600160401b03811115613d3f57600080fd5b613d4b888289016136bf565b94505060408601356001600160401b03811115613d6757600080fd5b613d73888289016136bf565b93505060608601356001600160401b03811115613d8f57600080fd5b613d9b888289016136bf565b95989497509295608001359392505050565b60c081526000613dc060c083018961354a565b8281036020840152613dd2818961354a565b90508281036040840152613de6818861354a565b90508560608401528281036080840152613e00818661354a565b91505060018060a01b03831660a0830152979650505050505050565b60c081526000613e2f60c083018961354a565b8281036020840152613e41818961354a565b6001600160a01b03881660408501526060840187905283810360808501529050613e6b818661354a565b9150508260a0830152979650505050505050565b60a081526000613e9260a083018861354a565b8281036020840152613ea4818861354a565b90508281036040840152613eb8818761354a565b90508281036060840152613ecc818661354a565b90508281036080840152613ee0818561354a565b98975050505050505050565b600181811c90821680613f0057607f821691505b602082108103613f2057634e487b7160e01b600052602260045260246000fd5b50919050565b60008251613f38818460208701613526565b9190910192915050565b601f821115613f8c57806000526020600020601f840160051c81016020851015613f695750805b601f840160051c820191505b81811015613f895760008155600101613f75565b50505b505050565b81516001600160401b03811115613faa57613faa613679565b613fbe81613fb88454613eec565b84613f42565b6020601f821160018114613ff25760008315613fda5750848201515b600019600385901b1c1916600184901b178455613f89565b600084815260208120601f198516915b828110156140225787850151825560209485019460019092019101614002565b50848210156140405786840151600019600387901b60f8161c191681555b50505050600190811b01905550565b634e487b7160e01b600052603260045260246000fd5b600080835461407381613eec565b60018216801561408a576001811461409f576140cf565b60ff19831686528115158202860193506140cf565b86600052602060002060005b838110156140c7578154888201526001909101906020016140ab565b505081860193505b509195945050505050565b6060815260006140ed606083018661354a565b82810360208401526140ff818661354a565b915050826040830152949350505050565b838152606060208201526000614129606083018561354a565b9050826040830152949350505050565b634e487b7160e01b600052601160045260246000fd5b60006001820161416157614161614139565b5060010190565b8181038181111561417b5761417b614139565b92915050565b606081526000614194606083018661354a565b6001600160a01b039490941660208301525060400152919050565b634e487b7160e01b600052601260045260246000fd5b6000826141d4576141d46141af565b500490565b808202811582820484141761417b5761417b614139565b690283ab931b430b9b2b2160b51b81526000825161421581600a850160208701613526565b71103ab734ba3990313c9021bab9ba37b6b2b960711b600a939091019283015250601c01919050565b848152608060208201526000614257608083018661354a565b6001600160a01b03949094166040830152506060015292915050565b600082614282576142826141af565b500690565b8082018082111561417b5761417b61413956fea26469706673582212208e4414614bf325330a6ca45103c0a62c82e5f4ef301ea31b4f677d257612960c64736f6c634300081c0033",
  "linkReferences": {},
  "deployedLinkReferences": {}
}