{
  "_format": "hh-sol-artifact-1",
  "contractName": "FruitSupplyChain",
  "sourceName": "contracts/FruitSupplyChain.sol",
  "abi": [
    {
      "inputs": [],
      "stateMutability": "nonpayable",
      "type": "constructor"
    },
    {
      "anonymous": false,
      "inputs": [
        {
          "indexed": false,
          "internalType": "string",
          "name": "fruitType",
          "type": "string"
        },
        {
          "indexed": false,
          "internalType": "address",
          "name": "by",
          "type": "address"
        },
        {
          "indexed": false,
          "internalType": "uint256",
          "name": "timestamp",
          "type": "uint256"
        }
      ],
      "name": "CatalogAdded",
      "type": "event"
    },
    {
      "anonymous": false,
      "inputs": [
        {
          "indexed": false,
          "internalType": "string",
          "name": "farmId",
          "type": "string"
        },
        {
          "indexed": false,
          "internalType": "string",
          "name": "conditions",
          "type": "string"
        },
        {
          "indexed": false,
          "internalType": "uint256",
          "name": "timestamp",
          "type": "uint256"
        }
      ],
      "name": "FarmUpdated",
      "type": "event"
    },
    {
      "anonymous": false,
      "inputs": [
        {
          "indexed": false,
          "internalType": "string",
          "name": "fruitType",
          "type": "string"
        },
        {
          "indexed": false,
          "internalType": "string",
          "name": "ipfsHash",
          "type": "string"
        },
        {
          "indexed": false,
          "internalType": "uint256",
          "name": "timestamp",
          "type": "uint256"
        }
      ],
      "name": "FruitHashUpdated",
      "type": "event"
    },
    {
      "anonymous": false,
      "inputs": [
        {
          "indexed": false,
          "internalType": "uint256",
          "name": "listingId",
          "type": "uint256"
        },
        {
          "indexed": false,
          "internalType": "uint256",
          "name": "fruitId",
          "type": "uint256"
        },
        {
          "indexed": false,
          "internalType": "uint256",
          "name": "price",
          "type": "uint256"
        },
        {
          "indexed": false,
          "internalType": "uint256",
          "name": "quantity",
          "type": "uint256"
        },
        {
          "indexed": false,
          "internalType": "address",
          "name": "seller",
          "type": "address"
        },
        {
          "indexed": false,
          "internalType": "uint256",
          "name": "timestamp",
          "type": "uint256"
        }
      ],
      "name": "ProductListed",
      "type": "event"
    },
    {
      "anonymous": false,
      "inputs": [
        {
          "indexed": false,
          "internalType": "uint256",
          "name": "listingId",
          "type": "uint256"
        },
        {
          "indexed": false,
          "internalType": "address",
          "name": "buyer",
          "type": "address"
        },
        {
          "indexed": false,
          "internalType": "uint256",
          "name": "quantity",
          "type": "uint256"
        },
        {
          "indexed": false,
          "internalType": "uint256",
          "name": "timestamp",
          "type": "uint256"
        }
      ],
      "name": "ProductPurchased",
      "type": "event"
    },
    {
      "anonymous": false,
      "inputs": [
        {
          "indexed": false,
          "internalType": "uint256",
          "name": "fruitId",
          "type": "uint256"
        },
        {
          "indexed": false,
          "internalType": "string",
          "name": "recommendation",
          "type": "string"
        },
        {
          "indexed": false,
          "internalType": "uint256",
          "name": "timestamp",
          "type": "uint256"
        }
      ],
      "name": "RecommendationAdded",
      "type": "event"
    },
    {
      "anonymous": false,
      "inputs": [
        {
          "indexed": false,
          "internalType": "uint256",
          "name": "fruitId",
          "type": "uint256"
        },
        {
          "indexed": false,
          "internalType": "string",
          "name": "step",
          "type": "string"
        },
        {
          "indexed": false,
          "internalType": "address",
          "name": "by",
          "type": "address"
        },
        {
          "indexed": false,
          "internalType": "uint256",
          "name": "timestamp",
          "type": "uint256"
        }
      ],
      "name": "StepRecorded",
      "type": "event"
    },
    {
      "inputs": [
        {
          "internalType": "string",
          "name": "_fruitType",
          "type": "string"
        },
        {
          "internalType": "string",
          "name": "_description",
          "type": "string"
        },
        {
          "internalType": "string",
          "name": "_growingSeason",
          "type": "string"
        },
        {
          "internalType": "string",
          "name": "_nutritionalValue",
          "type": "string"
        },
        {
          "internalType": "string",
          "name": "_storageConditions",
          "type": "string"
        },
        {
          "internalType": "string[]",
          "name": "_commonVarieties",
          "type": "string[]"
        }
      ],
      "name": "addFruitCatalog",
      "outputs": [],
      "stateMutability": "nonpayable",
      "type": "function"
    },
    {
      "inputs": [
        {
          "internalType": "address",
          "name": "_manager",
          "type": "address"
        }
      ],
      "name": "addManager",
      "outputs": [],
      "stateMutability": "nonpayable",
      "type": "function"
    },
    {
      "inputs": [
        {
          "internalType": "uint256",
          "name": "_fruitId",
          "type": "uint256"
        },
        {
          "internalType": "string",
          "name": "_recommendation",
          "type": "string"
        }
      ],
      "name": "addRecommendation",
      "outputs": [],
      "stateMutability": "nonpayable",
      "type": "function"
    },
    {
      "inputs": [
        {
          "internalType": "address",
          "name": "",
          "type": "address"
        }
      ],
      "name": "authorizedManagers",
      "outputs": [
        {
          "internalType": "bool",
          "name": "",
          "type": "bool"
        }
      ],
      "stateMutability": "view",
      "type": "function"
    },
    {
      "inputs": [
        {
          "internalType": "string",
          "name": "",
          "type": "string"
        }
      ],
      "name": "farms",
      "outputs": [
        {
          "internalType": "string",
          "name": "location",
          "type": "string"
        },
        {
          "internalType": "string",
          "name": "climate",
          "type": "string"
        },
        {
          "internalType": "string",
          "name": "soil",
          "type": "string"
        },
        {
          "internalType": "uint256",
          "name": "lastUpdated",
          "type": "uint256"
        },
        {
          "internalType": "string",
          "name": "currentConditions",
          "type": "string"
        },
        {
          "internalType": "address",
          "name": "owner",
          "type": "address"
        }
      ],
      "stateMutability": "view",
      "type": "function"
    },
    {
      "inputs": [
        {
          "internalType": "string",
          "name": "",
          "type": "string"
        }
      ],
      "name": "fruitCatalogs",
      "outputs": [
        {
          "internalType": "string",
          "name": "name",
          "type": "string"
        },
        {
          "internalType": "string",
          "name": "description",
          "type": "string"
        },
        {
          "internalType": "string",
          "name": "growingSeason",
          "type": "string"
        },
        {
          "internalType": "string",
          "name": "nutritionalValue",
          "type": "string"
        },
        {
          "internalType": "string",
          "name": "storageConditions",
          "type": "string"
        }
      ],
      "stateMutability": "view",
      "type": "function"
    },
    {
      "inputs": [],
      "name": "fruitCount",
      "outputs": [
        {
          "internalType": "uint256",
          "name": "",
          "type": "uint256"
        }
      ],
      "stateMutability": "view",
      "type": "function"
    },
    {
      "inputs": [
        {
          "internalType": "string",
          "name": "",
          "type": "string"
        }
      ],
      "name": "fruitHashes",
      "outputs": [
        {
          "internalType": "string",
          "name": "",
          "type": "string"
        }
      ],
      "stateMutability": "view",
      "type": "function"
    },
    {
      "inputs": [
        {
          "internalType": "uint256",
          "name": "",
          "type": "uint256"
        }
      ],
      "name": "fruits",
      "outputs": [
        {
          "internalType": "string",
          "name": "fruitType",
          "type": "string"
        },
        {
          "internalType": "string",
          "name": "origin",
          "type": "string"
        },
        {
          "internalType": "address",
          "name": "producer",
          "type": "address"
        },
        {
          "internalType": "uint256",
          "name": "harvestDate",
          "type": "uint256"
        },
        {
          "internalType": "string",
          "name": "quality",
          "type": "string"
        }
      ],
      "stateMutability": "view",
      "type": "function"
    },
    {
      "inputs": [],
      "name": "getAllActiveListings",
      "outputs": [
        {
          "internalType": "uint256[]",
          "name": "",
          "type": "uint256[]"
        }
      ],
      "stateMutability": "view",
      "type": "function"
    },
    {
      "inputs": [],
      "name": "getAllFarms",
      "outputs": [
        {
          "internalType": "string[]",
          "name": "",
          "type": "string[]"
        }
      ],
      "stateMutability": "view",
      "type": "function"
    },
    {
      "inputs": [],
      "name": "getAllFruitTypes",
      "outputs": [
        {
          "internalType": "string[]",
          "name": "",
          "type": "string[]"
        }
      ],
      "stateMutability": "view",
      "type": "function"
    },
    {
      "inputs": [
        {
          "internalType": "string",
          "name": "_farmId",
          "type": "string"
        }
      ],
      "name": "getFarmData",
      "outputs": [
        {
          "internalType": "string",
          "name": "",
          "type": "string"
        },
        {
          "internalType": "string",
          "name": "",
          "type": "string"
        },
        {
          "internalType": "string",
          "name": "",
          "type": "string"
        },
        {
          "internalType": "uint256",
          "name": "",
          "type": "uint256"
        },
        {
          "internalType": "string",
          "name": "",
          "type": "string"
        },
        {
          "internalType": "address",
          "name": "",
          "type": "address"
        },
        {
          "internalType": "uint256[]",
          "name": "",
          "type": "uint256[]"
        }
      ],
      "stateMutability": "view",
      "type": "function"
    },
    {
      "inputs": [
        {
          "internalType": "uint256",
          "name": "_fruitId",
          "type": "uint256"
        }
      ],
      "name": "getFruit",
      "outputs": [
        {
          "internalType": "string",
          "name": "",
          "type": "string"
        },
        {
          "internalType": "string",
          "name": "",
          "type": "string"
        },
        {
          "internalType": "address",
          "name": "",
          "type": "address"
        },
        {
          "internalType": "string[]",
          "name": "",
          "type": "string[]"
        },
        {
          "internalType": "uint256",
          "name": "",
          "type": "uint256"
        },
        {
          "internalType": "string",
          "name": "",
          "type": "string"
        },
        {
          "internalType": "string[]",
          "name": "",
          "type": "string[]"
        }
      ],
      "stateMutability": "view",
      "type": "function"
    },
    {
      "inputs": [
        {
          "internalType": "string",
          "name": "_fruitType",
          "type": "string"
        }
      ],
      "name": "getFruitCatalog",
      "outputs": [
        {
          "internalType": "string",
          "name": "",
          "type": "string"
        },
        {
          "internalType": "string",
          "name": "",
          "type": "string"
        },
        {
          "internalType": "string",
          "name": "",
          "type": "string"
        },
        {
          "internalType": "string",
          "name": "",
          "type": "string"
        },
        {
          "internalType": "string",
          "name": "",
          "type": "string"
        },
        {
          "internalType": "string[]",
          "name": "",
          "type": "string[]"
        }
      ],
      "stateMutability": "view",
      "type": "function"
    },
    {
      "inputs": [
        {
          "internalType": "string",
          "name": "fruitType",
          "type": "string"
        }
      ],
      "name": "getFruitHash",
      "outputs": [
        {
          "internalType": "string",
          "name": "",
          "type": "string"
        }
      ],
      "stateMutability": "view",
      "type": "function"
    },
    {
      "inputs": [
        {
          "internalType": "uint256",
          "name": "_listingId",
          "type": "uint256"
        }
      ],
      "name": "getListedProduct",
      "outputs": [
        {
          "internalType": "uint256",
          "name": "fruitId",
          "type": "uint256"
        },
        {
          "internalType": "uint256",
          "name": "price",
          "type": "uint256"
        },
        {
          "internalType": "uint256",
          "name": "quantity",
          "type": "uint256"
        },
        {
          "internalType": "address",
          "name": "seller",
          "type": "address"
        },
        {
          "internalType": "bool",
          "name": "isActive",
          "type": "bool"
        },
        {
          "internalType": "uint256",
          "name": "listedTimestamp",
          "type": "uint256"
        }
      ],
      "stateMutability": "view",
      "type": "function"
    },
    {
      "inputs": [
        {
          "internalType": "address",
          "name": "_seller",
          "type": "address"
        }
      ],
      "name": "getSellerListings",
      "outputs": [
        {
          "internalType": "uint256[]",
          "name": "",
          "type": "uint256[]"
        }
      ],
      "stateMutability": "view",
      "type": "function"
    },
    {
      "inputs": [
        {
          "internalType": "string",
          "name": "_fruitType",
          "type": "string"
        },
        {
          "internalType": "string",
          "name": "_origin",
          "type": "string"
        },
        {
          "internalType": "string",
          "name": "_farmId",
          "type": "string"
        },
        {
          "internalType": "string",
          "name": "_quality",
          "type": "string"
        }
      ],
      "name": "harvestFruit",
      "outputs": [],
      "stateMutability": "nonpayable",
      "type": "function"
    },
    {
      "inputs": [
        {
          "internalType": "uint256",
          "name": "_fruitId",
          "type": "uint256"
        },
        {
          "internalType": "uint256",
          "name": "_price",
          "type": "uint256"
        },
        {
          "internalType": "uint256",
          "name": "_quantity",
          "type": "uint256"
        }
      ],
      "name": "listProductForSale",
      "outputs": [],
      "stateMutability": "nonpayable",
      "type": "function"
    },
    {
      "inputs": [
        {
          "internalType": "uint256",
          "name": "",
          "type": "uint256"
        }
      ],
      "name": "listedProducts",
      "outputs": [
        {
          "internalType": "uint256",
          "name": "fruitId",
          "type": "uint256"
        },
        {
          "internalType": "uint256",
          "name": "price",
          "type": "uint256"
        },
        {
          "internalType": "uint256",
          "name": "quantity",
          "type": "uint256"
        },
        {
          "internalType": "address",
          "name": "seller",
          "type": "address"
        },
        {
          "internalType": "bool",
          "name": "isActive",
          "type": "bool"
        },
        {
          "internalType": "uint256",
          "name": "listedTimestamp",
          "type": "uint256"
        }
      ],
      "stateMutability": "view",
      "type": "function"
    },
    {
      "inputs": [],
      "name": "listingCount",
      "outputs": [
        {
          "internalType": "uint256",
          "name": "",
          "type": "uint256"
        }
      ],
      "stateMutability": "view",
      "type": "function"
    },
    {
      "inputs": [
        {
          "internalType": "uint256",
          "name": "",
          "type": "uint256"
        }
      ],
      "name": "listingIds",
      "outputs": [
        {
          "internalType": "uint256",
          "name": "",
          "type": "uint256"
        }
      ],
      "stateMutability": "view",
      "type": "function"
    },
    {
      "inputs": [],
      "name": "owner",
      "outputs": [
        {
          "internalType": "address",
          "name": "",
          "type": "address"
        }
      ],
      "stateMutability": "view",
      "type": "function"
    },
    {
      "inputs": [
        {
          "internalType": "uint256",
          "name": "_listingId",
          "type": "uint256"
        },
        {
          "internalType": "uint256",
          "name": "_quantity",
          "type": "uint256"
        }
      ],
      "name": "purchaseProduct",
      "outputs": [],
      "stateMutability": "payable",
      "type": "function"
    },
    {
      "inputs": [
        {
          "internalType": "uint256",
          "name": "_fruitId",
          "type": "uint256"
        },
        {
          "internalType": "string",
          "name": "_step",
          "type": "string"
        }
      ],
      "name": "recordStep",
      "outputs": [],
      "stateMutability": "nonpayable",
      "type": "function"
    },
    {
      "inputs": [
        {
          "internalType": "string",
          "name": "_farmId",
          "type": "string"
        },
        {
          "internalType": "string",
          "name": "_location",
          "type": "string"
        },
        {
          "internalType": "string",
          "name": "_climate",
          "type": "string"
        },
        {
          "internalType": "string",
          "name": "_soil",
          "type": "string"
        },
        {
          "internalType": "string",
          "name": "_currentConditions",
          "type": "string"
        }
      ],
      "name": "registerFarm",
      "outputs": [],
      "stateMutability": "nonpayable",
      "type": "function"
    },
    {
      "inputs": [
        {
          "internalType": "uint256",
          "name": "",
          "type": "uint256"
        }
      ],
      "name": "registeredFarms",
      "outputs": [
        {
          "internalType": "string",
          "name": "",
          "type": "string"
        }
      ],
      "stateMutability": "view",
      "type": "function"
    },
    {
      "inputs": [
        {
          "internalType": "uint256",
          "name": "",
          "type": "uint256"
        }
      ],
      "name": "registeredFruitTypes",
      "outputs": [
        {
          "internalType": "string",
          "name": "",
          "type": "string"
        }
      ],
      "stateMutability": "view",
      "type": "function"
    },
    {
      "inputs": [
        {
          "internalType": "address",
          "name": "_manager",
          "type": "address"
        }
      ],
      "name": "removeManager",
      "outputs": [],
      "stateMutability": "nonpayable",
      "type": "function"
    },
    {
      "inputs": [
        {
          "internalType": "address",
          "name": "",
          "type": "address"
        },
        {
          "internalType": "uint256",
          "name": "",
          "type": "uint256"
        }
      ],
      "name": "sellerListings",
      "outputs": [
        {
          "internalType": "uint256",
          "name": "",
          "type": "uint256"
        }
      ],
      "stateMutability": "view",
      "type": "function"
    },
    {
      "inputs": [
        {
          "internalType": "string",
          "name": "fruitType",
          "type": "string"
        },
        {
          "internalType": "string",
          "name": "ipfsHash",
          "type": "string"
        }
      ],
      "name": "setFruitHash",
      "outputs": [],
      "stateMutability": "nonpayable",
      "type": "function"
    },
    {
      "inputs": [
        {
          "internalType": "string",
          "name": "_farmId",
          "type": "string"
        },
        {
          "internalType": "string",
          "name": "_conditions",
          "type": "string"
        }
      ],
      "name": "updateFarmConditions",
      "outputs": [],
      "stateMutability": "nonpayable",
      "type": "function"
    }
  ],
  "bytecode": "0x6080604052348015600f57600080fd5b50336000806101000a81548173ffffffffffffffffffffffffffffffffffffffff021916908373ffffffffffffffffffffffffffffffffffffffff16021790555060018060003373ffffffffffffffffffffffffffffffffffffffff1673ffffffffffffffffffffffffffffffffffffffff16815260200190815260200160002060006101000a81548160ff021916908315150217905550615e50806100b66000396000f3fe6080604052600436106101ee5760003560e01c80636bf62cf81161010d578063ac9f1276116100a0578063ceadca131161006f578063ceadca13146107a5578063d8ab96bc146107e7578063e32eca8d14610824578063f493008d1461084d578063f955977414610878576101ee565b8063ac9f1276146106b8578063bc5e8cd7146106fa578063c417216214610723578063c71b89b514610764576101ee565b8063a0440426116100dc578063a04404261461061f578063a53fb79d1461063b578063a9b07c2614610664578063ac18de431461068f576101ee565b80636bf62cf814610543578063701e50841461058657806376ce7fe9146105b15780638da5cb5b146105f4576101ee565b806343622b811161018557806358cf8f511161015457806358cf8f511461044a57806358eed1741461048c5780635f42da09146104c95780636a03089d14610506576101ee565b806343622b81146103925780635154da5a146103bb57806352bea360146103e4578063569de6fd14610421576101ee565b80631fc15e93116101c15780631fc15e93146102da5780632d06177a146103175780633f50e5af1461034057806342c7f63f14610369576101ee565b8063046c6712146101f3578063054564f01461021e5780630a3cb21b1461025b5780631b4dba9b14610298575b600080fd5b3480156101ff57600080fd5b506102086108a3565b60405161021591906142c3565b60405180910390f35b34801561022a57600080fd5b506102456004803603810190610240919061438d565b61097c565b60405161025291906143dc565b60405180910390f35b34801561026757600080fd5b50610282600480360381019061027d91906143f7565b6109ad565b60405161028f919061443f565b60405180910390f35b3480156102a457600080fd5b506102bf60048036038101906102ba919061445a565b6109cd565b6040516102d196959493929190614496565b60405180910390f35b3480156102e657600080fd5b5061030160048036038101906102fc919061445a565b610b16565b60405161030e9190614541565b60405180910390f35b34801561032357600080fd5b5061033e600480360381019061033991906143f7565b610bc2565b005b34801561034c57600080fd5b5061036760048036038101906103629190614698565b610caa565b005b34801561037557600080fd5b50610390600480360381019061038b919061479f565b610f3a565b005b34801561039e57600080fd5b506103b960048036038101906103b4919061479f565b610fa5565b005b3480156103c757600080fd5b506103e260048036038101906103dd9190614817565b611108565b005b3480156103f057600080fd5b5061040b6004803603810190610406919061445a565b6112c3565b60405161041891906143dc565b60405180910390f35b34801561042d57600080fd5b5061044860048036038101906104439190614959565b6112e7565b005b34801561045657600080fd5b50610471600480360381019061046c9190614a8e565b6115b9565b60405161048396959493929190614ad7565b60405180910390f35b34801561049857600080fd5b506104b360048036038101906104ae919061445a565b6119d6565b6040516104c09190614541565b60405180910390f35b3480156104d557600080fd5b506104f060048036038101906104eb91906143f7565b611a82565b6040516104fd9190614c20565b60405180910390f35b34801561051257600080fd5b5061052d60048036038101906105289190614a8e565b611b19565b60405161053a9190614541565b60405180910390f35b34801561054f57600080fd5b5061056a60048036038101906105659190614a8e565b611bc9565b60405161057d9796959493929190614c42565b60405180910390f35b34801561059257600080fd5b5061059b611f40565b6040516105a89190614c20565b60405180910390f35b3480156105bd57600080fd5b506105d860048036038101906105d3919061445a565b6120ed565b6040516105eb9796959493929190614cd4565b60405180910390f35b34801561060057600080fd5b50610609612571565b6040516106169190614d66565b60405180910390f35b61063960048036038101906106349190614d81565b612595565b005b34801561064757600080fd5b50610662600480360381019061065d9190614dc1565b6128ad565b005b34801561067057600080fd5b50610679613070565b60405161068691906143dc565b60405180910390f35b34801561069b57600080fd5b506106b660048036038101906106b191906143f7565b613076565b005b3480156106c457600080fd5b506106df60048036038101906106da9190614a8e565b61315f565b6040516106f196959493929190614e98565b60405180910390f35b34801561070657600080fd5b50610721600480360381019061071c9190614817565b6133f1565b005b34801561072f57600080fd5b5061074a6004803603810190610745919061445a565b6134cc565b60405161075b959493929190614f15565b60405180910390f35b34801561077057600080fd5b5061078b60048036038101906107869190614a8e565b6136ba565b60405161079c959493929190614f7d565b60405180910390f35b3480156107b157600080fd5b506107cc60048036038101906107c7919061445a565b6139ae565b6040516107de96959493929190614496565b60405180910390f35b3480156107f357600080fd5b5061080e60048036038101906108099190614a8e565b613a17565b60405161081b9190614541565b60405180910390f35b34801561083057600080fd5b5061084b60048036038101906108469190614ff3565b613acd565b005b34801561085957600080fd5b50610862613dff565b60405161086f91906143dc565b60405180910390f35b34801561088457600080fd5b5061088d613e05565b60405161089a91906142c3565b60405180910390f35b60606009805480602002602001604051908101604052809291908181526020016000905b828210156109735783829060005260206000200180546108e690615075565b80601f016020809104026020016040519081016040528092919081815260200182805461091290615075565b801561095f5780601f106109345761010080835404028352916020019161095f565b820191906000526020600020905b81548152906001019060200180831161094257829003601f168201915b5050505050815260200190600101906108c7565b50505050905090565b6006602052816000526040600020818154811061099857600080fd5b90600052602060002001600091509150505481565b60016020528060005260406000206000915054906101000a900460ff1681565b6000806000806000806000871180156109e857506008548711155b610a27576040517f08c379a0000000000000000000000000000000000000000000000000000000008152600401610a1e906150f2565b60405180910390fd5b6000600560008981526020019081526020016000206040518060c00160405290816000820154815260200160018201548152602001600282015481526020016003820160009054906101000a900473ffffffffffffffffffffffffffffffffffffffff1673ffffffffffffffffffffffffffffffffffffffff1673ffffffffffffffffffffffffffffffffffffffff1681526020016003820160149054906101000a900460ff161515151581526020016004820154815250509050806000015181602001518260400151836060015184608001518560a001519650965096509650965096505091939550919395565b600a8181548110610b2657600080fd5b906000526020600020016000915090508054610b4190615075565b80601f0160208091040260200160405190810160405280929190818152602001828054610b6d90615075565b8015610bba5780601f10610b8f57610100808354040283529160200191610bba565b820191906000526020600020905b815481529060010190602001808311610b9d57829003601f168201915b505050505081565b60008054906101000a900473ffffffffffffffffffffffffffffffffffffffff1673ffffffffffffffffffffffffffffffffffffffff163373ffffffffffffffffffffffffffffffffffffffff1614610c50576040517f08c379a0000000000000000000000000000000000000000000000000000000008152600401610c4790615184565b60405180910390fd5b60018060008373ffffffffffffffffffffffffffffffffffffffff1673ffffffffffffffffffffffffffffffffffffffff16815260200190815260200160002060006101000a81548160ff02191690831515021790555050565b6040518060e00160405280858152602001848152602001838152602001600081526020018281526020013373ffffffffffffffffffffffffffffffffffffffff168152602001600067ffffffffffffffff811115610d0b57610d0a61456d565b5b604051908082528060200260200182016040528015610d395781602001602082028036833780820191505090505b50815250600386604051610d4d91906151e0565b90815260200160405180910390206000820151816000019081610d7091906153a3565b506020820151816001019081610d8691906153a3565b506040820151816002019081610d9c91906153a3565b50606082015181600301556080820151816004019081610dbc91906153a3565b5060a08201518160050160006101000a81548173ffffffffffffffffffffffffffffffffffffffff021916908373ffffffffffffffffffffffffffffffffffffffff16021790555060c0820151816006019080519060200190610e2092919061404a565b509050506000805b600a80549050811015610ebb5786604051602001610e4691906151e0565b60405160208183030381529060405280519060200120600a8281548110610e7057610e6f615475565b5b90600052602060002001604051602001610e8a9190615527565b6040516020818303038152906040528051906020012003610eae5760019150610ebb565b8080600101915050610e28565b5080610ef757600a86908060018154018082558091505060019003906000526020600020016000909190919091509081610ef591906153a3565b505b7fef9e0a850bb9971e155f20e4b0e490cdeafc72eab8d0da56fe2f1585ad9567de868342604051610f2a9392919061553e565b60405180910390a1505050505050565b80600c83604051610f4b91906151e0565b90815260200160405180910390209081610f6591906153a3565b507f888bf677ec642f934df90bbc78f33cc2d32f3d50b0d2bc286d26ef35d69c89b4828242604051610f999392919061553e565b60405180910390a15050565b6000600383604051610fb791906151e0565b908152602001604051809103902090503373ffffffffffffffffffffffffffffffffffffffff168160050160009054906101000a900473ffffffffffffffffffffffffffffffffffffffff1673ffffffffffffffffffffffffffffffffffffffff16148061106e5750600160003373ffffffffffffffffffffffffffffffffffffffff1673ffffffffffffffffffffffffffffffffffffffff16815260200190815260200160002060009054906101000a900460ff165b6110ad576040517f08c379a00000000000000000000000000000000000000000000000000000000081526004016110a4906155cf565b60405180910390fd5b818160040190816110be91906153a3565b504281600301819055507fef9e0a850bb9971e155f20e4b0e490cdeafc72eab8d0da56fe2f1585ad9567de8383426040516110fb9392919061553e565b60405180910390a1505050565b600160003373ffffffffffffffffffffffffffffffffffffffff1673ffffffffffffffffffffffffffffffffffffffff16815260200190815260200160002060009054906101000a900460ff16806111ab575060008054906101000a900473ffffffffffffffffffffffffffffffffffffffff1673ffffffffffffffffffffffffffffffffffffffff163373ffffffffffffffffffffffffffffffffffffffff16145b6111ea576040517f08c379a00000000000000000000000000000000000000000000000000000000081526004016111e1906155cf565b60405180910390fd5b6000821180156111fc57506007548211155b61123b576040517f08c379a00000000000000000000000000000000000000000000000000000000081526004016112329061563b565b60405180910390fd5b600460008381526020019081526020016000206006018190806001815401808255809150506001900390600052602060002001600090919091909150908161128391906153a3565b507f40e632d4a93e307bc4fd8ee554a117dbc7f782e20d62bdd43d8dcf040dfb521d8282426040516112b79392919061565b565b60405180910390a15050565b600b81815481106112d357600080fd5b906000526020600020016000915090505481565b600160003373ffffffffffffffffffffffffffffffffffffffff1673ffffffffffffffffffffffffffffffffffffffff16815260200190815260200160002060009054906101000a900460ff168061138a575060008054906101000a900473ffffffffffffffffffffffffffffffffffffffff1673ffffffffffffffffffffffffffffffffffffffff163373ffffffffffffffffffffffffffffffffffffffff16145b6113c9576040517f08c379a00000000000000000000000000000000000000000000000000000000081526004016113c0906155cf565b60405180910390fd5b6040518060c001604052808781526020018681526020018581526020018481526020018381526020018281525060028760405161140691906151e0565b9081526020016040518091039020600082015181600001908161142991906153a3565b50602082015181600101908161143f91906153a3565b50604082015181600201908161145591906153a3565b50606082015181600301908161146b91906153a3565b50608082015181600401908161148191906153a3565b5060a082015181600501908051906020019061149e929190614097565b509050506000805b60098054905081101561153957876040516020016114c491906151e0565b60405160208183030381529060405280519060200120600982815481106114ee576114ed615475565b5b906000526020600020016040516020016115089190615527565b604051602081830303815290604052805190602001200361152c5760019150611539565b80806001019150506114a6565b50806115755760098790806001815401808255809150506001900390600052602060002001600090919091909150908161157391906153a3565b505b7f78384878ee8ef9f8c429173968af06c8e361a98cd306b33d813326106f36681f8733426040516115a893929190615699565b60405180910390a150505050505050565b60608060608060608060006002886040516115d491906151e0565b90815260200160405180910390206040518060c00160405290816000820180546115fd90615075565b80601f016020809104026020016040519081016040528092919081815260200182805461162990615075565b80156116765780601f1061164b57610100808354040283529160200191611676565b820191906000526020600020905b81548152906001019060200180831161165957829003601f168201915b5050505050815260200160018201805461168f90615075565b80601f01602080910402602001604051908101604052809291908181526020018280546116bb90615075565b80156117085780601f106116dd57610100808354040283529160200191611708565b820191906000526020600020905b8154815290600101906020018083116116eb57829003601f168201915b5050505050815260200160028201805461172190615075565b80601f016020809104026020016040519081016040528092919081815260200182805461174d90615075565b801561179a5780601f1061176f5761010080835404028352916020019161179a565b820191906000526020600020905b81548152906001019060200180831161177d57829003601f168201915b505050505081526020016003820180546117b390615075565b80601f01602080910402602001604051908101604052809291908181526020018280546117df90615075565b801561182c5780601f106118015761010080835404028352916020019161182c565b820191906000526020600020905b81548152906001019060200180831161180f57829003601f168201915b5050505050815260200160048201805461184590615075565b80601f016020809104026020016040519081016040528092919081815260200182805461187190615075565b80156118be5780601f10611893576101008083540402835291602001916118be565b820191906000526020600020905b8154815290600101906020018083116118a157829003601f168201915b5050505050815260200160058201805480602002602001604051908101604052809291908181526020016000905b8282101561199857838290600052602060002001805461190b90615075565b80601f016020809104026020016040519081016040528092919081815260200182805461193790615075565b80156119845780601f1061195957610100808354040283529160200191611984565b820191906000526020600020905b81548152906001019060200180831161196757829003601f168201915b5050505050815260200190600101906118ec565b50505050815250509050806000015181602001518260400151836060015184608001518560a001519650965096509650965096505091939550919395565b600981815481106119e657600080fd5b906000526020600020016000915090508054611a0190615075565b80601f0160208091040260200160405190810160405280929190818152602001828054611a2d90615075565b8015611a7a5780601f10611a4f57610100808354040283529160200191611a7a565b820191906000526020600020905b815481529060010190602001808311611a5d57829003601f168201915b505050505081565b6060600660008373ffffffffffffffffffffffffffffffffffffffff1673ffffffffffffffffffffffffffffffffffffffff168152602001908152602001600020805480602002602001604051908101604052809291908181526020018280548015611b0d57602002820191906000526020600020905b815481526020019060010190808311611af9575b50505050509050919050565b6060600c82604051611b2b91906151e0565b90815260200160405180910390208054611b4490615075565b80601f0160208091040260200160405190810160405280929190818152602001828054611b7090615075565b8015611bbd5780601f10611b9257610100808354040283529160200191611bbd565b820191906000526020600020905b815481529060010190602001808311611ba057829003601f168201915b50505050509050919050565b606080606060006060600060606000600389604051611be891906151e0565b90815260200160405180910390206040518060e0016040529081600082018054611c1190615075565b80601f0160208091040260200160405190810160405280929190818152602001828054611c3d90615075565b8015611c8a5780601f10611c5f57610100808354040283529160200191611c8a565b820191906000526020600020905b815481529060010190602001808311611c6d57829003601f168201915b50505050508152602001600182018054611ca390615075565b80601f0160208091040260200160405190810160405280929190818152602001828054611ccf90615075565b8015611d1c5780601f10611cf157610100808354040283529160200191611d1c565b820191906000526020600020905b815481529060010190602001808311611cff57829003601f168201915b50505050508152602001600282018054611d3590615075565b80601f0160208091040260200160405190810160405280929190818152602001828054611d6190615075565b8015611dae5780601f10611d8357610100808354040283529160200191611dae565b820191906000526020600020905b815481529060010190602001808311611d9157829003601f168201915b5050505050815260200160038201548152602001600482018054611dd190615075565b80601f0160208091040260200160405190810160405280929190818152602001828054611dfd90615075565b8015611e4a5780601f10611e1f57610100808354040283529160200191611e4a565b820191906000526020600020905b815481529060010190602001808311611e2d57829003601f168201915b505050505081526020016005820160009054906101000a900473ffffffffffffffffffffffffffffffffffffffff1673ffffffffffffffffffffffffffffffffffffffff1673ffffffffffffffffffffffffffffffffffffffff16815260200160068201805480602002602001604051908101604052809291908181526020018280548015611ef857602002820191906000526020600020905b815481526020019060010190808311611ee4575b5050505050815250509050806000015181602001518260400151836060015184608001518560a001518660c00151975097509750975097509750975050919395979092949650565b6060600060085467ffffffffffffffff811115611f6057611f5f61456d565b5b604051908082528060200260200182016040528015611f8e5781602001602082028036833780820191505090505b5090506000805b600b805490508110156120435760056000600b8381548110611fba57611fb9615475565b5b9060005260206000200154815260200190815260200160002060030160149054906101000a900460ff161561203657600b8181548110611ffd57611ffc615475565b5b906000526020600020015483838151811061201b5761201a615475565b5b602002602001018181525050818061203290615706565b9250505b8080600101915050611f95565b5060008167ffffffffffffffff8111156120605761205f61456d565b5b60405190808252806020026020018201604052801561208e5781602001602082028036833780820191505090505b50905060005b828110156120e3578381815181106120af576120ae615475565b5b60200260200101518282815181106120ca576120c9615475565b5b6020026020010181815250508080600101915050612094565b5080935050505090565b60608060006060600060608060008811801561210b57506007548811155b61214a576040517f08c379a00000000000000000000000000000000000000000000000000000000081526004016121419061563b565b60405180910390fd5b6000600460008a81526020019081526020016000206040518060e001604052908160008201805461217a90615075565b80601f01602080910402602001604051908101604052809291908181526020018280546121a690615075565b80156121f35780601f106121c8576101008083540402835291602001916121f3565b820191906000526020600020905b8154815290600101906020018083116121d657829003601f168201915b5050505050815260200160018201805461220c90615075565b80601f016020809104026020016040519081016040528092919081815260200182805461223890615075565b80156122855780601f1061225a57610100808354040283529160200191612285565b820191906000526020600020905b81548152906001019060200180831161226857829003601f168201915b505050505081526020016002820160009054906101000a900473ffffffffffffffffffffffffffffffffffffffff1673ffffffffffffffffffffffffffffffffffffffff1673ffffffffffffffffffffffffffffffffffffffff168152602001600382015481526020016004820180546122fe90615075565b80601f016020809104026020016040519081016040528092919081815260200182805461232a90615075565b80156123775780601f1061234c57610100808354040283529160200191612377565b820191906000526020600020905b81548152906001019060200180831161235a57829003601f168201915b5050505050815260200160058201805480602002602001604051908101604052809291908181526020016000905b828210156124515783829060005260206000200180546123c490615075565b80601f01602080910402602001604051908101604052809291908181526020018280546123f090615075565b801561243d5780601f106124125761010080835404028352916020019161243d565b820191906000526020600020905b81548152906001019060200180831161242057829003601f168201915b5050505050815260200190600101906123a5565b50505050815260200160068201805480602002602001604051908101604052809291908181526020016000905b8282101561252a57838290600052602060002001805461249d90615075565b80601f01602080910402602001604051908101604052809291908181526020018280546124c990615075565b80156125165780601f106124eb57610100808354040283529160200191612516565b820191906000526020600020905b8154815290600101906020018083116124f957829003601f168201915b50505050508152602001906001019061247e565b505050508152505090508060000151816020015182604001518360a00151846060015185608001518660c00151975097509750975097509750975050919395979092949650565b60008054906101000a900473ffffffffffffffffffffffffffffffffffffffff1681565b6000821180156125a757506008548211155b6125e6576040517f08c379a00000000000000000000000000000000000000000000000000000000081526004016125dd906150f2565b60405180910390fd5b60006005600084815260200190815260200160002090508060030160149054906101000a900460ff1661264e576040517f08c379a0000000000000000000000000000000000000000000000000000000008152600401612645906157c0565b60405180910390fd5b600082118015612662575080600201548211155b6126a1576040517f08c379a00000000000000000000000000000000000000000000000000000000081526004016126989061582c565b60405180910390fd5b600081600201548383600101546126b8919061584c565b6126c291906158bd565b905080341015612707576040517f08c379a00000000000000000000000000000000000000000000000000000000081526004016126fe9061593a565b60405180910390fd5b8160030160009054906101000a900473ffffffffffffffffffffffffffffffffffffffff1673ffffffffffffffffffffffffffffffffffffffff166108fc829081150290604051600060405180830381858888f19350505050158015612771573d6000803e3d6000fd5b5082826002016000828254612786919061595a565b9250508190555060008260020154036127b75760008260030160146101000a81548160ff0219169083151502179055505b60046000836000015481526020019081526020016000206005016127da84613ede565b6040516020016127ea9190615a26565b60405160208183030381529060405290806001815401808255809150506001900390600052602060002001600090919091909150908161282a91906153a3565b507f7d3c39a6cce20f6949eff0833a4d54fca734dc7c6027773d8885e7faeac98a95843385426040516128609493929190615a53565b60405180910390a17f28222dbd9906bc73e71cbd7bd296a46d23de9224d425c30be175af99b4ab77418260000154334260405161289f93929190615ae4565b60405180910390a150505050565b60006002856040516128bf91906151e0565b90815260200160405180910390206040518060c00160405290816000820180546128e890615075565b80601f016020809104026020016040519081016040528092919081815260200182805461291490615075565b80156129615780601f1061293657610100808354040283529160200191612961565b820191906000526020600020905b81548152906001019060200180831161294457829003601f168201915b5050505050815260200160018201805461297a90615075565b80601f01602080910402602001604051908101604052809291908181526020018280546129a690615075565b80156129f35780601f106129c8576101008083540402835291602001916129f3565b820191906000526020600020905b8154815290600101906020018083116129d657829003601f168201915b50505050508152602001600282018054612a0c90615075565b80601f0160208091040260200160405190810160405280929190818152602001828054612a3890615075565b8015612a855780601f10612a5a57610100808354040283529160200191612a85565b820191906000526020600020905b815481529060010190602001808311612a6857829003601f168201915b50505050508152602001600382018054612a9e90615075565b80601f0160208091040260200160405190810160405280929190818152602001828054612aca90615075565b8015612b175780601f10612aec57610100808354040283529160200191612b17565b820191906000526020600020905b815481529060010190602001808311612afa57829003601f168201915b50505050508152602001600482018054612b3090615075565b80601f0160208091040260200160405190810160405280929190818152602001828054612b5c90615075565b8015612ba95780601f10612b7e57610100808354040283529160200191612ba9565b820191906000526020600020905b815481529060010190602001808311612b8c57829003601f168201915b5050505050815260200160058201805480602002602001604051908101604052809291908181526020016000905b82821015612c83578382906000526020600020018054612bf690615075565b80601f0160208091040260200160405190810160405280929190818152602001828054612c2290615075565b8015612c6f5780601f10612c4457610100808354040283529160200191612c6f565b820191906000526020600020905b815481529060010190602001808311612c5257829003601f168201915b505050505081526020019060010190612bd7565b50505050815250509050600081600001515111612cd5576040517f08c379a0000000000000000000000000000000000000000000000000000000008152600401612ccc90615b7a565b60405180910390fd5b60076000815480929190612ce890615706565b91905055506040518060e001604052808681526020018581526020013373ffffffffffffffffffffffffffffffffffffffff168152602001428152602001838152602001600067ffffffffffffffff811115612d4757612d4661456d565b5b604051908082528060200260200182016040528015612d7a57816020015b6060815260200190600190039081612d655790505b508152602001600067ffffffffffffffff811115612d9b57612d9a61456d565b5b604051908082528060200260200182016040528015612dce57816020015b6060815260200190600190039081612db95790505b508152506004600060075481526020019081526020016000206000820151816000019081612dfc91906153a3565b506020820151816001019081612e1291906153a3565b5060408201518160020160006101000a81548173ffffffffffffffffffffffffffffffffffffffff021916908373ffffffffffffffffffffffffffffffffffffffff160217905550606082015181600301556080820151816004019081612e7991906153a3565b5060a0820151816005019080519060200190612e96929190614097565b5060c0820151816006019080519060200190612eb3929190614097565b509050506000600384604051612ec991906151e0565b90815260200160405180910390209050600073ffffffffffffffffffffffffffffffffffffffff168160050160009054906101000a900473ffffffffffffffffffffffffffffffffffffffff1673ffffffffffffffffffffffffffffffffffffffff1603612f6357806006016007549080600181540180825580915050600190039060005260206000200160009091909190915055612fae565b600384604051612f7391906151e0565b908152602001604051809103902060060160075490806001815401808255809150506001900390600052602060002001600090919091909150555b60046000600754815260200190815260200160002060050180600181540180825580915050600190039060005260206000200160006040518060400160405280601581526020017f4861727665737465642062792050726f647563657200000000000000000000008152509091909150908161302a91906153a3565b507f28222dbd9906bc73e71cbd7bd296a46d23de9224d425c30be175af99b4ab7741600754334260405161306093929190615be6565b60405180910390a1505050505050565b60085481565b60008054906101000a900473ffffffffffffffffffffffffffffffffffffffff1673ffffffffffffffffffffffffffffffffffffffff163373ffffffffffffffffffffffffffffffffffffffff1614613104576040517f08c379a00000000000000000000000000000000000000000000000000000000081526004016130fb90615184565b60405180910390fd5b6000600160008373ffffffffffffffffffffffffffffffffffffffff1673ffffffffffffffffffffffffffffffffffffffff16815260200190815260200160002060006101000a81548160ff02191690831515021790555050565b60038180516020810182018051848252602083016020850120818352809550505050505060009150905080600001805461319890615075565b80601f01602080910402602001604051908101604052809291908181526020018280546131c490615075565b80156132115780601f106131e657610100808354040283529160200191613211565b820191906000526020600020905b8154815290600101906020018083116131f457829003601f168201915b50505050509080600101805461322690615075565b80601f016020809104026020016040519081016040528092919081815260200182805461325290615075565b801561329f5780601f106132745761010080835404028352916020019161329f565b820191906000526020600020905b81548152906001019060200180831161328257829003601f168201915b5050505050908060020180546132b490615075565b80601f01602080910402602001604051908101604052809291908181526020018280546132e090615075565b801561332d5780601f106133025761010080835404028352916020019161332d565b820191906000526020600020905b81548152906001019060200180831161331057829003601f168201915b50505050509080600301549080600401805461334890615075565b80601f016020809104026020016040519081016040528092919081815260200182805461337490615075565b80156133c15780601f10613396576101008083540402835291602001916133c1565b820191906000526020600020905b8154815290600101906020018083116133a457829003601f168201915b5050505050908060050160009054906101000a900473ffffffffffffffffffffffffffffffffffffffff16905086565b60008211801561340357506007548211155b613442576040517f08c379a00000000000000000000000000000000000000000000000000000000081526004016134399061563b565b60405180910390fd5b600460008381526020019081526020016000206005018190806001815401808255809150506001900390600052602060002001600090919091909150908161348a91906153a3565b507f28222dbd9906bc73e71cbd7bd296a46d23de9224d425c30be175af99b4ab7741828233426040516134c09493929190615c30565b60405180910390a15050565b60046020528060005260406000206000915090508060000180546134ef90615075565b80601f016020809104026020016040519081016040528092919081815260200182805461351b90615075565b80156135685780601f1061353d57610100808354040283529160200191613568565b820191906000526020600020905b81548152906001019060200180831161354b57829003601f168201915b50505050509080600101805461357d90615075565b80601f01602080910402602001604051908101604052809291908181526020018280546135a990615075565b80156135f65780601f106135cb576101008083540402835291602001916135f6565b820191906000526020600020905b8154815290600101906020018083116135d957829003601f168201915b5050505050908060020160009054906101000a900473ffffffffffffffffffffffffffffffffffffffff169080600301549080600401805461363790615075565b80601f016020809104026020016040519081016040528092919081815260200182805461366390615075565b80156136b05780601f10613685576101008083540402835291602001916136b0565b820191906000526020600020905b81548152906001019060200180831161369357829003601f168201915b5050505050905085565b6002818051602081018201805184825260208301602085012081835280955050505050506000915090508060000180546136f390615075565b80601f016020809104026020016040519081016040528092919081815260200182805461371f90615075565b801561376c5780601f106137415761010080835404028352916020019161376c565b820191906000526020600020905b81548152906001019060200180831161374f57829003601f168201915b50505050509080600101805461378190615075565b80601f01602080910402602001604051908101604052809291908181526020018280546137ad90615075565b80156137fa5780601f106137cf576101008083540402835291602001916137fa565b820191906000526020600020905b8154815290600101906020018083116137dd57829003601f168201915b50505050509080600201805461380f90615075565b80601f016020809104026020016040519081016040528092919081815260200182805461383b90615075565b80156138885780601f1061385d57610100808354040283529160200191613888565b820191906000526020600020905b81548152906001019060200180831161386b57829003601f168201915b50505050509080600301805461389d90615075565b80601f01602080910402602001604051908101604052809291908181526020018280546138c990615075565b80156139165780601f106138eb57610100808354040283529160200191613916565b820191906000526020600020905b8154815290600101906020018083116138f957829003601f168201915b50505050509080600401805461392b90615075565b80601f016020809104026020016040519081016040528092919081815260200182805461395790615075565b80156139a45780601f10613979576101008083540402835291602001916139a4565b820191906000526020600020905b81548152906001019060200180831161398757829003601f168201915b5050505050905085565b60056020528060005260406000206000915090508060000154908060010154908060020154908060030160009054906101000a900473ffffffffffffffffffffffffffffffffffffffff16908060030160149054906101000a900460ff16908060040154905086565b600c818051602081018201805184825260208301602085012081835280955050505050506000915090508054613a4c90615075565b80601f0160208091040260200160405190810160405280929190818152602001828054613a7890615075565b8015613ac55780601f10613a9a57610100808354040283529160200191613ac5565b820191906000526020600020905b815481529060010190602001808311613aa857829003601f168201915b505050505081565b600083118015613adf57506007548311155b613b1e576040517f08c379a0000000000000000000000000000000000000000000000000000000008152600401613b159061563b565b60405180910390fd5b60008211613b61576040517f08c379a0000000000000000000000000000000000000000000000000000000008152600401613b5890615cc8565b60405180910390fd5b60008111613ba4576040517f08c379a0000000000000000000000000000000000000000000000000000000008152600401613b9b90615d34565b60405180910390fd5b60086000815480929190613bb790615706565b91905055506040518060c001604052808481526020018381526020018281526020013373ffffffffffffffffffffffffffffffffffffffff1681526020016001151581526020014281525060056000600854815260200190815260200160002060008201518160000155602082015181600101556040820151816002015560608201518160030160006101000a81548173ffffffffffffffffffffffffffffffffffffffff021916908373ffffffffffffffffffffffffffffffffffffffff16021790555060808201518160030160146101000a81548160ff02191690831515021790555060a08201518160040155905050600660003373ffffffffffffffffffffffffffffffffffffffff1673ffffffffffffffffffffffffffffffffffffffff1681526020019081526020016000206008549080600181540180825580915050600190039060005260206000200160009091909190915055600b60085490806001815401808255809150506001900390600052602060002001600090919091909150556004600084815260200190815260200160002060050180600181540180825580915050600190039060005260206000200160006040518060400160405280600f81526020017f4c697374656420666f722053616c65000000000000000000000000000000000081525090919091509081613db691906153a3565b507f74db1cf85b7690d991329cd32074d6249e834ec06591f8652f737065d42b040e6008548484843342604051613df296959493929190615d54565b60405180910390a1505050565b60075481565b6060600a805480602002602001604051908101604052809291908181526020016000905b82821015613ed5578382906000526020600020018054613e4890615075565b80601f0160208091040260200160405190810160405280929190818152602001828054613e7490615075565b8015613ec15780601f10613e9657610100808354040283529160200191613ec1565b820191906000526020600020905b815481529060010190602001808311613ea457829003601f168201915b505050505081526020019060010190613e29565b50505050905090565b606060008203613f25576040518060400160405280600181526020017f30000000000000000000000000000000000000000000000000000000000000008152509050614045565b600082905060005b60008214613f57578080613f4090615706565b915050600a82613f5091906158bd565b9150613f2d565b60008167ffffffffffffffff811115613f7357613f7261456d565b5b6040519080825280601f01601f191660200182016040528015613fa55781602001600182028036833780820191505090505b50905060008290505b6000861461403d57600181613fc3919061595a565b90506000600a87613fd49190615db5565b6030613fe09190615de6565b90508060f81b838381518110613ff957613ff8615475565b5b60200101907effffffffffffffffffffffffffffffffffffffffffffffffffffffffffffff1916908160001a905350600a8761403591906158bd565b965050613fae565b819450505050505b919050565b828054828255906000526020600020908101928215614086579160200282015b8281111561408557825182559160200191906001019061406a565b5b50905061409391906140f0565b5090565b8280548282559060005260206000209081019282156140df579160200282015b828111156140de5782518290816140ce91906153a3565b50916020019190600101906140b7565b5b5090506140ec919061410d565b5090565b5b808211156141095760008160009055506001016140f1565b5090565b5b8082111561412d57600081816141249190614131565b5060010161410e565b5090565b50805461413d90615075565b6000825580601f1061414f575061416e565b601f01602090049060005260206000209081019061416d91906140f0565b5b50565b600081519050919050565b600082825260208201905092915050565b6000819050602082019050919050565b600081519050919050565b600082825260208201905092915050565b60005b838110156141d75780820151818401526020810190506141bc565b60008484015250505050565b6000601f19601f8301169050919050565b60006141ff8261419d565b61420981856141a8565b93506142198185602086016141b9565b614222816141e3565b840191505092915050565b600061423983836141f4565b905092915050565b6000602082019050919050565b600061425982614171565b614263818561417c565b9350836020820285016142758561418d565b8060005b858110156142b15784840389528151614292858261422d565b945061429d83614241565b925060208a01995050600181019050614279565b50829750879550505050505092915050565b600060208201905081810360008301526142dd818461424e565b905092915050565b6000604051905090565b600080fd5b600080fd5b600073ffffffffffffffffffffffffffffffffffffffff82169050919050565b6000614324826142f9565b9050919050565b61433481614319565b811461433f57600080fd5b50565b6000813590506143518161432b565b92915050565b6000819050919050565b61436a81614357565b811461437557600080fd5b50565b60008135905061438781614361565b92915050565b600080604083850312156143a4576143a36142ef565b5b60006143b285828601614342565b92505060206143c385828601614378565b9150509250929050565b6143d681614357565b82525050565b60006020820190506143f160008301846143cd565b92915050565b60006020828403121561440d5761440c6142ef565b5b600061441b84828501614342565b91505092915050565b60008115159050919050565b61443981614424565b82525050565b60006020820190506144546000830184614430565b92915050565b6000602082840312156144705761446f6142ef565b5b600061447e84828501614378565b91505092915050565b61449081614319565b82525050565b600060c0820190506144ab60008301896143cd565b6144b860208301886143cd565b6144c560408301876143cd565b6144d26060830186614487565b6144df6080830185614430565b6144ec60a08301846143cd565b979650505050505050565b600082825260208201905092915050565b60006145138261419d565b61451d81856144f7565b935061452d8185602086016141b9565b614536816141e3565b840191505092915050565b6000602082019050818103600083015261455b8184614508565b905092915050565b600080fd5b600080fd5b7f4e487b7100000000000000000000000000000000000000000000000000000000600052604160045260246000fd5b6145a5826141e3565b810181811067ffffffffffffffff821117156145c4576145c361456d565b5b80604052505050565b60006145d76142e5565b90506145e3828261459c565b919050565b600067ffffffffffffffff8211156146035761460261456d565b5b61460c826141e3565b9050602081019050919050565b82818337600083830152505050565b600061463b614636846145e8565b6145cd565b90508281526020810184848401111561465757614656614568565b5b614662848285614619565b509392505050565b600082601f83011261467f5761467e614563565b5b813561468f848260208601614628565b91505092915050565b600080600080600060a086880312156146b4576146b36142ef565b5b600086013567ffffffffffffffff8111156146d2576146d16142f4565b5b6146de8882890161466a565b955050602086013567ffffffffffffffff8111156146ff576146fe6142f4565b5b61470b8882890161466a565b945050604086013567ffffffffffffffff81111561472c5761472b6142f4565b5b6147388882890161466a565b935050606086013567ffffffffffffffff811115614759576147586142f4565b5b6147658882890161466a565b925050608086013567ffffffffffffffff811115614786576147856142f4565b5b6147928882890161466a565b9150509295509295909350565b600080604083850312156147b6576147b56142ef565b5b600083013567ffffffffffffffff8111156147d4576147d36142f4565b5b6147e08582860161466a565b925050602083013567ffffffffffffffff811115614801576148006142f4565b5b61480d8582860161466a565b9150509250929050565b6000806040838503121561482e5761482d6142ef565b5b600061483c85828601614378565b925050602083013567ffffffffffffffff81111561485d5761485c6142f4565b5b6148698582860161466a565b9150509250929050565b600067ffffffffffffffff82111561488e5761488d61456d565b5b602082029050602081019050919050565b600080fd5b60006148b76148b284614873565b6145cd565b905080838252602082019050602084028301858111156148da576148d961489f565b5b835b8181101561492157803567ffffffffffffffff8111156148ff576148fe614563565b5b80860161490c898261466a565b855260208501945050506020810190506148dc565b5050509392505050565b600082601f8301126149405761493f614563565b5b81356149508482602086016148a4565b91505092915050565b60008060008060008060c08789031215614976576149756142ef565b5b600087013567ffffffffffffffff811115614994576149936142f4565b5b6149a089828a0161466a565b965050602087013567ffffffffffffffff8111156149c1576149c06142f4565b5b6149cd89828a0161466a565b955050604087013567ffffffffffffffff8111156149ee576149ed6142f4565b5b6149fa89828a0161466a565b945050606087013567ffffffffffffffff811115614a1b57614a1a6142f4565b5b614a2789828a0161466a565b935050608087013567ffffffffffffffff811115614a4857614a476142f4565b5b614a5489828a0161466a565b92505060a087013567ffffffffffffffff811115614a7557614a746142f4565b5b614a8189828a0161492b565b9150509295509295509295565b600060208284031215614aa457614aa36142ef565b5b600082013567ffffffffffffffff811115614ac257614ac16142f4565b5b614ace8482850161466a565b91505092915050565b600060c0820190508181036000830152614af18189614508565b90508181036020830152614b058188614508565b90508181036040830152614b198187614508565b90508181036060830152614b2d8186614508565b90508181036080830152614b418185614508565b905081810360a0830152614b55818461424e565b9050979650505050505050565b600081519050919050565b600082825260208201905092915050565b6000819050602082019050919050565b614b9781614357565b82525050565b6000614ba98383614b8e565b60208301905092915050565b6000602082019050919050565b6000614bcd82614b62565b614bd78185614b6d565b9350614be283614b7e565b8060005b83811015614c13578151614bfa8882614b9d565b9750614c0583614bb5565b925050600181019050614be6565b5085935050505092915050565b60006020820190508181036000830152614c3a8184614bc2565b905092915050565b600060e0820190508181036000830152614c5c818a614508565b90508181036020830152614c708189614508565b90508181036040830152614c848188614508565b9050614c9360608301876143cd565b8181036080830152614ca58186614508565b9050614cb460a0830185614487565b81810360c0830152614cc68184614bc2565b905098975050505050505050565b600060e0820190508181036000830152614cee818a614508565b90508181036020830152614d028189614508565b9050614d116040830188614487565b8181036060830152614d23818761424e565b9050614d3260808301866143cd565b81810360a0830152614d448185614508565b905081810360c0830152614d58818461424e565b905098975050505050505050565b6000602082019050614d7b6000830184614487565b92915050565b60008060408385031215614d9857614d976142ef565b5b6000614da685828601614378565b9250506020614db785828601614378565b9150509250929050565b60008060008060808587031215614ddb57614dda6142ef565b5b600085013567ffffffffffffffff811115614df957614df86142f4565b5b614e058782880161466a565b945050602085013567ffffffffffffffff811115614e2657614e256142f4565b5b614e328782880161466a565b935050604085013567ffffffffffffffff811115614e5357614e526142f4565b5b614e5f8782880161466a565b925050606085013567ffffffffffffffff811115614e8057614e7f6142f4565b5b614e8c8782880161466a565b91505092959194509250565b600060c0820190508181036000830152614eb28189614508565b90508181036020830152614ec68188614508565b90508181036040830152614eda8187614508565b9050614ee960608301866143cd565b8181036080830152614efb8185614508565b9050614f0a60a0830184614487565b979650505050505050565b600060a0820190508181036000830152614f2f8188614508565b90508181036020830152614f438187614508565b9050614f526040830186614487565b614f5f60608301856143cd565b8181036080830152614f718184614508565b90509695505050505050565b600060a0820190508181036000830152614f978188614508565b90508181036020830152614fab8187614508565b90508181036040830152614fbf8186614508565b90508181036060830152614fd38185614508565b90508181036080830152614fe78184614508565b90509695505050505050565b60008060006060848603121561500c5761500b6142ef565b5b600061501a86828701614378565b935050602061502b86828701614378565b925050604061503c86828701614378565b9150509250925092565b7f4e487b7100000000000000000000000000000000000000000000000000000000600052602260045260246000fd5b6000600282049050600182168061508d57607f821691505b6020821081036150a05761509f615046565b5b50919050565b7f496e76616c6964204c697374696e672049440000000000000000000000000000600082015250565b60006150dc6012836144f7565b91506150e7826150a6565b602082019050919050565b6000602082019050818103600083015261510b816150cf565b9050919050565b7f4f6e6c79206f776e65722063616e20706572666f726d2074686973206163746960008201527f6f6e000000000000000000000000000000000000000000000000000000000000602082015250565b600061516e6022836144f7565b915061517982615112565b604082019050919050565b6000602082019050818103600083015261519d81615161565b9050919050565b600081905092915050565b60006151ba8261419d565b6151c481856151a4565b93506151d48185602086016141b9565b80840191505092915050565b60006151ec82846151af565b915081905092915050565b60008190508160005260206000209050919050565b60006020601f8301049050919050565b600082821b905092915050565b6000600883026152597fffffffffffffffffffffffffffffffffffffffffffffffffffffffffffffffff8261521c565b615263868361521c565b95508019841693508086168417925050509392505050565b6000819050919050565b60006152a061529b61529684614357565b61527b565b614357565b9050919050565b6000819050919050565b6152ba83615285565b6152ce6152c6826152a7565b848454615229565b825550505050565b600090565b6152e36152d6565b6152ee8184846152b1565b505050565b5b81811015615312576153076000826152db565b6001810190506152f4565b5050565b601f82111561535757615328816151f7565b6153318461520c565b81016020851015615340578190505b61535461534c8561520c565b8301826152f3565b50505b505050565b600082821c905092915050565b600061537a6000198460080261535c565b1980831691505092915050565b60006153938383615369565b9150826002028217905092915050565b6153ac8261419d565b67ffffffffffffffff8111156153c5576153c461456d565b5b6153cf8254615075565b6153da828285615316565b600060209050601f83116001811461540d57600084156153fb578287015190505b6154058582615387565b86555061546d565b601f19841661541b866151f7565b60005b828110156154435784890151825560018201915060208501945060208101905061541e565b86831015615460578489015161545c601f891682615369565b8355505b6001600288020188555050505b505050505050565b7f4e487b7100000000000000000000000000000000000000000000000000000000600052603260045260246000fd5b600081546154b181615075565b6154bb81866151a4565b945060018216600081146154d657600181146154eb5761551e565b60ff198316865281151582028601935061551e565b6154f4856151f7565b60005b83811015615516578154818901526001820191506020810190506154f7565b838801955050505b50505092915050565b600061553382846154a4565b915081905092915050565b600060608201905081810360008301526155588186614508565b9050818103602083015261556c8185614508565b905061557b60408301846143cd565b949350505050565b7f4e6f7420617574686f72697a6564000000000000000000000000000000000000600082015250565b60006155b9600e836144f7565b91506155c482615583565b602082019050919050565b600060208201905081810360008301526155e8816155ac565b9050919050565b7f496e76616c696420467275697420494400000000000000000000000000000000600082015250565b60006156256010836144f7565b9150615630826155ef565b602082019050919050565b6000602082019050818103600083015261565481615618565b9050919050565b600060608201905061567060008301866143cd565b81810360208301526156828185614508565b905061569160408301846143cd565b949350505050565b600060608201905081810360008301526156b38186614508565b90506156c26020830185614487565b6156cf60408301846143cd565b949350505050565b7f4e487b7100000000000000000000000000000000000000000000000000000000600052601160045260246000fd5b600061571182614357565b91507fffffffffffffffffffffffffffffffffffffffffffffffffffffffffffffffff8203615743576157426156d7565b5b600182019050919050565b7f50726f64756374206973206e6f7420617661696c61626c6520666f722070757260008201527f6368617365000000000000000000000000000000000000000000000000000000602082015250565b60006157aa6025836144f7565b91506157b58261574e565b604082019050919050565b600060208201905081810360008301526157d98161579d565b9050919050565b7f496e76616c6964207175616e7469747900000000000000000000000000000000600082015250565b60006158166010836144f7565b9150615821826157e0565b602082019050919050565b6000602082019050818103600083015261584581615809565b9050919050565b600061585782614357565b915061586283614357565b925082820261587081614357565b91508282048414831517615887576158866156d7565b5b5092915050565b7f4e487b7100000000000000000000000000000000000000000000000000000000600052601260045260246000fd5b60006158c882614357565b91506158d383614357565b9250826158e3576158e261588e565b5b828204905092915050565b7f496e73756666696369656e74207061796d656e74000000000000000000000000600082015250565b60006159246014836144f7565b915061592f826158ee565b602082019050919050565b6000602082019050818103600083015261595381615917565b9050919050565b600061596582614357565b915061597083614357565b9250828203905081811115615988576159876156d7565b5b92915050565b7f5075726368617365642000000000000000000000000000000000000000000000600082015250565b60006159c4600a836151a4565b91506159cf8261598e565b600a82019050919050565b7f20756e69747320627920437573746f6d65720000000000000000000000000000600082015250565b6000615a106012836151a4565b9150615a1b826159da565b601282019050919050565b6000615a31826159b7565b9150615a3d82846151af565b9150615a4882615a03565b915081905092915050565b6000608082019050615a6860008301876143cd565b615a756020830186614487565b615a8260408301856143cd565b615a8f60608301846143cd565b95945050505050565b7f5075726368617365640000000000000000000000000000000000000000000000600082015250565b6000615ace6009836144f7565b9150615ad982615a98565b602082019050919050565b6000608082019050615af960008301866143cd565b8181036020830152615b0a81615ac1565b9050615b196040830185614487565b615b2660608301846143cd565b949350505050565b7f46727569742074797065206e6f7420696e20636174616c6f6700000000000000600082015250565b6000615b646019836144f7565b9150615b6f82615b2e565b602082019050919050565b60006020820190508181036000830152615b9381615b57565b9050919050565b7f4861727665737465640000000000000000000000000000000000000000000000600082015250565b6000615bd06009836144f7565b9150615bdb82615b9a565b602082019050919050565b6000608082019050615bfb60008301866143cd565b8181036020830152615c0c81615bc3565b9050615c1b6040830185614487565b615c2860608301846143cd565b949350505050565b6000608082019050615c4560008301876143cd565b8181036020830152615c578186614508565b9050615c666040830185614487565b615c7360608301846143cd565b95945050505050565b7f5072696365206d7573742062652067726561746572207468616e203000000000600082015250565b6000615cb2601c836144f7565b9150615cbd82615c7c565b602082019050919050565b60006020820190508181036000830152615ce181615ca5565b9050919050565b7f5175616e74697479206d7573742062652067726561746572207468616e203000600082015250565b6000615d1e601f836144f7565b9150615d2982615ce8565b602082019050919050565b60006020820190508181036000830152615d4d81615d11565b9050919050565b600060c082019050615d6960008301896143cd565b615d7660208301886143cd565b615d8360408301876143cd565b615d9060608301866143cd565b615d9d6080830185614487565b615daa60a08301846143cd565b979650505050505050565b6000615dc082614357565b9150615dcb83614357565b925082615ddb57615dda61588e565b5b828206905092915050565b6000615df182614357565b9150615dfc83614357565b9250828201905080821115615e1457615e136156d7565b5b9291505056fea2646970667358221220e405470610f6db9e3e854e29d82bf69ef1d41fd58234038262d36c600924d6d864736f6c634300081c0033",
  "linkReferences": {},
  "deployedLinkReferences": {}
}