{
  "_format": "hh-sol-artifact-1",
  "contractName": "FruitSupplyChain",
  "sourceName": "contracts/FruitSupplyChain.sol",
  "abi": [
    {
      "inputs": [],
      "stateMutability": "nonpayable",
      "type": "constructor"
    },
    {
      "anonymous": false,
      "inputs": [
        {
          "indexed": false,
          "internalType": "string",
          "name": "fruitType",
          "type": "string"
        },
        {
          "indexed": false,
          "internalType": "address",
          "name": "by",
          "type": "address"
        },
        {
          "indexed": false,
          "internalType": "uint256",
          "name": "timestamp",
          "type": "uint256"
        }
      ],
      "name": "CatalogAdded",
      "type": "event"
    },
    {
      "anonymous": false,
      "inputs": [
        {
          "indexed": false,
          "internalType": "string",
          "name": "farmId",
          "type": "string"
        },
        {
          "indexed": false,
          "internalType": "string",
          "name": "conditions",
          "type": "string"
        },
        {
          "indexed": false,
          "internalType": "uint256",
          "name": "timestamp",
          "type": "uint256"
        }
      ],
      "name": "FarmUpdated",
      "type": "event"
    },
    {
      "anonymous": false,
      "inputs": [
        {
          "indexed": false,
          "internalType": "string",
          "name": "fruitType",
          "type": "string"
        },
        {
          "indexed": false,
          "internalType": "string",
          "name": "ipfsHash",
          "type": "string"
        },
        {
          "indexed": false,
          "internalType": "uint256",
          "name": "timestamp",
          "type": "uint256"
        }
      ],
      "name": "FruitHashUpdated",
      "type": "event"
    },
    {
      "anonymous": false,
      "inputs": [
        {
          "indexed": false,
          "internalType": "uint256",
          "name": "listingId",
          "type": "uint256"
        },
        {
          "indexed": false,
          "internalType": "uint256",
          "name": "fruitId",
          "type": "uint256"
        },
        {
          "indexed": false,
          "internalType": "uint256",
          "name": "price",
          "type": "uint256"
        },
        {
          "indexed": false,
          "internalType": "uint256",
          "name": "quantity",
          "type": "uint256"
        },
        {
          "indexed": false,
          "internalType": "address",
          "name": "seller",
          "type": "address"
        },
        {
          "indexed": false,
          "internalType": "uint256",
          "name": "timestamp",
          "type": "uint256"
        }
      ],
      "name": "ProductListed",
      "type": "event"
    },
    {
      "anonymous": false,
      "inputs": [
        {
          "indexed": false,
          "internalType": "uint256",
          "name": "listingId",
          "type": "uint256"
        },
        {
          "indexed": false,
          "internalType": "address",
          "name": "buyer",
          "type": "address"
        },
        {
          "indexed": false,
          "internalType": "uint256",
          "name": "timestamp",
          "type": "uint256"
        }
      ],
      "name": "ProductPurchased",
      "type": "event"
    },
    {
      "anonymous": false,
      "inputs": [
        {
          "indexed": false,
          "internalType": "uint256",
          "name": "fruitId",
          "type": "uint256"
        },
        {
          "indexed": false,
          "internalType": "string",
          "name": "recommendation",
          "type": "string"
        },
        {
          "indexed": false,
          "internalType": "uint256",
          "name": "timestamp",
          "type": "uint256"
        }
      ],
      "name": "RecommendationAdded",
      "type": "event"
    },
    {
      "anonymous": false,
      "inputs": [
        {
          "indexed": false,
          "internalType": "uint256",
          "name": "fruitId",
          "type": "uint256"
        },
        {
          "indexed": false,
          "internalType": "string",
          "name": "step",
          "type": "string"
        },
        {
          "indexed": false,
          "internalType": "address",
          "name": "by",
          "type": "address"
        },
        {
          "indexed": false,
          "internalType": "uint256",
          "name": "timestamp",
          "type": "uint256"
        }
      ],
      "name": "StepRecorded",
      "type": "event"
    },
    {
      "inputs": [
        {
          "internalType": "string",
          "name": "_fruitType",
          "type": "string"
        },
        {
          "internalType": "string",
          "name": "_description",
          "type": "string"
        },
        {
          "internalType": "string",
          "name": "_growingSeason",
          "type": "string"
        },
        {
          "internalType": "string",
          "name": "_nutritionalValue",
          "type": "string"
        },
        {
          "internalType": "string",
          "name": "_storageConditions",
          "type": "string"
        },
        {
          "internalType": "string[]",
          "name": "_commonVarieties",
          "type": "string[]"
        }
      ],
      "name": "addFruitCatalog",
      "outputs": [],
      "stateMutability": "nonpayable",
      "type": "function"
    },
    {
      "inputs": [
        {
          "internalType": "address",
          "name": "_manager",
          "type": "address"
        }
      ],
      "name": "addManager",
      "outputs": [],
      "stateMutability": "nonpayable",
      "type": "function"
    },
    {
      "inputs": [
        {
          "internalType": "uint256",
          "name": "_fruitId",
          "type": "uint256"
        },
        {
          "internalType": "string",
          "name": "_recommendation",
          "type": "string"
        }
      ],
      "name": "addRecommendation",
      "outputs": [],
      "stateMutability": "nonpayable",
      "type": "function"
    },
    {
      "inputs": [
        {
          "internalType": "address",
          "name": "",
          "type": "address"
        }
      ],
      "name": "authorizedManagers",
      "outputs": [
        {
          "internalType": "bool",
          "name": "",
          "type": "bool"
        }
      ],
      "stateMutability": "view",
      "type": "function"
    },
    {
      "inputs": [
        {
          "internalType": "string",
          "name": "",
          "type": "string"
        }
      ],
      "name": "farms",
      "outputs": [
        {
          "internalType": "string",
          "name": "location",
          "type": "string"
        },
        {
          "internalType": "string",
          "name": "climate",
          "type": "string"
        },
        {
          "internalType": "string",
          "name": "soil",
          "type": "string"
        },
        {
          "internalType": "uint256",
          "name": "lastUpdated",
          "type": "uint256"
        },
        {
          "internalType": "string",
          "name": "currentConditions",
          "type": "string"
        },
        {
          "internalType": "address",
          "name": "owner",
          "type": "address"
        }
      ],
      "stateMutability": "view",
      "type": "function"
    },
    {
      "inputs": [
        {
          "internalType": "string",
          "name": "",
          "type": "string"
        }
      ],
      "name": "fruitCatalogs",
      "outputs": [
        {
          "internalType": "string",
          "name": "name",
          "type": "string"
        },
        {
          "internalType": "string",
          "name": "description",
          "type": "string"
        },
        {
          "internalType": "string",
          "name": "growingSeason",
          "type": "string"
        },
        {
          "internalType": "string",
          "name": "nutritionalValue",
          "type": "string"
        },
        {
          "internalType": "string",
          "name": "storageConditions",
          "type": "string"
        }
      ],
      "stateMutability": "view",
      "type": "function"
    },
    {
      "inputs": [],
      "name": "fruitCount",
      "outputs": [
        {
          "internalType": "uint256",
          "name": "",
          "type": "uint256"
        }
      ],
      "stateMutability": "view",
      "type": "function"
    },
    {
      "inputs": [
        {
          "internalType": "string",
          "name": "",
          "type": "string"
        }
      ],
      "name": "fruitHashes",
      "outputs": [
        {
          "internalType": "string",
          "name": "",
          "type": "string"
        }
      ],
      "stateMutability": "view",
      "type": "function"
    },
    {
      "inputs": [
        {
          "internalType": "uint256",
          "name": "",
          "type": "uint256"
        }
      ],
      "name": "fruits",
      "outputs": [
        {
          "internalType": "string",
          "name": "fruitType",
          "type": "string"
        },
        {
          "internalType": "string",
          "name": "origin",
          "type": "string"
        },
        {
          "internalType": "address",
          "name": "producer",
          "type": "address"
        },
        {
          "internalType": "uint256",
          "name": "harvestDate",
          "type": "uint256"
        },
        {
          "internalType": "string",
          "name": "quality",
          "type": "string"
        }
      ],
      "stateMutability": "view",
      "type": "function"
    },
    {
      "inputs": [],
      "name": "getAllActiveListings",
      "outputs": [
        {
          "internalType": "uint256[]",
          "name": "",
          "type": "uint256[]"
        }
      ],
      "stateMutability": "view",
      "type": "function"
    },
    {
      "inputs": [],
      "name": "getAllFarms",
      "outputs": [
        {
          "internalType": "string[]",
          "name": "",
          "type": "string[]"
        }
      ],
      "stateMutability": "view",
      "type": "function"
    },
    {
      "inputs": [],
      "name": "getAllFruitTypes",
      "outputs": [
        {
          "internalType": "string[]",
          "name": "",
          "type": "string[]"
        }
      ],
      "stateMutability": "view",
      "type": "function"
    },
    {
      "inputs": [
        {
          "internalType": "string",
          "name": "_farmId",
          "type": "string"
        }
      ],
      "name": "getFarmData",
      "outputs": [
        {
          "internalType": "string",
          "name": "",
          "type": "string"
        },
        {
          "internalType": "string",
          "name": "",
          "type": "string"
        },
        {
          "internalType": "string",
          "name": "",
          "type": "string"
        },
        {
          "internalType": "uint256",
          "name": "",
          "type": "uint256"
        },
        {
          "internalType": "string",
          "name": "",
          "type": "string"
        },
        {
          "internalType": "address",
          "name": "",
          "type": "address"
        },
        {
          "internalType": "uint256[]",
          "name": "",
          "type": "uint256[]"
        }
      ],
      "stateMutability": "view",
      "type": "function"
    },
    {
      "inputs": [
        {
          "internalType": "uint256",
          "name": "_fruitId",
          "type": "uint256"
        }
      ],
      "name": "getFruit",
      "outputs": [
        {
          "internalType": "string",
          "name": "",
          "type": "string"
        },
        {
          "internalType": "string",
          "name": "",
          "type": "string"
        },
        {
          "internalType": "address",
          "name": "",
          "type": "address"
        },
        {
          "internalType": "string[]",
          "name": "",
          "type": "string[]"
        },
        {
          "internalType": "uint256",
          "name": "",
          "type": "uint256"
        },
        {
          "internalType": "string",
          "name": "",
          "type": "string"
        },
        {
          "internalType": "string[]",
          "name": "",
          "type": "string[]"
        }
      ],
      "stateMutability": "view",
      "type": "function"
    },
    {
      "inputs": [
        {
          "internalType": "string",
          "name": "_fruitType",
          "type": "string"
        }
      ],
      "name": "getFruitCatalog",
      "outputs": [
        {
          "internalType": "string",
          "name": "",
          "type": "string"
        },
        {
          "internalType": "string",
          "name": "",
          "type": "string"
        },
        {
          "internalType": "string",
          "name": "",
          "type": "string"
        },
        {
          "internalType": "string",
          "name": "",
          "type": "string"
        },
        {
          "internalType": "string",
          "name": "",
          "type": "string"
        },
        {
          "internalType": "string[]",
          "name": "",
          "type": "string[]"
        }
      ],
      "stateMutability": "view",
      "type": "function"
    },
    {
      "inputs": [
        {
          "internalType": "string",
          "name": "fruitType",
          "type": "string"
        }
      ],
      "name": "getFruitHash",
      "outputs": [
        {
          "internalType": "string",
          "name": "",
          "type": "string"
        }
      ],
      "stateMutability": "view",
      "type": "function"
    },
    {
      "inputs": [
        {
          "internalType": "uint256",
          "name": "_listingId",
          "type": "uint256"
        }
      ],
      "name": "getListedProduct",
      "outputs": [
        {
          "internalType": "uint256",
          "name": "fruitId",
          "type": "uint256"
        },
        {
          "internalType": "uint256",
          "name": "price",
          "type": "uint256"
        },
        {
          "internalType": "uint256",
          "name": "quantity",
          "type": "uint256"
        },
        {
          "internalType": "address",
          "name": "seller",
          "type": "address"
        },
        {
          "internalType": "bool",
          "name": "isActive",
          "type": "bool"
        },
        {
          "internalType": "uint256",
          "name": "listedTimestamp",
          "type": "uint256"
        }
      ],
      "stateMutability": "view",
      "type": "function"
    },
    {
      "inputs": [
        {
          "internalType": "address",
          "name": "_seller",
          "type": "address"
        }
      ],
      "name": "getSellerListings",
      "outputs": [
        {
          "internalType": "uint256[]",
          "name": "",
          "type": "uint256[]"
        }
      ],
      "stateMutability": "view",
      "type": "function"
    },
    {
      "inputs": [
        {
          "internalType": "string",
          "name": "_fruitType",
          "type": "string"
        },
        {
          "internalType": "string",
          "name": "_origin",
          "type": "string"
        },
        {
          "internalType": "string",
          "name": "_farmId",
          "type": "string"
        },
        {
          "internalType": "string",
          "name": "_quality",
          "type": "string"
        }
      ],
      "name": "harvestFruit",
      "outputs": [],
      "stateMutability": "nonpayable",
      "type": "function"
    },
    {
      "inputs": [
        {
          "internalType": "uint256",
          "name": "_fruitId",
          "type": "uint256"
        },
        {
          "internalType": "uint256",
          "name": "_price",
          "type": "uint256"
        },
        {
          "internalType": "uint256",
          "name": "_quantity",
          "type": "uint256"
        }
      ],
      "name": "listProductForSale",
      "outputs": [],
      "stateMutability": "nonpayable",
      "type": "function"
    },
    {
      "inputs": [
        {
          "internalType": "uint256",
          "name": "",
          "type": "uint256"
        }
      ],
      "name": "listedProducts",
      "outputs": [
        {
          "internalType": "uint256",
          "name": "fruitId",
          "type": "uint256"
        },
        {
          "internalType": "uint256",
          "name": "price",
          "type": "uint256"
        },
        {
          "internalType": "uint256",
          "name": "quantity",
          "type": "uint256"
        },
        {
          "internalType": "address",
          "name": "seller",
          "type": "address"
        },
        {
          "internalType": "bool",
          "name": "isActive",
          "type": "bool"
        },
        {
          "internalType": "uint256",
          "name": "listedTimestamp",
          "type": "uint256"
        }
      ],
      "stateMutability": "view",
      "type": "function"
    },
    {
      "inputs": [],
      "name": "listingCount",
      "outputs": [
        {
          "internalType": "uint256",
          "name": "",
          "type": "uint256"
        }
      ],
      "stateMutability": "view",
      "type": "function"
    },
    {
      "inputs": [
        {
          "internalType": "uint256",
          "name": "",
          "type": "uint256"
        }
      ],
      "name": "listingIds",
      "outputs": [
        {
          "internalType": "uint256",
          "name": "",
          "type": "uint256"
        }
      ],
      "stateMutability": "view",
      "type": "function"
    },
    {
      "inputs": [],
      "name": "owner",
      "outputs": [
        {
          "internalType": "address",
          "name": "",
          "type": "address"
        }
      ],
      "stateMutability": "view",
      "type": "function"
    },
    {
      "inputs": [
        {
          "internalType": "uint256",
          "name": "_listingId",
          "type": "uint256"
        }
      ],
      "name": "purchaseProduct",
      "outputs": [],
      "stateMutability": "payable",
      "type": "function"
    },
    {
      "inputs": [
        {
          "internalType": "uint256",
          "name": "_fruitId",
          "type": "uint256"
        },
        {
          "internalType": "string",
          "name": "_step",
          "type": "string"
        }
      ],
      "name": "recordStep",
      "outputs": [],
      "stateMutability": "nonpayable",
      "type": "function"
    },
    {
      "inputs": [
        {
          "internalType": "string",
          "name": "_farmId",
          "type": "string"
        },
        {
          "internalType": "string",
          "name": "_location",
          "type": "string"
        },
        {
          "internalType": "string",
          "name": "_climate",
          "type": "string"
        },
        {
          "internalType": "string",
          "name": "_soil",
          "type": "string"
        },
        {
          "internalType": "string",
          "name": "_currentConditions",
          "type": "string"
        }
      ],
      "name": "registerFarm",
      "outputs": [],
      "stateMutability": "nonpayable",
      "type": "function"
    },
    {
      "inputs": [
        {
          "internalType": "uint256",
          "name": "",
          "type": "uint256"
        }
      ],
      "name": "registeredFarms",
      "outputs": [
        {
          "internalType": "string",
          "name": "",
          "type": "string"
        }
      ],
      "stateMutability": "view",
      "type": "function"
    },
    {
      "inputs": [
        {
          "internalType": "uint256",
          "name": "",
          "type": "uint256"
        }
      ],
      "name": "registeredFruitTypes",
      "outputs": [
        {
          "internalType": "string",
          "name": "",
          "type": "string"
        }
      ],
      "stateMutability": "view",
      "type": "function"
    },
    {
      "inputs": [
        {
          "internalType": "address",
          "name": "_manager",
          "type": "address"
        }
      ],
      "name": "removeManager",
      "outputs": [],
      "stateMutability": "nonpayable",
      "type": "function"
    },
    {
      "inputs": [
        {
          "internalType": "address",
          "name": "",
          "type": "address"
        },
        {
          "internalType": "uint256",
          "name": "",
          "type": "uint256"
        }
      ],
      "name": "sellerListings",
      "outputs": [
        {
          "internalType": "uint256",
          "name": "",
          "type": "uint256"
        }
      ],
      "stateMutability": "view",
      "type": "function"
    },
    {
      "inputs": [
        {
          "internalType": "string",
          "name": "fruitType",
          "type": "string"
        },
        {
          "internalType": "string",
          "name": "ipfsHash",
          "type": "string"
        }
      ],
      "name": "setFruitHash",
      "outputs": [],
      "stateMutability": "nonpayable",
      "type": "function"
    },
    {
      "inputs": [
        {
          "internalType": "string",
          "name": "_farmId",
          "type": "string"
        },
        {
          "internalType": "string",
          "name": "_conditions",
          "type": "string"
        }
      ],
      "name": "updateFarmConditions",
      "outputs": [],
      "stateMutability": "nonpayable",
      "type": "function"
    }
  ],
  "bytecode": "0x6080604052348015600f57600080fd5b50336000806101000a81548173ffffffffffffffffffffffffffffffffffffffff021916908373ffffffffffffffffffffffffffffffffffffffff16021790555060018060003373ffffffffffffffffffffffffffffffffffffffff1673ffffffffffffffffffffffffffffffffffffffff16815260200190815260200160002060006101000a81548160ff021916908315150217905550615aab806100b66000396000f3fe6080604052600436106101ee5760003560e01c80636a03089d1161010d578063ac9f1276116100a0578063ceadca131161006f578063ceadca13146107a5578063d8ab96bc146107e7578063e32eca8d14610824578063f493008d1461084d578063f955977414610878576101ee565b8063ac9f1276146106b8578063bc5e8cd7146106fa578063c417216214610723578063c71b89b514610764576101ee565b80638da5cb5b116100dc5780638da5cb5b14610610578063a53fb79d1461063b578063a9b07c2614610664578063ac18de431461068f576101ee565b80636a03089d146105225780636bf62cf81461055f578063701e5084146105a257806376ce7fe9146105cd576101ee565b806342c7f63f11610185578063569de6fd11610154578063569de6fd1461043d57806358cf8f511461046657806358eed174146104a85780635f42da09146104e5576101ee565b806342c7f63f1461038557806343622b81146103ae5780635154da5a146103d757806352bea36014610400576101ee565b80631fc15e93116101c15780631fc15e93146102da5780632d06177a1461031757806338e76a03146103405780633f50e5af1461035c576101ee565b8063046c6712146101f3578063054564f01461021e5780630a3cb21b1461025b5780631b4dba9b14610298575b600080fd5b3480156101ff57600080fd5b506102086108a3565b6040516102159190614138565b60405180910390f35b34801561022a57600080fd5b5061024560048036038101906102409190614202565b61097c565b6040516102529190614251565b60405180910390f35b34801561026757600080fd5b50610282600480360381019061027d919061426c565b6109ad565b60405161028f91906142b4565b60405180910390f35b3480156102a457600080fd5b506102bf60048036038101906102ba91906142cf565b6109cd565b6040516102d19695949392919061430b565b60405180910390f35b3480156102e657600080fd5b5061030160048036038101906102fc91906142cf565b610b16565b60405161030e91906143b6565b60405180910390f35b34801561032357600080fd5b5061033e6004803603810190610339919061426c565b610bc2565b005b61035a600480360381019061035591906142cf565b610caa565b005b34801561036857600080fd5b50610383600480360381019061037e919061450d565b610fa3565b005b34801561039157600080fd5b506103ac60048036038101906103a79190614614565b611233565b005b3480156103ba57600080fd5b506103d560048036038101906103d09190614614565b61129e565b005b3480156103e357600080fd5b506103fe60048036038101906103f9919061468c565b611401565b005b34801561040c57600080fd5b50610427600480360381019061042291906142cf565b6115bc565b6040516104349190614251565b60405180910390f35b34801561044957600080fd5b50610464600480360381019061045f91906147ce565b6115e0565b005b34801561047257600080fd5b5061048d60048036038101906104889190614903565b6118b2565b60405161049f9695949392919061494c565b60405180910390f35b3480156104b457600080fd5b506104cf60048036038101906104ca91906142cf565b611ccf565b6040516104dc91906143b6565b60405180910390f35b3480156104f157600080fd5b5061050c6004803603810190610507919061426c565b611d7b565b6040516105199190614a95565b60405180910390f35b34801561052e57600080fd5b5061054960048036038101906105449190614903565b611e12565b60405161055691906143b6565b60405180910390f35b34801561056b57600080fd5b5061058660048036038101906105819190614903565b611ec2565b6040516105999796959493929190614ab7565b60405180910390f35b3480156105ae57600080fd5b506105b7612239565b6040516105c49190614a95565b60405180910390f35b3480156105d957600080fd5b506105f460048036038101906105ef91906142cf565b6123e6565b6040516106079796959493929190614b49565b60405180910390f35b34801561061c57600080fd5b5061062561286a565b6040516106329190614bdb565b60405180910390f35b34801561064757600080fd5b50610662600480360381019061065d9190614bf6565b61288e565b005b34801561067057600080fd5b50610679613051565b6040516106869190614251565b60405180910390f35b34801561069b57600080fd5b506106b660048036038101906106b1919061426c565b613057565b005b3480156106c457600080fd5b506106df60048036038101906106da9190614903565b613140565b6040516106f196959493929190614ccd565b60405180910390f35b34801561070657600080fd5b50610721600480360381019061071c919061468c565b6133d2565b005b34801561072f57600080fd5b5061074a600480360381019061074591906142cf565b6134ad565b60405161075b959493929190614d4a565b60405180910390f35b34801561077057600080fd5b5061078b60048036038101906107869190614903565b61369b565b60405161079c959493929190614db2565b60405180910390f35b3480156107b157600080fd5b506107cc60048036038101906107c791906142cf565b61398f565b6040516107de9695949392919061430b565b60405180910390f35b3480156107f357600080fd5b5061080e60048036038101906108099190614903565b6139f8565b60405161081b91906143b6565b60405180910390f35b34801561083057600080fd5b5061084b60048036038101906108469190614e28565b613aae565b005b34801561085957600080fd5b50610862613de0565b60405161086f9190614251565b60405180910390f35b34801561088457600080fd5b5061088d613de6565b60405161089a9190614138565b60405180910390f35b60606009805480602002602001604051908101604052809291908181526020016000905b828210156109735783829060005260206000200180546108e690614eaa565b80601f016020809104026020016040519081016040528092919081815260200182805461091290614eaa565b801561095f5780601f106109345761010080835404028352916020019161095f565b820191906000526020600020905b81548152906001019060200180831161094257829003601f168201915b5050505050815260200190600101906108c7565b50505050905090565b6006602052816000526040600020818154811061099857600080fd5b90600052602060002001600091509150505481565b60016020528060005260406000206000915054906101000a900460ff1681565b6000806000806000806000871180156109e857506008548711155b610a27576040517f08c379a0000000000000000000000000000000000000000000000000000000008152600401610a1e90614f27565b60405180910390fd5b6000600560008981526020019081526020016000206040518060c00160405290816000820154815260200160018201548152602001600282015481526020016003820160009054906101000a900473ffffffffffffffffffffffffffffffffffffffff1673ffffffffffffffffffffffffffffffffffffffff1673ffffffffffffffffffffffffffffffffffffffff1681526020016003820160149054906101000a900460ff161515151581526020016004820154815250509050806000015181602001518260400151836060015184608001518560a001519650965096509650965096505091939550919395565b600a8181548110610b2657600080fd5b906000526020600020016000915090508054610b4190614eaa565b80601f0160208091040260200160405190810160405280929190818152602001828054610b6d90614eaa565b8015610bba5780601f10610b8f57610100808354040283529160200191610bba565b820191906000526020600020905b815481529060010190602001808311610b9d57829003601f168201915b505050505081565b60008054906101000a900473ffffffffffffffffffffffffffffffffffffffff1673ffffffffffffffffffffffffffffffffffffffff163373ffffffffffffffffffffffffffffffffffffffff1614610c50576040517f08c379a0000000000000000000000000000000000000000000000000000000008152600401610c4790614fb9565b60405180910390fd5b60018060008373ffffffffffffffffffffffffffffffffffffffff1673ffffffffffffffffffffffffffffffffffffffff16815260200190815260200160002060006101000a81548160ff02191690831515021790555050565b600081118015610cbc57506008548111155b610cfb576040517f08c379a0000000000000000000000000000000000000000000000000000000008152600401610cf290614f27565b60405180910390fd5b60006005600083815260200190815260200160002090508060030160149054906101000a900460ff16610d63576040517f08c379a0000000000000000000000000000000000000000000000000000000008152600401610d5a9061504b565b60405180910390fd5b8060010154341015610daa576040517f08c379a0000000000000000000000000000000000000000000000000000000008152600401610da1906150b7565b60405180910390fd5b6000816002015411610df1576040517f08c379a0000000000000000000000000000000000000000000000000000000008152600401610de890615123565b60405180910390fd5b8060030160009054906101000a900473ffffffffffffffffffffffffffffffffffffffff1673ffffffffffffffffffffffffffffffffffffffff166108fc82600101549081150290604051600060405180830381858888f19350505050158015610e5f573d6000803e3d6000fd5b506001816002016000828254610e759190615172565b925050819055506000816002015403610ea65760008160030160146101000a81548160ff0219169083151502179055505b600460008260000154815260200190815260200160002060050180600181540180825580915050600190039060005260206000200160006040518060400160405280601581526020017f50757263686173656420627920437573746f6d6572000000000000000000000081525090919091509081610f249190615352565b507fa530f889d7f1bd9a73028e48944ca013ab2c6624a31e3fa26f923f4bb719abd5823342604051610f5893929190615424565b60405180910390a17f28222dbd9906bc73e71cbd7bd296a46d23de9224d425c30be175af99b4ab774181600001543342604051610f97939291906154a7565b60405180910390a15050565b6040518060e00160405280858152602001848152602001838152602001600081526020018281526020013373ffffffffffffffffffffffffffffffffffffffff168152602001600067ffffffffffffffff811115611004576110036143e2565b5b6040519080825280602002602001820160405280156110325781602001602082028036833780820191505090505b50815250600386604051611046919061552d565b908152602001604051809103902060008201518160000190816110699190615352565b50602082015181600101908161107f9190615352565b5060408201518160020190816110959190615352565b506060820151816003015560808201518160040190816110b59190615352565b5060a08201518160050160006101000a81548173ffffffffffffffffffffffffffffffffffffffff021916908373ffffffffffffffffffffffffffffffffffffffff16021790555060c0820151816006019080519060200190611119929190613ebf565b509050506000805b600a805490508110156111b4578660405160200161113f919061552d565b60405160208183030381529060405280519060200120600a828154811061116957611168615544565b5b9060005260206000200160405160200161118391906155f6565b60405160208183030381529060405280519060200120036111a757600191506111b4565b8080600101915050611121565b50806111f057600a869080600181540180825580915050600190039060005260206000200160009091909190915090816111ee9190615352565b505b7fef9e0a850bb9971e155f20e4b0e490cdeafc72eab8d0da56fe2f1585ad9567de8683426040516112239392919061560d565b60405180910390a1505050505050565b80600c83604051611244919061552d565b9081526020016040518091039020908161125e9190615352565b507f888bf677ec642f934df90bbc78f33cc2d32f3d50b0d2bc286d26ef35d69c89b48282426040516112929392919061560d565b60405180910390a15050565b60006003836040516112b0919061552d565b908152602001604051809103902090503373ffffffffffffffffffffffffffffffffffffffff168160050160009054906101000a900473ffffffffffffffffffffffffffffffffffffffff1673ffffffffffffffffffffffffffffffffffffffff1614806113675750600160003373ffffffffffffffffffffffffffffffffffffffff1673ffffffffffffffffffffffffffffffffffffffff16815260200190815260200160002060009054906101000a900460ff165b6113a6576040517f08c379a000000000000000000000000000000000000000000000000000000000815260040161139d9061569e565b60405180910390fd5b818160040190816113b79190615352565b504281600301819055507fef9e0a850bb9971e155f20e4b0e490cdeafc72eab8d0da56fe2f1585ad9567de8383426040516113f49392919061560d565b60405180910390a1505050565b600160003373ffffffffffffffffffffffffffffffffffffffff1673ffffffffffffffffffffffffffffffffffffffff16815260200190815260200160002060009054906101000a900460ff16806114a4575060008054906101000a900473ffffffffffffffffffffffffffffffffffffffff1673ffffffffffffffffffffffffffffffffffffffff163373ffffffffffffffffffffffffffffffffffffffff16145b6114e3576040517f08c379a00000000000000000000000000000000000000000000000000000000081526004016114da9061569e565b60405180910390fd5b6000821180156114f557506007548211155b611534576040517f08c379a000000000000000000000000000000000000000000000000000000000815260040161152b9061570a565b60405180910390fd5b600460008381526020019081526020016000206006018190806001815401808255809150506001900390600052602060002001600090919091909150908161157c9190615352565b507f40e632d4a93e307bc4fd8ee554a117dbc7f782e20d62bdd43d8dcf040dfb521d8282426040516115b09392919061572a565b60405180910390a15050565b600b81815481106115cc57600080fd5b906000526020600020016000915090505481565b600160003373ffffffffffffffffffffffffffffffffffffffff1673ffffffffffffffffffffffffffffffffffffffff16815260200190815260200160002060009054906101000a900460ff1680611683575060008054906101000a900473ffffffffffffffffffffffffffffffffffffffff1673ffffffffffffffffffffffffffffffffffffffff163373ffffffffffffffffffffffffffffffffffffffff16145b6116c2576040517f08c379a00000000000000000000000000000000000000000000000000000000081526004016116b99061569e565b60405180910390fd5b6040518060c00160405280878152602001868152602001858152602001848152602001838152602001828152506002876040516116ff919061552d565b908152602001604051809103902060008201518160000190816117229190615352565b5060208201518160010190816117389190615352565b50604082015181600201908161174e9190615352565b5060608201518160030190816117649190615352565b50608082015181600401908161177a9190615352565b5060a0820151816005019080519060200190611797929190613f0c565b509050506000805b60098054905081101561183257876040516020016117bd919061552d565b60405160208183030381529060405280519060200120600982815481106117e7576117e6615544565b5b9060005260206000200160405160200161180191906155f6565b60405160208183030381529060405280519060200120036118255760019150611832565b808060010191505061179f565b508061186e5760098790806001815401808255809150506001900390600052602060002001600090919091909150908161186c9190615352565b505b7f78384878ee8ef9f8c429173968af06c8e361a98cd306b33d813326106f36681f8733426040516118a193929190615768565b60405180910390a150505050505050565b60608060608060608060006002886040516118cd919061552d565b90815260200160405180910390206040518060c00160405290816000820180546118f690614eaa565b80601f016020809104026020016040519081016040528092919081815260200182805461192290614eaa565b801561196f5780601f106119445761010080835404028352916020019161196f565b820191906000526020600020905b81548152906001019060200180831161195257829003601f168201915b5050505050815260200160018201805461198890614eaa565b80601f01602080910402602001604051908101604052809291908181526020018280546119b490614eaa565b8015611a015780601f106119d657610100808354040283529160200191611a01565b820191906000526020600020905b8154815290600101906020018083116119e457829003601f168201915b50505050508152602001600282018054611a1a90614eaa565b80601f0160208091040260200160405190810160405280929190818152602001828054611a4690614eaa565b8015611a935780601f10611a6857610100808354040283529160200191611a93565b820191906000526020600020905b815481529060010190602001808311611a7657829003601f168201915b50505050508152602001600382018054611aac90614eaa565b80601f0160208091040260200160405190810160405280929190818152602001828054611ad890614eaa565b8015611b255780601f10611afa57610100808354040283529160200191611b25565b820191906000526020600020905b815481529060010190602001808311611b0857829003601f168201915b50505050508152602001600482018054611b3e90614eaa565b80601f0160208091040260200160405190810160405280929190818152602001828054611b6a90614eaa565b8015611bb75780601f10611b8c57610100808354040283529160200191611bb7565b820191906000526020600020905b815481529060010190602001808311611b9a57829003601f168201915b5050505050815260200160058201805480602002602001604051908101604052809291908181526020016000905b82821015611c91578382906000526020600020018054611c0490614eaa565b80601f0160208091040260200160405190810160405280929190818152602001828054611c3090614eaa565b8015611c7d5780601f10611c5257610100808354040283529160200191611c7d565b820191906000526020600020905b815481529060010190602001808311611c6057829003601f168201915b505050505081526020019060010190611be5565b50505050815250509050806000015181602001518260400151836060015184608001518560a001519650965096509650965096505091939550919395565b60098181548110611cdf57600080fd5b906000526020600020016000915090508054611cfa90614eaa565b80601f0160208091040260200160405190810160405280929190818152602001828054611d2690614eaa565b8015611d735780601f10611d4857610100808354040283529160200191611d73565b820191906000526020600020905b815481529060010190602001808311611d5657829003601f168201915b505050505081565b6060600660008373ffffffffffffffffffffffffffffffffffffffff1673ffffffffffffffffffffffffffffffffffffffff168152602001908152602001600020805480602002602001604051908101604052809291908181526020018280548015611e0657602002820191906000526020600020905b815481526020019060010190808311611df2575b50505050509050919050565b6060600c82604051611e24919061552d565b90815260200160405180910390208054611e3d90614eaa565b80601f0160208091040260200160405190810160405280929190818152602001828054611e6990614eaa565b8015611eb65780601f10611e8b57610100808354040283529160200191611eb6565b820191906000526020600020905b815481529060010190602001808311611e9957829003601f168201915b50505050509050919050565b606080606060006060600060606000600389604051611ee1919061552d565b90815260200160405180910390206040518060e0016040529081600082018054611f0a90614eaa565b80601f0160208091040260200160405190810160405280929190818152602001828054611f3690614eaa565b8015611f835780601f10611f5857610100808354040283529160200191611f83565b820191906000526020600020905b815481529060010190602001808311611f6657829003601f168201915b50505050508152602001600182018054611f9c90614eaa565b80601f0160208091040260200160405190810160405280929190818152602001828054611fc890614eaa565b80156120155780601f10611fea57610100808354040283529160200191612015565b820191906000526020600020905b815481529060010190602001808311611ff857829003601f168201915b5050505050815260200160028201805461202e90614eaa565b80601f016020809104026020016040519081016040528092919081815260200182805461205a90614eaa565b80156120a75780601f1061207c576101008083540402835291602001916120a7565b820191906000526020600020905b81548152906001019060200180831161208a57829003601f168201915b50505050508152602001600382015481526020016004820180546120ca90614eaa565b80601f01602080910402602001604051908101604052809291908181526020018280546120f690614eaa565b80156121435780601f1061211857610100808354040283529160200191612143565b820191906000526020600020905b81548152906001019060200180831161212657829003601f168201915b505050505081526020016005820160009054906101000a900473ffffffffffffffffffffffffffffffffffffffff1673ffffffffffffffffffffffffffffffffffffffff1673ffffffffffffffffffffffffffffffffffffffff168152602001600682018054806020026020016040519081016040528092919081815260200182805480156121f157602002820191906000526020600020905b8154815260200190600101908083116121dd575b5050505050815250509050806000015181602001518260400151836060015184608001518560a001518660c00151975097509750975097509750975050919395979092949650565b6060600060085467ffffffffffffffff811115612259576122586143e2565b5b6040519080825280602002602001820160405280156122875781602001602082028036833780820191505090505b5090506000805b600b8054905081101561233c5760056000600b83815481106122b3576122b2615544565b5b9060005260206000200154815260200190815260200160002060030160149054906101000a900460ff161561232f57600b81815481106122f6576122f5615544565b5b906000526020600020015483838151811061231457612313615544565b5b602002602001018181525050818061232b906157a6565b9250505b808060010191505061228e565b5060008167ffffffffffffffff811115612359576123586143e2565b5b6040519080825280602002602001820160405280156123875781602001602082028036833780820191505090505b50905060005b828110156123dc578381815181106123a8576123a7615544565b5b60200260200101518282815181106123c3576123c2615544565b5b602002602001018181525050808060010191505061238d565b5080935050505090565b60608060006060600060608060008811801561240457506007548811155b612443576040517f08c379a000000000000000000000000000000000000000000000000000000000815260040161243a9061570a565b60405180910390fd5b6000600460008a81526020019081526020016000206040518060e001604052908160008201805461247390614eaa565b80601f016020809104026020016040519081016040528092919081815260200182805461249f90614eaa565b80156124ec5780601f106124c1576101008083540402835291602001916124ec565b820191906000526020600020905b8154815290600101906020018083116124cf57829003601f168201915b5050505050815260200160018201805461250590614eaa565b80601f016020809104026020016040519081016040528092919081815260200182805461253190614eaa565b801561257e5780601f106125535761010080835404028352916020019161257e565b820191906000526020600020905b81548152906001019060200180831161256157829003601f168201915b505050505081526020016002820160009054906101000a900473ffffffffffffffffffffffffffffffffffffffff1673ffffffffffffffffffffffffffffffffffffffff1673ffffffffffffffffffffffffffffffffffffffff168152602001600382015481526020016004820180546125f790614eaa565b80601f016020809104026020016040519081016040528092919081815260200182805461262390614eaa565b80156126705780601f1061264557610100808354040283529160200191612670565b820191906000526020600020905b81548152906001019060200180831161265357829003601f168201915b5050505050815260200160058201805480602002602001604051908101604052809291908181526020016000905b8282101561274a5783829060005260206000200180546126bd90614eaa565b80601f01602080910402602001604051908101604052809291908181526020018280546126e990614eaa565b80156127365780601f1061270b57610100808354040283529160200191612736565b820191906000526020600020905b81548152906001019060200180831161271957829003601f168201915b50505050508152602001906001019061269e565b50505050815260200160068201805480602002602001604051908101604052809291908181526020016000905b8282101561282357838290600052602060002001805461279690614eaa565b80601f01602080910402602001604051908101604052809291908181526020018280546127c290614eaa565b801561280f5780601f106127e45761010080835404028352916020019161280f565b820191906000526020600020905b8154815290600101906020018083116127f257829003601f168201915b505050505081526020019060010190612777565b505050508152505090508060000151816020015182604001518360a00151846060015185608001518660c00151975097509750975097509750975050919395979092949650565b60008054906101000a900473ffffffffffffffffffffffffffffffffffffffff1681565b60006002856040516128a0919061552d565b90815260200160405180910390206040518060c00160405290816000820180546128c990614eaa565b80601f01602080910402602001604051908101604052809291908181526020018280546128f590614eaa565b80156129425780601f1061291757610100808354040283529160200191612942565b820191906000526020600020905b81548152906001019060200180831161292557829003601f168201915b5050505050815260200160018201805461295b90614eaa565b80601f016020809104026020016040519081016040528092919081815260200182805461298790614eaa565b80156129d45780601f106129a9576101008083540402835291602001916129d4565b820191906000526020600020905b8154815290600101906020018083116129b757829003601f168201915b505050505081526020016002820180546129ed90614eaa565b80601f0160208091040260200160405190810160405280929190818152602001828054612a1990614eaa565b8015612a665780601f10612a3b57610100808354040283529160200191612a66565b820191906000526020600020905b815481529060010190602001808311612a4957829003601f168201915b50505050508152602001600382018054612a7f90614eaa565b80601f0160208091040260200160405190810160405280929190818152602001828054612aab90614eaa565b8015612af85780601f10612acd57610100808354040283529160200191612af8565b820191906000526020600020905b815481529060010190602001808311612adb57829003601f168201915b50505050508152602001600482018054612b1190614eaa565b80601f0160208091040260200160405190810160405280929190818152602001828054612b3d90614eaa565b8015612b8a5780601f10612b5f57610100808354040283529160200191612b8a565b820191906000526020600020905b815481529060010190602001808311612b6d57829003601f168201915b5050505050815260200160058201805480602002602001604051908101604052809291908181526020016000905b82821015612c64578382906000526020600020018054612bd790614eaa565b80601f0160208091040260200160405190810160405280929190818152602001828054612c0390614eaa565b8015612c505780601f10612c2557610100808354040283529160200191612c50565b820191906000526020600020905b815481529060010190602001808311612c3357829003601f168201915b505050505081526020019060010190612bb8565b50505050815250509050600081600001515111612cb6576040517f08c379a0000000000000000000000000000000000000000000000000000000008152600401612cad9061583a565b60405180910390fd5b60076000815480929190612cc9906157a6565b91905055506040518060e001604052808681526020018581526020013373ffffffffffffffffffffffffffffffffffffffff168152602001428152602001838152602001600067ffffffffffffffff811115612d2857612d276143e2565b5b604051908082528060200260200182016040528015612d5b57816020015b6060815260200190600190039081612d465790505b508152602001600067ffffffffffffffff811115612d7c57612d7b6143e2565b5b604051908082528060200260200182016040528015612daf57816020015b6060815260200190600190039081612d9a5790505b508152506004600060075481526020019081526020016000206000820151816000019081612ddd9190615352565b506020820151816001019081612df39190615352565b5060408201518160020160006101000a81548173ffffffffffffffffffffffffffffffffffffffff021916908373ffffffffffffffffffffffffffffffffffffffff160217905550606082015181600301556080820151816004019081612e5a9190615352565b5060a0820151816005019080519060200190612e77929190613f0c565b5060c0820151816006019080519060200190612e94929190613f0c565b509050506000600384604051612eaa919061552d565b90815260200160405180910390209050600073ffffffffffffffffffffffffffffffffffffffff168160050160009054906101000a900473ffffffffffffffffffffffffffffffffffffffff1673ffffffffffffffffffffffffffffffffffffffff1603612f4457806006016007549080600181540180825580915050600190039060005260206000200160009091909190915055612f8f565b600384604051612f54919061552d565b908152602001604051809103902060060160075490806001815401808255809150506001900390600052602060002001600090919091909150555b60046000600754815260200190815260200160002060050180600181540180825580915050600190039060005260206000200160006040518060400160405280601581526020017f4861727665737465642062792050726f647563657200000000000000000000008152509091909150908161300b9190615352565b507f28222dbd9906bc73e71cbd7bd296a46d23de9224d425c30be175af99b4ab77416007543342604051613041939291906158a6565b60405180910390a1505050505050565b60085481565b60008054906101000a900473ffffffffffffffffffffffffffffffffffffffff1673ffffffffffffffffffffffffffffffffffffffff163373ffffffffffffffffffffffffffffffffffffffff16146130e5576040517f08c379a00000000000000000000000000000000000000000000000000000000081526004016130dc90614fb9565b60405180910390fd5b6000600160008373ffffffffffffffffffffffffffffffffffffffff1673ffffffffffffffffffffffffffffffffffffffff16815260200190815260200160002060006101000a81548160ff02191690831515021790555050565b60038180516020810182018051848252602083016020850120818352809550505050505060009150905080600001805461317990614eaa565b80601f01602080910402602001604051908101604052809291908181526020018280546131a590614eaa565b80156131f25780601f106131c7576101008083540402835291602001916131f2565b820191906000526020600020905b8154815290600101906020018083116131d557829003601f168201915b50505050509080600101805461320790614eaa565b80601f016020809104026020016040519081016040528092919081815260200182805461323390614eaa565b80156132805780601f1061325557610100808354040283529160200191613280565b820191906000526020600020905b81548152906001019060200180831161326357829003601f168201915b50505050509080600201805461329590614eaa565b80601f01602080910402602001604051908101604052809291908181526020018280546132c190614eaa565b801561330e5780601f106132e35761010080835404028352916020019161330e565b820191906000526020600020905b8154815290600101906020018083116132f157829003601f168201915b50505050509080600301549080600401805461332990614eaa565b80601f016020809104026020016040519081016040528092919081815260200182805461335590614eaa565b80156133a25780601f10613377576101008083540402835291602001916133a2565b820191906000526020600020905b81548152906001019060200180831161338557829003601f168201915b5050505050908060050160009054906101000a900473ffffffffffffffffffffffffffffffffffffffff16905086565b6000821180156133e457506007548211155b613423576040517f08c379a000000000000000000000000000000000000000000000000000000000815260040161341a9061570a565b60405180910390fd5b600460008381526020019081526020016000206005018190806001815401808255809150506001900390600052602060002001600090919091909150908161346b9190615352565b507f28222dbd9906bc73e71cbd7bd296a46d23de9224d425c30be175af99b4ab7741828233426040516134a194939291906158f0565b60405180910390a15050565b60046020528060005260406000206000915090508060000180546134d090614eaa565b80601f01602080910402602001604051908101604052809291908181526020018280546134fc90614eaa565b80156135495780601f1061351e57610100808354040283529160200191613549565b820191906000526020600020905b81548152906001019060200180831161352c57829003601f168201915b50505050509080600101805461355e90614eaa565b80601f016020809104026020016040519081016040528092919081815260200182805461358a90614eaa565b80156135d75780601f106135ac576101008083540402835291602001916135d7565b820191906000526020600020905b8154815290600101906020018083116135ba57829003601f168201915b5050505050908060020160009054906101000a900473ffffffffffffffffffffffffffffffffffffffff169080600301549080600401805461361890614eaa565b80601f016020809104026020016040519081016040528092919081815260200182805461364490614eaa565b80156136915780601f1061366657610100808354040283529160200191613691565b820191906000526020600020905b81548152906001019060200180831161367457829003601f168201915b5050505050905085565b6002818051602081018201805184825260208301602085012081835280955050505050506000915090508060000180546136d490614eaa565b80601f016020809104026020016040519081016040528092919081815260200182805461370090614eaa565b801561374d5780601f106137225761010080835404028352916020019161374d565b820191906000526020600020905b81548152906001019060200180831161373057829003601f168201915b50505050509080600101805461376290614eaa565b80601f016020809104026020016040519081016040528092919081815260200182805461378e90614eaa565b80156137db5780601f106137b0576101008083540402835291602001916137db565b820191906000526020600020905b8154815290600101906020018083116137be57829003601f168201915b5050505050908060020180546137f090614eaa565b80601f016020809104026020016040519081016040528092919081815260200182805461381c90614eaa565b80156138695780601f1061383e57610100808354040283529160200191613869565b820191906000526020600020905b81548152906001019060200180831161384c57829003601f168201915b50505050509080600301805461387e90614eaa565b80601f01602080910402602001604051908101604052809291908181526020018280546138aa90614eaa565b80156138f75780601f106138cc576101008083540402835291602001916138f7565b820191906000526020600020905b8154815290600101906020018083116138da57829003601f168201915b50505050509080600401805461390c90614eaa565b80601f016020809104026020016040519081016040528092919081815260200182805461393890614eaa565b80156139855780601f1061395a57610100808354040283529160200191613985565b820191906000526020600020905b81548152906001019060200180831161396857829003601f168201915b5050505050905085565b60056020528060005260406000206000915090508060000154908060010154908060020154908060030160009054906101000a900473ffffffffffffffffffffffffffffffffffffffff16908060030160149054906101000a900460ff16908060040154905086565b600c818051602081018201805184825260208301602085012081835280955050505050506000915090508054613a2d90614eaa565b80601f0160208091040260200160405190810160405280929190818152602001828054613a5990614eaa565b8015613aa65780601f10613a7b57610100808354040283529160200191613aa6565b820191906000526020600020905b815481529060010190602001808311613a8957829003601f168201915b505050505081565b600083118015613ac057506007548311155b613aff576040517f08c379a0000000000000000000000000000000000000000000000000000000008152600401613af69061570a565b60405180910390fd5b60008211613b42576040517f08c379a0000000000000000000000000000000000000000000000000000000008152600401613b3990615988565b60405180910390fd5b60008111613b85576040517f08c379a0000000000000000000000000000000000000000000000000000000008152600401613b7c906159f4565b60405180910390fd5b60086000815480929190613b98906157a6565b91905055506040518060c001604052808481526020018381526020018281526020013373ffffffffffffffffffffffffffffffffffffffff1681526020016001151581526020014281525060056000600854815260200190815260200160002060008201518160000155602082015181600101556040820151816002015560608201518160030160006101000a81548173ffffffffffffffffffffffffffffffffffffffff021916908373ffffffffffffffffffffffffffffffffffffffff16021790555060808201518160030160146101000a81548160ff02191690831515021790555060a08201518160040155905050600660003373ffffffffffffffffffffffffffffffffffffffff1673ffffffffffffffffffffffffffffffffffffffff1681526020019081526020016000206008549080600181540180825580915050600190039060005260206000200160009091909190915055600b60085490806001815401808255809150506001900390600052602060002001600090919091909150556004600084815260200190815260200160002060050180600181540180825580915050600190039060005260206000200160006040518060400160405280600f81526020017f4c697374656420666f722053616c65000000000000000000000000000000000081525090919091509081613d979190615352565b507f74db1cf85b7690d991329cd32074d6249e834ec06591f8652f737065d42b040e6008548484843342604051613dd396959493929190615a14565b60405180910390a1505050565b60075481565b6060600a805480602002602001604051908101604052809291908181526020016000905b82821015613eb6578382906000526020600020018054613e2990614eaa565b80601f0160208091040260200160405190810160405280929190818152602001828054613e5590614eaa565b8015613ea25780601f10613e7757610100808354040283529160200191613ea2565b820191906000526020600020905b815481529060010190602001808311613e8557829003601f168201915b505050505081526020019060010190613e0a565b50505050905090565b828054828255906000526020600020908101928215613efb579160200282015b82811115613efa578251825591602001919060010190613edf565b5b509050613f089190613f65565b5090565b828054828255906000526020600020908101928215613f54579160200282015b82811115613f53578251829081613f439190615352565b5091602001919060010190613f2c565b5b509050613f619190613f82565b5090565b5b80821115613f7e576000816000905550600101613f66565b5090565b5b80821115613fa25760008181613f999190613fa6565b50600101613f83565b5090565b508054613fb290614eaa565b6000825580601f10613fc45750613fe3565b601f016020900490600052602060002090810190613fe29190613f65565b5b50565b600081519050919050565b600082825260208201905092915050565b6000819050602082019050919050565b600081519050919050565b600082825260208201905092915050565b60005b8381101561404c578082015181840152602081019050614031565b60008484015250505050565b6000601f19601f8301169050919050565b600061407482614012565b61407e818561401d565b935061408e81856020860161402e565b61409781614058565b840191505092915050565b60006140ae8383614069565b905092915050565b6000602082019050919050565b60006140ce82613fe6565b6140d88185613ff1565b9350836020820285016140ea85614002565b8060005b85811015614126578484038952815161410785826140a2565b9450614112836140b6565b925060208a019950506001810190506140ee565b50829750879550505050505092915050565b6000602082019050818103600083015261415281846140c3565b905092915050565b6000604051905090565b600080fd5b600080fd5b600073ffffffffffffffffffffffffffffffffffffffff82169050919050565b60006141998261416e565b9050919050565b6141a98161418e565b81146141b457600080fd5b50565b6000813590506141c6816141a0565b92915050565b6000819050919050565b6141df816141cc565b81146141ea57600080fd5b50565b6000813590506141fc816141d6565b92915050565b6000806040838503121561421957614218614164565b5b6000614227858286016141b7565b9250506020614238858286016141ed565b9150509250929050565b61424b816141cc565b82525050565b60006020820190506142666000830184614242565b92915050565b60006020828403121561428257614281614164565b5b6000614290848285016141b7565b91505092915050565b60008115159050919050565b6142ae81614299565b82525050565b60006020820190506142c960008301846142a5565b92915050565b6000602082840312156142e5576142e4614164565b5b60006142f3848285016141ed565b91505092915050565b6143058161418e565b82525050565b600060c0820190506143206000830189614242565b61432d6020830188614242565b61433a6040830187614242565b61434760608301866142fc565b61435460808301856142a5565b61436160a0830184614242565b979650505050505050565b600082825260208201905092915050565b600061438882614012565b614392818561436c565b93506143a281856020860161402e565b6143ab81614058565b840191505092915050565b600060208201905081810360008301526143d0818461437d565b905092915050565b600080fd5b600080fd5b7f4e487b7100000000000000000000000000000000000000000000000000000000600052604160045260246000fd5b61441a82614058565b810181811067ffffffffffffffff82111715614439576144386143e2565b5b80604052505050565b600061444c61415a565b90506144588282614411565b919050565b600067ffffffffffffffff821115614478576144776143e2565b5b61448182614058565b9050602081019050919050565b82818337600083830152505050565b60006144b06144ab8461445d565b614442565b9050828152602081018484840111156144cc576144cb6143dd565b5b6144d784828561448e565b509392505050565b600082601f8301126144f4576144f36143d8565b5b813561450484826020860161449d565b91505092915050565b600080600080600060a0868803121561452957614528614164565b5b600086013567ffffffffffffffff81111561454757614546614169565b5b614553888289016144df565b955050602086013567ffffffffffffffff81111561457457614573614169565b5b614580888289016144df565b945050604086013567ffffffffffffffff8111156145a1576145a0614169565b5b6145ad888289016144df565b935050606086013567ffffffffffffffff8111156145ce576145cd614169565b5b6145da888289016144df565b925050608086013567ffffffffffffffff8111156145fb576145fa614169565b5b614607888289016144df565b9150509295509295909350565b6000806040838503121561462b5761462a614164565b5b600083013567ffffffffffffffff81111561464957614648614169565b5b614655858286016144df565b925050602083013567ffffffffffffffff81111561467657614675614169565b5b614682858286016144df565b9150509250929050565b600080604083850312156146a3576146a2614164565b5b60006146b1858286016141ed565b925050602083013567ffffffffffffffff8111156146d2576146d1614169565b5b6146de858286016144df565b9150509250929050565b600067ffffffffffffffff821115614703576147026143e2565b5b602082029050602081019050919050565b600080fd5b600061472c614727846146e8565b614442565b9050808382526020820190506020840283018581111561474f5761474e614714565b5b835b8181101561479657803567ffffffffffffffff811115614774576147736143d8565b5b80860161478189826144df565b85526020850194505050602081019050614751565b5050509392505050565b600082601f8301126147b5576147b46143d8565b5b81356147c5848260208601614719565b91505092915050565b60008060008060008060c087890312156147eb576147ea614164565b5b600087013567ffffffffffffffff81111561480957614808614169565b5b61481589828a016144df565b965050602087013567ffffffffffffffff81111561483657614835614169565b5b61484289828a016144df565b955050604087013567ffffffffffffffff81111561486357614862614169565b5b61486f89828a016144df565b945050606087013567ffffffffffffffff8111156148905761488f614169565b5b61489c89828a016144df565b935050608087013567ffffffffffffffff8111156148bd576148bc614169565b5b6148c989828a016144df565b92505060a087013567ffffffffffffffff8111156148ea576148e9614169565b5b6148f689828a016147a0565b9150509295509295509295565b60006020828403121561491957614918614164565b5b600082013567ffffffffffffffff81111561493757614936614169565b5b614943848285016144df565b91505092915050565b600060c0820190508181036000830152614966818961437d565b9050818103602083015261497a818861437d565b9050818103604083015261498e818761437d565b905081810360608301526149a2818661437d565b905081810360808301526149b6818561437d565b905081810360a08301526149ca81846140c3565b9050979650505050505050565b600081519050919050565b600082825260208201905092915050565b6000819050602082019050919050565b614a0c816141cc565b82525050565b6000614a1e8383614a03565b60208301905092915050565b6000602082019050919050565b6000614a42826149d7565b614a4c81856149e2565b9350614a57836149f3565b8060005b83811015614a88578151614a6f8882614a12565b9750614a7a83614a2a565b925050600181019050614a5b565b5085935050505092915050565b60006020820190508181036000830152614aaf8184614a37565b905092915050565b600060e0820190508181036000830152614ad1818a61437d565b90508181036020830152614ae5818961437d565b90508181036040830152614af9818861437d565b9050614b086060830187614242565b8181036080830152614b1a818661437d565b9050614b2960a08301856142fc565b81810360c0830152614b3b8184614a37565b905098975050505050505050565b600060e0820190508181036000830152614b63818a61437d565b90508181036020830152614b77818961437d565b9050614b8660408301886142fc565b8181036060830152614b9881876140c3565b9050614ba76080830186614242565b81810360a0830152614bb9818561437d565b905081810360c0830152614bcd81846140c3565b905098975050505050505050565b6000602082019050614bf060008301846142fc565b92915050565b60008060008060808587031215614c1057614c0f614164565b5b600085013567ffffffffffffffff811115614c2e57614c2d614169565b5b614c3a878288016144df565b945050602085013567ffffffffffffffff811115614c5b57614c5a614169565b5b614c67878288016144df565b935050604085013567ffffffffffffffff811115614c8857614c87614169565b5b614c94878288016144df565b925050606085013567ffffffffffffffff811115614cb557614cb4614169565b5b614cc1878288016144df565b91505092959194509250565b600060c0820190508181036000830152614ce7818961437d565b90508181036020830152614cfb818861437d565b90508181036040830152614d0f818761437d565b9050614d1e6060830186614242565b8181036080830152614d30818561437d565b9050614d3f60a08301846142fc565b979650505050505050565b600060a0820190508181036000830152614d64818861437d565b90508181036020830152614d78818761437d565b9050614d8760408301866142fc565b614d946060830185614242565b8181036080830152614da6818461437d565b90509695505050505050565b600060a0820190508181036000830152614dcc818861437d565b90508181036020830152614de0818761437d565b90508181036040830152614df4818661437d565b90508181036060830152614e08818561437d565b90508181036080830152614e1c818461437d565b90509695505050505050565b600080600060608486031215614e4157614e40614164565b5b6000614e4f868287016141ed565b9350506020614e60868287016141ed565b9250506040614e71868287016141ed565b9150509250925092565b7f4e487b7100000000000000000000000000000000000000000000000000000000600052602260045260246000fd5b60006002820490506001821680614ec257607f821691505b602082108103614ed557614ed4614e7b565b5b50919050565b7f496e76616c6964204c697374696e672049440000000000000000000000000000600082015250565b6000614f1160128361436c565b9150614f1c82614edb565b602082019050919050565b60006020820190508181036000830152614f4081614f04565b9050919050565b7f4f6e6c79206f776e65722063616e20706572666f726d2074686973206163746960008201527f6f6e000000000000000000000000000000000000000000000000000000000000602082015250565b6000614fa360228361436c565b9150614fae82614f47565b604082019050919050565b60006020820190508181036000830152614fd281614f96565b9050919050565b7f50726f64756374206973206e6f7420617661696c61626c6520666f722070757260008201527f6368617365000000000000000000000000000000000000000000000000000000602082015250565b600061503560258361436c565b915061504082614fd9565b604082019050919050565b6000602082019050818103600083015261506481615028565b9050919050565b7f496e73756666696369656e74207061796d656e74000000000000000000000000600082015250565b60006150a160148361436c565b91506150ac8261506b565b602082019050919050565b600060208201905081810360008301526150d081615094565b9050919050565b7f50726f64756374206973206f7574206f662073746f636b000000000000000000600082015250565b600061510d60178361436c565b9150615118826150d7565b602082019050919050565b6000602082019050818103600083015261513c81615100565b9050919050565b7f4e487b7100000000000000000000000000000000000000000000000000000000600052601160045260246000fd5b600061517d826141cc565b9150615188836141cc565b92508282039050818111156151a05761519f615143565b5b92915050565b60008190508160005260206000209050919050565b60006020601f8301049050919050565b600082821b905092915050565b6000600883026152087fffffffffffffffffffffffffffffffffffffffffffffffffffffffffffffffff826151cb565b61521286836151cb565b95508019841693508086168417925050509392505050565b6000819050919050565b600061524f61524a615245846141cc565b61522a565b6141cc565b9050919050565b6000819050919050565b61526983615234565b61527d61527582615256565b8484546151d8565b825550505050565b600090565b615292615285565b61529d818484615260565b505050565b5b818110156152c1576152b660008261528a565b6001810190506152a3565b5050565b601f821115615306576152d7816151a6565b6152e0846151bb565b810160208510156152ef578190505b6153036152fb856151bb565b8301826152a2565b50505b505050565b600082821c905092915050565b60006153296000198460080261530b565b1980831691505092915050565b60006153428383615318565b9150826002028217905092915050565b61535b82614012565b67ffffffffffffffff811115615374576153736143e2565b5b61537e8254614eaa565b6153898282856152c5565b600060209050601f8311600181146153bc57600084156153aa578287015190505b6153b48582615336565b86555061541c565b601f1984166153ca866151a6565b60005b828110156153f2578489015182556001820191506020850194506020810190506153cd565b8683101561540f578489015161540b601f891682615318565b8355505b6001600288020188555050505b505050505050565b60006060820190506154396000830186614242565b61544660208301856142fc565b6154536040830184614242565b949350505050565b7f5075726368617365640000000000000000000000000000000000000000000000600082015250565b600061549160098361436c565b915061549c8261545b565b602082019050919050565b60006080820190506154bc6000830186614242565b81810360208301526154cd81615484565b90506154dc60408301856142fc565b6154e96060830184614242565b949350505050565b600081905092915050565b600061550782614012565b61551181856154f1565b935061552181856020860161402e565b80840191505092915050565b600061553982846154fc565b915081905092915050565b7f4e487b7100000000000000000000000000000000000000000000000000000000600052603260045260246000fd5b6000815461558081614eaa565b61558a81866154f1565b945060018216600081146155a557600181146155ba576155ed565b60ff19831686528115158202860193506155ed565b6155c3856151a6565b60005b838110156155e5578154818901526001820191506020810190506155c6565b838801955050505b50505092915050565b60006156028284615573565b915081905092915050565b60006060820190508181036000830152615627818661437d565b9050818103602083015261563b818561437d565b905061564a6040830184614242565b949350505050565b7f4e6f7420617574686f72697a6564000000000000000000000000000000000000600082015250565b6000615688600e8361436c565b915061569382615652565b602082019050919050565b600060208201905081810360008301526156b78161567b565b9050919050565b7f496e76616c696420467275697420494400000000000000000000000000000000600082015250565b60006156f460108361436c565b91506156ff826156be565b602082019050919050565b60006020820190508181036000830152615723816156e7565b9050919050565b600060608201905061573f6000830186614242565b8181036020830152615751818561437d565b90506157606040830184614242565b949350505050565b60006060820190508181036000830152615782818661437d565b905061579160208301856142fc565b61579e6040830184614242565b949350505050565b60006157b1826141cc565b91507fffffffffffffffffffffffffffffffffffffffffffffffffffffffffffffffff82036157e3576157e2615143565b5b600182019050919050565b7f46727569742074797065206e6f7420696e20636174616c6f6700000000000000600082015250565b600061582460198361436c565b915061582f826157ee565b602082019050919050565b6000602082019050818103600083015261585381615817565b9050919050565b7f4861727665737465640000000000000000000000000000000000000000000000600082015250565b600061589060098361436c565b915061589b8261585a565b602082019050919050565b60006080820190506158bb6000830186614242565b81810360208301526158cc81615883565b90506158db60408301856142fc565b6158e86060830184614242565b949350505050565b60006080820190506159056000830187614242565b8181036020830152615917818661437d565b905061592660408301856142fc565b6159336060830184614242565b95945050505050565b7f5072696365206d7573742062652067726561746572207468616e203000000000600082015250565b6000615972601c8361436c565b915061597d8261593c565b602082019050919050565b600060208201905081810360008301526159a181615965565b9050919050565b7f5175616e74697479206d7573742062652067726561746572207468616e203000600082015250565b60006159de601f8361436c565b91506159e9826159a8565b602082019050919050565b60006020820190508181036000830152615a0d816159d1565b9050919050565b600060c082019050615a296000830189614242565b615a366020830188614242565b615a436040830187614242565b615a506060830186614242565b615a5d60808301856142fc565b615a6a60a0830184614242565b97965050505050505056fea2646970667358221220013a83b4c32a615ed245c5c2893c4985176806ce9a7889feee9033ee02a7c5fc64736f6c634300081c0033",
  "linkReferences": {},
  "deployedLinkReferences": {}
}