{
  "_format": "hh-sol-artifact-1",
  "contractName": "FruitSupplyChain",
  "sourceName": "contracts/FruitSupplyChain.sol",
  "abi": [
    {
      "inputs": [],
      "stateMutability": "nonpayable",
      "type": "constructor"
    },
    {
      "anonymous": false,
      "inputs": [
        {
          "indexed": false,
          "internalType": "string",
          "name": "fruitType",
          "type": "string"
        },
        {
          "indexed": false,
          "internalType": "address",
          "name": "by",
          "type": "address"
        },
        {
          "indexed": false,
          "internalType": "uint256",
          "name": "timestamp",
          "type": "uint256"
        }
      ],
      "name": "CatalogAdded",
      "type": "event"
    },
    {
      "anonymous": false,
      "inputs": [
        {
          "indexed": false,
          "internalType": "string",
          "name": "farmId",
          "type": "string"
        },
        {
          "indexed": false,
          "internalType": "string",
          "name": "conditions",
          "type": "string"
        },
        {
          "indexed": false,
          "internalType": "uint256",
          "name": "timestamp",
          "type": "uint256"
        }
      ],
      "name": "FarmUpdated",
      "type": "event"
    },
    {
      "anonymous": false,
      "inputs": [
        {
          "indexed": false,
          "internalType": "uint256",
          "name": "listingId",
          "type": "uint256"
        },
        {
          "indexed": false,
          "internalType": "uint256",
          "name": "fruitId",
          "type": "uint256"
        },
        {
          "indexed": false,
          "internalType": "uint256",
          "name": "price",
          "type": "uint256"
        },
        {
          "indexed": false,
          "internalType": "uint256",
          "name": "quantity",
          "type": "uint256"
        },
        {
          "indexed": false,
          "internalType": "address",
          "name": "seller",
          "type": "address"
        },
        {
          "indexed": false,
          "internalType": "uint256",
          "name": "timestamp",
          "type": "uint256"
        }
      ],
      "name": "ProductListed",
      "type": "event"
    },
    {
      "anonymous": false,
      "inputs": [
        {
          "indexed": false,
          "internalType": "uint256",
          "name": "fruitId",
          "type": "uint256"
        },
        {
          "indexed": false,
          "internalType": "string",
          "name": "recommendation",
          "type": "string"
        },
        {
          "indexed": false,
          "internalType": "uint256",
          "name": "timestamp",
          "type": "uint256"
        }
      ],
      "name": "RecommendationAdded",
      "type": "event"
    },
    {
      "anonymous": false,
      "inputs": [
        {
          "indexed": false,
          "internalType": "uint256",
          "name": "fruitId",
          "type": "uint256"
        },
        {
          "indexed": false,
          "internalType": "string",
          "name": "step",
          "type": "string"
        },
        {
          "indexed": false,
          "internalType": "address",
          "name": "by",
          "type": "address"
        },
        {
          "indexed": false,
          "internalType": "uint256",
          "name": "timestamp",
          "type": "uint256"
        }
      ],
      "name": "StepRecorded",
      "type": "event"
    },
    {
      "inputs": [
        {
          "internalType": "string",
          "name": "_fruitType",
          "type": "string"
        },
        {
          "internalType": "string",
          "name": "_description",
          "type": "string"
        },
        {
          "internalType": "string",
          "name": "_growingSeason",
          "type": "string"
        },
        {
          "internalType": "string",
          "name": "_nutritionalValue",
          "type": "string"
        },
        {
          "internalType": "string",
          "name": "_storageConditions",
          "type": "string"
        },
        {
          "internalType": "string[]",
          "name": "_commonVarieties",
          "type": "string[]"
        }
      ],
      "name": "addFruitCatalog",
      "outputs": [],
      "stateMutability": "nonpayable",
      "type": "function"
    },
    {
      "inputs": [
        {
          "internalType": "address",
          "name": "_manager",
          "type": "address"
        }
      ],
      "name": "addManager",
      "outputs": [],
      "stateMutability": "nonpayable",
      "type": "function"
    },
    {
      "inputs": [
        {
          "internalType": "uint256",
          "name": "_fruitId",
          "type": "uint256"
        },
        {
          "internalType": "string",
          "name": "_recommendation",
          "type": "string"
        }
      ],
      "name": "addRecommendation",
      "outputs": [],
      "stateMutability": "nonpayable",
      "type": "function"
    },
    {
      "inputs": [
        {
          "internalType": "address",
          "name": "",
          "type": "address"
        }
      ],
      "name": "authorizedManagers",
      "outputs": [
        {
          "internalType": "bool",
          "name": "",
          "type": "bool"
        }
      ],
      "stateMutability": "view",
      "type": "function"
    },
    {
      "inputs": [
        {
          "internalType": "string",
          "name": "",
          "type": "string"
        }
      ],
      "name": "farms",
      "outputs": [
        {
          "internalType": "string",
          "name": "location",
          "type": "string"
        },
        {
          "internalType": "string",
          "name": "climate",
          "type": "string"
        },
        {
          "internalType": "string",
          "name": "soil",
          "type": "string"
        },
        {
          "internalType": "uint256",
          "name": "lastUpdated",
          "type": "uint256"
        },
        {
          "internalType": "string",
          "name": "currentConditions",
          "type": "string"
        },
        {
          "internalType": "address",
          "name": "owner",
          "type": "address"
        }
      ],
      "stateMutability": "view",
      "type": "function"
    },
    {
      "inputs": [
        {
          "internalType": "string",
          "name": "",
          "type": "string"
        }
      ],
      "name": "fruitCatalogs",
      "outputs": [
        {
          "internalType": "string",
          "name": "name",
          "type": "string"
        },
        {
          "internalType": "string",
          "name": "description",
          "type": "string"
        },
        {
          "internalType": "string",
          "name": "growingSeason",
          "type": "string"
        },
        {
          "internalType": "string",
          "name": "nutritionalValue",
          "type": "string"
        },
        {
          "internalType": "string",
          "name": "storageConditions",
          "type": "string"
        }
      ],
      "stateMutability": "view",
      "type": "function"
    },
    {
      "inputs": [],
      "name": "fruitCount",
      "outputs": [
        {
          "internalType": "uint256",
          "name": "",
          "type": "uint256"
        }
      ],
      "stateMutability": "view",
      "type": "function"
    },
    {
      "inputs": [
        {
          "internalType": "uint256",
          "name": "",
          "type": "uint256"
        }
      ],
      "name": "fruits",
      "outputs": [
        {
          "internalType": "string",
          "name": "fruitType",
          "type": "string"
        },
        {
          "internalType": "string",
          "name": "origin",
          "type": "string"
        },
        {
          "internalType": "address",
          "name": "producer",
          "type": "address"
        },
        {
          "internalType": "uint256",
          "name": "harvestDate",
          "type": "uint256"
        },
        {
          "internalType": "string",
          "name": "quality",
          "type": "string"
        }
      ],
      "stateMutability": "view",
      "type": "function"
    },
    {
      "inputs": [],
      "name": "getAllActiveListings",
      "outputs": [
        {
          "internalType": "uint256[]",
          "name": "",
          "type": "uint256[]"
        }
      ],
      "stateMutability": "view",
      "type": "function"
    },
    {
      "inputs": [],
      "name": "getAllFarms",
      "outputs": [
        {
          "internalType": "string[]",
          "name": "",
          "type": "string[]"
        }
      ],
      "stateMutability": "view",
      "type": "function"
    },
    {
      "inputs": [],
      "name": "getAllFruitTypes",
      "outputs": [
        {
          "internalType": "string[]",
          "name": "",
          "type": "string[]"
        }
      ],
      "stateMutability": "view",
      "type": "function"
    },
    {
      "inputs": [
        {
          "internalType": "string",
          "name": "_farmId",
          "type": "string"
        }
      ],
      "name": "getFarmData",
      "outputs": [
        {
          "internalType": "string",
          "name": "",
          "type": "string"
        },
        {
          "internalType": "string",
          "name": "",
          "type": "string"
        },
        {
          "internalType": "string",
          "name": "",
          "type": "string"
        },
        {
          "internalType": "uint256",
          "name": "",
          "type": "uint256"
        },
        {
          "internalType": "string",
          "name": "",
          "type": "string"
        },
        {
          "internalType": "address",
          "name": "",
          "type": "address"
        },
        {
          "internalType": "uint256[]",
          "name": "",
          "type": "uint256[]"
        }
      ],
      "stateMutability": "view",
      "type": "function"
    },
    {
      "inputs": [
        {
          "internalType": "uint256",
          "name": "_fruitId",
          "type": "uint256"
        }
      ],
      "name": "getFruit",
      "outputs": [
        {
          "internalType": "string",
          "name": "",
          "type": "string"
        },
        {
          "internalType": "string",
          "name": "",
          "type": "string"
        },
        {
          "internalType": "address",
          "name": "",
          "type": "address"
        },
        {
          "internalType": "string[]",
          "name": "",
          "type": "string[]"
        },
        {
          "internalType": "uint256",
          "name": "",
          "type": "uint256"
        },
        {
          "internalType": "string",
          "name": "",
          "type": "string"
        },
        {
          "internalType": "string[]",
          "name": "",
          "type": "string[]"
        }
      ],
      "stateMutability": "view",
      "type": "function"
    },
    {
      "inputs": [
        {
          "internalType": "string",
          "name": "_fruitType",
          "type": "string"
        }
      ],
      "name": "getFruitCatalog",
      "outputs": [
        {
          "internalType": "string",
          "name": "",
          "type": "string"
        },
        {
          "internalType": "string",
          "name": "",
          "type": "string"
        },
        {
          "internalType": "string",
          "name": "",
          "type": "string"
        },
        {
          "internalType": "string",
          "name": "",
          "type": "string"
        },
        {
          "internalType": "string",
          "name": "",
          "type": "string"
        },
        {
          "internalType": "string[]",
          "name": "",
          "type": "string[]"
        }
      ],
      "stateMutability": "view",
      "type": "function"
    },
    {
      "inputs": [
        {
          "internalType": "uint256",
          "name": "_listingId",
          "type": "uint256"
        }
      ],
      "name": "getListedProduct",
      "outputs": [
        {
          "internalType": "uint256",
          "name": "fruitId",
          "type": "uint256"
        },
        {
          "internalType": "uint256",
          "name": "price",
          "type": "uint256"
        },
        {
          "internalType": "uint256",
          "name": "quantity",
          "type": "uint256"
        },
        {
          "internalType": "address",
          "name": "seller",
          "type": "address"
        },
        {
          "internalType": "bool",
          "name": "isActive",
          "type": "bool"
        },
        {
          "internalType": "uint256",
          "name": "listedTimestamp",
          "type": "uint256"
        }
      ],
      "stateMutability": "view",
      "type": "function"
    },
    {
      "inputs": [
        {
          "internalType": "address",
          "name": "_seller",
          "type": "address"
        }
      ],
      "name": "getSellerListings",
      "outputs": [
        {
          "internalType": "uint256[]",
          "name": "",
          "type": "uint256[]"
        }
      ],
      "stateMutability": "view",
      "type": "function"
    },
    {
      "inputs": [
        {
          "internalType": "string",
          "name": "_fruitType",
          "type": "string"
        },
        {
          "internalType": "string",
          "name": "_origin",
          "type": "string"
        },
        {
          "internalType": "string",
          "name": "_farmId",
          "type": "string"
        },
        {
          "internalType": "string",
          "name": "_quality",
          "type": "string"
        }
      ],
      "name": "harvestFruit",
      "outputs": [],
      "stateMutability": "nonpayable",
      "type": "function"
    },
    {
      "inputs": [
        {
          "internalType": "uint256",
          "name": "_fruitId",
          "type": "uint256"
        },
        {
          "internalType": "uint256",
          "name": "_price",
          "type": "uint256"
        },
        {
          "internalType": "uint256",
          "name": "_quantity",
          "type": "uint256"
        }
      ],
      "name": "listProductForSale",
      "outputs": [],
      "stateMutability": "nonpayable",
      "type": "function"
    },
    {
      "inputs": [
        {
          "internalType": "uint256",
          "name": "",
          "type": "uint256"
        }
      ],
      "name": "listedProducts",
      "outputs": [
        {
          "internalType": "uint256",
          "name": "fruitId",
          "type": "uint256"
        },
        {
          "internalType": "uint256",
          "name": "price",
          "type": "uint256"
        },
        {
          "internalType": "uint256",
          "name": "quantity",
          "type": "uint256"
        },
        {
          "internalType": "address",
          "name": "seller",
          "type": "address"
        },
        {
          "internalType": "bool",
          "name": "isActive",
          "type": "bool"
        },
        {
          "internalType": "uint256",
          "name": "listedTimestamp",
          "type": "uint256"
        }
      ],
      "stateMutability": "view",
      "type": "function"
    },
    {
      "inputs": [],
      "name": "listingCount",
      "outputs": [
        {
          "internalType": "uint256",
          "name": "",
          "type": "uint256"
        }
      ],
      "stateMutability": "view",
      "type": "function"
    },
    {
      "inputs": [
        {
          "internalType": "uint256",
          "name": "",
          "type": "uint256"
        }
      ],
      "name": "listingIds",
      "outputs": [
        {
          "internalType": "uint256",
          "name": "",
          "type": "uint256"
        }
      ],
      "stateMutability": "view",
      "type": "function"
    },
    {
      "inputs": [],
      "name": "owner",
      "outputs": [
        {
          "internalType": "address",
          "name": "",
          "type": "address"
        }
      ],
      "stateMutability": "view",
      "type": "function"
    },
    {
      "inputs": [
        {
          "internalType": "uint256",
          "name": "_fruitId",
          "type": "uint256"
        },
        {
          "internalType": "string",
          "name": "_step",
          "type": "string"
        }
      ],
      "name": "recordStep",
      "outputs": [],
      "stateMutability": "nonpayable",
      "type": "function"
    },
    {
      "inputs": [
        {
          "internalType": "string",
          "name": "_farmId",
          "type": "string"
        },
        {
          "internalType": "string",
          "name": "_location",
          "type": "string"
        },
        {
          "internalType": "string",
          "name": "_climate",
          "type": "string"
        },
        {
          "internalType": "string",
          "name": "_soil",
          "type": "string"
        },
        {
          "internalType": "string",
          "name": "_currentConditions",
          "type": "string"
        }
      ],
      "name": "registerFarm",
      "outputs": [],
      "stateMutability": "nonpayable",
      "type": "function"
    },
    {
      "inputs": [
        {
          "internalType": "uint256",
          "name": "",
          "type": "uint256"
        }
      ],
      "name": "registeredFarms",
      "outputs": [
        {
          "internalType": "string",
          "name": "",
          "type": "string"
        }
      ],
      "stateMutability": "view",
      "type": "function"
    },
    {
      "inputs": [
        {
          "internalType": "uint256",
          "name": "",
          "type": "uint256"
        }
      ],
      "name": "registeredFruitTypes",
      "outputs": [
        {
          "internalType": "string",
          "name": "",
          "type": "string"
        }
      ],
      "stateMutability": "view",
      "type": "function"
    },
    {
      "inputs": [
        {
          "internalType": "address",
          "name": "_manager",
          "type": "address"
        }
      ],
      "name": "removeManager",
      "outputs": [],
      "stateMutability": "nonpayable",
      "type": "function"
    },
    {
      "inputs": [
        {
          "internalType": "address",
          "name": "",
          "type": "address"
        },
        {
          "internalType": "uint256",
          "name": "",
          "type": "uint256"
        }
      ],
      "name": "sellerListings",
      "outputs": [
        {
          "internalType": "uint256",
          "name": "",
          "type": "uint256"
        }
      ],
      "stateMutability": "view",
      "type": "function"
    },
    {
      "inputs": [
        {
          "internalType": "string",
          "name": "_farmId",
          "type": "string"
        },
        {
          "internalType": "string",
          "name": "_conditions",
          "type": "string"
        }
      ],
      "name": "updateFarmConditions",
      "outputs": [],
      "stateMutability": "nonpayable",
      "type": "function"
    }
  ],
  "bytecode": "0x6080604052348015600f57600080fd5b50336000806101000a81548173ffffffffffffffffffffffffffffffffffffffff021916908373ffffffffffffffffffffffffffffffffffffffff16021790555060018060003373ffffffffffffffffffffffffffffffffffffffff1673ffffffffffffffffffffffffffffffffffffffff16815260200190815260200160002060006101000a81548160ff02191690831515021790555061511f806100b66000396000f3fe608060405234801561001057600080fd5b50600436106101cf5760003560e01c80636bf62cf811610104578063ac9f1276116100a2578063ceadca1311610071578063ceadca13146105bf578063e32eca8d146105f4578063f493008d14610610578063f95597741461062e576101cf565b8063ac9f127614610506578063bc5e8cd71461053b578063c417216214610557578063c71b89b51461058b576101cf565b80638da5cb5b116100de5780638da5cb5b14610492578063a53fb79d146104b0578063a9b07c26146104cc578063ac18de43146104ea576101cf565b80636bf62cf814610408578063701e50841461043e57806376ce7fe91461045c576101cf565b806343622b8111610171578063569de6fd1161014b578063569de6fd1461035757806358cf8f511461037357806358eed174146103a85780635f42da09146103d8576101cf565b806343622b81146102ef5780635154da5a1461030b57806352bea36014610327576101cf565b80631b4dba9b116101ad5780631b4dba9b146102525780631fc15e93146102875780632d06177a146102b75780633f50e5af146102d3576101cf565b8063046c6712146101d4578063054564f0146101f25780630a3cb21b14610222575b600080fd5b6101dc61064c565b6040516101e99190613a17565b60405180910390f35b61020c60048036038101906102079190613ae1565b610725565b6040516102199190613b30565b60405180910390f35b61023c60048036038101906102379190613b4b565b610756565b6040516102499190613b93565b60405180910390f35b61026c60048036038101906102679190613bae565b610776565b60405161027e96959493929190613bea565b60405180910390f35b6102a1600480360381019061029c9190613bae565b6108bf565b6040516102ae9190613c95565b60405180910390f35b6102d160048036038101906102cc9190613b4b565b61096b565b005b6102ed60048036038101906102e89190613dec565b610a53565b005b61030960048036038101906103049190613ef3565b610ce3565b005b61032560048036038101906103209190613f6b565b610e46565b005b610341600480360381019061033c9190613bae565b611001565b60405161034e9190613b30565b60405180910390f35b610371600480360381019061036c91906140ad565b611025565b005b61038d600480360381019061038891906141e2565b6112f7565b60405161039f9695949392919061422b565b60405180910390f35b6103c260048036038101906103bd9190613bae565b611714565b6040516103cf9190613c95565b60405180910390f35b6103f260048036038101906103ed9190613b4b565b6117c0565b6040516103ff9190614374565b60405180910390f35b610422600480360381019061041d91906141e2565b611857565b6040516104359796959493929190614396565b60405180910390f35b610446611bce565b6040516104539190614374565b60405180910390f35b61047660048036038101906104719190613bae565b611d7b565b6040516104899796959493929190614428565b60405180910390f35b61049a6121ff565b6040516104a791906144ba565b60405180910390f35b6104ca60048036038101906104c591906144d5565b612223565b005b6104d46129e6565b6040516104e19190613b30565b60405180910390f35b61050460048036038101906104ff9190613b4b565b6129ec565b005b610520600480360381019061051b91906141e2565b612ad5565b604051610532969594939291906145ac565b60405180910390f35b61055560048036038101906105509190613f6b565b612d67565b005b610571600480360381019061056c9190613bae565b612e42565b604051610582959493929190614629565b60405180910390f35b6105a560048036038101906105a091906141e2565b613030565b6040516105b6959493929190614691565b60405180910390f35b6105d960048036038101906105d49190613bae565b613324565b6040516105eb96959493929190613bea565b60405180910390f35b61060e60048036038101906106099190614707565b61338d565b005b6106186136bf565b6040516106259190613b30565b60405180910390f35b6106366136c5565b6040516106439190613a17565b60405180910390f35b60606009805480602002602001604051908101604052809291908181526020016000905b8282101561071c57838290600052602060002001805461068f90614789565b80601f01602080910402602001604051908101604052809291908181526020018280546106bb90614789565b80156107085780601f106106dd57610100808354040283529160200191610708565b820191906000526020600020905b8154815290600101906020018083116106eb57829003601f168201915b505050505081526020019060010190610670565b50505050905090565b6006602052816000526040600020818154811061074157600080fd5b90600052602060002001600091509150505481565b60016020528060005260406000206000915054906101000a900460ff1681565b60008060008060008060008711801561079157506008548711155b6107d0576040517f08c379a00000000000000000000000000000000000000000000000000000000081526004016107c790614806565b60405180910390fd5b6000600560008981526020019081526020016000206040518060c00160405290816000820154815260200160018201548152602001600282015481526020016003820160009054906101000a900473ffffffffffffffffffffffffffffffffffffffff1673ffffffffffffffffffffffffffffffffffffffff1673ffffffffffffffffffffffffffffffffffffffff1681526020016003820160149054906101000a900460ff161515151581526020016004820154815250509050806000015181602001518260400151836060015184608001518560a001519650965096509650965096505091939550919395565b600a81815481106108cf57600080fd5b9060005260206000200160009150905080546108ea90614789565b80601f016020809104026020016040519081016040528092919081815260200182805461091690614789565b80156109635780601f1061093857610100808354040283529160200191610963565b820191906000526020600020905b81548152906001019060200180831161094657829003601f168201915b505050505081565b60008054906101000a900473ffffffffffffffffffffffffffffffffffffffff1673ffffffffffffffffffffffffffffffffffffffff163373ffffffffffffffffffffffffffffffffffffffff16146109f9576040517f08c379a00000000000000000000000000000000000000000000000000000000081526004016109f090614898565b60405180910390fd5b60018060008373ffffffffffffffffffffffffffffffffffffffff1673ffffffffffffffffffffffffffffffffffffffff16815260200190815260200160002060006101000a81548160ff02191690831515021790555050565b6040518060e00160405280858152602001848152602001838152602001600081526020018281526020013373ffffffffffffffffffffffffffffffffffffffff168152602001600067ffffffffffffffff811115610ab457610ab3613cc1565b5b604051908082528060200260200182016040528015610ae25781602001602082028036833780820191505090505b50815250600386604051610af691906148f4565b90815260200160405180910390206000820151816000019081610b199190614ab7565b506020820151816001019081610b2f9190614ab7565b506040820151816002019081610b459190614ab7565b50606082015181600301556080820151816004019081610b659190614ab7565b5060a08201518160050160006101000a81548173ffffffffffffffffffffffffffffffffffffffff021916908373ffffffffffffffffffffffffffffffffffffffff16021790555060c0820151816006019080519060200190610bc992919061379e565b509050506000805b600a80549050811015610c645786604051602001610bef91906148f4565b60405160208183030381529060405280519060200120600a8281548110610c1957610c18614b89565b5b90600052602060002001604051602001610c339190614c3b565b6040516020818303038152906040528051906020012003610c575760019150610c64565b8080600101915050610bd1565b5080610ca057600a86908060018154018082558091505060019003906000526020600020016000909190919091509081610c9e9190614ab7565b505b7fef9e0a850bb9971e155f20e4b0e490cdeafc72eab8d0da56fe2f1585ad9567de868342604051610cd393929190614c52565b60405180910390a1505050505050565b6000600383604051610cf591906148f4565b908152602001604051809103902090503373ffffffffffffffffffffffffffffffffffffffff168160050160009054906101000a900473ffffffffffffffffffffffffffffffffffffffff1673ffffffffffffffffffffffffffffffffffffffff161480610dac5750600160003373ffffffffffffffffffffffffffffffffffffffff1673ffffffffffffffffffffffffffffffffffffffff16815260200190815260200160002060009054906101000a900460ff165b610deb576040517f08c379a0000000000000000000000000000000000000000000000000000000008152600401610de290614ce3565b60405180910390fd5b81816004019081610dfc9190614ab7565b504281600301819055507fef9e0a850bb9971e155f20e4b0e490cdeafc72eab8d0da56fe2f1585ad9567de838342604051610e3993929190614c52565b60405180910390a1505050565b600160003373ffffffffffffffffffffffffffffffffffffffff1673ffffffffffffffffffffffffffffffffffffffff16815260200190815260200160002060009054906101000a900460ff1680610ee9575060008054906101000a900473ffffffffffffffffffffffffffffffffffffffff1673ffffffffffffffffffffffffffffffffffffffff163373ffffffffffffffffffffffffffffffffffffffff16145b610f28576040517f08c379a0000000000000000000000000000000000000000000000000000000008152600401610f1f90614ce3565b60405180910390fd5b600082118015610f3a57506007548211155b610f79576040517f08c379a0000000000000000000000000000000000000000000000000000000008152600401610f7090614d4f565b60405180910390fd5b6004600083815260200190815260200160002060060181908060018154018082558091505060019003906000526020600020016000909190919091509081610fc19190614ab7565b507f40e632d4a93e307bc4fd8ee554a117dbc7f782e20d62bdd43d8dcf040dfb521d828242604051610ff593929190614d6f565b60405180910390a15050565b600b818154811061101157600080fd5b906000526020600020016000915090505481565b600160003373ffffffffffffffffffffffffffffffffffffffff1673ffffffffffffffffffffffffffffffffffffffff16815260200190815260200160002060009054906101000a900460ff16806110c8575060008054906101000a900473ffffffffffffffffffffffffffffffffffffffff1673ffffffffffffffffffffffffffffffffffffffff163373ffffffffffffffffffffffffffffffffffffffff16145b611107576040517f08c379a00000000000000000000000000000000000000000000000000000000081526004016110fe90614ce3565b60405180910390fd5b6040518060c001604052808781526020018681526020018581526020018481526020018381526020018281525060028760405161114491906148f4565b908152602001604051809103902060008201518160000190816111679190614ab7565b50602082015181600101908161117d9190614ab7565b5060408201518160020190816111939190614ab7565b5060608201518160030190816111a99190614ab7565b5060808201518160040190816111bf9190614ab7565b5060a08201518160050190805190602001906111dc9291906137eb565b509050506000805b600980549050811015611277578760405160200161120291906148f4565b604051602081830303815290604052805190602001206009828154811061122c5761122b614b89565b5b906000526020600020016040516020016112469190614c3b565b604051602081830303815290604052805190602001200361126a5760019150611277565b80806001019150506111e4565b50806112b3576009879080600181540180825580915050600190039060005260206000200160009091909190915090816112b19190614ab7565b505b7f78384878ee8ef9f8c429173968af06c8e361a98cd306b33d813326106f36681f8733426040516112e693929190614dad565b60405180910390a150505050505050565b606080606080606080600060028860405161131291906148f4565b90815260200160405180910390206040518060c001604052908160008201805461133b90614789565b80601f016020809104026020016040519081016040528092919081815260200182805461136790614789565b80156113b45780601f10611389576101008083540402835291602001916113b4565b820191906000526020600020905b81548152906001019060200180831161139757829003601f168201915b505050505081526020016001820180546113cd90614789565b80601f01602080910402602001604051908101604052809291908181526020018280546113f990614789565b80156114465780601f1061141b57610100808354040283529160200191611446565b820191906000526020600020905b81548152906001019060200180831161142957829003601f168201915b5050505050815260200160028201805461145f90614789565b80601f016020809104026020016040519081016040528092919081815260200182805461148b90614789565b80156114d85780601f106114ad576101008083540402835291602001916114d8565b820191906000526020600020905b8154815290600101906020018083116114bb57829003601f168201915b505050505081526020016003820180546114f190614789565b80601f016020809104026020016040519081016040528092919081815260200182805461151d90614789565b801561156a5780601f1061153f5761010080835404028352916020019161156a565b820191906000526020600020905b81548152906001019060200180831161154d57829003601f168201915b5050505050815260200160048201805461158390614789565b80601f01602080910402602001604051908101604052809291908181526020018280546115af90614789565b80156115fc5780601f106115d1576101008083540402835291602001916115fc565b820191906000526020600020905b8154815290600101906020018083116115df57829003601f168201915b5050505050815260200160058201805480602002602001604051908101604052809291908181526020016000905b828210156116d657838290600052602060002001805461164990614789565b80601f016020809104026020016040519081016040528092919081815260200182805461167590614789565b80156116c25780601f10611697576101008083540402835291602001916116c2565b820191906000526020600020905b8154815290600101906020018083116116a557829003601f168201915b50505050508152602001906001019061162a565b50505050815250509050806000015181602001518260400151836060015184608001518560a001519650965096509650965096505091939550919395565b6009818154811061172457600080fd5b90600052602060002001600091509050805461173f90614789565b80601f016020809104026020016040519081016040528092919081815260200182805461176b90614789565b80156117b85780601f1061178d576101008083540402835291602001916117b8565b820191906000526020600020905b81548152906001019060200180831161179b57829003601f168201915b505050505081565b6060600660008373ffffffffffffffffffffffffffffffffffffffff1673ffffffffffffffffffffffffffffffffffffffff16815260200190815260200160002080548060200260200160405190810160405280929190818152602001828054801561184b57602002820191906000526020600020905b815481526020019060010190808311611837575b50505050509050919050565b60608060606000606060006060600060038960405161187691906148f4565b90815260200160405180910390206040518060e001604052908160008201805461189f90614789565b80601f01602080910402602001604051908101604052809291908181526020018280546118cb90614789565b80156119185780601f106118ed57610100808354040283529160200191611918565b820191906000526020600020905b8154815290600101906020018083116118fb57829003601f168201915b5050505050815260200160018201805461193190614789565b80601f016020809104026020016040519081016040528092919081815260200182805461195d90614789565b80156119aa5780601f1061197f576101008083540402835291602001916119aa565b820191906000526020600020905b81548152906001019060200180831161198d57829003601f168201915b505050505081526020016002820180546119c390614789565b80601f01602080910402602001604051908101604052809291908181526020018280546119ef90614789565b8015611a3c5780601f10611a1157610100808354040283529160200191611a3c565b820191906000526020600020905b815481529060010190602001808311611a1f57829003601f168201915b5050505050815260200160038201548152602001600482018054611a5f90614789565b80601f0160208091040260200160405190810160405280929190818152602001828054611a8b90614789565b8015611ad85780601f10611aad57610100808354040283529160200191611ad8565b820191906000526020600020905b815481529060010190602001808311611abb57829003601f168201915b505050505081526020016005820160009054906101000a900473ffffffffffffffffffffffffffffffffffffffff1673ffffffffffffffffffffffffffffffffffffffff1673ffffffffffffffffffffffffffffffffffffffff16815260200160068201805480602002602001604051908101604052809291908181526020018280548015611b8657602002820191906000526020600020905b815481526020019060010190808311611b72575b5050505050815250509050806000015181602001518260400151836060015184608001518560a001518660c00151975097509750975097509750975050919395979092949650565b6060600060085467ffffffffffffffff811115611bee57611bed613cc1565b5b604051908082528060200260200182016040528015611c1c5781602001602082028036833780820191505090505b5090506000805b600b80549050811015611cd15760056000600b8381548110611c4857611c47614b89565b5b9060005260206000200154815260200190815260200160002060030160149054906101000a900460ff1615611cc457600b8181548110611c8b57611c8a614b89565b5b9060005260206000200154838381518110611ca957611ca8614b89565b5b6020026020010181815250508180611cc090614e1a565b9250505b8080600101915050611c23565b5060008167ffffffffffffffff811115611cee57611ced613cc1565b5b604051908082528060200260200182016040528015611d1c5781602001602082028036833780820191505090505b50905060005b82811015611d7157838181518110611d3d57611d3c614b89565b5b6020026020010151828281518110611d5857611d57614b89565b5b6020026020010181815250508080600101915050611d22565b5080935050505090565b606080600060606000606080600088118015611d9957506007548811155b611dd8576040517f08c379a0000000000000000000000000000000000000000000000000000000008152600401611dcf90614d4f565b60405180910390fd5b6000600460008a81526020019081526020016000206040518060e0016040529081600082018054611e0890614789565b80601f0160208091040260200160405190810160405280929190818152602001828054611e3490614789565b8015611e815780601f10611e5657610100808354040283529160200191611e81565b820191906000526020600020905b815481529060010190602001808311611e6457829003601f168201915b50505050508152602001600182018054611e9a90614789565b80601f0160208091040260200160405190810160405280929190818152602001828054611ec690614789565b8015611f135780601f10611ee857610100808354040283529160200191611f13565b820191906000526020600020905b815481529060010190602001808311611ef657829003601f168201915b505050505081526020016002820160009054906101000a900473ffffffffffffffffffffffffffffffffffffffff1673ffffffffffffffffffffffffffffffffffffffff1673ffffffffffffffffffffffffffffffffffffffff16815260200160038201548152602001600482018054611f8c90614789565b80601f0160208091040260200160405190810160405280929190818152602001828054611fb890614789565b80156120055780601f10611fda57610100808354040283529160200191612005565b820191906000526020600020905b815481529060010190602001808311611fe857829003601f168201915b5050505050815260200160058201805480602002602001604051908101604052809291908181526020016000905b828210156120df57838290600052602060002001805461205290614789565b80601f016020809104026020016040519081016040528092919081815260200182805461207e90614789565b80156120cb5780601f106120a0576101008083540402835291602001916120cb565b820191906000526020600020905b8154815290600101906020018083116120ae57829003601f168201915b505050505081526020019060010190612033565b50505050815260200160068201805480602002602001604051908101604052809291908181526020016000905b828210156121b857838290600052602060002001805461212b90614789565b80601f016020809104026020016040519081016040528092919081815260200182805461215790614789565b80156121a45780601f10612179576101008083540402835291602001916121a4565b820191906000526020600020905b81548152906001019060200180831161218757829003601f168201915b50505050508152602001906001019061210c565b505050508152505090508060000151816020015182604001518360a00151846060015185608001518660c00151975097509750975097509750975050919395979092949650565b60008054906101000a900473ffffffffffffffffffffffffffffffffffffffff1681565b600060028560405161223591906148f4565b90815260200160405180910390206040518060c001604052908160008201805461225e90614789565b80601f016020809104026020016040519081016040528092919081815260200182805461228a90614789565b80156122d75780601f106122ac576101008083540402835291602001916122d7565b820191906000526020600020905b8154815290600101906020018083116122ba57829003601f168201915b505050505081526020016001820180546122f090614789565b80601f016020809104026020016040519081016040528092919081815260200182805461231c90614789565b80156123695780601f1061233e57610100808354040283529160200191612369565b820191906000526020600020905b81548152906001019060200180831161234c57829003601f168201915b5050505050815260200160028201805461238290614789565b80601f01602080910402602001604051908101604052809291908181526020018280546123ae90614789565b80156123fb5780601f106123d0576101008083540402835291602001916123fb565b820191906000526020600020905b8154815290600101906020018083116123de57829003601f168201915b5050505050815260200160038201805461241490614789565b80601f016020809104026020016040519081016040528092919081815260200182805461244090614789565b801561248d5780601f106124625761010080835404028352916020019161248d565b820191906000526020600020905b81548152906001019060200180831161247057829003601f168201915b505050505081526020016004820180546124a690614789565b80601f01602080910402602001604051908101604052809291908181526020018280546124d290614789565b801561251f5780601f106124f45761010080835404028352916020019161251f565b820191906000526020600020905b81548152906001019060200180831161250257829003601f168201915b5050505050815260200160058201805480602002602001604051908101604052809291908181526020016000905b828210156125f957838290600052602060002001805461256c90614789565b80601f016020809104026020016040519081016040528092919081815260200182805461259890614789565b80156125e55780601f106125ba576101008083540402835291602001916125e5565b820191906000526020600020905b8154815290600101906020018083116125c857829003601f168201915b50505050508152602001906001019061254d565b5050505081525050905060008160000151511161264b576040517f08c379a000000000000000000000000000000000000000000000000000000000815260040161264290614eae565b60405180910390fd5b6007600081548092919061265e90614e1a565b91905055506040518060e001604052808681526020018581526020013373ffffffffffffffffffffffffffffffffffffffff168152602001428152602001838152602001600067ffffffffffffffff8111156126bd576126bc613cc1565b5b6040519080825280602002602001820160405280156126f057816020015b60608152602001906001900390816126db5790505b508152602001600067ffffffffffffffff81111561271157612710613cc1565b5b60405190808252806020026020018201604052801561274457816020015b606081526020019060019003908161272f5790505b5081525060046000600754815260200190815260200160002060008201518160000190816127729190614ab7565b5060208201518160010190816127889190614ab7565b5060408201518160020160006101000a81548173ffffffffffffffffffffffffffffffffffffffff021916908373ffffffffffffffffffffffffffffffffffffffff1602179055506060820151816003015560808201518160040190816127ef9190614ab7565b5060a082015181600501908051906020019061280c9291906137eb565b5060c08201518160060190805190602001906128299291906137eb565b50905050600060038460405161283f91906148f4565b90815260200160405180910390209050600073ffffffffffffffffffffffffffffffffffffffff168160050160009054906101000a900473ffffffffffffffffffffffffffffffffffffffff1673ffffffffffffffffffffffffffffffffffffffff16036128d957806006016007549080600181540180825580915050600190039060005260206000200160009091909190915055612924565b6003846040516128e991906148f4565b908152602001604051809103902060060160075490806001815401808255809150506001900390600052602060002001600090919091909150555b60046000600754815260200190815260200160002060050180600181540180825580915050600190039060005260206000200160006040518060400160405280601581526020017f4861727665737465642062792050726f64756365720000000000000000000000815250909190915090816129a09190614ab7565b507f28222dbd9906bc73e71cbd7bd296a46d23de9224d425c30be175af99b4ab774160075433426040516129d693929190614f1a565b60405180910390a1505050505050565b60085481565b60008054906101000a900473ffffffffffffffffffffffffffffffffffffffff1673ffffffffffffffffffffffffffffffffffffffff163373ffffffffffffffffffffffffffffffffffffffff1614612a7a576040517f08c379a0000000000000000000000000000000000000000000000000000000008152600401612a7190614898565b60405180910390fd5b6000600160008373ffffffffffffffffffffffffffffffffffffffff1673ffffffffffffffffffffffffffffffffffffffff16815260200190815260200160002060006101000a81548160ff02191690831515021790555050565b600381805160208101820180518482526020830160208501208183528095505050505050600091509050806000018054612b0e90614789565b80601f0160208091040260200160405190810160405280929190818152602001828054612b3a90614789565b8015612b875780601f10612b5c57610100808354040283529160200191612b87565b820191906000526020600020905b815481529060010190602001808311612b6a57829003601f168201915b505050505090806001018054612b9c90614789565b80601f0160208091040260200160405190810160405280929190818152602001828054612bc890614789565b8015612c155780601f10612bea57610100808354040283529160200191612c15565b820191906000526020600020905b815481529060010190602001808311612bf857829003601f168201915b505050505090806002018054612c2a90614789565b80601f0160208091040260200160405190810160405280929190818152602001828054612c5690614789565b8015612ca35780601f10612c7857610100808354040283529160200191612ca3565b820191906000526020600020905b815481529060010190602001808311612c8657829003601f168201915b505050505090806003015490806004018054612cbe90614789565b80601f0160208091040260200160405190810160405280929190818152602001828054612cea90614789565b8015612d375780601f10612d0c57610100808354040283529160200191612d37565b820191906000526020600020905b815481529060010190602001808311612d1a57829003601f168201915b5050505050908060050160009054906101000a900473ffffffffffffffffffffffffffffffffffffffff16905086565b600082118015612d7957506007548211155b612db8576040517f08c379a0000000000000000000000000000000000000000000000000000000008152600401612daf90614d4f565b60405180910390fd5b6004600083815260200190815260200160002060050181908060018154018082558091505060019003906000526020600020016000909190919091509081612e009190614ab7565b507f28222dbd9906bc73e71cbd7bd296a46d23de9224d425c30be175af99b4ab774182823342604051612e369493929190614f64565b60405180910390a15050565b6004602052806000526040600020600091509050806000018054612e6590614789565b80601f0160208091040260200160405190810160405280929190818152602001828054612e9190614789565b8015612ede5780601f10612eb357610100808354040283529160200191612ede565b820191906000526020600020905b815481529060010190602001808311612ec157829003601f168201915b505050505090806001018054612ef390614789565b80601f0160208091040260200160405190810160405280929190818152602001828054612f1f90614789565b8015612f6c5780601f10612f4157610100808354040283529160200191612f6c565b820191906000526020600020905b815481529060010190602001808311612f4f57829003601f168201915b5050505050908060020160009054906101000a900473ffffffffffffffffffffffffffffffffffffffff1690806003015490806004018054612fad90614789565b80601f0160208091040260200160405190810160405280929190818152602001828054612fd990614789565b80156130265780601f10612ffb57610100808354040283529160200191613026565b820191906000526020600020905b81548152906001019060200180831161300957829003601f168201915b5050505050905085565b60028180516020810182018051848252602083016020850120818352809550505050505060009150905080600001805461306990614789565b80601f016020809104026020016040519081016040528092919081815260200182805461309590614789565b80156130e25780601f106130b7576101008083540402835291602001916130e2565b820191906000526020600020905b8154815290600101906020018083116130c557829003601f168201915b5050505050908060010180546130f790614789565b80601f016020809104026020016040519081016040528092919081815260200182805461312390614789565b80156131705780601f1061314557610100808354040283529160200191613170565b820191906000526020600020905b81548152906001019060200180831161315357829003601f168201915b50505050509080600201805461318590614789565b80601f01602080910402602001604051908101604052809291908181526020018280546131b190614789565b80156131fe5780601f106131d3576101008083540402835291602001916131fe565b820191906000526020600020905b8154815290600101906020018083116131e157829003601f168201915b50505050509080600301805461321390614789565b80601f016020809104026020016040519081016040528092919081815260200182805461323f90614789565b801561328c5780601f106132615761010080835404028352916020019161328c565b820191906000526020600020905b81548152906001019060200180831161326f57829003601f168201915b5050505050908060040180546132a190614789565b80601f01602080910402602001604051908101604052809291908181526020018280546132cd90614789565b801561331a5780601f106132ef5761010080835404028352916020019161331a565b820191906000526020600020905b8154815290600101906020018083116132fd57829003601f168201915b5050505050905085565b60056020528060005260406000206000915090508060000154908060010154908060020154908060030160009054906101000a900473ffffffffffffffffffffffffffffffffffffffff16908060030160149054906101000a900460ff16908060040154905086565b60008311801561339f57506007548311155b6133de576040517f08c379a00000000000000000000000000000000000000000000000000000000081526004016133d590614d4f565b60405180910390fd5b60008211613421576040517f08c379a000000000000000000000000000000000000000000000000000000000815260040161341890614ffc565b60405180910390fd5b60008111613464576040517f08c379a000000000000000000000000000000000000000000000000000000000815260040161345b90615068565b60405180910390fd5b6008600081548092919061347790614e1a565b91905055506040518060c001604052808481526020018381526020018281526020013373ffffffffffffffffffffffffffffffffffffffff1681526020016001151581526020014281525060056000600854815260200190815260200160002060008201518160000155602082015181600101556040820151816002015560608201518160030160006101000a81548173ffffffffffffffffffffffffffffffffffffffff021916908373ffffffffffffffffffffffffffffffffffffffff16021790555060808201518160030160146101000a81548160ff02191690831515021790555060a08201518160040155905050600660003373ffffffffffffffffffffffffffffffffffffffff1673ffffffffffffffffffffffffffffffffffffffff1681526020019081526020016000206008549080600181540180825580915050600190039060005260206000200160009091909190915055600b60085490806001815401808255809150506001900390600052602060002001600090919091909150556004600084815260200190815260200160002060050180600181540180825580915050600190039060005260206000200160006040518060400160405280600f81526020017f4c697374656420666f722053616c650000000000000000000000000000000000815250909190915090816136769190614ab7565b507f74db1cf85b7690d991329cd32074d6249e834ec06591f8652f737065d42b040e60085484848433426040516136b296959493929190615088565b60405180910390a1505050565b60075481565b6060600a805480602002602001604051908101604052809291908181526020016000905b8282101561379557838290600052602060002001805461370890614789565b80601f016020809104026020016040519081016040528092919081815260200182805461373490614789565b80156137815780601f1061375657610100808354040283529160200191613781565b820191906000526020600020905b81548152906001019060200180831161376457829003601f168201915b5050505050815260200190600101906136e9565b50505050905090565b8280548282559060005260206000209081019282156137da579160200282015b828111156137d95782518255916020019190600101906137be565b5b5090506137e79190613844565b5090565b828054828255906000526020600020908101928215613833579160200282015b828111156138325782518290816138229190614ab7565b509160200191906001019061380b565b5b5090506138409190613861565b5090565b5b8082111561385d576000816000905550600101613845565b5090565b5b8082111561388157600081816138789190613885565b50600101613862565b5090565b50805461389190614789565b6000825580601f106138a357506138c2565b601f0160209004906000526020600020908101906138c19190613844565b5b50565b600081519050919050565b600082825260208201905092915050565b6000819050602082019050919050565b600081519050919050565b600082825260208201905092915050565b60005b8381101561392b578082015181840152602081019050613910565b60008484015250505050565b6000601f19601f8301169050919050565b6000613953826138f1565b61395d81856138fc565b935061396d81856020860161390d565b61397681613937565b840191505092915050565b600061398d8383613948565b905092915050565b6000602082019050919050565b60006139ad826138c5565b6139b781856138d0565b9350836020820285016139c9856138e1565b8060005b85811015613a0557848403895281516139e68582613981565b94506139f183613995565b925060208a019950506001810190506139cd565b50829750879550505050505092915050565b60006020820190508181036000830152613a3181846139a2565b905092915050565b6000604051905090565b600080fd5b600080fd5b600073ffffffffffffffffffffffffffffffffffffffff82169050919050565b6000613a7882613a4d565b9050919050565b613a8881613a6d565b8114613a9357600080fd5b50565b600081359050613aa581613a7f565b92915050565b6000819050919050565b613abe81613aab565b8114613ac957600080fd5b50565b600081359050613adb81613ab5565b92915050565b60008060408385031215613af857613af7613a43565b5b6000613b0685828601613a96565b9250506020613b1785828601613acc565b9150509250929050565b613b2a81613aab565b82525050565b6000602082019050613b456000830184613b21565b92915050565b600060208284031215613b6157613b60613a43565b5b6000613b6f84828501613a96565b91505092915050565b60008115159050919050565b613b8d81613b78565b82525050565b6000602082019050613ba86000830184613b84565b92915050565b600060208284031215613bc457613bc3613a43565b5b6000613bd284828501613acc565b91505092915050565b613be481613a6d565b82525050565b600060c082019050613bff6000830189613b21565b613c0c6020830188613b21565b613c196040830187613b21565b613c266060830186613bdb565b613c336080830185613b84565b613c4060a0830184613b21565b979650505050505050565b600082825260208201905092915050565b6000613c67826138f1565b613c718185613c4b565b9350613c8181856020860161390d565b613c8a81613937565b840191505092915050565b60006020820190508181036000830152613caf8184613c5c565b905092915050565b600080fd5b600080fd5b7f4e487b7100000000000000000000000000000000000000000000000000000000600052604160045260246000fd5b613cf982613937565b810181811067ffffffffffffffff82111715613d1857613d17613cc1565b5b80604052505050565b6000613d2b613a39565b9050613d378282613cf0565b919050565b600067ffffffffffffffff821115613d5757613d56613cc1565b5b613d6082613937565b9050602081019050919050565b82818337600083830152505050565b6000613d8f613d8a84613d3c565b613d21565b905082815260208101848484011115613dab57613daa613cbc565b5b613db6848285613d6d565b509392505050565b600082601f830112613dd357613dd2613cb7565b5b8135613de3848260208601613d7c565b91505092915050565b600080600080600060a08688031215613e0857613e07613a43565b5b600086013567ffffffffffffffff811115613e2657613e25613a48565b5b613e3288828901613dbe565b955050602086013567ffffffffffffffff811115613e5357613e52613a48565b5b613e5f88828901613dbe565b945050604086013567ffffffffffffffff811115613e8057613e7f613a48565b5b613e8c88828901613dbe565b935050606086013567ffffffffffffffff811115613ead57613eac613a48565b5b613eb988828901613dbe565b925050608086013567ffffffffffffffff811115613eda57613ed9613a48565b5b613ee688828901613dbe565b9150509295509295909350565b60008060408385031215613f0a57613f09613a43565b5b600083013567ffffffffffffffff811115613f2857613f27613a48565b5b613f3485828601613dbe565b925050602083013567ffffffffffffffff811115613f5557613f54613a48565b5b613f6185828601613dbe565b9150509250929050565b60008060408385031215613f8257613f81613a43565b5b6000613f9085828601613acc565b925050602083013567ffffffffffffffff811115613fb157613fb0613a48565b5b613fbd85828601613dbe565b9150509250929050565b600067ffffffffffffffff821115613fe257613fe1613cc1565b5b602082029050602081019050919050565b600080fd5b600061400b61400684613fc7565b613d21565b9050808382526020820190506020840283018581111561402e5761402d613ff3565b5b835b8181101561407557803567ffffffffffffffff81111561405357614052613cb7565b5b8086016140608982613dbe565b85526020850194505050602081019050614030565b5050509392505050565b600082601f83011261409457614093613cb7565b5b81356140a4848260208601613ff8565b91505092915050565b60008060008060008060c087890312156140ca576140c9613a43565b5b600087013567ffffffffffffffff8111156140e8576140e7613a48565b5b6140f489828a01613dbe565b965050602087013567ffffffffffffffff81111561411557614114613a48565b5b61412189828a01613dbe565b955050604087013567ffffffffffffffff81111561414257614141613a48565b5b61414e89828a01613dbe565b945050606087013567ffffffffffffffff81111561416f5761416e613a48565b5b61417b89828a01613dbe565b935050608087013567ffffffffffffffff81111561419c5761419b613a48565b5b6141a889828a01613dbe565b92505060a087013567ffffffffffffffff8111156141c9576141c8613a48565b5b6141d589828a0161407f565b9150509295509295509295565b6000602082840312156141f8576141f7613a43565b5b600082013567ffffffffffffffff81111561421657614215613a48565b5b61422284828501613dbe565b91505092915050565b600060c08201905081810360008301526142458189613c5c565b905081810360208301526142598188613c5c565b9050818103604083015261426d8187613c5c565b905081810360608301526142818186613c5c565b905081810360808301526142958185613c5c565b905081810360a08301526142a981846139a2565b9050979650505050505050565b600081519050919050565b600082825260208201905092915050565b6000819050602082019050919050565b6142eb81613aab565b82525050565b60006142fd83836142e2565b60208301905092915050565b6000602082019050919050565b6000614321826142b6565b61432b81856142c1565b9350614336836142d2565b8060005b8381101561436757815161434e88826142f1565b975061435983614309565b92505060018101905061433a565b5085935050505092915050565b6000602082019050818103600083015261438e8184614316565b905092915050565b600060e08201905081810360008301526143b0818a613c5c565b905081810360208301526143c48189613c5c565b905081810360408301526143d88188613c5c565b90506143e76060830187613b21565b81810360808301526143f98186613c5c565b905061440860a0830185613bdb565b81810360c083015261441a8184614316565b905098975050505050505050565b600060e0820190508181036000830152614442818a613c5c565b905081810360208301526144568189613c5c565b90506144656040830188613bdb565b818103606083015261447781876139a2565b90506144866080830186613b21565b81810360a08301526144988185613c5c565b905081810360c08301526144ac81846139a2565b905098975050505050505050565b60006020820190506144cf6000830184613bdb565b92915050565b600080600080608085870312156144ef576144ee613a43565b5b600085013567ffffffffffffffff81111561450d5761450c613a48565b5b61451987828801613dbe565b945050602085013567ffffffffffffffff81111561453a57614539613a48565b5b61454687828801613dbe565b935050604085013567ffffffffffffffff81111561456757614566613a48565b5b61457387828801613dbe565b925050606085013567ffffffffffffffff81111561459457614593613a48565b5b6145a087828801613dbe565b91505092959194509250565b600060c08201905081810360008301526145c68189613c5c565b905081810360208301526145da8188613c5c565b905081810360408301526145ee8187613c5c565b90506145fd6060830186613b21565b818103608083015261460f8185613c5c565b905061461e60a0830184613bdb565b979650505050505050565b600060a08201905081810360008301526146438188613c5c565b905081810360208301526146578187613c5c565b90506146666040830186613bdb565b6146736060830185613b21565b81810360808301526146858184613c5c565b90509695505050505050565b600060a08201905081810360008301526146ab8188613c5c565b905081810360208301526146bf8187613c5c565b905081810360408301526146d38186613c5c565b905081810360608301526146e78185613c5c565b905081810360808301526146fb8184613c5c565b90509695505050505050565b6000806000606084860312156147205761471f613a43565b5b600061472e86828701613acc565b935050602061473f86828701613acc565b925050604061475086828701613acc565b9150509250925092565b7f4e487b7100000000000000000000000000000000000000000000000000000000600052602260045260246000fd5b600060028204905060018216806147a157607f821691505b6020821081036147b4576147b361475a565b5b50919050565b7f496e76616c6964204c697374696e672049440000000000000000000000000000600082015250565b60006147f0601283613c4b565b91506147fb826147ba565b602082019050919050565b6000602082019050818103600083015261481f816147e3565b9050919050565b7f4f6e6c79206f776e65722063616e20706572666f726d2074686973206163746960008201527f6f6e000000000000000000000000000000000000000000000000000000000000602082015250565b6000614882602283613c4b565b915061488d82614826565b604082019050919050565b600060208201905081810360008301526148b181614875565b9050919050565b600081905092915050565b60006148ce826138f1565b6148d881856148b8565b93506148e881856020860161390d565b80840191505092915050565b600061490082846148c3565b915081905092915050565b60008190508160005260206000209050919050565b60006020601f8301049050919050565b600082821b905092915050565b60006008830261496d7fffffffffffffffffffffffffffffffffffffffffffffffffffffffffffffffff82614930565b6149778683614930565b95508019841693508086168417925050509392505050565b6000819050919050565b60006149b46149af6149aa84613aab565b61498f565b613aab565b9050919050565b6000819050919050565b6149ce83614999565b6149e26149da826149bb565b84845461493d565b825550505050565b600090565b6149f76149ea565b614a028184846149c5565b505050565b5b81811015614a2657614a1b6000826149ef565b600181019050614a08565b5050565b601f821115614a6b57614a3c8161490b565b614a4584614920565b81016020851015614a54578190505b614a68614a6085614920565b830182614a07565b50505b505050565b600082821c905092915050565b6000614a8e60001984600802614a70565b1980831691505092915050565b6000614aa78383614a7d565b9150826002028217905092915050565b614ac0826138f1565b67ffffffffffffffff811115614ad957614ad8613cc1565b5b614ae38254614789565b614aee828285614a2a565b600060209050601f831160018114614b215760008415614b0f578287015190505b614b198582614a9b565b865550614b81565b601f198416614b2f8661490b565b60005b82811015614b5757848901518255600182019150602085019450602081019050614b32565b86831015614b745784890151614b70601f891682614a7d565b8355505b6001600288020188555050505b505050505050565b7f4e487b7100000000000000000000000000000000000000000000000000000000600052603260045260246000fd5b60008154614bc581614789565b614bcf81866148b8565b94506001821660008114614bea5760018114614bff57614c32565b60ff1983168652811515820286019350614c32565b614c088561490b565b60005b83811015614c2a57815481890152600182019150602081019050614c0b565b838801955050505b50505092915050565b6000614c478284614bb8565b915081905092915050565b60006060820190508181036000830152614c6c8186613c5c565b90508181036020830152614c808185613c5c565b9050614c8f6040830184613b21565b949350505050565b7f4e6f7420617574686f72697a6564000000000000000000000000000000000000600082015250565b6000614ccd600e83613c4b565b9150614cd882614c97565b602082019050919050565b60006020820190508181036000830152614cfc81614cc0565b9050919050565b7f496e76616c696420467275697420494400000000000000000000000000000000600082015250565b6000614d39601083613c4b565b9150614d4482614d03565b602082019050919050565b60006020820190508181036000830152614d6881614d2c565b9050919050565b6000606082019050614d846000830186613b21565b8181036020830152614d968185613c5c565b9050614da56040830184613b21565b949350505050565b60006060820190508181036000830152614dc78186613c5c565b9050614dd66020830185613bdb565b614de36040830184613b21565b949350505050565b7f4e487b7100000000000000000000000000000000000000000000000000000000600052601160045260246000fd5b6000614e2582613aab565b91507fffffffffffffffffffffffffffffffffffffffffffffffffffffffffffffffff8203614e5757614e56614deb565b5b600182019050919050565b7f46727569742074797065206e6f7420696e20636174616c6f6700000000000000600082015250565b6000614e98601983613c4b565b9150614ea382614e62565b602082019050919050565b60006020820190508181036000830152614ec781614e8b565b9050919050565b7f4861727665737465640000000000000000000000000000000000000000000000600082015250565b6000614f04600983613c4b565b9150614f0f82614ece565b602082019050919050565b6000608082019050614f2f6000830186613b21565b8181036020830152614f4081614ef7565b9050614f4f6040830185613bdb565b614f5c6060830184613b21565b949350505050565b6000608082019050614f796000830187613b21565b8181036020830152614f8b8186613c5c565b9050614f9a6040830185613bdb565b614fa76060830184613b21565b95945050505050565b7f5072696365206d7573742062652067726561746572207468616e203000000000600082015250565b6000614fe6601c83613c4b565b9150614ff182614fb0565b602082019050919050565b6000602082019050818103600083015261501581614fd9565b9050919050565b7f5175616e74697479206d7573742062652067726561746572207468616e203000600082015250565b6000615052601f83613c4b565b915061505d8261501c565b602082019050919050565b6000602082019050818103600083015261508181615045565b9050919050565b600060c08201905061509d6000830189613b21565b6150aa6020830188613b21565b6150b76040830187613b21565b6150c46060830186613b21565b6150d16080830185613bdb565b6150de60a0830184613b21565b97965050505050505056fea2646970667358221220e83841b9a363cee4088c06cca0add29e57a93d1baa5f39f97d8f98bc447282d564736f6c634300081c0033",
  "linkReferences": {},
  "deployedLinkReferences": {}
}