{
  "_format": "hh-sol-artifact-1",
  "contractName": "FruitSupplyChain",
  "sourceName": "contracts/FruitSupplyChain.sol",
  "abi": [
    {
      "inputs": [],
      "stateMutability": "nonpayable",
      "type": "constructor"
    },
    {
      "anonymous": false,
      "inputs": [
        {
          "indexed": false,
          "internalType": "string",
          "name": "fruitType",
          "type": "string"
        },
        {
          "indexed": false,
          "internalType": "address",
          "name": "by",
          "type": "address"
        },
        {
          "indexed": false,
          "internalType": "uint256",
          "name": "timestamp",
          "type": "uint256"
        }
      ],
      "name": "CatalogAdded",
      "type": "event"
    },
    {
      "anonymous": false,
      "inputs": [
        {
          "indexed": false,
          "internalType": "string",
          "name": "farmId",
          "type": "string"
        },
        {
          "indexed": false,
          "internalType": "string",
          "name": "conditions",
          "type": "string"
        },
        {
          "indexed": false,
          "internalType": "uint256",
          "name": "timestamp",
          "type": "uint256"
        }
      ],
      "name": "FarmUpdated",
      "type": "event"
    },
    {
      "anonymous": false,
      "inputs": [
        {
          "indexed": false,
          "internalType": "string",
          "name": "fruitType",
          "type": "string"
        },
        {
          "indexed": false,
          "internalType": "string",
          "name": "ipfsHash",
          "type": "string"
        },
        {
          "indexed": false,
          "internalType": "uint256",
          "name": "timestamp",
          "type": "uint256"
        }
      ],
      "name": "FruitHashUpdated",
      "type": "event"
    },
    {
      "anonymous": false,
      "inputs": [
        {
          "indexed": false,
          "internalType": "uint256",
          "name": "listingId",
          "type": "uint256"
        },
        {
          "indexed": false,
          "internalType": "uint256",
          "name": "fruitId",
          "type": "uint256"
        },
        {
          "indexed": false,
          "internalType": "uint256",
          "name": "price",
          "type": "uint256"
        },
        {
          "indexed": false,
          "internalType": "uint256",
          "name": "quantity",
          "type": "uint256"
        },
        {
          "indexed": false,
          "internalType": "address",
          "name": "seller",
          "type": "address"
        },
        {
          "indexed": false,
          "internalType": "uint256",
          "name": "timestamp",
          "type": "uint256"
        }
      ],
      "name": "ProductListed",
      "type": "event"
    },
    {
      "anonymous": false,
      "inputs": [
        {
          "indexed": false,
          "internalType": "uint256",
          "name": "listingId",
          "type": "uint256"
        },
        {
          "indexed": false,
          "internalType": "address",
          "name": "buyer",
          "type": "address"
        },
        {
          "indexed": false,
          "internalType": "uint256",
          "name": "quantity",
          "type": "uint256"
        },
        {
          "indexed": false,
          "internalType": "uint256",
          "name": "timestamp",
          "type": "uint256"
        }
      ],
      "name": "ProductPurchased",
      "type": "event"
    },
    {
      "anonymous": false,
      "inputs": [
        {
          "indexed": false,
          "internalType": "uint256",
          "name": "fruitId",
          "type": "uint256"
        },
        {
          "indexed": false,
          "internalType": "string",
          "name": "recommendation",
          "type": "string"
        },
        {
          "indexed": false,
          "internalType": "uint256",
          "name": "timestamp",
          "type": "uint256"
        }
      ],
      "name": "RecommendationAdded",
      "type": "event"
    },
    {
      "anonymous": false,
      "inputs": [
        {
          "indexed": false,
          "internalType": "uint256",
          "name": "fruitId",
          "type": "uint256"
        },
        {
          "indexed": false,
          "internalType": "string",
          "name": "step",
          "type": "string"
        },
        {
          "indexed": false,
          "internalType": "address",
          "name": "by",
          "type": "address"
        },
        {
          "indexed": false,
          "internalType": "uint256",
          "name": "timestamp",
          "type": "uint256"
        }
      ],
      "name": "StepRecorded",
      "type": "event"
    },
    {
      "inputs": [
        {
          "internalType": "string",
          "name": "_fruitType",
          "type": "string"
        },
        {
          "internalType": "string",
          "name": "_description",
          "type": "string"
        },
        {
          "internalType": "string",
          "name": "_growingSeason",
          "type": "string"
        },
        {
          "internalType": "string",
          "name": "_nutritionalValue",
          "type": "string"
        },
        {
          "internalType": "string",
          "name": "_storageConditions",
          "type": "string"
        },
        {
          "internalType": "string[]",
          "name": "_commonVarieties",
          "type": "string[]"
        }
      ],
      "name": "addFruitCatalog",
      "outputs": [],
      "stateMutability": "nonpayable",
      "type": "function"
    },
    {
      "inputs": [
        {
          "internalType": "address",
          "name": "_manager",
          "type": "address"
        }
      ],
      "name": "addManager",
      "outputs": [],
      "stateMutability": "nonpayable",
      "type": "function"
    },
    {
      "inputs": [
        {
          "internalType": "uint256",
          "name": "_fruitId",
          "type": "uint256"
        },
        {
          "internalType": "string",
          "name": "_recommendation",
          "type": "string"
        }
      ],
      "name": "addRecommendation",
      "outputs": [],
      "stateMutability": "nonpayable",
      "type": "function"
    },
    {
      "inputs": [
        {
          "internalType": "address",
          "name": "",
          "type": "address"
        }
      ],
      "name": "authorizedManagers",
      "outputs": [
        {
          "internalType": "bool",
          "name": "",
          "type": "bool"
        }
      ],
      "stateMutability": "view",
      "type": "function"
    },
    {
      "inputs": [
        {
          "internalType": "string",
          "name": "",
          "type": "string"
        }
      ],
      "name": "farms",
      "outputs": [
        {
          "internalType": "string",
          "name": "location",
          "type": "string"
        },
        {
          "internalType": "string",
          "name": "climate",
          "type": "string"
        },
        {
          "internalType": "string",
          "name": "soil",
          "type": "string"
        },
        {
          "internalType": "uint256",
          "name": "lastUpdated",
          "type": "uint256"
        },
        {
          "internalType": "string",
          "name": "currentConditions",
          "type": "string"
        },
        {
          "internalType": "address",
          "name": "owner",
          "type": "address"
        }
      ],
      "stateMutability": "view",
      "type": "function"
    },
    {
      "inputs": [
        {
          "internalType": "string",
          "name": "",
          "type": "string"
        }
      ],
      "name": "fruitCatalogs",
      "outputs": [
        {
          "internalType": "string",
          "name": "name",
          "type": "string"
        },
        {
          "internalType": "string",
          "name": "description",
          "type": "string"
        },
        {
          "internalType": "string",
          "name": "growingSeason",
          "type": "string"
        },
        {
          "internalType": "string",
          "name": "nutritionalValue",
          "type": "string"
        },
        {
          "internalType": "string",
          "name": "storageConditions",
          "type": "string"
        }
      ],
      "stateMutability": "view",
      "type": "function"
    },
    {
      "inputs": [],
      "name": "fruitCount",
      "outputs": [
        {
          "internalType": "uint256",
          "name": "",
          "type": "uint256"
        }
      ],
      "stateMutability": "view",
      "type": "function"
    },
    {
      "inputs": [
        {
          "internalType": "string",
          "name": "",
          "type": "string"
        }
      ],
      "name": "fruitHashes",
      "outputs": [
        {
          "internalType": "string",
          "name": "",
          "type": "string"
        }
      ],
      "stateMutability": "view",
      "type": "function"
    },
    {
      "inputs": [
        {
          "internalType": "uint256",
          "name": "",
          "type": "uint256"
        }
      ],
      "name": "fruits",
      "outputs": [
        {
          "internalType": "string",
          "name": "fruitType",
          "type": "string"
        },
        {
          "internalType": "string",
          "name": "origin",
          "type": "string"
        },
        {
          "internalType": "address",
          "name": "producer",
          "type": "address"
        },
        {
          "internalType": "uint256",
          "name": "harvestDate",
          "type": "uint256"
        },
        {
          "internalType": "string",
          "name": "quality",
          "type": "string"
        },
        {
          "internalType": "uint256",
          "name": "quantity",
          "type": "uint256"
        }
      ],
      "stateMutability": "view",
      "type": "function"
    },
    {
      "inputs": [],
      "name": "getAllActiveListings",
      "outputs": [
        {
          "internalType": "uint256[]",
          "name": "",
          "type": "uint256[]"
        }
      ],
      "stateMutability": "view",
      "type": "function"
    },
    {
      "inputs": [],
      "name": "getAllFarms",
      "outputs": [
        {
          "internalType": "string[]",
          "name": "",
          "type": "string[]"
        }
      ],
      "stateMutability": "view",
      "type": "function"
    },
    {
      "inputs": [],
      "name": "getAllFruitTypes",
      "outputs": [
        {
          "internalType": "string[]",
          "name": "",
          "type": "string[]"
        }
      ],
      "stateMutability": "view",
      "type": "function"
    },
    {
      "inputs": [
        {
          "internalType": "string",
          "name": "_farmId",
          "type": "string"
        }
      ],
      "name": "getFarmData",
      "outputs": [
        {
          "internalType": "string",
          "name": "",
          "type": "string"
        },
        {
          "internalType": "string",
          "name": "",
          "type": "string"
        },
        {
          "internalType": "string",
          "name": "",
          "type": "string"
        },
        {
          "internalType": "uint256",
          "name": "",
          "type": "uint256"
        },
        {
          "internalType": "string",
          "name": "",
          "type": "string"
        },
        {
          "internalType": "address",
          "name": "",
          "type": "address"
        },
        {
          "internalType": "uint256[]",
          "name": "",
          "type": "uint256[]"
        }
      ],
      "stateMutability": "view",
      "type": "function"
    },
    {
      "inputs": [
        {
          "internalType": "uint256",
          "name": "_fruitId",
          "type": "uint256"
        }
      ],
      "name": "getFruit",
      "outputs": [
        {
          "internalType": "string",
          "name": "",
          "type": "string"
        },
        {
          "internalType": "string",
          "name": "",
          "type": "string"
        },
        {
          "internalType": "address",
          "name": "",
          "type": "address"
        },
        {
          "internalType": "string[]",
          "name": "",
          "type": "string[]"
        },
        {
          "internalType": "uint256",
          "name": "",
          "type": "uint256"
        },
        {
          "internalType": "string",
          "name": "",
          "type": "string"
        },
        {
          "internalType": "string[]",
          "name": "",
          "type": "string[]"
        },
        {
          "internalType": "uint256",
          "name": "",
          "type": "uint256"
        }
      ],
      "stateMutability": "view",
      "type": "function"
    },
    {
      "inputs": [
        {
          "internalType": "string",
          "name": "_fruitType",
          "type": "string"
        }
      ],
      "name": "getFruitCatalog",
      "outputs": [
        {
          "internalType": "string",
          "name": "",
          "type": "string"
        },
        {
          "internalType": "string",
          "name": "",
          "type": "string"
        },
        {
          "internalType": "string",
          "name": "",
          "type": "string"
        },
        {
          "internalType": "string",
          "name": "",
          "type": "string"
        },
        {
          "internalType": "string",
          "name": "",
          "type": "string"
        },
        {
          "internalType": "string[]",
          "name": "",
          "type": "string[]"
        }
      ],
      "stateMutability": "view",
      "type": "function"
    },
    {
      "inputs": [
        {
          "internalType": "string",
          "name": "fruitType",
          "type": "string"
        }
      ],
      "name": "getFruitHash",
      "outputs": [
        {
          "internalType": "string",
          "name": "",
          "type": "string"
        }
      ],
      "stateMutability": "view",
      "type": "function"
    },
    {
      "inputs": [
        {
          "internalType": "uint256",
          "name": "_listingId",
          "type": "uint256"
        }
      ],
      "name": "getListedProduct",
      "outputs": [
        {
          "internalType": "uint256",
          "name": "fruitId",
          "type": "uint256"
        },
        {
          "internalType": "uint256",
          "name": "price",
          "type": "uint256"
        },
        {
          "internalType": "uint256",
          "name": "quantity",
          "type": "uint256"
        },
        {
          "internalType": "address",
          "name": "seller",
          "type": "address"
        },
        {
          "internalType": "bool",
          "name": "isActive",
          "type": "bool"
        },
        {
          "internalType": "uint256",
          "name": "listedTimestamp",
          "type": "uint256"
        },
        {
          "internalType": "bool",
          "name": "allowPartialPurchase",
          "type": "bool"
        }
      ],
      "stateMutability": "view",
      "type": "function"
    },
    {
      "inputs": [
        {
          "internalType": "address",
          "name": "_seller",
          "type": "address"
        }
      ],
      "name": "getSellerListings",
      "outputs": [
        {
          "internalType": "uint256[]",
          "name": "",
          "type": "uint256[]"
        }
      ],
      "stateMutability": "view",
      "type": "function"
    },
    {
      "inputs": [
        {
          "internalType": "string",
          "name": "_fruitType",
          "type": "string"
        },
        {
          "internalType": "string",
          "name": "_origin",
          "type": "string"
        },
        {
          "internalType": "string",
          "name": "_farmId",
          "type": "string"
        },
        {
          "internalType": "string",
          "name": "_quality",
          "type": "string"
        },
        {
          "internalType": "uint256",
          "name": "_quantity",
          "type": "uint256"
        }
      ],
      "name": "harvestFruit",
      "outputs": [],
      "stateMutability": "nonpayable",
      "type": "function"
    },
    {
      "inputs": [
        {
          "internalType": "string",
          "name": "",
          "type": "string"
        }
      ],
      "name": "isFarmRegistered",
      "outputs": [
        {
          "internalType": "bool",
          "name": "",
          "type": "bool"
        }
      ],
      "stateMutability": "view",
      "type": "function"
    },
    {
      "inputs": [
        {
          "internalType": "uint256",
          "name": "_fruitId",
          "type": "uint256"
        },
        {
          "internalType": "uint256",
          "name": "_price",
          "type": "uint256"
        },
        {
          "internalType": "uint256",
          "name": "_quantity",
          "type": "uint256"
        },
        {
          "internalType": "bool",
          "name": "_allowPartialPurchase",
          "type": "bool"
        }
      ],
      "name": "listProductForSale",
      "outputs": [],
      "stateMutability": "nonpayable",
      "type": "function"
    },
    {
      "inputs": [
        {
          "internalType": "uint256",
          "name": "",
          "type": "uint256"
        }
      ],
      "name": "listedProducts",
      "outputs": [
        {
          "internalType": "uint256",
          "name": "fruitId",
          "type": "uint256"
        },
        {
          "internalType": "uint256",
          "name": "price",
          "type": "uint256"
        },
        {
          "internalType": "uint256",
          "name": "quantity",
          "type": "uint256"
        },
        {
          "internalType": "address",
          "name": "seller",
          "type": "address"
        },
        {
          "internalType": "bool",
          "name": "isActive",
          "type": "bool"
        },
        {
          "internalType": "uint256",
          "name": "listedTimestamp",
          "type": "uint256"
        },
        {
          "internalType": "bool",
          "name": "allowPartialPurchase",
          "type": "bool"
        }
      ],
      "stateMutability": "view",
      "type": "function"
    },
    {
      "inputs": [],
      "name": "listingCount",
      "outputs": [
        {
          "internalType": "uint256",
          "name": "",
          "type": "uint256"
        }
      ],
      "stateMutability": "view",
      "type": "function"
    },
    {
      "inputs": [
        {
          "internalType": "uint256",
          "name": "",
          "type": "uint256"
        }
      ],
      "name": "listingIds",
      "outputs": [
        {
          "internalType": "uint256",
          "name": "",
          "type": "uint256"
        }
      ],
      "stateMutability": "view",
      "type": "function"
    },
    {
      "inputs": [],
      "name": "owner",
      "outputs": [
        {
          "internalType": "address",
          "name": "",
          "type": "address"
        }
      ],
      "stateMutability": "view",
      "type": "function"
    },
    {
      "inputs": [
        {
          "internalType": "uint256",
          "name": "_listingId",
          "type": "uint256"
        },
        {
          "internalType": "uint256",
          "name": "_quantity",
          "type": "uint256"
        }
      ],
      "name": "purchaseProduct",
      "outputs": [],
      "stateMutability": "payable",
      "type": "function"
    },
    {
      "inputs": [
        {
          "internalType": "uint256",
          "name": "_fruitId",
          "type": "uint256"
        },
        {
          "internalType": "string",
          "name": "_step",
          "type": "string"
        }
      ],
      "name": "recordStep",
      "outputs": [],
      "stateMutability": "nonpayable",
      "type": "function"
    },
    {
      "inputs": [
        {
          "internalType": "string",
          "name": "_farmId",
          "type": "string"
        },
        {
          "internalType": "string",
          "name": "_location",
          "type": "string"
        },
        {
          "internalType": "string",
          "name": "_climate",
          "type": "string"
        },
        {
          "internalType": "string",
          "name": "_soil",
          "type": "string"
        },
        {
          "internalType": "string",
          "name": "_currentConditions",
          "type": "string"
        }
      ],
      "name": "registerFarm",
      "outputs": [],
      "stateMutability": "nonpayable",
      "type": "function"
    },
    {
      "inputs": [
        {
          "internalType": "uint256",
          "name": "",
          "type": "uint256"
        }
      ],
      "name": "registeredFarms",
      "outputs": [
        {
          "internalType": "string",
          "name": "",
          "type": "string"
        }
      ],
      "stateMutability": "view",
      "type": "function"
    },
    {
      "inputs": [
        {
          "internalType": "uint256",
          "name": "",
          "type": "uint256"
        }
      ],
      "name": "registeredFruitTypes",
      "outputs": [
        {
          "internalType": "string",
          "name": "",
          "type": "string"
        }
      ],
      "stateMutability": "view",
      "type": "function"
    },
    {
      "inputs": [
        {
          "internalType": "address",
          "name": "_manager",
          "type": "address"
        }
      ],
      "name": "removeManager",
      "outputs": [],
      "stateMutability": "nonpayable",
      "type": "function"
    },
    {
      "inputs": [
        {
          "internalType": "address",
          "name": "",
          "type": "address"
        },
        {
          "internalType": "uint256",
          "name": "",
          "type": "uint256"
        }
      ],
      "name": "sellerListings",
      "outputs": [
        {
          "internalType": "uint256",
          "name": "",
          "type": "uint256"
        }
      ],
      "stateMutability": "view",
      "type": "function"
    },
    {
      "inputs": [
        {
          "internalType": "string",
          "name": "fruitType",
          "type": "string"
        },
        {
          "internalType": "string",
          "name": "ipfsHash",
          "type": "string"
        }
      ],
      "name": "setFruitHash",
      "outputs": [],
      "stateMutability": "nonpayable",
      "type": "function"
    },
    {
      "inputs": [
        {
          "internalType": "string",
          "name": "_farmId",
          "type": "string"
        },
        {
          "internalType": "string",
          "name": "_conditions",
          "type": "string"
        }
      ],
      "name": "updateFarmConditions",
      "outputs": [],
      "stateMutability": "nonpayable",
      "type": "function"
    }
  ],
  "bytecode": "0x6080604052348015605c5760405162461bcd60e51b815260206004820152602260248201527f45746865722073656e7420746f206e6f6e2d70617961626c652066756e637469604482019081526137b760f11b6064830152608482fd5b50600080546001600160a01b0319163390811782558152600160208190526040909120805460ff1916909117905561517a806100996000396000f3fe6080604052600436106101f95760003560e01c80636a03089d1161010d578063ac18de43116100a0578063c71b89b51161006f578063c71b89b514610d76578063ceadca1314610de2578063d8ab96bc14610e87578063f493008d14610ee2578063f955977414610f33576101f9565b8063ac18de4314610be6578063ac9f127614610c41578063bc5e8cd714610cae578063c417216214610d09576101f9565b80638da5cb5b116100dc5780638da5cb5b14610ab4578063a044042614610b27578063a673e06414610b3a578063a9b07c2614610b95576101f9565b80636a03089d1461092c5780636bf62cf814610987578063701e5084146109f557806376ce7fe914610a45576101f9565b806342c7f63f1161019057806352bea3601161015f57806352bea36014610746578063569de6fd146107a157806358cf8f51146107fc57806358eed174146108695780635f42da09146108c4576101f9565b806342c7f63f146105da57806343622b81146106355780635154da5a1461069057806351edfd7d146106eb576101f9565b80631fc15e93116101cc5780631fc15e93146104445780632d06177a146104ac5780633c2119a7146105095780633f50e5af1461057f576101f9565b8063046c67121461025e578063054564f0146102c45780630a3cb21b1461032d5780631b4dba9b146103a8575b60405162461bcd60e51b815260206004820152603560248201527f436f6e747261637420646f6573206e6f7420686176652066616c6c6261636b2060448201908152746e6f7220726563656976652066756e6374696f6e7360581b6064830152608482fd5b3480156102a55760405162461bcd60e51b81526020600482015260226024820152600080516020615125833981519152604482019081526137b760f11b6064830152608482fd5b506102ae610f83565b6040516102bb91906141c6565b60405180910390f35b34801561030b5760405162461bcd60e51b81526020600482015260226024820152600080516020615125833981519152604482019081526137b760f11b6064830152608482fd5b5061031f61031a36600461429c565b61105c565b6040519081526020016102bb565b3480156103745760405162461bcd60e51b81526020600482015260226024820152600080516020615125833981519152604482019081526137b760f11b6064830152608482fd5b506103986103833660046142c9565b60016020526000908152604090205460ff1681565b60405190151581526020016102bb565b3480156103ef5760405162461bcd60e51b81526020600482015260226024820152600080516020615125833981519152604482019081526137b760f11b6064830152608482fd5b506104036103fe3660046142e7565b61108d565b604080519788526020880196909652948601939093526001600160a01b0390911660608501521515608084015260a0830152151560c082015260e0016102bb565b34801561048b5760405162461bcd60e51b81526020600482015260226024820152600080516020615125833981519152604482019081526137b760f11b6064830152608482fd5b5061049f61049a3660046142e7565b61117d565b6040516102bb9190614303565b3480156104f35760405162461bcd60e51b81526020600482015260226024820152600080516020615125833981519152604482019081526137b760f11b6064830152608482fd5b506105076105023660046142c9565b611229565b005b3480156105505760405162461bcd60e51b81526020600482015260226024820152600080516020615125833981519152604482019081526137b760f11b6064830152608482fd5b5061039861055f366004614477565b8051602081830181018051600c8252928201919093012091525460ff1681565b3480156105c65760405162461bcd60e51b81526020600482015260226024820152600080516020615125833981519152604482019081526137b760f11b6064830152608482fd5b506105076105d53660046144b9565b61127a565b3480156106215760405162461bcd60e51b81526020600482015260226024820152600080516020615125833981519152604482019081526137b760f11b6064830152608482fd5b506105076106303660046145b2565b61156c565b34801561067c5760405162461bcd60e51b81526020600482015260226024820152600080516020615125833981519152604482019081526137b760f11b6064830152608482fd5b5061050761068b3660046145b2565b6115d7565b3480156106d75760405162461bcd60e51b81526020600482015260226024820152600080516020615125833981519152604482019081526137b760f11b6064830152608482fd5b506105076106e6366004614622565b611697565b3480156107325760405162461bcd60e51b81526020600482015260226024820152600080516020615125833981519152604482019081526137b760f11b6064830152608482fd5b50610507610741366004614658565b611768565b34801561078d5760405162461bcd60e51b81526020600482015260226024820152600080516020615125833981519152604482019081526137b760f11b6064830152608482fd5b5061031f61079c3660046142e7565b611a71565b3480156107e85760405162461bcd60e51b81526020600482015260226024820152600080516020615125833981519152604482019081526137b760f11b6064830152608482fd5b506105076107f73660046147a3565b611a92565b3480156108435760405162461bcd60e51b81526020600482015260226024820152600080516020615125833981519152604482019081526137b760f11b6064830152608482fd5b50610857610852366004614477565b611cba565b6040516102bb969594939291906148c8565b3480156108b05760405162461bcd60e51b81526020600482015260226024820152600080516020615125833981519152604482019081526137b760f11b6064830152608482fd5b5061049f6108bf3660046142e7565b6120d1565b34801561090b5760405162461bcd60e51b81526020600482015260226024820152600080516020615125833981519152604482019081526137b760f11b6064830152608482fd5b5061091f61091a3660046142c9565b6120e1565b6040516102bb9190614986565b3480156109735760405162461bcd60e51b81526020600482015260226024820152600080516020615125833981519152604482019081526137b760f11b6064830152608482fd5b5061049f610982366004614477565b61214d565b3480156109ce5760405162461bcd60e51b81526020600482015260226024820152600080516020615125833981519152604482019081526137b760f11b6064830152608482fd5b506109e26109dd366004614477565b6121f3565b6040516102bb9796959493929190614999565b348015610a3c5760405162461bcd60e51b81526020600482015260226024820152600080516020615125833981519152604482019081526137b760f11b6064830152608482fd5b5061091f612524565b348015610a8c5760405162461bcd60e51b81526020600482015260226024820152600080516020615125833981519152604482019081526137b760f11b6064830152608482fd5b50610aa0610a9b3660046142e7565b6126ac565b6040516102bb989796959493929190614a1d565b348015610afb5760405162461bcd60e51b81526020600482015260226024820152600080516020615125833981519152604482019081526137b760f11b6064830152608482fd5b50600054610b0f906001600160a01b031681565b6040516001600160a01b0390911681526020016102bb565b610507610b35366004614aab565b612ad8565b348015610b815760405162461bcd60e51b81526020600482015260226024820152600080516020615125833981519152604482019081526137b760f11b6064830152608482fd5b50610507610b90366004614ad0565b612e3f565b348015610bdc5760405162461bcd60e51b81526020600482015260226024820152600080516020615125833981519152604482019081526137b760f11b6064830152608482fd5b5061031f60085481565b348015610c2d5760405162461bcd60e51b81526020600482015260226024820152600080516020615125833981519152604482019081526137b760f11b6064830152608482fd5b50610507610c3c3660046142c9565b61360d565b348015610c885760405162461bcd60e51b81526020600482015260226024820152600080516020615125833981519152604482019081526137b760f11b6064830152608482fd5b50610c9c610c97366004614477565b613658565b6040516102bb96959493929190614ba3565b348015610cf55760405162461bcd60e51b81526020600482015260226024820152600080516020615125833981519152604482019081526137b760f11b6064830152608482fd5b50610507610d04366004614622565b6138c0565b348015610d505760405162461bcd60e51b81526020600482015260226024820152600080516020615125833981519152604482019081526137b760f11b6064830152608482fd5b50610d64610d5f3660046142e7565b61394f565b6040516102bb96959493929190614c12565b348015610dbd5760405162461bcd60e51b81526020600482015260226024820152600080516020615125833981519152604482019081526137b760f11b6064830152608482fd5b50610dd1610dcc366004614477565b613b29565b6040516102bb959493929190614c75565b348015610e295760405162461bcd60e51b81526020600482015260226024820152600080516020615125833981519152604482019081526137b760f11b6064830152608482fd5b50610403610e383660046142e7565b60056020819052600091825260409091208054600182015460028301546003840154600485015494909501549294919390926001600160a01b0383169260ff600160a01b909104811692911687565b348015610ece5760405162461bcd60e51b81526020600482015260226024820152600080516020615125833981519152604482019081526137b760f11b6064830152608482fd5b5061049f610edd366004614477565b613e0a565b348015610f295760405162461bcd60e51b81526020600482015260226024820152600080516020615125833981519152604482019081526137b760f11b6064830152608482fd5b5061031f60075481565b348015610f7a5760405162461bcd60e51b81526020600482015260226024820152600080516020615125833981519152604482019081526137b760f11b6064830152608482fd5b506102ae613e2e565b60606009805480602002602001604051908101604052809291908181526020016000905b82821015611053578382906000526020600020018054610fc690614ce2565b80601f0160208091040260200160405190810160405280929190818152602001828054610ff290614ce2565b801561103f5780601f106110145761010080835404028352916020019161103f565b820191906000526020600020905b81548152906001019060200180831161102257829003601f168201915b505050505081526020019060010190610fa7565b50505050905090565b6006602052816000526040600020818154811061107857600080fd5b90600052602060002001600091509150505481565b600080600080600080600080881180156110a957506008548811155b6110ef5760405162461bcd60e51b8152602060048201526012602482015271125b9d985b1a5908131a5cdd1a5b99c8125160721b60448201526064015b60405180910390fd5b5050506000948552505060056020818152604094859020855160e08101875281548082526001830154938201849052600283015497820188905260038301546001600160a01b03811660608401819052600160a01b90910460ff908116151560808501819052600486015460a08601819052959097015416151560c090930183905290989397965094509091565b600a818154811061118d57600080fd5b9060005260206000200160009150905080546111a890614ce2565b80601f01602080910402602001604051908101604052809291908181526020018280546111d490614ce2565b80156112215780601f106111f657610100808354040283529160200191611221565b820191906000526020600020905b81548152906001019060200180831161120457829003601f168201915b505050505081565b6000546001600160a01b031633146112535760405162461bcd60e51b81526004016110e690614d1c565b6001600160a01b03166000908152600160208190526040909120805460ff19169091179055565b600c8560405161128a9190614d5e565b9081526040519081900360200190205460ff16156112ea5760405162461bcd60e51b815260206004820152601760248201527f4661726d20616c7265616479207265676973746572656400000000000000000060448201526064016110e6565b6040518060e0016040528085815260200184815260200183815260200160008152602001828152602001336001600160a01b0316815260200160006001600160401b0381111561133c5761133c61436f565b604051908082528060200260200182016040528015611365578160200160208202803683370190505b508152506003866040516113799190614d5e565b908152604051908190036020019020815181906113969082614dc9565b50602082015160018201906113ab9082614dc9565b50604082015160028201906113c09082614dc9565b5060608201516003820155608082015160048201906113df9082614dc9565b5060a08201516005820180546001600160a01b0319166001600160a01b0390921691909117905560c0820151805161142191600684019160209091019061400e565b509050506001600c866040516114379190614d5e565b908152604051908190036020019020805491151560ff199092169190911790556000805b600a548110156114e557866040516020016114769190614d5e565b60405160208183030381529060405280519060200120600a828154811061149f5761149f614e87565b906000526020600020016040516020016114b99190614e9d565b60405160208183030381529060405280519060200120036114dd57600191506114e5565b60010161145b565b508061152957600a80546001810182556000919091527fc65a7bb8d6351c1cf70c95a316cc6a92839c986682d98bc35f958f4883f9d2a8016115278782614dc9565b505b7fef9e0a850bb9971e155f20e4b0e490cdeafc72eab8d0da56fe2f1585ad9567de86834260405161155c93929190614f12565b60405180910390a1505050505050565b80600d8360405161157d9190614d5e565b908152602001604051809103902090816115979190614dc9565b507f888bf677ec642f934df90bbc78f33cc2d32f3d50b0d2bc286d26ef35d69c89b48282426040516115cb93929190614f12565b60405180910390a15050565b60006003836040516115e99190614d5e565b90815260405190819003602001902060058101549091506001600160a01b031633148061162557503360009081526001602052604090205460ff165b6116415760405162461bcd60e51b81526004016110e690614f48565b6004810161164f8382614dc9565b5042600382018190556040517fef9e0a850bb9971e155f20e4b0e490cdeafc72eab8d0da56fe2f1585ad9567de9161168a9186918691614f12565b60405180910390a1505050565b3360009081526001602052604090205460ff16806116bf57506000546001600160a01b031633145b6116db5760405162461bcd60e51b81526004016110e690614f48565b6000821180156116ed57506007548211155b6117095760405162461bcd60e51b81526004016110e690614f70565b6000828152600460209081526040822060070180546001810182559083529120016117348282614dc9565b507f40e632d4a93e307bc4fd8ee554a117dbc7f782e20d62bdd43d8dcf040dfb521d8282426040516115cb93929190614f9a565b60008411801561177a57506007548411155b6117965760405162461bcd60e51b81526004016110e690614f70565b600083116117e65760405162461bcd60e51b815260206004820152601c60248201527f5072696365206d7573742062652067726561746572207468616e20300000000060448201526064016110e6565b600082116118365760405162461bcd60e51b815260206004820152601f60248201527f5175616e74697479206d7573742062652067726561746572207468616e20300060448201526064016110e6565b600084815260046020526040902060058101548311156118985760405162461bcd60e51b815260206004820181905260248201527f5175616e74697479206578636565647320617661696c61626c652073746f636b60448201526064016110e6565b600880549060006118a883614fd9565b90915550506040805160e081018252868152602080820187815282840187815233606085018181526001608087018181524260a089019081528b151560c08a019081526008805460009081526005808c528d82209c518d5599518c870155975160028c0155945160038b01805494516001600160a01b039092166001600160a81b031990951694909417600160a01b9115159190910217909255516004808a0191909155905197909501805460ff1916971515979097179096559082526006808552868320825481548089018355918552868520909101559054600b80548088019091557f0175b7a638427703f0dbe7bb9bbf987a2551717b34e79f33b5b1008d1fa01db901558a82529183528481209091018054938401815581528190208351808501909452600f84526e4c697374656420666f722053616c6560881b9184019190915201906119f99082614dc9565b5082816005016000828254611a0e9190614ff2565b909155505060085460408051918252602082018790528101859052606081018490523360808201524260a08201527f74db1cf85b7690d991329cd32074d6249e834ec06591f8652f737065d42b040e9060c0015b60405180910390a15050505050565b600b8181548110611a8157600080fd5b600091825260209091200154905081565b3360009081526001602052604090205460ff1680611aba57506000546001600160a01b031633145b611ad65760405162461bcd60e51b81526004016110e690614f48565b6040518060c0016040528087815260200186815260200185815260200184815260200183815260200182815250600287604051611b139190614d5e565b90815260405190819003602001902081518190611b309082614dc9565b5060208201516001820190611b459082614dc9565b5060408201516002820190611b5a9082614dc9565b5060608201516003820190611b6f9082614dc9565b5060808201516004820190611b849082614dc9565b5060a08201518051611ba0916005840191602090910190614059565b509050506000805b600954811015611c325787604051602001611bc39190614d5e565b6040516020818303038152906040528051906020012060098281548110611bec57611bec614e87565b90600052602060002001604051602001611c069190614e9d565b6040516020818303038152906040528051906020012003611c2a5760019150611c32565b600101611ba8565b5080611c7657600980546001810182556000919091527f6e1540171b6c0c960b71a7020d9f60077f6af931a8bbf590da0223dacf75c7af01611c748882614dc9565b505b7f78384878ee8ef9f8c429173968af06c8e361a98cd306b33d813326106f36681f873342604051611ca99392919061500b565b60405180910390a150505050505050565b6060806060806060806000600288604051611cd59190614d5e565b90815260200160405180910390206040518060c0016040529081600082018054611cfe90614ce2565b80601f0160208091040260200160405190810160405280929190818152602001828054611d2a90614ce2565b8015611d775780601f10611d4c57610100808354040283529160200191611d77565b820191906000526020600020905b815481529060010190602001808311611d5a57829003601f168201915b50505050508152602001600182018054611d9090614ce2565b80601f0160208091040260200160405190810160405280929190818152602001828054611dbc90614ce2565b8015611e095780601f10611dde57610100808354040283529160200191611e09565b820191906000526020600020905b815481529060010190602001808311611dec57829003601f168201915b50505050508152602001600282018054611e2290614ce2565b80601f0160208091040260200160405190810160405280929190818152602001828054611e4e90614ce2565b8015611e9b5780601f10611e7057610100808354040283529160200191611e9b565b820191906000526020600020905b815481529060010190602001808311611e7e57829003601f168201915b50505050508152602001600382018054611eb490614ce2565b80601f0160208091040260200160405190810160405280929190818152602001828054611ee090614ce2565b8015611f2d5780601f10611f0257610100808354040283529160200191611f2d565b820191906000526020600020905b815481529060010190602001808311611f1057829003601f168201915b50505050508152602001600482018054611f4690614ce2565b80601f0160208091040260200160405190810160405280929190818152602001828054611f7290614ce2565b8015611fbf5780601f10611f9457610100808354040283529160200191611fbf565b820191906000526020600020905b815481529060010190602001808311611fa257829003601f168201915b5050505050815260200160058201805480602002602001604051908101604052809291908181526020016000905b8282101561209957838290600052602060002001805461200c90614ce2565b80601f016020809104026020016040519081016040528092919081815260200182805461203890614ce2565b80156120855780601f1061205a57610100808354040283529160200191612085565b820191906000526020600020905b81548152906001019060200180831161206857829003601f168201915b505050505081526020019060010190611fed565b505050915250508051602082015160408301516060840151608085015160a090950151939d929c50909a509850919650945092505050565b6009818154811061118d57600080fd5b6001600160a01b03811660009081526006602090815260409182902080548351818402810184019094528084526060939283018282801561214157602002820191906000526020600020905b81548152602001906001019080831161212d575b50505050509050919050565b6060600d8260405161215f9190614d5e565b9081526020016040518091039020805461217890614ce2565b80601f01602080910402602001604051908101604052809291908181526020018280546121a490614ce2565b80156121415780601f106121c657610100808354040283529160200191612141565b820191906000526020600020905b8154815290600101906020018083116121d45750939695505050505050565b6060806060600060606000606060006003896040516122129190614d5e565b90815260200160405180910390206040518060e001604052908160008201805461223b90614ce2565b80601f016020809104026020016040519081016040528092919081815260200182805461226790614ce2565b80156122b45780601f10612289576101008083540402835291602001916122b4565b820191906000526020600020905b81548152906001019060200180831161229757829003601f168201915b505050505081526020016001820180546122cd90614ce2565b80601f01602080910402602001604051908101604052809291908181526020018280546122f990614ce2565b80156123465780601f1061231b57610100808354040283529160200191612346565b820191906000526020600020905b81548152906001019060200180831161232957829003601f168201915b5050505050815260200160028201805461235f90614ce2565b80601f016020809104026020016040519081016040528092919081815260200182805461238b90614ce2565b80156123d85780601f106123ad576101008083540402835291602001916123d8565b820191906000526020600020905b8154815290600101906020018083116123bb57829003601f168201915b50505050508152602001600382015481526020016004820180546123fb90614ce2565b80601f016020809104026020016040519081016040528092919081815260200182805461242790614ce2565b80156124745780601f1061244957610100808354040283529160200191612474565b820191906000526020600020905b81548152906001019060200180831161245757829003601f168201915b505050918352505060058201546001600160a01b031660208083019190915260068301805460408051828502810185018252828152940193928301828280156124dc57602002820191906000526020600020905b8154815260200190600101908083116124c8575b5050505050815250509050806000015181602001518260400151836060015184608001518560a001518660c00151975097509750975097509750975050919395979092949650565b606060006008546001600160401b038111156125425761254261436f565b60405190808252806020026020018201604052801561256b578160200160208202803683370190505b5090506000805b600b548110156126135760056000600b838154811061259357612593614e87565b9060005260206000200154815260200190815260200160002060030160149054906101000a900460ff161561260b57600b81815481106125d5576125d5614e87565b90600052602060002001548383815181106125f2576125f2614e87565b60209081029190910101528161260781614fd9565b9250505b600101612572565b506000816001600160401b0381111561262e5761262e61436f565b604051908082528060200260200182016040528015612657578160200160208202803683370190505b50905060005b828110156126a45783818151811061267757612677614e87565b602002602001015182828151811061269157612691614e87565b602090810291909101015260010161265d565b509392505050565b606080600060606000606080600080891180156126cb57506007548911155b6126e75760405162461bcd60e51b81526004016110e690614f70565b6000898152600460205260408082208151610100810190925280548290829061270f90614ce2565b80601f016020809104026020016040519081016040528092919081815260200182805461273b90614ce2565b80156127885780601f1061275d57610100808354040283529160200191612788565b820191906000526020600020905b81548152906001019060200180831161276b57829003601f168201915b505050505081526020016001820180546127a190614ce2565b80601f01602080910402602001604051908101604052809291908181526020018280546127cd90614ce2565b801561281a5780601f106127ef5761010080835404028352916020019161281a565b820191906000526020600020905b8154815290600101906020018083116127fd57829003601f168201915b505050918352505060028201546001600160a01b031660208201526003820154604082015260048201805460609092019161285490614ce2565b80601f016020809104026020016040519081016040528092919081815260200182805461288090614ce2565b80156128cd5780601f106128a2576101008083540402835291602001916128cd565b820191906000526020600020905b8154815290600101906020018083116128b057829003601f168201915b505050505081526020016005820154815260200160068201805480602002602001604051908101604052809291908181526020016000905b828210156129b157838290600052602060002001805461292490614ce2565b80601f016020809104026020016040519081016040528092919081815260200182805461295090614ce2565b801561299d5780601f106129725761010080835404028352916020019161299d565b820191906000526020600020905b81548152906001019060200180831161298057829003601f168201915b505050505081526020019060010190612905565b50505050815260200160078201805480602002602001604051908101604052809291908181526020016000905b82821015612a8a5783829060005260206000200180546129fd90614ce2565b80601f0160208091040260200160405190810160405280929190818152602001828054612a2990614ce2565b8015612a765780601f10612a4b57610100808354040283529160200191612a76565b820191906000526020600020905b815481529060010190602001808311612a5957829003601f168201915b5050505050815260200190600101906129de565b505050508152505090508060000151816020015182604001518360c00151846060015185608001518660e001518760a001519850985098509850985098509850985050919395975091939597565b600082118015612aea57506008548211155b612b2b5760405162461bcd60e51b8152602060048201526012602482015271125b9d985b1a5908131a5cdd1a5b99c8125160721b60448201526064016110e6565b60008281526005602052604090206003810154600160a01b900460ff16612ba25760405162461bcd60e51b815260206004820152602560248201527f50726f64756374206973206e6f7420617661696c61626c6520666f7220707572604482015264636861736560d81b60648201526084016110e6565b600082118015612bb6575080600201548211155b612bf55760405162461bcd60e51b815260206004820152601060248201526f496e76616c6964207175616e7469747960801b60448201526064016110e6565b600581015460ff16612c5e5780600201548214612c5e5760405162461bcd60e51b815260206004820152602160248201527f4d7573742070757263686173652074686520656e74697265207175616e7469746044820152607960f81b60648201526084016110e6565b600081600201548260010154612c74919061504f565b90506000612c828483615063565b905080341015612ccb5760405162461bcd60e51b8152602060048201526014602482015273125b9cdd59999a58da595b9d081c185e5b595b9d60621b60448201526064016110e6565b60038301546040516001600160a01b039091169082156108fc029083906000818181858888f19350505050158015612d07573d6000803e3d6000fd5b5083836002016000828254612d1c9190614ff2565b90915550506002830154600003612d3d5760038301805460ff60a01b191690555b82546000908152600460205260409020600601612d5985613efe565b604051602001612d69919061507a565b60408051601f1981840301815291905281546001810183556000928352602090922090910190612d999082614dc9565b50604080518681523360208201529081018590524260608201527f7d3c39a6cce20f6949eff0833a4d54fca734dc7c6027773d8885e7faeac98a959060800160405180910390a182546040805191825260806020830181905260099083015268141d5c98da185cd95960ba1b60a083015233908201524260608201527f28222dbd9906bc73e71cbd7bd296a46d23de9224d425c30be175af99b4ab77419060c001611a62565b6000600286604051612e519190614d5e565b90815260200160405180910390206040518060c0016040529081600082018054612e7a90614ce2565b80601f0160208091040260200160405190810160405280929190818152602001828054612ea690614ce2565b8015612ef35780601f10612ec857610100808354040283529160200191612ef3565b820191906000526020600020905b815481529060010190602001808311612ed657829003601f168201915b50505050508152602001600182018054612f0c90614ce2565b80601f0160208091040260200160405190810160405280929190818152602001828054612f3890614ce2565b8015612f855780601f10612f5a57610100808354040283529160200191612f85565b820191906000526020600020905b815481529060010190602001808311612f6857829003601f168201915b50505050508152602001600282018054612f9e90614ce2565b80601f0160208091040260200160405190810160405280929190818152602001828054612fca90614ce2565b80156130175780601f10612fec57610100808354040283529160200191613017565b820191906000526020600020905b815481529060010190602001808311612ffa57829003601f168201915b5050505050815260200160038201805461303090614ce2565b80601f016020809104026020016040519081016040528092919081815260200182805461305c90614ce2565b80156130a95780601f1061307e576101008083540402835291602001916130a9565b820191906000526020600020905b81548152906001019060200180831161308c57829003601f168201915b505050505081526020016004820180546130c290614ce2565b80601f01602080910402602001604051908101604052809291908181526020018280546130ee90614ce2565b801561313b5780601f106131105761010080835404028352916020019161313b565b820191906000526020600020905b81548152906001019060200180831161311e57829003601f168201915b5050505050815260200160058201805480602002602001604051908101604052809291908181526020016000905b8282101561321557838290600052602060002001805461318890614ce2565b80601f01602080910402602001604051908101604052809291908181526020018280546131b490614ce2565b80156132015780601f106131d657610100808354040283529160200191613201565b820191906000526020600020905b8154815290600101906020018083116131e457829003601f168201915b505050505081526020019060010190613169565b5050509152505080515190915061326e5760405162461bcd60e51b815260206004820152601960248201527f46727569742074797065206e6f7420696e20636174616c6f670000000000000060448201526064016110e6565b600c8460405161327e9190614d5e565b9081526040519081900360200190205460ff166132d35760405162461bcd60e51b815260206004820152601360248201527211985c9b481b9bdd081c9959da5cdd195c9959606a1b60448201526064016110e6565b600082116133235760405162461bcd60e51b815260206004820152601f60248201527f5175616e74697479206d7573742062652067726561746572207468616e20300060448201526064016110e6565b6007805490600061333383614fd9565b9190505550604051806101000160405280878152602001868152602001336001600160a01b0316815260200142815260200184815260200183815260200160006001600160401b0381111561338a5761338a61436f565b6040519080825280602002602001820160405280156133bd57816020015b60608152602001906001900390816133a85790505b50815260200160006040519080825280602002602001820160405280156133f857816020015b60608152602001906001900390816133e35790505b50905260075460009081526004602052604090208151819061341a9082614dc9565b506020820151600182019061342f9082614dc9565b5060408201516002820180546001600160a01b0319166001600160a01b0390921691909117905560608201516003820155608082015160048201906134749082614dc9565b5060a0820151600582015560c0820151805161349a916006840191602090910190614059565b5060e082015180516134b6916007840191602090910190614059565b5090505060006003856040516134cc9190614d5e565b90815260405190819003602001902060058101549091506001600160a01b03166135105760075460068201805460018101825560009182526020909120015561354d565b6003856040516135209190614d5e565b90815260405160209181900382019020600754600690910180546001810182556000918252929020909101555b6007546000908152600460209081526040808320600601805460018101825590845292829020815180830190925260158252742430b93b32b9ba32b210313c90283937b23ab1b2b960591b928201929092529101906135ac9082614dc9565b50600754604080519182526080602083018190526009908301526812185c9d995cdd195960ba1b60a083015233908201524260608201527f28222dbd9906bc73e71cbd7bd296a46d23de9224d425c30be175af99b4ab77419060c001611ca9565b6000546001600160a01b031633146136375760405162461bcd60e51b81526004016110e690614d1c565b6001600160a01b03166000908152600160205260409020805460ff19169055565b805160208183018101805160038252928201919093012091528054819061367e90614ce2565b80601f01602080910402602001604051908101604052809291908181526020018280546136aa90614ce2565b80156136f75780601f106136cc576101008083540402835291602001916136f7565b820191906000526020600020905b8154815290600101906020018083116136da57829003601f168201915b50505050509080600101805461370c90614ce2565b80601f016020809104026020016040519081016040528092919081815260200182805461373890614ce2565b80156137855780601f1061375a57610100808354040283529160200191613785565b820191906000526020600020905b81548152906001019060200180831161376857829003601f168201915b50505050509080600201805461379a90614ce2565b80601f01602080910402602001604051908101604052809291908181526020018280546137c690614ce2565b80156138135780601f106137e857610100808354040283529160200191613813565b820191906000526020600020905b8154815290600101906020018083116137f657829003601f168201915b50505050509080600301549080600401805461382e90614ce2565b80601f016020809104026020016040519081016040528092919081815260200182805461385a90614ce2565b80156138a75780601f1061387c576101008083540402835291602001916138a7565b820191906000526020600020905b81548152906001019060200180831161388a57829003601f168201915b505050600590930154919250506001600160a01b031686565b6000821180156138d257506007548211155b6138ee5760405162461bcd60e51b81526004016110e690614f70565b6000828152600460209081526040822060060180546001810182559083529120016139198282614dc9565b507f28222dbd9906bc73e71cbd7bd296a46d23de9224d425c30be175af99b4ab7741828233426040516115cb94939291906150c8565b60046020526000908152604090208054819061396a90614ce2565b80601f016020809104026020016040519081016040528092919081815260200182805461399690614ce2565b80156139e35780601f106139b8576101008083540402835291602001916139e3565b820191906000526020600020905b8154815290600101906020018083116139c657829003601f168201915b5050505050908060010180546139f890614ce2565b80601f0160208091040260200160405190810160405280929190818152602001828054613a2490614ce2565b8015613a715780601f10613a4657610100808354040283529160200191613a71565b820191906000526020600020905b815481529060010190602001808311613a5457829003601f168201915b505050506002830154600384015460048501805494956001600160a01b039093169491935090613aa090614ce2565b80601f0160208091040260200160405190810160405280929190818152602001828054613acc90614ce2565b8015613b195780601f10613aee57610100808354040283529160200191613b19565b820191906000526020600020905b815481529060010190602001808311613afc57829003601f168201915b5050505050908060050154905086565b8051602081830181018051600282529282019190930120915280548190613b4f90614ce2565b80601f0160208091040260200160405190810160405280929190818152602001828054613b7b90614ce2565b8015613bc85780601f10613b9d57610100808354040283529160200191613bc8565b820191906000526020600020905b815481529060010190602001808311613bab57829003601f168201915b505050505090806001018054613bdd90614ce2565b80601f0160208091040260200160405190810160405280929190818152602001828054613c0990614ce2565b8015613c565780601f10613c2b57610100808354040283529160200191613c56565b820191906000526020600020905b815481529060010190602001808311613c3957829003601f168201915b505050505090806002018054613c6b90614ce2565b80601f0160208091040260200160405190810160405280929190818152602001828054613c9790614ce2565b8015613ce45780601f10613cb957610100808354040283529160200191613ce4565b820191906000526020600020905b815481529060010190602001808311613cc757829003601f168201915b505050505090806003018054613cf990614ce2565b80601f0160208091040260200160405190810160405280929190818152602001828054613d2590614ce2565b8015613d725780601f10613d4757610100808354040283529160200191613d72565b820191906000526020600020905b815481529060010190602001808311613d5557829003601f168201915b505050505090806004018054613d8790614ce2565b80601f0160208091040260200160405190810160405280929190818152602001828054613db390614ce2565b8015613e005780601f10613dd557610100808354040283529160200191613e00565b820191906000526020600020905b815481529060010190602001808311613de357829003601f168201915b5050505050905085565b8051602081830181018051600d82529282019190930120915280546111a890614ce2565b6060600a805480602002602001604051908101604052809291908181526020016000905b82821015611053578382906000526020600020018054613e7190614ce2565b80601f0160208091040260200160405190810160405280929190818152602001828054613e9d90614ce2565b8015613eea5780601f10613ebf57610100808354040283529160200191613eea565b820191906000526020600020905b815481529060010190602001808311613ecd57829003601f168201915b505050505081526020019060010190613e52565b606081600003613f255750506040805180820190915260018152600360fc1b602082015290565b8160005b8115613f4f5780613f3981614fd9565b9150613f489050600a8361504f565b9150613f29565b6000816001600160401b03811115613f6957613f6961436f565b6040519080825280601f01601f191660200182016040528015613f93576020820181803683370190505b509050815b851561400557613fa9600182614ff2565b90506000613fb8600a886150fd565b613fc3906030615111565b90508060f81b838381518110613fdb57613fdb614e87565b60200101906001600160f81b031916908160001a905350613ffd600a8861504f565b965050613f98565b50949350505050565b828054828255906000526020600020908101928215614049579160200282015b8281111561404957825182559160200191906001019061402e565b506140559291506140ab565b5090565b82805482825590600052602060002090810192821561409f579160200282015b8281111561409f578251829061408f9082614dc9565b5091602001919060010190614079565b506140559291506140c0565b5b8082111561405557600081556001016140ac565b808211156140555760006140d482826140dd565b506001016140c0565b5080546140e990614ce2565b6000825580601f106140f9575050565b601f01602090049060005260206000209081019061411791906140ab565b50565b60005b8381101561413557818101518382015260200161411d565b50506000910152565b6000815180845261415681602086016020860161411a565b601f01601f19169290920160200192915050565b600082825180855260208501945060208160051b8301016020850160005b838110156141ba57601f198584030188526141a483835161413e565b6020988901989093509190910190600101614188565b50909695505050505050565b6020815260006141d9602083018461416a565b9392505050565b60405162461bcd60e51b815260206004820152602260248201527f414249206465636f64696e673a207475706c65206461746120746f6f2073686f6044820152611c9d60f21b6064820152608481fd5b60405162461bcd60e51b815260206004820152602260248201527f414249206465636f64696e673a20696e76616c6964207475706c65206f666673604482015261195d60f21b6064820152608481fd5b80356001600160a01b038116811461429757600080fd5b919050565b600080604083850312156142b2576142b26141e0565b6142bb83614280565b946020939093013593505050565b6000602082840312156142de576142de6141e0565b6141d982614280565b6000602082840312156142fc576142fc6141e0565b5035919050565b6020815260006141d9602083018461413e565b60405162461bcd60e51b815260206004820152602b60248201527f414249206465636f64696e673a20696e76616c69642063616c6c64617461206160448201526a1c9c985e481bd9999cd95d60aa1b6064820152608481fd5b634e487b7160e01b600052604160045260246000fd5b604051601f8201601f191681016001600160401b03811182821017156143ad576143ad61436f565b604052919050565b600082601f8301126143c9576143c9614316565b81356001600160401b038111156143e2576143e261436f565b6143f5601f8201601f1916602001614385565b81815284602083860101111561445a5760405162461bcd60e51b815260206004820152602760248201527f414249206465636f64696e673a20696e76616c69642062797465206172726179604482015266040d8cadccee8d60cb1b6064820152608481fd5b816020850160208301376000918101602001919091529392505050565b60006020828403121561448c5761448c6141e0565b81356001600160401b038111156144a5576144a5614230565b6144b1848285016143b5565b949350505050565b600080600080600060a086880312156144d4576144d46141e0565b85356001600160401b038111156144ed576144ed614230565b6144f9888289016143b5565b95505060208601356001600160401b0381111561451857614518614230565b614524888289016143b5565b94505060408601356001600160401b0381111561454357614543614230565b61454f888289016143b5565b93505060608601356001600160401b0381111561456e5761456e614230565b61457a888289016143b5565b92505060808601356001600160401b0381111561459957614599614230565b6145a5888289016143b5565b9150509295509295909350565b600080604083850312156145c8576145c86141e0565b82356001600160401b038111156145e1576145e1614230565b6145ed858286016143b5565b92505060208301356001600160401b0381111561460c5761460c614230565b614618858286016143b5565b9150509250929050565b60008060408385031215614638576146386141e0565b8235915060208301356001600160401b0381111561460c5761460c614230565b60008060008060808587031215614671576146716141e0565b8435935060208501359250604085013591506060850135801515811461469657600080fd5b939692955090935050565b600082601f8301126146b5576146b5614316565b81356001600160401b038111156146ce576146ce61436f565b8060051b6146de60208201614385565b918252602081850181019290810190868411156147505760405162461bcd60e51b815260206004820152602b60248201527f414249206465636f64696e673a20696e76616c69642063616c6c64617461206160448201526a727261792073747269646560a81b60648201529250608483fd5b6020860192505b838310156147995782356001600160401b0381111561477857614778614316565b614787886020838a01016143b5565b83525060209283019290910190614757565b9695505050505050565b60008060008060008060c087890312156147bf576147bf6141e0565b86356001600160401b038111156147d8576147d8614230565b6147e489828a016143b5565b96505060208701356001600160401b0381111561480357614803614230565b61480f89828a016143b5565b95505060408701356001600160401b0381111561482e5761482e614230565b61483a89828a016143b5565b94505060608701356001600160401b0381111561485957614859614230565b61486589828a016143b5565b93505060808701356001600160401b0381111561488457614884614230565b61489089828a016143b5565b92505060a08701356001600160401b038111156148af576148af614230565b6148bb89828a016146a1565b9150509295509295509295565b60c0815260006148db60c083018961413e565b82810360208401526148ed818961413e565b90508281036040840152614901818861413e565b90508281036060840152614915818761413e565b90508281036080840152614929818661413e565b905082810360a084015261493d818561416a565b9998505050505050505050565b600081518084526020840193506020830160005b8281101561497c57815186526020958601959091019060010161495e565b5093949350505050565b6020815260006141d9602083018461494a565b60e0815260006149ac60e083018a61413e565b82810360208401526149be818a61413e565b905082810360408401526149d2818961413e565b905086606084015282810360808401526149ec818761413e565b6001600160a01b03861660a085015283810360c08501529050614a0f818561494a565b9a9950505050505050505050565b61010081526000614a3261010083018b61413e565b8281036020840152614a44818b61413e565b6001600160a01b038a16604085015283810360608501529050614a67818961416a565b905086608084015282810360a0840152614a81818761413e565b905082810360c0840152614a95818661416a565b9150508260e08301529998505050505050505050565b60008060408385031215614ac157614ac16141e0565b50508035926020909101359150565b600080600080600060a08688031215614aeb57614aeb6141e0565b85356001600160401b03811115614b0457614b04614230565b614b10888289016143b5565b95505060208601356001600160401b03811115614b2f57614b2f614230565b614b3b888289016143b5565b94505060408601356001600160401b03811115614b5a57614b5a614230565b614b66888289016143b5565b93505060608601356001600160401b03811115614b8557614b85614230565b614b91888289016143b5565b95989497509295608001359392505050565b60c081526000614bb660c083018961413e565b8281036020840152614bc8818961413e565b90508281036040840152614bdc818861413e565b90508560608401528281036080840152614bf6818661413e565b91505060018060a01b03831660a0830152979650505050505050565b60c081526000614c2560c083018961413e565b8281036020840152614c37818961413e565b6001600160a01b03881660408501526060840187905283810360808501529050614c61818661413e565b9150508260a0830152979650505050505050565b60a081526000614c8860a083018861413e565b8281036020840152614c9a818861413e565b90508281036040840152614cae818761413e565b90508281036060840152614cc2818661413e565b90508281036080840152614cd6818561413e565b98975050505050505050565b600181811c90821680614cf657607f821691505b602082108103614d1657634e487b7160e01b600052602260045260246000fd5b50919050565b60208082526022908201527f4f6e6c79206f776e65722063616e20706572666f726d2074686973206163746960408201526137b760f11b606082015260800190565b60008251614d7081846020870161411a565b9190910192915050565b601f821115614dc457806000526020600020601f840160051c81016020851015614da15750805b601f840160051c820191505b81811015614dc15760008155600101614dad565b50505b505050565b81516001600160401b03811115614de257614de261436f565b614df681614df08454614ce2565b84614d7a565b6020601f821160018114614e2a5760008315614e125750848201515b600019600385901b1c1916600184901b178455614dc1565b600084815260208120601f198516915b82811015614e5a5787850151825560209485019460019092019101614e3a565b5084821015614e785786840151600019600387901b60f8161c191681555b50505050600190811b01905550565b634e487b7160e01b600052603260045260246000fd5b6000808354614eab81614ce2565b600182168015614ec25760018114614ed757614f07565b60ff1983168652811515820286019350614f07565b86600052602060002060005b83811015614eff57815488820152600190910190602001614ee3565b505081860193505b509195945050505050565b606081526000614f25606083018661413e565b8281036020840152614f37818661413e565b915050826040830152949350505050565b6020808252600e908201526d139bdd08185d5d1a1bdc9a5e995960921b604082015260600190565b60208082526010908201526f125b9d985b1a5908119c9d5a5d08125160821b604082015260600190565b838152606060208201526000614fb3606083018561413e565b9050826040830152949350505050565b634e487b7160e01b600052601160045260246000fd5b600060018201614feb57614feb614fc3565b5060010190565b8181038181111561500557615005614fc3565b92915050565b60608152600061501e606083018661413e565b6001600160a01b039490941660208301525060400152919050565b634e487b7160e01b600052601260045260246000fd5b60008261505e5761505e615039565b500490565b808202811582820484141761500557615005614fc3565b690283ab931b430b9b2b2160b51b81526000825161509f81600a85016020870161411a565b71103ab734ba3990313c9021bab9ba37b6b2b960711b600a939091019283015250601c01919050565b8481526080602082015260006150e1608083018661413e565b6001600160a01b03949094166040830152506060015292915050565b60008261510c5761510c615039565b500690565b8082018082111561500557615005614fc356fe45746865722073656e7420746f206e6f6e2d70617961626c652066756e637469a26469706673582212209ff730dacb129f816ccf0b87be31720a5319b55309731257bc151575639887d164736f6c634300081c0033",
  "linkReferences": {},
  "deployedLinkReferences": {}
}