{
  "contractName": "FruitSupplyChain",
  "abi": [
    {
      "anonymous": false,
      "inputs": [
        {
          "indexed": false,
          "internalType": "uint256",
          "name": "fruitId",
          "type": "uint256"
        },
        {
          "indexed": false,
          "internalType": "string",
          "name": "step",
          "type": "string"
        },
        {
          "indexed": false,
          "internalType": "address",
          "name": "by",
          "type": "address"
        },
        {
          "indexed": false,
          "internalType": "uint256",
          "name": "timestamp",
          "type": "uint256"
        }
      ],
      "name": "StepRecorded",
      "type": "event"
    },
    {
      "inputs": [],
      "name": "fruitCount",
      "outputs": [
        {
          "internalType": "uint256",
          "name": "",
          "type": "uint256"
        }
      ],
      "stateMutability": "view",
      "type": "function",
      "constant": true
    },
    {
      "inputs": [
        {
          "internalType": "uint256",
          "name": "",
          "type": "uint256"
        }
      ],
      "name": "fruits",
      "outputs": [
        {
          "internalType": "string",
          "name": "fruitType",
          "type": "string"
        },
        {
          "internalType": "string",
          "name": "origin",
          "type": "string"
        },
        {
          "internalType": "address",
          "name": "producer",
          "type": "address"
        }
      ],
      "stateMutability": "view",
      "type": "function",
      "constant": true
    },
    {
      "inputs": [
        {
          "internalType": "string",
          "name": "_fruitType",
          "type": "string"
        },
        {
          "internalType": "string",
          "name": "_origin",
          "type": "string"
        }
      ],
      "name": "harvestFruit",
      "outputs": [],
      "stateMutability": "nonpayable",
      "type": "function"
    },
    {
      "inputs": [
        {
          "internalType": "uint256",
          "name": "_fruitId",
          "type": "uint256"
        },
        {
          "internalType": "string",
          "name": "_step",
          "type": "string"
        }
      ],
      "name": "recordStep",
      "outputs": [],
      "stateMutability": "nonpayable",
      "type": "function"
    },
    {
      "inputs": [
        {
          "internalType": "uint256",
          "name": "_fruitId",
          "type": "uint256"
        }
      ],
      "name": "getFruit",
      "outputs": [
        {
          "internalType": "string",
          "name": "",
          "type": "string"
        },
        {
          "internalType": "string",
          "name": "",
          "type": "string"
        },
        {
          "internalType": "address",
          "name": "",
          "type": "address"
        },
        {
          "internalType": "string[]",
          "name": "",
          "type": "string[]"
        }
      ],
      "stateMutability": "view",
      "type": "function",
      "constant": true
    }
  ],
  "bytecode": "0x608060405234801561001057600080fd5b50611105806100206000396000f3fe608060405234801561001057600080fd5b50600436106100575760003560e01c806376ce7fe91461005c578063bc5e8cd71461008f578063c4172162146100ab578063d46c45fe146100dd578063f493008d146100f9575b600080fd5b61007660048036038101906100719190610ad4565b610117565b6040516100869493929190610d2f565b60405180910390f35b6100a960048036038101906100a49190610afd565b610407565b005b6100c560048036038101906100c09190610ad4565b6104e8565b6040516100d493929190610cea565b60405180910390f35b6100f760048036038101906100f29190610a68565b610642565b005b61010161087e565b60405161010e9190610da9565b60405180910390f35b6060806000606060015485111580156101305750600085115b61016f576040517f08c379a000000000000000000000000000000000000000000000000000000000815260040161016690610d89565b60405180910390fd5b600080600087815260200190815260200160002060405180608001604052908160008201805461019e90610f9f565b80601f01602080910402602001604051908101604052809291908181526020018280546101ca90610f9f565b80156102175780601f106101ec57610100808354040283529160200191610217565b820191906000526020600020905b8154815290600101906020018083116101fa57829003601f168201915b5050505050815260200160018201805461023090610f9f565b80601f016020809104026020016040519081016040528092919081815260200182805461025c90610f9f565b80156102a95780601f1061027e576101008083540402835291602001916102a9565b820191906000526020600020905b81548152906001019060200180831161028c57829003601f168201915b505050505081526020016002820160009054906101000a900473ffffffffffffffffffffffffffffffffffffffff1673ffffffffffffffffffffffffffffffffffffffff1673ffffffffffffffffffffffffffffffffffffffff16815260200160038201805480602002602001604051908101604052809291908181526020016000905b828210156103d957838290600052602060002001805461034c90610f9f565b80601f016020809104026020016040519081016040528092919081815260200182805461037890610f9f565b80156103c55780601f1061039a576101008083540402835291602001916103c5565b820191906000526020600020905b8154815290600101906020018083116103a857829003601f168201915b50505050508152602001906001019061032d565b5050505081525050905080600001518160200151826040015183606001519450945094509450509193509193565b60015482111580156104195750600082115b610458576040517f08c379a000000000000000000000000000000000000000000000000000000000815260040161044f90610d89565b60405180910390fd5b600080838152602001908152602001600020600301819080600181540180825580915050600190039060005260206000200160009091909190915090805190602001906104a6929190610884565b507f28222dbd9906bc73e71cbd7bd296a46d23de9224d425c30be175af99b4ab7741828233426040516104dc9493929190610dc4565b60405180910390a15050565b600060205280600052604060002060009150905080600001805461050b90610f9f565b80601f016020809104026020016040519081016040528092919081815260200182805461053790610f9f565b80156105845780601f1061055957610100808354040283529160200191610584565b820191906000526020600020905b81548152906001019060200180831161056757829003601f168201915b50505050509080600101805461059990610f9f565b80601f01602080910402602001604051908101604052809291908181526020018280546105c590610f9f565b80156106125780601f106105e757610100808354040283529160200191610612565b820191906000526020600020905b8154815290600101906020018083116105f557829003601f168201915b5050505050908060020160009054906101000a900473ffffffffffffffffffffffffffffffffffffffff16905083565b6001600081548092919061065590610fd1565b919050555060405180608001604052808381526020018281526020013373ffffffffffffffffffffffffffffffffffffffff168152602001600067ffffffffffffffff8111156106ce577f4e487b7100000000000000000000000000000000000000000000000000000000600052604160045260246000fd5b60405190808252806020026020018201604052801561070157816020015b60608152602001906001900390816106ec5790505b5081525060008060015481526020019081526020016000206000820151816000019080519060200190610735929190610884565b506020820151816001019080519060200190610752929190610884565b5060408201518160020160006101000a81548173ffffffffffffffffffffffffffffffffffffffff021916908373ffffffffffffffffffffffffffffffffffffffff16021790555060608201518160030190805190602001906107b692919061090a565b50905050600080600154815260200190815260200160002060030180600181540180825580915050600190039060005260206000200160006040518060400160405280601581526020017f4861727665737465642062792050726f647563657200000000000000000000008152509091909150908051906020019061083c929190610884565b507f28222dbd9906bc73e71cbd7bd296a46d23de9224d425c30be175af99b4ab7741600154334260405161087293929190610e10565b60405180910390a15050565b60015481565b82805461089090610f9f565b90600052602060002090601f0160209004810192826108b257600085556108f9565b82601f106108cb57805160ff19168380011785556108f9565b828001600101855582156108f9579182015b828111156108f85782518255916020019190600101906108dd565b5b509050610906919061096a565b5090565b828054828255906000526020600020908101928215610959579160200282015b82811115610958578251829080519060200190610948929190610884565b509160200191906001019061092a565b5b5090506109669190610987565b5090565b5b8082111561098357600081600090555060010161096b565b5090565b5b808211156109a7576000818161099e91906109ab565b50600101610988565b5090565b5080546109b790610f9f565b6000825580601f106109c957506109e8565b601f0160209004906000526020600020908101906109e7919061096a565b5b50565b60006109fe6109f984610e8b565b610e5a565b905082815260208101848484011115610a1657600080fd5b610a21848285610f5d565b509392505050565b600082601f830112610a3a57600080fd5b8135610a4a8482602086016109eb565b91505092915050565b600081359050610a62816110b8565b92915050565b60008060408385031215610a7b57600080fd5b600083013567ffffffffffffffff811115610a9557600080fd5b610aa185828601610a29565b925050602083013567ffffffffffffffff811115610abe57600080fd5b610aca85828601610a29565b9150509250929050565b600060208284031215610ae657600080fd5b6000610af484828501610a53565b91505092915050565b60008060408385031215610b1057600080fd5b6000610b1e85828601610a53565b925050602083013567ffffffffffffffff811115610b3b57600080fd5b610b4785828601610a29565b9150509250929050565b6000610b5d8383610be9565b905092915050565b610b6e81610f21565b82525050565b6000610b7f82610ecb565b610b898185610eee565b935083602082028501610b9b85610ebb565b8060005b85811015610bd75784840389528151610bb88582610b51565b9450610bc383610ee1565b925060208a01995050600181019050610b9f565b50829750879550505050505092915050565b6000610bf482610ed6565b610bfe8185610eff565b9350610c0e818560208601610f6c565b610c17816110a7565b840191505092915050565b6000610c2d82610ed6565b610c378185610f10565b9350610c47818560208601610f6c565b610c50816110a7565b840191505092915050565b6000610c68600983610f10565b91507f48617276657374656400000000000000000000000000000000000000000000006000830152602082019050919050565b6000610ca8601083610f10565b91507f496e76616c6964204672756974204944000000000000000000000000000000006000830152602082019050919050565b610ce481610f53565b82525050565b60006060820190508181036000830152610d048186610c22565b90508181036020830152610d188185610c22565b9050610d276040830184610b65565b949350505050565b60006080820190508181036000830152610d498187610c22565b90508181036020830152610d5d8186610c22565b9050610d6c6040830185610b65565b8181036060830152610d7e8184610b74565b905095945050505050565b60006020820190508181036000830152610da281610c9b565b9050919050565b6000602082019050610dbe6000830184610cdb565b92915050565b6000608082019050610dd96000830187610cdb565b8181036020830152610deb8186610c22565b9050610dfa6040830185610b65565b610e076060830184610cdb565b95945050505050565b6000608082019050610e256000830186610cdb565b8181036020830152610e3681610c5b565b9050610e456040830185610b65565b610e526060830184610cdb565b949350505050565b6000604051905081810181811067ffffffffffffffff82111715610e8157610e80611078565b5b8060405250919050565b600067ffffffffffffffff821115610ea657610ea5611078565b5b601f19601f8301169050602081019050919050565b6000819050602082019050919050565b600081519050919050565b600081519050919050565b6000602082019050919050565b600082825260208201905092915050565b600082825260208201905092915050565b600082825260208201905092915050565b6000610f2c82610f33565b9050919050565b600073ffffffffffffffffffffffffffffffffffffffff82169050919050565b6000819050919050565b82818337600083830152505050565b60005b83811015610f8a578082015181840152602081019050610f6f565b83811115610f99576000848401525b50505050565b60006002820490506001821680610fb757607f821691505b60208210811415610fcb57610fca611049565b5b50919050565b6000610fdc82610f53565b91507fffffffffffffffffffffffffffffffffffffffffffffffffffffffffffffffff82141561100f5761100e61101a565b5b600182019050919050565b7f4e487b7100000000000000000000000000000000000000000000000000000000600052601160045260246000fd5b7f4e487b7100000000000000000000000000000000000000000000000000000000600052602260045260246000fd5b7f4e487b7100000000000000000000000000000000000000000000000000000000600052604160045260246000fd5b6000601f19601f8301169050919050565b6110c181610f53565b81146110cc57600080fd5b5056fea264697066735822122056d3d31bcd0e60b128b078207538e6d497cb2403425658353fa673c8deafe3a564736f6c63430008000033",
  "immutableReferences": {},
  "source": "// SPDX-License-Identifier: MIT\r\npragma solidity ^0.8.0;\r\n\r\ncontract FruitSupplyChain {\r\n    struct Fruit {\r\n        string fruitType;\r\n        string origin;\r\n        address producer;\r\n        string[] history;\r\n    }\r\n    mapping(uint => Fruit) public fruits;\r\n    uint public fruitCount;\r\n\r\n    event StepRecorded(uint fruitId, string step, address by, uint timestamp);\r\n\r\n    function harvestFruit(string memory _fruitType, string memory _origin) public {\r\n        fruitCount++;\r\n        fruits[fruitCount] = Fruit(_fruitType, _origin, msg.sender, new string[](0));\r\n        fruits[fruitCount].history.push(\"Harvested by Producer\");\r\n        emit StepRecorded(fruitCount, \"Harvested\", msg.sender, block.timestamp);\r\n    }\r\n\r\n    function recordStep(uint _fruitId, string memory _step) public {\r\n        require(_fruitId <= fruitCount && _fruitId > 0, \"Invalid Fruit ID\");\r\n        fruits[_fruitId].history.push(_step);\r\n        emit StepRecorded(_fruitId, _step, msg.sender, block.timestamp);\r\n    }\r\n\r\n    function getFruit(uint _fruitId) public view returns (string memory, string memory, address, string[] memory) {\r\n        require(_fruitId <= fruitCount && _fruitId > 0, \"Invalid Fruit ID\");\r\n        Fruit memory fruit = fruits[_fruitId];\r\n        return (fruit.fruitType, fruit.origin, fruit.producer, fruit.history);\r\n    }\r\n}",
  "sourcePath": "D:\\fruit-supply-chain\\contracts\\SupplyChain.sol",
  "compiler": {
    "name": "solc",
    "version": "0.8.0+commit.c7dfd78e.Emscripten.clang"
  },
  "schemaVersion": "3.4.16",
  "updatedAt": "2025-03-19T13:41:49.493Z",
  "networkType": "ethereum",
  "devdoc": {
    "kind": "dev",
    "methods": {},
    "version": 1
  },
  "userdoc": {
    "kind": "user",
    "methods": {},
    "version": 1
  }
}