{
  "_format": "hh-sol-artifact-1",
  "contractName": "FruitSupplyChain",
  "sourceName": "contracts/SupplyChain.sol",
  "abi": [
    {
      "inputs": [],
      "stateMutability": "nonpayable",
      "type": "constructor"
    },
    {
      "anonymous": false,
      "inputs": [
        {
          "indexed": false,
          "internalType": "string",
          "name": "fruitType",
          "type": "string"
        },
        {
          "indexed": false,
          "internalType": "address",
          "name": "by",
          "type": "address"
        },
        {
          "indexed": false,
          "internalType": "uint256",
          "name": "timestamp",
          "type": "uint256"
        }
      ],
      "name": "CatalogAdded",
      "type": "event"
    },
    {
      "anonymous": false,
      "inputs": [
        {
          "indexed": false,
          "internalType": "string",
          "name": "farmId",
          "type": "string"
        },
        {
          "indexed": false,
          "internalType": "string",
          "name": "conditions",
          "type": "string"
        },
        {
          "indexed": false,
          "internalType": "uint256",
          "name": "timestamp",
          "type": "uint256"
        }
      ],
      "name": "FarmUpdated",
      "type": "event"
    },
    {
      "anonymous": false,
      "inputs": [
        {
          "indexed": false,
          "internalType": "uint256",
          "name": "listingId",
          "type": "uint256"
        },
        {
          "indexed": false,
          "internalType": "uint256",
          "name": "fruitId",
          "type": "uint256"
        },
        {
          "indexed": false,
          "internalType": "uint256",
          "name": "price",
          "type": "uint256"
        },
        {
          "indexed": false,
          "internalType": "uint256",
          "name": "quantity",
          "type": "uint256"
        },
        {
          "indexed": false,
          "internalType": "address",
          "name": "seller",
          "type": "address"
        },
        {
          "indexed": false,
          "internalType": "uint256",
          "name": "timestamp",
          "type": "uint256"
        }
      ],
      "name": "ProductListed",
      "type": "event"
    },
    {
      "anonymous": false,
      "inputs": [
        {
          "indexed": false,
          "internalType": "uint256",
          "name": "fruitId",
          "type": "uint256"
        },
        {
          "indexed": false,
          "internalType": "string",
          "name": "recommendation",
          "type": "string"
        },
        {
          "indexed": false,
          "internalType": "uint256",
          "name": "timestamp",
          "type": "uint256"
        }
      ],
      "name": "RecommendationAdded",
      "type": "event"
    },
    {
      "anonymous": false,
      "inputs": [
        {
          "indexed": false,
          "internalType": "uint256",
          "name": "fruitId",
          "type": "uint256"
        },
        {
          "indexed": false,
          "internalType": "string",
          "name": "step",
          "type": "string"
        },
        {
          "indexed": false,
          "internalType": "address",
          "name": "by",
          "type": "address"
        },
        {
          "indexed": false,
          "internalType": "uint256",
          "name": "timestamp",
          "type": "uint256"
        }
      ],
      "name": "StepRecorded",
      "type": "event"
    },
    {
      "inputs": [
        {
          "internalType": "string",
          "name": "_fruitType",
          "type": "string"
        },
        {
          "internalType": "string",
          "name": "_description",
          "type": "string"
        },
        {
          "internalType": "string",
          "name": "_growingSeason",
          "type": "string"
        },
        {
          "internalType": "string",
          "name": "_nutritionalValue",
          "type": "string"
        },
        {
          "internalType": "string",
          "name": "_storageConditions",
          "type": "string"
        },
        {
          "internalType": "string[]",
          "name": "_commonVarieties",
          "type": "string[]"
        }
      ],
      "name": "addFruitCatalog",
      "outputs": [],
      "stateMutability": "nonpayable",
      "type": "function"
    },
    {
      "inputs": [
        {
          "internalType": "address",
          "name": "_manager",
          "type": "address"
        }
      ],
      "name": "addManager",
      "outputs": [],
      "stateMutability": "nonpayable",
      "type": "function"
    },
    {
      "inputs": [
        {
          "internalType": "uint256",
          "name": "_fruitId",
          "type": "uint256"
        },
        {
          "internalType": "string",
          "name": "_recommendation",
          "type": "string"
        }
      ],
      "name": "addRecommendation",
      "outputs": [],
      "stateMutability": "nonpayable",
      "type": "function"
    },
    {
      "inputs": [
        {
          "internalType": "address",
          "name": "",
          "type": "address"
        }
      ],
      "name": "authorizedManagers",
      "outputs": [
        {
          "internalType": "bool",
          "name": "",
          "type": "bool"
        }
      ],
      "stateMutability": "view",
      "type": "function"
    },
    {
      "inputs": [
        {
          "internalType": "string",
          "name": "",
          "type": "string"
        }
      ],
      "name": "farms",
      "outputs": [
        {
          "internalType": "string",
          "name": "location",
          "type": "string"
        },
        {
          "internalType": "string",
          "name": "climate",
          "type": "string"
        },
        {
          "internalType": "string",
          "name": "soil",
          "type": "string"
        },
        {
          "internalType": "uint256",
          "name": "lastUpdated",
          "type": "uint256"
        },
        {
          "internalType": "string",
          "name": "currentConditions",
          "type": "string"
        },
        {
          "internalType": "address",
          "name": "owner",
          "type": "address"
        }
      ],
      "stateMutability": "view",
      "type": "function"
    },
    {
      "inputs": [
        {
          "internalType": "string",
          "name": "",
          "type": "string"
        }
      ],
      "name": "fruitCatalogs",
      "outputs": [
        {
          "internalType": "string",
          "name": "name",
          "type": "string"
        },
        {
          "internalType": "string",
          "name": "description",
          "type": "string"
        },
        {
          "internalType": "string",
          "name": "growingSeason",
          "type": "string"
        },
        {
          "internalType": "string",
          "name": "nutritionalValue",
          "type": "string"
        },
        {
          "internalType": "string",
          "name": "storageConditions",
          "type": "string"
        }
      ],
      "stateMutability": "view",
      "type": "function"
    },
    {
      "inputs": [],
      "name": "fruitCount",
      "outputs": [
        {
          "internalType": "uint256",
          "name": "",
          "type": "uint256"
        }
      ],
      "stateMutability": "view",
      "type": "function"
    },
    {
      "inputs": [
        {
          "internalType": "uint256",
          "name": "",
          "type": "uint256"
        }
      ],
      "name": "fruits",
      "outputs": [
        {
          "internalType": "string",
          "name": "fruitType",
          "type": "string"
        },
        {
          "internalType": "string",
          "name": "origin",
          "type": "string"
        },
        {
          "internalType": "address",
          "name": "producer",
          "type": "address"
        },
        {
          "internalType": "uint256",
          "name": "harvestDate",
          "type": "uint256"
        },
        {
          "internalType": "string",
          "name": "quality",
          "type": "string"
        }
      ],
      "stateMutability": "view",
      "type": "function"
    },
    {
      "inputs": [],
      "name": "getAllActiveListings",
      "outputs": [
        {
          "internalType": "uint256[]",
          "name": "",
          "type": "uint256[]"
        }
      ],
      "stateMutability": "view",
      "type": "function"
    },
    {
      "inputs": [],
      "name": "getAllFarms",
      "outputs": [
        {
          "internalType": "string[]",
          "name": "",
          "type": "string[]"
        }
      ],
      "stateMutability": "view",
      "type": "function"
    },
    {
      "inputs": [],
      "name": "getAllFruitTypes",
      "outputs": [
        {
          "internalType": "string[]",
          "name": "",
          "type": "string[]"
        }
      ],
      "stateMutability": "view",
      "type": "function"
    },
    {
      "inputs": [
        {
          "internalType": "string",
          "name": "_farmId",
          "type": "string"
        }
      ],
      "name": "getFarmData",
      "outputs": [
        {
          "internalType": "string",
          "name": "",
          "type": "string"
        },
        {
          "internalType": "string",
          "name": "",
          "type": "string"
        },
        {
          "internalType": "string",
          "name": "",
          "type": "string"
        },
        {
          "internalType": "uint256",
          "name": "",
          "type": "uint256"
        },
        {
          "internalType": "string",
          "name": "",
          "type": "string"
        },
        {
          "internalType": "address",
          "name": "",
          "type": "address"
        },
        {
          "internalType": "uint256[]",
          "name": "",
          "type": "uint256[]"
        }
      ],
      "stateMutability": "view",
      "type": "function"
    },
    {
      "inputs": [
        {
          "internalType": "uint256",
          "name": "_fruitId",
          "type": "uint256"
        }
      ],
      "name": "getFruit",
      "outputs": [
        {
          "internalType": "string",
          "name": "",
          "type": "string"
        },
        {
          "internalType": "string",
          "name": "",
          "type": "string"
        },
        {
          "internalType": "address",
          "name": "",
          "type": "address"
        },
        {
          "internalType": "string[]",
          "name": "",
          "type": "string[]"
        },
        {
          "internalType": "uint256",
          "name": "",
          "type": "uint256"
        },
        {
          "internalType": "string",
          "name": "",
          "type": "string"
        },
        {
          "internalType": "string[]",
          "name": "",
          "type": "string[]"
        }
      ],
      "stateMutability": "view",
      "type": "function"
    },
    {
      "inputs": [
        {
          "internalType": "string",
          "name": "_fruitType",
          "type": "string"
        }
      ],
      "name": "getFruitCatalog",
      "outputs": [
        {
          "internalType": "string",
          "name": "",
          "type": "string"
        },
        {
          "internalType": "string",
          "name": "",
          "type": "string"
        },
        {
          "internalType": "string",
          "name": "",
          "type": "string"
        },
        {
          "internalType": "string",
          "name": "",
          "type": "string"
        },
        {
          "internalType": "string",
          "name": "",
          "type": "string"
        },
        {
          "internalType": "string[]",
          "name": "",
          "type": "string[]"
        }
      ],
      "stateMutability": "view",
      "type": "function"
    },
    {
      "inputs": [
        {
          "internalType": "uint256",
          "name": "_listingId",
          "type": "uint256"
        }
      ],
      "name": "getListedProduct",
      "outputs": [
        {
          "internalType": "uint256",
          "name": "fruitId",
          "type": "uint256"
        },
        {
          "internalType": "uint256",
          "name": "price",
          "type": "uint256"
        },
        {
          "internalType": "uint256",
          "name": "quantity",
          "type": "uint256"
        },
        {
          "internalType": "address",
          "name": "seller",
          "type": "address"
        },
        {
          "internalType": "bool",
          "name": "isActive",
          "type": "bool"
        },
        {
          "internalType": "uint256",
          "name": "listedTimestamp",
          "type": "uint256"
        }
      ],
      "stateMutability": "view",
      "type": "function"
    },
    {
      "inputs": [
        {
          "internalType": "address",
          "name": "_seller",
          "type": "address"
        }
      ],
      "name": "getSellerListings",
      "outputs": [
        {
          "internalType": "uint256[]",
          "name": "",
          "type": "uint256[]"
        }
      ],
      "stateMutability": "view",
      "type": "function"
    },
    {
      "inputs": [
        {
          "internalType": "string",
          "name": "_fruitType",
          "type": "string"
        },
        {
          "internalType": "string",
          "name": "_origin",
          "type": "string"
        },
        {
          "internalType": "string",
          "name": "_farmId",
          "type": "string"
        },
        {
          "internalType": "string",
          "name": "_quality",
          "type": "string"
        }
      ],
      "name": "harvestFruit",
      "outputs": [],
      "stateMutability": "nonpayable",
      "type": "function"
    },
    {
      "inputs": [
        {
          "internalType": "uint256",
          "name": "_fruitId",
          "type": "uint256"
        },
        {
          "internalType": "uint256",
          "name": "_price",
          "type": "uint256"
        },
        {
          "internalType": "uint256",
          "name": "_quantity",
          "type": "uint256"
        }
      ],
      "name": "listProductForSale",
      "outputs": [],
      "stateMutability": "nonpayable",
      "type": "function"
    },
    {
      "inputs": [
        {
          "internalType": "uint256",
          "name": "",
          "type": "uint256"
        }
      ],
      "name": "listedProducts",
      "outputs": [
        {
          "internalType": "uint256",
          "name": "fruitId",
          "type": "uint256"
        },
        {
          "internalType": "uint256",
          "name": "price",
          "type": "uint256"
        },
        {
          "internalType": "uint256",
          "name": "quantity",
          "type": "uint256"
        },
        {
          "internalType": "address",
          "name": "seller",
          "type": "address"
        },
        {
          "internalType": "bool",
          "name": "isActive",
          "type": "bool"
        },
        {
          "internalType": "uint256",
          "name": "listedTimestamp",
          "type": "uint256"
        }
      ],
      "stateMutability": "view",
      "type": "function"
    },
    {
      "inputs": [],
      "name": "listingCount",
      "outputs": [
        {
          "internalType": "uint256",
          "name": "",
          "type": "uint256"
        }
      ],
      "stateMutability": "view",
      "type": "function"
    },
    {
      "inputs": [
        {
          "internalType": "uint256",
          "name": "",
          "type": "uint256"
        }
      ],
      "name": "listingIds",
      "outputs": [
        {
          "internalType": "uint256",
          "name": "",
          "type": "uint256"
        }
      ],
      "stateMutability": "view",
      "type": "function"
    },
    {
      "inputs": [],
      "name": "owner",
      "outputs": [
        {
          "internalType": "address",
          "name": "",
          "type": "address"
        }
      ],
      "stateMutability": "view",
      "type": "function"
    },
    {
      "inputs": [
        {
          "internalType": "uint256",
          "name": "_fruitId",
          "type": "uint256"
        },
        {
          "internalType": "string",
          "name": "_step",
          "type": "string"
        }
      ],
      "name": "recordStep",
      "outputs": [],
      "stateMutability": "nonpayable",
      "type": "function"
    },
    {
      "inputs": [
        {
          "internalType": "string",
          "name": "_farmId",
          "type": "string"
        },
        {
          "internalType": "string",
          "name": "_location",
          "type": "string"
        },
        {
          "internalType": "string",
          "name": "_climate",
          "type": "string"
        },
        {
          "internalType": "string",
          "name": "_soil",
          "type": "string"
        },
        {
          "internalType": "string",
          "name": "_currentConditions",
          "type": "string"
        }
      ],
      "name": "registerFarm",
      "outputs": [],
      "stateMutability": "nonpayable",
      "type": "function"
    },
    {
      "inputs": [
        {
          "internalType": "uint256",
          "name": "",
          "type": "uint256"
        }
      ],
      "name": "registeredFarms",
      "outputs": [
        {
          "internalType": "string",
          "name": "",
          "type": "string"
        }
      ],
      "stateMutability": "view",
      "type": "function"
    },
    {
      "inputs": [
        {
          "internalType": "uint256",
          "name": "",
          "type": "uint256"
        }
      ],
      "name": "registeredFruitTypes",
      "outputs": [
        {
          "internalType": "string",
          "name": "",
          "type": "string"
        }
      ],
      "stateMutability": "view",
      "type": "function"
    },
    {
      "inputs": [
        {
          "internalType": "address",
          "name": "_manager",
          "type": "address"
        }
      ],
      "name": "removeManager",
      "outputs": [],
      "stateMutability": "nonpayable",
      "type": "function"
    },
    {
      "inputs": [
        {
          "internalType": "address",
          "name": "",
          "type": "address"
        },
        {
          "internalType": "uint256",
          "name": "",
          "type": "uint256"
        }
      ],
      "name": "sellerListings",
      "outputs": [
        {
          "internalType": "uint256",
          "name": "",
          "type": "uint256"
        }
      ],
      "stateMutability": "view",
      "type": "function"
    },
    {
      "inputs": [
        {
          "internalType": "string",
          "name": "_farmId",
          "type": "string"
        },
        {
          "internalType": "string",
          "name": "_conditions",
          "type": "string"
        }
      ],
      "name": "updateFarmConditions",
      "outputs": [],
      "stateMutability": "nonpayable",
      "type": "function"
    }
  ],
  "bytecode": "0x6080604052348015600f57600080fd5b5033600b60006101000a81548173ffffffffffffffffffffffffffffffffffffffff021916908373ffffffffffffffffffffffffffffffffffffffff1602179055506001600360003373ffffffffffffffffffffffffffffffffffffffff1673ffffffffffffffffffffffffffffffffffffffff16815260200190815260200160002060006101000a81548160ff021916908315150217905550614dbb806100b86000396000f3fe608060405234801561001057600080fd5b50600436106101cf5760003560e01c80636bf62cf811610104578063ac9f1276116100a2578063ceadca1311610071578063ceadca13146105bf578063e32eca8d146105f4578063f493008d14610610578063f95597741461062e576101cf565b8063ac9f127614610506578063bc5e8cd71461053b578063c417216214610557578063c71b89b51461058b576101cf565b80638da5cb5b116100de5780638da5cb5b14610492578063a53fb79d146104b0578063a9b07c26146104cc578063ac18de43146104ea576101cf565b80636bf62cf814610408578063701e50841461043e57806376ce7fe91461045c576101cf565b806343622b8111610171578063569de6fd1161014b578063569de6fd1461035757806358cf8f511461037357806358eed174146103a85780635f42da09146103d8576101cf565b806343622b81146102ef5780635154da5a1461030b57806352bea36014610327576101cf565b80631b4dba9b116101ad5780631b4dba9b146102525780631fc15e93146102875780632d06177a146102b75780633f50e5af146102d3576101cf565b8063046c6712146101d4578063054564f0146101f25780630a3cb21b14610222575b600080fd5b6101dc61064c565b6040516101e991906135fd565b60405180910390f35b61020c600480360381019061020791906136c7565b610725565b6040516102199190613716565b60405180910390f35b61023c60048036038101906102379190613731565b610756565b6040516102499190613779565b60405180910390f35b61026c60048036038101906102679190613794565b610776565b60405161027e969594939291906137d0565b60405180910390f35b6102a1600480360381019061029c9190613794565b6108bf565b6040516102ae919061387b565b60405180910390f35b6102d160048036038101906102cc9190613731565b61096b565b005b6102ed60048036038101906102e891906139d2565b610a56565b005b61030960048036038101906103049190613ad9565b610cb5565b005b61032560048036038101906103209190613b51565b610e4c565b005b610341600480360381019061033c9190613794565b611008565b60405161034e9190613716565b60405180910390f35b610371600480360381019061036c9190613c93565b61102c565b005b61038d60048036038101906103889190613dc8565b6112d0565b60405161039f96959493929190613e11565b60405180910390f35b6103c260048036038101906103bd9190613794565b6116ed565b6040516103cf919061387b565b60405180910390f35b6103f260048036038101906103ed9190613731565b611799565b6040516103ff9190613f5a565b60405180910390f35b610422600480360381019061041d9190613dc8565b611830565b6040516104359796959493929190613f7c565b60405180910390f35b610446611ba7565b6040516104539190613f5a565b60405180910390f35b61047660048036038101906104719190613794565b611d57565b604051610489979695949392919061400e565b60405180910390f35b61049a6121da565b6040516104a791906140a0565b60405180910390f35b6104ca60048036038101906104c591906140bb565b612200565b005b6104d4612591565b6040516104e19190613716565b60405180910390f35b61050460048036038101906104ff9190613731565b612597565b005b610520600480360381019061051b9190613dc8565b612682565b60405161053296959493929190614192565b60405180910390f35b61055560048036038101906105509190613b51565b612914565b005b610571600480360381019061056c9190613794565b6129ee565b60405161058295949392919061420f565b60405180910390f35b6105a560048036038101906105a09190613dc8565b612bdc565b6040516105b6959493929190614277565b60405180910390f35b6105d960048036038101906105d49190613794565b612ed0565b6040516105eb969594939291906137d0565b60405180910390f35b61060e600480360381019061060991906142ed565b612f39565b005b6106186132a5565b6040516106259190613716565b60405180910390f35b6106366132ab565b60405161064391906135fd565b60405180910390f35b60606006805480602002602001604051908101604052809291908181526020016000905b8282101561071c57838290600052602060002001805461068f9061436f565b80601f01602080910402602001604051908101604052809291908181526020018280546106bb9061436f565b80156107085780601f106106dd57610100808354040283529160200191610708565b820191906000526020600020905b8154815290600101906020018083116106eb57829003601f168201915b505050505081526020019060010190610670565b50505050905090565b6005602052816000526040600020818154811061074157600080fd5b90600052602060002001600091509150505481565b60036020528060005260406000206000915054906101000a900460ff1681565b600080600080600080600a5487111580156107915750600087115b6107d0576040517f08c379a00000000000000000000000000000000000000000000000000000000081526004016107c7906143ec565b60405180910390fd5b6000600460008981526020019081526020016000206040518060c00160405290816000820154815260200160018201548152602001600282015481526020016003820160009054906101000a900473ffffffffffffffffffffffffffffffffffffffff1673ffffffffffffffffffffffffffffffffffffffff1673ffffffffffffffffffffffffffffffffffffffff1681526020016003820160149054906101000a900460ff161515151581526020016004820154815250509050806000015181602001518260400151836060015184608001518560a001519650965096509650965096505091939550919395565b600781815481106108cf57600080fd5b9060005260206000200160009150905080546108ea9061436f565b80601f01602080910402602001604051908101604052809291908181526020018280546109169061436f565b80156109635780601f1061093857610100808354040283529160200191610963565b820191906000526020600020905b81548152906001019060200180831161094657829003601f168201915b505050505081565b600b60009054906101000a900473ffffffffffffffffffffffffffffffffffffffff1673ffffffffffffffffffffffffffffffffffffffff163373ffffffffffffffffffffffffffffffffffffffff16146109fb576040517f08c379a00000000000000000000000000000000000000000000000000000000081526004016109f29061447e565b60405180910390fd5b6001600360008373ffffffffffffffffffffffffffffffffffffffff1673ffffffffffffffffffffffffffffffffffffffff16815260200190815260200160002060006101000a81548160ff02191690831515021790555050565b6040518060e001604052808581526020018481526020018381526020014281526020018281526020013373ffffffffffffffffffffffffffffffffffffffff168152602001600067ffffffffffffffff811115610ab657610ab56138a7565b5b604051908082528060200260200182016040528015610ae45781602001602082028036833780820191505090505b50815250600286604051610af891906144da565b90815260200160405180910390206000820151816000019081610b1b919061469d565b506020820151816001019081610b31919061469d565b506040820151816002019081610b47919061469d565b50606082015181600301556080820151816004019081610b67919061469d565b5060a08201518160050160006101000a81548173ffffffffffffffffffffffffffffffffffffffff021916908373ffffffffffffffffffffffffffffffffffffffff16021790555060c0820151816006019080519060200190610bcb929190613384565b509050506000805b600780549050811015610c3657868051906020012060078281548110610bfc57610bfb61476f565b5b90600052602060002001604051610c139190614841565b604051809103902003610c295760019150610c36565b8080600101915050610bd3565b5080610c7257600786908060018154018082558091505060019003906000526020600020016000909190919091509081610c70919061469d565b505b7fef9e0a850bb9971e155f20e4b0e490cdeafc72eab8d0da56fe2f1585ad9567de868342604051610ca593929190614858565b60405180910390a1505050505050565b3373ffffffffffffffffffffffffffffffffffffffff16600283604051610cdc91906144da565b908152602001604051809103902060050160009054906101000a900473ffffffffffffffffffffffffffffffffffffffff1673ffffffffffffffffffffffffffffffffffffffff161480610d795750600360003373ffffffffffffffffffffffffffffffffffffffff1673ffffffffffffffffffffffffffffffffffffffff16815260200190815260200160002060009054906101000a900460ff165b610db8576040517f08c379a0000000000000000000000000000000000000000000000000000000008152600401610daf906148e9565b60405180910390fd5b80600283604051610dc991906144da565b90815260200160405180910390206004019081610de6919061469d565b5042600283604051610df891906144da565b9081526020016040518091039020600301819055507fef9e0a850bb9971e155f20e4b0e490cdeafc72eab8d0da56fe2f1585ad9567de828242604051610e4093929190614858565b60405180910390a15050565b600b60009054906101000a900473ffffffffffffffffffffffffffffffffffffffff1673ffffffffffffffffffffffffffffffffffffffff163373ffffffffffffffffffffffffffffffffffffffff161480610ef15750600360003373ffffffffffffffffffffffffffffffffffffffff1673ffffffffffffffffffffffffffffffffffffffff16815260200190815260200160002060009054906101000a900460ff165b610f30576040517f08c379a0000000000000000000000000000000000000000000000000000000008152600401610f27906148e9565b60405180910390fd5b6009548211158015610f425750600082115b610f81576040517f08c379a0000000000000000000000000000000000000000000000000000000008152600401610f7890614955565b60405180910390fd5b60008083815260200190815260200160002060060181908060018154018082558091505060019003906000526020600020016000909190919091509081610fc8919061469d565b507f40e632d4a93e307bc4fd8ee554a117dbc7f782e20d62bdd43d8dcf040dfb521d828242604051610ffc93929190614975565b60405180910390a15050565b6008818154811061101857600080fd5b906000526020600020016000915090505481565b600b60009054906101000a900473ffffffffffffffffffffffffffffffffffffffff1673ffffffffffffffffffffffffffffffffffffffff163373ffffffffffffffffffffffffffffffffffffffff1614806110d15750600360003373ffffffffffffffffffffffffffffffffffffffff1673ffffffffffffffffffffffffffffffffffffffff16815260200190815260200160002060009054906101000a900460ff165b611110576040517f08c379a0000000000000000000000000000000000000000000000000000000008152600401611107906148e9565b60405180910390fd5b6040518060c001604052808781526020018681526020018581526020018481526020018381526020018281525060018760405161114d91906144da565b90815260200160405180910390206000820151816000019081611170919061469d565b506020820151816001019081611186919061469d565b50604082015181600201908161119c919061469d565b5060608201518160030190816111b2919061469d565b5060808201518160040190816111c8919061469d565b5060a08201518160050190805190602001906111e59291906133d1565b509050506000805b600680549050811015611250578780519060200120600682815481106112165761121561476f565b5b9060005260206000200160405161122d9190614841565b6040518091039020036112435760019150611250565b80806001019150506111ed565b508061128c5760068790806001815401808255809150506001900390600052602060002001600090919091909150908161128a919061469d565b505b7f78384878ee8ef9f8c429173968af06c8e361a98cd306b33d813326106f36681f8733426040516112bf939291906149b3565b60405180910390a150505050505050565b60608060608060608060006001886040516112eb91906144da565b90815260200160405180910390206040518060c00160405290816000820180546113149061436f565b80601f01602080910402602001604051908101604052809291908181526020018280546113409061436f565b801561138d5780601f106113625761010080835404028352916020019161138d565b820191906000526020600020905b81548152906001019060200180831161137057829003601f168201915b505050505081526020016001820180546113a69061436f565b80601f01602080910402602001604051908101604052809291908181526020018280546113d29061436f565b801561141f5780601f106113f45761010080835404028352916020019161141f565b820191906000526020600020905b81548152906001019060200180831161140257829003601f168201915b505050505081526020016002820180546114389061436f565b80601f01602080910402602001604051908101604052809291908181526020018280546114649061436f565b80156114b15780601f10611486576101008083540402835291602001916114b1565b820191906000526020600020905b81548152906001019060200180831161149457829003601f168201915b505050505081526020016003820180546114ca9061436f565b80601f01602080910402602001604051908101604052809291908181526020018280546114f69061436f565b80156115435780601f1061151857610100808354040283529160200191611543565b820191906000526020600020905b81548152906001019060200180831161152657829003601f168201915b5050505050815260200160048201805461155c9061436f565b80601f01602080910402602001604051908101604052809291908181526020018280546115889061436f565b80156115d55780601f106115aa576101008083540402835291602001916115d5565b820191906000526020600020905b8154815290600101906020018083116115b857829003601f168201915b5050505050815260200160058201805480602002602001604051908101604052809291908181526020016000905b828210156116af5783829060005260206000200180546116229061436f565b80601f016020809104026020016040519081016040528092919081815260200182805461164e9061436f565b801561169b5780601f106116705761010080835404028352916020019161169b565b820191906000526020600020905b81548152906001019060200180831161167e57829003601f168201915b505050505081526020019060010190611603565b50505050815250509050806000015181602001518260400151836060015184608001518560a001519650965096509650965096505091939550919395565b600681815481106116fd57600080fd5b9060005260206000200160009150905080546117189061436f565b80601f01602080910402602001604051908101604052809291908181526020018280546117449061436f565b80156117915780601f1061176657610100808354040283529160200191611791565b820191906000526020600020905b81548152906001019060200180831161177457829003601f168201915b505050505081565b6060600560008373ffffffffffffffffffffffffffffffffffffffff1673ffffffffffffffffffffffffffffffffffffffff16815260200190815260200160002080548060200260200160405190810160405280929190818152602001828054801561182457602002820191906000526020600020905b815481526020019060010190808311611810575b50505050509050919050565b60608060606000606060006060600060028960405161184f91906144da565b90815260200160405180910390206040518060e00160405290816000820180546118789061436f565b80601f01602080910402602001604051908101604052809291908181526020018280546118a49061436f565b80156118f15780601f106118c6576101008083540402835291602001916118f1565b820191906000526020600020905b8154815290600101906020018083116118d457829003601f168201915b5050505050815260200160018201805461190a9061436f565b80601f01602080910402602001604051908101604052809291908181526020018280546119369061436f565b80156119835780601f1061195857610100808354040283529160200191611983565b820191906000526020600020905b81548152906001019060200180831161196657829003601f168201915b5050505050815260200160028201805461199c9061436f565b80601f01602080910402602001604051908101604052809291908181526020018280546119c89061436f565b8015611a155780601f106119ea57610100808354040283529160200191611a15565b820191906000526020600020905b8154815290600101906020018083116119f857829003601f168201915b5050505050815260200160038201548152602001600482018054611a389061436f565b80601f0160208091040260200160405190810160405280929190818152602001828054611a649061436f565b8015611ab15780601f10611a8657610100808354040283529160200191611ab1565b820191906000526020600020905b815481529060010190602001808311611a9457829003601f168201915b505050505081526020016005820160009054906101000a900473ffffffffffffffffffffffffffffffffffffffff1673ffffffffffffffffffffffffffffffffffffffff1673ffffffffffffffffffffffffffffffffffffffff16815260200160068201805480602002602001604051908101604052809291908181526020018280548015611b5f57602002820191906000526020600020905b815481526020019060010190808311611b4b575b5050505050815250509050806000015181602001518260400151836060015184608001518560a001518660c00151975097509750975097509750975050919395979092949650565b6060600060088054905067ffffffffffffffff811115611bca57611bc96138a7565b5b604051908082528060200260200182016040528015611bf85781602001602082028036833780820191505090505b5090506000805b600880549050811015611cad576004600060088381548110611c2457611c2361476f565b5b9060005260206000200154815260200190815260200160002060030160149054906101000a900460ff1615611ca05760088181548110611c6757611c6661476f565b5b9060005260206000200154838381518110611c8557611c8461476f565b5b6020026020010181815250508180611c9c90614a20565b9250505b8080600101915050611bff565b5060008167ffffffffffffffff811115611cca57611cc96138a7565b5b604051908082528060200260200182016040528015611cf85781602001602082028036833780820191505090505b50905060005b82811015611d4d57838181518110611d1957611d1861476f565b5b6020026020010151828281518110611d3457611d3361476f565b5b6020026020010181815250508080600101915050611cfe565b5080935050505090565b6060806000606060006060806009548811158015611d755750600088115b611db4576040517f08c379a0000000000000000000000000000000000000000000000000000000008152600401611dab90614955565b60405180910390fd5b60008060008a81526020019081526020016000206040518060e0016040529081600082018054611de39061436f565b80601f0160208091040260200160405190810160405280929190818152602001828054611e0f9061436f565b8015611e5c5780601f10611e3157610100808354040283529160200191611e5c565b820191906000526020600020905b815481529060010190602001808311611e3f57829003601f168201915b50505050508152602001600182018054611e759061436f565b80601f0160208091040260200160405190810160405280929190818152602001828054611ea19061436f565b8015611eee5780601f10611ec357610100808354040283529160200191611eee565b820191906000526020600020905b815481529060010190602001808311611ed157829003601f168201915b505050505081526020016002820160009054906101000a900473ffffffffffffffffffffffffffffffffffffffff1673ffffffffffffffffffffffffffffffffffffffff1673ffffffffffffffffffffffffffffffffffffffff16815260200160038201805480602002602001604051908101604052809291908181526020016000905b8282101561201e578382906000526020600020018054611f919061436f565b80601f0160208091040260200160405190810160405280929190818152602001828054611fbd9061436f565b801561200a5780601f10611fdf5761010080835404028352916020019161200a565b820191906000526020600020905b815481529060010190602001808311611fed57829003601f168201915b505050505081526020019060010190611f72565b505050508152602001600482015481526020016005820180546120409061436f565b80601f016020809104026020016040519081016040528092919081815260200182805461206c9061436f565b80156120b95780601f1061208e576101008083540402835291602001916120b9565b820191906000526020600020905b81548152906001019060200180831161209c57829003601f168201915b5050505050815260200160068201805480602002602001604051908101604052809291908181526020016000905b828210156121935783829060005260206000200180546121069061436f565b80601f01602080910402602001604051908101604052809291908181526020018280546121329061436f565b801561217f5780601f106121545761010080835404028352916020019161217f565b820191906000526020600020905b81548152906001019060200180831161216257829003601f168201915b5050505050815260200190600101906120e7565b50505050815250509050806000015181602001518260400151836060015184608001518560a001518660c00151975097509750975097509750975050919395979092949650565b600b60009054906101000a900473ffffffffffffffffffffffffffffffffffffffff1681565b600060018560405161221291906144da565b9081526020016040518091039020600001805461222e9061436f565b905011612270576040517f08c379a000000000000000000000000000000000000000000000000000000000815260040161226790614ab4565b60405180910390fd5b6009600081548092919061228390614a20565b91905055506040518060e001604052808581526020018481526020013373ffffffffffffffffffffffffffffffffffffffff168152602001600067ffffffffffffffff8111156122d6576122d56138a7565b5b60405190808252806020026020018201604052801561230957816020015b60608152602001906001900390816122f45790505b508152602001428152602001828152602001600067ffffffffffffffff811115612336576123356138a7565b5b60405190808252806020026020018201604052801561236957816020015b60608152602001906001900390816123545790505b5081525060008060095481526020019081526020016000206000820151816000019081612396919061469d565b5060208201518160010190816123ac919061469d565b5060408201518160020160006101000a81548173ffffffffffffffffffffffffffffffffffffffff021916908373ffffffffffffffffffffffffffffffffffffffff16021790555060608201518160030190805190602001906124109291906133d1565b506080820151816004015560a0820151816005019081612430919061469d565b5060c082015181600601908051906020019061244d9291906133d1565b50905050600080600954815260200190815260200160002060030180600181540180825580915050600190039060005260206000200160006040518060400160405280601581526020017f4861727665737465642062792050726f64756365720000000000000000000000815250909190915090816124cc919061469d565b5060006002836040516124df91906144da565b908152602001604051809103902060000180546124fb9061436f565b9050111561254e5760028260405161251391906144da565b908152602001604051809103902060060160095490806001815401808255809150506001900390600052602060002001600090919091909150555b7f28222dbd9906bc73e71cbd7bd296a46d23de9224d425c30be175af99b4ab7741600954334260405161258393929190614b20565b60405180910390a150505050565b600a5481565b600b60009054906101000a900473ffffffffffffffffffffffffffffffffffffffff1673ffffffffffffffffffffffffffffffffffffffff163373ffffffffffffffffffffffffffffffffffffffff1614612627576040517f08c379a000000000000000000000000000000000000000000000000000000000815260040161261e9061447e565b60405180910390fd5b6000600360008373ffffffffffffffffffffffffffffffffffffffff1673ffffffffffffffffffffffffffffffffffffffff16815260200190815260200160002060006101000a81548160ff02191690831515021790555050565b6002818051602081018201805184825260208301602085012081835280955050505050506000915090508060000180546126bb9061436f565b80601f01602080910402602001604051908101604052809291908181526020018280546126e79061436f565b80156127345780601f1061270957610100808354040283529160200191612734565b820191906000526020600020905b81548152906001019060200180831161271757829003601f168201915b5050505050908060010180546127499061436f565b80601f01602080910402602001604051908101604052809291908181526020018280546127759061436f565b80156127c25780601f10612797576101008083540402835291602001916127c2565b820191906000526020600020905b8154815290600101906020018083116127a557829003601f168201915b5050505050908060020180546127d79061436f565b80601f01602080910402602001604051908101604052809291908181526020018280546128039061436f565b80156128505780601f1061282557610100808354040283529160200191612850565b820191906000526020600020905b81548152906001019060200180831161283357829003601f168201915b50505050509080600301549080600401805461286b9061436f565b80601f01602080910402602001604051908101604052809291908181526020018280546128979061436f565b80156128e45780601f106128b9576101008083540402835291602001916128e4565b820191906000526020600020905b8154815290600101906020018083116128c757829003601f168201915b5050505050908060050160009054906101000a900473ffffffffffffffffffffffffffffffffffffffff16905086565b60095482111580156129265750600082115b612965576040517f08c379a000000000000000000000000000000000000000000000000000000000815260040161295c90614955565b60405180910390fd5b600080838152602001908152602001600020600301819080600181540180825580915050600190039060005260206000200160009091909190915090816129ac919061469d565b507f28222dbd9906bc73e71cbd7bd296a46d23de9224d425c30be175af99b4ab7741828233426040516129e29493929190614b6a565b60405180910390a15050565b6000602052806000526040600020600091509050806000018054612a119061436f565b80601f0160208091040260200160405190810160405280929190818152602001828054612a3d9061436f565b8015612a8a5780601f10612a5f57610100808354040283529160200191612a8a565b820191906000526020600020905b815481529060010190602001808311612a6d57829003601f168201915b505050505090806001018054612a9f9061436f565b80601f0160208091040260200160405190810160405280929190818152602001828054612acb9061436f565b8015612b185780601f10612aed57610100808354040283529160200191612b18565b820191906000526020600020905b815481529060010190602001808311612afb57829003601f168201915b5050505050908060020160009054906101000a900473ffffffffffffffffffffffffffffffffffffffff1690806004015490806005018054612b599061436f565b80601f0160208091040260200160405190810160405280929190818152602001828054612b859061436f565b8015612bd25780601f10612ba757610100808354040283529160200191612bd2565b820191906000526020600020905b815481529060010190602001808311612bb557829003601f168201915b5050505050905085565b600181805160208101820180518482526020830160208501208183528095505050505050600091509050806000018054612c159061436f565b80601f0160208091040260200160405190810160405280929190818152602001828054612c419061436f565b8015612c8e5780601f10612c6357610100808354040283529160200191612c8e565b820191906000526020600020905b815481529060010190602001808311612c7157829003601f168201915b505050505090806001018054612ca39061436f565b80601f0160208091040260200160405190810160405280929190818152602001828054612ccf9061436f565b8015612d1c5780601f10612cf157610100808354040283529160200191612d1c565b820191906000526020600020905b815481529060010190602001808311612cff57829003601f168201915b505050505090806002018054612d319061436f565b80601f0160208091040260200160405190810160405280929190818152602001828054612d5d9061436f565b8015612daa5780601f10612d7f57610100808354040283529160200191612daa565b820191906000526020600020905b815481529060010190602001808311612d8d57829003601f168201915b505050505090806003018054612dbf9061436f565b80601f0160208091040260200160405190810160405280929190818152602001828054612deb9061436f565b8015612e385780601f10612e0d57610100808354040283529160200191612e38565b820191906000526020600020905b815481529060010190602001808311612e1b57829003601f168201915b505050505090806004018054612e4d9061436f565b80601f0160208091040260200160405190810160405280929190818152602001828054612e799061436f565b8015612ec65780601f10612e9b57610100808354040283529160200191612ec6565b820191906000526020600020905b815481529060010190602001808311612ea957829003601f168201915b5050505050905085565b60046020528060005260406000206000915090508060000154908060010154908060020154908060030160009054906101000a900473ffffffffffffffffffffffffffffffffffffffff16908060030160149054906101000a900460ff16908060040154905086565b6009548311158015612f4b5750600083115b612f8a576040517f08c379a0000000000000000000000000000000000000000000000000000000008152600401612f8190614955565b60405180910390fd5b60008211612fcd576040517f08c379a0000000000000000000000000000000000000000000000000000000008152600401612fc490614c02565b60405180910390fd5b60008111613010576040517f08c379a000000000000000000000000000000000000000000000000000000000815260040161300790614c6e565b60405180910390fd5b600a600081548092919061302390614a20565b91905055506040518060c001604052808481526020018381526020018281526020013373ffffffffffffffffffffffffffffffffffffffff1681526020016001151581526020014281525060046000600a54815260200190815260200160002060008201518160000155602082015181600101556040820151816002015560608201518160030160006101000a81548173ffffffffffffffffffffffffffffffffffffffff021916908373ffffffffffffffffffffffffffffffffffffffff16021790555060808201518160030160146101000a81548160ff02191690831515021790555060a08201518160040155905050600560003373ffffffffffffffffffffffffffffffffffffffff1673ffffffffffffffffffffffffffffffffffffffff168152602001908152602001600020600a5490806001815401808255809150506001900390600052602060002001600090919091909150556008600a54908060018154018082558091505060019003906000526020600020016000909190919091505560008084815260200190815260200160002060030180600181540180825580915050600190039060005260206000200160006040518060400160405280600f81526020017f4c697374656420666f722053616c65000000000000000000000000000000000081525090919091509081613221919061469d565b507f28222dbd9906bc73e71cbd7bd296a46d23de9224d425c30be175af99b4ab774183334260405161325593929190614cda565b60405180910390a17f74db1cf85b7690d991329cd32074d6249e834ec06591f8652f737065d42b040e600a54848484334260405161329896959493929190614d24565b60405180910390a1505050565b60095481565b60606007805480602002602001604051908101604052809291908181526020016000905b8282101561337b5783829060005260206000200180546132ee9061436f565b80601f016020809104026020016040519081016040528092919081815260200182805461331a9061436f565b80156133675780601f1061333c57610100808354040283529160200191613367565b820191906000526020600020905b81548152906001019060200180831161334a57829003601f168201915b5050505050815260200190600101906132cf565b50505050905090565b8280548282559060005260206000209081019282156133c0579160200282015b828111156133bf5782518255916020019190600101906133a4565b5b5090506133cd919061342a565b5090565b828054828255906000526020600020908101928215613419579160200282015b82811115613418578251829081613408919061469d565b50916020019190600101906133f1565b5b5090506134269190613447565b5090565b5b8082111561344357600081600090555060010161342b565b5090565b5b80821115613467576000818161345e919061346b565b50600101613448565b5090565b5080546134779061436f565b6000825580601f1061348957506134a8565b601f0160209004906000526020600020908101906134a7919061342a565b5b50565b600081519050919050565b600082825260208201905092915050565b6000819050602082019050919050565b600081519050919050565b600082825260208201905092915050565b60005b838110156135115780820151818401526020810190506134f6565b60008484015250505050565b6000601f19601f8301169050919050565b6000613539826134d7565b61354381856134e2565b93506135538185602086016134f3565b61355c8161351d565b840191505092915050565b6000613573838361352e565b905092915050565b6000602082019050919050565b6000613593826134ab565b61359d81856134b6565b9350836020820285016135af856134c7565b8060005b858110156135eb57848403895281516135cc8582613567565b94506135d78361357b565b925060208a019950506001810190506135b3565b50829750879550505050505092915050565b600060208201905081810360008301526136178184613588565b905092915050565b6000604051905090565b600080fd5b600080fd5b600073ffffffffffffffffffffffffffffffffffffffff82169050919050565b600061365e82613633565b9050919050565b61366e81613653565b811461367957600080fd5b50565b60008135905061368b81613665565b92915050565b6000819050919050565b6136a481613691565b81146136af57600080fd5b50565b6000813590506136c18161369b565b92915050565b600080604083850312156136de576136dd613629565b5b60006136ec8582860161367c565b92505060206136fd858286016136b2565b9150509250929050565b61371081613691565b82525050565b600060208201905061372b6000830184613707565b92915050565b60006020828403121561374757613746613629565b5b60006137558482850161367c565b91505092915050565b60008115159050919050565b6137738161375e565b82525050565b600060208201905061378e600083018461376a565b92915050565b6000602082840312156137aa576137a9613629565b5b60006137b8848285016136b2565b91505092915050565b6137ca81613653565b82525050565b600060c0820190506137e56000830189613707565b6137f26020830188613707565b6137ff6040830187613707565b61380c60608301866137c1565b613819608083018561376a565b61382660a0830184613707565b979650505050505050565b600082825260208201905092915050565b600061384d826134d7565b6138578185613831565b93506138678185602086016134f3565b6138708161351d565b840191505092915050565b600060208201905081810360008301526138958184613842565b905092915050565b600080fd5b600080fd5b7f4e487b7100000000000000000000000000000000000000000000000000000000600052604160045260246000fd5b6138df8261351d565b810181811067ffffffffffffffff821117156138fe576138fd6138a7565b5b80604052505050565b600061391161361f565b905061391d82826138d6565b919050565b600067ffffffffffffffff82111561393d5761393c6138a7565b5b6139468261351d565b9050602081019050919050565b82818337600083830152505050565b600061397561397084613922565b613907565b905082815260208101848484011115613991576139906138a2565b5b61399c848285613953565b509392505050565b600082601f8301126139b9576139b861389d565b5b81356139c9848260208601613962565b91505092915050565b600080600080600060a086880312156139ee576139ed613629565b5b600086013567ffffffffffffffff811115613a0c57613a0b61362e565b5b613a18888289016139a4565b955050602086013567ffffffffffffffff811115613a3957613a3861362e565b5b613a45888289016139a4565b945050604086013567ffffffffffffffff811115613a6657613a6561362e565b5b613a72888289016139a4565b935050606086013567ffffffffffffffff811115613a9357613a9261362e565b5b613a9f888289016139a4565b925050608086013567ffffffffffffffff811115613ac057613abf61362e565b5b613acc888289016139a4565b9150509295509295909350565b60008060408385031215613af057613aef613629565b5b600083013567ffffffffffffffff811115613b0e57613b0d61362e565b5b613b1a858286016139a4565b925050602083013567ffffffffffffffff811115613b3b57613b3a61362e565b5b613b47858286016139a4565b9150509250929050565b60008060408385031215613b6857613b67613629565b5b6000613b76858286016136b2565b925050602083013567ffffffffffffffff811115613b9757613b9661362e565b5b613ba3858286016139a4565b9150509250929050565b600067ffffffffffffffff821115613bc857613bc76138a7565b5b602082029050602081019050919050565b600080fd5b6000613bf1613bec84613bad565b613907565b90508083825260208201905060208402830185811115613c1457613c13613bd9565b5b835b81811015613c5b57803567ffffffffffffffff811115613c3957613c3861389d565b5b808601613c4689826139a4565b85526020850194505050602081019050613c16565b5050509392505050565b600082601f830112613c7a57613c7961389d565b5b8135613c8a848260208601613bde565b91505092915050565b60008060008060008060c08789031215613cb057613caf613629565b5b600087013567ffffffffffffffff811115613cce57613ccd61362e565b5b613cda89828a016139a4565b965050602087013567ffffffffffffffff811115613cfb57613cfa61362e565b5b613d0789828a016139a4565b955050604087013567ffffffffffffffff811115613d2857613d2761362e565b5b613d3489828a016139a4565b945050606087013567ffffffffffffffff811115613d5557613d5461362e565b5b613d6189828a016139a4565b935050608087013567ffffffffffffffff811115613d8257613d8161362e565b5b613d8e89828a016139a4565b92505060a087013567ffffffffffffffff811115613daf57613dae61362e565b5b613dbb89828a01613c65565b9150509295509295509295565b600060208284031215613dde57613ddd613629565b5b600082013567ffffffffffffffff811115613dfc57613dfb61362e565b5b613e08848285016139a4565b91505092915050565b600060c0820190508181036000830152613e2b8189613842565b90508181036020830152613e3f8188613842565b90508181036040830152613e538187613842565b90508181036060830152613e678186613842565b90508181036080830152613e7b8185613842565b905081810360a0830152613e8f8184613588565b9050979650505050505050565b600081519050919050565b600082825260208201905092915050565b6000819050602082019050919050565b613ed181613691565b82525050565b6000613ee38383613ec8565b60208301905092915050565b6000602082019050919050565b6000613f0782613e9c565b613f118185613ea7565b9350613f1c83613eb8565b8060005b83811015613f4d578151613f348882613ed7565b9750613f3f83613eef565b925050600181019050613f20565b5085935050505092915050565b60006020820190508181036000830152613f748184613efc565b905092915050565b600060e0820190508181036000830152613f96818a613842565b90508181036020830152613faa8189613842565b90508181036040830152613fbe8188613842565b9050613fcd6060830187613707565b8181036080830152613fdf8186613842565b9050613fee60a08301856137c1565b81810360c08301526140008184613efc565b905098975050505050505050565b600060e0820190508181036000830152614028818a613842565b9050818103602083015261403c8189613842565b905061404b60408301886137c1565b818103606083015261405d8187613588565b905061406c6080830186613707565b81810360a083015261407e8185613842565b905081810360c08301526140928184613588565b905098975050505050505050565b60006020820190506140b560008301846137c1565b92915050565b600080600080608085870312156140d5576140d4613629565b5b600085013567ffffffffffffffff8111156140f3576140f261362e565b5b6140ff878288016139a4565b945050602085013567ffffffffffffffff8111156141205761411f61362e565b5b61412c878288016139a4565b935050604085013567ffffffffffffffff81111561414d5761414c61362e565b5b614159878288016139a4565b925050606085013567ffffffffffffffff81111561417a5761417961362e565b5b614186878288016139a4565b91505092959194509250565b600060c08201905081810360008301526141ac8189613842565b905081810360208301526141c08188613842565b905081810360408301526141d48187613842565b90506141e36060830186613707565b81810360808301526141f58185613842565b905061420460a08301846137c1565b979650505050505050565b600060a08201905081810360008301526142298188613842565b9050818103602083015261423d8187613842565b905061424c60408301866137c1565b6142596060830185613707565b818103608083015261426b8184613842565b90509695505050505050565b600060a08201905081810360008301526142918188613842565b905081810360208301526142a58187613842565b905081810360408301526142b98186613842565b905081810360608301526142cd8185613842565b905081810360808301526142e18184613842565b90509695505050505050565b60008060006060848603121561430657614305613629565b5b6000614314868287016136b2565b9350506020614325868287016136b2565b9250506040614336868287016136b2565b9150509250925092565b7f4e487b7100000000000000000000000000000000000000000000000000000000600052602260045260246000fd5b6000600282049050600182168061438757607f821691505b60208210810361439a57614399614340565b5b50919050565b7f496e76616c6964204c697374696e672049440000000000000000000000000000600082015250565b60006143d6601283613831565b91506143e1826143a0565b602082019050919050565b60006020820190508181036000830152614405816143c9565b9050919050565b7f4f6e6c79206f776e65722063616e20706572666f726d2074686973206163746960008201527f6f6e000000000000000000000000000000000000000000000000000000000000602082015250565b6000614468602283613831565b91506144738261440c565b604082019050919050565b600060208201905081810360008301526144978161445b565b9050919050565b600081905092915050565b60006144b4826134d7565b6144be818561449e565b93506144ce8185602086016134f3565b80840191505092915050565b60006144e682846144a9565b915081905092915050565b60008190508160005260206000209050919050565b60006020601f8301049050919050565b600082821b905092915050565b6000600883026145537fffffffffffffffffffffffffffffffffffffffffffffffffffffffffffffffff82614516565b61455d8683614516565b95508019841693508086168417925050509392505050565b6000819050919050565b600061459a61459561459084613691565b614575565b613691565b9050919050565b6000819050919050565b6145b48361457f565b6145c86145c0826145a1565b848454614523565b825550505050565b600090565b6145dd6145d0565b6145e88184846145ab565b505050565b5b8181101561460c576146016000826145d5565b6001810190506145ee565b5050565b601f82111561465157614622816144f1565b61462b84614506565b8101602085101561463a578190505b61464e61464685614506565b8301826145ed565b50505b505050565b600082821c905092915050565b600061467460001984600802614656565b1980831691505092915050565b600061468d8383614663565b9150826002028217905092915050565b6146a6826134d7565b67ffffffffffffffff8111156146bf576146be6138a7565b5b6146c9825461436f565b6146d4828285614610565b600060209050601f83116001811461470757600084156146f5578287015190505b6146ff8582614681565b865550614767565b601f198416614715866144f1565b60005b8281101561473d57848901518255600182019150602085019450602081019050614718565b8683101561475a5784890151614756601f891682614663565b8355505b6001600288020188555050505b505050505050565b7f4e487b7100000000000000000000000000000000000000000000000000000000600052603260045260246000fd5b600081905092915050565b60008190508160005260206000209050919050565b600081546147cb8161436f565b6147d5818661479e565b945060018216600081146147f0576001811461480557614838565b60ff1983168652811515820286019350614838565b61480e856147a9565b60005b8381101561483057815481890152600182019150602081019050614811565b838801955050505b50505092915050565b600061484d82846147be565b915081905092915050565b600060608201905081810360008301526148728186613842565b905081810360208301526148868185613842565b90506148956040830184613707565b949350505050565b7f4e6f7420617574686f72697a6564000000000000000000000000000000000000600082015250565b60006148d3600e83613831565b91506148de8261489d565b602082019050919050565b60006020820190508181036000830152614902816148c6565b9050919050565b7f496e76616c696420467275697420494400000000000000000000000000000000600082015250565b600061493f601083613831565b915061494a82614909565b602082019050919050565b6000602082019050818103600083015261496e81614932565b9050919050565b600060608201905061498a6000830186613707565b818103602083015261499c8185613842565b90506149ab6040830184613707565b949350505050565b600060608201905081810360008301526149cd8186613842565b90506149dc60208301856137c1565b6149e96040830184613707565b949350505050565b7f4e487b7100000000000000000000000000000000000000000000000000000000600052601160045260246000fd5b6000614a2b82613691565b91507fffffffffffffffffffffffffffffffffffffffffffffffffffffffffffffffff8203614a5d57614a5c6149f1565b5b600182019050919050565b7f46727569742074797065206e6f7420696e20636174616c6f6700000000000000600082015250565b6000614a9e601983613831565b9150614aa982614a68565b602082019050919050565b60006020820190508181036000830152614acd81614a91565b9050919050565b7f4861727665737465640000000000000000000000000000000000000000000000600082015250565b6000614b0a600983613831565b9150614b1582614ad4565b602082019050919050565b6000608082019050614b356000830186613707565b8181036020830152614b4681614afd565b9050614b5560408301856137c1565b614b626060830184613707565b949350505050565b6000608082019050614b7f6000830187613707565b8181036020830152614b918186613842565b9050614ba060408301856137c1565b614bad6060830184613707565b95945050505050565b7f5072696365206d7573742062652067726561746572207468616e203000000000600082015250565b6000614bec601c83613831565b9150614bf782614bb6565b602082019050919050565b60006020820190508181036000830152614c1b81614bdf565b9050919050565b7f5175616e74697479206d7573742062652067726561746572207468616e203000600082015250565b6000614c58601f83613831565b9150614c6382614c22565b602082019050919050565b60006020820190508181036000830152614c8781614c4b565b9050919050565b7f4c697374656420666f722053616c650000000000000000000000000000000000600082015250565b6000614cc4600f83613831565b9150614ccf82614c8e565b602082019050919050565b6000608082019050614cef6000830186613707565b8181036020830152614d0081614cb7565b9050614d0f60408301856137c1565b614d1c6060830184613707565b949350505050565b600060c082019050614d396000830189613707565b614d466020830188613707565b614d536040830187613707565b614d606060830186613707565b614d6d60808301856137c1565b614d7a60a0830184613707565b97965050505050505056fea2646970667358221220de5d1ab02e60be8befd099e48865c3a2ed5d197fe3f9285b7500ee496907dc2764736f6c634300081c0033",
  "linkReferences": {},
  "deployedLinkReferences": {}
}