{
  "_format": "hh-sol-artifact-1",
  "contractName": "FruitSupplyChain",
  "sourceName": "contracts/FruitSupplyChain.sol",
  "abi": [
    {
      "inputs": [],
      "stateMutability": "nonpayable",
      "type": "constructor"
    },
    {
      "anonymous": false,
      "inputs": [
        {
          "indexed": false,
          "internalType": "string",
          "name": "fruitType",
          "type": "string"
        },
        {
          "indexed": false,
          "internalType": "address",
          "name": "by",
          "type": "address"
        },
        {
          "indexed": false,
          "internalType": "uint256",
          "name": "timestamp",
          "type": "uint256"
        }
      ],
      "name": "CatalogAdded",
      "type": "event"
    },
    {
      "anonymous": false,
      "inputs": [
        {
          "indexed": false,
          "internalType": "string",
          "name": "farmId",
          "type": "string"
        },
        {
          "indexed": false,
          "internalType": "string",
          "name": "conditions",
          "type": "string"
        },
        {
          "indexed": false,
          "internalType": "uint256",
          "name": "timestamp",
          "type": "uint256"
        }
      ],
      "name": "FarmUpdated",
      "type": "event"
    },
    {
      "anonymous": false,
      "inputs": [
        {
          "indexed": false,
          "internalType": "string",
          "name": "fruitType",
          "type": "string"
        },
        {
          "indexed": false,
          "internalType": "string",
          "name": "ipfsHash",
          "type": "string"
        },
        {
          "indexed": false,
          "internalType": "uint256",
          "name": "timestamp",
          "type": "uint256"
        }
      ],
      "name": "FruitHashUpdated",
      "type": "event"
    },
    {
      "anonymous": false,
      "inputs": [
        {
          "indexed": false,
          "internalType": "uint256",
          "name": "listingId",
          "type": "uint256"
        },
        {
          "indexed": false,
          "internalType": "uint256",
          "name": "fruitId",
          "type": "uint256"
        },
        {
          "indexed": false,
          "internalType": "uint256",
          "name": "price",
          "type": "uint256"
        },
        {
          "indexed": false,
          "internalType": "uint256",
          "name": "quantity",
          "type": "uint256"
        },
        {
          "indexed": false,
          "internalType": "address",
          "name": "seller",
          "type": "address"
        },
        {
          "indexed": false,
          "internalType": "uint256",
          "name": "timestamp",
          "type": "uint256"
        }
      ],
      "name": "ProductListed",
      "type": "event"
    },
    {
      "anonymous": false,
      "inputs": [
        {
          "indexed": false,
          "internalType": "uint256",
          "name": "fruitId",
          "type": "uint256"
        },
        {
          "indexed": false,
          "internalType": "string",
          "name": "recommendation",
          "type": "string"
        },
        {
          "indexed": false,
          "internalType": "uint256",
          "name": "timestamp",
          "type": "uint256"
        }
      ],
      "name": "RecommendationAdded",
      "type": "event"
    },
    {
      "anonymous": false,
      "inputs": [
        {
          "indexed": false,
          "internalType": "uint256",
          "name": "fruitId",
          "type": "uint256"
        },
        {
          "indexed": false,
          "internalType": "string",
          "name": "step",
          "type": "string"
        },
        {
          "indexed": false,
          "internalType": "address",
          "name": "by",
          "type": "address"
        },
        {
          "indexed": false,
          "internalType": "uint256",
          "name": "timestamp",
          "type": "uint256"
        }
      ],
      "name": "StepRecorded",
      "type": "event"
    },
    {
      "inputs": [
        {
          "internalType": "string",
          "name": "_fruitType",
          "type": "string"
        },
        {
          "internalType": "string",
          "name": "_description",
          "type": "string"
        },
        {
          "internalType": "string",
          "name": "_growingSeason",
          "type": "string"
        },
        {
          "internalType": "string",
          "name": "_nutritionalValue",
          "type": "string"
        },
        {
          "internalType": "string",
          "name": "_storageConditions",
          "type": "string"
        },
        {
          "internalType": "string[]",
          "name": "_commonVarieties",
          "type": "string[]"
        }
      ],
      "name": "addFruitCatalog",
      "outputs": [],
      "stateMutability": "nonpayable",
      "type": "function"
    },
    {
      "inputs": [
        {
          "internalType": "address",
          "name": "_manager",
          "type": "address"
        }
      ],
      "name": "addManager",
      "outputs": [],
      "stateMutability": "nonpayable",
      "type": "function"
    },
    {
      "inputs": [
        {
          "internalType": "uint256",
          "name": "_fruitId",
          "type": "uint256"
        },
        {
          "internalType": "string",
          "name": "_recommendation",
          "type": "string"
        }
      ],
      "name": "addRecommendation",
      "outputs": [],
      "stateMutability": "nonpayable",
      "type": "function"
    },
    {
      "inputs": [
        {
          "internalType": "address",
          "name": "",
          "type": "address"
        }
      ],
      "name": "authorizedManagers",
      "outputs": [
        {
          "internalType": "bool",
          "name": "",
          "type": "bool"
        }
      ],
      "stateMutability": "view",
      "type": "function"
    },
    {
      "inputs": [
        {
          "internalType": "string",
          "name": "",
          "type": "string"
        }
      ],
      "name": "farms",
      "outputs": [
        {
          "internalType": "string",
          "name": "location",
          "type": "string"
        },
        {
          "internalType": "string",
          "name": "climate",
          "type": "string"
        },
        {
          "internalType": "string",
          "name": "soil",
          "type": "string"
        },
        {
          "internalType": "uint256",
          "name": "lastUpdated",
          "type": "uint256"
        },
        {
          "internalType": "string",
          "name": "currentConditions",
          "type": "string"
        },
        {
          "internalType": "address",
          "name": "owner",
          "type": "address"
        }
      ],
      "stateMutability": "view",
      "type": "function"
    },
    {
      "inputs": [
        {
          "internalType": "string",
          "name": "",
          "type": "string"
        }
      ],
      "name": "fruitCatalogs",
      "outputs": [
        {
          "internalType": "string",
          "name": "name",
          "type": "string"
        },
        {
          "internalType": "string",
          "name": "description",
          "type": "string"
        },
        {
          "internalType": "string",
          "name": "growingSeason",
          "type": "string"
        },
        {
          "internalType": "string",
          "name": "nutritionalValue",
          "type": "string"
        },
        {
          "internalType": "string",
          "name": "storageConditions",
          "type": "string"
        }
      ],
      "stateMutability": "view",
      "type": "function"
    },
    {
      "inputs": [],
      "name": "fruitCount",
      "outputs": [
        {
          "internalType": "uint256",
          "name": "",
          "type": "uint256"
        }
      ],
      "stateMutability": "view",
      "type": "function"
    },
    {
      "inputs": [
        {
          "internalType": "string",
          "name": "",
          "type": "string"
        }
      ],
      "name": "fruitHashes",
      "outputs": [
        {
          "internalType": "string",
          "name": "",
          "type": "string"
        }
      ],
      "stateMutability": "view",
      "type": "function"
    },
    {
      "inputs": [
        {
          "internalType": "uint256",
          "name": "",
          "type": "uint256"
        }
      ],
      "name": "fruits",
      "outputs": [
        {
          "internalType": "string",
          "name": "fruitType",
          "type": "string"
        },
        {
          "internalType": "string",
          "name": "origin",
          "type": "string"
        },
        {
          "internalType": "address",
          "name": "producer",
          "type": "address"
        },
        {
          "internalType": "uint256",
          "name": "harvestDate",
          "type": "uint256"
        },
        {
          "internalType": "string",
          "name": "quality",
          "type": "string"
        }
      ],
      "stateMutability": "view",
      "type": "function"
    },
    {
      "inputs": [],
      "name": "getAllActiveListings",
      "outputs": [
        {
          "internalType": "uint256[]",
          "name": "",
          "type": "uint256[]"
        }
      ],
      "stateMutability": "view",
      "type": "function"
    },
    {
      "inputs": [],
      "name": "getAllFarms",
      "outputs": [
        {
          "internalType": "string[]",
          "name": "",
          "type": "string[]"
        }
      ],
      "stateMutability": "view",
      "type": "function"
    },
    {
      "inputs": [],
      "name": "getAllFruitTypes",
      "outputs": [
        {
          "internalType": "string[]",
          "name": "",
          "type": "string[]"
        }
      ],
      "stateMutability": "view",
      "type": "function"
    },
    {
      "inputs": [
        {
          "internalType": "string",
          "name": "_farmId",
          "type": "string"
        }
      ],
      "name": "getFarmData",
      "outputs": [
        {
          "internalType": "string",
          "name": "",
          "type": "string"
        },
        {
          "internalType": "string",
          "name": "",
          "type": "string"
        },
        {
          "internalType": "string",
          "name": "",
          "type": "string"
        },
        {
          "internalType": "uint256",
          "name": "",
          "type": "uint256"
        },
        {
          "internalType": "string",
          "name": "",
          "type": "string"
        },
        {
          "internalType": "address",
          "name": "",
          "type": "address"
        },
        {
          "internalType": "uint256[]",
          "name": "",
          "type": "uint256[]"
        }
      ],
      "stateMutability": "view",
      "type": "function"
    },
    {
      "inputs": [
        {
          "internalType": "uint256",
          "name": "_fruitId",
          "type": "uint256"
        }
      ],
      "name": "getFruit",
      "outputs": [
        {
          "internalType": "string",
          "name": "",
          "type": "string"
        },
        {
          "internalType": "string",
          "name": "",
          "type": "string"
        },
        {
          "internalType": "address",
          "name": "",
          "type": "address"
        },
        {
          "internalType": "string[]",
          "name": "",
          "type": "string[]"
        },
        {
          "internalType": "uint256",
          "name": "",
          "type": "uint256"
        },
        {
          "internalType": "string",
          "name": "",
          "type": "string"
        },
        {
          "internalType": "string[]",
          "name": "",
          "type": "string[]"
        }
      ],
      "stateMutability": "view",
      "type": "function"
    },
    {
      "inputs": [
        {
          "internalType": "string",
          "name": "_fruitType",
          "type": "string"
        }
      ],
      "name": "getFruitCatalog",
      "outputs": [
        {
          "internalType": "string",
          "name": "",
          "type": "string"
        },
        {
          "internalType": "string",
          "name": "",
          "type": "string"
        },
        {
          "internalType": "string",
          "name": "",
          "type": "string"
        },
        {
          "internalType": "string",
          "name": "",
          "type": "string"
        },
        {
          "internalType": "string",
          "name": "",
          "type": "string"
        },
        {
          "internalType": "string[]",
          "name": "",
          "type": "string[]"
        }
      ],
      "stateMutability": "view",
      "type": "function"
    },
    {
      "inputs": [
        {
          "internalType": "string",
          "name": "fruitType",
          "type": "string"
        }
      ],
      "name": "getFruitHash",
      "outputs": [
        {
          "internalType": "string",
          "name": "",
          "type": "string"
        }
      ],
      "stateMutability": "view",
      "type": "function"
    },
    {
      "inputs": [
        {
          "internalType": "uint256",
          "name": "_listingId",
          "type": "uint256"
        }
      ],
      "name": "getListedProduct",
      "outputs": [
        {
          "internalType": "uint256",
          "name": "fruitId",
          "type": "uint256"
        },
        {
          "internalType": "uint256",
          "name": "price",
          "type": "uint256"
        },
        {
          "internalType": "uint256",
          "name": "quantity",
          "type": "uint256"
        },
        {
          "internalType": "address",
          "name": "seller",
          "type": "address"
        },
        {
          "internalType": "bool",
          "name": "isActive",
          "type": "bool"
        },
        {
          "internalType": "uint256",
          "name": "listedTimestamp",
          "type": "uint256"
        }
      ],
      "stateMutability": "view",
      "type": "function"
    },
    {
      "inputs": [
        {
          "internalType": "address",
          "name": "_seller",
          "type": "address"
        }
      ],
      "name": "getSellerListings",
      "outputs": [
        {
          "internalType": "uint256[]",
          "name": "",
          "type": "uint256[]"
        }
      ],
      "stateMutability": "view",
      "type": "function"
    },
    {
      "inputs": [
        {
          "internalType": "string",
          "name": "_fruitType",
          "type": "string"
        },
        {
          "internalType": "string",
          "name": "_origin",
          "type": "string"
        },
        {
          "internalType": "string",
          "name": "_farmId",
          "type": "string"
        },
        {
          "internalType": "string",
          "name": "_quality",
          "type": "string"
        }
      ],
      "name": "harvestFruit",
      "outputs": [],
      "stateMutability": "nonpayable",
      "type": "function"
    },
    {
      "inputs": [
        {
          "internalType": "uint256",
          "name": "_fruitId",
          "type": "uint256"
        },
        {
          "internalType": "uint256",
          "name": "_price",
          "type": "uint256"
        },
        {
          "internalType": "uint256",
          "name": "_quantity",
          "type": "uint256"
        }
      ],
      "name": "listProductForSale",
      "outputs": [],
      "stateMutability": "nonpayable",
      "type": "function"
    },
    {
      "inputs": [
        {
          "internalType": "uint256",
          "name": "",
          "type": "uint256"
        }
      ],
      "name": "listedProducts",
      "outputs": [
        {
          "internalType": "uint256",
          "name": "fruitId",
          "type": "uint256"
        },
        {
          "internalType": "uint256",
          "name": "price",
          "type": "uint256"
        },
        {
          "internalType": "uint256",
          "name": "quantity",
          "type": "uint256"
        },
        {
          "internalType": "address",
          "name": "seller",
          "type": "address"
        },
        {
          "internalType": "bool",
          "name": "isActive",
          "type": "bool"
        },
        {
          "internalType": "uint256",
          "name": "listedTimestamp",
          "type": "uint256"
        }
      ],
      "stateMutability": "view",
      "type": "function"
    },
    {
      "inputs": [],
      "name": "listingCount",
      "outputs": [
        {
          "internalType": "uint256",
          "name": "",
          "type": "uint256"
        }
      ],
      "stateMutability": "view",
      "type": "function"
    },
    {
      "inputs": [
        {
          "internalType": "uint256",
          "name": "",
          "type": "uint256"
        }
      ],
      "name": "listingIds",
      "outputs": [
        {
          "internalType": "uint256",
          "name": "",
          "type": "uint256"
        }
      ],
      "stateMutability": "view",
      "type": "function"
    },
    {
      "inputs": [],
      "name": "owner",
      "outputs": [
        {
          "internalType": "address",
          "name": "",
          "type": "address"
        }
      ],
      "stateMutability": "view",
      "type": "function"
    },
    {
      "inputs": [
        {
          "internalType": "uint256",
          "name": "_fruitId",
          "type": "uint256"
        },
        {
          "internalType": "string",
          "name": "_step",
          "type": "string"
        }
      ],
      "name": "recordStep",
      "outputs": [],
      "stateMutability": "nonpayable",
      "type": "function"
    },
    {
      "inputs": [
        {
          "internalType": "string",
          "name": "_farmId",
          "type": "string"
        },
        {
          "internalType": "string",
          "name": "_location",
          "type": "string"
        },
        {
          "internalType": "string",
          "name": "_climate",
          "type": "string"
        },
        {
          "internalType": "string",
          "name": "_soil",
          "type": "string"
        },
        {
          "internalType": "string",
          "name": "_currentConditions",
          "type": "string"
        }
      ],
      "name": "registerFarm",
      "outputs": [],
      "stateMutability": "nonpayable",
      "type": "function"
    },
    {
      "inputs": [
        {
          "internalType": "uint256",
          "name": "",
          "type": "uint256"
        }
      ],
      "name": "registeredFarms",
      "outputs": [
        {
          "internalType": "string",
          "name": "",
          "type": "string"
        }
      ],
      "stateMutability": "view",
      "type": "function"
    },
    {
      "inputs": [
        {
          "internalType": "uint256",
          "name": "",
          "type": "uint256"
        }
      ],
      "name": "registeredFruitTypes",
      "outputs": [
        {
          "internalType": "string",
          "name": "",
          "type": "string"
        }
      ],
      "stateMutability": "view",
      "type": "function"
    },
    {
      "inputs": [
        {
          "internalType": "address",
          "name": "_manager",
          "type": "address"
        }
      ],
      "name": "removeManager",
      "outputs": [],
      "stateMutability": "nonpayable",
      "type": "function"
    },
    {
      "inputs": [
        {
          "internalType": "address",
          "name": "",
          "type": "address"
        },
        {
          "internalType": "uint256",
          "name": "",
          "type": "uint256"
        }
      ],
      "name": "sellerListings",
      "outputs": [
        {
          "internalType": "uint256",
          "name": "",
          "type": "uint256"
        }
      ],
      "stateMutability": "view",
      "type": "function"
    },
    {
      "inputs": [
        {
          "internalType": "string",
          "name": "fruitType",
          "type": "string"
        },
        {
          "internalType": "string",
          "name": "ipfsHash",
          "type": "string"
        }
      ],
      "name": "setFruitHash",
      "outputs": [],
      "stateMutability": "nonpayable",
      "type": "function"
    },
    {
      "inputs": [
        {
          "internalType": "string",
          "name": "_farmId",
          "type": "string"
        },
        {
          "internalType": "string",
          "name": "_conditions",
          "type": "string"
        }
      ],
      "name": "updateFarmConditions",
      "outputs": [],
      "stateMutability": "nonpayable",
      "type": "function"
    }
  ],
  "bytecode": "0x6080604052348015600f57600080fd5b50336000806101000a81548173ffffffffffffffffffffffffffffffffffffffff021916908373ffffffffffffffffffffffffffffffffffffffff16021790555060018060003373ffffffffffffffffffffffffffffffffffffffff1673ffffffffffffffffffffffffffffffffffffffff16815260200190815260200160002060006101000a81548160ff02191690831515021790555061538d806100b66000396000f3fe608060405234801561001057600080fd5b50600436106101f05760003560e01c80636bf62cf81161010f578063bc5e8cd7116100a2578063d8ab96bc11610071578063d8ab96bc14610661578063e32eca8d14610691578063f493008d146106ad578063f9559774146106cb576101f0565b8063bc5e8cd7146105a8578063c4172162146105c4578063c71b89b5146105f8578063ceadca131461062c576101f0565b8063a53fb79d116100de578063a53fb79d1461051d578063a9b07c2614610539578063ac18de4314610557578063ac9f127614610573576101f0565b80636bf62cf814610475578063701e5084146104ab57806376ce7fe9146104c95780638da5cb5b146104ff576101f0565b806343622b811161018757806358cf8f511161015657806358cf8f51146103b057806358eed174146103e55780635f42da09146104155780636a03089d14610445576101f0565b806343622b811461032c5780635154da5a1461034857806352bea36014610364578063569de6fd14610394576101f0565b80631fc15e93116101c35780631fc15e93146102a85780632d06177a146102d85780633f50e5af146102f457806342c7f63f14610310576101f0565b8063046c6712146101f5578063054564f0146102135780630a3cb21b146102435780631b4dba9b14610273575b600080fd5b6101fd6106e9565b60405161020a9190613c85565b60405180910390f35b61022d60048036038101906102289190613d4f565b6107c2565b60405161023a9190613d9e565b60405180910390f35b61025d60048036038101906102589190613db9565b6107f3565b60405161026a9190613e01565b60405180910390f35b61028d60048036038101906102889190613e1c565b610813565b60405161029f96959493929190613e58565b60405180910390f35b6102c260048036038101906102bd9190613e1c565b61095c565b6040516102cf9190613f03565b60405180910390f35b6102f260048036038101906102ed9190613db9565b610a08565b005b61030e6004803603810190610309919061405a565b610af0565b005b61032a60048036038101906103259190614161565b610d80565b005b61034660048036038101906103419190614161565b610deb565b005b610362600480360381019061035d91906141d9565b610f4e565b005b61037e60048036038101906103799190613e1c565b611109565b60405161038b9190613d9e565b60405180910390f35b6103ae60048036038101906103a9919061431b565b61112d565b005b6103ca60048036038101906103c59190614450565b6113ff565b6040516103dc96959493929190614499565b60405180910390f35b6103ff60048036038101906103fa9190613e1c565b61181c565b60405161040c9190613f03565b60405180910390f35b61042f600480360381019061042a9190613db9565b6118c8565b60405161043c91906145e2565b60405180910390f35b61045f600480360381019061045a9190614450565b61195f565b60405161046c9190613f03565b60405180910390f35b61048f600480360381019061048a9190614450565b611a0f565b6040516104a29796959493929190614604565b60405180910390f35b6104b3611d86565b6040516104c091906145e2565b60405180910390f35b6104e360048036038101906104de9190613e1c565b611f33565b6040516104f69796959493929190614696565b60405180910390f35b6105076123b7565b6040516105149190614728565b60405180910390f35b61053760048036038101906105329190614743565b6123db565b005b610541612b9e565b60405161054e9190613d9e565b60405180910390f35b610571600480360381019061056c9190613db9565b612ba4565b005b61058d60048036038101906105889190614450565b612c8d565b60405161059f9695949392919061481a565b60405180910390f35b6105c260048036038101906105bd91906141d9565b612f1f565b005b6105de60048036038101906105d99190613e1c565b612ffa565b6040516105ef959493929190614897565b60405180910390f35b610612600480360381019061060d9190614450565b6131e8565b6040516106239594939291906148ff565b60405180910390f35b61064660048036038101906106419190613e1c565b6134dc565b60405161065896959493929190613e58565b60405180910390f35b61067b60048036038101906106769190614450565b613545565b6040516106889190613f03565b60405180910390f35b6106ab60048036038101906106a69190614975565b6135fb565b005b6106b561392d565b6040516106c29190613d9e565b60405180910390f35b6106d3613933565b6040516106e09190613c85565b60405180910390f35b60606009805480602002602001604051908101604052809291908181526020016000905b828210156107b957838290600052602060002001805461072c906149f7565b80601f0160208091040260200160405190810160405280929190818152602001828054610758906149f7565b80156107a55780601f1061077a576101008083540402835291602001916107a5565b820191906000526020600020905b81548152906001019060200180831161078857829003601f168201915b50505050508152602001906001019061070d565b50505050905090565b600660205281600052604060002081815481106107de57600080fd5b90600052602060002001600091509150505481565b60016020528060005260406000206000915054906101000a900460ff1681565b60008060008060008060008711801561082e57506008548711155b61086d576040517f08c379a000000000000000000000000000000000000000000000000000000000815260040161086490614a74565b60405180910390fd5b6000600560008981526020019081526020016000206040518060c00160405290816000820154815260200160018201548152602001600282015481526020016003820160009054906101000a900473ffffffffffffffffffffffffffffffffffffffff1673ffffffffffffffffffffffffffffffffffffffff1673ffffffffffffffffffffffffffffffffffffffff1681526020016003820160149054906101000a900460ff161515151581526020016004820154815250509050806000015181602001518260400151836060015184608001518560a001519650965096509650965096505091939550919395565b600a818154811061096c57600080fd5b906000526020600020016000915090508054610987906149f7565b80601f01602080910402602001604051908101604052809291908181526020018280546109b3906149f7565b8015610a005780601f106109d557610100808354040283529160200191610a00565b820191906000526020600020905b8154815290600101906020018083116109e357829003601f168201915b505050505081565b60008054906101000a900473ffffffffffffffffffffffffffffffffffffffff1673ffffffffffffffffffffffffffffffffffffffff163373ffffffffffffffffffffffffffffffffffffffff1614610a96576040517f08c379a0000000000000000000000000000000000000000000000000000000008152600401610a8d90614b06565b60405180910390fd5b60018060008373ffffffffffffffffffffffffffffffffffffffff1673ffffffffffffffffffffffffffffffffffffffff16815260200190815260200160002060006101000a81548160ff02191690831515021790555050565b6040518060e00160405280858152602001848152602001838152602001600081526020018281526020013373ffffffffffffffffffffffffffffffffffffffff168152602001600067ffffffffffffffff811115610b5157610b50613f2f565b5b604051908082528060200260200182016040528015610b7f5781602001602082028036833780820191505090505b50815250600386604051610b939190614b62565b90815260200160405180910390206000820151816000019081610bb69190614d25565b506020820151816001019081610bcc9190614d25565b506040820151816002019081610be29190614d25565b50606082015181600301556080820151816004019081610c029190614d25565b5060a08201518160050160006101000a81548173ffffffffffffffffffffffffffffffffffffffff021916908373ffffffffffffffffffffffffffffffffffffffff16021790555060c0820151816006019080519060200190610c66929190613a0c565b509050506000805b600a80549050811015610d015786604051602001610c8c9190614b62565b60405160208183030381529060405280519060200120600a8281548110610cb657610cb5614df7565b5b90600052602060002001604051602001610cd09190614ea9565b6040516020818303038152906040528051906020012003610cf45760019150610d01565b8080600101915050610c6e565b5080610d3d57600a86908060018154018082558091505060019003906000526020600020016000909190919091509081610d3b9190614d25565b505b7fef9e0a850bb9971e155f20e4b0e490cdeafc72eab8d0da56fe2f1585ad9567de868342604051610d7093929190614ec0565b60405180910390a1505050505050565b80600c83604051610d919190614b62565b90815260200160405180910390209081610dab9190614d25565b507f888bf677ec642f934df90bbc78f33cc2d32f3d50b0d2bc286d26ef35d69c89b4828242604051610ddf93929190614ec0565b60405180910390a15050565b6000600383604051610dfd9190614b62565b908152602001604051809103902090503373ffffffffffffffffffffffffffffffffffffffff168160050160009054906101000a900473ffffffffffffffffffffffffffffffffffffffff1673ffffffffffffffffffffffffffffffffffffffff161480610eb45750600160003373ffffffffffffffffffffffffffffffffffffffff1673ffffffffffffffffffffffffffffffffffffffff16815260200190815260200160002060009054906101000a900460ff165b610ef3576040517f08c379a0000000000000000000000000000000000000000000000000000000008152600401610eea90614f51565b60405180910390fd5b81816004019081610f049190614d25565b504281600301819055507fef9e0a850bb9971e155f20e4b0e490cdeafc72eab8d0da56fe2f1585ad9567de838342604051610f4193929190614ec0565b60405180910390a1505050565b600160003373ffffffffffffffffffffffffffffffffffffffff1673ffffffffffffffffffffffffffffffffffffffff16815260200190815260200160002060009054906101000a900460ff1680610ff1575060008054906101000a900473ffffffffffffffffffffffffffffffffffffffff1673ffffffffffffffffffffffffffffffffffffffff163373ffffffffffffffffffffffffffffffffffffffff16145b611030576040517f08c379a000000000000000000000000000000000000000000000000000000000815260040161102790614f51565b60405180910390fd5b60008211801561104257506007548211155b611081576040517f08c379a000000000000000000000000000000000000000000000000000000000815260040161107890614fbd565b60405180910390fd5b60046000838152602001908152602001600020600601819080600181540180825580915050600190039060005260206000200160009091909190915090816110c99190614d25565b507f40e632d4a93e307bc4fd8ee554a117dbc7f782e20d62bdd43d8dcf040dfb521d8282426040516110fd93929190614fdd565b60405180910390a15050565b600b818154811061111957600080fd5b906000526020600020016000915090505481565b600160003373ffffffffffffffffffffffffffffffffffffffff1673ffffffffffffffffffffffffffffffffffffffff16815260200190815260200160002060009054906101000a900460ff16806111d0575060008054906101000a900473ffffffffffffffffffffffffffffffffffffffff1673ffffffffffffffffffffffffffffffffffffffff163373ffffffffffffffffffffffffffffffffffffffff16145b61120f576040517f08c379a000000000000000000000000000000000000000000000000000000000815260040161120690614f51565b60405180910390fd5b6040518060c001604052808781526020018681526020018581526020018481526020018381526020018281525060028760405161124c9190614b62565b9081526020016040518091039020600082015181600001908161126f9190614d25565b5060208201518160010190816112859190614d25565b50604082015181600201908161129b9190614d25565b5060608201518160030190816112b19190614d25565b5060808201518160040190816112c79190614d25565b5060a08201518160050190805190602001906112e4929190613a59565b509050506000805b60098054905081101561137f578760405160200161130a9190614b62565b604051602081830303815290604052805190602001206009828154811061133457611333614df7565b5b9060005260206000200160405160200161134e9190614ea9565b6040516020818303038152906040528051906020012003611372576001915061137f565b80806001019150506112ec565b50806113bb576009879080600181540180825580915050600190039060005260206000200160009091909190915090816113b99190614d25565b505b7f78384878ee8ef9f8c429173968af06c8e361a98cd306b33d813326106f36681f8733426040516113ee9392919061501b565b60405180910390a150505050505050565b606080606080606080600060028860405161141a9190614b62565b90815260200160405180910390206040518060c0016040529081600082018054611443906149f7565b80601f016020809104026020016040519081016040528092919081815260200182805461146f906149f7565b80156114bc5780601f10611491576101008083540402835291602001916114bc565b820191906000526020600020905b81548152906001019060200180831161149f57829003601f168201915b505050505081526020016001820180546114d5906149f7565b80601f0160208091040260200160405190810160405280929190818152602001828054611501906149f7565b801561154e5780601f106115235761010080835404028352916020019161154e565b820191906000526020600020905b81548152906001019060200180831161153157829003601f168201915b50505050508152602001600282018054611567906149f7565b80601f0160208091040260200160405190810160405280929190818152602001828054611593906149f7565b80156115e05780601f106115b5576101008083540402835291602001916115e0565b820191906000526020600020905b8154815290600101906020018083116115c357829003601f168201915b505050505081526020016003820180546115f9906149f7565b80601f0160208091040260200160405190810160405280929190818152602001828054611625906149f7565b80156116725780601f1061164757610100808354040283529160200191611672565b820191906000526020600020905b81548152906001019060200180831161165557829003601f168201915b5050505050815260200160048201805461168b906149f7565b80601f01602080910402602001604051908101604052809291908181526020018280546116b7906149f7565b80156117045780601f106116d957610100808354040283529160200191611704565b820191906000526020600020905b8154815290600101906020018083116116e757829003601f168201915b5050505050815260200160058201805480602002602001604051908101604052809291908181526020016000905b828210156117de578382906000526020600020018054611751906149f7565b80601f016020809104026020016040519081016040528092919081815260200182805461177d906149f7565b80156117ca5780601f1061179f576101008083540402835291602001916117ca565b820191906000526020600020905b8154815290600101906020018083116117ad57829003601f168201915b505050505081526020019060010190611732565b50505050815250509050806000015181602001518260400151836060015184608001518560a001519650965096509650965096505091939550919395565b6009818154811061182c57600080fd5b906000526020600020016000915090508054611847906149f7565b80601f0160208091040260200160405190810160405280929190818152602001828054611873906149f7565b80156118c05780601f10611895576101008083540402835291602001916118c0565b820191906000526020600020905b8154815290600101906020018083116118a357829003601f168201915b505050505081565b6060600660008373ffffffffffffffffffffffffffffffffffffffff1673ffffffffffffffffffffffffffffffffffffffff16815260200190815260200160002080548060200260200160405190810160405280929190818152602001828054801561195357602002820191906000526020600020905b81548152602001906001019080831161193f575b50505050509050919050565b6060600c826040516119719190614b62565b9081526020016040518091039020805461198a906149f7565b80601f01602080910402602001604051908101604052809291908181526020018280546119b6906149f7565b8015611a035780601f106119d857610100808354040283529160200191611a03565b820191906000526020600020905b8154815290600101906020018083116119e657829003601f168201915b50505050509050919050565b606080606060006060600060606000600389604051611a2e9190614b62565b90815260200160405180910390206040518060e0016040529081600082018054611a57906149f7565b80601f0160208091040260200160405190810160405280929190818152602001828054611a83906149f7565b8015611ad05780601f10611aa557610100808354040283529160200191611ad0565b820191906000526020600020905b815481529060010190602001808311611ab357829003601f168201915b50505050508152602001600182018054611ae9906149f7565b80601f0160208091040260200160405190810160405280929190818152602001828054611b15906149f7565b8015611b625780601f10611b3757610100808354040283529160200191611b62565b820191906000526020600020905b815481529060010190602001808311611b4557829003601f168201915b50505050508152602001600282018054611b7b906149f7565b80601f0160208091040260200160405190810160405280929190818152602001828054611ba7906149f7565b8015611bf45780601f10611bc957610100808354040283529160200191611bf4565b820191906000526020600020905b815481529060010190602001808311611bd757829003601f168201915b5050505050815260200160038201548152602001600482018054611c17906149f7565b80601f0160208091040260200160405190810160405280929190818152602001828054611c43906149f7565b8015611c905780601f10611c6557610100808354040283529160200191611c90565b820191906000526020600020905b815481529060010190602001808311611c7357829003601f168201915b505050505081526020016005820160009054906101000a900473ffffffffffffffffffffffffffffffffffffffff1673ffffffffffffffffffffffffffffffffffffffff1673ffffffffffffffffffffffffffffffffffffffff16815260200160068201805480602002602001604051908101604052809291908181526020018280548015611d3e57602002820191906000526020600020905b815481526020019060010190808311611d2a575b5050505050815250509050806000015181602001518260400151836060015184608001518560a001518660c00151975097509750975097509750975050919395979092949650565b6060600060085467ffffffffffffffff811115611da657611da5613f2f565b5b604051908082528060200260200182016040528015611dd45781602001602082028036833780820191505090505b5090506000805b600b80549050811015611e895760056000600b8381548110611e0057611dff614df7565b5b9060005260206000200154815260200190815260200160002060030160149054906101000a900460ff1615611e7c57600b8181548110611e4357611e42614df7565b5b9060005260206000200154838381518110611e6157611e60614df7565b5b6020026020010181815250508180611e7890615088565b9250505b8080600101915050611ddb565b5060008167ffffffffffffffff811115611ea657611ea5613f2f565b5b604051908082528060200260200182016040528015611ed45781602001602082028036833780820191505090505b50905060005b82811015611f2957838181518110611ef557611ef4614df7565b5b6020026020010151828281518110611f1057611f0f614df7565b5b6020026020010181815250508080600101915050611eda565b5080935050505090565b606080600060606000606080600088118015611f5157506007548811155b611f90576040517f08c379a0000000000000000000000000000000000000000000000000000000008152600401611f8790614fbd565b60405180910390fd5b6000600460008a81526020019081526020016000206040518060e0016040529081600082018054611fc0906149f7565b80601f0160208091040260200160405190810160405280929190818152602001828054611fec906149f7565b80156120395780601f1061200e57610100808354040283529160200191612039565b820191906000526020600020905b81548152906001019060200180831161201c57829003601f168201915b50505050508152602001600182018054612052906149f7565b80601f016020809104026020016040519081016040528092919081815260200182805461207e906149f7565b80156120cb5780601f106120a0576101008083540402835291602001916120cb565b820191906000526020600020905b8154815290600101906020018083116120ae57829003601f168201915b505050505081526020016002820160009054906101000a900473ffffffffffffffffffffffffffffffffffffffff1673ffffffffffffffffffffffffffffffffffffffff1673ffffffffffffffffffffffffffffffffffffffff16815260200160038201548152602001600482018054612144906149f7565b80601f0160208091040260200160405190810160405280929190818152602001828054612170906149f7565b80156121bd5780601f10612192576101008083540402835291602001916121bd565b820191906000526020600020905b8154815290600101906020018083116121a057829003601f168201915b5050505050815260200160058201805480602002602001604051908101604052809291908181526020016000905b8282101561229757838290600052602060002001805461220a906149f7565b80601f0160208091040260200160405190810160405280929190818152602001828054612236906149f7565b80156122835780601f1061225857610100808354040283529160200191612283565b820191906000526020600020905b81548152906001019060200180831161226657829003601f168201915b5050505050815260200190600101906121eb565b50505050815260200160068201805480602002602001604051908101604052809291908181526020016000905b828210156123705783829060005260206000200180546122e3906149f7565b80601f016020809104026020016040519081016040528092919081815260200182805461230f906149f7565b801561235c5780601f106123315761010080835404028352916020019161235c565b820191906000526020600020905b81548152906001019060200180831161233f57829003601f168201915b5050505050815260200190600101906122c4565b505050508152505090508060000151816020015182604001518360a00151846060015185608001518660c00151975097509750975097509750975050919395979092949650565b60008054906101000a900473ffffffffffffffffffffffffffffffffffffffff1681565b60006002856040516123ed9190614b62565b90815260200160405180910390206040518060c0016040529081600082018054612416906149f7565b80601f0160208091040260200160405190810160405280929190818152602001828054612442906149f7565b801561248f5780601f106124645761010080835404028352916020019161248f565b820191906000526020600020905b81548152906001019060200180831161247257829003601f168201915b505050505081526020016001820180546124a8906149f7565b80601f01602080910402602001604051908101604052809291908181526020018280546124d4906149f7565b80156125215780601f106124f657610100808354040283529160200191612521565b820191906000526020600020905b81548152906001019060200180831161250457829003601f168201915b5050505050815260200160028201805461253a906149f7565b80601f0160208091040260200160405190810160405280929190818152602001828054612566906149f7565b80156125b35780601f10612588576101008083540402835291602001916125b3565b820191906000526020600020905b81548152906001019060200180831161259657829003601f168201915b505050505081526020016003820180546125cc906149f7565b80601f01602080910402602001604051908101604052809291908181526020018280546125f8906149f7565b80156126455780601f1061261a57610100808354040283529160200191612645565b820191906000526020600020905b81548152906001019060200180831161262857829003601f168201915b5050505050815260200160048201805461265e906149f7565b80601f016020809104026020016040519081016040528092919081815260200182805461268a906149f7565b80156126d75780601f106126ac576101008083540402835291602001916126d7565b820191906000526020600020905b8154815290600101906020018083116126ba57829003601f168201915b5050505050815260200160058201805480602002602001604051908101604052809291908181526020016000905b828210156127b1578382906000526020600020018054612724906149f7565b80601f0160208091040260200160405190810160405280929190818152602001828054612750906149f7565b801561279d5780601f106127725761010080835404028352916020019161279d565b820191906000526020600020905b81548152906001019060200180831161278057829003601f168201915b505050505081526020019060010190612705565b50505050815250509050600081600001515111612803576040517f08c379a00000000000000000000000000000000000000000000000000000000081526004016127fa9061511c565b60405180910390fd5b6007600081548092919061281690615088565b91905055506040518060e001604052808681526020018581526020013373ffffffffffffffffffffffffffffffffffffffff168152602001428152602001838152602001600067ffffffffffffffff81111561287557612874613f2f565b5b6040519080825280602002602001820160405280156128a857816020015b60608152602001906001900390816128935790505b508152602001600067ffffffffffffffff8111156128c9576128c8613f2f565b5b6040519080825280602002602001820160405280156128fc57816020015b60608152602001906001900390816128e75790505b50815250600460006007548152602001908152602001600020600082015181600001908161292a9190614d25565b5060208201518160010190816129409190614d25565b5060408201518160020160006101000a81548173ffffffffffffffffffffffffffffffffffffffff021916908373ffffffffffffffffffffffffffffffffffffffff1602179055506060820151816003015560808201518160040190816129a79190614d25565b5060a08201518160050190805190602001906129c4929190613a59565b5060c08201518160060190805190602001906129e1929190613a59565b5090505060006003846040516129f79190614b62565b90815260200160405180910390209050600073ffffffffffffffffffffffffffffffffffffffff168160050160009054906101000a900473ffffffffffffffffffffffffffffffffffffffff1673ffffffffffffffffffffffffffffffffffffffff1603612a9157806006016007549080600181540180825580915050600190039060005260206000200160009091909190915055612adc565b600384604051612aa19190614b62565b908152602001604051809103902060060160075490806001815401808255809150506001900390600052602060002001600090919091909150555b60046000600754815260200190815260200160002060050180600181540180825580915050600190039060005260206000200160006040518060400160405280601581526020017f4861727665737465642062792050726f6475636572000000000000000000000081525090919091509081612b589190614d25565b507f28222dbd9906bc73e71cbd7bd296a46d23de9224d425c30be175af99b4ab77416007543342604051612b8e93929190615188565b60405180910390a1505050505050565b60085481565b60008054906101000a900473ffffffffffffffffffffffffffffffffffffffff1673ffffffffffffffffffffffffffffffffffffffff163373ffffffffffffffffffffffffffffffffffffffff1614612c32576040517f08c379a0000000000000000000000000000000000000000000000000000000008152600401612c2990614b06565b60405180910390fd5b6000600160008373ffffffffffffffffffffffffffffffffffffffff1673ffffffffffffffffffffffffffffffffffffffff16815260200190815260200160002060006101000a81548160ff02191690831515021790555050565b600381805160208101820180518482526020830160208501208183528095505050505050600091509050806000018054612cc6906149f7565b80601f0160208091040260200160405190810160405280929190818152602001828054612cf2906149f7565b8015612d3f5780601f10612d1457610100808354040283529160200191612d3f565b820191906000526020600020905b815481529060010190602001808311612d2257829003601f168201915b505050505090806001018054612d54906149f7565b80601f0160208091040260200160405190810160405280929190818152602001828054612d80906149f7565b8015612dcd5780601f10612da257610100808354040283529160200191612dcd565b820191906000526020600020905b815481529060010190602001808311612db057829003601f168201915b505050505090806002018054612de2906149f7565b80601f0160208091040260200160405190810160405280929190818152602001828054612e0e906149f7565b8015612e5b5780601f10612e3057610100808354040283529160200191612e5b565b820191906000526020600020905b815481529060010190602001808311612e3e57829003601f168201915b505050505090806003015490806004018054612e76906149f7565b80601f0160208091040260200160405190810160405280929190818152602001828054612ea2906149f7565b8015612eef5780601f10612ec457610100808354040283529160200191612eef565b820191906000526020600020905b815481529060010190602001808311612ed257829003601f168201915b5050505050908060050160009054906101000a900473ffffffffffffffffffffffffffffffffffffffff16905086565b600082118015612f3157506007548211155b612f70576040517f08c379a0000000000000000000000000000000000000000000000000000000008152600401612f6790614fbd565b60405180910390fd5b6004600083815260200190815260200160002060050181908060018154018082558091505060019003906000526020600020016000909190919091509081612fb89190614d25565b507f28222dbd9906bc73e71cbd7bd296a46d23de9224d425c30be175af99b4ab774182823342604051612fee94939291906151d2565b60405180910390a15050565b600460205280600052604060002060009150905080600001805461301d906149f7565b80601f0160208091040260200160405190810160405280929190818152602001828054613049906149f7565b80156130965780601f1061306b57610100808354040283529160200191613096565b820191906000526020600020905b81548152906001019060200180831161307957829003601f168201915b5050505050908060010180546130ab906149f7565b80601f01602080910402602001604051908101604052809291908181526020018280546130d7906149f7565b80156131245780601f106130f957610100808354040283529160200191613124565b820191906000526020600020905b81548152906001019060200180831161310757829003601f168201915b5050505050908060020160009054906101000a900473ffffffffffffffffffffffffffffffffffffffff1690806003015490806004018054613165906149f7565b80601f0160208091040260200160405190810160405280929190818152602001828054613191906149f7565b80156131de5780601f106131b3576101008083540402835291602001916131de565b820191906000526020600020905b8154815290600101906020018083116131c157829003601f168201915b5050505050905085565b600281805160208101820180518482526020830160208501208183528095505050505050600091509050806000018054613221906149f7565b80601f016020809104026020016040519081016040528092919081815260200182805461324d906149f7565b801561329a5780601f1061326f5761010080835404028352916020019161329a565b820191906000526020600020905b81548152906001019060200180831161327d57829003601f168201915b5050505050908060010180546132af906149f7565b80601f01602080910402602001604051908101604052809291908181526020018280546132db906149f7565b80156133285780601f106132fd57610100808354040283529160200191613328565b820191906000526020600020905b81548152906001019060200180831161330b57829003601f168201915b50505050509080600201805461333d906149f7565b80601f0160208091040260200160405190810160405280929190818152602001828054613369906149f7565b80156133b65780601f1061338b576101008083540402835291602001916133b6565b820191906000526020600020905b81548152906001019060200180831161339957829003601f168201915b5050505050908060030180546133cb906149f7565b80601f01602080910402602001604051908101604052809291908181526020018280546133f7906149f7565b80156134445780601f1061341957610100808354040283529160200191613444565b820191906000526020600020905b81548152906001019060200180831161342757829003601f168201915b505050505090806004018054613459906149f7565b80601f0160208091040260200160405190810160405280929190818152602001828054613485906149f7565b80156134d25780601f106134a7576101008083540402835291602001916134d2565b820191906000526020600020905b8154815290600101906020018083116134b557829003601f168201915b5050505050905085565b60056020528060005260406000206000915090508060000154908060010154908060020154908060030160009054906101000a900473ffffffffffffffffffffffffffffffffffffffff16908060030160149054906101000a900460ff16908060040154905086565b600c81805160208101820180518482526020830160208501208183528095505050505050600091509050805461357a906149f7565b80601f01602080910402602001604051908101604052809291908181526020018280546135a6906149f7565b80156135f35780601f106135c8576101008083540402835291602001916135f3565b820191906000526020600020905b8154815290600101906020018083116135d657829003601f168201915b505050505081565b60008311801561360d57506007548311155b61364c576040517f08c379a000000000000000000000000000000000000000000000000000000000815260040161364390614fbd565b60405180910390fd5b6000821161368f576040517f08c379a00000000000000000000000000000000000000000000000000000000081526004016136869061526a565b60405180910390fd5b600081116136d2576040517f08c379a00000000000000000000000000000000000000000000000000000000081526004016136c9906152d6565b60405180910390fd5b600860008154809291906136e590615088565b91905055506040518060c001604052808481526020018381526020018281526020013373ffffffffffffffffffffffffffffffffffffffff1681526020016001151581526020014281525060056000600854815260200190815260200160002060008201518160000155602082015181600101556040820151816002015560608201518160030160006101000a81548173ffffffffffffffffffffffffffffffffffffffff021916908373ffffffffffffffffffffffffffffffffffffffff16021790555060808201518160030160146101000a81548160ff02191690831515021790555060a08201518160040155905050600660003373ffffffffffffffffffffffffffffffffffffffff1673ffffffffffffffffffffffffffffffffffffffff1681526020019081526020016000206008549080600181540180825580915050600190039060005260206000200160009091909190915055600b60085490806001815401808255809150506001900390600052602060002001600090919091909150556004600084815260200190815260200160002060050180600181540180825580915050600190039060005260206000200160006040518060400160405280600f81526020017f4c697374656420666f722053616c650000000000000000000000000000000000815250909190915090816138e49190614d25565b507f74db1cf85b7690d991329cd32074d6249e834ec06591f8652f737065d42b040e6008548484843342604051613920969594939291906152f6565b60405180910390a1505050565b60075481565b6060600a805480602002602001604051908101604052809291908181526020016000905b82821015613a03578382906000526020600020018054613976906149f7565b80601f01602080910402602001604051908101604052809291908181526020018280546139a2906149f7565b80156139ef5780601f106139c4576101008083540402835291602001916139ef565b820191906000526020600020905b8154815290600101906020018083116139d257829003601f168201915b505050505081526020019060010190613957565b50505050905090565b828054828255906000526020600020908101928215613a48579160200282015b82811115613a47578251825591602001919060010190613a2c565b5b509050613a559190613ab2565b5090565b828054828255906000526020600020908101928215613aa1579160200282015b82811115613aa0578251829081613a909190614d25565b5091602001919060010190613a79565b5b509050613aae9190613acf565b5090565b5b80821115613acb576000816000905550600101613ab3565b5090565b5b80821115613aef5760008181613ae69190613af3565b50600101613ad0565b5090565b508054613aff906149f7565b6000825580601f10613b115750613b30565b601f016020900490600052602060002090810190613b2f9190613ab2565b5b50565b600081519050919050565b600082825260208201905092915050565b6000819050602082019050919050565b600081519050919050565b600082825260208201905092915050565b60005b83811015613b99578082015181840152602081019050613b7e565b60008484015250505050565b6000601f19601f8301169050919050565b6000613bc182613b5f565b613bcb8185613b6a565b9350613bdb818560208601613b7b565b613be481613ba5565b840191505092915050565b6000613bfb8383613bb6565b905092915050565b6000602082019050919050565b6000613c1b82613b33565b613c258185613b3e565b935083602082028501613c3785613b4f565b8060005b85811015613c735784840389528151613c548582613bef565b9450613c5f83613c03565b925060208a01995050600181019050613c3b565b50829750879550505050505092915050565b60006020820190508181036000830152613c9f8184613c10565b905092915050565b6000604051905090565b600080fd5b600080fd5b600073ffffffffffffffffffffffffffffffffffffffff82169050919050565b6000613ce682613cbb565b9050919050565b613cf681613cdb565b8114613d0157600080fd5b50565b600081359050613d1381613ced565b92915050565b6000819050919050565b613d2c81613d19565b8114613d3757600080fd5b50565b600081359050613d4981613d23565b92915050565b60008060408385031215613d6657613d65613cb1565b5b6000613d7485828601613d04565b9250506020613d8585828601613d3a565b9150509250929050565b613d9881613d19565b82525050565b6000602082019050613db36000830184613d8f565b92915050565b600060208284031215613dcf57613dce613cb1565b5b6000613ddd84828501613d04565b91505092915050565b60008115159050919050565b613dfb81613de6565b82525050565b6000602082019050613e166000830184613df2565b92915050565b600060208284031215613e3257613e31613cb1565b5b6000613e4084828501613d3a565b91505092915050565b613e5281613cdb565b82525050565b600060c082019050613e6d6000830189613d8f565b613e7a6020830188613d8f565b613e876040830187613d8f565b613e946060830186613e49565b613ea16080830185613df2565b613eae60a0830184613d8f565b979650505050505050565b600082825260208201905092915050565b6000613ed582613b5f565b613edf8185613eb9565b9350613eef818560208601613b7b565b613ef881613ba5565b840191505092915050565b60006020820190508181036000830152613f1d8184613eca565b905092915050565b600080fd5b600080fd5b7f4e487b7100000000000000000000000000000000000000000000000000000000600052604160045260246000fd5b613f6782613ba5565b810181811067ffffffffffffffff82111715613f8657613f85613f2f565b5b80604052505050565b6000613f99613ca7565b9050613fa58282613f5e565b919050565b600067ffffffffffffffff821115613fc557613fc4613f2f565b5b613fce82613ba5565b9050602081019050919050565b82818337600083830152505050565b6000613ffd613ff884613faa565b613f8f565b90508281526020810184848401111561401957614018613f2a565b5b614024848285613fdb565b509392505050565b600082601f83011261404157614040613f25565b5b8135614051848260208601613fea565b91505092915050565b600080600080600060a0868803121561407657614075613cb1565b5b600086013567ffffffffffffffff81111561409457614093613cb6565b5b6140a08882890161402c565b955050602086013567ffffffffffffffff8111156140c1576140c0613cb6565b5b6140cd8882890161402c565b945050604086013567ffffffffffffffff8111156140ee576140ed613cb6565b5b6140fa8882890161402c565b935050606086013567ffffffffffffffff81111561411b5761411a613cb6565b5b6141278882890161402c565b925050608086013567ffffffffffffffff81111561414857614147613cb6565b5b6141548882890161402c565b9150509295509295909350565b6000806040838503121561417857614177613cb1565b5b600083013567ffffffffffffffff81111561419657614195613cb6565b5b6141a28582860161402c565b925050602083013567ffffffffffffffff8111156141c3576141c2613cb6565b5b6141cf8582860161402c565b9150509250929050565b600080604083850312156141f0576141ef613cb1565b5b60006141fe85828601613d3a565b925050602083013567ffffffffffffffff81111561421f5761421e613cb6565b5b61422b8582860161402c565b9150509250929050565b600067ffffffffffffffff8211156142505761424f613f2f565b5b602082029050602081019050919050565b600080fd5b600061427961427484614235565b613f8f565b9050808382526020820190506020840283018581111561429c5761429b614261565b5b835b818110156142e357803567ffffffffffffffff8111156142c1576142c0613f25565b5b8086016142ce898261402c565b8552602085019450505060208101905061429e565b5050509392505050565b600082601f83011261430257614301613f25565b5b8135614312848260208601614266565b91505092915050565b60008060008060008060c0878903121561433857614337613cb1565b5b600087013567ffffffffffffffff81111561435657614355613cb6565b5b61436289828a0161402c565b965050602087013567ffffffffffffffff81111561438357614382613cb6565b5b61438f89828a0161402c565b955050604087013567ffffffffffffffff8111156143b0576143af613cb6565b5b6143bc89828a0161402c565b945050606087013567ffffffffffffffff8111156143dd576143dc613cb6565b5b6143e989828a0161402c565b935050608087013567ffffffffffffffff81111561440a57614409613cb6565b5b61441689828a0161402c565b92505060a087013567ffffffffffffffff81111561443757614436613cb6565b5b61444389828a016142ed565b9150509295509295509295565b60006020828403121561446657614465613cb1565b5b600082013567ffffffffffffffff81111561448457614483613cb6565b5b6144908482850161402c565b91505092915050565b600060c08201905081810360008301526144b38189613eca565b905081810360208301526144c78188613eca565b905081810360408301526144db8187613eca565b905081810360608301526144ef8186613eca565b905081810360808301526145038185613eca565b905081810360a08301526145178184613c10565b9050979650505050505050565b600081519050919050565b600082825260208201905092915050565b6000819050602082019050919050565b61455981613d19565b82525050565b600061456b8383614550565b60208301905092915050565b6000602082019050919050565b600061458f82614524565b614599818561452f565b93506145a483614540565b8060005b838110156145d55781516145bc888261455f565b97506145c783614577565b9250506001810190506145a8565b5085935050505092915050565b600060208201905081810360008301526145fc8184614584565b905092915050565b600060e082019050818103600083015261461e818a613eca565b905081810360208301526146328189613eca565b905081810360408301526146468188613eca565b90506146556060830187613d8f565b81810360808301526146678186613eca565b905061467660a0830185613e49565b81810360c08301526146888184614584565b905098975050505050505050565b600060e08201905081810360008301526146b0818a613eca565b905081810360208301526146c48189613eca565b90506146d36040830188613e49565b81810360608301526146e58187613c10565b90506146f46080830186613d8f565b81810360a08301526147068185613eca565b905081810360c083015261471a8184613c10565b905098975050505050505050565b600060208201905061473d6000830184613e49565b92915050565b6000806000806080858703121561475d5761475c613cb1565b5b600085013567ffffffffffffffff81111561477b5761477a613cb6565b5b6147878782880161402c565b945050602085013567ffffffffffffffff8111156147a8576147a7613cb6565b5b6147b48782880161402c565b935050604085013567ffffffffffffffff8111156147d5576147d4613cb6565b5b6147e18782880161402c565b925050606085013567ffffffffffffffff81111561480257614801613cb6565b5b61480e8782880161402c565b91505092959194509250565b600060c08201905081810360008301526148348189613eca565b905081810360208301526148488188613eca565b9050818103604083015261485c8187613eca565b905061486b6060830186613d8f565b818103608083015261487d8185613eca565b905061488c60a0830184613e49565b979650505050505050565b600060a08201905081810360008301526148b18188613eca565b905081810360208301526148c58187613eca565b90506148d46040830186613e49565b6148e16060830185613d8f565b81810360808301526148f38184613eca565b90509695505050505050565b600060a08201905081810360008301526149198188613eca565b9050818103602083015261492d8187613eca565b905081810360408301526149418186613eca565b905081810360608301526149558185613eca565b905081810360808301526149698184613eca565b90509695505050505050565b60008060006060848603121561498e5761498d613cb1565b5b600061499c86828701613d3a565b93505060206149ad86828701613d3a565b92505060406149be86828701613d3a565b9150509250925092565b7f4e487b7100000000000000000000000000000000000000000000000000000000600052602260045260246000fd5b60006002820490506001821680614a0f57607f821691505b602082108103614a2257614a216149c8565b5b50919050565b7f496e76616c6964204c697374696e672049440000000000000000000000000000600082015250565b6000614a5e601283613eb9565b9150614a6982614a28565b602082019050919050565b60006020820190508181036000830152614a8d81614a51565b9050919050565b7f4f6e6c79206f776e65722063616e20706572666f726d2074686973206163746960008201527f6f6e000000000000000000000000000000000000000000000000000000000000602082015250565b6000614af0602283613eb9565b9150614afb82614a94565b604082019050919050565b60006020820190508181036000830152614b1f81614ae3565b9050919050565b600081905092915050565b6000614b3c82613b5f565b614b468185614b26565b9350614b56818560208601613b7b565b80840191505092915050565b6000614b6e8284614b31565b915081905092915050565b60008190508160005260206000209050919050565b60006020601f8301049050919050565b600082821b905092915050565b600060088302614bdb7fffffffffffffffffffffffffffffffffffffffffffffffffffffffffffffffff82614b9e565b614be58683614b9e565b95508019841693508086168417925050509392505050565b6000819050919050565b6000614c22614c1d614c1884613d19565b614bfd565b613d19565b9050919050565b6000819050919050565b614c3c83614c07565b614c50614c4882614c29565b848454614bab565b825550505050565b600090565b614c65614c58565b614c70818484614c33565b505050565b5b81811015614c9457614c89600082614c5d565b600181019050614c76565b5050565b601f821115614cd957614caa81614b79565b614cb384614b8e565b81016020851015614cc2578190505b614cd6614cce85614b8e565b830182614c75565b50505b505050565b600082821c905092915050565b6000614cfc60001984600802614cde565b1980831691505092915050565b6000614d158383614ceb565b9150826002028217905092915050565b614d2e82613b5f565b67ffffffffffffffff811115614d4757614d46613f2f565b5b614d5182546149f7565b614d5c828285614c98565b600060209050601f831160018114614d8f5760008415614d7d578287015190505b614d878582614d09565b865550614def565b601f198416614d9d86614b79565b60005b82811015614dc557848901518255600182019150602085019450602081019050614da0565b86831015614de25784890151614dde601f891682614ceb565b8355505b6001600288020188555050505b505050505050565b7f4e487b7100000000000000000000000000000000000000000000000000000000600052603260045260246000fd5b60008154614e33816149f7565b614e3d8186614b26565b94506001821660008114614e585760018114614e6d57614ea0565b60ff1983168652811515820286019350614ea0565b614e7685614b79565b60005b83811015614e9857815481890152600182019150602081019050614e79565b838801955050505b50505092915050565b6000614eb58284614e26565b915081905092915050565b60006060820190508181036000830152614eda8186613eca565b90508181036020830152614eee8185613eca565b9050614efd6040830184613d8f565b949350505050565b7f4e6f7420617574686f72697a6564000000000000000000000000000000000000600082015250565b6000614f3b600e83613eb9565b9150614f4682614f05565b602082019050919050565b60006020820190508181036000830152614f6a81614f2e565b9050919050565b7f496e76616c696420467275697420494400000000000000000000000000000000600082015250565b6000614fa7601083613eb9565b9150614fb282614f71565b602082019050919050565b60006020820190508181036000830152614fd681614f9a565b9050919050565b6000606082019050614ff26000830186613d8f565b81810360208301526150048185613eca565b90506150136040830184613d8f565b949350505050565b600060608201905081810360008301526150358186613eca565b90506150446020830185613e49565b6150516040830184613d8f565b949350505050565b7f4e487b7100000000000000000000000000000000000000000000000000000000600052601160045260246000fd5b600061509382613d19565b91507fffffffffffffffffffffffffffffffffffffffffffffffffffffffffffffffff82036150c5576150c4615059565b5b600182019050919050565b7f46727569742074797065206e6f7420696e20636174616c6f6700000000000000600082015250565b6000615106601983613eb9565b9150615111826150d0565b602082019050919050565b60006020820190508181036000830152615135816150f9565b9050919050565b7f4861727665737465640000000000000000000000000000000000000000000000600082015250565b6000615172600983613eb9565b915061517d8261513c565b602082019050919050565b600060808201905061519d6000830186613d8f565b81810360208301526151ae81615165565b90506151bd6040830185613e49565b6151ca6060830184613d8f565b949350505050565b60006080820190506151e76000830187613d8f565b81810360208301526151f98186613eca565b90506152086040830185613e49565b6152156060830184613d8f565b95945050505050565b7f5072696365206d7573742062652067726561746572207468616e203000000000600082015250565b6000615254601c83613eb9565b915061525f8261521e565b602082019050919050565b6000602082019050818103600083015261528381615247565b9050919050565b7f5175616e74697479206d7573742062652067726561746572207468616e203000600082015250565b60006152c0601f83613eb9565b91506152cb8261528a565b602082019050919050565b600060208201905081810360008301526152ef816152b3565b9050919050565b600060c08201905061530b6000830189613d8f565b6153186020830188613d8f565b6153256040830187613d8f565b6153326060830186613d8f565b61533f6080830185613e49565b61534c60a0830184613d8f565b97965050505050505056fea2646970667358221220e5f3bb069d93fd6cda3466f960da49119143d80a91e79864fb3098e5a72bdbd464736f6c634300081c0033",
  "linkReferences": {},
  "deployedLinkReferences": {}
}