{
  "contractName": "FruitSupplyChain",
  "abi": [
    {
      "inputs": [],
      "stateMutability": "nonpayable",
      "type": "constructor"
    },
    {
      "anonymous": false,
      "inputs": [
        {
          "indexed": false,
          "internalType": "string",
          "name": "fruitType",
          "type": "string"
        },
        {
          "indexed": false,
          "internalType": "address",
          "name": "by",
          "type": "address"
        },
        {
          "indexed": false,
          "internalType": "uint256",
          "name": "timestamp",
          "type": "uint256"
        }
      ],
      "name": "CatalogAdded",
      "type": "event"
    },
    {
      "anonymous": false,
      "inputs": [
        {
          "indexed": false,
          "internalType": "string",
          "name": "farmId",
          "type": "string"
        },
        {
          "indexed": false,
          "internalType": "string",
          "name": "conditions",
          "type": "string"
        },
        {
          "indexed": false,
          "internalType": "uint256",
          "name": "timestamp",
          "type": "uint256"
        }
      ],
      "name": "FarmUpdated",
      "type": "event"
    },
    {
      "anonymous": false,
      "inputs": [
        {
          "indexed": false,
          "internalType": "uint256",
          "name": "fruitId",
          "type": "uint256"
        },
        {
          "indexed": false,
          "internalType": "string",
          "name": "recommendation",
          "type": "string"
        },
        {
          "indexed": false,
          "internalType": "uint256",
          "name": "timestamp",
          "type": "uint256"
        }
      ],
      "name": "RecommendationAdded",
      "type": "event"
    },
    {
      "anonymous": false,
      "inputs": [
        {
          "indexed": false,
          "internalType": "uint256",
          "name": "fruitId",
          "type": "uint256"
        },
        {
          "indexed": false,
          "internalType": "string",
          "name": "step",
          "type": "string"
        },
        {
          "indexed": false,
          "internalType": "address",
          "name": "by",
          "type": "address"
        },
        {
          "indexed": false,
          "internalType": "uint256",
          "name": "timestamp",
          "type": "uint256"
        }
      ],
      "name": "StepRecorded",
      "type": "event"
    },
    {
      "inputs": [
        {
          "internalType": "address",
          "name": "",
          "type": "address"
        }
      ],
      "name": "authorizedManagers",
      "outputs": [
        {
          "internalType": "bool",
          "name": "",
          "type": "bool"
        }
      ],
      "stateMutability": "view",
      "type": "function"
    },
    {
      "inputs": [
        {
          "internalType": "string",
          "name": "",
          "type": "string"
        }
      ],
      "name": "farms",
      "outputs": [
        {
          "internalType": "string",
          "name": "location",
          "type": "string"
        },
        {
          "internalType": "string",
          "name": "climate",
          "type": "string"
        },
        {
          "internalType": "string",
          "name": "soil",
          "type": "string"
        },
        {
          "internalType": "uint256",
          "name": "lastUpdated",
          "type": "uint256"
        },
        {
          "internalType": "string",
          "name": "currentConditions",
          "type": "string"
        },
        {
          "internalType": "address",
          "name": "owner",
          "type": "address"
        }
      ],
      "stateMutability": "view",
      "type": "function"
    },
    {
      "inputs": [
        {
          "internalType": "string",
          "name": "",
          "type": "string"
        }
      ],
      "name": "fruitCatalogs",
      "outputs": [
        {
          "internalType": "string",
          "name": "name",
          "type": "string"
        },
        {
          "internalType": "string",
          "name": "description",
          "type": "string"
        },
        {
          "internalType": "string",
          "name": "growingSeason",
          "type": "string"
        },
        {
          "internalType": "string",
          "name": "nutritionalValue",
          "type": "string"
        },
        {
          "internalType": "string",
          "name": "storageConditions",
          "type": "string"
        }
      ],
      "stateMutability": "view",
      "type": "function"
    },
    {
      "inputs": [],
      "name": "fruitCount",
      "outputs": [
        {
          "internalType": "uint256",
          "name": "",
          "type": "uint256"
        }
      ],
      "stateMutability": "view",
      "type": "function"
    },
    {
      "inputs": [
        {
          "internalType": "uint256",
          "name": "",
          "type": "uint256"
        }
      ],
      "name": "fruits",
      "outputs": [
        {
          "internalType": "string",
          "name": "fruitType",
          "type": "string"
        },
        {
          "internalType": "string",
          "name": "origin",
          "type": "string"
        },
        {
          "internalType": "address",
          "name": "producer",
          "type": "address"
        },
        {
          "internalType": "uint256",
          "name": "harvestDate",
          "type": "uint256"
        },
        {
          "internalType": "string",
          "name": "quality",
          "type": "string"
        }
      ],
      "stateMutability": "view",
      "type": "function"
    },
    {
      "inputs": [],
      "name": "owner",
      "outputs": [
        {
          "internalType": "address",
          "name": "",
          "type": "address"
        }
      ],
      "stateMutability": "view",
      "type": "function"
    },
    {
      "inputs": [
        {
          "internalType": "uint256",
          "name": "",
          "type": "uint256"
        }
      ],
      "name": "registeredFarms",
      "outputs": [
        {
          "internalType": "string",
          "name": "",
          "type": "string"
        }
      ],
      "stateMutability": "view",
      "type": "function"
    },
    {
      "inputs": [
        {
          "internalType": "uint256",
          "name": "",
          "type": "uint256"
        }
      ],
      "name": "registeredFruitTypes",
      "outputs": [
        {
          "internalType": "string",
          "name": "",
          "type": "string"
        }
      ],
      "stateMutability": "view",
      "type": "function"
    },
    {
      "inputs": [
        {
          "internalType": "address",
          "name": "_manager",
          "type": "address"
        }
      ],
      "name": "addManager",
      "outputs": [],
      "stateMutability": "nonpayable",
      "type": "function"
    },
    {
      "inputs": [
        {
          "internalType": "address",
          "name": "_manager",
          "type": "address"
        }
      ],
      "name": "removeManager",
      "outputs": [],
      "stateMutability": "nonpayable",
      "type": "function"
    },
    {
      "inputs": [
        {
          "internalType": "string",
          "name": "_fruitType",
          "type": "string"
        },
        {
          "internalType": "string",
          "name": "_description",
          "type": "string"
        },
        {
          "internalType": "string",
          "name": "_growingSeason",
          "type": "string"
        },
        {
          "internalType": "string",
          "name": "_nutritionalValue",
          "type": "string"
        },
        {
          "internalType": "string",
          "name": "_storageConditions",
          "type": "string"
        },
        {
          "internalType": "string[]",
          "name": "_commonVarieties",
          "type": "string[]"
        }
      ],
      "name": "addFruitCatalog",
      "outputs": [],
      "stateMutability": "nonpayable",
      "type": "function"
    },
    {
      "inputs": [
        {
          "internalType": "string",
          "name": "_farmId",
          "type": "string"
        },
        {
          "internalType": "string",
          "name": "_location",
          "type": "string"
        },
        {
          "internalType": "string",
          "name": "_climate",
          "type": "string"
        },
        {
          "internalType": "string",
          "name": "_soil",
          "type": "string"
        },
        {
          "internalType": "string",
          "name": "_currentConditions",
          "type": "string"
        }
      ],
      "name": "registerFarm",
      "outputs": [],
      "stateMutability": "nonpayable",
      "type": "function"
    },
    {
      "inputs": [
        {
          "internalType": "string",
          "name": "_farmId",
          "type": "string"
        },
        {
          "internalType": "string",
          "name": "_conditions",
          "type": "string"
        }
      ],
      "name": "updateFarmConditions",
      "outputs": [],
      "stateMutability": "nonpayable",
      "type": "function"
    },
    {
      "inputs": [
        {
          "internalType": "string",
          "name": "_fruitType",
          "type": "string"
        },
        {
          "internalType": "string",
          "name": "_origin",
          "type": "string"
        },
        {
          "internalType": "string",
          "name": "_farmId",
          "type": "string"
        },
        {
          "internalType": "string",
          "name": "_quality",
          "type": "string"
        }
      ],
      "name": "harvestFruit",
      "outputs": [],
      "stateMutability": "nonpayable",
      "type": "function"
    },
    {
      "inputs": [
        {
          "internalType": "uint256",
          "name": "_fruitId",
          "type": "uint256"
        },
        {
          "internalType": "string",
          "name": "_step",
          "type": "string"
        }
      ],
      "name": "recordStep",
      "outputs": [],
      "stateMutability": "nonpayable",
      "type": "function"
    },
    {
      "inputs": [
        {
          "internalType": "uint256",
          "name": "_fruitId",
          "type": "uint256"
        },
        {
          "internalType": "string",
          "name": "_recommendation",
          "type": "string"
        }
      ],
      "name": "addRecommendation",
      "outputs": [],
      "stateMutability": "nonpayable",
      "type": "function"
    },
    {
      "inputs": [
        {
          "internalType": "uint256",
          "name": "_fruitId",
          "type": "uint256"
        }
      ],
      "name": "getFruit",
      "outputs": [
        {
          "internalType": "string",
          "name": "",
          "type": "string"
        },
        {
          "internalType": "string",
          "name": "",
          "type": "string"
        },
        {
          "internalType": "address",
          "name": "",
          "type": "address"
        },
        {
          "internalType": "string[]",
          "name": "",
          "type": "string[]"
        },
        {
          "internalType": "uint256",
          "name": "",
          "type": "uint256"
        },
        {
          "internalType": "string",
          "name": "",
          "type": "string"
        },
        {
          "internalType": "string[]",
          "name": "",
          "type": "string[]"
        }
      ],
      "stateMutability": "view",
      "type": "function"
    },
    {
      "inputs": [
        {
          "internalType": "string",
          "name": "_fruitType",
          "type": "string"
        }
      ],
      "name": "getFruitCatalog",
      "outputs": [
        {
          "internalType": "string",
          "name": "",
          "type": "string"
        },
        {
          "internalType": "string",
          "name": "",
          "type": "string"
        },
        {
          "internalType": "string",
          "name": "",
          "type": "string"
        },
        {
          "internalType": "string",
          "name": "",
          "type": "string"
        },
        {
          "internalType": "string",
          "name": "",
          "type": "string"
        },
        {
          "internalType": "string[]",
          "name": "",
          "type": "string[]"
        }
      ],
      "stateMutability": "view",
      "type": "function"
    },
    {
      "inputs": [
        {
          "internalType": "string",
          "name": "_farmId",
          "type": "string"
        }
      ],
      "name": "getFarmData",
      "outputs": [
        {
          "internalType": "string",
          "name": "",
          "type": "string"
        },
        {
          "internalType": "string",
          "name": "",
          "type": "string"
        },
        {
          "internalType": "string",
          "name": "",
          "type": "string"
        },
        {
          "internalType": "uint256",
          "name": "",
          "type": "uint256"
        },
        {
          "internalType": "string",
          "name": "",
          "type": "string"
        },
        {
          "internalType": "address",
          "name": "",
          "type": "address"
        },
        {
          "internalType": "uint256[]",
          "name": "",
          "type": "uint256[]"
        }
      ],
      "stateMutability": "view",
      "type": "function"
    },
    {
      "inputs": [],
      "name": "getAllFruitTypes",
      "outputs": [
        {
          "internalType": "string[]",
          "name": "",
          "type": "string[]"
        }
      ],
      "stateMutability": "view",
      "type": "function"
    },
    {
      "inputs": [],
      "name": "getAllFarms",
      "outputs": [
        {
          "internalType": "string[]",
          "name": "",
          "type": "string[]"
        }
      ],
      "stateMutability": "view",
      "type": "function"
    }
  ],
  "bytecode": "0x608060405234801561001057600080fd5b5033600760006101000a81548173ffffffffffffffffffffffffffffffffffffffff021916908373ffffffffffffffffffffffffffffffffffffffff1602179055506001600360003373ffffffffffffffffffffffffffffffffffffffff1673ffffffffffffffffffffffffffffffffffffffff16815260200190815260200160002060006101000a81548160ff021916908315150217905550613ed4806100b96000396000f3fe608060405234801561001057600080fd5b50600436106101375760003560e01c80636bf62cf8116100b8578063ac9f12761161007c578063ac9f12761461036d578063bc5e8cd7146103a2578063c4172162146103be578063c71b89b5146103f2578063f493008d14610426578063f95597741461044457610137565b80636bf62cf8146102ab57806376ce7fe9146102e15780638da5cb5b14610317578063a53fb79d14610335578063ac18de431461035157610137565b806343622b81116100ff57806343622b81146101f25780635154da5a1461020e578063569de6fd1461022a57806358cf8f511461024657806358eed1741461027b57610137565b8063046c67121461013c5780630a3cb21b1461015a5780631fc15e931461018a5780632d06177a146101ba5780633f50e5af146101d6575b600080fd5b610144610462565b604051610151919061361b565b60405180910390f35b610174600480360381019061016f9190612df1565b61053b565b604051610181919061363d565b60405180910390f35b6101a4600480360381019061019f9190613192565b61055b565b6040516101b19190613658565b60405180910390f35b6101d460048036038101906101cf9190612df1565b610607565b005b6101f060048036038101906101eb9190612f8a565b6106f2565b005b61020c60048036038101906102079190612e5b565b6109c7565b005b610228600480360381019061022391906131bb565b610b65565b005b610244600480360381019061023f9190613079565b610d28565b005b610260600480360381019061025b9190612e1a565b611023565b60405161027296959493929190613828565b60405180910390f35b61029560048036038101906102909190613192565b611440565b6040516102a29190613658565b60405180910390f35b6102c560048036038101906102c09190612e1a565b6114ec565b6040516102d89796959493929190613930565b60405180910390f35b6102fb60048036038101906102f69190613192565b611863565b60405161030e97969594939291906136b8565b60405180910390f35b61031f611ce6565b60405161032c9190613600565b60405180910390f35b61034f600480360381019061034a9190612ec7565b611d0c565b005b61036b60048036038101906103669190612df1565b612105565b005b61038760048036038101906103829190612e1a565b6121f0565b604051610399969594939291906138b3565b60405180910390f35b6103bc60048036038101906103b791906131bb565b612482565b005b6103d860048036038101906103d39190613192565b612563565b6040516103e995949392919061374a565b60405180910390f35b61040c60048036038101906104079190612e1a565b612751565b60405161041d9594939291906137b2565b60405180910390f35b61042e612a45565b60405161043b9190613a87565b60405180910390f35b61044c612a4b565b604051610459919061361b565b60405180910390f35b60606004805480602002602001604051908101604052809291908181526020016000905b828210156105325783829060005260206000200180546104a590613d57565b80601f01602080910402602001604051908101604052809291908181526020018280546104d190613d57565b801561051e5780601f106104f35761010080835404028352916020019161051e565b820191906000526020600020905b81548152906001019060200180831161050157829003601f168201915b505050505081526020019060010190610486565b50505050905090565b60036020528060005260406000206000915054906101000a900460ff1681565b6005818154811061056b57600080fd5b90600052602060002001600091509050805461058690613d57565b80601f01602080910402602001604051908101604052809291908181526020018280546105b290613d57565b80156105ff5780601f106105d4576101008083540402835291602001916105ff565b820191906000526020600020905b8154815290600101906020018083116105e257829003601f168201915b505050505081565b600760009054906101000a900473ffffffffffffffffffffffffffffffffffffffff1673ffffffffffffffffffffffffffffffffffffffff163373ffffffffffffffffffffffffffffffffffffffff1614610697576040517f08c379a000000000000000000000000000000000000000000000000000000000815260040161068e90613a47565b60405180910390fd5b6001600360008373ffffffffffffffffffffffffffffffffffffffff1673ffffffffffffffffffffffffffffffffffffffff16815260200190815260200160002060006101000a81548160ff02191690831515021790555050565b6040518060e001604052808581526020018481526020018381526020014281526020018281526020013373ffffffffffffffffffffffffffffffffffffffff168152602001600067ffffffffffffffff811115610778577f4e487b7100000000000000000000000000000000000000000000000000000000600052604160045260246000fd5b6040519080825280602002602001820160405280156107a65781602001602082028036833780820191505090505b508152506002866040516107ba91906135e9565b908152602001604051809103902060008201518160000190805190602001906107e4929190612b24565b506020820151816001019080519060200190610801929190612b24565b50604082015181600201908051906020019061081e929190612b24565b50606082015181600301556080820151816004019080519060200190610845929190612b24565b5060a08201518160050160006101000a81548173ffffffffffffffffffffffffffffffffffffffff021916908373ffffffffffffffffffffffffffffffffffffffff16021790555060c08201518160060190805190602001906108a9929190612baa565b509050506000805b60058054905081101561094157868051906020012060058281548110610900577f4e487b7100000000000000000000000000000000000000000000000000000000600052603260045260246000fd5b9060005260206000200160405161091791906135d2565b6040518091039020141561092e5760019150610941565b808061093990613d89565b9150506108b1565b508061098457600586908060018154018082558091505060019003906000526020600020016000909190919091509080519060200190610982929190612b24565b505b7fef9e0a850bb9971e155f20e4b0e490cdeafc72eab8d0da56fe2f1585ad9567de8683426040516109b7939291906139c2565b60405180910390a1505050505050565b3373ffffffffffffffffffffffffffffffffffffffff166002836040516109ee91906135e9565b908152602001604051809103902060050160009054906101000a900473ffffffffffffffffffffffffffffffffffffffff1673ffffffffffffffffffffffffffffffffffffffff161480610a8b5750600360003373ffffffffffffffffffffffffffffffffffffffff1673ffffffffffffffffffffffffffffffffffffffff16815260200190815260200160002060009054906101000a900460ff165b610aca576040517f08c379a0000000000000000000000000000000000000000000000000000000008152600401610ac190613a67565b60405180910390fd5b80600283604051610adb91906135e9565b90815260200160405180910390206004019080519060200190610aff929190612b24565b5042600283604051610b1191906135e9565b9081526020016040518091039020600301819055507fef9e0a850bb9971e155f20e4b0e490cdeafc72eab8d0da56fe2f1585ad9567de828242604051610b59939291906139c2565b60405180910390a15050565b600760009054906101000a900473ffffffffffffffffffffffffffffffffffffffff1673ffffffffffffffffffffffffffffffffffffffff163373ffffffffffffffffffffffffffffffffffffffff161480610c0a5750600360003373ffffffffffffffffffffffffffffffffffffffff1673ffffffffffffffffffffffffffffffffffffffff16815260200190815260200160002060009054906101000a900460ff165b610c49576040517f08c379a0000000000000000000000000000000000000000000000000000000008152600401610c4090613a67565b60405180910390fd5b6006548211158015610c5b5750600082115b610c9a576040517f08c379a0000000000000000000000000000000000000000000000000000000008152600401610c9190613a07565b60405180910390fd5b60008083815260200190815260200160002060060181908060018154018082558091505060019003906000526020600020016000909190919091509080519060200190610ce8929190612b24565b507f40e632d4a93e307bc4fd8ee554a117dbc7f782e20d62bdd43d8dcf040dfb521d828242604051610d1c93929190613aee565b60405180910390a15050565b600760009054906101000a900473ffffffffffffffffffffffffffffffffffffffff1673ffffffffffffffffffffffffffffffffffffffff163373ffffffffffffffffffffffffffffffffffffffff161480610dcd5750600360003373ffffffffffffffffffffffffffffffffffffffff1673ffffffffffffffffffffffffffffffffffffffff16815260200190815260200160002060009054906101000a900460ff165b610e0c576040517f08c379a0000000000000000000000000000000000000000000000000000000008152600401610e0390613a67565b60405180910390fd5b6040518060c0016040528087815260200186815260200185815260200184815260200183815260200182815250600187604051610e4991906135e9565b90815260200160405180910390206000820151816000019080519060200190610e73929190612b24565b506020820151816001019080519060200190610e90929190612b24565b506040820151816002019080519060200190610ead929190612b24565b506060820151816003019080519060200190610eca929190612b24565b506080820151816004019080519060200190610ee7929190612b24565b5060a0820151816005019080519060200190610f04929190612bf7565b509050506000805b600480549050811015610f9c57878051906020012060048281548110610f5b577f4e487b7100000000000000000000000000000000000000000000000000000000600052603260045260246000fd5b90600052602060002001604051610f7291906135d2565b60405180910390201415610f895760019150610f9c565b8080610f9490613d89565b915050610f0c565b5080610fdf57600487908060018154018082558091505060019003906000526020600020016000909190919091509080519060200190610fdd929190612b24565b505b7f78384878ee8ef9f8c429173968af06c8e361a98cd306b33d813326106f36681f8733426040516110129392919061367a565b60405180910390a150505050505050565b606080606080606080600060018860405161103e91906135e9565b90815260200160405180910390206040518060c001604052908160008201805461106790613d57565b80601f016020809104026020016040519081016040528092919081815260200182805461109390613d57565b80156110e05780601f106110b5576101008083540402835291602001916110e0565b820191906000526020600020905b8154815290600101906020018083116110c357829003601f168201915b505050505081526020016001820180546110f990613d57565b80601f016020809104026020016040519081016040528092919081815260200182805461112590613d57565b80156111725780601f1061114757610100808354040283529160200191611172565b820191906000526020600020905b81548152906001019060200180831161115557829003601f168201915b5050505050815260200160028201805461118b90613d57565b80601f01602080910402602001604051908101604052809291908181526020018280546111b790613d57565b80156112045780601f106111d957610100808354040283529160200191611204565b820191906000526020600020905b8154815290600101906020018083116111e757829003601f168201915b5050505050815260200160038201805461121d90613d57565b80601f016020809104026020016040519081016040528092919081815260200182805461124990613d57565b80156112965780601f1061126b57610100808354040283529160200191611296565b820191906000526020600020905b81548152906001019060200180831161127957829003601f168201915b505050505081526020016004820180546112af90613d57565b80601f01602080910402602001604051908101604052809291908181526020018280546112db90613d57565b80156113285780601f106112fd57610100808354040283529160200191611328565b820191906000526020600020905b81548152906001019060200180831161130b57829003601f168201915b5050505050815260200160058201805480602002602001604051908101604052809291908181526020016000905b8282101561140257838290600052602060002001805461137590613d57565b80601f01602080910402602001604051908101604052809291908181526020018280546113a190613d57565b80156113ee5780601f106113c3576101008083540402835291602001916113ee565b820191906000526020600020905b8154815290600101906020018083116113d157829003601f168201915b505050505081526020019060010190611356565b50505050815250509050806000015181602001518260400151836060015184608001518560a001519650965096509650965096505091939550919395565b6004818154811061145057600080fd5b90600052602060002001600091509050805461146b90613d57565b80601f016020809104026020016040519081016040528092919081815260200182805461149790613d57565b80156114e45780601f106114b9576101008083540402835291602001916114e4565b820191906000526020600020905b8154815290600101906020018083116114c757829003601f168201915b505050505081565b60608060606000606060006060600060028960405161150b91906135e9565b90815260200160405180910390206040518060e001604052908160008201805461153490613d57565b80601f016020809104026020016040519081016040528092919081815260200182805461156090613d57565b80156115ad5780601f10611582576101008083540402835291602001916115ad565b820191906000526020600020905b81548152906001019060200180831161159057829003601f168201915b505050505081526020016001820180546115c690613d57565b80601f01602080910402602001604051908101604052809291908181526020018280546115f290613d57565b801561163f5780601f106116145761010080835404028352916020019161163f565b820191906000526020600020905b81548152906001019060200180831161162257829003601f168201915b5050505050815260200160028201805461165890613d57565b80601f016020809104026020016040519081016040528092919081815260200182805461168490613d57565b80156116d15780601f106116a6576101008083540402835291602001916116d1565b820191906000526020600020905b8154815290600101906020018083116116b457829003601f168201915b50505050508152602001600382015481526020016004820180546116f490613d57565b80601f016020809104026020016040519081016040528092919081815260200182805461172090613d57565b801561176d5780601f106117425761010080835404028352916020019161176d565b820191906000526020600020905b81548152906001019060200180831161175057829003601f168201915b505050505081526020016005820160009054906101000a900473ffffffffffffffffffffffffffffffffffffffff1673ffffffffffffffffffffffffffffffffffffffff1673ffffffffffffffffffffffffffffffffffffffff1681526020016006820180548060200260200160405190810160405280929190818152602001828054801561181b57602002820191906000526020600020905b815481526020019060010190808311611807575b5050505050815250509050806000015181602001518260400151836060015184608001518560a001518660c00151975097509750975097509750975050919395979092949650565b60608060006060600060608060065488111580156118815750600088115b6118c0576040517f08c379a00000000000000000000000000000000000000000000000000000000081526004016118b790613a07565b60405180910390fd5b60008060008a81526020019081526020016000206040518060e00160405290816000820180546118ef90613d57565b80601f016020809104026020016040519081016040528092919081815260200182805461191b90613d57565b80156119685780601f1061193d57610100808354040283529160200191611968565b820191906000526020600020905b81548152906001019060200180831161194b57829003601f168201915b5050505050815260200160018201805461198190613d57565b80601f01602080910402602001604051908101604052809291908181526020018280546119ad90613d57565b80156119fa5780601f106119cf576101008083540402835291602001916119fa565b820191906000526020600020905b8154815290600101906020018083116119dd57829003601f168201915b505050505081526020016002820160009054906101000a900473ffffffffffffffffffffffffffffffffffffffff1673ffffffffffffffffffffffffffffffffffffffff1673ffffffffffffffffffffffffffffffffffffffff16815260200160038201805480602002602001604051908101604052809291908181526020016000905b82821015611b2a578382906000526020600020018054611a9d90613d57565b80601f0160208091040260200160405190810160405280929190818152602001828054611ac990613d57565b8015611b165780601f10611aeb57610100808354040283529160200191611b16565b820191906000526020600020905b815481529060010190602001808311611af957829003601f168201915b505050505081526020019060010190611a7e565b50505050815260200160048201548152602001600582018054611b4c90613d57565b80601f0160208091040260200160405190810160405280929190818152602001828054611b7890613d57565b8015611bc55780601f10611b9a57610100808354040283529160200191611bc5565b820191906000526020600020905b815481529060010190602001808311611ba857829003601f168201915b5050505050815260200160068201805480602002602001604051908101604052809291908181526020016000905b82821015611c9f578382906000526020600020018054611c1290613d57565b80601f0160208091040260200160405190810160405280929190818152602001828054611c3e90613d57565b8015611c8b5780601f10611c6057610100808354040283529160200191611c8b565b820191906000526020600020905b815481529060010190602001808311611c6e57829003601f168201915b505050505081526020019060010190611bf3565b50505050815250509050806000015181602001518260400151836060015184608001518560a001518660c00151975097509750975097509750975050919395979092949650565b600760009054906101000a900473ffffffffffffffffffffffffffffffffffffffff1681565b6000600185604051611d1e91906135e9565b90815260200160405180910390206000018054611d3a90613d57565b905011611d7c576040517f08c379a0000000000000000000000000000000000000000000000000000000008152600401611d7390613a27565b60405180910390fd5b60066000815480929190611d8f90613d89565b91905055506040518060e001604052808581526020018481526020013373ffffffffffffffffffffffffffffffffffffffff168152602001600067ffffffffffffffff811115611e08577f4e487b7100000000000000000000000000000000000000000000000000000000600052604160045260246000fd5b604051908082528060200260200182016040528015611e3b57816020015b6060815260200190600190039081611e265790505b508152602001428152602001828152602001600067ffffffffffffffff811115611e8e577f4e487b7100000000000000000000000000000000000000000000000000000000600052604160045260246000fd5b604051908082528060200260200182016040528015611ec157816020015b6060815260200190600190039081611eac5790505b5081525060008060065481526020019081526020016000206000820151816000019080519060200190611ef5929190612b24565b506020820151816001019080519060200190611f12929190612b24565b5060408201518160020160006101000a81548173ffffffffffffffffffffffffffffffffffffffff021916908373ffffffffffffffffffffffffffffffffffffffff1602179055506060820151816003019080519060200190611f76929190612bf7565b506080820151816004015560a0820151816005019080519060200190611f9d929190612b24565b5060c0820151816006019080519060200190611fba929190612bf7565b50905050600080600654815260200190815260200160002060030180600181540180825580915050600190039060005260206000200160006040518060400160405280601581526020017f4861727665737465642062792050726f6475636572000000000000000000000081525090919091509080519060200190612040929190612b24565b50600060028360405161205391906135e9565b9081526020016040518091039020600001805461206f90613d57565b905011156120c25760028260405161208791906135e9565b908152602001604051809103902060060160065490806001815401808255809150506001900390600052602060002001600090919091909150555b7f28222dbd9906bc73e71cbd7bd296a46d23de9224d425c30be175af99b4ab774160065433426040516120f793929190613b2c565b60405180910390a150505050565b600760009054906101000a900473ffffffffffffffffffffffffffffffffffffffff1673ffffffffffffffffffffffffffffffffffffffff163373ffffffffffffffffffffffffffffffffffffffff1614612195576040517f08c379a000000000000000000000000000000000000000000000000000000000815260040161218c90613a47565b60405180910390fd5b6000600360008373ffffffffffffffffffffffffffffffffffffffff1673ffffffffffffffffffffffffffffffffffffffff16815260200190815260200160002060006101000a81548160ff02191690831515021790555050565b60028180516020810182018051848252602083016020850120818352809550505050505060009150905080600001805461222990613d57565b80601f016020809104026020016040519081016040528092919081815260200182805461225590613d57565b80156122a25780601f10612277576101008083540402835291602001916122a2565b820191906000526020600020905b81548152906001019060200180831161228557829003601f168201915b5050505050908060010180546122b790613d57565b80601f01602080910402602001604051908101604052809291908181526020018280546122e390613d57565b80156123305780601f1061230557610100808354040283529160200191612330565b820191906000526020600020905b81548152906001019060200180831161231357829003601f168201915b50505050509080600201805461234590613d57565b80601f016020809104026020016040519081016040528092919081815260200182805461237190613d57565b80156123be5780601f10612393576101008083540402835291602001916123be565b820191906000526020600020905b8154815290600101906020018083116123a157829003601f168201915b5050505050908060030154908060040180546123d990613d57565b80601f016020809104026020016040519081016040528092919081815260200182805461240590613d57565b80156124525780601f1061242757610100808354040283529160200191612452565b820191906000526020600020905b81548152906001019060200180831161243557829003601f168201915b5050505050908060050160009054906101000a900473ffffffffffffffffffffffffffffffffffffffff16905086565b60065482111580156124945750600082115b6124d3576040517f08c379a00000000000000000000000000000000000000000000000000000000081526004016124ca90613a07565b60405180910390fd5b60008083815260200190815260200160002060030181908060018154018082558091505060019003906000526020600020016000909190919091509080519060200190612521929190612b24565b507f28222dbd9906bc73e71cbd7bd296a46d23de9224d425c30be175af99b4ab7741828233426040516125579493929190613aa2565b60405180910390a15050565b600060205280600052604060002060009150905080600001805461258690613d57565b80601f01602080910402602001604051908101604052809291908181526020018280546125b290613d57565b80156125ff5780601f106125d4576101008083540402835291602001916125ff565b820191906000526020600020905b8154815290600101906020018083116125e257829003601f168201915b50505050509080600101805461261490613d57565b80601f016020809104026020016040519081016040528092919081815260200182805461264090613d57565b801561268d5780601f106126625761010080835404028352916020019161268d565b820191906000526020600020905b81548152906001019060200180831161267057829003601f168201915b5050505050908060020160009054906101000a900473ffffffffffffffffffffffffffffffffffffffff16908060040154908060050180546126ce90613d57565b80601f01602080910402602001604051908101604052809291908181526020018280546126fa90613d57565b80156127475780601f1061271c57610100808354040283529160200191612747565b820191906000526020600020905b81548152906001019060200180831161272a57829003601f168201915b5050505050905085565b60018180516020810182018051848252602083016020850120818352809550505050505060009150905080600001805461278a90613d57565b80601f01602080910402602001604051908101604052809291908181526020018280546127b690613d57565b80156128035780601f106127d857610100808354040283529160200191612803565b820191906000526020600020905b8154815290600101906020018083116127e657829003601f168201915b50505050509080600101805461281890613d57565b80601f016020809104026020016040519081016040528092919081815260200182805461284490613d57565b80156128915780601f1061286657610100808354040283529160200191612891565b820191906000526020600020905b81548152906001019060200180831161287457829003601f168201915b5050505050908060020180546128a690613d57565b80601f01602080910402602001604051908101604052809291908181526020018280546128d290613d57565b801561291f5780601f106128f45761010080835404028352916020019161291f565b820191906000526020600020905b81548152906001019060200180831161290257829003601f168201915b50505050509080600301805461293490613d57565b80601f016020809104026020016040519081016040528092919081815260200182805461296090613d57565b80156129ad5780601f10612982576101008083540402835291602001916129ad565b820191906000526020600020905b81548152906001019060200180831161299057829003601f168201915b5050505050908060040180546129c290613d57565b80601f01602080910402602001604051908101604052809291908181526020018280546129ee90613d57565b8015612a3b5780601f10612a1057610100808354040283529160200191612a3b565b820191906000526020600020905b815481529060010190602001808311612a1e57829003601f168201915b5050505050905085565b60065481565b60606005805480602002602001604051908101604052809291908181526020016000905b82821015612b1b578382906000526020600020018054612a8e90613d57565b80601f0160208091040260200160405190810160405280929190818152602001828054612aba90613d57565b8015612b075780601f10612adc57610100808354040283529160200191612b07565b820191906000526020600020905b815481529060010190602001808311612aea57829003601f168201915b505050505081526020019060010190612a6f565b50505050905090565b828054612b3090613d57565b90600052602060002090601f016020900481019282612b525760008555612b99565b82601f10612b6b57805160ff1916838001178555612b99565b82800160010185558215612b99579182015b82811115612b98578251825591602001919060010190612b7d565b5b509050612ba69190612c57565b5090565b828054828255906000526020600020908101928215612be6579160200282015b82811115612be5578251825591602001919060010190612bca565b5b509050612bf39190612c57565b5090565b828054828255906000526020600020908101928215612c46579160200282015b82811115612c45578251829080519060200190612c35929190612b24565b5091602001919060010190612c17565b5b509050612c539190612c74565b5090565b5b80821115612c70576000816000905550600101612c58565b5090565b5b80821115612c945760008181612c8b9190612c98565b50600101612c75565b5090565b508054612ca490613d57565b6000825580601f10612cb65750612cd5565b601f016020900490600052602060002090810190612cd49190612c57565b5b50565b6000612ceb612ce684613ba7565b613b76565b9050808382526020820190508260005b85811015612d2b5781358501612d118882612db2565b845260208401935060208301925050600181019050612cfb565b5050509392505050565b6000612d48612d4384613bd3565b613b76565b905082815260208101848484011115612d6057600080fd5b612d6b848285613d15565b509392505050565b600081359050612d8281613e70565b92915050565b600082601f830112612d9957600080fd5b8135612da9848260208601612cd8565b91505092915050565b600082601f830112612dc357600080fd5b8135612dd3848260208601612d35565b91505092915050565b600081359050612deb81613e87565b92915050565b600060208284031215612e0357600080fd5b6000612e1184828501612d73565b91505092915050565b600060208284031215612e2c57600080fd5b600082013567ffffffffffffffff811115612e4657600080fd5b612e5284828501612db2565b91505092915050565b60008060408385031215612e6e57600080fd5b600083013567ffffffffffffffff811115612e8857600080fd5b612e9485828601612db2565b925050602083013567ffffffffffffffff811115612eb157600080fd5b612ebd85828601612db2565b9150509250929050565b60008060008060808587031215612edd57600080fd5b600085013567ffffffffffffffff811115612ef757600080fd5b612f0387828801612db2565b945050602085013567ffffffffffffffff811115612f2057600080fd5b612f2c87828801612db2565b935050604085013567ffffffffffffffff811115612f4957600080fd5b612f5587828801612db2565b925050606085013567ffffffffffffffff811115612f7257600080fd5b612f7e87828801612db2565b91505092959194509250565b600080600080600060a08688031215612fa257600080fd5b600086013567ffffffffffffffff811115612fbc57600080fd5b612fc888828901612db2565b955050602086013567ffffffffffffffff811115612fe557600080fd5b612ff188828901612db2565b945050604086013567ffffffffffffffff81111561300e57600080fd5b61301a88828901612db2565b935050606086013567ffffffffffffffff81111561303757600080fd5b61304388828901612db2565b925050608086013567ffffffffffffffff81111561306057600080fd5b61306c88828901612db2565b9150509295509295909350565b60008060008060008060c0878903121561309257600080fd5b600087013567ffffffffffffffff8111156130ac57600080fd5b6130b889828a01612db2565b965050602087013567ffffffffffffffff8111156130d557600080fd5b6130e189828a01612db2565b955050604087013567ffffffffffffffff8111156130fe57600080fd5b61310a89828a01612db2565b945050606087013567ffffffffffffffff81111561312757600080fd5b61313389828a01612db2565b935050608087013567ffffffffffffffff81111561315057600080fd5b61315c89828a01612db2565b92505060a087013567ffffffffffffffff81111561317957600080fd5b61318589828a01612d88565b9150509295509295509295565b6000602082840312156131a457600080fd5b60006131b284828501612ddc565b91505092915050565b600080604083850312156131ce57600080fd5b60006131dc85828601612ddc565b925050602083013567ffffffffffffffff8111156131f957600080fd5b61320585828601612db2565b9150509250929050565b600061321b83836133ab565b905092915050565b600061322f83836135b4565b60208301905092915050565b61324481613ccd565b82525050565b600061325582613c38565b61325f8185613c73565b93508360208202850161327185613c03565b8060005b858110156132ad578484038952815161328e858261320f565b945061329983613c59565b925060208a01995050600181019050613275565b50829750879550505050505092915050565b60006132ca82613c43565b6132d48185613c84565b93506132df83613c13565b8060005b838110156133105781516132f78882613223565b975061330283613c66565b9250506001810190506132e3565b5085935050505092915050565b61332681613cdf565b82525050565b6000815461333981613d57565b6133438186613c95565b9450600182166000811461335e576001811461336f576133a2565b60ff198316865281860193506133a2565b61337885613c23565b60005b8381101561339a5781548189015260018201915060208101905061337b565b838801955050505b50505092915050565b60006133b682613c4e565b6133c08185613ca0565b93506133d0818560208601613d24565b6133d981613e5f565b840191505092915050565b60006133ef82613c4e565b6133f98185613cb1565b9350613409818560208601613d24565b61341281613e5f565b840191505092915050565b600061342882613c4e565b6134328185613cc2565b9350613442818560208601613d24565b80840191505092915050565b600061345b600983613cb1565b91507f48617276657374656400000000000000000000000000000000000000000000006000830152602082019050919050565b600061349b601083613cb1565b91507f496e76616c6964204672756974204944000000000000000000000000000000006000830152602082019050919050565b60006134db601983613cb1565b91507f46727569742074797065206e6f7420696e20636174616c6f67000000000000006000830152602082019050919050565b600061351b602283613cb1565b91507f4f6e6c79206f776e65722063616e20706572666f726d2074686973206163746960008301527f6f6e0000000000000000000000000000000000000000000000000000000000006020830152604082019050919050565b6000613581600e83613cb1565b91507f4e6f7420617574686f72697a65640000000000000000000000000000000000006000830152602082019050919050565b6135bd81613d0b565b82525050565b6135cc81613d0b565b82525050565b60006135de828461332c565b915081905092915050565b60006135f5828461341d565b915081905092915050565b6000602082019050613615600083018461323b565b92915050565b60006020820190508181036000830152613635818461324a565b905092915050565b6000602082019050613652600083018461331d565b92915050565b6000602082019050818103600083015261367281846133e4565b905092915050565b6000606082019050818103600083015261369481866133e4565b90506136a3602083018561323b565b6136b060408301846135c3565b949350505050565b600060e08201905081810360008301526136d2818a6133e4565b905081810360208301526136e681896133e4565b90506136f5604083018861323b565b8181036060830152613707818761324a565b905061371660808301866135c3565b81810360a083015261372881856133e4565b905081810360c083015261373c818461324a565b905098975050505050505050565b600060a082019050818103600083015261376481886133e4565b9050818103602083015261377881876133e4565b9050613787604083018661323b565b61379460608301856135c3565b81810360808301526137a681846133e4565b90509695505050505050565b600060a08201905081810360008301526137cc81886133e4565b905081810360208301526137e081876133e4565b905081810360408301526137f481866133e4565b9050818103606083015261380881856133e4565b9050818103608083015261381c81846133e4565b90509695505050505050565b600060c082019050818103600083015261384281896133e4565b9050818103602083015261385681886133e4565b9050818103604083015261386a81876133e4565b9050818103606083015261387e81866133e4565b9050818103608083015261389281856133e4565b905081810360a08301526138a6818461324a565b9050979650505050505050565b600060c08201905081810360008301526138cd81896133e4565b905081810360208301526138e181886133e4565b905081810360408301526138f581876133e4565b905061390460608301866135c3565b818103608083015261391681856133e4565b905061392560a083018461323b565b979650505050505050565b600060e082019050818103600083015261394a818a6133e4565b9050818103602083015261395e81896133e4565b9050818103604083015261397281886133e4565b905061398160608301876135c3565b818103608083015261399381866133e4565b90506139a260a083018561323b565b81810360c08301526139b481846132bf565b905098975050505050505050565b600060608201905081810360008301526139dc81866133e4565b905081810360208301526139f081856133e4565b90506139ff60408301846135c3565b949350505050565b60006020820190508181036000830152613a208161348e565b9050919050565b60006020820190508181036000830152613a40816134ce565b9050919050565b60006020820190508181036000830152613a608161350e565b9050919050565b60006020820190508181036000830152613a8081613574565b9050919050565b6000602082019050613a9c60008301846135c3565b92915050565b6000608082019050613ab760008301876135c3565b8181036020830152613ac981866133e4565b9050613ad8604083018561323b565b613ae560608301846135c3565b95945050505050565b6000606082019050613b0360008301866135c3565b8181036020830152613b1581856133e4565b9050613b2460408301846135c3565b949350505050565b6000608082019050613b4160008301866135c3565b8181036020830152613b528161344e565b9050613b61604083018561323b565b613b6e60608301846135c3565b949350505050565b6000604051905081810181811067ffffffffffffffff82111715613b9d57613b9c613e30565b5b8060405250919050565b600067ffffffffffffffff821115613bc257613bc1613e30565b5b602082029050602081019050919050565b600067ffffffffffffffff821115613bee57613bed613e30565b5b601f19601f8301169050602081019050919050565b6000819050602082019050919050565b6000819050602082019050919050565b60008190508160005260206000209050919050565b600081519050919050565b600081519050919050565b600081519050919050565b6000602082019050919050565b6000602082019050919050565b600082825260208201905092915050565b600082825260208201905092915050565b600081905092915050565b600082825260208201905092915050565b600082825260208201905092915050565b600081905092915050565b6000613cd882613ceb565b9050919050565b60008115159050919050565b600073ffffffffffffffffffffffffffffffffffffffff82169050919050565b6000819050919050565b82818337600083830152505050565b60005b83811015613d42578082015181840152602081019050613d27565b83811115613d51576000848401525b50505050565b60006002820490506001821680613d6f57607f821691505b60208210811415613d8357613d82613e01565b5b50919050565b6000613d9482613d0b565b91507fffffffffffffffffffffffffffffffffffffffffffffffffffffffffffffffff821415613dc757613dc6613dd2565b5b600182019050919050565b7f4e487b7100000000000000000000000000000000000000000000000000000000600052601160045260246000fd5b7f4e487b7100000000000000000000000000000000000000000000000000000000600052602260045260246000fd5b7f4e487b7100000000000000000000000000000000000000000000000000000000600052604160045260246000fd5b6000601f19601f8301169050919050565b613e7981613ccd565b8114613e8457600080fd5b50565b613e9081613d0b565b8114613e9b57600080fd5b5056fea2646970667358221220f0fed2ba5464dbe1f8bb85de96dbaa5d00a81296d5fcd4832f0fe248f73de29b64736f6c63430008000033",
  "immutableReferences": {},
  "source": "// SPDX-License-Identifier: MIT\npragma solidity ^0.8.0;\n\ncontract FruitSupplyChain {\n    struct Fruit {\n        string fruitType;\n        string origin;\n        address producer;\n        string[] history;\n        uint harvestDate;\n        string quality;\n        string[] recommendationHistory;\n    }\n    \n    struct FruitCatalog {\n        string name;\n        string description;\n        string growingSeason;\n        string nutritionalValue;\n        string storageConditions;\n        string[] commonVarieties;\n    }\n    \n    struct FarmData {\n        string location;\n        string climate;\n        string soil;\n        uint lastUpdated;\n        string currentConditions;\n        address owner;\n        uint[] fruitIds;\n    }\n    \n    mapping(uint => Fruit) public fruits;\n    mapping(string => FruitCatalog) public fruitCatalogs;\n    mapping(string => FarmData) public farms;\n    mapping(address => bool) public authorizedManagers;\n    \n    string[] public registeredFruitTypes;\n    string[] public registeredFarms;\n    \n    uint public fruitCount;\n    address public owner;\n    \n    event StepRecorded(uint fruitId, string step, address by, uint timestamp);\n    event FarmUpdated(string farmId, string conditions, uint timestamp);\n    event CatalogAdded(string fruitType, address by, uint timestamp);\n    event RecommendationAdded(uint fruitId, string recommendation, uint timestamp);\n    \n    modifier onlyOwner() {\n        require(msg.sender == owner, \"Only owner can perform this action\");\n        _;\n    }\n    \n    modifier onlyAuthorized() {\n        require(msg.sender == owner || authorizedManagers[msg.sender], \"Not authorized\");\n        _;\n    }\n    \n    constructor() {\n        owner = msg.sender;\n        authorizedManagers[msg.sender] = true;\n    }\n    \n    function addManager(address _manager) public onlyOwner {\n        authorizedManagers[_manager] = true;\n    }\n    \n    function removeManager(address _manager) public onlyOwner {\n        authorizedManagers[_manager] = false;\n    }\n    \n    function addFruitCatalog(\n        string memory _fruitType, \n        string memory _description, \n        string memory _growingSeason,\n        string memory _nutritionalValue,\n        string memory _storageConditions,\n        string[] memory _commonVarieties\n    ) public onlyAuthorized {\n        fruitCatalogs[_fruitType] = FruitCatalog(\n            _fruitType,\n            _description,\n            _growingSeason,\n            _nutritionalValue,\n            _storageConditions,\n            _commonVarieties\n        );\n        \n        // Kiểm tra xem loại trái cây đã tồn tại trong danh sách chưa\n        bool exists = false;\n        for (uint i = 0; i < registeredFruitTypes.length; i++) {\n            if (keccak256(bytes(registeredFruitTypes[i])) == keccak256(bytes(_fruitType))) {\n                exists = true;\n                break;\n            }\n        }\n        \n        if (!exists) {\n            registeredFruitTypes.push(_fruitType);\n        }\n        \n        emit CatalogAdded(_fruitType, msg.sender, block.timestamp);\n    }\n    \n    function registerFarm(\n        string memory _farmId,\n        string memory _location,\n        string memory _climate,\n        string memory _soil,\n        string memory _currentConditions\n    ) public {\n        farms[_farmId] = FarmData(\n            _location,\n            _climate,\n            _soil,\n            block.timestamp,\n            _currentConditions,\n            msg.sender,\n            new uint[](0)\n        );\n        \n        // Kiểm tra xem nông trại đã tồn tại trong danh sách chưa\n        bool exists = false;\n        for (uint i = 0; i < registeredFarms.length; i++) {\n            if (keccak256(bytes(registeredFarms[i])) == keccak256(bytes(_farmId))) {\n                exists = true;\n                break;\n            }\n        }\n        \n        if (!exists) {\n            registeredFarms.push(_farmId);\n        }\n        \n        emit FarmUpdated(_farmId, _currentConditions, block.timestamp);\n    }\n    \n    function updateFarmConditions(string memory _farmId, string memory _conditions) public {\n        require(farms[_farmId].owner == msg.sender || authorizedManagers[msg.sender], \"Not authorized\");\n        farms[_farmId].currentConditions = _conditions;\n        farms[_farmId].lastUpdated = block.timestamp;\n        \n        emit FarmUpdated(_farmId, _conditions, block.timestamp);\n    }\n    \n    function harvestFruit(\n        string memory _fruitType, \n        string memory _origin, \n        string memory _farmId,\n        string memory _quality\n    ) public {\n        require(bytes(fruitCatalogs[_fruitType].name).length > 0, \"Fruit type not in catalog\");\n        \n        fruitCount++;\n        fruits[fruitCount] = Fruit(\n            _fruitType, \n            _origin, \n            msg.sender, \n            new string[](0),\n            block.timestamp,\n            _quality,\n            new string[](0)\n        );\n        \n        fruits[fruitCount].history.push(\"Harvested by Producer\");\n        \n        // Liên kết trái cây với nông trại\n        if (bytes(farms[_farmId].location).length > 0) {\n            farms[_farmId].fruitIds.push(fruitCount);\n        }\n        \n        emit StepRecorded(fruitCount, \"Harvested\", msg.sender, block.timestamp);\n    }\n    \n    function recordStep(uint _fruitId, string memory _step) public {\n        require(_fruitId <= fruitCount && _fruitId > 0, \"Invalid Fruit ID\");\n        fruits[_fruitId].history.push(_step);\n        emit StepRecorded(_fruitId, _step, msg.sender, block.timestamp);\n    }\n    \n    function addRecommendation(uint _fruitId, string memory _recommendation) public onlyAuthorized {\n        require(_fruitId <= fruitCount && _fruitId > 0, \"Invalid Fruit ID\");\n        fruits[_fruitId].recommendationHistory.push(_recommendation);\n        emit RecommendationAdded(_fruitId, _recommendation, block.timestamp);\n    }\n    \n    function getFruit(uint _fruitId) public view returns (\n        string memory, \n        string memory, \n        address, \n        string[] memory,\n        uint,\n        string memory,\n        string[] memory\n    ) {\n        require(_fruitId <= fruitCount && _fruitId > 0, \"Invalid Fruit ID\");\n        Fruit memory fruit = fruits[_fruitId];\n        return (\n            fruit.fruitType, \n            fruit.origin, \n            fruit.producer, \n            fruit.history,\n            fruit.harvestDate,\n            fruit.quality,\n            fruit.recommendationHistory\n        );\n    }\n    \n    function getFruitCatalog(string memory _fruitType) public view returns (\n        string memory,\n        string memory,\n        string memory,\n        string memory,\n        string memory,\n        string[] memory\n    ) {\n        FruitCatalog memory catalog = fruitCatalogs[_fruitType];\n        return (\n            catalog.name,\n            catalog.description,\n            catalog.growingSeason,\n            catalog.nutritionalValue,\n            catalog.storageConditions,\n            catalog.commonVarieties\n        );\n    }\n    \n    function getFarmData(string memory _farmId) public view returns (\n        string memory,\n        string memory,\n        string memory,\n        uint,\n        string memory,\n        address,\n        uint[] memory\n    ) {\n        FarmData memory farm = farms[_farmId];\n        return (\n            farm.location,\n            farm.climate,\n            farm.soil,\n            farm.lastUpdated,\n            farm.currentConditions,\n            farm.owner,\n            farm.fruitIds\n        );\n    }\n    \n    function getAllFruitTypes() public view returns (string[] memory) {\n        return registeredFruitTypes;\n    }\n    \n    function getAllFarms() public view returns (string[] memory) {\n        return registeredFarms;\n    }\n}",
  "sourcePath": "D:\\Code\\Prj\\fruit-supply-chain\\contracts\\SupplyChain.sol",
  "compiler": {
    "name": "solc",
    "version": "0.8.0+commit.c7dfd78e.Emscripten.clang"
  },
  "schemaVersion": "3.4.16",
  "updatedAt": "2025-03-20T09:24:06.837Z",
  "devdoc": {
    "kind": "dev",
    "methods": {},
    "version": 1
  },
  "userdoc": {
    "kind": "user",
    "methods": {},
    "version": 1
  }
}